:100000000C9446010C9463010C947E010C946301E2
:100010000C9463010C9463010C9414170C94630109
:100020000C9463010C9463010C9463010C946301C0
:100030000C9463010C9463010C949B170C94630162
:100040000C9463010C9463010C9463010C946301A0
:100050000C9463010C9463010C9463010C94630190
:100060000C9463010C94630135001E001F002000F6
:1000700021002A0027002600250024002B00140060
:100080001A00080022004C00130012000C0023008C
:1000900029000400160015001700340033000F007B
:1000A00018001C00E1001D00070009000A002800DC
:1000B00038000E000D000B00E0001B0006001900C8
:1000C00005004F0037003600100011002152E200F9
:1000D000E30021522C0052005100500021522C000C
:1000E00035001E001F00200021002A0027002600E6
:1000F0002500240035001E001F00200022004C00B7
:1001000027002600250023004C003A003B00210078
:100110002200310030002F002400230001004000A5
:100120003C003D003E0001004E002E002D003F002F
:1001300001004100420043004400AE004B00640057
:100140003200450001000100010001000100A9008A
:10015000AA00AB000100010009023B00020100A05F
:10016000320904000001030101000921010100011D
:10017000224400070581030800010904010001036E
:10018000000000092101010001227B000705830313
:1001900008000112011001000000086A700200014D
:1001A000000102000116034C0075006D006200653D
:1001B0000072006A00610063006B0000000A0350D7
:1001C00000650065006A00000004030904050109D8
:1001D00002A10185020901A10005091901290815DB
:1001E00000250195087501810205010930093115C5
:1001F00081257F95027508810609381581257F952F
:100200000175088106050C0A38021581257F9501C4
:1002100075088106C0C005010980A1018503190187
:100220002AB700150126B700950175108100C00599
:100230000C0901A101850419012AA002150126A0BB
:1002400002950175108100C005010906A10105078D
:1002500019E029E71500250195087501810295012E
:10026000750881030507190029FF150026FF009571
:100270000675088100050819012905150025019555
:100280000575019102950175039103C011241FBEEC
:10029000CFEFD8E0DEBFCDBF11E0A0E0B1E0EEEEE1
:1002A000F7E302C005900D92AA39B107D9F722E011
:1002B000AAE9B1E001C01D92A43CB207E1F70E9497
:1002C0009B110C94C01B0C940000A82FB92F80E048
:1002D00090E041E050EA609530E009C02D9182271E
:1002E0009795879510F084279527305EC8F36F5F48
:1002F000A8F30895EADF8D939D930895CF93CFB728
:10030000CF93DF93C3954B9BE9F74B9B10C04B9B5F
:100310000EC04B9B0CC04B9B0AC04B9B08C04B9B19
:1003200006C0C0919B02C395C0939B028EC06F9381
:10033000C0919A02DD27CE55DD4F2F9365E54B9B8B
:1003400003C02F916F91E1CF0F931F934F9320E044
:1003500040E15F9309B10C7003FB27F93F9350E034
:100360003BE039C01C7040642F77012F5F5F1EC0D7
:10037000406819B11C702F7752501FC0406409B1FA
:100380002F770C70D1F15F5F00C023C0406219B1BC
:100390002F771C7091F15F5F00C025C00C70102793
:1003A000515012F45D5F0000115027952C3F19B198
:1003B000C8F61C700127015027952C3FC8F642272C
:1003C000499309B10C7010274F73115027952C3F9A
:1003D000A8F64695469519B11C7079F00127015091
:1003E00027952C3F98F66B5A60F3315009B1B0F65F
:1003F00000C012E01CBB00271CC03B503195C31B42
:10040000D04012E01CBB0881033C21F10B3411F1F8
:10041000209197021981110F1213EDCF4A81441FC9
:10042000093679F10D3211F0013E29F74F7009F0CC
:10043000042F0093A0023F915F914F911F910F9164
:100440002F916F91CCB3C1FD5DCFDF91CF91CFBF25
:10045000CF9118952091A002222369F310919E025A
:10046000112309F049C034300AF448C030939E0289
:100470002093990210919A023BE0311B30939A022B
:100480003DC000919E020130BCF50AE54F7049F471
:100490003091160134FD33C000931601C4E7D2E059
:1004A00032C0433059F0443091F030917F0234FD36
:1004B00026C000937F02C0E8D2E025C03091B80288
:1004C00034FD1DC00093B802C9EBD2E01CC03091CE
:1004D0008B0234FD14C000938B02CCE8D2E013C031
:1004E000052710E000C000000BB91AC0052710E076
:1004F000221F1DC010E021C04AE502C032ED432F8B
:10050000C4E1D0E032E01AB11C605B9A0BB11AB9B9
:100510005CE020E865E320FF05270BB927951795D8
:100520001C3FF0F66695B8F7B1F720FF05270BB929
:10053000279517951C3FD0F62795179517FF052788
:1005400000001C3F0BB9B0F629913A9519F7037FCB
:1005500010919F02110FC651D0400BB911F01093AA
:10056000970212E01CBB08601AB1137F402F437F33
:1005700054E05A95F1F70BB91AB94BB95CCF3D9AD3
:100580003C9A0E946F0D08958230B8F46630A8F44A
:100590004A3098F450E09AE0699F400D511D1124B3
:1005A000FA019CE3899FE00DF11D1124EE0FFF1F5E
:1005B000E859FF4F85919491089581E090E0089566
:1005C0000E94C402089581E008950E94E302089504
:1005D00081E008950E94E30208950E94EA020895CE
:1005E00008950E94F0020895A6E0B0E0EAEFF2E07C
:1005F0000C941C1B49835A839E833091A1018981ED
:100600009A8131111AC03E81332399F0222389F057
:100610000E948208182F682F89819A810E945E08A3
:1006200069817A81812F0E94490F2696E3E00C941C
:10063000381B0E947008182FF3CF0E94820869812E
:100640007A81F1CFFC01262F408151816281738133
:10065000848195810E94F4020895CF93DF93EC0189
:1006600061E00E942203BE010E94E502DF91CF916A
:100670000895CF93DF93EC0160E00E942203BE0156
:100680000E94F102DF91CF91089581E008950E94C8
:1006900045030895CF93C82F0E9433078C2F0E94E3
:1006A00047032FEF84E39CE0215080409040E1F726
:1006B00000C00000CF91089581E00E944A030E948B
:1006C000BF17089580E00E944A030E94D41708953E
:1006D0000F931F93CF93DF938C0161E00E9422035D
:1006E000EC01B8010E94ED02811106C080E0DF91AB
:1006F000CF911F910F910895B801CE010E94A315CB
:100700008823A1F3B801CE010E94DF11882371F381
:10071000B801CE010E94B511882341F3F80185810B
:10072000882361F0C330FCE7DF07E9F058F4C11516
:10073000ECE7DE07A9F0C130DC47B9F0C8010E9440
:10074000E802D5CFCB358CE7D807A9F0CC35ECE75C
:10075000DE0771F0CA35DC4789F70E94850CEECFC1
:100760000E945C03C3CF0E948D0C0E946203BECF27
:100770000E947B0CE3CF0E94890CE0CF0E94F6160A
:100780000E94DE0308950E94E2030E94FB16089572
:1007900081E008950895CF93DF93D82F0E94C80376
:1007A000C82F882319F08D2F0E94CA038C2FDF9148
:1007B000CF91089508950E94CB03089580E00E9490
:1007C000DB0308950E94EC150E94DB030895CF938C
:1007D0000E94EC15C82F80919C018C1779F0C09372
:1007E0009C010E94801760939D0170939E018093ED
:1007F0009F019093A0018C2F0E94DB03CF9108955D
:10080000ADE0B0E0E6E0F4E00C941D1B48875987AA
:100810006A877B878C879D8791110E94CF0B1F82EF
:1008200086E0FE013896DE01119601900D928A95C0
:10083000E1F78D8181110DC029813A814B815C8165
:100840006D817E818F810E94190B2D96E2E00C94C0
:10085000391BCE0101960E942D038111EDCFF5CFFA
:10086000FC012481213021F4808191810E94B4080F
:100870000895662329F00E9440130E9413140895DE
:100880000E949A13FACFCF93C82F882399F08CEF48
:100890008C0F813A88F48C2F0E947116882329F0DE
:1008A0008C2F0E94B4160E942A0C8C2F0E94AC162A
:1008B0000E942A0CCF91089580E28C0F883048F472
:1008C000C77081E001C0880FCA95EAF70E94B20B99
:1008D000EFCFEBE5EC0FE33040F4F0E0E35BFE4FED
:1008E000808190E00E941216E5CFE8E5EC0FEB3135
:1008F00050F4F0E0EE0FFF1FE95EFE4F8081918122
:100900000E943716D7CF83E38C0F833198F661E0CE
:100910008C2F0E943904CECF882381F19CEF980F51
:10092000913A28F40E94B4160E942A0C089590E28D
:10093000980F983050F4877091E001C0990F8A9514
:10094000EAF7892F0E94B80BEFCF9BE5980F933001
:1009500028F490E080E00E941216089598E5980F20
:100960009B3128F490E080E00E943716089593E3CD
:10097000980F933118F460E00E94390408951F9392
:10098000CF93DF93182FEB010E944304209739F493
:10099000812F0E948C04DF91CF911F9108958FE9E0
:1009A0009FE00197F1F700C000002197EFCF70E0C2
:1009B00060E0893311F460E570E00E94BF0408959F
:1009C000882321F00E94B20B0E942A0C08958823EC
:1009D00021F00E94B80B0E942A0C0895B0E0A0E01C
:1009E000E4EFF4E00C94161B6C01D62FC72FFC012A
:1009F0001581068102950F700E94A80BE82E8823AE
:100A0000F9F0E12E1123E1F08C2F807F803461F02A
:100A100080E28D0F883008F18C2F807E803221F4A7
:100A2000D230D8F00023C9F08091570282FF15C060
:100A300082E00E944F0C0E94A80B91E0E82EE9266C
:100A4000BC2EB2949FE0B922FBE0FB15B8F1EB2D70
:100A5000F0E0EE53F44E0C94071BE12CF1CF0C2F79
:100A60000F70C07F11F00295007F112399F00023D1
:100A700059F080E28D0F883010F0D11107C0802F1F
:100A80000E94B20B0E942A0C8D2F5AC0802F0E9408
:100A9000C20BF8CF8D2F0E948C04002379F080E2E6
:100AA0008D0F883010F0D11104C0802F0E94B80B38
:100AB00003C0802F0E94C80B0E942A0CEB2DE85027
:100AC000FF0B349720F40E94EC150E94DB03EE200C
:100AD00089F00E94A40B80FD0DC0F60115820E94D2
:100AE0009E0B0E94BC07C6010E94FA060E949E0B44
:100AF0000E94CC07CDB7DEB7E9E00C94321B2C2F57
:100B00002F70F22EC07FC03219F0F29480EFF822DD
:100B1000DD2341F0D130D1F1112309F444C0002389
:100B2000F1F0B2CF8091570282FD15C0112359F028
:100B3000FF2029F08F2D0E94B20B0E942A0C80E02A
:100B40000E944304BBCF80E00E948C04FF2009F484
:100B5000B5CF8F2DABCF112369F0011104C08F2DBC
:100B60000E94E004ABCF013009F0A8CF8F2D0E9486
:100B7000E60BA4CF0111A2CF8F2D0E94E7048F2D89
:100B80000E94F20B8F2D0E94D60B98CF112321F0DB
:100B9000063008F093CFE3CF053008F08FCF8F2DCC
:100BA0000E94E7048BCF0023D1F3D93349F43FEF00
:100BB00087EE93E0315080409040E1F700C00000A4
:100BC0008D2F0E948C047ACF8C2F8695869583700A
:100BD00069F0813009F072CF8D2F9C2F9370111125
:100BE00002C080E090E00E94371668CF8D2F9C2FC6
:100BF0009370111102C080E090E00E9412165ECF47
:100C0000612F8D2F0E94390459CF8C2F8370A1F54D
:100C1000111154CF4D2F429546954770440F440F04
:100C20002D2F2F7030E0042E02C0220F331F0A94A4
:100C3000E2F790E080E0D4FF09C08FE090E002C0CE
:100C4000880F991F4A95E2F780959095C695C695AD
:100C5000C370822B932BC23049F058F4C13019F085
:100C60000E948C072BCF0E94830728CF0E949507F4
:100C700025CF0E94800722CF8695112311F08C2F5B
:100C80008170882309F41ACF4D2F429546954770FD
:100C9000440F440F2D2F2F7030E0042E02C0220F7E
:100CA000331F0A94E2F790E080E0D4FF09C08FE0A0
:100CB00090E002C0880F991F4A95E2F780959095C1
:100CC000C695C695C370822B932BC23049F058F459
:100CD000C13019F00E94F707F1CE0E94EE07EECE68
:100CE0000E940008EBCE0E94A407E8CECF7011232B
:100CF00029F08C2F0E94BC078D2F32CF8D2F0E94A0
:100D0000E7048C2F0E94CC07D9CED23F41F160F48A
:100D1000D03FB9F0D13F81F0112309F443C0011154
:100D2000B3CE8C2F8F711FC0D33F01F1D43FA1F7F9
:100D30008091570282FD24C08C2F8F71112311F3F3
:100D400012C0112341F0053008F0B8CE8C2F8F71FE
:100D50000E94DE07B3CE063008F0B0CEF7CF8C2F5E
:100D60008F711111CFCF0E94BC07A8CE112329F09B
:100D70008C2F8F710E94B007A1CE0E94AB079ECE30
:100D8000112331F063E08C2F8F710E94310C96CECD
:100D900081E00E944F0C023008F490CE82E00E9465
:100DA0004F0C8CCE002359F0D93309F009CFEFEF67
:100DB000F7EE23E0E150F0402040E1F7FFCE8C2F2A
:100DC0008F71A0CF0F931F93CF93DF93EC016881B6
:100DD00079818D810E94BF088C010E9409080E94C0
:100DE0007F07B801CE010E94EE04DF91CF911F91E1
:100DF0000F910895CF93DF93EC018C81882399F0B4
:100E0000CE010E946803811111C00E94A80B8823A3
:100E100051F08D81882339F08091570282FF03C001
:100E200082E00E944F0CDF91CF910895CE010E9485
:100E3000E206CE010E943903F6CF90E080E00E94E6
:100E4000121690E080E00E9437160E94CF0B0E949D
:100E50002A0C0E942F140E94131408950E94BC169D
:100E60000E941D0708950E94BF0B0E942E0708953F
:100E700092959F70963091F058F4925F9F709230E7
:100E800058F4803F19F030F4883E30F481E0089542
:100E90009A5FF4CF843FD1F380E00895883EB0F3A9
:100EA000813FD1F7F3CFFC012481222339F08081E7
:100EB00091810E94B4080E943807089580E0089547
:100EC000A6E0B0E0E6E6F7E00C941D1B2696E2E013
:100ED0000C94391BA7E0B0E0E0E7F7E00C941D1B91
:100EE0002796E2E00C94391B08950E947407089538
:100EF0000E9475079093C5018093C40108950895D9
:100F00000E94780708952091C4013091C501822B79
:100F1000932B0E94780708952091C4013091C50158
:100F2000822393230E94780708952091C401309171
:100F3000C501822793270E94780708950E947407AD
:100F400008950E949E0708950E94A1079093C301EF
:100F50008093C201089590E080E00E94A407089564
:100F600021E030E0A90102C0440F551F8A95E2F745
:100F7000CA010E94A407089521E030E002C0220FB8
:100F8000331F8A95E2F78091C2019091C301822BB1
:100F9000932B0E94A407089521E030E002C0220FA5
:100FA000331F8A95E2F7209530958091C201909188
:100FB000C301822393230E94A407089521E030E017
:100FC00002C0220F331F8A95E2F78091C2019091EF
:100FD000C301822793270E94A40708952091C2018C
:100FE0003091C301822B932B0E94A4070895209176
:100FF000C2013091C301822393230E94A407089564
:101000002091C2013091C301822793270E94A40737
:1010100008950895262F277091E001C0990F2A9511
:10102000EAF723E0769567952A95E1F7660F771F33
:10103000660F771FFA01E60FF71F50E040E0682FB8
:1010400070E08191DF0111979B01042E02C036955B
:1010500027950A94E2F7217021952827292328272C
:101060002C934F5F5F4F4430510559F70895A82FD7
:10107000A77023E0969587952A95E1F7880F991F29
:10108000880F991FFB01E80FF91F50E040E080E056
:10109000219130E00A2E02C0369527950A94E2F796
:1010A00021703327042E01C0220F0A94EAF7822B05
:1010B0004F5F5F4F4430510559F70895262F963002
:1010C00070F48A3060F4682F70E08AE0989F600DB9
:1010D000711D112442EA51E0822F0E940A080895EE
:1010E000292F963068F48A3058F490E062EA71E073
:1010F0003AE0239F800D911D11240E943708089526
:1011000080E00895B0E0A0E0E8E8F8E00C94161B59
:101110007C010091C2011091C3018091C4019091A2
:10112000C501082B192BCFE0D0E0CC24C394D12CDF
:10113000BC2EC6010C2E02C0880F991F0A94E2F73C
:1011400080239123892B49F4219790F7B12C8B2D83
:10115000CDB7DEB7E9E00C94321BB7018C2F0E94AB
:10116000550F019789F3F3CFCF93DF93EC010E94E2
:101170008208BE010E94550FDF91CF9108951F9301
:10118000CF93DF93EB019091A101992339F0CB012B
:101190000E94B408DF91CF911F910895882369F0D0
:1011A000CB010E948208182F682FCE010E945E0892
:1011B000BE01812F0E94550FEDCFCB010E94700818
:1011C000182FF6CF1F93CF93DF93C091C60117E07E
:1011D0008091C7018C1304C0DF91CF911F910895B6
:1011E000D0E01C9FF0011D9FF00D1124E853FE4F2D
:1011F00020813181428153816481758186810E9481
:101200006A072196C770E4CF209100023091010255
:101210004091020250910302609104027091050214
:10122000809106020E946A070895CF93DF93809110
:101230000602807F09F04DC080910502882309F4E1
:1012400048C0E091C6015091C701C0910102D09100
:101250000002609102027091030247E05E17C9F13B
:101260008E2F90E0E49FF0011124E853FE4F24817B
:10127000222391F1489FF001499FF00D1124DF01D5
:10128000A853BE4F11962C9111972C1325C02C9169
:101290002D1322C015962C91159721111DC0129661
:1012A0002D913C91261B370B283C3105A8F48091E9
:1012B00006028F70806180930602E253FE4F8081A8
:1012C0008F708061808380E092E00E94FA060E9425
:1012D000E208DF91CF910895FC013196E770BECF0F
:1012E000482F2091C6019091C70157E0291302C0F1
:1012F00080E0089530E0529FF001539FF00D1124DB
:10130000E853FE4F8181681306C08081481303C0F3
:1013100085818111EECF2F5F3F4F2770E7CFA4E18A
:10132000B0E0E5E9F9E00C94131B8C0186E0F801CC
:10133000DE011F9601900D928A95E1F7F8018481F4
:10134000E58090E0A92E92E0B92E909104029111CF
:101350001FC08823D1F0EE20A9F0C8010E945307D6
:10136000F82E882379F087E0F801D50101900D92DD
:101370008A95E1F7C5010E9430040E9415090E9478
:1013800004095FC0C8010E94FA06FF24F39459C003
:10139000C080D18082809380F0900502209102026B
:1013A00030910302A401421B530BFF2009F4F9C042
:1013B000483C510508F0A7C0882309F442C0909129
:1013C000010280910602282F207F09F05CC09D1148
:1013D00016C090910002C91212C0E1104EC08F7069
:1013E0008061809306020E94040980E092E00E94DE
:1013F000FA0680910602F8018683F12C22C0E110E2
:101400003CC06D2D8C2D0E9470096D2D8C2D0E947D
:101410007009E82E8111F1CFCF86D88A8F859889FF
:101420000E94B408292F22952F70243078F49F70E1
:101430002230A8F09923B9F0F8019681907F99F4B1
:10144000FE2C8F2D6496ECE00C942F1B2A5F2F70DE
:10145000223068F0C8010E94FA06EF2CF1CF9923E0
:1014600011F0882369F3805E883050F3F3CF803F1A
:1014700038F3815F833070F7E3CF8091060281609B
:1014800080930602BACF9D1113C090910002C91239
:101490000FC0E1100DC08683C8010E94FA0687E0E4
:1014A000F801A0E0B2E001900D928A95E1F767CFD4
:1014B000C8010E945307882309F464CFEE2009F481
:1014C00061CF80910602803288F020910002309135
:1014D0000102398728879B868A86909104029C871F
:1014E0001D868E87CE0108960E94FA0687E0F801D5
:1014F000A0E0B2E001900D928A95E1F70E941509F3
:101500000E94040942CF90910602292F207FA1F466
:10151000682D9A8A898AA6017A899E2D0E94600781
:1015200080E092E00E94FA0687E0F50111928A9528
:10153000E9F70E94040961CF882309F482CF8091E2
:1015400001028D1110C080910002C8120CC0E11080
:101550000AC09683C8010E94FA0687E0F50111923D
:101560008A95E9F76ECFC8010E945307882309F4D2
:1015700009CFEE2009F406CF80910602803208F4EC
:10158000B5CF20910002309101023A8329839C82D9
:101590008B82909104029D831E828F83CE010196DF
:1015A000A3CF483C5105B8F5882309F4EECEFE2CB4
:1015B000EE2009F4E7CE809101028D111EC08091CA
:1015C0000002C8121AC08091060280FD0DC0982F3B
:1015D000907F51F08683903F09F45ECF982F907FE3
:1015E000905F8F70892B57CF87E0F801A0E0B2E0C1
:1015F00001900D928A95E1F724CFC8010E9453070C
:10160000811174CF80910602816080930602C80127
:101610000E94FA0616CF682D9A8A898AA6017A89CD
:101620009E2D0E94600787E0F50111928A95E9F7E7
:10163000A6CEAEE0B0E0EFE1FBE00C941C1B2887E7
:1016400039874A875B876C877D878E87CE010896AE
:101650000E948F098823B1F06C85662341F02885AC
:1016600039854A855B857D858E850E946A0717E0EE
:101670008091C6019091C70189133DC02E96E3E089
:101680000C94381B87E0FE013896DE01119601901C
:101690000D928A95E1F78C85882349F32091C70143
:1016A00030E0C9010196877099274091C60148171B
:1016B000190699F097E0929FD001939FB00D1124E5
:1016C000A853BE4FFE01319601900D929A95E1F715
:1016D0008093C7010E94E208CACF0E94330710928C
:1016E000C7011092C60187E0E0E0F2E0DF011D9241
:1016F0008A95E9F7BCCF819FC001112488539E4F82
:101700000E948F09882309F4B9CFE091C6011E9F7A
:10171000F0011124E853FE4F208131814281538131
:101720006481758186810E946A078091C60190E07C
:101730000196877099278093C6019ACF80910702FE
:1017400086958695869508958091070287700895FD
:1017500090910702977081E009F480E008958091EC
:101760001302089590911302892B80931302089518
:1017700080959091130298239093130208951092EC
:101780001302089590911202892B809312020895FA
:1017900080959091120298239093120208951092CE
:1017A0001202089508950E94D20B089590910802A4
:1017B000292F282331F080958923809308020E94E5
:1017C000D30B089508950E94E20B089590910902A9
:1017D000292F2823281729F0982B909309020E947B
:1017E000E30B089590910902292F282331F0809569
:1017F0008923809309020E94E30B089580910902D6
:10180000882329F01092090280E00E94E30B0895DA
:101810000F931F93CF930091000110910101C0918C
:10182000130280911202C82B80910902882331F0A3
:10183000C82B0E945C1681110E94FE0BF801C08328
:1018400080910001909101010E94F915CF911F91A3
:101850000F9108950E94080C089508950E942D0C80
:1018600008959091570292FF11C098E0899F9001CE
:101870001124622B609307020E94BC07809107022B
:101880008695869586950E942E0C08950E94BC0729
:1018900008951092070280E00E942E0C0895909106
:1018A00007028095892380930702282F277069F407
:1018B000891759F09091570292FF07C08695869537
:1018C00086950E94CC070E94490C0895909157027A
:1018D00092FB222720F9281769F080FB92F9909358
:1018E000570280915602909157020E94AE0C82E0FE
:1018F0000E944F0C08958091570282FB882780F93F
:1019000091E089270E94660C089581E00E94660C90
:10191000089580E00E94660C08956FEF7FEF90E0DD
:1019200080E00E94AA1B089590E080E00E94761B50
:1019300021E0853E9E4F09F020E0822F089582E04D
:1019400090E00E946E1B089583E090E00E946E1B61
:10195000089584E090E00E94761B0895BC0184E025
:1019600090E00E94AA1B0895AB01BC018FE090E0BB
:101970000E949E1B0895AB01BC0183E190E00E9490
:101980009E1B089560E070E0CB010E94BB0C08959F
:1019900060E070E0CB010E94B40C0E94C20C08957C
:1019A000A8E0B0E0E6EDFCE00C941D1B65EE7EEFD8
:1019B00090E080E00E94AA1B60E082E090E00E943C
:1019C0008C1B81E090E09093C5018093C40161E09D
:1019D00083E090E00E948C1B60E074E184E090E082
:1019E0000E94AA1B60E086E090E00E948C1B60E0F1
:1019F00087E090E00E948C1B40E050E0BA0188E054
:101A000090E00E949E1B60E083E290E00E948C1BAD
:101A100060E08CE090E00E948C1B60E08DE090E044
:101A20000E948C1B19821A821B821C821D821E82BC
:101A30001F82188648E050E067E170E0CE01019611
:101A40000E947C1B40E050E0BA018FE190E00E94D0
:101A50009E1B0E94C80C2896E2E00C94391B0E9441
:101A6000D00C0895682F8EE090E00E948C1B0895A2
:101A7000A6E0B0E0EEE3FDE00C941B1B0E9474179F
:101A80008C0180911402909115028017910781F0CA
:101A900019821A820E947417682F49815A81792FFE
:101AA00080E090E00E94000410931502009314025D
:101AB0002696E4E00C94371B0E9480176093260260
:101AC0007093270280932802909329026093220248
:101AD0007093230280932402909325020895089521
:101AE000089508950E94710D08958BE490E10E947D
:101AF000B0110E94700D0E94BF02089581E0089508
:101B00000E947E0D08950E947E0D08950895089507
:101B10000E94860D0E94870D08950E94940C8111E9
:101B200002C00E942F0D0E949F0C80932A020E94E7
:101B3000A90C90935702809356020E94A40C90E047
:101B40000E9480078091C2019091C3010E94A10769
:101B500008950E946B170E940E110E948D0D0E9425
:101B6000DA030E94720D0895A6E0B0E0EAEBFDE012
:101B70000C94111B0E94800D81110AC00E94380D27
:101B80000E9451140E94E7032696EEE00C942D1B50
:101B90000E94241126E1822E22E0922E640110E0A0
:101BA000F601E190F1906F01812F0E9455101F5FA7
:101BB000163009F44BC0E816F90691F380912A0219
:101BC00081FD0E945E100E94830D782E10E0662435
:101BD0006394812F0E9455107C01F401A190B19073
:101BE0004F018A159B0561F100E0CC24C394D12CF0
:101BF000AE24BF24C5018C219D21892BC1F0772003
:101C0000B1F009831A830E9474179C838B836D82C1
:101C100021E0C7018C219D21892B09F420E0498115
:101C20005A816B817C818D81922F0E9400040F5F0D
:101C3000CC0CDD1C0A30F1F6F4013297F182E0821F
:101C40001F5F163031F60E945C0D9ACFE816F90638
:101C500009F0B4CF93CF1F93CF93DF930E945A0F15
:101C6000EC01C11580E5D807F0F5C11580E4D8076F
:101C700008F09CC0C03ED10520F5CD3CD10508F050
:101C800082C0C83AD10578F4C53AD10508F073C0CE
:101C9000C130D10519F1209709F1C430D105F0F414
:101CA000D0E0C0E01BC0C33CD105D0F7C85AD0E09B
:101CB000CC0FDD1FC05BDE4F0990D881C02DD464EE
:101CC0000DC0C11580E2D80708F0D1C0C11581E070
:101CD000D80708F05AC0C83ED10510F7CE01DF91F1
:101CE000CF911F910895C03682E5D80718F5C0340A
:101CF00082E5D80708F06BC0C03282E5D80708F04B
:101D00005FC0C11582E5D80708F497C02C2F26952F
:101D1000269580E2289F900111248C2F8370C1E0CA
:101D2000D0E002C0CC0FDD1F8A95E2F7C22BD32B87
:101D3000DD68D4CFC03A82E5D80760F4C03882E5C8
:101D4000D80708F459C0CF71D0E0DC2FCC27C46F7E
:101D5000D06AC4CFC03C82E5D80708F462C0C03E58
:101D600082E5D80708F09CCFDC2FCC27CC27DF7189
:101D7000C06FD06AB3CFC55AD0E0CA57DE4FC88112
:101D8000D0E0D064ABCFD065A9CF8D2F0E94FC0FDF
:101D9000182FCE0199270E945A0FC12FD0E0DC2FB7
:101DA000CC27CC27DF71C82BD92B98CFCE01992710
:101DB0000E945A0FCC27DF70C82BD92BD06A8ECF48
:101DC000CF71D0E0DC2FCC27C16FD06A87CF2C2F0A
:101DD00026952695277080E2289F900111248C2F4C
:101DE0008370C1E0D0E002C0CC0FDD1F8A95E2F71E
:101DF000C22BD32BDC6872CF2C2F2695269527700B
:101E000080E2289F900111248C2F8370C1E0D0E0E4
:101E100002C0CC0FDD1F8A95E2F7C22BD32BDA6804
:101E20005DCF8C2F8F710E94FC0FC82FD0E0DC2F6C
:101E3000CC27CC27DF71D06251CF8C2F8F710E94BD
:101E4000FC0F55E0D695C7955A95E1F7CF70D0E0D5
:101E5000DC2FCC27282F30E084FF05C044E0220F80
:101E6000331F4A95E1F7C22BD32BD06937CF8D2F83
:101E70008F710E94FC0F182FCE0199270E945A0FD4
:101E8000C12FD0E0DC2FCC27CC27DF71C82BD92B7A
:101E9000D2CF462F763030F46A3020F4672F0E947C
:101EA000E002089590E080E008950E94490F0E94AA
:101EB0002B0E089582389105B9F1B0F48133910564
:101EC00009F47DC048F48932910509F46DC08A3265
:101ED000910509F47BC008958533910509F45FC02D
:101EE0008933910509F10895833E9105D9F138F4BC
:101EF000803E910529F1823E910579F10895863E53
:101F00009105D9F1873E910509F43EC0843E9105C3
:101F100041F52091570221FF24C08091560284FD93
:101F200019C087EE90E0089520915602237009F0C1
:101F30005AC02091570223FF14C089E290E008950F
:101F40002091560220FD38C03091570230FF09C061
:101F500024FF43C090E080E008952091560222FDC6
:101F6000F7CF08952091560222FD3AC030915702D2
:101F700030FD39C024FFF5CFEDCF2091560223FF6D
:101F8000F0CF24FDE7CFCDCF2091560223FD2EC008
:101F90003091570231FFEECF84EE90E0089520910A
:101FA000560225FFDECFC9CF2091560225FD21C064
:101FB0002091570223FFD5CF89E390E0D2CF209123
:101FC000560226FFCECF8AE290E008952091560275
:101FD00026FFC7CF81E390E0089583EE90E0089557
:101FE00082EE90E0089580EE90E0089586EE90E015
:101FF000089585E390E008959091560292FF10C0F5
:1020000041E0282F2471243009F040E031E0282FEE
:102010002871283009F030E0431711F02CE08227B6
:1020200093FF10C041E0282F2471243109F040E0D3
:1020300031E0282F2871283109F030E0431711F0E2
:102040002CE082273091570230FF10C051E0282F3A
:102050002171213009F050E041E0282F287128300B
:1020600009F040E0541711F029E0822731FF10C039
:1020700041E0282F2171213109F040E031E0282F83
:102080002871283109F030E0431711F029E0822748
:1020900094FD877E089580E0089508950E944D1074
:1020A000089508950E9451100895E82FF0E0EE0F72
:1020B000FF1FEC59FD4F808191810895089580EABA
:1020C0008A95F1F7089500C008950E945F10089561
:1020D000F894E82FE295EF70F0E031A1282F2F70EF
:1020E00081E090E001C0880F2A95EAF7982F90953B
:1020F000932391A392A1892B82A3789408950F939F
:102100001F93CF93DF93C3E9D1E089918F3F11F003
:102110000E94681081E0C939D807B9F7C9E8D1E051
:1021200003E911E089918F3F11F00E9468100C17AC
:102130001D07C1F7DF91CF911F910F910895AF92C5
:10214000BF92DF92EF92FF920F931F93CF93DF9393
:102150008C01D62EC62FD0E0CE018D569E4F7C012D
:10216000FC0120812F3F09F44CC0F894E22FE29546
:10217000EF70F0E031A12F7081E090E001C0880F96
:102180002A95EAF7932F982B91A392A18095892302
:1021900082A378940E946310E9E8F1E041E050E006
:1021A000B12CA12C21912F3FB1F1A22FA295AF709C
:1021B000B0E090968C9190E02F7002C09595879535
:1021C0002A95E2F780FD27C0CA01A82AB92A440F40
:1021D000551F81E0E339F80729F7F70180818F3F28
:1021E00011F00E94681061E0A114B10409F460E0EC
:1021F0008D2D0E946510CC0FDD1FC00FD11FB9823D
:10220000A882DF91CF911F910F91FF90EF90DF9007
:10221000BF90AF90089590E080E0D7CF0E947F10EC
:102220008CE0E4E6F2E0DF01982F1D929A95E9F741
:10223000E8E5F2E0DF011D928A95E9F786E00E9469
:102240005F110E944E100895ACE0B0E0EAE2F1E1C7
:102250000C941A1B8E010F5F1F4F8CE0F801119236
:102260008A95E9F7F12C6F2DC8010E949F10F39415
:10227000F6E0FF12F8CF4CE050E0B80188E592E0BC
:102280000E94581B21E0009709F420E0892B41F0BF
:102290008CE0F801A8E5B2E001900D928A95E1F793
:1022A00046E064E672E088E592E00E946011182F33
:1022B0000E945210812F2C96E5E00C94361B089555
:1022C000B0E0A0E0E6E6F1E10C94171B6C017B01A5
:1022D000042FC22F222379F081E080932D020E94E7
:1022E000741790932C0280932B0280E0CDB7DEB759
:1022F000E8E00C94331BD0912D02DD23B1F38091E3
:102300002B0290912C020E948C17059770F310E01D
:10231000000F111FA801B601C7010E94581B892B8D
:1023200031F0A801B601C7010E94651BCD2F1092A4
:102330002D028C2FDBCF0E9413170E9400180E94E1
:10234000750D0E9410180E94A90D0E9421180E946C
:102350002F180E945C180E9468180E94880DF7CF01
:1023600090939B0180939A010895CF93DF93EB01A3
:1023700086319C4711F50E94AF0B9D81992399F0FE
:102380008A7A91E009F490E090932E02811109C0BD
:1023900089E20E94AC160E942A0C80E0DF91CF9166
:1023A000089585E3F6CF80912E02811104C089E261
:1023B0000E94B416F0CF85E3FBCF81E0EFCFCF933F
:1023C000DF93EC01FB018581882309F4D2C09E01D3
:1023D00030572332310508F0B2C00E94A90C909307
:1023E000570280935602FE01E150F047E232F105B8
:1023F00020F4E253F44E0C94071B80915602816046
:102400008093560293C08091570288608093570250
:102410008DC0809156028260F3CF80915602846015
:10242000EFCF809156028860EBCF80915702816098
:10243000EDCF809157028260E9CF80915602806192
:10244000DFCF809156028062DBCF8091560280649C
:10245000D7CF0E943307809156028068D1CF8091F8
:1024600056028C60CDCF809157028360CFCF809190
:1024700056028E7FC5CF80915702877FC7CF80914C
:1024800056028D7FBDCF809156028B7FB9CF809150
:102490005602877FB5CF809157028E7FB7CF80914C
:1024A00057028D7FB3CF809156028F7EA9CF809146
:1024B00056028F7DA5CF809156028F7BA1CF0E94BF
:1024C0003307809156028F779BCF80915602837F8E
:1024D00097CF809157028C7F99CF8091560282FBD3
:1024E000992790F921E0922790FB82F990FB83F9DC
:1024F00087CF80915702982F909591708E7F892B6E
:1025000090FB81F983CF90915602892F8F7B96FFA4
:10251000806476CF0E94330790915602892F97FBF3
:1025200087F980586DCF81E00E94320D809156026C
:10253000909157020E94AE0C0E94330780E0DF9119
:10254000CF91089580E0F0CF90915602892F8F7E31
:1025500094FF806155CF90915602892F8E7F90FF16
:1025600081604ECF90915702892F877F93FF8860BB
:102570004DCF81E0E4CF282F35EB2303C001112498
:1025800097FF04C080589109892F089580589F4F64
:10259000FBCF8091350280FF0DC06091070170E094
:1025A000660F771F6038710570F56115710569F167
:1025B000862F089581FF07C06091070184E0689F1E
:1025C000B0011124EFCF6091070182FD0AC0809114
:1025D00034028823A9F02091060160910701821737
:1025E00010F088E0ECCF869FC001112433E0880F03
:1025F000991F3A95E1F7622F70E00E94F31AD2CF4B
:1026000068E070E0D5CF8FE7089581E0089580916C
:10261000350280FF0CC06091030170E075956795ED
:10262000759567956115710549F1862F089581FFAC
:1026300006C06091030170E075956795F3CF6091D6
:10264000030182FD0BC0909133029923A1F06091A8
:10265000020180910301961738F0682F70E060380E
:10266000710500F38FE70895899FC001112470E080
:102670000E94F31AF4CF61E070E0D7CF81E00895B3
:102680008D3C31F40E94C9128195809339020895DE
:102690008E3C19F40E94C912F8CF8F3C31F40E948D
:1026A000C9128195809338020895803D19F40E94E3
:1026B000C912F8CF893D29F40E94071380933A028A
:1026C00008958A3D21F40E9407138195F7CF8B3D31
:1026D00031F40E940713819580933B0208958C3D4D
:1026E00019F40E940713F8CF9FE2980F983070F406
:1026F000815D990B21E030E001C0220F8A95EAF755
:1027000080913702822B8093370208958D3D31F4FA
:102710008091350281608093350208958E3D21F4C9
:10272000809135028260F7CF8F3DB9F780913502F5
:102730008460F1CF409138028D3C59F48091390288
:1027400087FF0DC01092390241110BC01092340264
:1027500008C08E3C81F48091390218169CF3442302
:1027600081F080913A0290913B02892B09F05AC086
:102770001092330208958F3C49F447FFF0CF109236
:102780003802809139028111ECCFE0CF803D19F4FD
:102790001416ACF3E4CF90913A02893D29F419164E
:1027A000F4F610923A02DBCF8A3D19F497FFD7CFA7
:1027B000F8CF90913B028B3D29F497FFD0CF109238
:1027C0003B02CDCF8C3D19F41916CCF3C8CF9FE254
:1027D000980F983090F4815D990B21E030E0B901B9
:1027E00002C0660F771F8A95E2F7CB018095909122
:1027F0003702892380933702B2CF8D3D31F4809127
:1028000035028E7F80933502AACF8E3D21F48091D0
:1028100035028D7FF7CF8F3D09F0A1CF8091350232
:102820008B7FF0CF08950E9474179C01909138021D
:1028300080913902982B21F030933202209331029B
:1028400090913A0280913B02982B21F03093300214
:1028500020932F0286E392E00E940416089586E0FA
:10286000E6E3F2E0DF011D928A95E9F71092340267
:1028700010923302109235020895FC018281811179
:102880000EC0838181110BC08481811108C091E049
:102890008581811101C090E0892F8170089581E0C8
:1028A000FCCFA6E0B0E0E7E5F4E10C941C1B86E069
:1028B000E6E3F2E0DE01119601900D928A95E1F7D0
:1028C000109238021092390210923A0210923B0292
:1028D0008B819C81892B89F0809131029091320209
:1028E0000E948C17AC01909134029923C9F1809118
:1028F00008018417150608F440C08D819E81892B3C
:1029000091F080912F02909130020E948C17AC01BF
:1029100090913302992309F46AC0809104018417CD
:10292000150608F472C0BE016F5F7F4F86E392E028
:102930000E94C716811105C086E392E00E943D14F3
:1029400081110E94131486E0FE013196A6E3B2E0E5
:1029500001900D928A95E1F72696E3E00C94381BDE
:10296000209109018AE0289F90011124241735073E
:1029700020F69F5F9093340202C09F3FD1F71B81E6
:10298000112359F00E94C9129FEF11160CF491E027
:10299000899F802D1124809338021C81112359F0C6
:1029A0000E94C9129FEF11160CF491E0899F802DAF
:1029B00011248093390280913802882309F49DCF35
:1029C00010913902112309F498CF0E94BB12882379
:1029D00051F080933802812F0E94BB12882329F086
:1029E000809339028ACF81E0F4CF81E0F9CF209142
:1029F00005018AE0289F900111242417350708F06B
:102A000092CF9F5F9093330202C09F3FD1F71D8109
:102A1000112359F00E9407139FEF11160CF491E057
:102A2000899F802D112480933A021E81112359F031
:102A30000E9407139FEF11160CF491E0899F802DDF
:102A4000112480933B0280913A02882309F46BCFD2
:102A500010913B02112309F466CF0E94BB12882318
:102A600051F080933A02812F0E94BB12882329F0F3
:102A700080933B0258CF81E0F4CF81E0F9CF0F93F0
:102A80001F93CF93DF93C42FD22FFC01858188231E
:102A9000C9F040933E020E94741790933D028093C8
:102AA0003C0280E28C0F883040F4C77081E001C0A6
:102AB000880FCA95EAF70E94E004DF91CF911F9139
:102AC0000F91089510913E02141332C080913C0280
:102AD00090913D020E948C17883C910548F5C0E218
:102AE000CD0F1D17B9F080E2810F883040F41770C8
:102AF00081E001C0880F1A95EAF70E94E704C83008
:102B000048F481E09D2F977001C0880F9A95EAF7ED
:102B10000E94E004802F0E94D704C83070F6D7705E
:102B200081E001C0880FDA95EAF70E94E704C5CF7B
:102B300080E28C0F883008F6C77081E001C0880FF2
:102B4000CA95EAF7F2CF0F93DB0188519C47873093
:102B50009105A0F5FC01E051F44E0C94071B06E230
:102B600021EE41EE6AE17CE7CD010E943F1580E055
:102B70000F91089507E225EE45EE6BE17CE7F4CF77
:102B800006E221EE40EE68E17CE7EECF07E225EEBB
:102B900044EE69E17CE7E8CF06E221EE42EE6CE12B
:102BA0007CE7E2CF07E225EE46EE6DE17CE7DCCF85
:102BB00008E221E045EE6EE17CE7D6CF15968C91D8
:102BC000882319F010923E02D3CF81E0D1CF9093A9
:102BD0004402809343020895E0914302F09144023D
:102BE000309729F00190F081E02D0995089580E05B
:102BF0000895E0914302F0914402309721F0028061
:102C0000F381E02D09950895E0914302F09144028B
:102C1000309739F022E0DC012C930680F781E02D1B
:102C200009950895A3E0B0E0E8E1F6E10C941D1BDE
:102C3000209141023091420228173907A1F0909368
:102C4000420280934102E0914302F09144023097A6
:102C500051F023E029839B838A830084F185E02D52
:102C6000CE01019609952396E2E00C94391BA3E06E
:102C7000B0E0EDE3F6E10C941D1B20913F02309192
:102C8000400228173907A1F09093400280933F0239
:102C9000E0914302F0914402309751F024E02983FF
:102CA0009B838A830084F185E02DCE0101960995EE
:102CB0002396E2E00C94391B4091000150910101F0
:102CC0009A012E5F3F4F485F5F4F80E02417350722
:102CD00009F40895F90191919F019923B9F38F5F48
:102CE000F5CF882371F02091000130910101F901A5
:102CF0003296285F3F4F9191981729F0E217F3071A
:102D0000D1F780E0089581E008959C01FC0132969E
:102D10009FEF80E04191461751F09F3F19F4411118
:102D200001C0982F8F5F8630A9F79F3F09F408955F
:102D3000290F311D97FD3A95F90162830895FC0131
:102D4000329608962191261303C0DF0111971C9239
:102D5000E817F907B9F70895682F8091000190915D
:102D600001010E9485160895682F809100019091BD
:102D700001010E949F160895E0910001F091010168
:102D8000329686E0DF011D928A95E9F70895DC010D
:102D9000FB0111969C9111978181981322C0129684
:102DA0008C911297882319F0928189131AC0139677
:102DB0008C911397882319F09381891312C015966B
:102DC0008C911597882319F0958189130AC0149660
:102DD0009C91992321F081E02481291303C080E094
:102DE00001C081E081700895089508950E94F5164C
:102DF0000895089508950E94F4160895CF930E94AF
:102E0000F9160E9424110E94FA16C0E08C2F0E942D
:102E10005510892B31F4CF5FC630C1F780E0CF91D8
:102E2000089581E0FCCF08951F921FB61F921124D0
:102E30008F939F93AF93BF9380914502811113C0ED
:102E40008091700290917102A0917202B091730210
:102E50004196A11DB11D8093700290937102A093C1
:102E60007202B0937302BF91AF919F918F911F90A7
:102E70001FBE1F90189580914802882331F10E944F
:102E8000BE031092450288E190E020E40FB6F8946A
:102E9000A895809360000FBE2093600083B7817F68
:102EA000846083BF83B7816083BF7894889583B73C
:102EB0008E7F83BF0FB6F894A895809160008861DB
:102EC00080936000109260000FBE08950E94330747
:102ED0000E94C303089582E084BD93E095BD9AEFFC
:102EE00097BD80936E0008952FB7F894809170027B
:102EF00090917102A0917202B09173022FBF089558
:102F00002FB7F894609170027091710280917202F3
:102F1000909173022FBF08959C014FB7F894809150
:102F2000700290917102A0917202B09173024FBF32
:102F3000821B930B089578941F921FB61F92112441
:102F40008F939F93AF93BF93809170029091710282
:102F5000A0917202B09173020196A11DB11D8093E0
:102F6000700290937102A0937202B0937302BF91AA
:102F7000AF919F918F911F901FBE1F90189588E170
:102F800098E00FB6F894A895809360000FBE9093D8
:102F90006000A895F894D8E0CEEF28E3299320E0CC
:102FA000299314BEFFCF089588E198E00FB6F894F6
:102FB000A895809360000FBE90936000FFCF809132
:102FC0009B02882369F010929B020E9474179093D1
:102FD0004702809346021092480280914802089569
:102FE000809148028111F9CF809146029091470269
:102FF0000E948C17069788F381E080934802EDCFFA
:103000000E947417909347028093460280E890E0F4
:103010000FB6F89480936100909361000FBE0895FD
:103020000E94D81A539A80E0815019F453987894EA
:103030000895A895EFE9FFE03197F1F700C000008F
:10304000F3CF0E94E8180E94E7152FEF80E792E087
:10305000215080409040E1F700C000000895CF93D8
:103060000E94DF17CCE0811120C0CF9108950E940B
:103070003B170E94FE168823C1F0F8949AB15B9A20
:10308000892F8C608AB98BB18C278BB92FE738E3F5
:1030900081E0215030408040E1F700C000008BB15A
:1030A0008C278BB99AB95B9878940E94DF178111AD
:1030B000DECF0E946617D9CF0E94E8198091A10245
:1030C000882329F080917F0284FD0E94B40D089529
:1030D0000895809155020895FF920F931F93CF9307
:1030E000DF93D82F8B01F42EC5E0D13039F0D330E7
:1030F00071F0CDB7DEB7E5E00C94361B80917F020E
:1031000084FF0EC06F2DC8010E94DE19F2CF80919E
:10311000B80284FF05C06F2DC8010E94E319E9CFF2
:103120000E94E8198FE19EE40197F1F700C00000CA
:10313000C150D9F6DECFB0E0A0E0E1EAF8E10C94AE
:10314000171BE82E8B01EA016A0183E0D694C7942D
:103150008A95E1F7F12CFC141D0468F0C77031F07A
:103160004C2F50E0B8018E2D0E946C18CDB7DEB701
:10317000E8E00C94331B48E050E0B8018E2D0E942B
:103180006C18085F1F4FF394E6CF43E050E0BC019A
:1031900083E00E949B18089546E050E0BC0183E064
:1031A0000E949B180895CF93DF93EC0148E050E014
:1031B000BC0181E00E949B1888E0FE01ACE4B2E013
:1031C00001900D928A95E1F7DF91CF9108950895CE
:1031D0008AE091E00895FC0180818076803241F49C
:1031E00081818330A9F130F48130F1F0823041F1F6
:1031F00080E008958A3079F18B3089F18930C1F708
:10320000828193818115924069F484819581892B13
:1032100049F481E080934B028681978190934A0222
:10322000809349028FEF089584819581892B01F75E
:103230008CE492E090939D0280939C0288E0089534
:1032400084E592E090939D0280939C0281E0089532
:1032500084E191E0F7CF838180935402C9CF8481C8
:103260009581892B29F6828180931401C1CFFC01BD
:103270008091490290914A02892B61F080914B0222
:10328000813041F490819093550210924A0210923D
:10329000490208958FEF08950895FC0193819330BA
:1032A00059F130F49130C1F09230F1F080E008959E
:1032B000913209F440C09232C9F784819581009718
:1032C00009F44BC0019791F78DEC91E090939D022A
:1032D00080939C028BE7089583E991E090939D028F
:1032E00080939C0282E1089588E591E090939D028D
:1032F00080939C028BE3089582818130A1F0882322
:1033000051F0823099F685EA91E090939D02809386
:103310009C0286E1089589EC91E090939D02809350
:103320009C0284E008958DEB91E090939D02809340
:103330009C028AE0089584819581009731F001977D
:1033400009F0B4CF83E891E002C08AE691E090935F
:103350009D0280939C0289E0089588E492E0909316
:103360009D0280939C0284E408951F93CF93DF9382
:10337000E82F792F162FEA01888184FF1CC029814C
:1033800088E828272983CE010296DC012E2F372FCB
:10339000512F5E0FF90121912D939F01452F4E1B57
:1033A0001416C4F3612F0E947A011C5F1883DF9109
:1033B000CF911F9108958AE58883E5CF4FE752E0CA
:1033C0000E94B519089548EB52E00E94B51908957E
:1033D000CF93DF9360919E02635067FD12C080918E
:1033E0009A02CCE0D0E0C81BD109CE55DD4F8091C8
:1033F0009902803108F054C0CE010E944C191092FD
:103400009E028091160184FF3EC0809115018F3F7E
:10341000D1F1C82F893008F0C8E0982F9C1B9093F9
:1034200015019091740228E89227909374028823E2
:10343000E9F080919C0290919D022091980226FFD4
:10344000AEC0FC012C2FA5E7B2E034913D9331963C
:103450002150D9F79C012F5F3F4F8FEF8C0F820FC8
:10346000932F911D90939D0280939C026C2F85E772
:1034700092E00E947A01CC5FCC3019F08FEF8093FC
:103480001501C093160184E199B19C7031F481500B
:10349000D9F710929F0210929702DF91CF91089571
:1034A0008D3209F069C0683009F0A9CF83EC8093B0
:1034B00074028AE5809316011092980288818076C2
:1034C00071F0CE010E94EB188F3FC1F4988197FDF7
:1034D0008E8190E8909398028093150190CF2A8175
:1034E00010927D029981911111C010927E022DE7F8
:1034F00032E082E030939D0220939C029F819111E3
:10350000EBCF9E81981740F7892FE6CF953029F4AD
:1035100020939F022DE732E0EDCF963099F49B8106
:10352000913021F4CE010E944D1908C09230D1F3A0
:103530009330C1F39132B1F39232A1F390E49093BE
:103540009802C2CF983089F0993019F42093A102E3
:10355000E1CF9A3071F09B30E9F69BE490938002C2
:103560009093B90290938C02D5CF21EA32E081E0AA
:10357000C1CF2DE732E0FBCF8091980287FF3FCF8C
:10358000CE010E9437198F3F21F48EE180931601FE
:1035900036CF882309F433CF1092150130CFDC01E8
:1035A0002C2FE5E7F2E03D9131932150E1F752CF26
:1035B000CF93DF93E9E6F0E0808188608083E99A29
:1035C000CFE7D2E08BE48983A8EBB2E011968C932D
:1035D0001197EBE8F2E081838AE588838C938083FE
:1035E000DF91CF91089597FB072E16F4009407D032
:1035F00077FD09D00E94441B07FC05D03EF490954E
:1036000081959F4F0895709561957F4F0895EE0FB6
:10361000FF1F0590F491E02D09942F923F924F9255
:103620005F926F927F928F929F92AF92BF92CF9252
:10363000DF92EF92FF920F931F93CF93DF93CDB75B
:10364000DEB7CA1BDB0B0FB6F894DEBF0FBECDBFD3
:1036500009942A88398848885F846E847D848C84A4
:103660009B84AA84B984C884DF80EE80FD800C81AD
:103670001B81AA81B981CE0FD11D0FB6F894DEBF90
:103680000FBECDBFED010895AA1BBB1B51E107C0C2
:10369000AA1FBB1FA617B70710F0A61BB70B881FE2
:1036A000991F5A95A9F780959095BC01CD01089571
:1036B000FB01DC0104C08D910190801921F441507F
:1036C0005040C8F7881B990B0895FB01DC0102C02C
:1036D00001900D9241505040D8F70895F999FECFCE
:1036E00092BD81BDF89A992780B50895A8E1B0E010
:1036F00042E050E00C94B21BDC01A40FB51F415016
:10370000504048F0CB01840F951F2E910E948D1BD5
:1037100041505040D0F70895262FF999FECF92BD21
:1037200081BDF89A019700B4021639F01FBA20BD86
:103730000FB6F894FA9AF99A0FBE08950396272FB8
:103740000E948D1B0E948C1B252F0E948D1B242FF5
:103750000C948D1B0196272F0E948D1B0C948C1BA3
:10376000DC01CB01FC01F999FECF06C0F2BDE1BD41
:10377000F89A319600B40D9241505040B8F7089530
:10378000F894FFCF2F052F057F057F05E405000680
:103790005E055E0505067606850685063712AB12C0
:1037A0003F1209120D1243121112471253121D1229
:1037B000A4122112571225125B12831229125F12D2
:1037C0008A122F1265126D1215124B1219124F1216
:1037D0003312691279129312A21203123B12B2121F
:0E37E000C015C615AF15BA15CC15D215D815E3
:1037EE000A02280850011E0A14016918D318E71896
:1037FE00CC18C51801FF5AE200E900EA00B500B680
:10380E0000B700CD008301CC008A01920194012102
:10381E0002230224022502260227022A02B300B442
:10382E00006F0070009F01CB019F02A00281828376
:10383E00E200E900EA00B500B600B700CD00830152
:10384E00CC008A0192019401210223022402250256
:10385E00260227022A02B300B4006F0070009F01F7
:10386E00CB019F02A002818283309796959491900E
:0A387E0061626360353433323100BB
:00000001FF
