:100000000C94D0060C94ED060C94ED060C9404347C
:100010000C94ED060C94ED060C94ED060C94ED0694
:100020000C94ED060C94ED060C94F4130C94171D2F
:100030000C941B2A0C94ED060C94ED060C94ED0622
:100040000C94ED060C94ED060C94ED060C94ED0664
:100050000C94ED060C94CD140C94ED060C94ED0666
:100060000C94ED060C94ED060C94ED060C94ED0644
:100070000C94ED060C94ED060C94ED060C94ED0634
:100080000C94ED060C94ED060C94ED060C94ED0624
:100090000C94ED060C94ED060C94ED060C94ED0614
:1000A0000C94ED060C94ED060C94ED060501090286
:1000B000A10185020901A1000509190129081500FE
:1000C0002501950875018102050109300931158165
:1000D000257F95027508810609381581257F9501D0
:1000E00075088106050C0A38021581257F95017572
:1000F000088106C0C005010980A101850319012AF4
:10010000B700150126B700950175108100C0050CD8
:100110000901A101850419012AA002150126A002E6
:10012000950175108100C005010906A1018506052C
:100130000719E029E71500250195087501810205D9
:1001400007190029EF1500250195F07501810205B9
:10015000081901290595057501910295017503910D
:1001600001C00660FF0961A1010962150026FF00B8
:100170009520750881020963150026FF00952075FA
:10018000089102C005010906A101050719E029E748
:1001900015002501950875018102950175088101F9
:1001A0000507190029FF150026FF0095067508812F
:1001B000000508190129051500250195057501910E
:1001C00002950175039101C000DA0281FFD9F1DBCC
:1001D00020A4A62EAF00A0C0D30000A1C8D3000069
:1001E000AED580A81F408D142000FD377A585A00E4
:1001F0000004E6D6B4460200210116000000742F68
:10020000E5A3E008E2024C5D003D8889C65436C390
:10021000174FE4E62B87DC61F128B5AEA0A33C3C88
:10022000F45F7424B52C3D20C7689B3A8E08CE1627
:10023000E28FDD74FFA04F08D43D201DD0558F11F3
:10024000BBB13287318A341491884A492E35E03463
:100250002D0C400E9A3CEAF71ADE8FB7A230CF5928
:1002600083F223EF20330CC056779F9CED4D7DAF7A
:100270003FD6C289956075A12F2E891DDC43DF67AB
:100280005F81D38DC5C3D81411649D6290F38B2C0C
:10029000365D0B6F74C04E46B3DED00F56EE8AE269
:1002A000DAB7FB9EFD0D52C588DC45FF874E8E6197
:1002B000CF38B24884655A4D7476CD19495E5DD504
:1002C000F1A4BAB0B017AFD23C9471A8793419ED4B
:1002D000C7367C4DB86CFF0F9FC4D682F61E028CC9
:1002E0006E040164DC13F769236B5C1B173425A3D0
:1002F000AACCB1CE1B6458512974EBCF67BC05AFB3
:100300006801AB1F9DBAF8424C73DA53FA234F3E93
:10031000D1FCDE9F32459070FE604F3037942A1634
:10032000C7A89A52BA8BD32488E60234B33230E29B
:100330005B02F96739FB000ED8394232BA69E6C769
:10034000B6B4B1109460026B794FB8BDC9E9DA5800
:100350007632299FB653855DFDDEF3B603CD39B7FE
:10036000DC4DA942249A5411D726B6B55B33ADEBC8
:10037000ADF5D7D48445A32FAECFE7FD52418C75A0
:1003800035D1ED6688C5C3B66ED8A73473063DC8AF
:10039000E06EBAE463C7C59C31D05BE096CC2FBE5B
:1003A0001F53F74A885C950AFE0A7AB34C324823F9
:1003B0000B57D3C22EFF6C14DF96681887B11377E2
:1003C0001788D21F2EF65EF6EA81BD9E780C99AD95
:1003D000FBAE8ACB3F227CC2541095BA3303810412
:1003E00047A8821B9EBE3EE2CEBBBFD790D6CCA113
:1003F000CDDE15224B703556F3C0AEF2CA6FB30690
:10040000516C763356767F419828CEB0EB9E5CBB1C
:1004100068AC9CF7C21DFD6BEB2C49B7166F54BB43
:100420002852D4BC222279F621D7640A4DFF6E6B84
:10043000661140C16B4059A09581608C237F0413E5
:100440007E9770EC23369BC1F35CD589B57D789699
:10045000442D57F1A400522FF7134D662E81000151
:10046000E804E311000063CCEC15B1C467FB0200A3
:1004700000000004595A07087F0807003E5B4F5BE5
:100480003E003E6B4F6B3E001C3E7C3E1C00183C09
:100490007E3C18001C577D571C001C5E7F5E1C00B4
:1004A00000183C180000FFE7C3E7FF0000182418FD
:1004B0000000FFE7DBE7FF0030483A060E00262980
:1004C00079292600407F05050700407F05253F006C
:1004D0005A3CE73C5A007F3E1C1C0800081C1C3E8E
:1004E0007F0014227F2214005F5F005F5F00060917
:1004F0007F017F00006689956A006060606060002F
:1005000094A2FFA2940008047E04080010207E201C
:10051000100008082A1C0800081C2A0808001E10E1
:10052000101010000C1E0C1E0C0030383E3830002D
:10053000060E3E0E060000000000000000005F00F6
:100540000000000700070000147F147F1400242A15
:100550007F2A120023130864620036495620500097
:10056000000807030000001C224100000041221C7B
:1005700000002A1C7F1C2A0008083E080800008092
:1005800070300000080808080800000060600000E3
:100590002010080402003E5149453E0000427F40C1
:1005A00000007249494946002141494D3300181461
:1005B000127F10002745454539003C4A4949310022
:1005C0004121110907003649494936004649492960
:1005D0001E0000001400000000403400000000086D
:1005E00014224100141414141400004122140800B1
:1005F0000201590906003E415D594E007C1211125C
:100600007C007F49494936003E41414122007F41FB
:1006100041413E007F49494941007F0909090100E4
:100620003E41415173007F0808087F0000417F412F
:1006300000002040413F01007F08142241007F401C
:10064000404040007F021C027F007F0408107F00B2
:100650003E4141413E007F09090906003E415121CA
:100660005E007F09192946002649494932000301E5
:100670007F0103003F4040403F001F2040201F00FB
:100680003F4038403F0063140814630003047804BB
:1006900003006159494D4300007F4141410002047C
:1006A00008102000004141417F00040201020400C3
:1006B00040404040400000030708000020545478A8
:1006C00040007F28444438003844444428003844DB
:1006D00044287F0038545454180000087E09020052
:1006E00018A4A49C78007F080404780000447D408E
:1006F00000002040403D00007F10284400000041E1
:100700007F4000007C04780478007C0804047800B2
:10071000384444443800FC182424180018242418B1
:10072000FC007C08040408004854545424000404C9
:100730003F4424003C4040207C001C2040201C0002
:100740003C4030403C004428102844004C9090909D
:100750007C004464544C4400000836410000000012
:100760007700000000413608000002010204020088
:100770003C2623263C00000000000000404040F0E2
:10078000F8F8FF38FFF8F83FF8F8FF38FFF8F8F00E
:1007900040404000000000000080C0C0C080000059
:1007A000C0C08000000080C0C000C0C0000080C089
:1007B000C00000000000C0C0C0C0C000C0C0000039
:1007C0000000000000000000000000000000000029
:1007D0000000000000000000000000000000000019
:1007E0000000000000000000000000000000000009
:1007F0000000000000C0F0F8FC3E1E0601000000F2
:100800007F4141417F007F4141417F000080C0E046
:100810007E5B4F5BFEC00000C000DCD7DEDEDED7B3
:10082000DC00C0000000000000000000000000002C
:10083000000000000000000000000000494949FFDE
:10084000FFFFFFE0DFBFBF00BFBFDFE0FFFFFFFF35
:1008500049494900000000001F3F6060E0BF1F00E1
:100860007F7F071E381E077F7F007F7F0E1F3B7133
:100870006000000000007F7F0C0C0C007E7E007F7B
:100880007E0303007F7E03037E7E03037F7E000FD3
:100890003E703C063C703E0F00327B49493F7E0073
:1008A0007F7E0303001E3F69696F26000000000081
:1008B0000000000000030F1F3F3C78706000000044
:1008C0007F4141417F007F4141417F00307B7F7804
:1008D00030202030787F3B0003000F7F0F0F0F7F09
:1008E0000F000300000000000000000000000000F6
:1008F00000000000000000000000000001010107EE
:100900000F0F7F0F7F0F0F7E0F0F7F0F7F0F0F07D0
:1009100001010100000000000000000000010100D2
:1009200000000000000000000000000000000000C7
:1009300000000000000000000000000000000000B7
:1009400000000000000000000000000000000000A7
:100950000000000000000000000000000000000097
:100960000000000000000000000000000000000087
:100970000000000000000000000000000000000077
:100980000000000000000000000000000000000067
:100990000000000000000000000000000000000057
:1009A0000000000000000000000000000000000047
:1009B00000000000000000AF00AE4350534C4B005D
:1009C0000A0A00556E646566004C6F7765720052C6
:1009D0006169736500426173650A004C4159455273
:1009E000000A0A004D6F640A00436C6D6B0051777A
:1009F0007274000A0A0080818283848586878889D0
:100A00008A8B8C8D8E8F9091929394A0A1A2A3A497
:100A1000A5A6A7A8A9AAABACADAEAFB0B1B2B3B40E
:100A2000C0C1C2C3C4C5C6C7C8C9CACBCCCDCECF4E
:100A3000D0D1D2D3D40035001E001F0020002100E9
:100A40002200290014001A000800150017002B00CE
:100A500004001600070009000A00E1001D001B0049
:100A6000060019000500E300E200E0002252280021
:100A7000A8003500270026002500240023002A00B6
:100A8000130012000C0018001C00340033000F008B
:100A90000E000D000B00E500380037003600100096
:100AA0001100E700E600E40023522C0000003500AE
:100AB0001E001F00200021002200290014001A003F
:100AC000090013000A002B0004001500160017008F
:100AD0000700E1001D001B00060019000500E300EF
:100AE000E200E00001002800A800350027002600F1
:100AF0002500240023002A0033001C0018000F00EA
:100B00000D00340012000C00080011000B00E5007D
:100B100038003700360010000E00E700E600E40061
:100B200001002C00000001003A003B003C003D00A9
:100B30003E0035001E001F002000210022000100A1
:100B40001E021F0220022102220201002E002D009F
:100B50002E022F02300201000100010001000100FD
:100B60000100440043004200410040003F004500B6
:100B70002700260025002400230031022702260238
:100B80002502240223020100310033023300300029
:100B90002F0001000100010001000100010001001F
:100BA00001000100010001000100010049004600B0
:100BB0006500000000000100E200E000E10000002C
:100BC000390001007A007B007C007D0000000100FC
:100BD000010001000100010001000100010001000D
:100BE0000100010001002A00010001005200010083
:100BF0004B002A004C004F00510050004E000100F5
:100C000000000100000001000000010001000100DF
:100C100001000100010001000100010001000100CC
:100C200001000100010001000100010001000100BC
:100C300001000100010009025B00030100A0FA09A4
:100C400004000001030101000921110100012244F7
:100C500000070581030800010904010002030000E8
:100C60000009211101000122220007058203200052
:100C7000010705030320000109040200010300002D
:100C80000009211101000122B6000705840320009C
:100C900001120100020000000832FC87020100017D
:100CA0000203011C037600690061006C003A0066D3
:100CB000003600340063003200620033006300003D
:100CC000000C0353006F0066006C00650000001A02
:100CD000034A006F00730065006600410064006114
:100CE000006D00630069006B00000004030904004C
:100CF00000000000000000000000000000000000F4
:100D000000000000000000000000000000000000E3
:100D10000000007E0F00D4FFFFFFC7000000780036
:100D2000000000000000002A2B2800000000000046
:100D30000000000000000000000029000000002C5E
:100D40001E3420212224342627252E362D373827FD
:100D50001E1F202122232425263333362E37381F09
:100D60000405060708090A0B0C0D0E0F10111213CB
:100D70001415161718191A1B1C1D2F3130232D3569
:100D80000405060708090A0B0C0D0E0F10111213AB
:100D90001415161718191A1B1C1D2F3130354C004D
:100DA00011241FBECFEFDAE0DEBFCDBF11E0A0E01F
:100DB000B1E0EEEEFCE602C005900D92AA3CB10750
:100DC000D9F725E0AAECB1E001C01D92AF3FB20710
:100DD000E1F70E94422A0C9428360C940000482F18
:100DE0002091FE059091C50557E0291302C080E0CF
:100DF000089530E0529FF001539FF00D1124EA5303
:100E0000FA4F8181681306C08081481303C0858131
:100E10008111EECF2F5F3F4F2770E7CFE8EDF0E075
:100E200080818E7F80831092E2001092DA0010920F
:100E3000E100A0EEB0E08C9181608C9380818F778F
:100E4000808319BCA7EDB0E08C918E7F8C9380815C
:100E50008F7E80831092AE0508952091E40030913A
:100E6000E50095E6A9012091EC00822F817020FF1A
:100E700006C08091E80080FF06C080E008952091C0
:100E8000E80022FD1AC08091BB05882389F08530D7
:100E900089F08091EB0085FD0FC02091E400309136
:100EA000E50042175307F9F29150E1F684E0089506
:100EB00082E0089583E0089581E008958091BD0562
:100EC00087FF13C08091E80082FF06C08091E80090
:100ED0008B778093E80004C08091BB058111F2CF2D
:100EE00008958091BB058823D9F38091E80080FFA5
:100EF000F8CF8091E8008E77ECCF982F9093E9009F
:100F0000242F762F50E0891731F07091EC0020915A
:100F1000ED005091F00021FD07C09F5F973071F701
:100F20008093E90081E008953091EB003E7F30939B
:100F3000EB003091ED003D7F3093ED003091EB0000
:100F400031603093EB007093EC002093ED005093F0
:100F5000F0002091EE0027FDE0CF80E00895B0E0A2
:100F6000A0E0E5EBF7E00C943E35C8EDD0E08881D9
:100F70008F7E8883E7EDF0E080818160808384E06C
:100F800082BF81E08093AE0588818E7F888302EEE8
:100F900010E0F80110821092DA0081EEC82ED12CF8
:100FA000F601108288818F778883888180688883A2
:100FB00088818F7D888319BC1092BB051092BC0577
:100FC0001092BA051092B90590EEE92EF12CF701B6
:100FD00080818B7F808388818160888342E060E0AC
:100FE00080E00E947D07F60180818E7F8083F8017A
:100FF000808181608083808188608083F701808127
:101000008E7F8083888180618883CDB7DEB7E8E0FA
:101010000C945A35FC018091C3059091C405861744
:101020009707A0F06115710529F49091E8009E776B
:101030009093E80090E06115710551F4911108C09A
:101040008091E80082FF34C080E00895BC01F2CFB7
:101050008091BB058823C1F18530C1F18091E80002
:1010600083FD30C08091E80082FDEACF8091E800E6
:1010700080FFE1CF8091F3002091F200382F6115BD
:10108000710519F02830310558F091E0283031050C
:1010900009F090E02091E8002E772093E800CBCF74
:1010A00081918093F100615071092F5F3F4FE7CF2D
:1010B0008091BB05882341F0853041F08091E800A4
:1010C00083FFBECF81E0089582E0089583E0089514
:1010D0008091B005089587E797E790930108809382
:1010E000000888E19AE00FB6F894A8958093600014
:1010F0000FBE90936000FFCF2FB7F8946091AA05C0
:101100007091AB058091AC059091AD052FBF08950E
:1011100090914C019923D1F09091A70597FF16C0AB
:10112000E82FE695E695E695EE31E0F4F0E0EC5236
:10113000FE4F282F277081E090E001C0880F2A958C
:10114000EAF780959281892382830895EEECF1E09D
:101150009191891303C0DF0111971C9291E0E43D46
:10116000F907B1F7089590914C019923C1F090913E
:10117000A70597FF14C0E82FE695E695E695EE31B2
:10118000F8F4F0E0EC52FE4F877021E030E001C04F
:10119000220F8A95EAF78281822B82830895AEEC32
:1011A000B1E0EFEF90E02D91821751F0EF3F19F48D
:1011B000211101C0E92F9F5F9630A9F7EF3F09F495
:1011C00008950E2E000CFF0BE453FE4FE6CFA3E074
:1011D000B0E0EDEEF8E00C9444352091A505309197
:1011E000A60528173907A1F09093A6058093A505B9
:1011F000E091A305F091A405309751F024E02983F4
:101200009B838A830084F185E02DCE0101960995A8
:101210002396E2E00C946035A3E0B0E0E2E1F9E06F
:101220000C9444352091A1053091A2052817390767
:10123000A1F09093A2058093A105E091A305F09100
:10124000A405309751F023E029839B838A8300848F
:10125000F185E02DCE01019609952396E2E00C94EC
:10126000603580919F05882359F0E091A305F091A6
:10127000A405309729F00190F081E02D099508959B
:1012800080E008954115510511F0FA01099508957E
:1012900080918D0580FD16C081FD16C082FD16C0AF
:1012A00080918C058823A1F0883280F428E0829F09
:1012B000C001112468E270E00E947735862F672B09
:1012C00039F0089582E0089584E0089588E0089553
:1012D00081E0089580918D0580FD14C081FD14C0CA
:1012E00082FD16C080918B05882381F08E3180F4B9
:1012F00020E5829FC00111246EE170E00E947735E5
:10130000862F089584E1089588E2089588E008957D
:1013100080E50895282F35EB2303C001112497FFA2
:1013200004C080589109892F089580589F4FFBCFA2
:10133000FC01680F791F8FEF91E32191822728E04C
:1013400030E087FF09C0880F892721503109C9F78C
:10135000E617F70791F70895880FF7CF90E0662317
:10136000A1F0855B9E4FFC0120812F3F89F0E22F89
:10137000E295EF70F0E080A190E02F7002C09595AB
:1013800087952A95E2F781700895865B9E4FEBCF93
:1013900080E0089590E06623E9F0855B9E4FFC01B4
:1013A00080818F3FB1F0E82FE295EF70F0E041A12E
:1013B0008F7021E030E0B90102C0660F771F8A9577
:1013C000E2F7CB01962F9095942391A392A1892BBC
:1013D00082A30895865B9E4FE2CF90918305E92F0B
:1013E000F0E0409184059F012F5F3F4F237033272A
:1013F00042171306A9F0EB57FA4F282F2F77808159
:101400008078822B60FB87F980839F5F9370909335
:101410008305809181058F5F8093810581E0089528
:1014200080E00895EBECF2E090E080E068E971E2A2
:101430004FEB51E22BEF30E2778366835187408791
:101440003387228797878687019670968830910523
:1014500099F7089581152CE7920741F420918905A9
:1014600030918A05232B11F490E080E0089580E00C
:10147000089581E08093A5020895F894E82FE295FD
:10148000EF70F0E031A1282F2F7081E090E001C0D3
:10149000880F2A95EAF7982F9095932391A392A10C
:1014A000892B82A3789408950F931F9380919F05B1
:1014B000882329F00E947C081F910F9108950E94B3
:1014C0007C08009181021091820220918302309168
:1014D0008402600F711F821F931FEECF9091A705AA
:1014E00092FF10C041E0282F2471243009F040E021
:1014F00031E0282F2871283009F030E0431711F02F
:101500002CE0822793FF10C041E0282F2471243162
:1015100009F040E031E0282F2871283109F030E04F
:10152000431711F02CE082273091A80530FF10C03E
:1015300051E0282F2171213009F050E041E0282F9F
:101540002871283009F040E0541711F029E0822773
:1015500031FF10C041E0282F2171213109F040E016
:1015600031E0282F2871283109F030E0431711F0BD
:1015700029E0822794FD877E089582389105B9F18C
:10158000B0F48133910509F47DC048F489329105A6
:1015900009F46DC08A32910509F47BC00895853342
:1015A000910509F45FC08933910509F10895833EDF
:1015B0009105D9F138F4803E910529F1823E9105DB
:1015C00079F10895863E9105D9F1873E910509F498
:1015D0003EC0843E910541F52091A80521FF24C01D
:1015E0008091A70584FD19C087EE90E008952091B1
:1015F000A705237009F05AC02091A80523FF14C045
:1016000089E290E008952091A70520FD38C030912F
:10161000A80530FF09C024FF43C090E080E0089592
:101620002091A70522FDF7CF08952091A70522FD5F
:101630003AC03091A80530FD39C024FFF5CFEDCF79
:101640002091A70523FFF0CF24FDE7CFCDCF209138
:10165000A70523FD2EC03091A80531FFEECF84EE03
:1016600090E008952091A70525FFDECFC9CF2091F6
:10167000A70525FD21C02091A80523FFD5CF89E32B
:1016800090E0D2CF2091A70526FFCECF8AE290E04E
:1016900008952091A70526FFC7CF81E390E0089524
:1016A00083EE90E0089582EE90E0089580EE90E061
:1016B000089586EE90E0089585E390E008951F93E5
:1016C000CF93DF930E94BD0AEC01C11580E5D807D6
:1016D000F0F5C11580E4D80708F09CC0C03ED105E4
:1016E00020F5CD3CD10508F082C0C83AD10578F488
:1016F000C53AD10508F073C0C130D10519F1209762
:1017000009F1C430D105F0F4D0E0C0E01BC0C33C07
:10171000D105D0F7C85AD0E0CC0FDD1FC85ADE4F34
:101720000990D881C02DD4640DC0C11580E2D807BE
:1017300008F0D1C0C11581E0D80708F05AC0C83EF2
:10174000D10510F7CE01DF91CF911F910895C036DA
:1017500082E5D80718F5C03482E5D80708F06BC0D9
:10176000C03282E5D80708F05FC0C11582E5D8070E
:1017700008F497C02C2F2695269580E2289F90018B
:1017800011248C2F8370C1E0D0E002C0CC0FDD1F8C
:101790008A95E2F7C22BD32BDD68D4CFC03A82E51D
:1017A000D80760F4C03882E5D80708F459C0CF7173
:1017B000D0E0DC2FCC27C46FD06AC4CFC03C82E518
:1017C000D80708F462C0C03E82E5D80708F09CCF75
:1017D000DC2FCC27CC27DF71C06FD06AB3CFC55ABE
:1017E000D0E0CB5ADE4FC881D0E0D064ABCFD0651B
:1017F000A9CF8D2F0E946E0A182FCE0199270E9423
:10180000BD0AC12FD0E0DC2FCC27CC27DF71C82B3D
:10181000D92B98CFCE0199270E94BD0ACC27DF7023
:10182000C82BD92BD06A8ECFCF71D0E0DC2FCC273C
:10183000C16FD06A87CF2C2F26952695277080E21E
:10184000289F900111248C2F8370C1E0D0E002C04A
:10185000CC0FDD1F8A95E2F7C22BD32BDC6872CF49
:101860002C2F26952695277080E2289F9001112421
:101870008C2F8370C1E0D0E002C0CC0FDD1F8A95B1
:10188000E2F7C22BD32BDA685DCF8C2F8F710E94C9
:101890006E0AC82FD0E0DC2FCC27CC27DF71D062B6
:1018A00051CF8C2F8F710E946E0A55E0D695C79547
:1018B0005A95E1F7CF70D0E0DC2FCC27282F30E00D
:1018C00084FF05C044E0220F331F4A95E1F7C22B85
:1018D000D32BD06937CF8D2F8F710E946E0A182FAE
:1018E000CE0199270E94BD0AC12FD0E0DC2FCC2762
:1018F000CC27DF71C82BD92BD2CF8091450288230A
:1019000031F0109245021092440210924302089561
:10191000809590919B05982390939B0508958095C1
:1019200090919C05982390939C05089510921A021B
:101930001092190210921802089590911702292FFF
:10194000282321F0809589238093170208958091A0
:10195000FE059091C505981301C008958F5F8770AB
:10196000FACFA82FA77023E0969587952A95E1F7DF
:10197000FC01EE0FFF1FE80FF91FE60FF71F50E005
:1019800040E080E0219130E00A2E02C03695279594
:101990000A94E2F721703327042E01C0220F0A9423
:1019A000EAF7822B4F5F5F4F4330510559F7089597
:1019B000903FC9F09A3080F48630A8F4282F30E0A8
:1019C00068EF71E0A901E6E09E9F400D511D1124D2
:1019D000CA010E94B10C08959C5F923020F465EF1B
:1019E00071E090E0F6CF80E00895262F277091E017
:1019F00001C0990F2A95EAF723E0769567952A9515
:101A0000E1F7FB01EE0FFF1FE60FF71FE40FF51FD5
:101A100050E040E0682F70E08191DF0111979B0159
:101A2000042E02C0369527950A94E2F7217021957D
:101A30002827292328272C934F5F5F4F43305105D8
:101A400059F70895282F862F903F79F09A3070F437
:101A5000263058F4622F70E026E0929F600D711DD1
:101A6000112448EF51E00E94F50C08959C5F9230DC
:101A7000E0F7622F70E045EF51E0F5CF809354031B
:101A800008959091540321E030E0F90101C0EE0F78
:101A90008A95EAF7D90102C0AA0FBB1F6A95E2F73F
:101AA000EA2B01C0220F4A95EAF7892F8E23E8130B
:101AB00005C0292B822F0E943E0D089520952923D1
:101AC000F9CF21E030E001C0220F8A95EAF7209596
:101AD0008091540382230E943E0D089590911A0232
:101AE0008095892380931A02282F277069F489171B
:101AF00059F09091A80592FF07C086958695869526
:101B00000E94610D0E94960C089521E030E001C012
:101B1000220F8A95EAF780915403822B0E943E0D92
:101B20000895809391020895982F92959F7011F0D7
:101B3000892F94E0282F2695269511F09E5F822FFD
:101B4000869509F09F5F892F08959C013A9521158C
:101B50003F4150F5FC01EE27F170BC016627727021
:101B6000AC01442754709C012227387094FF0EC0AA
:101B700080E1EF2B09F480E0672B09F08062452BB0
:101B800009F08064232B89F08068089581E0EF2BB1
:101B900009F480E0672B09F08260452B09F084602E
:101BA000232B19F08860089580E008950F931F9308
:101BB000CF93DF938B01EA019091BB05943061F5DF
:101BC0008093E9008FEF9091E800815095FD06C069
:101BD00095ED9A95F1F700008111F5CF8091E8001D
:101BE00085FF1AC00E942D07811111C08091E80065
:101BF00085FD06C08091E8008E778093E800F2CFE3
:101C0000F80181918F018093F100219779F78091FC
:101C1000E8008E778093E800DF91CF911F910F91BC
:101C2000089543E050E0BC0184E00E94D60D089581
:101C300046E050E0BC0184E00E94D60D089540E2E9
:101C400050E0BC0184E00E94D60D0895CF93DF934D
:101C5000EC0148E050E0BC0181E00E94D60D88E034
:101C6000FE01A1EBB5E001900D928A95E1F7DF91BD
:101C7000CF910895B0E0A0E0E0E4FEE00C943C35A4
:101C80007C015B016A018091800201E010E08A30F2
:101C900010F40AE010E0C1E0D0E0B501C701F601A0
:101CA0000995811104C021960C171D072CF4CDB79E
:101CB000DEB7EAE00C945835CC9F9001CD9F300DF3
:101CC000300D112490E080E045E34A95F1F70000E3
:101CD000019682179307C1F7E0CFCF93C82F6FEF1C
:101CE000811165E184E290E00E94EC356FEFC11153
:101CF00069E485E290E00E94EC356FEFC11169E57F
:101D000086E290E00E94EC35CF910895CF93DF9367
:101D1000C8E7D2E060E0CE010E94EC352196C11503
:101D200084E0D807B9F7DF91CF9108950F931F93FF
:101D3000CF93DF93142F022F843020F5623010F5FB
:101D400098E0899FE001112484E0689FB00111248C
:101D5000C60FD71FC85FDD4F82E090E0442311F02B
:101D600090E080E0632F8C0F9D1F0E94EC3583E094
:101D700090E0112311F081E090E0602F8C0F9D1F07
:101D80000E94EC35DF91CF911F910F9108951F9321
:101D9000CF93DF93122F8430E0F46A30D0F44630D2
:101DA000C0F4C42FD0E0CC0FDD1F9CE0699FC00DB4
:101DB000D11D112498E7899FC00DD11D1124632FD7
:101DC000CE0188960E94EC35612FCE0189960E9443
:101DD000EC35DF91CF911F91089584E290E00E944D
:101DE000CE35853189F485E290E00E94CE35893484
:101DF00059F486E290E00E94CE3591E0893509F0F1
:101E000090E0892F8170089580E0FCCFFF920F93BE
:101E10001F93CF93DF93F42E843070F5623060F51A
:101E200028E0829F8001112434E0639FB0011124D7
:101E3000060F171F085F1D4F82E090E0442311F04A
:101E400090E080E0800F911F0E94CE35C82FD0E037
:101E5000DC2FCC2783E090E0FF2011F081E090E0C0
:101E6000800F911F0E94CE359E01282BC901CDB74E
:101E7000DEB7E5E00C945D3590E080E0F8CF0F939D
:101E80001F93CF93DF93843030F56A3020F54630CE
:101E900010F5C42FD0E0CC0FDD1F2CE0629FC00DE9
:101EA000D11D112438E7839FC00DD11D1124CE010F
:101EB00088960E94CE35082F10E0102F0027CE0103
:101EC00089960E94CE359801282BC901DF91CF91C8
:101ED0001F910F91089590E080E0F8CF2091B50216
:101EE0003091B602232BD9F4703F39F4603FB9F436
:101EF0008091B7029091B80208957A3048F4663024
:101F000070F4843060F4462F672F0E943F0F0895CD
:101F10007D3F41F4623018F441E0843050F090E0AD
:101F200080E008957C3FD9F76230C8F78430B8F775
:101F300040E00E94060F0895CF92DF92FF920F9328
:101F40001F93CF93DF936C01009154038091910212
:101F5000082BC3E0D0E010E0FC2EC8010C2E02C01C
:101F6000959587950A94E2F780FD0CC02197A0F71C
:101F7000F12C8F2DDF91CF911F910F91FF90DF906A
:101F8000CF900895B6018C2F0E946E0F0E945F0BB8
:101F9000019761F3EECFCF93DF93EC010E949C0F8A
:101FA000BE010E946E0F0E945F0BDF91CF910895DA
:101FB000FC0124812223C1F0808191810E94CB0FFA
:101FC00092959F70963091F058F4925F9F70923086
:101FD00058F4803F19F030F4883E30F481E00895E1
:101FE0009A5FF4CF843FD1F380E00895883EB0F348
:101FF000813FD1F7F3CFA6E0B0E0E1E0F0E10C944F
:10200000433526E0FC01DE01119601900D922A95E0
:10201000E1F7FC01258189819A81222399F06623C9
:1020200089F00E949C0F182F682F89819A810E9445
:10203000220D69817A81812F0E946E0F2696E3E03E
:102040000C945F350E94D80C182FF3CFAAE0B0E0B3
:10205000ECE2F0E10C943735A0908905B0908A0548
:1020600081E090E090938A058093890586E1E82ECF
:102070008CE0F82E96E3C92E9AE0D92E10E04601A6
:1020800000E015C0F30125913491452D602F812F7B
:102090000E94C70E82E0680E711C539486E05812AD
:1020A000F1CF8CE0880E911C0F5F0A3019F03401DB
:1020B000512CE8CFF7012591349141E060E0812F68
:1020C0000E94960EF70132962591349140E060E02F
:1020D000812F0E94960EF70134962591349141E0AC
:1020E00061E0812F0E94960EF7013696259134917A
:1020F00040E061E0812F0E94960E88E0E80EF11C1E
:102100001F5F88E7C80ED11C143009F0B8CF1A82BF
:1021100019821C821B821E821D8218861F8288ECF7
:1021200090E09A87898708E212E04AE050E0B8011F
:10213000CE0101960E941036065F1F4F083782E0DD
:10214000180799F7B0928A05A09289052A96EFE0C0
:102150000C94533580E00E946D0E60E087E290E0C1
:102160000E94EC350E9426100E94860E81E00E949B
:102170006D0E08959B01883070F49AE0899FB0013C
:102180001124685D7D4F4AE050E0C9010E94BE35D0
:1021900090E080E008958FEF9FEF0895AAE0B0E00F
:1021A000E4EDF0E10C9444359C0137552F3F3105A7
:1021B00009F068F4BE016F5F7F4F0E94BA10892B4F
:1021C00031F489859A852A96E2E00C94603588EC92
:1021D00090E0F9CF1F93CF93DF93162F8A3039F415
:1021E00081E00E948D11DF91CF911F9108958D3074
:1021F00011F480E0F6CFC0915103D091520396E0E4
:10220000FE01ABE4B3E001900D929A95E1F7803EB8
:1022100090F186E0FE0111928A95E9F7C091510391
:10222000D0915203111133C046E050E0BE018BE45F
:1022300093E00E94A1359E0125573340892B91F5EB
:102240002A5F3F4F40915303642F70E0C9010E9401
:102250002035481B463010F4240F311D211572E043
:10226000370710F030E020E02B583C4F30935203FA
:1022700020935103B8CFF6E08F9FB00111246A5824
:102280007B4F46E050E0CE010E949835C7CF9E01BB
:102290002A5F3F4FFE012E173F0731F28081809564
:1022A0008193F9CFC90145E0969587954A95E1F765
:1022B00041E050E0BA0102C0660F771F8A95E2F74D
:1022C000CB016091770570917805862B972BB9012A
:1022D0006B5F7F4FE5E076956795EA95E1F702C081
:1022E000440F551F6A95E2F7842B952B9093780540
:1022F00080937705A5CF1F93CF93DF93EC01162F23
:10230000FE018491811104C0DF91CF911F91089546
:10231000612F0E94EA102196F3CFCF93382FE091DE
:102320005103F0915203E557F34020915303622F7C
:1023300070E0CF010E942035281B822F332369F0E3
:1023400066E00E946B35C82FC15010F4CF910895FC
:1023500060E080E20E94EA10F7CF9F01280F311D54
:102360002115324018F080E0F0E0E0E08E0F9F2F62
:10237000911D8B589C4F9093520380935103E6CF4D
:102380000E947B1181E00E948D110895AB0124E62B
:1023900030E0BC0188E70E94D43221E0892B09F0AB
:1023A00020E0822F089580917D0590918005911104
:1023B00003C091E089270895882369F062E070E006
:1023C00088EB99E00E94C611811103C080917D05C0
:1023D000089510927D0580917D05EBCFCF93C0913C
:1023E0007D05809180058823D1F00E947C08605A89
:1023F00075418F4F9F4F6093790570937A05809355
:102400007B0590937C05C11108C062E070E086EB0B
:1024100099E00E94C611811105C0C0917D058C2FE5
:10242000CF91089581E080937D05F7CF9091A80525
:1024300092FB222720F9281779F080FB92F99093DC
:10244000A8056091A7057091A80584E090E00E941E
:102450000A3682E00E946E0D0895A4E0B0E0E3E346
:10246000F2E10C94433540917C0250917D026091E1
:102470007E0270917F022FB7F8948091AA05909107
:10248000AB05A091AC05B091AD052FBF841B950B9A
:10249000A60BB70B11E084369105A105B10570F1CB
:1024A0000E94540A6E5F7F4F8F4F9F4F69837A83DC
:1024B0008B839C8380913101909132018C599D4F87
:1024C0004091300150E04530510510F044E050E0BB
:1024D000BE016F5F7F4F0E94AE3586E090E00E94A4
:1024E000AA34182F882351F00E947C0860937C0244
:1024F00070937D0280937E0290937F02812F2496B9
:10250000E3E00C945F350F931F93CF93DF93EC01BF
:1025100045E050E06AE672E00E94A13500915B025E
:1025200010915C0220915D0230915E02EFB7F89449
:102530004091AA055091AB056091AC057091AD0535
:10254000EFBF401B510B620B730B44365105610505
:10255000710510F4892B41F18091110190911201C4
:102560008C599D4F4091100150E04630510510F0BC
:1025700045E050E0BE010E94AE3582E090E00E944E
:10258000AA34C82F882351F00E947C0860935B0214
:1025900070935C0280935D0290935E028C2FDF91BA
:1025A000CF911F910F910895C1E0F8CF4F925F92A4
:1025B0007F928F929F92AF92BF92CF92DF92EF92D3
:1025C000FF920F931F93CF93DF930F92CDB7DEB798
:1025D000C62E4A015901482E880F5508C2010E9493
:1025E000AA34782E882309F480C0C20133E0880F12
:1025F000991F3A95E1F7FC01E050FF4F438150E00D
:102600004115510511F041E050E080509F4FFC0111
:10261000648175816C597D4FCE0101960E94AE3563
:10262000F40140815181628173812FB7F8948091C8
:10263000AA059091AB05A091AC05B091AD052FBF57
:10264000841B950BA60BB70B84369105A105B1052C
:1026500040F4B701C8010E9498099981891709F4CB
:1026600044C00C2C000CDD08C6010E94AA34782E50
:10267000811113C0712C872D0F90DF91CF911F9185
:102680000F91FF90EF90DF90CF90BF90AF909F9011
:102690008F907F905F904F900895C60123E0880F40
:1026A000991F2A95E1F7FC01E050FF4F438150E06C
:1026B000E416F50608F4A70180509F4FFC016481E1
:1026C00075816C597D4FC5010E94AE35B701C801B7
:1026D0000E94980999818913CDCF0E947C08F4014A
:1026E0006083718382839383C6CFA701B801C5013C
:1026F0000E94AE35C0CFA8E0B0E0E1E8F3E10C9471
:10270000403588E0E82EF12C00E712E09E012F5FB3
:102710003F4F40E652E064E083E00E94D612082F6B
:10272000882389F190916F0280915F02981759F187
:1027300010E090917302809172028917F1F0E92FF5
:10274000F0E0E859FD4F848587FB662760F99F5FBD
:10275000937090937302909171029F5F90937102B6
:102760008F770E94ED09182F8111E3CF85E090E06B
:102770000E94AA34012F082302C01111F7CF8091C3
:102780006F0280935F02802F2896E6E00C945C3500
:10279000A5E0B0E0EEECF3E10C943E356B0185E092
:1027A000E82EF12C05E612E09E012F5F3F4F47E532
:1027B00052E061E080E00E94D612882349F095E063
:1027C000FE013196A2E5B2E001900D929A95E1F7F3
:1027D00095E0E2E5F2E0D60101900D929A95E1F7DD
:1027E0002596E8E00C945A351F920F920FB60F927F
:1027F00011242F933F934F935F936F937F938F9306
:102800009F93AF93BF93EF93FF938091E10082FF7B
:1028100009C08091E20082FF05C08091E1008B7FBA
:102820008093E1008091DA0080FF24C08091D8007D
:1028300080FF20C08091DA008E7F8093DA00809143
:10284000D90080FF9DC080E189BD82E189BD09B4C6
:1028500000FEFDCF81E08093BB058091AE05811124
:1028600009C00E940E070E94AF078091E2008460B9
:102870008093E2008091E10080FF17C08091E20028
:1028800080FF13C08091E2008E7F8093E2008091F0
:10289000E20080618093E2008091D80080628093A2
:1028A000D80019BC85E08093BB058091E10084FFCE
:1028B0002BC08091E20084FF27C080E189BD82E1C6
:1028C00089BD89B5982F917080FFFBCF8091D8008A
:1028D0008F7D8093D8008091E1008F7E8093E1000E
:1028E0008091E2008F7E8093E2008091E20081601F
:1028F0008093E2008091BC05882309F447C084E0FE
:102900008093BB058091BB058091E10083FF27C0C8
:102910008091E20083FF23C08091E100877F809354
:10292000E10082E08093BB051092BC058091E1003C
:102930008E7F8093E1008091E2008E7F8093E200A1
:102940008091E20080618093E20042E060E080E0FC
:102950000E947D078091F00088608093F000FF91D5
:10296000EF91BF91AF919F918F917F916F915F9107
:102970004F913F912F910F900FBE0F901F90189580
:1029800019BC1092BB051092AE0574CF8091E30084
:1029900087FD93E09093BB05B5CF78941F921FB647
:1029A0001F9211248F939F93AF93BF938091AA0599
:1029B0009091AB05A091AC05B091AD050196A11D1C
:1029C000B11D8093AA059093AB05A093AC05B0937D
:1029D000AD05BF91AF919F918F911F901FBE1F902A
:1029E00018959C014FB7F8948091AA059091AB057A
:1029F000A091AC05B091AD054FBF821B930B08951C
:102A00002FB7F8948091AA059091AB05A091AC05E1
:102A1000B091AD052FBF08950E9400159C019091C3
:102A2000940580919505982B21F030939105209382
:102A300090059091960580919705982B21F0309301
:102A40008F0520938E05E091A305F091A4053097A2
:102A500049F082E0809392050680F781E02D82E9BB
:102A600095E00995089540919405909196052091DF
:102A70009705662309F469C0942B922B2091950544
:102A8000922B31F098E090938B0591E090938C0518
:102A90008D3C41F40E946A098195809395050E94BE
:102AA0000C1508958E3C19F40E946A09F6CF8F3CEC
:102AB00031F40E946A09819580939405F0CF803D9E
:102AC00019F40E946A09F8CF893D29F40E94480947
:102AD00080939605E4CF8A3D21F40E9448098195B0
:102AE000F7CF8B3D31F40E9448098195809397057B
:102AF000D6CF8C3D19F40E944809F8CF9FE2980F79
:102B0000983070F4815D990B21E030E001C0220F14
:102B10008A95EAF780919305822B80939305BFCF26
:102B20008D3D31F480918D05816080938D05B7CF07
:102B30008E3D21F480918D058260F7CF8F3D09F0A5
:102B4000AECF80918D058460F0CF8D3C59F480919B
:102B5000950587FF0DC01092950541110BC010928D
:102B60008B0508C08E3C81F48091950518169CF366
:102B7000442381F08091960590919705892B09F067
:102B80008ECF10928C058BCF8F3C49F447FFF0CF4E
:102B900010929405809195058111ECCFE0CF803D96
:102BA00019F41416ACF3E4CF893D29F4191604F78F
:102BB00010929605DDCF8A3D19F497FFD9CFF8CF53
:102BC0008B3D29F427FFD4CF10929705D1CF8C3DB0
:102BD00019F41216CCF3CCCF9FE2980F983090F4F2
:102BE000815D990B21E030E0B90102C0660F771FCB
:102BF0008A95E2F7CB018095909193058923809384
:102C00009305B6CF8D3D31F480918D058E7F8093F5
:102C10008D05AECF8E3D21F480918D058D7FF7CF50
:102C20008F3D09F0A5CF80918D058B7FF0CF2F923E
:102C30003F925F926F927F928F929F92AF92BF92DC
:102C4000CF92DF92EF92FF920F931F93CF93DF9378
:102C500080918005882309F483C080917E0590913E
:102C60007F050E94F114C29708F45BC00E94001512
:102C700090937F0580937E0585E793E090935203C0
:102C80008093510380919F0560E0882309F482C0FE
:102C900083EF99E00E947B11809154030E94940D70
:102CA000882341F0813031F160E084EE99E00E94A8
:102CB0007B1105C060E08EEE99E00E94C01160E0DB
:102CC00081EE99E00E947B1160E08BED99E00E941B
:102CD000C011809154030E94940D823009F452C0B7
:102CE00068F0833009F452C060E083EC99E00E9400
:102CF000C01109C060E089EE99E0DFCF60E085EDAA
:102D000099E00E947B1160E080EC99E00E947B11C9
:102D10000E94310981FB662760F98AEB99E00E94E5
:102D2000C0118091770590917805892BC1F580912C
:102D30007D058823A9F00E947C08009179051091F7
:102D40007A0520917B0530917C05601B710B820B0D
:102D5000930B6F3F7F4F8F4F9F4710F40E94D3110B
:102D6000DF91CF911F910F91FF90EF90DF90CF9067
:102D7000BF90AF909F908F907F906F905F903F90AB
:102D80002F90089560E08FEC99E0BBCF60E089EC74
:102D900099E0B7CF86EF99E00E947B11C2CF809176
:102DA0008005882321F2809176058111C0CF0E9491
:102DB000EE1120917705309178052115310509F440
:102DC000B6CF80E041E050E0082F10E01A01082E55
:102DD00002C0220C331C0A94E2F7B1016223732370
:102DE000672B11F48F5FF0CF9091750590FF95C020
:102DF000880F880F880F8093450110924801895FE2
:102E00008093460183E08093490124E630E047E067
:102E100050E063E471E088E70E949032892B09F06A
:102E200086CFA80125E0440F551F2A95E1F7809130
:102E3000750580FF84C0E5E5F3E080E2DF011D92C7
:102E40008A95E9F7A7EBB1E003EB11E08BEBC82E15
:102E500081E0D82E97E0592E772473948D91E80164
:102E600029918E01240F352F311D2B583C4FE82F0F
:102E7000F0E0EB5AFC4F90E080E0652C681A872C5C
:102E8000082E01C0880C0A94EAF77901A12CE70109
:102E9000B9907E01B820662D6A196770962E062EAD
:102EA000000C770BDB2D01C0DD0F9A94EAF77195CA
:102EB000619571096770772701C0B6946A95EAF742
:102EC000BD2A6081962E9B289082A39468E0A6126A
:102ED000DECF019631968830910579F6CA16DB0669
:102EE00009F0BCCF04E610E020E230E045E553E015
:102EF00060E488E70E941A33892B09F018CFE101BA
:102F0000C095D0958091770590917805C823D923F5
:102F1000D0937805C09377050ACF8295880F807685
:102F200080934501980136952795369527952093EE
:102F30004801815E809346012093490166CF4B583A
:102F40005C4F04E610E020E230E0D2CFAFE0B0E02A
:102F5000ECEAF7E10C9439358E010F5F1F4F8AE0E0
:102F6000F80111928A95E9F780E9C82E81E0D82E00
:102F7000F12CE12CAA24A394B12C2BE9822E21E080
:102F8000922EF60181916F018F3F09F442C0F894AF
:102F9000E82FE295EF70F0E021A18F70A50102C04B
:102FA000440F551F8A95E2F7CA01922F982B91A3DF
:102FB00092A18095892382A3789400C0E5E9F1E08D
:102FC000712C31E021912F3F09F49EC0A22FA295D0
:102FD000AF70B0E090968C9190E02F7002C0959504
:102FE00087952A95E2F780FD8FC0832F782A330FCB
:102FF0008E169F0639F7F601319780818F3F11F0C9
:103000000E943D0A50EA5A95F1F7F801EE0DFF1DB6
:1030100070828FEFE81AF80A95E0E916F10409F0DA
:10302000B0CF4AE050E0B80185E892E00E94A135B7
:10303000009741F02AE0F801A5E8B2E001900D9276
:103040002A95E1F70091900210E005551D4F892B5C
:1030500009F45CC081E080934A020E9400159093BD
:10306000490280934802D12CC0909F05CC2009F4DE
:10307000A4C07E01EBE0EE0EF11C85E0F701119299
:103080008A95E9F7809180028A3008F063C048ECA5
:1030900053E1B701C8010E943A0E882309F47CC0AD
:1030A00043E852E1B701C8010E943A0E882309F4AF
:1030B00073C04BE753E1B701C8010E943A0E882361
:1030C00009F46AC04DE252E1B701C8010E943A0E0C
:1030D000882309F461C01092800280918F0290E0F1
:1030E00045E050E0B70185559D4F0E94A13521E094
:1030F00020935102892B09F042C0C12C8C2D8D29BF
:103100002F96EDE00C94553580E070CFD0904A02B8
:10311000DD2009F4A8CF80914802909149020E94D5
:10312000F114059708F49FCF45E050E065E872E0A0
:10313000C8010E94A135892B59F085E0E5E8F2E04D
:10314000D80101900D928A95E1F710924A028CCF36
:10315000D12CFBCF80914B0290914C020E94F11434
:10316000843F914008F093CF80915102882329F247
:1031700085E0F70111928A95E9F710925102A0912A
:103180008F02B0E0A555BD4F85E0FE013B96019052
:103190000D928A95E1F7B2CF809180028F3F31F096
:1031A0008F5F809380028A3008F497CF0E940015C9
:1031B00090934C0280934B02D7CFE0908F02F12C7A
:1031C000A70145555D4F7A0185E0F801A5E6B2E01B
:1031D00001900D928A95E1F765E070E085E692E056
:1031E0000E9498098093640285E0EAE6F2E0D70144
:1031F00001900D928A95E1F788E0E1E8F5E0A0E71B
:10320000B2E001900D928A95E1F768E070E080E706
:1032100092E00E94980980936F02809078029090CB
:103220007902A0907A02B0907B0280914D02909139
:103230004E02A0914F02B091500288169906AA063C
:10324000BB0609F45BCF80924D0290924E02A09291
:103250004F02B09250020E947C08861A970AA80A70
:10326000B90A8092810290928202A0928302B09267
:10327000840244CF90914502292F282361F0809544
:10328000892380934502882339F00E94001590938A
:10329000440280934302089590E080E0F8CFCF93FA
:1032A000C0919C0580919B05C82B80914502882385
:1032B00009F10E9400152091430230914402821BC3
:1032C000930B8838934110F00E947D0C8091450249
:1032D000C82B80914C01882381F08091A70587FF3E
:1032E0000CC02EE186ED91E030E0215050F4311118
:1032F0000E947D0C8C2FCF91089526E08EEC91E0FA
:10330000F3CFFC014191CF01442379F33F5FEDCF2F
:1033100080914C01882359F18091A70587FF27C030
:103320000E944F198093D50140E250E06BE172E0BA
:1033300084ED91E00E94A135892BC1F080E2E4ED9B
:10334000F1E0ABE1B2E001900D928A95E1F7E091F6
:10335000A305F091A405309749F086E08093D4014D
:103360000480F581E02D84ED91E0099508950E9497
:103370004F198093CC0148E050E06BE372E08CEC95
:1033800091E00E94A135892B89F388E0ECECF1E013
:10339000ABE3B2E001900D928A95E1F7E091A305CD
:1033A000F091A405309711F30280F381E02D8CECAD
:1033B00091E0DBCFCF93DF93EC014A855B856E858F
:1033C0007F850E9442098B810E94880C8C810E941B
:1033D0008F0C0E94881986E0FE0111928A95E9F708
:1033E000DF91CF910895CF93DF93EC018D8181FD23
:1033F00017C082608D8380919B059B81892B809370
:103400009B0580919C059C81892B80939C050E9443
:103410008819488559856E857F85CE010E944209AD
:1034200010929E0510929D058D8180FD03C0CE01F6
:103430000E94DA19DF91CF91089510929C05809136
:103440004C01882339F18091A70587FF23C0E6ED61
:10345000F1E08EE1DF011D928A95E9F790E080E0CE
:103460000E940C0990E080E00E94E70810929B0502
:103470000E94881986E0E2E9F5E0DF011D928A9555
:10348000E9F710928B0510928C0510928D050E9421
:103490000C150895EEECF1E086E0DCCFAAE2B0E096
:1034A000E4E5FAE10C9443358DEB95E02091F100D1
:1034B000DC012D93CD01B5E0853C9B07B9F78091E8
:1034C000BE05833009F472C0B8F4813009F449C0F4
:1034D000823009F4B3C08091E80083FF96C28091E6
:1034E000BD059091BE059A3008F08FC2E92FF0E03B
:1034F000E65DF94C0C948B358A3009F48EC08B3024
:1035000009F471C0893039F78091BD05813219F70E
:103510008091C1059091C205009711F00297D9F6EC
:103520008091E800877F8093E8008091E80082FF27
:1035300038C09091F3008091F200029731F48091AD
:10354000F100813011F0863021F48091F1008093F8
:10355000B0058091E8008B778093E8000E945E07B9
:10356000BACF8091BD05813A09F0B5CF8091E800CE
:10357000877F8093E8008091C1059091C205892BD7
:1035800061F468E081EB95E070E00E940A088091A8
:10359000E8008B778093E8009ECF60E090E080E0C9
:1035A000F3CF8091BB058111C0CF95CF8091BD0530
:1035B000813A09F090CF8091C1059091C205892B85
:1035C00009F089CF8091E800877F8093E80080919F
:1035D000E80080FFFCCF80914C018093F100809146
:1035E000E8008E77B9CF8091BD05813209F073CFA5
:1035F0008091C1059091C205892B09F06CCF809113
:10360000E800877F8093E8000E945E078091BF05F5
:1036100080934C010E941D1A5ECF8091BD058132BE
:1036200009F059CF8091E800877F8093E8000E94DD
:103630005E078091C0058093AF054DCF8091BD0599
:10364000813A09F048CF8091E800877F8093E800B5
:103650008091E80080FFFCCF8091AF05BECF80381D
:1036600099F0823809F0D1C18091C1058F708730FF
:1036700008F0CBC18093E9008091EB0085FB88279F
:1036800080F91092E90006C08091B9059091BA05C1
:10369000911182609091E800977F9093E800809369
:1036A000F1001092F1008091E8008E77AAC1882382
:1036B00009F498C1823009F0A8C18091BF05811139
:1036C0009BC18091C1058F702FEF280F263008F025
:1036D0009CC18093E9002091EB0020FF8DC19330C5
:1036E00031F48091EB0080628093EB0085C1909172
:1036F000EB0090619093EB0021E030E001C0220FDD
:103700008A95EAF72093EA001092EA008091EB0094
:103710008860EACF811179C11091BF051F77809130
:10372000E3008078812B8093E3008091E800877F1D
:103730008093E8000E945E078091E80080FFFCCF44
:103740008091E30080688093E30082E0111183E0C0
:103750008093BB055AC18058823008F056C1209131
:10376000BF053091C0052C3DE3E03E07A1F583E0A5
:103770008A838AE289834FB7F894DE01139620E0AA
:103780003EE051E2E32FF0E050935700E49120FF38
:1037900003C0E295EF703F5FEF708E2F90E0EA304C
:1037A000C0F0C7968D939D932F5F243159F74FBF7B
:1037B0008091E800877F8093E8006AE270E0CE01A4
:1037C00001960E940A088091E8008B778093E800B8
:1037D0001CC1C096E7CF8091C1059091C205432FCF
:1037E00055274330510509F44AC078F54130510559
:1037F00009F485C08BE590E0E6E3FCE0423051053A
:1038000009F003C12091E800277F2093E800209170
:10381000C3053091C4058217930708F49C0140E06A
:103820002115310509F070C041116EC08091E8008A
:1038300082FDC9CF8091BB05882329F2853019F21A
:103840008091E80083FFF2CFBECF4132510509F4E9
:1038500047C04232510509F0D8C08330910508F0C5
:10386000D4C0FC01EE0FFF1FE254FE4F0190F08127
:10387000E02D85549E4FDC018C9190E01DC03327D4
:1038800021303105E9F02115310579F0223031057B
:10389000F9F02330310509F0B8C0E3EAFCE0E49127
:1038A0008E2F90E0E3EAFCE007C0EBEEFCE0E49151
:1038B0008E2F90E0EBEEFCE0009709F4A6C0A2CFBB
:1038C000EFECFCE0E4918E2F90E0EFECFCE0F4CF25
:1038D000E1ECFCE0E4918E2F90E0E1ECFCE0ECCF39
:1038E0008330910508F091C0880F991FFC01EC53BB
:1038F000FE4F0190F081E02D89E090E083CF82E1DE
:1039000090E0E1E9FCE07ECF8091BB05882309F4DB
:103910005ACF853009F457CF8091E80083FD53CF0B
:103920008091E80082FD82CF8091E80080FF78CF0F
:103930009091F3008091F2002115310519F0883043
:10394000910550F041E0089709F040E08091E800CF
:103950008E778093E80064CF44914093F1003196D4
:10396000215031090196E8CF803809F04EC080918E
:10397000E800877F8093E8008091BC058093F10088
:1039800092CE811142C01091BF051230F0F58091A6
:10399000E800877F8093E8001093BC050E945E07D3
:1039A000112311F084E005C08091E30087FDFACF78
:1039B00081E08093BB0542E061EC81E00E947D07DD
:1039C00042E261EC84E00E947D0742E261EC82E029
:1039D0000E947D0742E260EC83E00E947D078091B7
:1039E000BB0513C08091BF05813079F481E093302D
:1039F00009F080E08093BA051092E9008091E80018
:103A0000877F8093E8000E945E078091E80083FF33
:103A10000AC08091E800877F8093E8008091EB00E6
:103A200080628093EB00AA96E3E00C945F351F92CE
:103A30000F920FB60F9211242F933F934F935F93E2
:103A40006F937F938F939F93AF93BF93CF93DF93A6
:103A5000EF93FF93D091E900DF708091EC00C82FC5
:103A6000C17080FDC0E81092E9008091F000877F6E
:103A70008093F00078940E944E1A1092E900809191
:103A8000F00088608093F000CD2BCF70C093E900E8
:103A9000FF91EF91DF91CF91BF91AF919F918F9166
:103AA0007F916F915F914F913F912F910F900FBE3A
:103AB0000F901F9018950E941D1A2FEF84E39CE031
:103AC000215080409040E1F700C0000088E19AE07A
:103AD0000FB6F894A895809360000FBE9093600095
:103AE000FFCF882321F00E94880C0E948819089536
:103AF000882339F090919B05982B90939B050E9409
:103B000088190895882321F00E948F0C0E9488193B
:103B10000895882339F090919C05982B90939C05EB
:103B20000E9488190895882381F19CEF980F913A9B
:103B300028F40E9488080E948819089590E2980F3E
:103B4000983050F4877091E001C0990F8A95EAF798
:103B5000892F0E948F0CEFCF9BE5980F933028F4AC
:103B600090E080E00E940C09089598E5980F9B3141
:103B700028F490E080E00E94E708089593E3980F0E
:103B8000933118F460E00E9433150895CF93C82F45
:103B90008823B1F18CEF8C0F813AA0F580914C0114
:103BA000882301F18091A70587FF1CC0EC2FE695C3
:103BB000E695E695F0E0EC52FE4F828190E04C2FC6
:103BC000477021E030E002C0220F331F4A95E2F730
:103BD00082239323892B79F08C2F0E9488080E94DE
:103BE000881909C0EEECF1E08191C817A9F381E0D2
:103BF000E43DF807C9F78C2F0E94B3080E9488198A
:103C0000CF91089580E28C0F883068F4C77021E06E
:103C100030E001C0220FCA95EAF780919C05822B03
:103C200080939C05EBCFEBE5EC0FE33040F4F0E044
:103C3000EB5AFE4F808190E00E940C09E1CFE8E54D
:103C4000EC0FEB3150F4F0E0EE0FFF1FE85AFE4F9F
:103C5000808191810E94E708D3CF83E38C0F833169
:103C600078F661E08C2F0E943315CACF1F93CF9353
:103C7000DF93182FEB010E94C61D209739F4812F86
:103C80000E94931DDF91CF911F9108958FE99FE0CE
:103C90000197F1F700C000002197EFCFB0E0A0E05E
:103CA000E4E5FEE10C943E356B01C42FD22FFC01FC
:103CB00085818823A9F040939A050E94001590936E
:103CC000990580939805C77081E001C0880FCA9557
:103CD000EAF70E94891DCDB7DEB7E8E00C945A35AB
:103CE00010919A05141339C0809198059091990507
:103CF0000E94F1147C01C6010E94CE10E816F9065C
:103D000060F5C0E2CD0F1D17C1F080E2810F883051
:103D100048F4177081E0012E01C0880F0A94EAF779
:103D20000E94821DC83048F481E09D2F977001C029
:103D3000880F9A95EAF70E94891D6AE070E0802F4B
:103D40000E94361EC83038F6D77081E001C0880F57
:103D5000DA95EAF70E94821DBECFC77081E001C0EC
:103D6000880FCA95EAF7F6CFB0E0A0E0EAEBFEE1F3
:103D70000C943C35EC018AE0A82E2881222309F41A
:103D8000CEC0213009F04FC089818130A9F48E0165
:103D90000E5F1F4F8A816AE070E0893311F460E59D
:103DA00070E00E94361EE8018FE39CE90197F1F76D
:103DB00000C000002196E1CF823039F48E010E5F01
:103DC0001F4F8A810E94C61DEECF833039F48E01C9
:103DD0000E5F1F4F8A810E94931DE5CF843011F042
:103DE0002196E2CF2A81229690E080E0AE014F5FDB
:103DF0005F4F2053330B2A30310550F00097A1F26A
:103E0000EFE9FFE03197F1F700C000000197F6CF2E
:103E1000A89EB001A99E700D1124C901860F971F9D
:103E20002981EA01E3CFE22FF0E0E15EF24FB490A6
:103E3000822F86958695869590E0FC01E15FF24F92
:103E4000E4902770F12C022E02C0F594E7940A94B6
:103E5000E2F7E1E0EE22FF24FC01E150F34FC490D1
:103E6000D12C022E02C0D594C7940A94E2F7F1E057
:103E7000CF22DD24FC01E151F34F049110E002C098
:103E8000159507952A95E2F701701127E114F104C1
:103E900049F081EE0E94C61D8FE39CE90197F1F77E
:103EA00000C00000C114D10449F086EE0E94C61D76
:103EB000EFE3FCE93197F1F700C000006AE070E041
:103EC0008B2D0E94361E8FE39CE90197F1F700C00D
:103ED0000000C114D10449F086EE0E94931DEFE367
:103EE000FCE93197F1F700C00000E114F10449F05A
:103EF00081EE0E94931D8FE39CE90197F1F700C0CA
:103F000000000115110509F455CF6AE070E08CE25C
:103F10000E94361EEFE3FCE93197F1F749CFCDB7A8
:103F2000DEB7EAE00C9458359091A80592FF10C0D6
:103F300098E0899F90011124622B60931A020E94DD
:103F4000850D0E9400159093190280931802089520
:103F50000E94850D0895ABE1B0E0E1EBFFE10C9428
:103F600043354E8B5F8B688F798F8A8F9B8F911132
:103F700010929B051D8A86E0FE017696DE011F9653
:103F800001900D928A95E1F78091A80582FF1CC0EF
:103F90000E9400152091180230911902821B930B88
:103FA0008838934120F080911A0282FF79C00E94E4
:103FB00000152091430230914402821B930B8838F4
:103FC000934110F00E947D0C8B89882329F061E0D9
:103FD000CE010F960E94FB0F87E0FE013F96DE01A7
:103FE000189601900D928A95E1F7CE0108960E94ED
:103FF000592881112AC087E0FE013896DE0111960A
:1040000001900D928A95E1F78C858823F1F020913B
:10401000C50530E0C9010196877099274091FE05DA
:1040200048171906E9F097E0929FD001939FB00DD1
:104030001124AA53BA4FFE01319601900D929A9520
:10404000E1F78093C5050E94A70C17E08091FE055B
:104050009091C505891312C06B96E3E00C945F350F
:104060000E941D1A1092C5051092FE0587E0E0E13E
:10407000F2E0DF011D928A95E9F7E7CF819FC00149
:1040800011248A539A4F0E945928882329F380913A
:10409000FE0590E00196877099278093FE05D6CFA4
:1040A00082E00E946E0D83CFACE0B0E0EAE5F0E282
:1040B0000C943D3580E00CEF93E0F92EEE24E39470
:1040C0002DEFD22E32E0C32E9091840520918305EE
:1040D000291709F454C0E92FF0E0EB57FA4F10818B
:1040E00017FBBB24B0F81F779F5F937090938405F4
:1040F000809182058F5F80938205B11008C00E9475
:1041000000151F8308879A878987FB8607C00E944E
:1041100000151F83D8869A878987CB86EC864F81C6
:10412000588569857A858B859C850E94AB1F8FE3B6
:104130009CE90197F1F700C00000BB20C1F00E948C
:1041400000151983DA829C838B83CD821E8249817C
:104150005A816B817C818D819E810E94AB1F8FE390
:104160009CE90197F1F700C0000081E0ADCF0E940B
:10417000001519830A839C838B83FD82E7CF2C96DD
:10418000E9E00C945935A6E0B0E0E9ECF0E20C94DB
:1041900042358C019093B8028093B702011580E2FA
:1041A0001807C0F4802F0E94931DC8010E94A50D1E
:1041B0009801205E31092830310518F001151105EC
:1041C00031F40E94821D2696E4E00C945E350E9434
:1041D000711DF9CF80EF89838A830E940015816069
:1041E000682F9C838B8349815A817C8181E090E098
:1041F0000E94AB1FE8CF0F931F93CF93DF938C01E7
:10420000EB0161EC72E08C2F0E94BA10892BA1F4B3
:104210008FE39CE90197F1F700C00000DD27C75448
:10422000DD4F8881F801128218828330F1F048F462
:10423000813059F0823081F0DF91CF911F910F9141
:1042400008958430B9F08530B9F78091C10290911A
:10425000C202009789F306C08091C3029091C40204
:10426000009799F30E94C320E7CF8091C5029091F7
:10427000C602F6CF8091C7029091C802009791F7CD
:104280002091C1023091C2028091C3029091C40278
:1042900021153105F1F2009729F7C901E3CFA6E016
:1042A000B0E0E5E5F1E20C9442358C019093B80260
:1042B0008093B702011580E21807C0F4C8010E947C
:1042C000A50D9801205E31092830310518F001153F
:1042D000110549F40E94891D802F0E94C61D269653
:1042E000E4E00C945E350E94781DF6CF80EF898360
:1042F0008A830E9400158160682F9C838B8349818B
:104300005A817C8181E091E00E94AB1FE8CFCF937E
:10431000DF93EC010E944F218FE39CE90197F1F7B5
:1043200000C00000CE010E94C320DF91CF9108950C
:104330000F931F93CF93DF938C01862F61EC72E074
:104340000E94BA10892BB1F4C091C102D091C2026F
:10435000209781F0F8018281833051F4CE010E94D0
:104360008721CE010E948721CE010E94872102C0B1
:104370008430D0F7DF91CF911F910F9108950F9363
:104380001F93CF93DF938C01EB0161EC72E08C2FD4
:104390000E94BA10892B09F05CC0FE01FF27D801EA
:1043A00012968C911297E754FD4F8130B9F415960F
:1043B0009C9192FF02C080830AC090FFFCCF82E0F4
:1043C00080838091C3029091C4020097B9F48091D8
:1043D000C1029091C2020097E1F110C08230B9F59C
:1043E00015968C9182FD28C080FD0BC083E08083F0
:1043F0008091C5029091C602009701F10E944F2161
:1044000028C084E080838091C7029091C802009701
:10441000A9F78091C1029091C2020097F9F00E9421
:1044200087218091C3029091C402009739F780914F
:10443000C1029091C202E2CF85E080838091C102E7
:104440009091C202009729F00E948721F0CF86E068
:104450008083DF91CF911F910F9108958091C302C6
:104460009091C402B8CFA4E0B0E0E9E3F2E20C948A
:1044700035357C01DC0114968C91882309F4E1C167
:1044800061E0C7010E94FB0F8C01F7018581882341
:1044900019F180919D0590919E050097E9F008170C
:1044A0001907D1F09927E4E0880F991FEA95E1F701
:1044B000FC01E053FD4F20812460208385539D4FF4
:1044C000DC010D931C930E94F31910929B0561E08F
:1044D000C7010E94FB0F8C01F7018581882309F435
:1044E000B8C0980137572038310508F0B2C0D02E37
:1044F000FFE0F01708F496C18FEF93E00E94CE35ED
:10450000811190C108E712E0D11038C074E0472E45
:10451000AE014F5F5F4F3A0133243A94D301E42D4B
:104520001D92EA95E9F76801FFEFCF1ADF0AC8018B
:104530000E94CE358983882309F474C18130D1F477
:10454000580122E0A20EB11CC6010E94CE35582EA1
:104550008A83882309F466C18FEF850D8330E0F4E8
:10456000680133E0C30ED11CC5010E94CE358B8398
:104570008823D9F1C3010E94B41E37C0011524E07D
:10458000120709F44FC1C8010E94CE35811101C044
:10459000DA940F5F1F4FB8CF8BEF850D833068F52E
:1045A000480143E0840E911CC5010E94CE358B83E7
:1045B00064018823D1F0680154E0C50ED11CC40108
:1045C0000E94CE358C83882381F08B819C81813041
:1045D000AFEF9A0710F0982F8827B6E05B1639F0F6
:1045E000E7E05E1639F00E948721860197CF0E948E
:1045F0004F21FBCF0E94C320F8CFF4E065015F128A
:10460000F4CFC5010E94CE35B82E680124E0C20E59
:10461000D11CC80103960E94CE35BB2009F402C10B
:10462000882309F4FFC0482F4150550B349EC00128
:10463000359E900D1124AB2DA150BB0B8A0F9B1FF3
:10464000019798F2EFE9FFE03197F1F700C0000021
:10465000F7CF680127E5D21A81117AC03FEFC31660
:10466000D10411F008F07AC061EC72E08C2D0E9448
:10467000BA10892B29F5C60154E0880F991F5A9565
:10468000E1F7FC01E553FD4F2281213009F04DC0D7
:104690002091C1023091C202232B91F02091C302DC
:1046A0003091C402232B61F02091C5023091C602E3
:1046B0004091C7025091C802242B352B232BE9F1DE
:1046C000F801FF2784E0EE0FFF1F8A95E1F79F01B5
:1046D00025533D4F6901D70115968C91E053FD4F4D
:1046E000908180FB90F99083811142C0D6011C9685
:1046F0004D915C911D971E966D917C91C6010E9413
:104700004209F601858181FF62C0C6010E94DA1963
:1047100080919D0590919E050817190709F057C0D3
:1047200010929E0510929D0552C0223049F62091AC
:10473000C5023091C602232B19F2FC01E053FD4F54
:1047400020812E7F208385539D4F0E94F319B8CF7F
:104750004FEFC416D10409F008F4B2CFF801E851C4
:10476000FC47E730F10598F5EC5CF94C0C948B357F
:104770000E94001590939E0280939D02D60112968E
:104780008C9112978F5F12968C93129780919B0554
:1047900090919C05892B13968C93139780914502D9
:1047A00014968C93149716964D915C9117971E96BC
:1047B0006D917C91C6010E944209F601858181FFBD
:1047C00026C090E080E090939D0580939E05D701E0
:1047D00015968C91882309F489C310929A05C80113
:1047E0009057839708F06EC384E090E00E94D6351E
:1047F0009093A8058093A705F801E150F047E232B5
:10480000F10508F046C0E55CF94C0C948B35902F0F
:10481000812FD9CF06E221EE41EE6AE17CE7C701A4
:104820000E944E1E80911A02877059F0F70185810F
:10483000882339F08091A80582FF03C082E00E949E
:104840006E0D2496E1E10C94513507E225EE45EE1C
:104850006BE17CE7E4CF06E221EE40EE68E17CE725
:10486000DECF07E225EE44EE69E17CE7D8CF06E231
:1048700021EE42EE6CE17CE7D2CF07E225EE46EE78
:104880006DE17CE7CCCF08E221E045EE6EE17CE70C
:10489000C6CF8091A70581608093A70595C08091C0
:1048A000A80588608093A8058FC08091A7058260C5
:1048B000F3CF8091A7058460EFCF8091A705886032
:1048C000EBCF8091A8058160EDCF8091A805826033
:1048D000E9CF8091A7058061DFCF8091A705806235
:1048E000DBCF8091A7058064D7CF0E941D1A8091ED
:1048F000A7058068D1CF8091A7058C60CDCF80912E
:10490000A8058360CFCF8091A7058E7FC5CF80910A
:10491000A805877FC7CF8091A7058D7FBDCF8091E8
:10492000A7058B7FB9CF8091A705877FB5CF8091F1
:10493000A8058E7FB7CF8091A8058D7FB3CF8091DA
:10494000A7058F7EA9CF8091A7058F7DA5CF8091E8
:10495000A7058F7BA1CF0E941D1A8091A7058F7795
:104960009BCF8091A705837F97CF8091A8058C7FEF
:1049700099CF8091A70582FB992790F921E0922792
:1049800090FB82F990FB83F987CF8091A805982F3F
:10499000909591708E7F892B90FB81F983CF9091B8
:1049A000A705892F8F7B96FF806476CF0E941D1A02
:1049B0009091A705892F97FB87F980586DCF61E00B
:1049C0008EE090E00E94EC356091A7057091A805FB
:1049D00084E090E00E940A360E941D1A23CF60E016
:1049E000EFCF9091A705892F8F7E94FF806154CFE0
:1049F0009091A705892F8E7F90FF81604DCF909178
:104A0000A805892F877F93FF88604CCF85E369C213
:104A10008091F401811104C089E20E94880863C278
:104A200085E3FBCF81E00E94850D43E062E081E0F9
:104A30000E94410DF7CE81E00E94610DF6CF0B354B
:104A40003CE7130749F10C354CE71407D9F00A3558
:104A50001C4709F076C281E01CC00E941D1A8FEF2E
:104A600094E3ACE081509040A040E1F700C000002A
:104A70000E946B086FEF7FEF90E080E00E940A36A3
:104A80000E945B1D8091A80582FB882780F991E038
:104A900089270E94161255C280E0FBCFC8010E94F0
:104AA000D80CD82E5FC2312F3F70D32E107F19F053
:104AB000D29420EFD222CC20B9F0DD2069F080E240
:104AC000800F883010F0811009C080919C05D82A91
:104AD000D0929C050E948819802F3FC080919B0531
:104AE000D82AD0929B05F6CF802F0E94931DDD20FF
:104AF000B1F1005E8D2D083010F0811003C00E94CE
:104B00008F0C02C00E94880C0E94881928C0412F77
:104B10004F70D42E107F103219F0D29490EFD9221A
:104B2000882059F051E0851609F489C0CC2009F499
:104B300095C0BB2009F443C0CFCF8091A80582FD6A
:104B40003AC0CC2089F1DD2039F080919C05D82A2B
:104B5000D0929C050E94881980E00E94C61D292DD4
:104B60002850330B2430310510F40E943109AA205B
:104B7000B1F080911A0280FD12C0D70115961C92E7
:104B80008695869586950E94850DC7010E943322E1
:104B900080911A028695869586950E94610D60E047
:104BA000C7010E94FB0F4DCE80E00E94931DDD20C7
:104BB000B1F28D2DA4CFCC2069F1B11004C08D2DA0
:104BC0000E94891DCCCF81E0B81210C0109145021F
:104BD0008D2D8123D81619F20E940015909344025E
:104BE00080934302D12AD0924502B9CF95E0B91201
:104BF000B6CF8D2D0E94891D8D2D0E943A1980916E
:104C000017029D2D9823D91609F4A9CFD82AD0923E
:104C10001702A5CFB1100AC08D2D0E94821D8D2DC7
:104C20000E943A198D2D0E949D0C99CFA1E0BA12D5
:104C300096CF80919C058D2109F491CFEDCFCC20AA
:104C400029F0B5E0BB1508F48ACFB9CFE4E0EB1545
:104C500008F485CF8D2D0E94821D81CFBB20D1F31A
:104C6000F9E38F120DC02FEF37EE43E021503040B3
:104C70004040E1F700C00000802F0E94931D6FCFDD
:104C80008FE39CE90197F1F7F5CF812F8695869503
:104C9000837061F0813009F062CFC8019370C11058
:104CA00002C080E090E00E94E70859CFC8019370ED
:104CB000C11002C080E090E00E940C0950CF6C2D22
:104CC000802F0E9433154BCF812F837089F5C1103F
:104CD00046CF402F429546954770440F440F802F92
:104CE0008F70042E01C0880F0A94EAF7202F2071DC
:104CF00004FF07C02FE030E001C0220F4A95EAF719
:104D00002095169516951370123069F050F4309175
:104D10009102113029F0822B83230E94910D1FCF25
:104D2000832B822BFACF282B809191028227F5CFFB
:104D30008695CC2011F0812F8170882309F40FCF44
:104D4000402F429546954770440F440F802F8F7037
:104D5000042E01C0880F0A94EAF7202F207104FF67
:104D600007C02FE030E001C0220F4A95EAF72095F6
:104D7000169516951370123069F050F43091540363
:104D8000113029F0822B83230E943E0DE8CE832B25
:104D9000822BFACF282B809154038227F5CF1F70E6
:104DA000CC2029F0812F0E94850D802F09CF802FE4
:104DB0000E94821D812F0E94610DD1CE802F92EF23
:104DC0008916B1F1981570F0A0EF8A16D1F0B1EF05
:104DD0008B1691F0CC2009F461C0B1107DCE812FEB
:104DE0008F712AC0E3EF8E1651F1F4EF8F12F2CFDC
:104DF0008091A80582FD2FC0812F8F71CC20D9F220
:104E00001BC0CC2081F024E02B1508F4A8CE1F7124
:104E100081E090E0012E01C0880F0A94EAF790919A
:104E200054038927B1CF35E03B1508F498CEEFCF76
:104E3000812F8F71C110BFCF0E94850D90CE80E071
:104E4000CC2009F4A1CF1F7181E0012E01C0880F91
:104E50000A94EAF799CFCC20B1F080911A028770BA
:104E6000843041F40E94960C812F8F710E94610D55
:104E7000A12C75CE44E063E04B15D0F3812F8F71E8
:104E80000E94941FF5CF54E05B1520F40E94960C0D
:104E900064E0F4CF81E00E946E0DEACFBB2079F090
:104EA000893341F48FEF97EEA3E081509040A0400A
:104EB000E1F7E0CEEFE3FCE93197F1F7DBCE812FAC
:104EC0008F7179CF0631BCE71B0701F580919C05F6
:104ED0008A7A91E009F490E09093F401811196CDE3
:104EE00089E20E94B3080E9488199CCC0631ECE745
:104EF0001E0709F48DCD0737FCE71F0709F49BCD8A
:104F000008372CE71207E9F482E096CD07373CE733
:104F1000130709F487CD82E008374CE7140709F43A
:104F200082CD0330BCE71B0709F4A4CD08F087CD80
:104F30000115FCE71F0709F490CD01301C4709F467
:104F40009FCDD70115968C9115970D911C918823B3
:104F500009F4A4CDC8010E949C0FD82E682FC80167
:104F60000E94220DB8018D2D0E946E0F0E945F0BD2
:104F70008C01882EF701C580B680B2944FE0B42230
:104F800080911A02877009F1AC2CCC20F9F0812FA6
:104F9000807F803469F080E2800F8830B0F0812F0C
:104FA000807E803229F4F1E0F01778F4BB2069F0BC
:104FB0008091A80582FF09C082E00E946E0D809159
:104FC0001A028770AA24A3948111A12C912E929485
:104FD0003FE093222BE0291508F4C1CDE92DF0E044
:104FE000E35AF94C0C948B35B0E0A0E0EAEFF7E21D
:104FF0000C943F3580911602807F09F051C080915A
:105000001502882309F44CC0E091FE0587E0D82EF4
:105010008091C5058E1709F443C00E2F10E0ED9D59
:10502000F0011124EA53FA4F84818823F1F1D09ED4
:10503000E001D19ED00D1124FE01EA53FA4F918177
:1050400080911102981331C09081809110029813C1
:105050002CC08581811129C0E280F38080911202E9
:1050600090911302E81AF90A60E080E192E00E9450
:10507000FB0F0E94CE10E816F906B8F480911602D4
:105080008F70806180931602C453DA4F88818F70CD
:105090008061888380E192E00E9433220E94A70C05
:1050A000CDB7DEB7E7E00C945B35F8013196E770D9
:1050B000AFCFA4E1B0E0EFE5F8E20C9437358C0116
:1050C00086E0F801DE011F9601900D928A95E1F7C6
:1050D000F801F480E58080E1882E82E0982E8091AE
:1050E000140281112AC0F11003C0FF24F3941CC0E4
:1050F000EE20F9F0C8010E94D80FF82E8823C9F0DD
:1051000087E0F801A0E1B2E001900D928A95E1F705
:1051100080911402813031F480911002909111023B
:105120000E94CB0F0E94F4278F2D6496EFE00C9421
:105130005335C8010E943322D8CFC280D380B090AB
:10514000150280911202909113023601681A790AB1
:10515000BB2009F4F9C05080A18060E080E192E0BA
:105160000E94FB0F0E94CE106816790608F0A5C0B9
:10517000FF2009F4BACF80911602382F307F20919A
:105180001102F8019181311158C0FE2C291314C06D
:1051900020911002908129130FC0E11047C08F7039
:1051A00080618093160280E192E00E943322809118
:1051B0001602F8018683B8CFE11038C06A2D852D1C
:1051C0000E94EF066A2D852D0E94EF06E82E8111C0
:1051D000ABCF5F86A88A8F8598890E94CB0F292F35
:1051E00022952F70243058F49F70223088F0992334
:1051F00099F0F8019681907F79F4FE2C95CF2A5F83
:105200002F70223068F0C8010E943322EB2CF5CFBA
:10521000992311F0882389F3805E883070F3F3CFEF
:10522000803F58F3815F833070F7E7CF809116029B
:10523000816080931602F12C77CF291315C020913D
:1052400010029081291310C0E1100EC08683C8019E
:105250000E94332287E0F801A0E1B2E001900D92B4
:105260008A95E1F7FB2C60CFC8010E94D80F8823F4
:1052700009F45FCFEE2009F45CCF809116028032F2
:1052800088F0209110023091110239872887DB863F
:10529000CA86909114029C871D868E87CE0108963F
:1052A0000E94332287E0F801A0E1B2E001900D9264
:1052B0008A95E1F70E94F42718CF80911602982F63
:1052C000907F51F480E192E00E94332287E0F40164
:1052D00011928A95E9F7AFCFFF2009F406CF20910C
:1052E0001102F8019181291311C0209110029081BF
:1052F00029130CC0E1100AC08683C8010E94332222
:1053000087E0F40111928A95E9F7ACCFC8010E94B9
:10531000D80F882309F40DCFEE2009F40ACF80912D
:105320001602803208F4BECF209110023091110293
:105330003A832983DC82CB82909114029D831E8262
:105340008F83CE010196ACCF60E080E192E00E94B5
:10535000FB0F0E94CE106816790608F0B7CFFF2029
:1053600009F4C3CEFE2CEE2009F4E3CE9091110295
:10537000F801818198132DC09091100280819813BB
:1053800028C08091120290911302C81AD90AF8EC31
:10539000CF16D104A8F49091160290FD11C0907F11
:1053A00079F080911602F8018683903F31F0982FB2
:1053B000907F905F8F70892B8683C8010E94332273
:1053C00087E0F801A0E1B2E001900D928A95E1F743
:1053D000ABCEC8010E94D80F811164CF8091160214
:1053E000816080931602C8010E9433229DCEA6E000
:1053F000B0E0EDEFF9E20C9442350E9400158C010B
:1054000080914602909147028017910781F019829E
:105410001A820E940015682F49815A81792F80E0F5
:1054200090E00E94AB1F109347020093460226961D
:10543000E4E00C945E351F921FB61F9211248F93E7
:105440009F93AF93BF938091A905811113C0809161
:10545000AA059091AB05A091AC05B091AD05419620
:10546000A11DB11D8093AA059093AB05A093AC0537
:10547000B093AD05BF91AF919F918F911F901FBECB
:105480001F901895CDB7DEB7E1970FB6F894DEBF41
:105490000FBECDBF85B7806885BF85B7806885BFE3
:1054A00084B7877F84BF0FB6F894A8958091600079
:1054B000886180936000109260000FBE80E890E0E9
:1054C0000FB6F89480936100909361000FBE87E35C
:1054D0009AE09093CB018093CA010E94120A0E9425
:1054E0000E070E94AF078091E20084608093E20083
:1054F00078948091BB058823A1F01091E9001F707A
:105500009091EC00892F817090FD80E8182B10920B
:10551000E9008091E80083FD0E944E1A1F701093ED
:10552000E90082E084BD93E095BD9AEF97BD80933A
:105530006E001092810210928202109283021092E9
:1055400084020E94ED0E811102C00E94AA10809177
:10555000D80080618093D8002AE12A95F1F700C035
:105560008091D900182F117080FD04C00E940E0791
:105570001092BB0510939F051093A005109338015E
:1055800011110E94BE33E1E8F5E088E0DF011D92D1
:105590008A95E9F78091380191E089278093A102EB
:1055A000809138019093A402809138018091380154
:1055B000811106C084EF80934A0185EF80934B01EF
:1055C00060E080E00E94CA0961E080E00E94CA09B0
:1055D000EFE8F1E03197F1F700C0000010E08091B2
:1055E000A402181708F4CAC08091380180913801CC
:1055F00095E0811190E09093900285E0891B809363
:105600008F0200E911E0D8018D918D018F3F11F0DB
:105610000E943D0AB1E005391B07A9F705E911E031
:10562000F80181918F018F3F11F00E943D0AF1E056
:105630000B391F07A9F78AE0EBEAF2E0DF01282F18
:105640001D922A95E9F7E5E8F2E0DF011D928A95BF
:10565000E9F790E080E00E94D635853E9E4F21F428
:105660000E94ED0E811163C065EE7EEF90E080E058
:105670000E940A3660E082E090E00E94EC3581E012
:105680008093910261E083E090E00E94EC3560E05D
:1056900074E184E090E00E940A3660E086E090E0E9
:1056A0000E94EC3560E087E090E00E94EC3540E03D
:1056B00050E0BA0188E090E00E94FE3560E083E2AD
:1056C00090E00E94EC3560E08CE090E00E94EC35C8
:1056D00060E08DE090E00E94EC3519821A821B8216
:1056E0001C821D821E821F82188648E050E067E1FE
:1056F00070E0CE0101960E94DC3540E050E0BA0136
:105700008FE190E00E94FE3580E00E946D0E0E94C5
:10571000AA1040E050E0BA018FE090E00E94FE3510
:1057200040E050E0BA0183E190E00E94FE3582E063
:1057300090E00E94CE358093920284E090E00E9437
:10574000D6359093A8058093A7050E94A617EFEF82
:10575000F6E721E0E150F0402040E1F700C0000012
:105760000E94A6178091AB0280FF1AC06FEF7FEFF7
:1057700090E080E00E940A360E946B0860E0812F72
:105780000E94AE09082F61E0812F0E94AE09E12F2F
:10579000F0E0EE55FD4F880F802B80831F5F1FCFF9
:1057A00083E090E00E94CE350E94910D80919F058C
:1057B000882309F4BBC083E08093750580FDB8C0E1
:1057C00080E8809353030E945C326BE070E08FEDC1
:1057D00091E00E94C6118823E9F18091750565E08A
:1057E00070E081FDA7C08AED91E00E94C611882378
:1057F00089F16DE070E088EC91E00E94C611882389
:1058000049F10E947C08605A75418F4F9F4F609309
:10581000790570937A0580937B0590937C05E5E785
:10582000F3E080E092E0DF019C011D9221503040C6
:10583000E1F7F0935203E09351038FEF9FEF9093C2
:1058400078058093770581E08093800580937D05BE
:105850001092760580919F05811102C00E94C1338C
:1058600089E391E09093A4058093A3058BEA92E0ED
:105870003AE0380F39AB8091BB05A0E4FA2E00E185
:1058800012E1853009F490C00E94A61703E912E0E6
:10589000FBEAEF2EF2E0FF2ED701F80191918D91F6
:1058A00022E0ED39F20709F489C09817B9F3509056
:1058B0009F05EBEACE2EE2E0DE2EB12C6624639447
:1058C000D601AD906D01F80171908F017A1429F124
:1058D000912C882483947A24872D8821B1F0552037
:1058E000A1F09BA6BCA60E9400159EA78DA76FA63F
:1058F00091E08A2D882109F490E098AB4BA55CA536
:105900006DA57EA58FA50E94AB1F9394880CF6E031
:105910009F12E2CFF8013197A082B3942AE0B2122D
:10592000CFCF0E94540ABB24B3944DC080E044CF33
:1059300080E247CF85ED91E058CF8091BB05843060
:1059400029F10E94D3111092A90588E190E00FB6C9
:10595000F894A895809360000FBEF092600083B722
:10596000817F846083BF83B7816083BF789488958B
:1059700083B78E7F83BF0FB6F894A895809160009F
:10598000886180936000109260000FBE8091BA051C
:10599000882351F00E94A617EBEAF2E08191811171
:1059A0000BC599A99E13FACF8091BB05853009F4E8
:1059B000C4CF0E941D1A0E94310966CF981377CF79
:1059C0000E94F729B12C80919F05811111C0C12C33
:1059D0008091A502882351F01092A5028091830541
:1059E000809384058091810580938205D12C6EC0BF
:1059F000C0909D05D0909E05C114D10421F40E9451
:105A00005420C82EE5CF80919D0290919E020E9465
:105A1000F1148C01C6010E94CE1080179107A0F4EA
:105A200080919D0590919E05992774E0880F991F9C
:105A30007A95E1F7FC01E053FD4F208122FD04C07F
:105A400085539D4F0E94F31980919F05882309F487
:105A5000BECFD5CF61E08D2D0E94AE09182F60E03A
:105A60008D2D0E94AE09E12FEE0F8E2B0D2D10E033
:105A7000D801AE55BD4FEC919E2F9370891729F137
:105A8000EE0FEE0FE82BEC938091A1028D0DEF70DD
:105A9000F0E0E556FE4F01561D4FA080D8019C91C5
:105AA000A90EAC92B1E060E0BA1524F0EFEFAE16AB
:105AB0001CF461E00E94ED098A2DAA0C990B62E0AA
:105AC00070E00E947735D8018C93D3948091A40222
:105AD000D81608F4BFCF80919F05882319F00E9443
