:020000040800F2
:1020000000040020392200083B2200083B2200087F
:102010003B2200083B2200083B2200083B2200082C
:102020003B2200083B2200083B2200081163000805
:102030003B2200083B2200083B220008E170000818
:102040003B2200083B2200083B2200083B220008FC
:102050003B2200083B2200083B2200083B220008EC
:102060003B2200083B2200083B2200083B220008DC
:102070003B2200083B2200083B2200083B220008CC
:102080003B2200083B2200083B2200083B220008BC
:10209000317100083B2200083B2200083B22000867
:1020A0003B2200083B2200083B2200083B2200089C
:1020B0003B2200083B2200083B2200083B2200088C
:1020C0003B2200083B2200083B2200083B2200087C
:1020D0003B2200083B2200083B2200083B2200086C
:1020E0003B2200083B2200083B2200083B2200085C
:1020F0003B2200083B2200083B2200083B2200084C
:102100003B2200083B2200083B2200083B2200083B
:102110003B2200083B2200083B2200083B2200082B
:102120003B2200083B2200083B2200083B2200081B
:102130003B2200083B2200083B2200083B2200080B
:102140003B2200083B2200083B2200083B220008FB
:102150003B2200083B2200083B2200083B220008EB
:1021600072B6264880F30888254880F309882548F8
:1021700025490860022080F31488BFF36F8F03F0B5
:102180003FFE03F0AEFA4FF0553020491B4A914212
:102190003CBF41F8040BFAE71D49194A91423CBF84
:1021A00041F8040BFAE71B491B4A1C4B9A423EBFFD
:1021B00051F8040B42F8040BF8E700201849194ABB
:1021C00091423CBF41F8040BFAE703F01DFE03F017
:1021D00018FE154C154DAC4203DA54F8041B884721
:1021E000F9E702F011F9124C124DAC4203DA54F83F
:1021F000041B8847F9E703F005BE00000004002037
:10220000000C00200020000808ED00E00000002085
:1022100000040020547B0008000C0020940E0020D5
:10222000980E00208017002060210008602100081F
:10223000602100086021000892E700F000F8FEE746
:102240002DE9F04FC1F80CD0C3689D46BDE8F08F72
:10225000002383F311882846A047002003F096FF4F
:10226000FEE703F0EFFE00DFFEE7000053B94AB9D6
:10227000002908BF00281CBF4FF0FF314FF0FF308E
:1022800000F074B9ADF1080C6DE904CE00F006F869
:10229000DDF804E0DDE9022304B070472DE9F047E2
:1022A0008C460446089E002B40F086808A421546E4
:1022B00048D9B2FA82F24AB1C2F1200701FA02F318
:1022C00020FA07F7954047EA030C94404FEA154E71
:1022D000BCFBFEF71FFA85F80EFB17C307FB08F9D6
:1022E000210C41EA0343994509D9EB1807F1FF3165
:1022F00080F0E180994540F2DE80023F2B44A3EB61
:102300000903B3FBFEF00EFB103300FB08F1A4B28F
:1023100044EA0344A14209D92C1900F1FF3380F0AB
:10232000C880A14240F2C58002382C4440EA0740F0
:102330000027641A1EB10023D440C6E90043394681
:10234000BDE8F087002A54D0B2FA82F2002A40F0A9
:10235000B4800127491B4FEA15481FFA85F9B1FBE4
:10236000F8FE08FB1E1109FB0EF04FEA144C4CEA74
:102370000143984207D9EB180EF1FF3102D298427F
:1023800000F2EB808E461B1AB3FBF8F008FB10330B
:1023900009FB00F9A4B244EA0344A14507D92C196A
:1023A00000F1FF3302D2A14500F2DB801846A4EB16
:1023B000090440EA0E40BDE78B4208D9002E75D0D3
:1023C0000027C6E9000138463946BDE8F087B3FA70
:1023D00083F77FB98B4202D3824200F2BC80841A19
:1023E00061EB030301209C46002EA8D0C6E9004CF7
:1023F000A5E7FFDEC7F12005BB4022FA05FC4CEA49
:10240000030C21FA05F44FEA1C4EB4FBFEF91FFA47
:102410008CF80EFB194420FA05F3B94009FB08FAC1
:1024200019430B0C43EA0444A24502FA07F200FAEE
:1024300007F30BD91CEB040409F1FF3080F089800D
:10244000A24540F28680A9F102096444A4EB0A0483
:10245000B4FBFEF00EFB104400FB08FA89B241EA1F
:102460000444A24508D91CEB040400F1FF316CD2EE
:10247000A2456AD90238644440EA0940A0FB0289B7
:10248000A4EB0A044C454146CE4655D352D0002E0B
:102490006AD05A1A64EB0E0404FA05F522FA07F31F
:1024A000FC401D43C6E90054002748E73746304644
:1024B00045E718463AE70F4621E79540C2F1200369
:1024C00021FA03F04FEA1548B0FBF8F71FFA85F937
:1024D00008FB170E24FA03FC914007FB09FA4CEAAB
:1024E0000101080C40EA0E40824504FA02F407D9C3
:1024F000281807F1FF332AD2824528D9023F284401
:10250000A0EB0A00B0FBF8FC08FB1C000CFB09F375
:1025100089B241EA00418B4208D969180CF1FF30B9
:1025200011D28B420FD9ACF1020C2944C91A4CEAE2
:10253000074714E74345AAD2B8EB020169EB0C0246
:1025400001389646A3E78446F0E7084694E71F461D
:10255000D6E781467AE7384646E7AEF1020E2B44CD
:1025600011E702382C4422E73746E8E6704700BFFF
:10257000032A70B412D940EA0105AD0704460B46A0
:1025800020D11946204653F8045B54F8046BAE4240
:1025900018D1043A032A20461946F2D8541E72B1C3
:1025A00003780A789A4208BF241806D00CE010F885
:1025B000013F11F8012F934206D1A042F7D100202C
:1025C00070BC7047541EEBE7981A70BC704700BF90
:1025D000844641EA000313F0030349D1403A23D370
:1025E0000B6803604B6843608B688360CB68C36093
:1025F0000B6903614B6943618B698361CB69C3617B
:102600000B6A03624B6A43628B6A8362CB6AC36262
:102610000B6B03634B6B43638B6B8363CB6BC3634A
:1026200040304031403ADBD230320BD30B6803608C
:102630004B6843608B688360CB68C3601030103197
:10264000103AF3D20C3205D351F8043B40F8043B66
:10265000043AF9D2043208D0D2071CBF11F8013B6A
:1026600000F8013B01D30B8803806046704700BF30
:10267000082A13D38B07B1D010F00303AED0C3F1F7
:102680000403D21ADB071CBF11F8013B00F8013B21
:10269000A4D331F8023B20F8023B9FE7043AD9D398
:1026A000013A11F8013B00F8013BF9D20B780370B5
:1026B0004B7843708B78837060467047F0B4860720
:1026C00046D0541E002A3CD0CAB2034602E014F1A0
:1026D000FF3436D303F8012B9D07F8D1032C29D9F9
:1026E000CDB245EA05250F2C45EA054533D9A4F1BD
:1026F0001006360903F1200707EB061703F1100255
:1027000042E9045542E902551032BA42F8D1721C2E
:1027100014F00C0F03EB021204F00F0613D0331F5A
:1027200023F003030433134442F8045B9342FBD1C8
:1027300006F003042CB1C9B21C4403F8011B9C42EF
:10274000FBD1F0BC704734461346002CF3D1F8E7B8
:1027500014460346C2E71A462646E0E710B5074C82
:10276000062220464FF4005104F070FC4FF4005351
:102770006361BDE8104001F058BA00BF001001408D
:1027800048B9072907D80F2A05D8044B02EB0112D4
:1027900033F8120070470120704700BFB876000878
:1027A000FFF7EEBF0120704708B5FFF7FBFF08BD3C
:1027B000012070470120704708B5FFF7FBFF08BDF7
:1027C000704708B5FFF7FCFF08BD000013B502AB6A
:1027D00003E903000F4B1B78B3B99DF8053000984F
:1027E00073B16AB100F086FD04460146009800F01E
:1027F00051FD2046009902B0BDE8104001F0CABB6F
:1028000000F062FD0446F4E7009800F073FD0099C3
:10281000F1E700BF9D0E0020034610B400885C88DD
:102820000A4640EA0440998810BCFFF7CFBF10B5B4
:1028300004460121FFF7F0FF2146FFF7B5FF10BD69
:1028400010B504460021FFF7E7FF2146FFF7B9FF67
:1028500010BD0120704708B5FFF7FBFF08BD10B59C
:10286000044600F023FC2046FFF7F5FFBDE81040CA
:1028700046F2A81003F08FBC08B50120FFF7EFFF68
:10288000BDE8084002F030BD08B50020FFF7E7FFC3
:10289000BDE8084002F02CBD38B501210546FFF720
:1028A000BBFF29460446FFF787FF08B9002038BD63
:1028B0002946204602F032FB0028F7D02946204660
:1028C00002F0EAF90028F1D02946204602F0BEF9CC
:1028D0000028EBD06B795BB147F603439C421DD0D7
:1028E0000AD8B4F5F84F16D047F601439C4217D0EA
:1028F0002846FFF75DFFDAE747F65B439C4215D0B9
:1029000047F65C439C420ED047F65A439C42EFD1B7
:1029100001F0C2F8ECE7FFF7AFFFC7E701F0C2F83C
:10292000FFF7B2FFC2E701F0ABF8E1E701F0B7F85B
:10293000DEE708B502F023FCBDE8084000F054B81B
:1029400008B500F056F8BDE8084002F01DBC0120B3
:1029500070470000C04380220B4BC0B210F0010F43
:1029600014BF1A615A614FF4807210F0020F14BF45
:102970001A615A614FF40072034B10F0040F14BF38
:102980001A615A61704700BF000C014038B5054616
:10299000FFF7DDFF044610B12846FFF7DBFF2046B6
:1029A00038BD000010B50D4C06228021204604F0F1
:1029B0004DFB8023062223614FF48071204604F0F2
:1029C00045FB4FF48073062223614FF400712046CB
:1029D00004F03CFB4FF40073236110BD000C014078
:1029E00008B5FFF7D3FF08BD08B50020FFF7F8FFD3
:1029F00008BD08B502F0E6FAFFF7F2FF08BD0000D7
:102A000010B502F0DFFA074B04461A78824207D06D
:102A1000187002F00BFC044B18602046FFF7E0FF33
:102A200010BD00BF9C0E0020980E00201FB56C4604
:102A300084E803009DF805300BB100F051FF00233E
:102A4000ADF80E3094E8030011F0FF0F0290ADF8DE
:102A50000C1002AC05D194E8030000F09BFE04B01A
:102A600010BD2046FFF7E3FE0028F4D1F7E7037915
:102A7000012B02D1008800F05FBC704710B50446FE
:102A800000286AD0822813D102F0A4FA810764D406
:102A9000392002F02DFB00F099FF4FF4FA5003F0BB
:102AA0007AFB392002F02CFBBDE8104000F08EBF0D
:102AB00083280ED102F08EFAC2074ED4532002F0C2
:102AC00017FB00F083FF42F2107003F064FB532009
:102AD000E8E784280ED102F07DFA43073DD4472071
:102AE00002F006FB00F072FF42F2107003F053FB9D
:102AF0004720D7E7031FDBB2A02B0BD802F0C0FAA8
:102B000020B1204602F0FCFA00F060FF204602F0FF
:102B1000EFFAC9E700F12003DBB2072B07D800F07A
:102B200007040120A040C0B200F0B4FEBCE700F1F1
:102B30005B03DBB2022B05D8BDE81040074AD05C2E
:102B400002F054BA5834E4B21A2C06D8044B33F8C5
:102B50001400BDE8104002F065BA10BDB877000857
:102B6000BC77000808B5034600284FD082280FD153
:102B700002F030FA810749D5392002F0B9FA00F0A5
:102B800025FF392002F0BCFABDE8084000F01EBF66
:102B900083280AD102F01EFAC20737D5532002F06B
:102BA000A7FA00F013FF5320ECE784280AD102F0C3
:102BB00011FA43072AD5472002F09AFA00F006FFDF
:102BC0004720DFE7021FD2B2A02ADBD900F12002A2
:102BD000D2B2072A07D800F0070301209840C0B2FC
:102BE00000F060FED0E700F15B02D2B2022A04D806
:102BF000BDE80840002002F0F9B95833DBB21A2BC7
:102C000004D8BDE80840002002F00CBA08BD00005E
:102C100070B50C460546FFF731FF84B140F2E7304E
:102C20000021084E4FF47A720023E6FB0401FFF7FF
:102C30001DFB03F0B0FA2846FFF794FF70BD01209A
:102C4000F7E700BFA086010008B539280CBF502166
:102C50000021FFF7DDFF08BD08B528B100F01AFE1E
:102C6000BDE8084000F0B2BE08BD08B528B100F0CC
:102C700019FEBDE8084000F0A9BE08BD2DE9F047E7
:102C8000867980460D46447900F0F4FD3609074602
:102C900008B32746FCB1C5F3072303F0F002402A2E
:102CA0000CD0E9B201F12002D2B2072A25D903F0F3
:102CB000E003202B02D101291FD906B3B14B5F7865
:102CC00017F0040707D0022000F0AAFE00F0D2FDA2
:102CD00080F00100C7B2C5F303330B2B43D8DFE804
:102CE00013F01000100063006300C30042004200B4
:102CF0004200D9003501450145010027EBE7374681
:102D0000E9E7C5F30723C5F3032613F0F00F18BF57
:102D100036015FFA85F994B166B109F12003DBB29F
:102D2000072B304602D9B9F1000F05D100F0B2FDF2
:102D300000F04CFE48465CE000F0C2FDF8E7484673
:102D4000FFF710FF7EB109F12003DBB2072B3046FD
:102D500002D9B9F1000F02D100F0A4FD01E000F0AA
:102D6000B7FD00F033FEC5F30335083D032D03D84E
:102D700002F028F9FFF734FE002F00F04F8100F039
:102D800071FD10F0010040F0498188F8050000F065
:102D900063FD00F015FA404600F056F900F05CFDC6
:102DA000BDE8F04700F018BAC5F3072303F0F003BD
:102DB000C5F30329202B5FFA85FA18BF4FEA0919DA
:102DC000BAF1000F07D0BAF1010F35D0002C3DD079
:102DD000E6B150460DE06B4B5B78590714D45CB1FB
:102DE000B9F1000F04D0484600F054FD00F0EEFDAC
:102DF0000020FFF743FEB6E72046FFF7B3FEB9F128
:102E0000000FB0D04846A7E754B11EB94846FFF7B7
:102E100023FFA8E7012EA6D1484600F081FDA2E7D6
:102E2000002EA0D14846FFF720FF484600F086FD5F
:102E3000484600F061FD96E714B1052E93D8E5E70A
:102E4000042E90D84846FFF710FF8CE7002EF9D0EB
:102E5000BAF1390F0CBF4FF4FA50012003F09BF97F
:102E60005046FFF77FFE7EE7C5F3812343B1012B78
:102E70007FF479AF64B1C5F3090002F0D3F872E7CB
:102E800024B1C5F3090002F0B1F86CE72046FAE777
:102E90002046F2E715F4407F28D1002C7FF463AF81
:102EA000EA0648BF0F24C5F342134FEA830344BF29
:102EB0009C40E44305F00F0000FA03F0C5F38123C2
:102EC00048BFA4B280B2022B40EA040008D00AD85E
:102ED000012B02D000F04CF945E700F041F942E740
:102EE00000F04EF93FE700F038F93CE7C5F3012266
:102EF000D3B204B302F00103002B3FF434AFC5F3A7
:102F00004210820015F010001EBF0F209040C043F9
:102F100005F00F0303FA02F3C5F3812218BF80B254
:102F20009BB2022A40EA03000AD00CD8012A04D03E
:102F300000F072F917E75B08DEE700F065F912E7C9
:102F400000F072F90FE700F029F90CE75FFA85F954
:102F5000C5F303261CB1304600F032F956E7484667
:102F6000FFF783FE304600F037F9FCE65FFA85F99B
:102F7000A9F1F003042B3CD8DFE803F00625111873
:102F8000210000BF341600203CB1042E3FF6EBAE0A
:102F9000C5F3042000F02CF9E5E6052EF6E7C5F3AD
:102FA0000420002CDFD100F00BF9DCE624B1C5F3DE
:102FB000042000F0FEF8D6E600F0F8F8D3E6184B4F
:102FC0005B785B0704D4C5F30420002CCBD0EAE780
:102FD0002CB10321C5F3042000F000FDC3E601205D
:102FE00000F01EFD012E7FF6BEAE022000F018FD9F
:102FF000B9E62CB1002E7FF49DAEC5F30420D2E7D4
:103000004EB1B9F1390F0CBF4FF4FA50012003F063
:10301000C2F8484625E7C5F30420A4E7BDE8F087D9
:103020003416002038B501880446407900F090F944
:10303000054600F001F900F08FF829462046BDE86A
:103040003840FFF71BBE0000037910B50446B3B14A
:10305000FFF722FC68B900F00DFC80B1637973B111
:10306000074B5B785B070AD5BDE81040022000F0F3
:10307000D7BC2046FFF7D6FF2046FFF7E1FB10BD87
:103080003416002008B5002001F0B0FF002001F048
:10309000C9FF00F025FCBDE8084000F097BC08B56A
:1030A00002F036F8BDE80840FFF7ECBF08B500F0C5
:1030B00001FCBDE80840FFF7F2BFC0F303320E3257
:1030C00002F00F02092A10B5C4B21BD8012101FA7F
:1030D00002F340F20332134203D113F010000DD17A
:1030E00010BDF02C10D004D8E72C8CBF002001209C
:1030F000F6E7F42C14BF00200120F1E7E72C03D9F8
:10310000F12CF7E70020EBE70846E9E708B503797B
:1031100033B1008800F010F9BDE80840FFF7CDBFDB
:10312000184608BD82B002AB03E9030002B0704745
:1031300082B002AB03E9030002B07047704708B5E4
:10314000FFF7FCFF08BD000008B5FFF7F8FF014BD3
:10315000188008BD9E0E00207047FFF7F5BF0000E5
:10316000024B1B881843FFF7EFBF00BF9E0E0020E5
:10317000024B1B881840FFF7E7BF00BF9E0E0020E0
:10318000024B1B885840FFF7DFBF00BF9E0E002098
:10319000704708B5FFF7FCFF08BD000008B5FFF752
:1031A000F8FF014B188008BDA00E00200020FFF79B
:1031B000F5BF012303FA00F080B2FFF7EFBF000074
:1031C000012303FA00F0034B1B88184380B2FFF77A
:1031D000E5BF00BFA00E0020012303FA00F0034B5F
:1031E0001B8823EA0000FFF7D9BF00BFA00E002014
:1031F000012303FA00F0034B1B88584080B2FFF70D
:10320000CDBF00BFA00E0020024B1B881843FFF764
:10321000C5BF00BFA00E0020024B1B881840FFF75F
:10322000BDBF00BFA00E0020024B1B885840FFF717
:10323000B5BF00BFA00E0020704730B5012401F0DB
:103240000703C90802EB810200219C40E4B2013A65
:1032500012F8015F20FA01F343F300036B402340AF
:1032600001316B4004291370F2D130BD002210B53A
:1032700000F00704C00801EB800110468B5CE340BE
:1032800003F00103934001321843042AC0B2F5D180
:1032900010BD000017B40C46C0F307210729ADF894
:1032A00004000BD89DF804300F2B07D82046054AA0
:1032B00003EB011103B010BCFFF7BFBF03B010BC9C
:1032C000704700BFA20E002082B0ADF80400C0F32A
:1032D0000720072809D89DF804300F2B05D804498A
:1032E00003EB001002B0FFF7C1BF002002B070472F
:1032F000A20E002073B50F240D4BADF804001E88FC
:103300000C4B1B881E4346FA04F3DB07E5B206D4D8
:1033100014F1FF34F7D20025284602B070BD0199A0
:10332000284600F048FE80B20128F1D0F4E700BF43
:10333000A00E00209E0E002007B5ADF804000198F5
:10334000FFF7D8FF019903B05DF804EB00F033BE3E
:1033500013B5104BADF804101B782BB1019802B0D7
:10336000BDE81040FFF7E8BF70B10198FFF7C2FF5A
:10337000044601460198FFF78DFF2046019902B0EF
:10338000BDE8104000F017BE0198FFF79DFF04460E
:10339000F3E700BF9D0E0020F8B50C4B0C4E1C78D7
:1033A0000C4D3378A34200D1F8BD05EBC40335F8CA
:1033B00034005F889A88D98840EA074042EA014190
:1033C0000134FFF7B5FE04F00704EAE72B0F0020F5
:1033D0002A0F0020EA0E0020064B10B418885C88E3
:1033E0009A88D98840EA044042EA014110BCFFF7BC
:1033F0009FBE00BFE20E0020F8B51A4B9A7912F07A
:10340000F00F0AD15A7942B1174A184912780D784B
:103410001E885F88164CAA4200D1F8BD04EBC20199
:103420000879D0B134F83200B04216D14879A0B949
:103430004888C01B80B2C7280FD80122987962F350
:10344000071098718B79074862F307138B71FFF7A8
:10345000FBFDBDE8F840FFF79FBF013202F0070215
:10346000D9E700BFE20E00202B0F00202A0F00201A
:10347000EA0E002070B50D4B0D4A1B7815780D4CE7
:10348000AB4202D10022104670BD04EBC302567855
:103490008E4206D114F83360864202D15279002A56
:1034A000F1D1013303F00703EAE700BF2B0F00203F
:1034B0002A0F0020EA0E00202DE9F04F89B002AB60
:1034C0000446014606221846FFF782F8B04D03462F
:1034D000297922796779A846C1B9AAB18FB1204666
:1034E000FFF714FE064660B1082221462846FFF782
:1034F0006FF82846FFF7BBFAFFF77EFFFFF76CFF78
:1035000065E02046FFF7A0FD012660E0B4F802A0C8
:1035100068886E79AAEB000094F800B094F80190E6
:1035200080B2002E00F0E780C72800F29780002AC2
:103530004DD0AB792A8813F0F00F208858D19042F3
:103540000ED1002F4DD1012262F30713AB71FFF7AB
:1035500043FF2846FFF778FDAB79A371002636E0DC
:10356000002F3ED149465846FFF784FF5846FFF7E3
:1035700081FF05460028F1D18DF808B08DF809903B
:103580000298FFF7D9FEC0F303310B2912D80122AC
:103590008A4012F4406FC3B21DD112F00C0F0ED14D
:1035A000910707D010F4706F00D07BB12033DBB2ED
:1035B000072B0BD92046FFF747FD354606E010F4F0
:1035C000706FF3D0A27912F0F00FEFD12E46304693
:1035D00009B0BDE8F08FEF2BF8D90F33DBB2022B27
:1035E000E7E798F8063043F0010388F80630B5E7BE
:1035F00090420AD14FB92046A371FFF725FD08225A
:1036000021462846FEF7E4FF78E72046FFF77EFDD7
:1036100000283FF476AF002F3FF473AF98F80630E0
:103620001F2B11D9B8F80020ADF812A0ADF810206A
:1036300098F804208DF816308DF81420002204A884
:103640008DF81520FFF700FD082221465048FEF7AF
:10365000BFFFFFF7D1FEFFF7BFFE55E7A87910F0D7
:10366000F001019118D18DF80C208DF808B08DF87B
:103670000990ADF80AA08DF80D7093E80300FFF7EC
:1036800051FD2846FFF7E0FC082201992846FFF784
:1036900015F8FFF7A1FE61E7002A98D02A88238851
:1036A0009A420AD14FB9A0712046FFF7CDFC0822FB
:1036B00039462846FFF702F889E72046FFF726FD3E
:1036C00000283FF41EAF002F3FF41BAF98F80630E0
:1036D0001F2BB9D9B8F80020ADF81AA0ADF8182002
:1036E00098F804208DF81E308DF81C20002206A8C2
:1036F0008DF81D20A6E7C72835D8002A3FF404AF6F
:103700003E46002F3FF4FDAE2A8823889A421CD102
:10371000AB79DA0713D413F0F00210D0F02AA371BA
:1037200006D0DBB2C3F30312013262F30713A371B5
:103730002046FFF789FC08222146154862E7082247
:1037400021461348FEF744FF41E72046FFF7DEFC21
:1037500000287FF479AFAB79204643F00103AB71C9
:10376000FFF772FC33E78DF80C208DF808B08DF868
:103770000990ADF80AA08DF80D7093E80300FFF7EB
:10378000D1FC082231462846FEF798FFB6E600BF76
:10379000E20E0020F0B585B06C4684E803002046B8
:1037A000FFF78AFE284E0746284D68B19DF8043081
:1037B0001BB194E80300FFF7BBFC254C2878337855
:1037C000834226D105B0F0BD9DF8042002AB94E8F9
:1037D000030083E80300002AEFD030782A78441CE5
:1037E00004F0070494420AD01946194B082203EB4F
:1037F000C000FEF7EDFE3470FFF7CEFDDDE7FFF70A
:1038000055FC08223946134837702F70FEF756FFD3
:10381000D3E704EBC000FFF74FFE0028D2D02B788F
:1038200034F8330004EBC3035F889A88D98840EAF0
:10383000074042EA0141FFF77BFC2B78013303F09C
:1038400007032B70BAE700BF2A0F00202B0F0020C0
:10385000EA0E0020E20E0020014B1878C0087047E5
:103860003C0F0020024B187800F00700704700BFA3
:103870003C0F0020034B187810F0070018BF012000
:10388000704700BF3C0F0020014B1878704700BF05
:103890003F0F0020024A137818431070704700BF92
:1038A0003F0F0020024A137823EA0000107070478F
:1038B0003F0F00200022014B1A7070473F0F00207D
:1038C000024A137818431070704700BF400F002061
:1038D000024A137823EA000010707047400F00205E
:1038E0000022014B1A707047400F0020704708B546
:1038F000FFF7FCFF08BD000008B5054A1378034236
:1039000004D023EA00001070FFF7F1FF08BD00BFEC
:103910003D0F0020704708B5FFF7FCFF08BD000011
:1039200008B5054A137830EA030C03D0034313703B
:10393000FFF7F1FF08BD00BF3E0F002008B5054AA4
:103940001378034204D023EA00001070FFF7E3FF6E
:1039500008BD00BF3E0F002008B5044B1A781AB10D
:1039600000201870FFF7D7FF08BD00BF3E0F0020F2
:1039700070B5114A114D1478114A2E68127814430B
:10398000104A12782AB1144301F068FB08B1FFF71E
:10399000E3FF34702C6808220B492046FEF7E8FD4F
:1039A00048B1214608220848FEF712FE2046BDE82D
:1039B000704001F013BB70BD3F0F0020000C0020D1
:1039C000400F00203E0F0020340F0020FFF7D0BF33
:1039D000704708B5FFF7FCFF08BD0000094A10B5A5
:1039E000527852070AD5084C41EAC0012170FFF70E
:1039F000E7FB2078C008FFF7ECFF10BDBDE81040E2
:103A0000FFF7DEBB341600203C0F0020002008B575
:103A1000024B1870FFF7DDFF08BD00BF3C0F002010
:103A200008B50A4A137823EA0000107042070CD147
:103A300098420AD0064B5B785B0706D5C008FFF7B3
:103A4000CBFBBDE80840FFF7E1BF08BD3C0F0020FD
:103A500034160020094A08B55378C3F38001814227
:103A60000AD060F382035370108800F039F8BDE883
:103A700008400220FFF7D4BF08BD00BF3416002065
:103A8000044B5878C0F3800080F0010000F0010082
:103A9000FFF7E0BF341600200120FFF7DBBF002056
:103AA000FFF7D8BF08B5002000F058FDBDE808407A
:103AB0004FF6FF71002000F033BD08B5002000F084
:103AC000C8FC4FF6E563C31A5842584108BD0220AE
:103AD00000F0B0BC032000F0ADBC042000F0B9BC85
:103AE0000146042000F01CBD01460F2000F026BD59
:103AF0000146132000F022BD0020FFF7F9BF08B5F2
:103B00000020FFF7F1FFFFF7F7FF08BD07B5002022
:103B100000F024FD4FF6E561002000F001FD0021DA
:103B2000022000F0EFFC0121194B0320198000F066
:103B3000E9FC4FF4A051042000F0F2FC0021062023
:103B400000F0E0FC0021072000F0DCFC0021082050
:103B500000F0F4FC0021232000F0D4FC00210C2014
:103B600000F0D0FC00210D2000F0CCFC002300224E
:103B70006846CDE900231721082200F0A9FC0021A6
:103B80001F2000F0DBFCFFF7BAFF03B05DF804FB79
:103B90009E0E0020FFF7BABF01460E2000F0B2BC17
:103BA00073B501F07DFB0B4C0546238883420ED094
:103BB0000026ADF8006001F073FBADF80460ADF8CD
:103BC000020002AB13E90300FEF730FF258002B0CC
:103BD00070BD00BF4C0F00202DE9F04100240646C7
:103BE0000F4625464FF00108E2B231460020FEF7AD
:103BF000D7FD38B147FA04F3DB0742BF08FA04F3F4
:103C00001D43ADB20134102CEED12846BDE8F08141
:103C100008B501F00BFB024B1860024B186008BDA1
:103C2000440F0020480F002070477047704708B5C8
:103C3000FFF7FCFF08BD01207047000008B50548EC
:103C400000F0B2FA00F088FCFFF7EEFFFEF786FD09
:103C500008BD00BFA14100080120704708B5FFF76B
:103C6000FBFF08BD7047704708B5FFF7FBFFFFF784
:103C7000FAFF08BD08B5FFF720FF08B9FFF78AFF74
:103C8000FFF725FF084B1870FFF727FF074B188039
:103C9000FFF720FF80B2FFF760FA054B1888BDE8F8
:103CA0000840FFF776BA00BF5E0F002034160020F0
:103CB000A00E002008B501F0B7FA00F029FBFFF7CD
:103CC000D9FFFEF76FFEFFF7B2FF08BD2DE9F04FF9
:103CD00085B0FFF7B0FF30B9FFF762FF05B0BDE870
:103CE000F04FFEF78DBE3C4F00F02CFB3E4600240B
:103CF000E0B236F8025B00F067FA072C55D0854237
:103D000004F10104F4D0354B1B789B0701D500F07A
:103D100061FAFFF7A3FF00264FF0010B00905FFA56
:103D200086F8404600F050FA37F8029B05464845B1
:103D30004CD001464046FFF74FFF431E03401BB2E5
:103D400004463BB100235FFA83FAC24530D1013308
:103D5000082BF8D100244FF0010A85EA09091AEA74
:103D6000090F17D0009BABB18DF808408DF8098082
:103D700001F096FA15EA0A0F14BF01210021ADF8EF
:103D80000A008DF80CB08DF80D1002AB93E803001B
:103D9000FEF74CFE0134E4B24FEA4A03102C1FFA3E
:103DA00083FADCD127F8025C10E08542ABD193E7BF
:103DB0005046019300F008FA01465046FFF70CFF09
:103DC000204080B2421E0242019BC0D00136082E24
:103DD000A5D1FFF71DFF81E74E0F00205E0F0020E9
:103DE00038B500F0F3F8B0F5A04F044622D2B0F594
:103DF000804F77D2DF2812D8CD2861D2A7280AD8E1
:103E0000A5284ED2012804D003B233B1032898BFAD
:103E10000024204638BDC2284AD90024F9E7B0F56D
:103E2000005F80F0A280B0F5807F4DD2E82828BFE7
:103E30000024EEE745F25F23984216D845F240236E
:103E400098425FD245F21F23984254D8B0F5A44F50
:103E50007CD30123C4B2A00804F0030403FA04F4E1
:103E600044EA401444F40D442CE045F29F23984268
:103E700007D8B0F5A54F52D300F01F044AF2F40062
:103E80003DE045F2BF23984256D945F2DF239842E0
:103E9000C3D8040204F4F85444F4204444F0F00479
:103EA000B7E75B34394BE4B21C5D44F48044B0E7BF
:103EB0005834374BE4B233F8144044F48844A8E74C
:103EC00040F4A044A4B2A4E7C0F3072000F006F930
:103ED0000546E0B200F07AF82D0205F4F8552843C3
:103EE00084B296E7C0B200F071F804F47064044341
:103EF00044F42044E6E700F01F044AF2F10040EAEF
:103F0000042486E70123C4B2C4F3820004F003044E
:103F100003FA04F444EA401444F40C44D2E70123C5
:103F2000C4B2C4F3820004F0030403FA04F444EAC4
:103F3000401444F40A44C5E700F01F0000F0CEF836
:103F4000040204F4F85444F4005462E700F01F0043
:103F500000F0C4F8C306C4F3431448BF00012402B0
:103F600000B2044344F41044ACE7C0F3042000F072
:103F7000B5F80546E0B200F029F82D0205F4F85531
:103F800045EA000444F400549CE700BFF2770008BF
:103F9000F677000882B0ADF80410C1F307210729B5
:103FA00006D89DF804200F2A02D802B0FEF7F8BB0D
:103FB000002002B0704707B5ADF804100199FFF773
:103FC000E9FF03B05DF804EBFFF70ABF822825D0B4
:103FD0000CD8312867D004D829285AD02A2869D08B
:103FE0007047352850D0392818D07047E32833D08F
:103FF00004D8E0281CD0E22829D07047E62835D024
:10400000E72838D0E42835D1334B5A78910731D599
:104010001B7813F0100F08BFE72015E02E4B1A781D
:10402000920752D15B7813F0080F18BF2920704710
:10403000294A1378D90744D4527812F0010F19D0C5
:1040400013F0100F08BFE32018BF00207047224B69
:104050001B7813F0040FF2E71F4A1378590732D484
:104060005278D20731D413F0100FEDE71A4B1B78BA
:104070001A07CED47047184A1378190727D45278F4
:104080009107F0D5E4207047134B1B7813F0200FF5
:10409000CBE7114B1A7892061BD45B7813F0080F0C
:1040A00018BF392070470C4B1B7813F0400F18BF16
:1040B0002A207047084B1B7813F0400F18BF31209F
:1040C000704739207047E2207047E0207047E620B3
:1040D00070473520CEE700BF3416002010B52F4CB6
:1040E00021784B0713D500F01402A2F1040C00F064
:1040F0001803DCF1000242EB0C02A3F1080CDCF126
:10410000000343EB0C039A4218BF80F00C000B072E
:1041100013D500F01402A2F1140C00F01803DCF126
:10412000000242EB0C02A3F1180CDCF1000343EB9C
:104130000C039A4218BF80F00C006478E30713D593
:1041400000F0110202F1FF3C00F01803DCF1000264
:1041500042EB0C02A3F1080CDCF1000343EB0C036F
:104160009A4218BF80F00900A30711D500F0110290
:1041700000F01803A2F111046242A3F1180C62418D
:10418000DCF1000343EB0C039A4218BF80F00900F6
:10419000CB0648BF00F0E70010BD00BF341600207A
:1041A0000020704700207047014B1860704700BF27
:1041B000040C0020704708B5FFF7FCFF08BD7047EE
:1041C00008B5FFF7FCFF08BD014B33F8100070473E
:1041D0004616002070474FF4076001F057BE00BF3D
:1041E00000BF00BF00BF00BF00BF00BF00BF00BFD7
:1041F00000BF00BF00BF00BF00BF00BF00BF00BFC7
:1042000000BF704708B5FFF7E6FF08BD08B53023CB
:1042100083F31188012100F00F039940032220F05D
:104220000F0002F013FF002383F3118808BD000084
:1042300038B508240B4D55F8040B421C01D0FFF78C
:10424000E5FF013C14F0FF04F5D11024064D55F8AC
:10425000040B431C01D0FFF7D9FF013C14F0FF040D
:10426000F5D138BD6C7800082C7800082DE9F843AA
:10427000254F0D4657F8211006464B1C3FD03023E2
:1042800083F311884FF0010821F00F0901F00F01AD
:1042900008FA01F421460622484602F0D7FEC9F882
:1042A0001440002484F31188FFF799FF102342463D
:1042B000164850F8041BB1F1FF3F22D021F00F0C3B
:1042C000DCF808C001F00F012CFA01F1C90718D47D
:1042D00011B2013B0C43520013F0FF03A4B292B29F
:1042E000E7D157F82500431C01D0FFF78FFF211CB1
:1042F00018BF01212846FFF785FF26F81540BDE8C5
:10430000F8830021E5E700BF6C7800082C780008EE
:1043100010B51024FFF78CFF224600210748FEF756
:10432000CDF9224600210648FEF7C8F9082000F022
:1043300037F8BDE81040FFF73EBF00BF461600202B
:10434000361600201FB5102200216846FEF7B6F988
:104350000024E1B268460134FFF788FF082CF8D149
:10436000102269460C48FEF703F9002814BF012407
:10437000002404D0102269460748FEF729F9234695
:1043800008220649044800F00DF80446FFF718FF1C
:10439000204604B010BD00BF36160020461600208F
:1043A000704700002DE9F8438146884615461C46B3
:1043B000124E43B10123337000F038FF104B1860E8
:1043C0000020BDE8F8833778002FF9D00C4B18682F
:1043D00000F072FF0428F3D96D002A464946404692
:1043E000FEF7C6F828B12A4649464046FEF7F0F8DF
:1043F0003C46002320463370E3E700BF5F0F0020F8
:10440000600F0020FFF762BC08B500F0D3FE01F09A
:1044100076F9FFF713FC01F075F9FFF74BFC01F09B
:1044200087F901F08BF9FFF7EDFF01F0A1F9FFF734
:104430001BFCF6E7002307B5014601220DF107003A
:104440008DF8073000F08CF89DF8070003B05DF898
:1044500004FB002307B5014602220DF10600ADF86A
:10446000063000F07DF8BDF8060003B05DF804FBEF
:1044700007B50422002301460DEB0200019300F072
:104480006FF8019803B05DF804FB07B501228DF8C1
:10449000071001460DF1070000F067F803B05DF862
:1044A00004FB07B50222ADF8061001460DF1060027
:1044B00000F05BF803B05DF804FB07B5042201913E
:1044C00001460DEB020000F050F803B05DF804FB6C
:1044D000F8B505461446D31D23F0070300AFADEB36
:1044E000030D68460E4600F03BF822466946284612
:1044F000FEF73EF820B122463146284600F035F856
:10450000BD46F8BD38B50C460546FFF793FFA042FF
:1045100005D021462846BDE83840FFF7B6BF38BD74
:1045200038B50C460546FFF794FFA04205D021465A
:104530002846BDE83840FFF7B4BF38BD38B50C4653
:104540000546FFF795FFA04205D021462846BDE865
:104550003840FFF7B2BF38BD00F0A6B900F03CB854
:104560000B460146184600F051B80B460146184666
:1045700000F0DEB808B5064B4FF480620021184603
:10458000FEF79CF84FF48162C0F8002408BD00BF1C
:10459000640F002010B5064C94F8043433B900F0D1
:1045A00045FA10B1012084F8040410BD0220FCE794
:1045B000640F002010B5074C94F804343BB100F0B0
:1045C00083FA18B10023012084F8043410BD0220BE
:1045D000FCE700BF640F002038B5FFF7DBFF04469F
:1045E00018B9FFF7E7FF204638BD00F02BFA054663
:1045F000FFF7C0FF012C06D1FFF7DCFF00280CBF3E
:10460000002505F001052C46EDE7000008B503463E
:1046100008469918B1F5806F05D804491944FDF78B
:10462000D7FF012008BD0020FCE700BF640F002079
:10463000F8B506460F4615460024AC4201D10120CC
:10464000F8BD60003918304400F098FA0028F7D01F
:104650000134F2E7F8B506460F4615460024AC4291
:1046600001D10120F8BD37F8141006EB440000F02A
:104670000BFA0028F6D00134F1E70000000000003A
:1046800037B5FFF787FF4FF4007205461249002047
:10469000FFF7E0FFD0B10EA3D3E900234FF4806110
:1046A0000D4800F095FA0422CDE9000169464FF467
:1046B0008060FFF7CFFF002814BF02240024012DE3
:1046C00001D1FFF777FF204603B030BD0446F6E77F
:1046D00025232284E49CF2CB640F002010B5094C02
:1046E000D4F80034B3F5006F09D300F0ABF928B16A
:1046F000FFF7C6FF4FF48163C4F8003410BD0120FA
:10470000FCE700BF640F002010B5084C0146D4F848
:10471000000400F0B9F940B1D4F800340233C4F811
:104720000034BDE81040FFF7D9BF10BD640F002072
:104730002DE9F04F8B468118B1F5806F85B00746A3
:10474000154604D90024204605B0BDE8F08F554C2D
:10475000044421465846FDF70BFF002800F09F80D7
:104760002A4659462046FDF733FFFFF713FF019015
:1047700030B14FF0000835B9FFF7B0FF044684E0D0
:10478000FFF718FFDEE7012D9BF8001023D9FB0788
:1047900021D4B7F5804F1ED29BF8012041EA0222B6
:1047A000012A18D8002A14BF6FF05F026FF07F0251
:1047B00042EA572262F307097A0862F30F291FFAC7
:1047C00089F0FFF7A1FF012804465AD1023D0237C4
:1047D0000BF1020BCFE73F2F11D847F0400262F3F5
:1047E000070A61F30F2A1FFA8AF0FFF78DFF0128ED
:1047F000044646D1013D01370BF1010BBBE7052D06
:104800002E4628BF0526C7F3024242EAC6028DF8AB
:1048100008203A0AADF80A808DF80920ADF80C801E
:104820005A46ADF80E808DF80A700DF10B01B344B5
:1048300012F8010B5A4501F8010BF9D1BDF8080037
:10484000FFF762FF012804461BD1BDF80A00FFF7FD
:104850005BFF0128044614D1012D0BD8032D06D986
:10486000BDF80E00FFF750FF0128044609D1AD1B2B
:10487000374480E7BDF80C00FFF746FF01280446E7
:10488000ECD014B1022C18BF0024019B012B7FF443
:104890005AAFFFF78FFE00283FF454AF53E70124CF
:1048A00051E700BF640F00202DE9F04385B0FFF70A
:1048B00061FE00F011F928B9FFF75CFE002005B099
:1048C000BDE8F0834FF4007257490020FFF7B0FEB7
:1048D000554D10B9FFF74EFEEEE751A3D3E9002383
:1048E0004FF48061284600F073F90F460646042213
:1048F00002A94FF48060FFF79BFEDDE902239F428F
:1049000008BF964201D0FFF735FE4FF481660DF1E6
:104910000601304600F032F900286AD0BDF80630B2
:10492000002B65D0DAB29109012906F10204ADF835
:10493000083047D029B102294AD000205AE0264643
:10494000E5E70DF10A01204600F018F90028F4D03F
:104950009DF809309DF80A209DF8088043EA02235B
:104960004FEA08475BBA9BB207F4E0274FEAD80842
:104970001F4308F0070907EB0903B3F5806F06F141
:104980000404DAD818F0060F06D003A9204600F078
:10499000F5F80028D1D0B41D18F0040F07D00DF1A0
:1049A0000E01204600F0EAF80028C6D002344A463C
:1049B0000DF10B01E819FDF70BFEB4F5006FBED346
:1049C000012017E002F03F02C3F30723AB54F4E7E2
:1049D000510201F478511B0A41EA4303591CB1F515
:1049E000806FAAD2C2F34012EA5400236B54E4E76A
:1049F00001203446C5F8004470B900F023F80028BF
:104A00003FF45AAFFFF73CFE4FF48163C5F8003422
:104A100000287FF454AF4FE7FFF760FEF8E700BFD0
:104A200025232284E49CF2CB640F002008B50021EA
:104A3000034801F0FDFDB0FA80F0400908BD00BF59
:104A4000D8160020F8B5002501240C4F0C4E3B6809
:104A5000AB4201D82046F8BD30680A4B196803689C
:104A600029445B6998470128306888BF002401F019
:104A700081FD012888BF00240135E8E7100C0020E3
:104A8000701300200C0C002013B50C4A0B46ADF837
:104A9000061011680A4A0144127812B1DB43ADF8DE
:104AA0000630084B022218680368DC680DF1060323
:104AB000A047B0FA80F0400902B010BD080C0020F9
:104AC000741300207013002008B5024801F0BEFDE9
:104AD000012008BDD81600202DE9F8431E4B1F4CBD
:104AE0002360FFF7F1FF206803685B6898471C4B61
:104AF00005461A681B4B03EA822903781A4A03F019
:104B000001031370836813B9184801F0B1F9002646
:104B1000B046AD68164FB5421BD9691E891B206887
:104B2000396001F049FD484502D33D680136F2E79E
:104B30003968206801F04DFD8044B8F5006FF5D369
:104B400039680C4B6D1A20681D6001F035FD0A4B69
:104B500018600120BDE8F883D816002070130020EB
:104B6000E0F7FF1F00FCFF03741300208C7800089F
:104B70000C0C0020100C0020080C002038B50F4B46
:104B80000C4619680E4B0144186801F02FFD0123F3
:104B900002880C480C4D037000230C492D780B70D3
:104BA0000DB1D24392B20370087818B100200B7097
:104BB000238038BD22800120FBE700BF080C0020C5
:104BC0007013002075130020741300206C13002054
:104BD000F0B50144884202D310461946F0BD0027C3
:104BE00010F8014B4FEA031C624094184FEA021E72
:104BF00043EB03054CEA127C14EB0E0445EB0C0569
:104C00004FEA421EA4184FEA431C43EB05054CEA49
:104C1000D26C14EB0E0445EB0C054FEAC21E4FEAB2
:104C2000C31C4CEA526C14EB0E044FEA022645EB0F
:104C30000C054FEA032C4CEA126CA41945EB0C034B
:104C40003A19B64646EB0303C4E7000047F616439D
:104C5000984210B50C461BD1FEF716FE62790D4B3B
:104C600072B100F0AA00002815BF012200223520F1
:104C700029201A7000F03CFAFEF7A8FE002010BDB3
:104C80001B78002B14BF3520292000F039FAF3E7F8
:104C90000120F4E77613002038B50546487900284E
:104CA00000F0DC80A5F5E045ABB2222B00F2BB8022
:104CB000FEF713FF6A4C013D2080212D12D8DFE85A
:104CC00005F04DBD551B1F59235D692FB5336D3759
:104CD00071973B759F417B8327612B65477F8EA929
:104CE000B31651C5237843F00103237095E0637830
:104CF00043F00803637090E0237843F00203F4E785
:104D0000237843F00403F0E7237843F00803ECE74B
:104D1000637843F00103EDE7637843F00203E9E7CA
:104D2000237843F01003E0E7237843F02003DCE727
:104D3000237843F04003D8E7FEF7B8F9237843F02F
:104D40008003D2E7237823F00C0343F00C03CCE775
:104D5000637823F0030343F00303CBE723786FF377
:104D60000003C2E763786FF3C303C3E723786FF3ED
:104D70004103BAE723786FF38203B6E723786FF332
:104D8000C303B2E763786FF30003B3E763786FF3AD
:104D90004103AFE723786FF30413A6E723786FF39B
:104DA0004513A2E723786FF386139EE7FEF77EF99B
:104DB00023786FF3C71398E7237823F00C0394E765
:104DC000637823F0030395E72378C3F3800282F02E
:104DD0000102D2B262F3820362F3C30385E7637810
:104DE000DA4302F0010262F3000362F3410381E758
:104DF0002378C3F3801282F0010262F3861374E712
:104E0000FEF754F92378C3F3C01282F0010262F373
:104E1000C7136AE70120FEF7BFFE2088FEF760FE99
:104E2000FEF744F9002038BD0020F4E72378C3F3EF
:104E3000001282F0010262F3041356E72378C3F3F1
:104E4000000282F0010262F300034EE76378C3F3CD
:104E5000C00282F0010262F3C3034BE70120E2E7E4
:104E600034160020F8B5144642791D469DF8187096
:104E7000284B92B11C7000F013FA274B188004F1F4
:104E80002003DBB2072B44D8012004F00704A04024
:104E9000C0B2BDE8F840FDF7DFBE1E78A6422ED1B5
:104EA0001D4B188800F001FAC72828D8AE4205F13A
:104EB000200415D006F12003DBB2072B06D8012011
:104EC00006F00706B040C0B2FDF7CFFEE3B2072BF5
:104ED00006D8012005F007039840C0B2FDF7BCFEDC
:104EE0003846E4B2FDF7B0FE072C12D8012005F0D9
:104EF0000705A840C0B2BDE8F840FDF7B6BE04F112
:104F00002003DBB2072B04D8012004F00704A040E3
:104F1000F0E7F8BD771300207813002013B5A0F553
:104F2000F84018380C4606283BD8DFE800F0171E7A
:104F30000410252C330026230093E12347F61A4161
:104F40001A462046FFF78EFF002002B010BD27232F
:104F50000093E52347F61B411A46F2E72623E02299
:104F6000009347F61841E123EBE72723E42200935F
:104F700047F61941E523E4E72623E222009347F6AA
:104F80001C41E123DDE72723E622009347F61D417C
:104F9000E523D6E72823E522009347F61E410123A7
:104FA000CFE7487918B10022024B1A70CDE70120F3
:104FB000CBE700BF77130020014B1860704700BF9C
:104FC0007C130020024B186808B10368184770472B
:104FD0007C13002008B5FFF7F5FF08BD024B1B68E6
:104FE0000BB15B68184770477C1300200B4B07B56B
:104FF0001A8882420ED01880094B1B6853B10322D5
:105000008DF80500000A8DF806008DF804201B6954
:1050100001A8984703B05DF804FB00BF821300208D
:105020007C1300200B4B07B51A8882420FD01880E2
:10503000094B1B685BB104228DF80500000A8DF84E
:1050400006008DF804201B690DEB0200984703B0A1
:105050005DF804FB801300207C1300200020074B28
:105060001B689A1C08339A4200D1704712F8011B42
:105070000029F8D00130C0B2F5E700BF000C0020D5
:1050800060B1074B1B689A1C083312F8011B814260
:1050900003D09A42F9D1002070470120704700BF29
:1050A000000C00204FF0FF33002230B5851C15F8AE
:1050B000014B8C420ED0B3F1FF3F02D1002C08BF50
:1050C00013460132D4B2062C62B2F0D15A1C01D080
:1050D0001844817030BD002210B5831C083013F8CD
:1050E000014B8C4208BF03F8012C8342F7D110BD5D
:1050F000024B01461868FFF7D5BF00BF000C002027
:10510000024B01461868FFF7E6BF00BF000C002005
:10511000034B0622186800210230FDF7CFBA00BF0A
:10512000000C0020704708B5FFF7FCFF08BD000029
:10513000002814BF0220012008B5024B1870FFF7A9
:10514000F2FF08BD84130020032008B5024B18703D
:10515000FFF7E9FF08BD00BF84130020FFF7E8BF99
:10516000012008B5024B1870FFF7DDFF08BD00BF36
:1051700084130020FFF7F4BF70477047704708B5ED
:10518000FFF7FCFF08BD704708B5FFF7FCFF08BD3F
:1051900010B5FFF7F1FF0024FFF7D4F8FFF7EDFF9C
:1051A000E0B2FFF711F818B90134082CF8D110BD9E
:1051B0000120FCE708B501F007F9BDE8084000F060
:1051C0003FBE08B5FDF7B5FBBDE8084040F2A4605E
:1051D00000F0E1BF08B5FEF76DFBFEF781FBFFF7BE
:1051E00097FF0020FFF702FF0020FFF71BFFBDE83D
:1051F0000840FDF7A5BB0000302383F31188064B60
:10520000DA69064B1A600023054A1360054A1360E9
:1052100083F31188704700BF7016002090130020A0
:10522000881300208C130020FFF7E6BFD0B5302391
:1052300083F31188134B144C144AD96923681068FE
:10524000C91A884212480AD9A3F58333E03B236088
:105250000468104B01F583312344E0310360116091
:105260000468002383F311884FF47A7000270A4EF4
:105270000A4AE0FB0167002330463946FCF7F6FF97
:105280002044D0BD70160020901300208813002009
:105290008C13002088598F029F860100A086010090
:1052A00008B5FFF7C3FF80B208BD10B50446FFF78D
:1052B000BDFF001B80B210BD10B50446FFF7B6FF5E
:1052C000001B10BDBFF34F8F0549064BCA6802F49F
:1052D000E0621343CB60BFF34F8F00BFFDE700BF19
:1052E00000ED00E00400FA0508B5FFF7EBFF000051
:1052F00044F24D2208B5024B9A62FFF7E3FF00BF6C
:10530000006C004010B5084A084C117824784B1CFA
:1053100003F00F039C421DBF054C13706054002026
:1053200018BF012010BD00BF6616002067160020C0
:105330005616002070B590F87430044603F07F02D2
:10534000212A51D113F080021ED0002A4CD090F8AF
:105350007520022A14D0032A05D0012A14D1BDE8F1
:10536000704000F0C5BB90F8782090F8791052EAB0
:10537000012209D1344B836601202267E06670BDAB
:10538000BDE8704000F0EEBC94F875200A2A22D0E7
:105390000B2A11D0092A27D194F8782094F8791093
:1053A00042EA0122012A1FD8284BA3660223E366A2
:1053B000274B23670120E2E794F8783094F87920AE
:1053C00053EA022302BF204B94F876201A70002380
:1053D000A366E366EDE794F877201E4B20461A702B
:1053E000BDE8704000F0E6BC03F09F03812B03D1C1
:1053F00094F87530062B11D0174DD5F8842022B9BA
:10540000D5F8143133B90020B9E720469047002879
:10541000F6D0B4E72046BDE87040184794F87920EC
:10542000616894F878304D6843EA022394F8761066
:1054300094F877202046A8470028E4D04368A36664
:105440000368E3660023B4E7140C0020A0130020D7
:10545000A15400089C130020740D0020F8B50F4CD7
:105460000022234643F8042F90F87B7090F879606F
:1054700090F8765090F87A2090F8781090F87700AD
:1054800042EA072241EA062145EA002000F072F9CB
:1054900020606068002818BF2046F8BD94130020E3
:1054A00090F87A1090F87B00064B41EA002102291F
:1054B0001A7804D1012A01D0062A02D15A78024B67
:1054C0001A707047A01300209D13002008B505290D
:1054D0002AD8DFE801F01A29031A1A2A302383F3A5
:1054E0001188194800F0DEF9184800F0DBF90023B4
:1054F00083F31188164B1B7813B10520FFF702FFC9
:105500000220BDE80840FFF7FDBE0846FFF7FAFE9F
:10551000302383F311880C4800F0ADF90B4800F0FC
:10552000AAF9002383F3118808BD302383F311887F
:10553000054800F0B4F9054800F0B1F9002383F301
:1055400011880520DDE700BF740D0020040E002047
:105550009E13002008B5102200210448FDF7AEF884
:105560000023034A1370034A137008BD5616002027
:105570006616002067160020F8B5294D294E2C46E6
:10558000002130782B78284F984230D101B120701B
:10559000F8BD01222370254B1A70254B93F87F101C
:1055A000081C18BF0120FFF7CFFDE9E70022237098
:1055B0001E4B1A70FFF70EFE1D4B93F87F10081C50
:1055C00018BF0120FFF7CAFDDAE72370184B93F8E4
:1055D0007F10081C18BF0120FFF7AAFDD0E70021AB
:1055E00023700846F8E72370FFF7BAFDC8E71A46AC
:1055F000BA5C013303F00F030121052AC4D80FF26E
:10560000080C5CF822F000BFE75500088955000837
:10561000CB550008DF55000893550008AD5500082C
:105620006716002066160020561600209E130020E4
:10563000F816002070B506464FF48055134C2046EE
:1056400000F0F6F82046903400F006F9204600F00D
:10565000EFF820460E4C00F0FFF806224FF4805180
:10566000204601F0F3FC3046656101F035F841F267
:10567000883000F090FD0749304601F016F82946C1
:105680002046BDE87040022201F0E0BC740D00200D
:1056900000080140EC780008014B1878704700BF03
:1056A0009D13002037B500239025054C009305FB82
:1056B000004042F2107300F04FF903B030BD00BF5C
:1056C000740D0020014608220120FFF7EBBF704750
:1056D0007047014603220020FFF7E4BF7047704780
:1056E000704708B5FFF7FAFF01F0CEFFFFF7F7FFAD
:1056F00008BD08B501F0D0FFFFF7F2FF08BDFFF7C6
:1057000039BD000008B5FFF725FF0648FFF792FFF7
:10571000054B064A41F288301A60BDE8084000F0A7
:105720003ABD00BFF8160020A4130020180C00207A
:10573000014B1868FFF740BCA413002038B50B4C90
:10574000FFF71AFF2378052B0FD12546FFF739FD08
:10575000FFF71EFD30B1B4F87C309B0702D5284618
:1057600001F048F82378052BF0D038BDF81600205A
:1057700000F076BA020A032A11D006D8012A1ED0F8
:10578000022A1FD00020024611E0212A11D0222A2D
:10579000F8D1E9B10129F5D132200F4A07E0C0B2B2
:1057A0000228EFD80D4A0E4952F82020085C1A60F2
:1057B000704751B10129E5D109200A4AF7E71220C3
:1057C000094AF4E73B20094AF1E70920084AEEE7D5
:1057D0004420084AEBE700BFBC790008FC780008C9
:1057E0000879000836790008467900080B79000826
:1057F0001D7900085879000813B5446B226F13789F
:10580000042B12D1012394F8741012898B40134297
:105810000BD101A9204600F00EFE024628B1019BE3
:1058200094F87410206F00F0D3FF02B010BD000098
:105830001FB500F15C03C364064B02900193836FB4
:10584000D0F8802000930121C36F00F0D1FD05B096
:105850005DF804FBF9570008302383F31188036FC8
:1058600090F8742003EB82039862002380F888305C
:1058700083F311887047012310B5044603726FF05B
:10588000010100F0B8FC204600F0C9FDD4F88C30CE
:1058900023B1BDE81040DA681868104710BD002336
:1058A0000372704710B5044600F1380290F8741086
:1058B000006F00F03BFF204600F0B1FD0023237293
:1058C00010BD00EB8103F7B59C6A05460E4684B314
:1058D000302383F311880023226984F888306369B8
:1058E0009A4201D1E368B3B905EB8603DB685B69D3
:1058F0001B6883B1D4F88C3053B101A9204600F065
:105900009AFDD4F88C3001469F68019A1868B84710
:10591000204600F09EFD01A9204600F08CFD0246C5
:1059200048B1019B3146284600F052FF002383F323
:10593000118803B0F0BD05EB8603DB681A68022A04
:10594000F4D15A691268002AF0D01B8A013B134037
:10595000ECD105F17402E5E72DE9F84F1E46044647
:105960008A4617469DF82850302383F31188036F29
:105970001B78042B05D0002585F311882846BDE847
:10598000F88F90F8883023B101364FF0FF3618BFFA
:105990000026002383F311884FF030094FF00108EF
:1059A00033463A465146204600F08EFD87421CD9C8
:1059B00089F3118894F888304FF0000B002808BF55
:1059C00043F001036FF0010184F88830204684F829
:1059D000088000F010FC204600F021FD84F808B09B
:1059E00000F044FB8BF31188DAE7002DC6D1204686
:1059F00000F0AFFD0125C1E7302383F31188026970
:105A000043699A420FD1C3687BB10123026F90F8BA
:105A1000741012898B4013420CBF01200020002318
:105A200083F3118870470020F9E71846F7E7000074
:105A3000006810B440B1054C8264E469083040F855
:105A4000044C10BCFCF7C4BD10BC7047701600209D
:105A50000168134631B18A6C03F108009A64083179
:105A6000FCF7B6BD704710B50446006840B1826CC3
:105A700000210830FCF722FE002223681A605A60D9
:105A800010BD00000B7810B4082B0BD850F8230081
:105A900040B1054B8264DB69083040F8043C10BC1F
:105AA000FCF796BD10BC70477016002008291346FD
:105AB00009D850F8211031B18A6C03F108009A64BA
:105AC0000831FCF785BD704770B50026051F00F151
:105AD000200455F8040F38B1826C00210830FCF71F
:105AE000EDFD2B681E605E60A542F2D170BD000026
:105AF00038B590F878300446012B1CD890F8761011
:105B0000082918D80D4AD35C012B14D890200C4AD0
:105B100000FB0323D3F88C0060B10A4D43682A468A
:105B20000068984705F10803A366AB6C0120E366A3
:105B30000023236738BD0020FCE700BF700D002064
:105B4000740D00206C140020036843B191001960AB
:105B500003490B78002A18BF43F001030B7070470C
:105B600004150020006810B10068C0F3870070477A
:105B70000368D0B50BB90020D0BD302383F3118862
:105B8000036800221C685B6882F31188002CF2D045
:105B90004FF47A700027084A084ED169084AC91A9A
:105BA000E0FB0167002330463946FCF75FFB844287
:105BB0008CBF00200120DFE7701600209F860100C7
:105BC000A08601004B1E072B0BD850F8213043B1A3
:105BD0009100196003490B78002A18BF43F00103B4
:105BE0000B70704704150020082906D850F82100D2
:105BF00020B10068C0F387007047002070470000A4
:105C00000829D0B501D90020D0BD50F82130002B93
:105C1000F9D0302383F3118850F8213000221C681A
:105C20005B6882F31188002CEDD04FF47A70002766
:105C3000084A094ED169094AC91AE0FB01670023E5
:105C400030463946FCF712FB84428CBF002001200D
:105C5000DAE700BF701600209F860100A0860100D1
:105C60002DE9F74F3A4B1A780193002A3FD00026CE
:105C70003546384FDFF8E0B0D7F88C40002C32D0F2
:105C8000002E39D14FF00108302383F311885FFAD9
:105C900088FA63695146206898474FF00009002848
:105CA00018BF45F0010589F311882A48FFF7A4FEC3
:105CB000A0B1A36951462068984778B1302383F397
:105CC0001188254A636851462068984789F31188EE
:105CD0002249DBF848204846FFF7E4FC08F10108B8
:105CE000B8F1090FD0D1903726B1019B1D7003B0D8
:105CF000BDE8F08F0126BFE74FF0300989F3118826
:105D000000216369206898474FF00008002818BFF9
:105D100045F0010588F311881148FFF76DFE002852
:105D2000E1D0A3694146206898470028DBD089F379
:105D30001188094A636841462068984788F31188AA
:105D40000649DBF848200120FFF7ACFCCBE700BF99
:105D500004150020740D0020B8140020C014002089
:105D6000040E002010B590F878300446012B19D8A5
:105D700090F87610082915D80B4AD35C012B11D85E
:105D800090200A4A00FB0323D3F88C0048B14369F2
:105D900000689847064B1870A36601200023E06650
:105DA000236710BD0020FCE7700D0020740D00205B
:105DB0006814002010B590F878300446012B19D8EB
:105DC00090F87610082915D80B4AD35C012B11D80E
:105DD00090200A4A00FB0323D3F88C0048B10369E2
:105DE00094F877200068984700230120A366E366B3
:105DF000236710BD0020FCE7700D0020740D00200B
:105E000070477047FEE7000070B5082000240B4B78
:105E100093E826000439954207D8D968914209D8F9
:105E2000013803F11003F3D170BD51F8046F42F84B
:105E3000046BF0E742F8044BF0E700BFF07900088C
:105E400038B501230025074C2370656000F0B0FAD7
:105E50000549064800F018F90223237085F31188DC
:105E600038BD00BF68160020707A00087016002048
:105E700072B60322024BD865024B1A70FEE700BFD0
:105E8000701600206816002000F03CB8034B5968DB
:105E90005A68521A9042FBD8704700BF001000E0C9
:105EA00010B50A4A13699C68A1420CD85C688160ED
:105EB00003604460206058609868411A99604FF010
:105EC000FF33936110BD091B1B68ECE770160020BF
:105ED0000361002310B4C260436110BCFFF7E0BF50
:105EE000036881689A680A449A60426813605A603D
:105EF00000234FF0FF320360014B9A61704700BFEF
:105F00007016002070B5124D2946EA690132EA6127
:105F100051F8102F8A4206D030269368013B9360D7
:105F20002C69A36803B170BD226861680A60516082
:105F3000236083F31188E36821692046984786F33C
:105F4000118861690029EBD02046FFF7A9FFE7E738
:105F50007016002000238268037503691B68996826
:105F60009142FBD25A6803604260106058607047EB
:105F700000238268037503691B6899689142FBD806
:105F80005A680360426010605860704708B530235B
:105F900083F311880A7D0023052A06D8DFE802F082
:105FA0000C050503130F8A6913604FF0FF33084691
:105FB0008B61FFF7CFFF002383F3118808BD8A6947
:105FC0009368013393604A680B6813605A60ECE78A
:105FD000FFF7C0BF054BD9680875186802685360A1
:105FE0001A6001220275D860FCF72AB970160020E9
:105FF00030B50C4B87B0DC684B1C05460FD02346F0
:10600000094A6846FFF764FF2846FFF7E3FF009B55
:1060100013B16846FFF764FFA06907B030BDFFF712
:10602000D9FFF9E7701600208D5F0008044B1A684D
:10603000DB6890689B68984294BF002001207047FD
:1060400070160020084B10B51C68D8682268536091
:106050001A6001222275DC60FFF78AFF01462046A4
:10606000BDE81040FCF7ECB870160020044B1A682D
:10607000DB6892689B689A4201D9FFF7E3BF7047DB
:106080007016002030BFFDE770B504460025194B9F
:1060900086B0856221630E46586000F043F904F132
:1060A0001003236163614FF0FF33A361124BE5617D
:1060B000DA69002304F13401C4E908232460646030
:1060C000A560E562E56580230C4A204600F01CF8D7
:1060D00001230B4AE06003750092726868460192E2
:1060E000B268CDE90223074BCDE9043500F03EF854
:1060F00006B070BD68160020701600207F7A000878
:10610000847A0008856000088B6002224B620023BD
:1061100008618A820B62CB61084670478368C16858
:10612000A3F14C0243F81C2C026943F84C2C426941
:106130000C4843F8482C0C4A43F8180C43F82C2C14
:10614000022203F8142C002243F8201C03F8132C1D
:1061500043F8041C43F8082C43F80C2CA3F1280046
:10616000704700BF701600205122000808B5FFF7E5
:10617000D5FFBDE80840FFF72BBF0000024BDB68EE
:1061800098610F20FFF726BF70160020302383F39D
:106190001188FFF7F3BF08B50146302383F3118858
:1061A0000820FFF725FF002383F3118808BD03684B
:1061B0002BB10022026099611846FFF709BF7047B2
:1061C000064BDB6839B1426818605A60136043605F
:1061D0000420FFF70DBF4FF0FF307047701600200E
:1061E0000368984206D01A680260506099611846A8
:1061F000FFF7EEBE704738B504460D46206884426E
:1062000000D138BD036823605C608561FFF7E0FE64
:10621000F4E7034610B51B68984203D09C688A686F
:106220009442F8D25A680B604A601160596010BD00
:1062300000230060406083607047000070B5174B1A
:1062400084680646DD689CB92B6A8560C360286255
:1062500070BDA360237D83B1062B15D123686268CE
:10626000A069214613605A60FFF7D3FFA3699C68B9
:10627000AB68A2689A42ECD306E0626823682046C5
:1062800013605A60FFF7A4FE30462946FFF7C1FFAE
:10629000AE610620BDE87040FFF79CBE701600207E
:1062A00008B5302383F31188FFF7C8FF002383F379
:1062B000118808BD154A10B5D1680346302282F313
:1062C0001188C26800680A6283421BD0486A82B99A
:1062D0008860186802681A605360026A9860DA6021
:1062E0000362FFF775FEFFF7C1FE002383F31188F9
:1062F00010BD1468A24203D0A468A04238BF204653
:10630000D268E4E700229A60EFE700BF7016002031
:10631000EFF30983203383F30988002383F3118883
:1063200070470000302080F3118862B60B4B0C4A96
:10633000D96821F4E0610904090C0A430949DA60CB
:10634000CA6842F08072CA6007490A6842F00102D6
:106350000A602022DA7783F82200704700ED00E01F
:106360000003FA05F0ED00E0001000E010B5302366
:1063700083F311880B4B5B6813F400630FD0EFF3CA
:1063800009844FF08073203CE36184F30988FFF7B0
:106390004DFE10B1044BA36110BD044BFBE783F32A
:1063A0001188F9E700ED00E063220008662200088A
:1063B000024B034A1A60034A5A607047D016002005
:1063C000801700200050002008B500F0D5FC0648DA
:1063D00000F006FE00F01EF900F056F9FFF789F90B
:1063E000BDE8084000F002B8107B000800F060BE75
:1063F00010B5029C04330172C36103FB0421002326
:106400008362C362039B00600363049B4060C460BB
:1064100042610261816104624262436310BD026AAB
:106420006FF00101C260426A426102610022826231
:10643000C262FFF7E0BE436902699A4201D1C268B5
:1064400022B9184650F8043B0B60704700231846E9
:10645000FAE7C368C2690133C3604369002113448A
:1064600082694361934224BF436A4361FFF7B8BE28
:1064700038B504460D46E3683BB1236900201A1D78
:10648000A262E2691344E36207E0237A33B9294642
:106490002046FFF795FE0028EDDA38BD6FF00100C9
:1064A000FBE703691960C268013AC260C26913441C
:1064B00082690361934224BF436A036100238362BC
:1064C000036B03B1184770472DE9F84F04460F4698
:1064D00091469A464FF0300888F311880025AB4664
:1064E000A66A4EB951462046FFF7C2FF20B186F397
:1064F00011882846BDE8F88FA06AE66AA9EB050373
:10650000361A9E4228BF1E46402E18D939464022D0
:10651000FCF75EF8A36A40374033A3624035A26AB5
:10652000E36A9A4204D3E16920460439FFF7B9FFD0
:106530008BF311884D45DCD288F31188D0E73946BA
:106540003246FCF745F8A36A37443344A362354426
:10655000E5E708B5302282F31188816A29B1036921
:106560000439C91A01D0FFF79CFF002383F3118877
:1065700008BD00002DE9F348044640F2E736002745
:106580000C4D236801A99B692046984701280ED12C
:10659000B346BC4601994FF47A72E5FB01BC002377
:1065A00061465846FBF762FEFFF7F5FDE9E702B0EA
:1065B000BDE8F088A0860100036810B55B680C4652
:1065C0009847C36813B153F8340010BD00696043A5
:1065D000FBE7036810B55B680C469847C3681BB1BE
:1065E00003EBC403586810BD0069FCE7036810B5ED
:1065F0005B680C4698474069204410BD08B50C30D4
:10660000FFF758FE002008BD08B50C30FFF748FE24
:10661000002008BD00F00EBC044B0C3040F80C3CD0
:10662000012300F8083CFFF703BE00BF8C7A000886
:1066300010B53023044683F31188816000F006FC16
:1066400002230020237180F3118810BD10B5302380
:10665000044683F3118800F00DFC0123237100230D
:1066600083F3118810BD10B5044690F8763080F899
:106670007E3000F07BFE63681B6813B10121204669
:1066800098470323237010BD00F04EBE0123037012
:10669000002300F12C02436000F1480142F8043B62
:1066A0008A429361FAD18360704738B5054630233A
:1066B00083F3118800244160C460046144618461F3
:1066C000C46104624462846200F0D0FE02232B7035
:1066D00084F31188204638BD70B53023064683F315
:1066E000118800F027FE344600250123756004F868
:1066F0000C3B2C3654F8043B7BB1586920B16FF049
:1067000001010C30FFF753FD54F8043C986920B1A7
:106710006FF001010C30FFF74AFDB44244F8045C0D
:10672000E8D1FFF7A3FC85F3118870BD70B500EBCD
:106730008103054650690E461446DA6018B11422EA
:106740000021FBF7BBFFA06918B114220021FBF761
:10675000B5FF31462846BDE8704000F011BEF8B5DF
:1067600004460027836800F1100503F001138360DD
:1067700000F12C0655F8043B7BB1586920B16FF04D
:1067800001010C30FFF713FD55F8043C986920B166
:106790006FF001010C30FFF70AFDB54245F8047CAB
:1067A000E8D12046BDE8F84000F090BEF0B40125E5
:1067B00000EB8104E4684789A4698D403D4345812D
:1067C00023600023A2606360E360F0BC00F0C6BEFB
:1067D000F0B4012500EB8104E468078964698D4009
:1067E0003D43058123600023A2606360E360F0BC49
:1067F00000F0D6BE037810B5052B0BD1064CC8208F
:10680000236C43F010032364FFF7C5FC236C23F0D3
:106810001003236410BD00BF005C00402DE9F0416F
:106820000223002504464FF030080370C5678560D9
:1068300000F10C0600F12C0756F8043BABB188F3CD
:10684000118856F8043C586920B16FF001010C30F2
:10685000FFF7ADFC56F8043C986920B16FF00101D8
:106860000C30FFF7A4FC85F31188BE4246F8045CA7
:10687000E2D184F86450204600F0DCFD63681B68B8
:1068800023B12046BDE8F04100211847BDE8F08162
:10689000F8B503780446052B29D080F8803005230D
:1068A000037043681B680BB104219847002630270A
:1068B000A66004F10C052C3455F8043BABB187F30A
:1068C000118855F8043C586920B16FF001010C3073
:1068D000FFF76DFC55F8043C986920B16FF0010199
:1068E0000C30FFF764FC86F31188A542E4D1F8BDB3
:1068F0000178052906D1436890F880201B68027052
:1069000003B118477047000090F8643070B5044632
:1069100013B1002380F8643004F17402204600F0C3
:1069200003FE63689B68B3B994F8743013F0600594
:1069300039D00021204600F067FE0021204600F0FB
:1069400051FE63681B6813B1062120469847062351
:1069500084F8643070BD204698470028E4D094F84D
:106960007B2094F87A3043EA0223E26E9A4288BF91
:10697000E36694F97430E56E002B4FF0300380F23B
:10698000F780002D00F0E680092284F8642083F36C
:1069900011880021E36EA26E2046FFF719FF002345
:1069A00083F31188D6E794F8752003F07F0343EA58
:1069B000022340F20232934200F0B98025D8022B24
:1069C00000F08D8009D8002B3DD0012BB1D1754B43
:1069D000A3660223E36600233AE0B3F5817F00F06B
:1069E0009380B3F5407F35D0B3F5807FA1D194F883
:1069F0007630012B9DD1B4F87C3023F00203A4F84B
:106A00007C30A566E5662567A9E740F201629342FE
:106A100009D8B3F5C06F27D2B3F5A06F89D1A566A9
:106A2000E566614B14E0B3F5106F33D040F60242D7
:106A30009342CCD0B3F5006F7FF47BAF04F17F03BA
:106A4000A366012324E004F17C02A2660222E2662E
:106A5000236784E794F87630012B7FF46AAFB4F8AB
:106A60007C3043F00203CAE794F87920616894F817
:106A700078304E6843EA022394F8771094F8762031
:106A80002046B04700283FF454AF4368A36603682C
:106A9000E366B8E72378042B10D1302383F3118801
:106AA0002046FFF75CFE85F311880321636884F8B4
:106AB0007F501B6821700BB12046984794F87630C0
:106AC0004BB184F87F300423237063681B6813B1D3
:106AD0000221204698470023A366E366B8E794F8AE
:106AE000783020461D0603F00F010AD500F00EFD98
:106AF000012804D002287FF41CAF2C4B68E72C4BF4
:106B000066E700F0F5FCF3E794F87630002B7FF4AD
:106B100010AF94F8783013F00F01DCD01A0620463D
:106B200002D500F099FDD6E700F080FDD3E794F898
:106B30007630002B7FF4FDAE94F8783013F00F011F
:106B4000C9D01B06204602D500F05EFDC3E700F069
:106B500049FDC0E7142284F8642083F311882B4692
:106B60002A4629462046FFF721FE85F31188F1E6E3
:106B70005DB1152284F8642083F311880021E36E4F
:106B8000A26E2046FFF712FE09E70B2284F864206C
:106B900083F311882B462A4629462046FFF718FE24
:106BA000E3E700BFB87A000867660008B47A000817
:106BB000B67A000838B590F864300446152B39D8F9
:106BC000DFE803F03E38383838383E38380B29399A
:106BD00038383838383838383E3E90F87B1090F8DE
:106BE0007A20C36E42EA0122934214D2C268128A0A
:106BF000B3FBF2F502FB15356DB9302383F3118831
:106C00002B462A462946FFF7E3FD85F311880A2320
:106C100084F864300EE0142384F86430302383F366
:106C20001188002320461A461946FFF7BFFD0023AE
:106C300083F3118838BD036F03B198470023E7E75A
:106C4000002100F0E1FC0021204600F0CBFC63684D
:106C50001B6813B10621204698470623D8E790F811
:106C6000642038B5152A044617D80123934040F60E
:106C7000416213421ED113F480150FD19B020CD533
:106C80000B2380F86430302383F311882B462A4687
:106C90002946FFF79DFD85F3118838BDC3689B69C0
:106CA0005B68002BF9D1036F03B19847002384F888
:106CB0006430F2E7002100F0A7FC0021204600F03C
:106CC00091FC63681B6813B1062120469847062390
:106CD000EDE700F16043090103F56143C9B283F8B0
:106CE0000013012300F01F024009800000F1604002
:106CF000934000F56140C0F8803103607047012285
:106D000000F01F039A4043099B0003F1604303F521
:106D10006143C3F88020C3F88021002300F1604064
:106D200000F5614080F800337047090100F16040D0
:106D3000C9B200F56D4001767047062108B50846D6
:106D4000FFF7C7FF06210720FFF7C3FF0621082032
:106D5000FFF7BFFF06210920FFF7BBFF06210A202E
:106D6000FFF7B7FF06211720FFF7B3FFBDE8084084
:106D700006212820FFF7ADBF4FF0FF310E4B1A69F7
:106D800019611A6900221A611869D868D960D9682E
:106D9000DA60DA68DA6942F08052DA61DA69DA696F
:106DA00042F00062DA61054ADB69136843F48073DC
:106DB0001360FFF7C2BF00BF001002400070004028
:106DC000194B1A6842F001021A601A689007FCD544
:106DD0001A6802F0F9021A6000225A605A6812F02A
:106DE0000C0FFBD11A6842F480321A601A689103C2
:106DF000FCD55A6842F4E8125A601A6842F0807270
:106E00001A601A689201FCD51221084A5A60084A91
:106E100011605A6842F002025A605A6802F00C028D
:106E2000082AFAD1704700BF0010024000641D001C
:106E30000020024010B5034C2046FFF7EDFB024B4B
:106E4000E36110BDD816002000200240C369064A45
:106E500059680A435A605968044A0A435A60002232
:106E6000034B1A61704700BF23016745AB89EFCD23
:106E700000200240C269136943F080031361704728
:106E800000487047BC7A000838B5044600790528E8
:106E90000DD003201F252071E06901F10061C5605C
:106EA0001846FBF795FB02230020237138BD012013
:106EB000FCE7F7B50479052C42D004241F254FF6D2
:106EC000FF7C0471C469E560256945F00105256111
:106ED0006AB31E4621F00105ADF804C005F1006556
:106EE00016F8017B01F001030DF1080E734412F155
:106EF000FF3203F8047C01F10101334601D0CF07D2
:106F0000EED4BDF804702F80E668F607FCD4E6687E
:106F100006F01F0E16F0100FC4F80CE006D176072D
:106F200002D42D88AF42D3D0032200E00622236989
:106F300023F00103236102230371104603B0F0BD67
:106F40000122FAE707207047037910B5052B0446A4
:106F500014D005231F220371C369DA601A6942F055
:106F600002021A61FFF728FBE36900F10060586133
:106F700000201A6942F040021A6110BD0120FCE7AE
:106F80000379052B0AD1C269D36813F0010307D135
:106F9000116921F03601116102220271002070474F
:106FA00001200029FBD008607047037910B5052B3C
:106FB000044612D0FFF700FB00F10060031F00F54C
:106FC0007F7053F8042F013205D18342F9D100209C
:106FD0000223237110BD0520FAE70120FAE7000023
:106FE000184B9A6942F07D029A619B690268164BC0
:106FF000DA6082685A6042681A60C26803F580638A
:10700000DA6042695A6002691A608269C3F80C2426
:10701000026AC3F80424C269C3F80024426AC3F8B0
:107020000C28C26AC3F80428826AC3F80028026BDD
:10703000C3F80C2C826BC3F8042C426BC3F8002CF1
:10704000704700BF0010024000080140032AF0B55D
:1070500028D10161154B9F5C002308221D461C4668
:107060001E4611F0800F4FEA04144FEA03134FEA53
:1070700006164FEA05150CBF44F00F043B4311F40C
:10708000004F0CBF46F00F063D43013A4FEA410165
:10709000E7D1426832402A434260026822401343EB
:1070A0000360F0BD042A08BF4161D3E7D87A000825
:1070B00040F2CF22044B08215A6000229A60072236
:1070C0000B201A60FFF731BE10E000E008B5302356
:1070D00083F31188FEF7D8FE002383F3118808BDDF
:1070E00008B5FFF7F3FFBDE80840FFF73FB9000020
:1070F0000E4B00011B6D10B503F1804303F5C04337
:10710000C418C358114403F1005303F540535B0006
:107110006260002AA1EB020400DC10BD20786478D4
:10712000023A40EA042043F8040BF2E7005C004016
:107130002DE9F84F794C676CFA437B05626402D500
:107140007748FFF76BFB3E0506D5236C744843F088
:1071500008032364FFF79CFBFD040AD56F4B9A6C70
:10716000140406D41A6C6E4822F008021A64FFF761
:10717000BFFBB80504D56A484368DB6803B198478C
:10718000674D684E61E007F00F00840004F1804411
:1071900000F1020804F5B84405EB8803F9062268FB
:1071A000D3F804C042D42268DCF81430324042F4F0
:1071B0000042226019695A681F680A44BF1A5A605F
:1071C00017D0BCF81020BA4228BF3A469F681A610F
:1071D00039449960FFF78CFF236823F4F04323F0D0
:1071E000400383F0300343F4004343F08003236003
:1071F00029E0012303FA00F22B8923EA02032B8101
:10720000DCF8083013B1014628469847302383F351
:107210001188002105EB8808D8F8043058690C3033
:10722000FEF7C5FF002383F311880CE023681205E5
:1072300003EA060343F080032360C1B20BD5DCF8F8
:10724000043028469847354B5F6C3B049BD4BDE81F
:10725000F84FFFF78BB8DCF81820304BD2F808E075
:107260001B6DF04603F1804303F5C04303EB0017A9
:10727000BB68FF6803F1005303F54053C7F30907E8
:107280005B004FEA570903EB890A534508F10208EE
:1072900033D16FF0010808FB0978B8F1000F02D074
:1072A0001B680EF8193093683B44936053683B4465
:1072B00053601368DB1B1360138A013B9BB213827C
:1072C000BCF81220BA4200D803BB012303FA00F233
:1072D0006B89841C23EA02036B8105EB84035B68E2
:1072E000DB680BB128469847302383F3118805EB00
:1072F000840463689869416891E753F804BB08F80F
:1073000002BC4FEA1B2B08F801BCBEE7236823F43C
:10731000904323F0700383F4405364E7005C004023
:10732000F81600200F07FFFF0148FFF7AFB900BFB5
:10733000F816002008B50378012B12D0094B9842AB
:107340000FD11320FFF7DBFC1420FFF7D8FC03223A
:10735000054B1A6403F5DA33DA6922F40002DA61C4
:10736000DB6908BDF8160020005C004090F87E3014
:10737000024A43F08003D364704700BF005C0040C2
:1073800000EB8103F0B5DE68336813F0030348D0E7
:10739000022B49D9032B0CBF4FF4C0624FF400728B
:1073A000224B0F011C6D736904F1804404F5C04445
:1073B0003D1973B100236B60338AD0F884C0013368
:1073C00023F001036344C0F8843042F0200247F800
:1073D00004C0B369DBB1748A42F40052631E3E2CD0
:1073E00093BF43F00103124E5B0901338BBF46EAA2
:1073F00083235B029BB203F47C43EB60D0F88430C0
:10740000013424F001041C44C0F88440AB608B00BC
:1074100003F1804303F5B84318680A4318601A6003
:10742000F0BD4FF40072BBE70022B9E7005C0040FA
:107430000080FFFF10B4002180240A4B19655964B5
:10744000DC644468E4688C420CBF4FF43C444FF465
:107450003E441C644023C0F88430034B10BCC3601E
:10746000FFF78EBF005C0040EC7A0008017838B569
:107470000129044622D1124B98421AD1114B124DC8
:10748000DA69132042F40002DA61DA691A6942F417
:1074900000021A611A6922F400021A611B69296448
:1074A0000D21FFF716FC0E211420FFF712FC00231C
:1074B0002B642046BDE83840FFF7BCBF38BD00BF95
:1074C000F816002000100240005C0040402301221A
:1074D0000021C0F88430930003F1804303F5B843E2
:1074E00018680132082A18601960F4D1704700004A
:1074F000054B53F8210010F4405004D0B0F5805FE4
:107500000CBF012002207047005C0040054B53F87F
:10751000210010F0300003D010280CBF0120022001
:10752000704700BF005C00400B4B1B6D03F18043B4
:1075300003F5C04303EB01118B6802F1080103F16D
:10754000005303F540535B0053F8040B22F8020B81
:107550009142F9D1704700BF005C004000EB810010
:10756000C36810B598690268C2B15C8A1319013BFF
:10757000B3FBF4F39BB2890001F1804101F5B841FE
:1075800003820B6823F4904323F0700383F4405389
:1075900043F4004343F080030B6010BD0123EAE78E
:1075A00000EB810010B50C46C1684B690A8A186867
:1075B0009968824228BF024620461A61FFF798FD6B
:1075C000A10001F1804101F5B8410B6823F4F043BB
:1075D00023F0400383F0300343F4004343F080037F
:1075E0000B6010BD890001F1804101F5B8410B68C5
:1075F00023F4904323F0700383F4805343F4004357
:1076000043F080030B607047890001F1804101F570
:10761000B8410B6823F4F04323F0400383F01003D8
:1076200043F4004343F080030B607047890001F18D
:10763000804101F5B8410B6803F44053B3F5405F56
:1076400009D00B6823F4F04323F0400343F42043B4
:1076500043F080030B607047890001F1804101F520
:10766000B8410B6803F03003302B0BD00B6823F4C8
:10767000F04323F0400383F0200343F4004343F03E
:1076800080030B607047704708B5FFF7FCFFBDE84B
:107690000840FFF795BB0000044A536843F00073AD
:1076A000536044F24C22024B9A6270470000014042
:0676B000006C0040704771
:1076B80000000000290000003D000A003E000B0009
:1076C8003F00000034000000620063005200E20046
:1076D8000000E1002B0039003C0017002A001C00C4
:1076E800300040002F005C005D005E0000000000DC
:1076F800E000000035003A003B0022004200230071
:107708002E0041002D004C0049004B004A000000AB
:10771800000000001E001F0020002100430024007C
:10772800250026002700440045004E004D00460075
:107738000000000014001A000800150000001800DE
:107748000C00120013005F00600061005700470042
:1077580000000000040016000700090031000D00B9
:107768000E000F00330059005A005B00580000005B
:10777800E400E5001D001B000600190028001000A9
:107788003600370000005300540055004800000040
:107798000000000000000000000005002C0011009F
:1077A80000000000380051004F0056005000E6006D
:1077B80081828300E200E900EA00B500B600B70064
:1077C800CD008301CC008A01920194012102230299
:1077D80024022502260227022A02B300B4006F0001
:1077E80070009F01CB019F02A00281828300E2000A
:1077F800E900EA00B500B600B700CD008301CC006F
:107808008A01920194012102230224022502260200
:1078180027022A02B300B4006F0070009F01CB0159
:107828009F02A0020A080140090801400808014017
:107838000F0C01400E0C01400D0C01400C0C0140D6
:107848000B0C01400A0C0140010C0140000C0140E6
:1078580007080140060801400508014004080140E6
:1078680003080140060C0140050C0140040C0140CE
:107878000F080140030C01400008014002080140C4
:10788800010801404C61737420736563746F722042
:10789800696E74656E64656420746F206265207516
:1078A800736564207769746820776561725F6C65B9
:1078B80076656C696E67206973206265796F6E649E
:1078C80020617661696C61626C6520666C617368C1
:1078D8002064657363726970746F722072616E6779
:1078E80065000000CD5400085D54000835530008B9
:1078F800000000009C790008A0790008AA79000817
:1079080004081009023B00020100A032090400002B
:1079180001030101000921110100012244000705AA
:107928008103080001090401000103000000092186
:107938001101000122320007058203200001120113
:10794800000200000040EDFE55B1000101020001F7
:1079580005010906A101050719E029E71500250118
:1079680095087501810295017508810105071900BF
:1079780029FF150026FF00950675088100050819DE
:1079880001290515002501950575019102950175D7
:10799800039101C0040309040803490042004D0093
:1079A800000010034D006F00640065006C002000AB
:1079B8004D00000005010980A101850319012AB7BE
:1079C80000150126B700950175108100C0050C0946
:1079D80001A101850419012AA002150126A002951A
:1079E8000175108100C00000E87D000880170020A4
:1079F8008017002080170020E87D000800000000A4
:107A08000000000000000000E87D00080000000001
:107A18000000000000000000E87D000800000000F1
:107A28000000000000000000E87D000800000000E1
:107A38000000000000000000E87D000800000000D1
:107A48000000000000000000E87D000800000000C1
:107A58000000000000000000E87D000800000000B1
:107A680000000000000000007C7A000808150020D3
:107A7800181600206330006D61696E0069646C65DA
:107A88000000000000000000816E0008896E0008F8
:107A9800B36E0008456F0008496F0008816F000841
:107AA800AB6F000809660008FD65000800000100CA
:107AB8000000000003000000020000008000000039
:107AC80000000000000400000000000800000200A0
