:100000000C94EB000C9408010C9423010C9408014F
:100010000C9408010C9408010C941A170C94080114
:100020000C9408010C9408010C9408010C9408012C
:100030000C9408010C9408010C94A1170C9408016D
:100040000C9408010C9408010C9408010C9408010C
:100050000C9408010C9408010C9408010C940801FC
:100060000C9408010C9408015300540055005600EC
:100070005F006000610000005C005D005E005700F2
:1000800059005A005B000000620000006300580045
:1000900009023B00020100A0320904000001030133
:1000A0000100092101010001224400070581030824
:1000B0000001090401000103000000092101010001
:1000C00001227B00070583030800011201100100D3
:1000D000000008626B69170100010200011203446D
:1000E0000049005300430049005000410044000013
:1000F00000200363006F00730065007900660061F3
:10010000006E006E00690074007500740074006970
:100110000000000403090405010902A10185020988
:1001200001A1000509190129081500250195087587
:100130000181020501093009311581257F9502757C
:1001400008810609381581257F9501750881060506
:100150000C0A38021581257F950175088106C0C0FB
:1001600005010980A101850319012AB7001501269F
:10017000B700950175108100C0050C0901A101852A
:100180000419012AA002150126A00295017510810B
:1001900000C005010906A101050719E029E71500BE
:1001A00025019508750181029501750881030507F0
:1001B000190029FF150026FF009506750881000526
:1001C000081901290515002501950575019102956C
:1001D0000175039103C011241FBECFEFD8E0DEBF2D
:1001E000CDBF11E0A0E0B1E0EEEEF7E302C0059074
:1001F0000D92A239B107D9F722E0A2E9B1E001C01E
:100200001D92A339B207E1F70E947E110C94C01B26
:100210000C940000A82FB92F80E090E041E050EA54
:10022000609530E009C02D9182279795879510F051
:1002300084279527305EC8F36F5FA8F30895EADF3F
:100240008D939D930895CF93CFB7CF93DF93C395AD
:100250004B9BE9F74B9B10C04B9B0EC04B9B0CC0BC
:100260004B9B0AC04B9B08C04B9B06C0C0916A02C7
:10027000C395C0936A028EC06F93C0916902DD2757
:10028000CF58DD4F2F9365E54B9B03C02F916F91A6
:10029000E1CF0F931F934F9320E040E15F9309B1AB
:1002A0000C7003FB27F93F9350E03BE039C01C7012
:1002B00040642F77012F5F5F1EC0406819B11C702A
:1002C0002F7752501FC0406409B12F770C70D1F1C5
:1002D0005F5F00C023C0406219B12F771C7091F19D
:1002E0005F5F00C025C00C701027515012F45D5F95
:1002F0000000115027952C3F19B1C8F61C7001273A
:10030000015027952C3FC8F64227499309B10C703C
:1003100010274F73115027952C3FA8F64695469508
:1003200019B11C7079F00127015027952C3F98F6E0
:100330006B5A60F3315009B1B0F600C012E01CBB3B
:1003400000271CC03B503195C31BD04012E01CBBA2
:100350000881033C21F10B3411F1209166021981CF
:10036000110F1213EDCF4A81441F093679F10D3276
:1003700011F0013E29F74F7009F0042F00936F022E
:100380003F915F914F911F910F912F916F91CCB33E
:10039000C1FD5DCFDF91CF91CFBFCF911895209157
:1003A0006F02222369F310916D02112309F049C0F5
:1003B00034300AF448C030936D02209368021091E3
:1003C00069023BE0311B309369023DC000916D0230
:1003D0000130BCF50AE54F7049F43091160134FD47
:1003E00033C000931601C3E4D2E032C0433059F069
:1003F000443091F030914E0234FD26C000934E02FD
:10040000CFE4D2E025C03091870234FD1DC00093B7
:100410008702C8E8D2E01CC030915A0234FD14C0F3
:1004200000935A02CBE5D2E013C0052710E000C0CC
:1004300000000BB91AC0052710E0221F1DC010E0F4
:1004400021C04AE502C032ED432FC4E1D0E032E0E2
:100450001AB11C605B9A0BB11AB95CE020E865E345
:1004600020FF05270BB9279517951C3FF0F66695D9
:10047000B8F7B1F720FF05270BB9279517951C3F53
:10048000D0F62795179517FF052700001C3F0BB9DD
:10049000B0F629913A9519F7037F10916E02110F6A
:1004A000C651D0400BB911F01093660212E01CBB8C
:1004B00008601AB1137F402F437F54E05A95F1F73B
:1004C0000BB91AB94BB95CCF811111C0653078F402
:1004D000443068F484E0689FF0011124E40FF11DBA
:1004E000EE0FFF1FE859FF4F85919491089581E029
:1004F00090E008950E946402089581E008950E94AA
:100500007D02089581E008950E947D0208950E9471
:100510008402089508950E948A020895A6E0B0E03A
:10052000E4E9F2E00C941C1B49835A839E833091CA
:10053000990189819A8131111AC03E81332399F042
:10054000222389F00E948708182F682F89819A81B9
:100550000E94640869817A81812F0E94460F269645
:10056000E3E00C94381B0E947508182FF3CF0E940B
:10057000870869817A81F1CFFC01262F4081518162
:1005800062817381848195810E948E020895CF9348
:10059000DF93EC0161E00E94BC02BE010E947F0279
:1005A000DF91CF910895CF93DF93EC0160E00E943B
:1005B000BC02BE010E948B02DF91CF91089581E0C1
:1005C00008950E94DF020895CF93C82F0E94390733
:1005D0008C2F0E94E1022FEF84E39CE021508040A9
:1005E0009040E1F700C00000CF91089581E00E94A3
:1005F000E4020E94C517089580E00E94E4020E9470
:10060000DA1708950F931F93CF93DF938C0161E066
:100610000E94BC02EC01B8010E948702811106C051
:1006200080E0DF91CF911F910F910895B801CE0125
:100630000E94A7158823A1F3B801CE010E94E311FF
:10064000882371F3B801CE010E94B911882341F3C8
:10065000F8018581882361F0C330FCE7DF07E9F00A
:1006600058F4C115ECE7DE07A9F0C130DC47B9F05A
:10067000C8010E948202D5CFCB358CE7D807A9F0FC
:10068000CC35ECE7DE0771F0CA35DC4789F70E940C
:100690008A0CEECF0E94F602C3CF0E94920C0E94F9
:1006A000FC02BECF0E94800CE3CF0E948E0CE0CFF4
:1006B0000E94FD160E94780308950E947C030E9408
:1006C0000217089581E008950895CF93DF93D82FFE
:1006D0000E946203C82F882319F08D2F0E946403A3
:1006E0008C2FDF91CF91089508950E94650308959E
:1006F00080E00E94750308950E94F0150E94750322
:100700000895CF930E94F015C82F809194018C1703
:1007100079F0C09394010E948617609395017093BD
:10072000960180939701909398018C2F0E947503F6
:10073000CF910895ADE0B0E0E0EAF3E00C941D1B2A
:10074000488759876A877B878C879D8791110E948C
:10075000D40B1F8286E0FE013896DE0111960190CF
:100760000D928A95E1F78D8181110DC029813A8121
:100770004B815C816D817E818F810E941E0B2D9645
:10078000E2E00C94391BCE0101960E94C702811150
:10079000EDCFF5CFFC012481213021F480819181BE
:1007A0000E94B9080895662329F00E9444130E940C
:1007B000171408950E949E13FACFCF93C82F882351
:1007C000C9F08238C9F40E94FD1581FD13C089E388
:1007D0000E94B3160E942F0C2FEF87EE93E021505A
:1007E00080409040E1F700C0000089E30E94BB1602
:1007F0000E942F0CCF9108958338A1F40E94FD151B
:1008000080FDF8CF83E50E94B3160E942F0C2FEFD6
:1008100081EE94E0215080409040E1F700C000005C
:1008200083E5E4CF8438A1F40E94FD1582FDE2CF78
:1008300087E40E94B3160E942F0C2FEF81EE94E004
:10084000215080409040E1F700C0000087E4CECF07
:100850008CEF8C0F813A70F48C2F0E9478168823CD
:1008600029F08C2F0E94BB160E942F0C8C2F0E9407
:10087000B316BECF80E28C0F883048F4C77081E099
:1008800001C0880FCA95EAF70E94B70BB1CFEBE51C
:10089000EC0FE33040F4F0E0E35BFE4F808190E04A
:1008A0000E941916A7CFE8E5EC0FEB3150F4F0E009
:1008B000EE0FFF1FE95EFE4F808191810E943E1680
:1008C00099CF83E38C0F833108F094CF61E08C2FB4
:1008D0000E94D3038FCF882309F456C0823879F45D
:1008E0000E94FD1581FF50C089E30E94B3160E944B
:1008F0002F0C89E30E94BB160E942F0C08958338A9
:1009000059F40E94FD1580FF3FC083E50E94B31695
:100910000E942F0C83E5EECF843859F40E94FD1518
:1009200082FF32C087E40E94B3160E942F0C87E436
:10093000E1CF9CEF980F913AE8F290E2980F98304F
:1009400050F4877091E001C0990F8A95EAF7892FDA
:100950000E94BD0BD1CF9BE5980F933028F490E017
:1009600080E00E941916089598E5980F9B3128F4AD
:1009700090E080E00E943E16089593E3980F933133
:1009800018F460E00E94D30308951F93CF93DF9380
:10099000182FEB010E94DD03209739F4812F0E946C
:1009A0006B04DF91CF911F9108958FE99FE001972C
:1009B000F1F700C000002197EFCF70E060E08933CD
:1009C00011F460E570E00E94C5040895882321F0C9
:1009D0000E94B70B0E942F0C0895882321F00E94DB
:1009E000BD0B0E942F0C0895B0E0A0E0EAEFF4E008
:1009F0000C94161B6C01D62FC72FFC0115810681A4
:100A000002950F700E94AD0BE82E8823F9F0E12EBD
:100A10001123E1F08C2F807F803461F080E28D0F14
:100A2000883008F18C2F807E803221F4D230D8F0CB
:100A30000023C9F08091340282FF15C082E00E9439
:100A4000540C0E94AD0B91E0E82EE926BC2EB29426
:100A50009FE0B922FBE0FB15B8F1EB2DF0E0EE537F
:100A6000F44E0C94071BE12CF1CF0C2F0F70C07FBC
:100A700011F00295007F112399F0002359F080E2D4
:100A80008D0F883010F0D11107C0802F0E94B70B56
:100A90000E942F0C8D2F5AC0802F0E94C70BF8CFB9
:100AA0008D2F0E946B04002379F080E28D0F883037
:100AB00010F0D11104C0802F0E94BD0B03C0802F05
:100AC0000E94CD0B0E942F0CEB2DE850FF0B3497AA
:100AD00020F40E94F0150E947503EE2089F00E9418
:100AE000A90B80FD0DC0F60115820E94A30B0E9488
:100AF000C207C6010E9400070E94A30B0E94D207F2
:100B0000CDB7DEB7E9E00C94321B2C2F2F70F22EFC
:100B1000C07FC03219F0F29480EFF822DD2341F05B
:100B2000D130D1F1112309F444C00023F1F0B2CF48
:100B30008091340282FD15C0112359F0FF2029F065
:100B40008F2D0E94B70B0E942F0C80E00E94DD03C6
:100B5000BBCF80E00E946B04FF2009F4B5CF8F2D3E
:100B6000ABCF112369F0011104C08F2D0E94E60460
:100B7000ABCF013009F0A8CF8F2D0E94EB0BA4CF93
:100B80000111A2CF8F2D0E94ED048F2D0E94F70B33
:100B90008F2D0E94DB0B98CF112321F0063008F037
:100BA00093CFE3CF053008F08FCF8F2D0E94ED0457
:100BB0008BCF0023D1F3D93349F43FEF87EE93E095
:100BC000315080409040E1F700C000008D2F0E941E
:100BD0006B047ACF8C2F86958695837069F081306F
:100BE00009F072CF8D2F9C2F9370111102C080E0FD
:100BF00090E00E943E1668CF8D2F9C2F93701111AC
:100C000002C080E090E00E9419165ECF612F8D2F08
:100C10000E94D30359CF8C2F8370A1F5111154CFAB
:100C20004D2F429546954770440F440F2D2F2F703E
:100C300030E0042E02C0220F331F0A94E2F790E046
:100C400080E0D4FF09C08FE090E002C0880F991FB8
:100C50004A95E2F780959095C695C695C370822B0C
:100C6000932BC23049F058F4C13019F00E9492071A
:100C70002BCF0E94890728CF0E949B0725CF0E9477
:100C8000860722CF8695112311F08C2F817088233F
:100C900009F41ACF4D2F429546954770440F440FE3
:100CA0002D2F2F7030E0042E02C0220F331F0A9424
:100CB000E2F790E080E0D4FF09C08FE090E002C04E
:100CC000880F991F4A95E2F780959095C695C6952D
:100CD000C370822B932BC23049F058F4C13019F005
:100CE0000E94FD07F1CE0E94F407EECE0E94060896
:100CF000EBCE0E94AA07E8CECF70112329F08C2FEB
:100D00000E94C2078D2F32CF8D2F0E94ED048C2FB1
:100D10000E94D207D9CED23F41F160F4D03FB9F062
:100D2000D13F81F0112309F443C00111B3CE8C2FC0
:100D30008F711FC0D33F01F1D43FA1F780913402DE
:100D400082FD24C08C2F8F71112311F312C0112347
:100D500041F0053008F0B8CE8C2F8F710E94E40767
:100D6000B3CE063008F0B0CEF7CF8C2F8F711111B3
:100D7000CFCF0E94C207A8CE112329F08C2F8F71EC
:100D80000E94B607A1CE0E94B1079ECE112331F07A
:100D900063E08C2F8F710E94360C96CE81E00E940A
:100DA000540C023008F490CE82E00E94540C8CCE99
:100DB000002359F0D93309F009CFEFEFF7EE23E024
:100DC000E150F0402040E1F7FFCE8C2F8F71A0CF93
:100DD0000F931F93CF93DF93EC01688179818D810D
:100DE0000E94C4088C010E940F080E948507B80168
:100DF000CE010E94F404DF91CF911F910F910895CD
:100E0000CF93DF93EC018C81882399F0CE010E946F
:100E10000203811111C00E94AD0B882351F08D8116
:100E2000882339F08091340282FF03C082E00E945F
:100E3000540CDF91CF910895CE010E94E806CE01B7
:100E40000E94D302F6CF90E080E00E94191690E055
:100E500080E00E943E160E94D40B0E942F0C0E943C
:100E600033140E94171408950E94C3160E9423078A
:100E700008950E94C40B0E943407089592959F70B4
:100E8000963091F058F4925F9F70923058F4803F02
:100E900019F030F4883E30F481E008959A5FF4CF81
:100EA000843FD1F380E00895883EB0F3813FD1F7CD
:100EB000F3CFFC012481222339F0808191810E94AB
:100EC000B9080E943E07089580E00895A6E0B0E0CA
:100ED000ECE6F7E00C941D1B2696E2E00C94391B1F
:100EE000A7E0B0E0E6E7F7E00C941D1B2796E2E0F0
:100EF0000C94391B08950E947A0708950E947B077D
:100F00009093A9018093A801089508950E947E07F7
:100F100008952091A8013091A901822B932B0E9462
:100F20007E0708952091A8013091A901822393237F
:100F30000E947E0708952091A8013091A90182277F
:100F400093270E947E0708950E947A0708950E94C1
:100F5000A40708950E94A7079093A7018093A60174
:100F6000089590E080E00E94AA07089521E030E013
:100F7000A90102C0440F551F8A95E2F7CA010E94D9
:100F8000AA07089521E030E002C0220F331F8A959E
:100F9000E2F78091A6019091A701822B932B0E94EA
:100FA000AA07089521E030E002C0220F331F8A957E
:100FB000E2F7209530958091A6019091A7018223B8
:100FC00093230E94AA07089521E030E002C0220F77
:100FD000331F8A95E2F78091A6019091A70182279D
:100FE00093270E94AA0708952091A6013091A70196
:100FF000822B932B0E94AA0708952091A60130917D
:10100000A701822393230E94AA0708952091A60195
:101010003091A701822793270E94AA070895089577
:10102000262F277091E001C0990F2A95EAF723E057
:10103000769567952A95E1F7660F771F660F771FFC
:10104000FA01E60FF71F50E040E0682F70E0819151
:10105000DF0111979B01042E02C0369527950A9453
:10106000E2F7217021952827292328272C934F5F09
:101070005F4F4430510559F70895A82FA77023E01A
:10108000969587952A95E1F7880F991F880F991FE4
:10109000FB01E80FF91F50E040E080E0219130E0D3
:1010A0000A2E02C0369527950A94E2F7217033275D
:1010B000042E01C0220F0A94EAF7822B4F5F5F4F84
:1010C0004430510559F70895262F953068F484303F
:1010D00058F434E0939FB0011124680F711D4AE960
:1010E00051E0822F0E9410080895953070F48430EA
:1010F00060F444E0949F900111246AE971E0820F4A
:10110000932F911D0E943D08089580E00895B0E05E
:10111000A0E0EDE8F8E00C94161B7C010091A6011C
:101120001091A7018091A8019091A901082B192B7A
:10113000CFE0D0E0CC24C394D12CBC2EC6010C2E21
:1011400002C0880F991F0A94E2F780239123892B0C
:1011500049F4219790F7B12C8B2DCDB7DEB7E9E09C
:101160000C94321BB7018C2F0E94520F019789F308
:10117000F3CFCF93DF93EC010E948708BE010E945A
:10118000520FDF91CF9108951F93CF93DF93EB011F
:1011900090919901992339F0CB010E94B908DF9110
:1011A000CF911F910895882369F0CB010E94870891
:1011B000182F682FCE010E946408BE01812F0E9463
:1011C000520FEDCFCB010E947508182FF6CF1F9359
:1011D000CF93DF93C091AA0117E08091AB018C13EC
:1011E00004C0DF91CF911F910895D0E01C9FF001C2
:1011F0001D9FF00D1124E455FE4F20813181428165
:1012000053816481758186810E9470072196C77021
:10121000E4CF2091E4013091E5014091E601509145
:10122000E7016091E8017091E9018091EA010E9473
:1012300070070895CF93DF938091EA01807F09F0D2
:101240004DC08091E901882309F448C0E091AA01CA
:101250005091AB01C091E501D091E4016091E601AC
:101260007091E70147E05E17C9F18E2F90E0E49F8F
:10127000F0011124E455FE4F2481222391F1489F6F
:10128000F001499FF00D1124DF01A455BE4F1196C6
:101290002C9111972C1325C02C912D1322C015963B
:1012A0002C91159721111DC012962D913C91261B52
:1012B000370B283C3105A8F48091EA018F708061DA
:1012C0008093EA01EE54FE4F80818F7080618083AD
:1012D00084EE91E00E9400070E94E708DF91CF9121
:1012E0000895FC013196E770BECF482F2091AA01E6
:1012F0009091AB0157E0291302C080E0089530E0DF
:10130000529FF001539FF00D1124E455FE4F81814F
:10131000681306C08081481303C085818111EECF18
:101320002F5F3F4F2770E7CFA4E1B0E0EAE9F9E093
:101330000C94131B8C0186E0F801DE011F960190CE
:101340000D928A95E1F7F8018481E58094EEA92E4B
:1013500091E0B92E9091E80191111FC08823D1F03E
:10136000EE20A9F0C8010E945907F82E882379F0D1
:1013700087E0F801D50101900D928A95E1F7C5014A
:101380000E94CA030E941A090E9409095FC0C8018D
:101390000E940007FF24F39459C0C080D18082804E
:1013A0009380F090E9012091E6013091E701A401DA
:1013B000421B530BFF2009F4F9C0483C510508F0CB
:1013C000A7C0882309F442C09091E5018091EA0109
:1013D000282F207F09F05CC09D1116C09091E40178
:1013E000C91212C0E1104EC08F7080618093EA0173
:1013F0000E94090984EE91E00E9400078091EA01B1
:10140000F8018683F12C22C0E1103CC06D2D8C2D9B
:101410000E9475096D2D8C2D0E947509E82E811191
:10142000F1CFCF86D88A8F8598890E94B908292F55
:1014300022952F70243078F49F702230A8F09923E1
:10144000B9F0F8019681907F99F4FE2C8F2D649667
:10145000ECE00C942F1B2A5F2F70223068F0C8013B
:101460000E940007EF2CF1CF992311F0882369F334
:10147000805E883050F3F3CF803F38F3815F833054
:1014800070F7E3CF8091EA0181608093EA01BACFDF
:101490009D1113C09091E401C9120FC0E1100DC05D
:1014A0008683C8010E94000787E0F801A4EEB1E03E
:1014B00001900D928A95E1F767CFC8010E94590704
:1014C000882309F464CFEE2009F461CF8091EA010A
:1014D000803288F02091E4013091E5013987288736
:1014E0009B868A869091E8019C871D868E87CE0117
:1014F00008960E94000787E0F801A4EEB1E0019091
:101500000D928A95E1F70E941A090E94090942CFBB
:101510009091EA01292F207FA1F4682D9A8A898A67
:10152000A6017A899E2D0E94660784EE91E00E94B2
:10153000000787E0F50111928A95E9F70E940909F1
:1015400061CF882309F482CF8091E5018D1110C00D
:101550008091E401C8120CC0E1100AC09683C80152
:101560000E94000787E0F50111928A95E9F76ECF96
:10157000C8010E945907882309F409CFEE2009F415
:1015800006CF8091EA01803208F4B5CF2091E401C2
:101590003091E5013A8329839C828B829091E80106
:1015A0009D831E828F83CE010196A3CF483C5105B7
:1015B000B8F5882309F4EECEFE2CEE2009F4E7CE30
:1015C0008091E5018D111EC08091E401C8121AC0FE
:1015D0008091EA0180FD0DC0982F907F51F08683A5
:1015E000903F09F45ECF982F907F905F8F70892B8A
:1015F00057CF87E0F801A4EEB1E001900D928A95F3
:10160000E1F724CFC8010E945907811174CF80915E
:10161000EA0181608093EA01C8010E94000716CFA9
:10162000682D9A8A898AA6017A899E2D0E9466076A
:1016300087E0F50111928A95E9F7A6CEAEE0B0E019
:10164000E4E2FBE00C941C1B288739874A875B8700
:101650006C877D878E87CE0108960E949409882327
:10166000B1F06C85662341F0288539854A855B8514
:101670007D858E850E94700717E08091AA01909168
:10168000AB0189133DC02E96E3E00C94381B87E034
:10169000FE013896DE01119601900D928A95E1F7D0
:1016A0008C85882349F32091AB0130E0C901019674
:1016B000877099274091AA014817190699F097E079
:1016C000929FD001939FB00D1124A455BE4FFE01EF
:1016D000319601900D929A95E1F78093AB010E94AB
:1016E000E708CACF0E9439071092AB011092AA01F5
:1016F00087E0E4EEF1E0DF011D928A95E9F7BCCFC7
:10170000819FC001112484559E4F0E949409882313
:1017100009F4B9CFE091AA011E9FF0011124E4550C
:10172000FE4F2081318142815381648175818681A0
:101730000E9470078091AA0190E001968770992716
:101740008093AA019ACF8091EB0186958695869524
:1017500008958091EB01877008959091EB01977047
:1017600081E009F480E008958091F7010895909157
:10177000F701892B8093F701089580959091F701E7
:1017800098239093F70108951092F701089590918E
:10179000F601892B8093F601089580959091F601CA
:1017A00098239093F60108951092F60108950895F4
:1017B0000E94D70B08959091EC01292F282331F036
:1017C000809589238093EC010E94D80B0895089599
:1017D0000E94E70B08959091ED01292F28232817E7
:1017E00029F0982B9093ED010E94E80B08959091B9
:1017F000ED01292F282331F0809589238093ED0175
:101800000E94E80B08958091ED01882329F0109241
:10181000ED0180E00E94E80B08950F931F93CF9392
:101820000091000110910101C091F7018091F60132
:10183000C82B8091ED01882331F0C82B0E946316DC
:1018400081110E94030CF801C083809100019091E6
:1018500001010E940016CF911F910F9108950E94DF
:101860000D0C089508950E94320C08959091340251
:1018700092FF11C098E0899F90011124622B609320
:10188000EB010E94C2078091EB01869586958695B3
:101890000E94330C08950E94C20708951092EB0134
:1018A00080E00E94330C08959091EB01809589238C
:1018B0008093EB01282F277069F4891759F09091D4
:1018C000340292FF07C08695869586950E94D207BE
:1018D0000E944E0C08959091340292FB222720F929
:1018E000281769F080FB92F99093340280913302BB
:1018F000909134020E94B30C82E00E94540C08952F
:101900008091340282FB882780F991E089270E9428
:101910006B0C089581E00E946B0C089580E00E949A
:101920006B0C08956FEF7FEF90E080E00E94AA1BA0
:10193000089590E080E00E94761B21E0853E9E4F56
:1019400009F020E0822F089582E090E00E946E1B53
:10195000089583E090E00E946E1B089584E090E07B
:101960000E94761B0895BC0184E090E00E94AA1BAF
:101970000895AB01BC018FE090E00E949E1B08958A
:10198000AB01BC0183E190E00E949E1B089560E0E2
:1019900070E0CB010E94C00C089560E070E0CB01C4
:1019A0000E94B90C0E94C70C0895A8E0B0E0EBEDCE
:1019B000FCE00C941D1B65EE7EEF90E080E00E9441
:1019C000AA1B60E082E090E00E948C1B81E090E026
:1019D0009093A9018093A80161E083E090E00E94C8
:1019E0008C1B60E074E184E090E00E94AA1B60E040
:1019F00086E090E00E948C1B60E087E090E00E940F
:101A00008C1B40E050E0BA0188E090E00E949E1BF1
:101A100060E083E290E00E948C1B60E08CE090E04C
:101A20000E948C1B60E08DE090E00E948C1B19826C
:101A30001A821B821C821D821E821F82188648E029
:101A400050E067E170E0CE0101960E947C1B40E00F
:101A500050E0BA018FE190E00E949E1B0E94CD0CE5
:101A60002896E2E00C94391B0E94D50C0895682F4B
:101A70008EE090E00E948C1B0895A6E0B0E0E3E4C5
:101A8000FDE00C941B1B0E947A178C018091F801D9
:101A90009091F9018017910781F019821A820E94B2
:101AA0007A17682F49815A81792F80E090E00E944F
:101AB0009A031093F9010093F8012696E4E00C9440
:101AC000371B0E9486176093030270930402809371
:101AD0000502909306026093FF01709300028093C9
:101AE0000102909302020895089508950E94740DD2
:101AF000089508950E94790D089588E490E10E9468
:101B000093110E94750D0E94760D089581E008954D
:101B10000E94860D08950E94860D089508950895E7
:101B20000E948E0D0E948F0D08950E94990C8111C4
:101B300002C00E94340D0E94A40C809307020E94F0
:101B4000AE0C90933402809333020E94B6110E942F
:101B5000A90C90E00E9486078091A6019091A701B0
:101B60000E94A70708950E9471170E94F3100E9417
:101B7000950D0E9474030E947A0D0895A6E0B0E0CE
:101B8000E4ECFDE00C94141B0E94880D81110AC046
:101B90000E943D0D0E9455140E9481032696EBE0A1
:101BA0000C94301B0E9409118AEFA82E81E0B82EF8
:101BB000750110E0F70101917F01812F0E94521001
:101BC0001F5F153009F441C00817A1F38091070287
:101BD00081FD0E9458100E948B0DC82E10E09924A0
:101BE0009394812F0E945210082FF50181915F017B
:101BF000081729F1F12CEE24E394D02ED8268D2D50
:101C00008E21A9F0CC2099F0F9821A830E947A17CC
:101C10009C838B839D8291E0802F8E2109F490E03C
:101C200049815A816B817C818D810E949A03F39452
:101C3000EE0CF4E0FF12E3CFF501319700831F5F54
:101C4000153079F60E94610DA5CF0813BFCFA0CF44
:101C50001F93CF93DF930E94570FEC01C11580E5CE
:101C6000D807F0F5C11580E4D80708F09CC0C03E45
:101C7000D10520F5CD3CD10508F082C0C83AD10588
:101C800078F4C53AD10508F073C0C130D10519F117
:101C9000209709F1C430D105F0F4D0E0C0E01BC0BA
:101CA000C33CD105D0F7C85AD0E0CC0FDD1FC05BD4
:101CB000DE4F0990D881C02DD4640DC0C11580E2DB
:101CC000D80708F0D1C0C11581E0D80708F05AC084
:101CD000C83ED10510F7CE01DF91CF911F91089535
:101CE000C03682E5D80718F5C03482E5D80708F079
:101CF0006BC0C03282E5D80708F05FC0C11582E52D
:101D0000D80708F497C02C2F2695269580E2289FA7
:101D1000900111248C2F8370C1E0D0E002C0CC0F61
:101D2000DD1F8A95E2F7C22BD32BDD68D4CFC03AF2
:101D300082E5D80760F4C03882E5D80708F459C0B6
:101D4000CF71D0E0DC2FCC27C46FD06AC4CFC03CA9
:101D500082E5D80708F462C0C03E82E5D80708F0E3
:101D60009CCFDC2FCC27CC27DF71C06FD06AB3CFDC
:101D7000C55AD0E0CA57DE4FC881D0E0D064ABCF9F
:101D8000D065A9CF8D2F0E94F90F182FCE0199276A
:101D90000E94570FC12FD0E0DC2FCC27CC27DF715A
:101DA000C82BD92B98CFCE0199270E94570FCC274B
:101DB000DF70C82BD92BD06A8ECFCF71D0E0DC2F4B
:101DC000CC27C16FD06A87CF2C2F269526952770F8
:101DD00080E2289F900111248C2F8370C1E0D0E015
:101DE00002C0CC0FDD1F8A95E2F7C22BD32BDC6833
:101DF00072CF2C2F26952695277080E2289F900180
:101E000011248C2F8370C1E0D0E002C0CC0FDD1F05
:101E10008A95E2F7C22BD32BDA685DCF8C2F8F71B6
:101E20000E94F90FC82FD0E0DC2FCC27CC27DF7120
:101E3000D06251CF8C2F8F710E94F90F55E0D6954B
:101E4000C7955A95E1F7CF70D0E0DC2FCC27282F2B
:101E500030E084FF05C044E0220F331F4A95E1F7CC
:101E6000C22BD32BD06937CF8D2F8F710E94F90FE2
:101E7000182FCE0199270E94570FC12FD0E0DC2FD9
:101E8000CC27CC27DF71C82BD92BD2CF462F75306A
:101E900030F4643020F4672F0E947A02089590E0B5
:101EA00080E008950E94460F0E94280E089582380F
:101EB0009105B9F1B0F48133910509F47DC048F47E
:101EC0008932910509F46DC08A32910509F47BC00D
:101ED00008958533910509F45FC08933910509F1AF
:101EE0000895833E9105D9F138F4803E910529F19A
:101EF000823E910579F10895863E9105D9F1873E9C
:101F0000910509F43EC0843E910541F520913402CB
:101F100021FF24C08091330284FD19C087EE90E038
:101F2000089520913302237009F05AC020913402A1
:101F300023FF14C089E290E008952091330220FD30
:101F400038C03091340230FF09C024FF43C090E014
:101F500080E008952091330222FDF7CF089520916B
:101F6000330222FD3AC03091340230FD39C024FFE3
:101F7000F5CFEDCF2091330223FFF0CF24FDE7CF43
:101F8000CDCF2091330223FD2EC03091340231FF9A
:101F9000EECF84EE90E008952091330225FFDECF4E
:101FA000C9CF2091330225FD21C02091340223FFA7
:101FB000D5CF89E390E0D2CF2091330226FFCECF58
:101FC0008AE290E008952091330226FFC7CF81E393
:101FD00090E0089583EE90E0089582EE90E00895F9
:101FE00080EE90E0089586EE90E0089585E390E01D
:101FF00008959091330292FF10C041E0282F247180
:10200000243009F040E031E0282F2871283009F011
:1020100030E0431711F02CE0822793FF10C041E01D
:10202000282F2471243109F040E031E0282F287155
:10203000283109F030E0431711F02CE0822730916D
:10204000340230FF10C051E0282F2171213009F0F7
:1020500050E041E0282F2871283009F040E0541763
:1020600011F029E0822731FF10C041E0282F2171B3
:10207000213109F040E031E0282F2871283109F0A2
:1020800030E0431711F029E0822794FD877E089500
:1020900080E0089508950E944A10089508950E94CE
:1020A0004E100895E82FF0E0E65CFD4F8081089522
:1020B000089580EA8A95F1F7089500C008950E9476
:1020C00059100895F894E82FE295EF70F0E031A1EF
:1020D000282F2F7081E090E001C0880F2A95EAF741
:1020E000982F9095932391A392A1892B82A3789402
:1020F0000895CF93DF93CDE8D1E089918F3F11F020
:102100000E94621081E0C239D807B9F780E60E94C8
:10211000621081E60E94621082E60E94621083E6ED
:102120000E946210DF91CF910895B0E0A0E0EBE94A
:10213000F0E10C94171BEC01D62E062F10E0C8011D
:1021400083579E4F7C01FC0180818F3F09F444C07E
:10215000F894E82FE295EF70F0E091A18F7021E004
:1021600030E001C0220F8A95EAF7892F822B81A3E4
:1021700082A12095282322A378940E945D10E9E88B
:10218000F1E031E0C12C21912F3F59F1A22FA2950E
:10219000AF70B0E090968C9190E02F7002C0959552
:1021A00087952A95E2F780FD1CC0832FC82A330F3C
:1021B00081E0ED38F80739F7F70180818F3F11F0A2
:1021C0000E94621061E0C11001C060E08D2D0E948C
:1021D0005F10C00FD11FC882CDB7DEB7E8E00C9406
:1021E000331B80E0E3CF0E94791085E0EAE3F2E060
:1021F000DF01982F1D929A95E9F7E5E3F2E0DF0100
:102200001D928A95E9F785E00E9444110E944B10C7
:102210000895A5E0B0E0EFE0F1E10C941A1B8E0107
:102220000F5F1F4F85E0F80111928A95E9F7F12CB5
:102230006F2DC8010E949510F394F5E0FF12F8CFBE
:1022400045E050E0B80185E392E00E94581B21E090
:10225000009709F420E0892B41F085E0F801A5E31F
:10226000B2E001900D928A95E1F745E06AE372E0F1
:1022700085E392E00E944511182F0E944F10812F94
:102280002596E5E00C94361B0895B0E0A0E0EBE461
:10229000F1E10C94171B6C017B01042FC22F222348
:1022A00079F081E080930A020E947A1790930902E4
:1022B0008093080280E0CDB7DEB7E8E00C94331BD2
:1022C000D0910A02DD23B1F38091080290910902B6
:1022D0000E949217059770F310E0A801B601C7019C
:1022E0000E94581B892B31F0A801B601C7010E943A
:1022F000651BCD2F10920A028C2FDDCF0E9419177B
:102300000E9406180E947D0D0E9416180E94B30DAF
:102310000E9427180E9435180E9462180E946E18A9
:102320000E94900DF7CF90939301809392010895AE
:102330000E94920C089580E00E94521081700895CE
:102340000E9409112FEF86E791E0215080409040D4
:10235000E1F700C000000E9409110E949B11882330
:1023600021F00E9498110E94C51708950E94A011A3
:102370000895CF93DF93EB0186319C4711F50E94BE
:10238000B40B9D81992399F08A7A91E009F490E049
:1023900090930B02811109C089E20E94B3160E943A
:1023A0002F0C80E0DF91CF91089585E3F6CF8091E7
:1023B0000B02811104C089E20E94BB16F0CF85E3B5
:1023C000FBCF81E0EFCFCF93DF93EC01FB01858161
:1023D000882309F4D2C09E0130572332310508F01A
:1023E000B2C00E94AE0C9093340280933302FE017F
:1023F000E150F047E232F10520F4E253F44E0C9440
:10240000071B8091330281608093330293C08091D7
:1024100034028860809334028DC0809133028260E0
:10242000F3CF809133028460EFCF809133028860D4
:10243000EBCF809134028160EDCF809134028260D5
:10244000E9CF809133028061DFCF809133028062D7
:10245000DBCF809133028064D7CF0E94390780910F
:1024600033028068D1CF809133028C60CDCF8091D0
:1024700034028360CFCF809133028E7FC5CF8091AD
:102480003402877FC7CF809133028D7FBDCF80918B
:1024900033028B7FB9CF80913302877FB5CF809194
:1024A00034028E7FB7CF809134028D7FB3CF80917D
:1024B00033028F7EA9CF809133028F7DA5CF80918B
:1024C00033028F7BA1CF0E943907809133028F772F
:1024D0009BCF80913302837F97CF809134028C7F92
:1024E00099CF8091330282FB992790F921E09227BE
:1024F00090FB82F990FB83F987CF80913402982F6B
:10250000909591708E7F892B90FB81F983CF90916C
:102510003302892F8F7B96FF806476CF0E94390724
:1025200090913302892F97FB87F980586DCF81E016
:102530000E94370D80913302909134020E94B30CB7
:102540000E94390780E0DF91CF91089580E0F0CFBD
:1025500090913302892F8F7E94FF806155CF9091A7
:102560003302892F8E7F90FF81604ECF909134028D
:10257000892F877F93FF88604DCF81E0E4CF282F9C
:1025800035EB2303C001112497FF04C08058910943
:10259000892F089580589F4FFBCF8091120280FFB2
:1025A0000DC06091070170E0660F771F60387105FC
:1025B00070F56115710569F1862F089581FF07C0D7
:1025C0006091070184E0689FB0011124EFCF609112
:1025D000070182FD0AC0809111028823A9F0209191
:1025E000060160910701821710F088E0ECCF869F0A
:1025F000C001112433E0880F991F3A95E1F7622F4B
:1026000070E00E94F31AD2CF68E070E0D5CF8FE778
:10261000089581E008958091120280FF0CC06091BE
:10262000030170E07595679575956795611571055E
:1026300049F1862F089581FF06C06091030170E083
:1026400075956795F3CF6091030182FD0BC0909162
:1026500010029923A1F06091020180910301961765
:1026600038F0682F70E06038710500F38FE7089547
:10267000899FC001112470E00E94F31AF4CF61E039
:1026800070E0D7CF81E008958D3C31F40E94CD12E7
:1026900081958093160208958E3C19F40E94CD1204
:1026A000F8CF8F3C31F40E94CD12819580931502B2
:1026B0000895803D19F40E94CD12F8CF893D29F488
:1026C0000E940B138093170208958A3D21F40E9403
:1026D0000B138195F7CF8B3D31F40E940B1381953D
:1026E0008093180208958C3D19F40E940B13F8CFC3
:1026F0009FE2980F983070F4815D990B21E030E0F3
:1027000001C0220F8A95EAF780911402822B8093F0
:10271000140208958D3D31F48091120281608093FE
:10272000120208958E3D21F4809112028260F7CF4B
:102730008F3DB9F7809112028460F1CF409115026C
:102740008D3C59F48091160287FF0DC0109216023D
:1027500041110BC01092110208C08E3C81F480918F
:10276000160218169CF3442381F080911702909171
:102770001802892B09F05AC01092100208958F3C5C
:1027800049F447FFF0CF1092150280911602811193
:10279000ECCFE0CF803D19F41416ACF3E4CF909168
:1027A0001702893D29F41916F4F610921702DBCFAF
:1027B0008A3D19F497FFD7CFF8CF909118028B3D3F
:1027C00029F497FFD0CF10921802CDCF8C3D19F489
:1027D0001916CCF3C8CF9FE2980F983090F4815D22
:1027E000990B21E030E0B90102C0660F771F8A958E
:1027F000E2F7CB0180959091140289238093140213
:10280000B2CF8D3D31F4809112028E7F80931202FF
:10281000AACF8E3D21F4809112028D7FF7CF8F3D9C
:1028200009F0A1CF809112028B7FF0CF08950E9412
:102830007A179C019091150280911602982B21F035
:1028400030930F0220930E0290911702809118028C
:10285000982B21F030930D0220930C0283E192E03B
:102860000E940B16089586E0E3E1F2E0DF011D927D
:102870008A95E9F71092110210921002109212023A
:102880000895FC01828181110EC0838181110BC0EA
:102890008481811108C091E08581811101C090E09F
:1028A000892F8170089581E0FCCFA6E0B0E0EBE5D0
:1028B000F4E10C941C1B86E0E3E1F2E0DE011196EA
:1028C00001900D928A95E1F710921502109216026E
:1028D00010921702109218028B819C81892B89F02B
:1028E00080910E0290910F020E949217AC0190917C
:1028F00011029923C9F1809108018417150608F483
:1029000040C08D819E81892B91F080910C02909125
:102910000D020E949217AC0190911002992309F4C4
:102920006AC0809104018417150608F472C0BE01C4
:102930006F5F7F4F83E192E00E94CE16811105C048
:1029400083E192E00E94411481110E94171486E0F5
:10295000FE013196A3E1B2E001900D928A95E1F774
:102960002696E3E00C94381B209109018AE0289F09
:10297000900111242417350720F69F5F90931102D0
:1029800002C09F3FD1F71B81112359F00E94CD1245
:102990009FEF11160CF491E0899F802D11248093F4
:1029A00015021C81112359F00E94CD129FEF1116C0
:1029B0000CF491E0899F802D112480931602809160
:1029C0001502882309F49DCF10911602112309F4F2
:1029D00098CF0E94BF12882351F080931502812F57
:1029E0000E94BF12882329F0809316028ACF81E0CB
:1029F000F4CF81E0F9CF209105018AE0289F900172
:102A000011242417350708F092CF9F5F909310028E
:102A100002C09F3FD1F71D81112359F00E940B1373
:102A20009FEF11160CF491E0899F802D1124809363
:102A300017021E81112359F00E940B139FEF1116EC
:102A40000CF491E0899F802D1124809318028091CD
:102A50001702882309F46BCF10911802112309F48F
:102A600066CF0E94BF12882351F080931702812FF6
:102A70000E94BF12882329F08093180258CF81E06A
:102A8000F4CF81E0F9CF0F931F93CF93DF93C42F3F
:102A9000D22FFC0185818823C9F040931B020E943C
:102AA0007A1790931A028093190280E28C0F883073
:102AB00040F4C77081E001C0880FCA95EAF70E9410
:102AC000E604DF91CF911F910F91089510911B02A1
:102AD000141332C08091190290911A020E94921729
:102AE000883C910548F5C0E2CD0F1D17B9F080E292
:102AF000810F883040F4177081E001C0880F1A956B
:102B0000EAF70E94ED04C83048F481E09D2F9770E9
:102B100001C0880F9A95EAF70E94E604802F0E9470
:102B2000DD04C83070F6D77081E001C0880FDA95F7
:102B3000EAF70E94ED04C5CF80E28C0F883008F6DA
:102B4000C77081E001C0880FCA95EAF7F2CF0F93F2
:102B5000DB0188519C4787309105A0F5FC01E051CD
:102B6000F44E0C94071B06E221EE41EE6AE17CE78D
:102B7000CD010E94431580E00F91089507E225EEF4
:102B800045EE6BE17CE7F4CF06E221EE40EE68E132
:102B90007CE7EECF07E225EE44EE69E17CE7E8CF83
:102BA00006E221EE42EE6CE17CE7E2CF07E225EEA1
:102BB00046EE6DE17CE7DCCF08E221E045EE6EE118
:102BC0007CE7D6CF15968C91882319F010921B02C2
:102BD000D3CF81E0D1CF909321028093200208953A
:102BE000E0912002F0912102309729F00190F081CC
:102BF000E02D0995089580E008950E94F01508954C
:102C0000E0912002F0912102309721F00280F381BF
:102C1000E02D09950895E0912002F091210230976E
:102C200039F022E0DC012C930680F781E02D099534
:102C30000895A3E0B0E0EFE1F6E10C941D1B2091B4
:102C40001E0230911F0228173907A1F090931F022E
:102C500080931E02E0912002F0912102309751F002
:102C600023E029839B838A830084F185E02DCE01B4
:102C7000019609952396E2E00C94391BA3E0B0E09D
:102C8000E4E4F6E10C941D1B20911C0230911D021E
:102C900028173907A1F090931D0280931C02E09140
:102CA0002002F0912102309751F024E029839B8388
:102CB0008A830084F185E02DCE0101960995239643
:102CC000E2E00C94391B40910001509101019A01FE
:102CD0002E5F3F4F485F5F4F80E02417350709F4B0
:102CE0000895F90191919F019923B9F38F5FF5CF71
:102CF000882371F02091000130910101F901329691
:102D0000285F3F4F9191981729F0E217F307D1F709
:102D100080E0089581E008959C01FC0132969FEFC8
:102D200080E04191461751F09F3F19F4411101C0D5
:102D3000982F8F5F8630A9F79F3F09F40895290FD8
:102D4000311D97FD3A95F90162830895FC01329691
:102D500008962191261303C0DF0111971C92E817F2
:102D6000F907B9F70895682F80910001909101014A
:102D70000E948C160895682F8091000190910101A6
:102D80000E94A6160895E0910001F091010132968B
:102D900086E0DF011D928A95E9F70895DC01FB01C9
:102DA00011969C9111978181981322C012968C9153
:102DB0001297882319F0928189131AC013968C9167
:102DC0001397882319F09381891312C015968C915B
:102DD0001597882319F0958189130AC014969C9140
:102DE000992321F081E02481291303C080E001C0F0
:102DF00081E081700895089508950E94FC16089559
:102E0000089508950E94FB160895CF930E9400171D
:102E10000E9409110E940117C0E08C2F0E945210DD
:102E2000811105C0CF5FC530C1F7CF91089581E012
:102E3000FCCF08951F921FB61F9211248F939F936A
:102E4000AF93BF9380912202811113C080913F0202
:102E500090914002A0914102B09142024196A11D81
:102E6000B11D80933F0290934002A0934102B09322
:102E70004202BF91AF919F918F911F901FBE1F90F3
:102E8000189580912502882331F10E9458031092F1
:102E9000220288E190E020E40FB6F894A895809390
:102EA00060000FBE2093600083B7817F846083BF82
:102EB00083B7816083BF7894889583B78E7F83BF03
:102EC0000FB6F894A89580916000886180936000A7
:102ED000109260000FBE08950E9439070E945D03A2
:102EE000089582E084BD93E095BD9AEF97BD8093ED
:102EF0006E0008952FB7F89480913F0290914002A0
:102F0000A0914102B09142022FBF08952FB7F894CB
:102F100060913F0270914002809141029091420283
:102F20002FBF08959C014FB7F89480913F02909174
:102F30004002A0914102B09142024FBF821B930B0D
:102F4000089578941F921FB61F9211248F939F9318
:102F5000AF93BF9380913F0290914002A0914102B4
:102F6000B09142020196A11DB11D80933F02909342
:102F70004002A0934102B0934202BF91AF919F9152
:102F80008F911F901FBE1F90189588E198E00FB693
:102F9000F894A895809360000FBE90936000A89568
:102FA000F894D8E0CEEF28E3299320E0299314BECB
:102FB000FFCF089588E198E00FB6F894A895809324
:102FC00060000FBE90936000FFCF80916A0288235B
:102FD00069F010926A020E947A17909324028093FB
:102FE00023021092250280912502089580912502E6
:102FF0008111F9CF80912302909124020E949217AF
:10300000069788F381E080932502EDCF0E947A171E
:10301000909324028093230280E890E00FB6F89406
:1030200080936100909361000FBE08950E94D81AAA
:10303000539A80E0815019F4539878940895A89594
:10304000EFE9FFE03197F1F700C00000F3CF0E94F5
:10305000EE180E94EB152FEF80E792E021508040A0
:103060009040E1F700C000000895CF930E94E5175B
:10307000CCE0811120C0CF9108950E9441170E9499
:1030800005178823C1F0F8949AB15B9A892F8C6058
:103090008AB98BB18C278BB92FE738E381E02150B7
:1030A00030408040E1F700C000008BB18C278BB925
:1030B0009AB95B9878940E94E5178111DECF0E943F
:1030C0006C17D9CF0E94E81980917002882329F0EB
:1030D00080914E0284FD0E94BE0D08950895809156
:1030E00032020895FF920F931F93CF93DF93D82F4F
:1030F0008B01F42EC5E0D13039F0D33071F0CDB76B
:10310000DEB7E5E00C94361B80914E0284FF0EC0C2
:103110006F2DC8010E94DE19F2CF8091870284FFD3
:1031200005C06F2DC8010E94E319E9CF0E94E8197C
:103130008FE19EE40197F1F700C00000C150D9F67D
:10314000DECFB0E0A0E0E7EAF8E10C94171BE82E30
:103150008B01EA016A0183E0D694C7948A95E1F76E
:10316000F12CFC141D0468F0C77031F04C2F50E0B6
:10317000B8018E2D0E947218CDB7DEB7E8E00C942E
:10318000331B48E050E0B8018E2D0E947218085F92
:103190001F4FF394E6CF43E050E0BC0183E00E9470
:1031A000A118089546E050E0BC0183E00E94A118F8
:1031B0000895CF93DF93EC0148E050E0BC0181E03B
:1031C0000E94A11888E0FE01A9E2B2E001900D92F0
:1031D0008A95E1F7DF91CF91089508958AE091E013
:1031E0000895FC0180818076803241F481818330B2
:1031F000A9F130F48130F1F0823041F180E008959E
:103200008A3079F18B3089F18930C1F782819381DD
:103210008115924069F484819581892B49F481E07C
:1032200080932802868197819093270280932602BB
:103230008FEF089584819581892B01F789E292E0CF
:1032400090936C0280936B0288E0089581E392E092
:1032500090936C0280936B0281E0089584E191E089
:10326000F7CF838180933102C9CF84819581892BE7
:1032700029F6828180931401C1CFFC01809126023E
:1032800090912702892B61F080912802813041F4CE
:103290009081909332021092270210922602089594
:1032A0008FEF08950895FC019381933051F130F42C
:1032B0009130B9F09230E9F080E008959132D9F17F
:1032C0009232D1F784819581009709F446C0019725
:1032D00099F787E191E090936C0280936B028BE702
:1032E00008958BEC90E090936C0280936B0282E1E6
:1032F000089580E990E090936C0280936B028BE3D9
:1033000008958281813079F0882329F08230A1F6F6
:103310008DED90E0E8CF83E191E090936C02809393
:103320006B0284E0089581EF90E090936C028093AB
:103330006B0280E2089584819581009731F00197B6
:1033400009F0BACF8BEB90E002C082EA90E0909354
:103350006C0280936B0289E0089582E991E090937A
:103360006C0280936B0284E408951F93CF93DF93E4
:10337000E82F792F162FEA01888184FF1CC029814C
:1033800088E828272983CE010296DC012E2F372FCB
:10339000512F5E0FF90121912D939F01452F4E1B57
:1033A0001416C4F3612F0E941F011C5F1883DF9164
:1033B000CF911F9108958AE58883E5CF4EE452E0CE
:1033C0000E94B519089547E852E00E94B519089582
:1033D000CF93DF9360916D02635067FD12C08091BF
:1033E0006902CCE0D0E0C81BD109CF58DD4F8091F5
:1033F0006802803108F054C0CE010E945219109228
:103400006D028091160184FF3EC0809115018F3FAF
:10341000D1F1C82F893008F0C8E0982F9C1B9093F9
:1034200015019091430228E8922790934302882344
:10343000E9F080916B0290916C022091670226FF67
:10344000AEC0FC012C2FA4E4B2E034913D93319640
:103450002150D9F79C012F5F3F4F8FEF8C0F820FC8
:10346000932F911D90936C0280936B026C2F84E4D8
:1034700092E00E941F01CC5FCC3019F08FEF809357
:103480001501C093160184E199B19C7031F481500B
:10349000D9F710926E0210926602DF91CF910895D3
:1034A0008D3209F069C0683009F0A9CF83EC8093B0
:1034B00043028AE580931601109267028881807624
:1034C00071F0CE010E94F1188F3FC1F4988197FDF1
:1034D0008E8190E8909367028093150190CF2A81A6
:1034E00010924C029981911111C010924D022CE45E
:1034F00032E082E030936C0220936B029F81911145
:10350000EBCF9E81981740F7892FE6CF953029F4AD
:1035100020936E022CE432E0EDCF963099F49B813B
:10352000913021F4CE010E94531908C09230D1F39A
:103530009330C1F39132B1F39232A1F390E49093BE
:103540006702C2CF983089F0993019F42093700245
:10355000E1CF9A3071F09B30E9F69BE490934F02F3
:103560009093880290935B02D5CF20E732E081E010
:10357000C1CF2CE432E0FBCF8091670287FF3FCFC1
:10358000CE010E943D198F3F21F48EE180931601F8
:1035900036CF882309F433CF1092150130CFDC01E8
:1035A0002C2FE4E4F2E03D9131932150E1F752CF2A
:1035B000CF93DF93E9E6F0E0808188608083E99A29
:1035C000CEE4D2E08BE48983A7E8B2E011968C9335
:1035D0001197EAE5F2E081838AE588838C93808302
:1035E000DF91CF91089597FB072E16F4009407D032
:1035F00077FD09D00E94441B07FC05D03EF490954E
:1036000081959F4F0895709561957F4F0895EE0FB6
:10361000FF1F0590F491E02D09942F923F924F9255
:103620005F926F927F928F929F92AF92BF92CF9252
:10363000DF92EF92FF920F931F93CF93DF93CDB75B
:10364000DEB7CA1BDB0B0FB6F894DEBF0FBECDBFD3
:1036500009942A88398848885F846E847D848C84A4
:103660009B84AA84B984C884DF80EE80FD800C81AD
:103670001B81AA81B981CE0FD11D0FB6F894DEBF90
:103680000FBECDBFED010895AA1BBB1B51E107C0C2
:10369000AA1FBB1FA617B70710F0A61BB70B881FE2
:1036A000991F5A95A9F780959095BC01CD01089571
:1036B000FB01DC0104C08D910190801921F441507F
:1036C0005040C8F7881B990B0895FB01DC0102C02C
:1036D00001900D9241505040D8F70895F999FECFCE
:1036E00092BD81BDF89A992780B50895A8E1B0E010
:1036F00042E050E00C94B21BDC01A40FB51F415016
:10370000504048F0CB01840F951F2E910E948D1BD5
:1037100041505040D0F70895262FF999FECF92BD21
:1037200081BDF89A019700B4021639F01FBA20BD86
:103730000FB6F894FA9AF99A0FBE08950396272FB8
:103740000E948D1B0E948C1B252F0E948D1B242FF5
:103750000C948D1B0196272F0E948D1B0C948C1BA3
:10376000DC01CB01FC01F999FECF06C0F2BDE1BD41
:10377000F89A319600B40D9241505040B8F7089530
:10378000F894FFCF3505350585058505EA0506065C
:10379000640564050B067C068B068B063B12AF1294
:1037A00043120D121112471215124B125712211209
:1037B000A81225125B1229125F1287122D126312B2
:1037C0008E1233126912711219124F121D125312F6
:1037D00037126D127D129712A61207123F12B612FF
:0E37E000C415CA15B315BE15D015D615DC15C7
:1037EE00EE01280850011E0A14016F18D918ED18A1
:1037FE00D218CB1801FF5AE200E900EA00B500B674
:10380E0000B700CD008301CC008A01920194012102
:10381E0002230224022502260227022A02B300B442
:10382E00006F0070009F01CB019F02A00281828376
:10383E00E200E900EA00B500B600B700CD00830152
:10384E00CC008A0192019401210223022402250256
:10385E00260227022A02B300B4006F0070009F01F7
:10386E00CB019F02A0028182836061626331309737
:02387E0096941E
:00000001FF
