:100000000C94F3050C9410060C9410060C94372CE9
:100010000C9410060C9410060C9410060C94100608
:100020000C9410060C9410060C94C9120C94D8165B
:100030000C94D8230C9410060C9410060C94100603
:100040000C9410060C9410060C9410060C941006D8
:100050000C9410060C94A2130C9410060C94100629
:100060000C9410060C9410060C9410060C941006B8
:100070000C9410060C9410060C9410060C941006A8
:100080000C9410060C9410060C9410060C94100698
:100090000C9410060C9410060C9410060C94100688
:1000A0000C9410060C9410060C941006000000002E
:1000B0000000000000000000000000000000000040
:1000C0000000000000000000000000000000000030
:1000D0007E0F00D4FFFFFFC7000000780000000083
:1000E000000000002A2B2800000000000000000093
:1000F0000000000000000029000000002C1E342039
:10010000212224342627252E362D3738271E1F205E
:100110002122232425263333362E37381F040506A3
:100120000708090A0B0C0D0E0F10111213141516E7
:100130001718191A1B1C1D2F3130232D35040506E5
:100140000708090A0B0C0D0E0F10111213141516C7
:100150001718191A1B1C1D2F3130354C0102E26093
:100160000103E2002A00130012000C0018001C001A
:10017000280033000F000E000D000B005200380065
:10018000370036001000110035324F00510050008A
:100190006524417E1700150008001A00140029008C
:1001A0000A0009000700160004002B2205001900B0
:1001B00006001B001D00E1002C002A00407EE30029
:1001C000E200E0000000000000000000000000006D
:1001D000000000000000000000000000000000001F
:1001E000000000000000000000000000000000000F
:1001F00000000000000000000000000000000000FF
:1002000000000000000000000000000000000000EE
:1002100000000000000000000000000000000000DE
:10022000000000004C00310030002F002E002D0097
:100230000100340033000000000000004B003500D6
:10024000370036000000000001004D004E004A005B
:10025000000001003E003D003C003B003A00010070
:1002600043004200410040003F000100437E000087
:10027000000045004400010001004C0001000100A5
:10028000010001000000000000000000000000006C
:10029000000000000000000000000000000000005E
:1002A000000000000000000000000000000000004E
:1002B000000000000000000000000000000000003E
:1002C000000000000000000000000000000000002E
:1002D000000000000000000000000000000000001E
:1002E0000000000000002700260025002400230055
:1002F00001003400230022002100000000008700DC
:1003000020001F001E0000000100380036003700EA
:10031000270001002200210020001F001E00010014
:1003200000000000000000000000010000000000CC
:1003300000000000000001000100010001000100B8
:1003400001000100000000000000000000000000AB
:10035000000000000000000000000000000000009D
:10036000000000000000000000000000000000008D
:10037000000000000000000000000000000000007D
:10038000000000000000000000000000000000006D
:10039000000000000000000000000000000000005D
:1003A0000000000000004B004A00D900DB00000004
:1003B00000004E004D00DA00DC000000CD0000001F
:1003C000D200D100000000000100D000CE00CF001C
:1003D00000000100000014701570447E007C0000D5
:1003E00000002778257823782078000000002878FE
:1003F0002678247821780100000000000100010027
:1004000001000100000000000000000000000000EA
:1004100000000000000000000000000000000000DC
:1004200000000000000000000000000000000000CC
:1004300000000000000000000000000000000000BC
:1004400000000000000000000000000000000000AC
:10045000000000000000000000000000000000009C
:100460000000000000DA0281FFD9F1DB20A4A62EF3
:10047000AF00A0C0D30000A1C8D30000AED580A8B3
:100480001F408D1420007F3F1F643214783C1E00F3
:100490000101010101010101010202020202020245
:1004A0000202030303030303030304040404040418
:1004B00004050505050506060606060707070707DE
:1004C00008080808090909090A0A0A0B0B0B0C0C91
:1004D0000C0D0D0D0E0E0E0F0F0F1010111111122D
:1004E0001213131414151516161717181819191AAC
:1004F0001A1B1B1C1D1D1E1E1F202021222223240F
:1005000024252626272829292A2B2C2D2D2E2F304D
:10051000313232333435363738393A3B3C3D3E3F61
:10052000404142434445464748494A4C4D4E4F504E
:10053000515354555658595A5B5D5E5F616264650C
:100540006668696B6C6D6F7072737577787A7B7D96
:100550007E8082838587888A8C8E8F9193959698EA
:100560009A9C9EA0A2A3A5A7A9ABADAFB1B3B5B706
:10057000BABCBEC0C2C4C6C9CBCDCFD1D4D6D8DBDD
:10058000DDDFE2E4E7E9EBEEF0F3F5F8FAFDFFFF7B
:10059000AA7F554000AF00AE05010902A101850206
:1005A0000901A1000509190129081500250195086F
:1005B000750181020501093009311581257F9502F8
:1005C0007508810609381581257F95017508810612
:1005D000050C0A38021581257F950175088106C032
:1005E000C005010906A101050719E029E715002545
:1005F00001950875018102950175088101050719AA
:100600000029FF150026FF009506750881000508E2
:10061000190129051500250195057501910295011E
:1006200075039101C009023B00020100A0FA090410
:100630000000010301010009211101000122440011
:1006400007058103080001090401000103000000FF
:100650000921110100012249000705820320000140
:100660001201000200000008EDFEA3DF10000102ED
:1006700000011A03540072006500610064007300F9
:1006800074006F006E006500340038000000120333
:100690006D00610072006B00730061007200640005
:1006A0000000040309040000000000003E5B4F5BF3
:1006B0003E003E6B4F6B3E001C3E7C3E1C00183CD7
:1006C0007E3C18001C577D571C001C5E7F5E1C0082
:1006D00000183C180000FFE7C3E7FF0000182418CB
:1006E0000000FFE7DBE7FF0030483A060E0026294E
:1006F00079292600407F05050700407F05253F003A
:100700005A3CE73C5A007F3E1C1C0800081C1C3E5B
:100710007F0014227F2214005F5F005F5F000609E4
:100720007F017F00006689956A00606060606000FC
:1007300094A2FFA2940008047E04080010207E20EA
:10074000100008082A1C0800081C2A0808001E10AF
:10075000101010000C1E0C1E0C0030383E383000FB
:10076000060E3E0E060000000000000000005F00C4
:100770000000000700070000147F147F1400242AE3
:100780007F2A120023130864620036495620500065
:10079000000807030000001C224100000041221C49
:1007A00000002A1C7F1C2A0008083E080800008060
:1007B00070300000080808080800000060600000B1
:1007C0002010080402003E5149453E0000427F408F
:1007D00000007249494946002141494D330018142F
:1007E000127F10002745454539003C4A49493100F0
:1007F000412111090700364949493600464949292E
:100800001E0000001400000000403400000000083A
:10081000142241001414141414000041221408007E
:100820000201590906003E415D594E007C12111229
:100830007C007F49494936003E41414122007F41C9
:1008400041413E007F49494941007F0909090100B2
:100850003E41415173007F0808087F0000417F41FD
:1008600000002040413F01007F08142241007F40EA
:10087000404040007F021C027F007F0408107F0080
:100880003E4141413E007F09090906003E41512198
:100890005E007F09192946002649494932000301B3
:1008A0007F0103003F4040403F001F2040201F00C9
:1008B0003F4038403F006314081463000304780489
:1008C00003006159494D4300007F4141410002044A
:1008D00008102000004141417F0004020102040091
:1008E0004040404040000003070800002054547876
:1008F00040007F28444438003844444428003844A9
:1009000044287F0038545454180000087E0902001F
:100910001824241C78007F080404780000447D40DB
:1009200000002040403D00007F10284400000041AE
:100930007F4000007C04780478007C080404780080
:10094000384444443800FC1824241800182424187F
:10095000FC007C0804040800485454542400040497
:100960003F4424003C4040207C001C2040201C00D0
:100970003C4030403C004428102844004C101010EB
:100980007C004464544C44000008364100000000E0
:100990007700000000413608000002010204020056
:1009A0003C2623263C000000000000000000000060
:1009B0000000000000000000000000000000000037
:1009C0000000000000000000000000000000000027
:1009D0000000000000000000000000000000000017
:1009E0000000000000000000000000000000000007
:100BE00000000000000011241FBECFEFDAE0DEBFDE
:100BF000CDBF12E0A0E0B1E0E6EEF2E602C0059063
:100C00000D92A23EB107D9F726E0A2EEB2E001C0F4
:100C10001D92AB38B207E1F70E94FF230C941D31FF
:100C20000C940000482F20917A049091410457E0E1
:100C3000291302C080E0089530E0529FF001539FD5
:100C4000F00D1124EE5BFB4F8181681306C080819B
:100C5000481303C085818111EECF2F5F3F4F27706E
:100C6000E7CFFC01AC01485F5F4F8FEF91E321912B
:100C7000822728E030E087FF09C0880F89272150AC
:100C80003109C9F7E417F50791F70895880FF7CFF1
:100C9000E8EDF0E080818E7F80831092E200109278
:100CA000DA001092E100A0EEB0E08C9181608C93AC
:100CB00080818F77808319BCA7EDB0E08C918E7F07
:100CC0008C9380818F7E808310922A0408952091D6
:100CD000E4003091E50095E6A9012091EC00822F17
:100CE000817020FF06C08091E80080FF06C080E090
:100CF00008952091E80022FD1AC0809137048823CE
:100D000089F0853089F08091EB0085FD0FC020913E
:100D1000E4003091E50042175307F9F29150E1F6F3
:100D200084E0089582E0089583E0089581E00895C5
:100D30008091390487FF13C08091E80082FF06C0CC
:100D40008091E8008B778093E80004C0809137049D
:100D50008111F2CF0895809137048823D9F38091CF
:100D6000E80080FFF8CF8091E8008E77ECCF982FD5
:100D70009093E900242F762F50E0891731F070917D
:100D8000EC002091ED005091F00021FD07C09F5F25
:100D9000973071F78093E90081E008953091EB007E
:100DA0003E7F3093EB003091ED003D7F3093ED00BE
:100DB0003091EB0031603093EB007093EC002093A6
:100DC000ED005093F0002091EE0027FDE0CF80E091
:100DD0000895B0E0A0E0EFEEF6E00C94712DC8EDC0
:100DE000D0E088818F7E8883E7EDF0E080818160AC
:100DF000808384E082BF81E080932A0488818E7F93
:100E0000888302EE10E0F80110821092DA0081EE81
:100E1000C82ED12CF601108288818F778883888133
:100E20008068888388818F7D888319BC10923704FD
:100E300010923804109236041092350490EEE92E88
:100E4000F12CF70180818B7F80838881816088838A
:100E500042E060E080E00E94B706F60180818E7F6C
:100E60008083F801808181608083808188608083B5
:100E7000F70180818E7F8083888180618883CDB7F0
:100E8000DEB7E8E00C948D2DFC0180913F04909139
:100E9000400486179707A0F06115710529F4909119
:100EA000E8009E779093E80090E06115710551F499
:100EB000911108C08091E80082FF34C080E008955D
:100EC000BC01F2CF809137048823C1F18530C1F194
:100ED0008091E80083FD30C08091E80082FDEACF78
:100EE0008091E80080FFE1CF8091F3002091F20033
:100EF000382F6115710519F02830310558F091E04F
:100F00002830310509F090E02091E8002E772093F9
:100F1000E800CBCF81918093F100615071092F5F80
:100F20003F4FE7CF80913704882341F0853041F06F
:100F30008091E80083FFBECF81E0089582E00895AC
:100F400083E0089508950895089580912C040895EC
:100F50002FB7F8946091260470912704809128049B
:100F6000909129042FBF0895E6EEF2E09191891344
:100F700003C0DF0111971C9292E0EC3EF907B1F734
:100F80000895A6EEB2E0EFEF90E02D91821751F0B8
:100F9000EF3F19F4211101C0E92F9F5F9630A9F7A7
:100FA000EF3F09F408950E2E000CFF0BEC51FD4F9E
:100FB0008283089580912104882359F0E0912304CD
:100FC000F0912404309729F00190F081E02D0995EB
:100FD000089580E008950E94DA070895809116042C
:100FE00080FD16C081FD16C082FD16C080911504DB
:100FF0008823A1F0883280F428E0829FC001112468
:1010000068E270E00E94AA2D862F672B39F00895C0
:1010100082E0089584E0089588E0089581E00895CD
:101020008091160480FD16C081FD16C082FD18C097
:1010300080911404882391F0863990F42CE0829FEB
:10104000C001112466E970E00E94AA2D862F672B4B
:1010500049F0089583E0089586E0089584E00895B6
:101060008CE0089581E00895282F35EB2303C0011B
:10107000112497FF04C080589109892F0895805842
:101080009F4FFBCF539A0895FA01811101C0FB01D4
:1010900009950895EEEDF3E01182828184608283E8
:1010A000089560919E018091060480FF0CC070E05D
:1010B00080919D0123E0829FC00111248F519C4F9C
:1010C0000E94590F089580919F019091A00123E003
:1010D000829FF0011124EF51FC4F891740F71182D4
:1010E000108212828F5F3396F8CF9091060490FFA2
:1010F0000EC090919F012091A00133E0939FF001D9
:101100001124EF51FC4F921718F00E9451080895D6
:101110008183608342839F5F3396F5CFE6E0F4E0FE
:1011200080818E7F80830E944A08EEEDF3E0828109
:10113000816082830E945108089580910604982F4F
:101140009C7F61F48370846080930604809109041D
:10115000853B18F084EB8093090408958036B0F342
:1011600083708C65F1CFAF92BF92DF92EF92FF92C6
:101170000F931F93CF93DF93082F162FE901E42FCE
:10118000F0E0E157FB4F611110C0E4915E2F4E2F4C
:101190004983E8835A83DF91CF911F910F91FF908C
:1011A000EF90DF90BF90AF900895E62EF12C449120
:1011B000D42EE42FF0E026E0829FC00111242FEF0F
:1011C00030E0B9010E94532D802F90E0880F991FC5
:1011D00055E5569FD001579FB00D11248A1B9B0BDC
:1011E000982F990F890F5901AE18BF08AE9ED001F4
:1011F000AF9EB00DBE9EB00D11245B2F189F8001D5
:101200001124012F11275901A01AB10AAE9E8001A5
:10121000AF9E100DBE9E100D11245901A81AB108E1
:10122000AE9CC001AF9C900DBE9C900D1124892FE7
:101230009927281B390B2E9FC0012F9F900D3E9F91
:10124000900D1124E92F62307105A1F050F4611561
:10125000710509F49DCF6130710581F0EB2F512F9D
:1012600097CF6430710569F080F06630710509F43C
:101270008FCFF4CFE42F4B2F592F8ACFE42F412F5C
:1012800087CFEB2F542F492F83CF4B2F5D2DE12F8D
:101290007FCFA3E0B0E0EFE4F9E00C94752D8C0172
:1012A0008091060480FF13C040910904453B08F07B
:1012B00044EB9E012F5F3F4F60910804F801848149
:1012C0000E94B3084B8169818A810E947508F801E8
:1012D00084818F5F84832396E4E00C94912DEF92B8
:1012E000FF920F931F93CF93DF93EC018C818111B9
:1012F00009C081E08C831092050492E09093A301D1
:101300008093A20180919F019091A00123E0829F90
:10131000F0011124EF51FC4F891758F110E003E060
:101320006091A101161758F10E9451088091A20105
:1013300020910504280F209305049091A301980F94
:101340009093A301191654F4022E000C330B409114
:10135000A1014150550B2417350734F08195809336
:10136000A201813009F41C82CDB7DEB7E6E00C940F
:101370008F2D1182108212828F5F3396CDCFE12E96
:10138000F12C70E0C7010E94AA2D20919F01820FCD
:10139000482F50E020910504022E000C330BE2167A
:1013A000F306D4F02091A301022E000C330B2E156E
:1013B0003F0594F0809F900111242F513C4F4091A4
:1013C0000904453B08F044EB609108048091070450
:1013D0000E94B3081F5FA4CFFA01EE0FFF1FE40FB6
:1013E000F51FEF51FC4F118210821282F3CFEF9262
:1013F000FF921F93CF93DF93EC0110E0EE24EA9469
:10140000F12C6091A101161770F00E9451089A8189
:101410008C8190FF2AC08F5F8C83DF91CF911F91C9
:10142000FF90EF90089520919F01422F410F552783
:10143000551FCA019A01220F331F280F391F2F5140
:101440003C4F40910904453B08F044EB70E0C70174
:101450000E94AA2D962F8C8160910804199F800DFF
:1014600011240E94B3081F5FCCCF8150D5CF80E0FC
:101470000895F894E82FE295EF70F0E031A1282F5D
:101480002F7081E090E001C0880F2A95EAF7982F2D
:101490009095932391A392A1892B82A37894089588
:1014A0000F931F9380912104882329F00E94A8079D
:1014B0001F910F9108950E94A80700916A0310914F
:1014C0006B0320916C0330916D03600F711F821FBD
:1014D000931FEECF9091820392FF10C041E0282F1E
:1014E0002471243009F040E031E0282F28712830A1
:1014F00009F030E0431711F02CE0822793FF10C071
:1015000041E0282F2471243109F040E031E0282FF8
:101510002871283109F030E0431711F02CE08227C0
:101520003091830330FF10C051E0282F217121300A
:1015300009F050E041E0282F2871283009F040E000
:10154000541711F029E0822731FF10C041E0282F05
:101550002171213109F040E031E0282F2871283134
:1015600009F030E0431711F029E0822794FD877ECF
:10157000089582389105B9F1B0F48133910509F4E9
:101580007DC048F48932910509F46DC08A32910515
:1015900009F47BC008958533910509F45FC0893350
:1015A000910509F10895833E9105D9F138F4803E03
:1015B000910529F1823E910579F10895863E9105C4
:1015C000D9F1873E910509F43EC0843E910541F56D
:1015D0002091830321FF24C08091820384FD19C0E0
:1015E00087EE90E0089520918203237009F05AC09D
:1015F0002091830323FF14C089E290E00895209195
:10160000820320FD38C03091830330FF09C024FFDE
:1016100043C090E080E008952091820322FDF7CF3F
:1016200008952091820322FD3AC03091830330FD5A
:1016300039C024FFF5CFEDCF2091820323FFF0CFF7
:1016400024FDE7CFCDCF2091820323FD2EC0309122
:10165000830331FFEECF84EE90E008952091820362
:1016600025FFDECFC9CF2091820325FD21C0209127
:10167000830323FFD5CF89E390E0D2CF209182036B
:1016800026FFCECF8AE290E008952091820326FFC4
:10169000C7CF81E390E0089583EE90E0089582EE55
:1016A00090E0089580EE90E0089586EE90E0089531
:1016B00085E390E00895972F7031B8F46630A8F470
:1016C0008430B0F470E026E0929F600D711D11240B
:1016D000FB0190E6899FE00DF11D1124EE0FFF1F25
:1016E000EC59FE4F85919491089580E090E0089523
:1016F00081E0FCCF1F93CF93DF930E94B90AEC01E6
:10170000C11582E5D80708F03FC0C11590E5D9079B
:1017100008F0C2C0C83ED105C0F4C03ED10580F477
:10172000C53AD10548F4C430D10550F4C130D105D3
:1017300039F0D0E0C0E004C0CD3CD105D0F3D06595
:10174000CE01DF91CF911F910895C11580E4D80794
:1017500008F053C0C11590E2D90708F0B7C0C11511
:1017600081E0D80730F38D2F0E946A0A182FCE012E
:1017700099270E94B90AC12FD0E0DC2FCC27CC27B3
:10178000DF71C82BD92BDCCFC03892E5D907A8F47C
:10179000C03682E5D80708F063C0C03492E5D907A7
:1017A00008F049C0C03282E5D80788F1CF71D0E097
:1017B000DC2FCC27C16FD06AC3CFC03C92E5D907DC
:1017C00080F48C2F8F71C03AD24508F45EC00E941D
:1017D0006A0AC82FD0E0DC2FCC27CC27DF71D0627B
:1017E000AFCFC03E82E5D80708F0A3CFDC2FCC27CF
:1017F000CC27DF71C06FD06AA3CFCE0199270E949A
:10180000B90ACC27DF70C82BD92BD06A99CF2C2FDF
:101810002695269590E2299F900111248C2F8370A4
:10182000C1E0D0E002C0CC0FDD1F8A95E2F7C22BE9
:10183000D32BDD6885CF2C2F26952695277080E247
:10184000289F900111248C2F8370C1E0D0E002C04A
:10185000CC0FDD1F8A95E2F7C22BD32BDC6870CF4B
:101860002C2F26952695277090E2299F9001112410
:101870008C2F8370C1E0D0E002C0CC0FDD1F8A95B1
:10188000E2F7C22BD32BDA685BCFC82FD0E0DC2F76
:10189000CC27C46FD06A54CF8C2F8F710E946A0AF4
:1018A00055E0D695C7955A95E1F7CF70D0E0DC2F7B
:1018B000CC27282F30E084FF05C044E0220F331FDF
:1018C0004A95E1F7C22BD32BD0693ACF8D2F8F7178
:1018D0000E946A0A182FCE0199270E94B90AC12FC7
:1018E000D0E0DC2FCC27CC27DF71C82BD92B77CFCA
:1018F00080959091300398239093300308958091C0
:101900007A0490914104981301C008958F5F877005
:10191000FACFB0E0A0E0EFE8FCE00C94702D7C0181
:1019200000917E0410917F04809180039091810347
:10193000082B192BCFE0D0E0CC24C394D12CBC2EA3
:10194000C6010C2E02C0880F991F0A94E2F780236B
:101950009123892B49F4219790F7B12C8B2DCDB78A
:10196000DEB7E9E00C948C2DB7018C2F0E945B0B45
:101970000E947A0B019779F3F1CFCF93DF93EC01BB
:101980000E94890CBE010E945B0B0E947A0BDF91C2
:10199000CF910895903178F5863068F5E82FF0E022
:1019A00086E0989FE00DF11D11249E2F977083E033
:1019B000F695E7958A95E1F7EE0FFF1FEE0FFF1FF3
:1019C000E251FD4F50E040E080E0219130E0092EEF
:1019D00002C0369527950A94E2F721703327042E2A
:1019E00001C0220F0A94EAF7822B4F5F5F4F443009
:1019F000510559F7089580E00895903198F58630A3
:101A000088F5E82FF0E086E0989FE00DF11D1124A5
:101A10008E2F877041E001C0440F8A95EAF783E07A
:101A2000F695E7958A95E1F7EE0FFF1FEE0FFF1F82
:101A3000E251FD4F30E020E070E05191DF0111975D
:101A4000CB01022E02C0969587950A94E2F7817029
:101A500081958527842385278C932F5F3F4F2430E2
:101A6000310559F7089590937F0480937E0408957B
:101A700021E030E002C0220F331F8A95E2F7209563
:101A8000309580917E0490917F04822393230E945D
:101A9000330D089590912503809589238093250324
:101AA000282F277069F4891759F09091830392FFCA
:101AB00007C08695869586950E94380D109225035D
:101AC000089521E030E002C0220F331F8A95E2F72B
:101AD00080917E0490917F04822B932B0E94330D82
:101AE0000895CF93DF93C62FD42F882329F1862F13
:101AF0000E94610D20917E0430917F0421153105F3
:101B0000F9F081E090E0AC0102C0440F551FCA9586
:101B1000E2F742235323452B99F002C0880F991F07
:101B2000DA95E2F782239323892B51F083E00E9418
:101B3000610DDF91CF910895862F0E94380DDACF85
:101B400083E00E94380DF5CF90938103809380034A
:101B50000895FC0124812223C1F0808191810E949B
:101B6000BD0C92959F70963091F058F4925F9F70E3
:101B7000923058F4803F19F030F4883E30F481E020
:101B800008959A5FF4CF843FD1F380E00895883EB2
:101B9000B0F3813FD1F7F3CFA6E0B0E0E2EDFDE096
:101BA0000C94762D49835A8349815A819923A1F057
:101BB000222391F0CA010E94890C182F682F898175
:101BC0009A810E94FD0C69817A81812F0E945B0BB2
:101BD0002696E3E00C94922DCA010E94CA0C182F9D
:101BE000F2CFCF93DF93C0918906D0918A068A30D5
:101BF000C1F420918004CE0183589440622F70E09C
:101C00000E94532D281B822F66E00E949E2DC82F14
:101C1000C15018F4DF91CF91089580E20E94F10D38
:101C2000F7CF8D30E9F4C358D44020918004622F5F
:101C300070E0CE010E94532D281B822F9E01280F99
:101C4000311D2115324018F080E0D0E0C0E0C80F0F
:101C5000D11DCD57DB4FD0938A06C0938906DACFCA
:101C600096E0FE01A3E8B6E001900D929A95E1F7A7
:101C7000803E08F458C086E0FE0111928A95E9F78B
:101C8000C0918906D0918A0646E050E0BE0183E803
:101C900096E00E94102E9E0123583440892B41F17A
:101CA000C90145E0969587954A95E1F741E050E0F6
:101CB000BA0102C0660F771F8A95E2F7CB016091E7
:101CC000810470918204862B972BB9016B5F7F4F43
:101CD000E5E076956795EA95E1F702C0440F551F58
:101CE0006A95E2F7842B952B90938204809381046C
:101CF0002A5F3F4F40918004642F70E0C9010E9429
:101D0000532D481B463010F4240F311D211572E06D
:101D1000370710F030E020E02D573B4F30938A0614
:101D20002093890677CFF6E08F9FB00111246A5582
:101D3000794F46E050E0CE010E94FA2DA1CF2091CC
:101D4000300380912703282B80912603882381F07C
:101D5000282B30E086EE92E0FC014191CF01411149
:101D60003F5FF2E08C3E9F07B9F7311110922603D6
:101D70002093E40248E050E068E273E084EE92E0F1
:101D80000E94102E892BA9F088E0E4EEF2E0A8E290
:101D9000B3E001900D928A95E1F7E0912304F09170
:101DA0002404309731F00280F381E02D84EE92E03C
:101DB00009950895882321F00E94780C0E949F0EB7
:101DC0000895882339F090913003982B9093300335
:101DD0000E949F0E08950F931F93CF93DF93EC0102
:101DE000FC0101900020E9F78F0101501109C01793
:101DF000D10728F0DF91CF911F910F91089589911C
:101E00000E94F10DF4CF0F931F93CF93DF938B01BB
:101E1000EA0190913704943061F58093E9008FEFE7
:101E20009091E800815095FD06C095ED9A95F1F7E7
:101E300000008111F5CF8091E80085FF1AC00E9453
:101E40006706811111C08091E80085FD06C0809170
:101E5000E8008E778093E800F2CFF80181918F013E
:101E60008093F100219779F78091E8008E77809335
:101E7000E800DF91CF911F910F91089546E050E067
:101E8000BC0182E00E94030F0895CF93DF93EC0121
:101E900048E050E0BC0181E00E94030F88E0FE01B1
:101EA000ADE2B4E001900D928A95E1F7DF91CF9118
:101EB00008954BB1477F5BB15860EFB7F8949B0131
:101EC000220F331F260F371F280F391F28173907F6
:101ED00041F4EFBF8FE594E00197F1F700C00000F7
:101EE0000895DC016D91CD0178E05BB9000000C080
:101EF00067FF4BB9660F000000C000C000C04BB9BF
:101F000000C07A9591F7E2CFB0E0A0E0EAE8FFE008
:101F10000C946F2D7C015B016A018091690301E0E3
:101F200010E08A3010F40AE010E0C1E0D0E0B50122
:101F3000C701F6010995811104C021960C171D07F0
:101F40002CF4CDB7DEB7EAE00C948B2DCC9F90013A
:101F5000CD9F300D300D112490E080E045E34A958F
:101F6000F1F70000019682179307C1F7E0CFAB01AC
:101F700024E630E0BC0188E70E94072B21E0892B92
:101F800009F020E0822F08958091120490911304AB
:101F9000911103C091E089270895882369F062E0D8
:101FA00070E086E995E00E94B70F811103C080912F
:101FB000120408951092120480911204EBCFCF9373
:101FC000C0911204809113048823D1F00E94A807C5
:101FD000605A75418F4F9F4F60930E0470930F04AA
:101FE0008093100490931104C11108C062E070E066
:101FF00084E995E00E94B70F811105C0C0911204D9
:102000008C2FCF91089581E080931204F7CFB0E038
:10201000A0E0EDE0F0E10C946D2D49015A016B0157
:102020007C010E949D088401A4016A2D7B2D88E01B
:1020300090E00E94FB3094014A2D5B2DB601C70150
:1020400000E20E94DF2D622F83E290E00E94E930DF
:10205000CDB7DEB7ECE00C94892DA3E0B0E0E3E36C
:10206000F0E10C94702D082FE62EF42EC22E8091F4
:10207000060480FF45C020910704201308C09091FA
:102080000804961304C090910904941729F09091C4
:10209000E00392609093E003E82FE695E695AE2F7B
:1020A000B0E0A653BD4F9C919093DE038C7F8430AB
:1020B00059F54F2D64EB6F1508F444EB9E012F5F2B
:1020C0003F4F6E2D802F0E94B3084B8169818A811A
:1020D0000E94750800930704E0920804F092090436
:1020E000CC2071F02091060460910A0470910B04D9
:1020F000302FA70180910C0490910D040E940710CD
:102100002396E9E00C948C2D9230C1F19530B1F119
:102110009E3001F7EE507E2F7170B72EE695F0E0FD
:10212000E157FA4F1491D12C6091A101D61618F005
:102130000E945108CFCFD19EC001112470E00E94AF
:10214000532D802FB11018C0860F20919F01622F50
:102150006D0D7727771F9B01220F331F260F371F27
:102160002F513C4F4F2D74EB7F1508F444EB6E2D2F
:102170000E94B308D394D8CF861BE7CF022FAACFF3
:10218000E6E0F4E0438128E0421B08F440E021E06F
:10219000628181810E942D100895E6E0F4E0438180
:1021A00028E0420F08F44FEF21E0628181810E9414
:1021B0002D100895E6E0F4E0628128E0621B08F447
:1021C00060E021E0438181810E942D100895E6E0C6
:1021D000F4E0628128E0620F08F46FEF21E04381B0
:1021E00081810E942D100895E6E0F4E0818121E0D4
:1021F0004381628188500E942D100895E6E0F4E04A
:10220000818121E043816281885F0E942D100895C1
:1022100080910A04882319F0815080930A04209148
:10222000060430910704409108045091090460911C
:102230000A0470910B0480910C0490910D040E948B
:102240000710089580910A04833018F48F5F8093FB
:102250000A0420910604309107044091080450912B
:10226000090460910A0470910B0480910C04909110
:102270000D040E9407100895E6E0F4E085E08083F5
:1022800011828FEF828384EB83831482AEEDB3E0FF
:1022900012968C911297836012968C93758125E02B
:1022A00030E04FEF54EB60E0868197810E94071089
:1022B00008959091830392FB222720F9281779F043
:1022C00080FB92F990938303609182037091830362
:1022D00084E090E00E94073182E00E944A0D089558
:1022E000A4E0B0E0E6E7F1E10C94762D40914903DB
:1022F00050914A0360914B0370914C032FB7F894AF
:102300008091260490912704A0912804B09129047B
:102310002FBF841B950BA60BB70B11E084369105DC
:10232000A105B10570F10E94500A6E5F7F4F8F4F7B
:102330009F4F69837A838B839C8380911101909155
:102340001201835B9C4F4091100150E045305105D4
:1023500010F044E050E0BE016F5F7F4F0E941D2EE1
:1023600082E090E00E94DD2C182F882351F00E941B
:10237000A8076093490370934A0380934B0390939B
:102380004C03812F2496E3E00C94922DABE0B0E057
:10239000ECECF1E10C94772D88E0E6E0F4E0DE016E
:1023A000119601900D928A95E1F78091DE0390914C
:1023B000DF03A091E00389879A87AB872B85409143
:1023C00065035091660360916703709168033FB79E
:1023D000F8948091260490912704A0912804B0914C
:1023E00029043FBF841B950BA60BB70B84369105C0
:1023F000A105B10510F4222319F1809119019091E2
:102400001A01835B9C4F4091180150E04C305105FC
:1024100010F04BE050E0BE016F5F7F4F0E941D2E19
:1024200083E090E00E94DD2C882369F00E94A807D9
:1024300060936503709366038093670390936803CA
:102440001092E00381E02B96E2E00C94932DEF9242
:10245000FF921F93CF93DF93CDB7DEB729970FB6C7
:10246000F894DEBF0FBECDBF7B0190E080E00E94FC
:10247000DD2C182F882309F46AC04091030150E035
:102480004115510511F041E050E060910401709157
:102490000501635B7C4FCE0109960E941D2E409181
:1024A00045035091460360914703709148032FB74D
:1024B000F8948091260490912704A0912804B0916B
:1024C00029042FBF841B950BA60BB70B84369105EF
:1024D000A105B10538F48EE493E00E943106998598
:1024E0008917A9F181E090E00E94DD2C882309F48E
:1024F0004EC040910B0150E04930510510F048E0CA
:1025000050E060910C0170910D01635B7C4FCE0136
:1025100001960E941D2E8EE493E00E94310699855B
:10252000891335C00E94A807609345037093460342
:10253000809347039093480388E0FE013196ADE312
:10254000B3E001900D928A95E1F711E00BC088E0AD
:10255000EEE4F3E0DE01119601900D928A95E1F729
:102560001111EACF88E0EDE3F3E0D70101900D927D
:102570008A95E1F7812F29960FB6F894DEBF0FBE3A
:10258000CDBFDF91CF911F91FF90EF90089510E0A4
:10259000E9CF1F920F920FB60F9211242F933F9302
:1025A0004F935F936F937F938F939F93AF93BF935B
:1025B000EF93FF938091E10082FF09C08091E200D8
:1025C00082FF05C08091E1008B7F8093E1008091C4
:1025D000DA0080FF24C08091D80080FF20C0809165
:1025E000DA008E7F8093DA008091D90080FF9DC051
:1025F00080E189BD82E189BD09B400FEFDCF81E0A3
:102600008093370480912A04811109C00E944806F2
:102610000E94E9068091E20084608093E20080914C
:10262000E10080FF17C08091E20080FF13C080911D
:10263000E2008E7F8093E2008091E20080618093CF
:10264000E2008091D80080628093D80019BC85E0B8
:10265000809337048091E10084FF2BC08091E200D9
:1026600084FF27C080E189BD82E189BD89B5982FAB
:10267000917080FFFBCF8091D8008F7D8093D80030
:102680008091E1008F7E8093E1008091E2008F7E57
:102690008093E2008091E20081608093E20080916B
:1026A0003804882309F447C084E08093370480917C
:1026B00037048091E10083FF27C08091E20083FF0F
:1026C00023C08091E100877F8093E10082E08093C6
:1026D0003704109238048091E1008E7F8093E100EE
:1026E0008091E2008E7F8093E2008091E200806121
:1026F0008093E20042E060E080E00E94B7068091B3
:10270000F00088608093F000FF91EF91BF91AF914E
:102710009F918F917F916F915F914F913F912F91F9
:102720000F900FBE0F901F90189519BC1092370490
:1027300010922A0474CF8091E30087FD93E0909378
:102740003704B5CF78941F921FB61F9211248F9330
:102750009F93AF93BF938091260490912704A091FB
:102760002804B09129040196A11DB11D809326046F
:1027700090932704A0932804B0932904BF91AF91AC
:102780009F918F911F901FBE1F9018959C014FB76E
:10279000F8948091260490912704A0912804B09188
:1027A00029044FBF821B930B08952FB7F894809193
:1027B000260490912704A0912804B09129042FBFEA
:1027C00008950E94D5139C0190911D0480911E04D0
:1027D000982B21F030931A042093190490911F0430
:1027E00080912004982B21F0309318042093170433
:1027F000E0912304F0912404309749F082E0809323
:102800001B040680F781E02D8BE194E00995089583
:10281000CF9310923003C6E0E6EEF2E0DF018C2F9A
:102820001D928A95E9F7109227030E949F0EEBE113
:10283000F4E0DF011D92CA95E9F71092140410929A
:102840001504109216040E94E113CF910895AAE294
:10285000B0E0EDE2F4E10C94762D89E394E0209170
:10286000F100FC012193CF01F4E081349F07B9F717
:1028700080913A04833009F470C0B8F4813009F4CF
:1028800047C0823009F4B1C08091E80083FF7EC266
:102890008091390490913A049A3008F077C2E92F78
:1028A000F0E0E15EFE4C0C94BE2D8A3009F48CC041
:1028B0008B3009F46FC0893039F780913904813247
:1028C00019F780913D0490913E040297E8F68091BB
:1028D000E800877F8093E8008091E80082FF38C09D
:1028E0009091F3008091F200029731F48091F10011
:1028F000813011F0863021F48091F10080932C0416
:102900008091E8008B778093E8000E949806BCCF06
:1029100080913904813A09F0B7CF8091E800877F30
:102920008093E80080913D0490913E04892B61F4EE
:1029300068E08DE294E070E00E9444078091E80036
:102940008B778093E800A0CF60E090E080E0F3CF49
:10295000809137048111C0CF97CF80913904813A9B
:1029600009F092CF80913D0490913E04892B09F0AB
:102970008BCF8091E800877F8093E8008091E8000A
:1029800080FFFCCF8091A4018093F1008091E8004A
:102990008E77B9CF80913904813209F075CF80915B
:1029A0003D0490913E04892B09F06ECF8091E800A0
:1029B000877F8093E8000E94980680913B04809373
:1029C000A4010E94081460CF80913904813209F07B
:1029D0005BCF8091E800877F8093E8000E94980693
:1029E00080913C0480932B044FCF80913904813A2D
:1029F00009F04ACF8091E800877F8093E8008091BA
:102A0000E80080FFFCCF80912B04BECF803899F086
:102A1000823809F0BBC180913D048F70873008F087
:102A2000B5C18093E9008091EB0085FB882780F990
:102A30001092E90006C080913504909136049111FE
:102A400082609091E800977F9093E8008093F10076
:102A50001092F1008091E8008E7794C1882309F4E8
:102A600082C1823009F092C180913B04811185C1FD
:102A700080913D048F702FEF280F263008F086C11B
:102A80008093E9002091EB0020FF77C1933031F46F
:102A90008091EB0080628093EB006FC19091EB001E
:102AA00090619093EB0021E030E001C0220F8A9505
:102AB000EAF72093EA001092EA008091EB00886028
:102AC000EACF811163C110913B041F778091E3002D
:102AD0008078812B8093E3008091E800877F80934A
:102AE000E8000E9498068091E80080FFFCCF80916A
:102AF000E30080688093E30082E0111183E080931B
:102B0000370444C18058823008F040C180913B04B2
:102B100090913C048C3D23E09207A1F583E08A83E9
:102B20008AE289834FB7F894DE01139620E03EE0F5
:102B300051E2E32FF0E050935700E49120FF03C0EF
:102B4000E295EF703F5FEF708E2F90E0EA30C0F0BB
:102B5000C7968D939D932F5F243159F74FBF809176
:102B6000E800877F8093E8006AE270E0CE0101967A
:102B70000E9444078091E8008B778093E80006C1AB
:102B8000C096E7CF40913D0450913E04292F332752
:102B90002330310509F444C078F52130310509F4BA
:102BA0006FC08BE390E0E5E2F6E02230310509F0FA
:102BB000EDC02091E800277F2093E80020913F049A
:102BC000309140048217930708F49C0140E02115DE
:102BD000310509F064C0411162C08091E80082FDB6
:102BE000C9CF80913704882329F2853019F280916A
:102BF000E80083FFF2CFBECF21323105A9F12232A6
:102C0000310509F0C3C04115510509F443C04130F5
:102C1000510509F0BBC089E490E0E8E9F5E0C9CFCF
:102C2000992781309105C1F0009759F0029709F07A
:102C3000ADC0E2E7F6E0E4918E2F90E0E2E7F6E047
:102C400007C0E2EAF6E0E4918E2F90E0E2EAF6E0D7
:102C5000009709F49BC0ADCFEEE8F6E0E4918E2F2B
:102C600090E0EEE8F6E0F4CF4115510571F0413007
:102C7000510509F08BC089E090E0E0E5F6E099CFDE
:102C800082E190E0E0E6F6E094CF89E090E0E7E3CF
:102C9000F6E08FCF84E490E0E1EEF5E08ACF80911A
:102CA0003704882309F466CF853009F463CF809117
:102CB000E80083FD5FCF8091E80082FD8ECF809198
:102CC000E80080FF84CF9091F3008091F2002115FD
:102CD000310519F08830910550F041E0089709F06E
:102CE00040E08091E8008E778093E80070CF4491B7
:102CF0004093F1003196215031090196E8CF803898
:102D000009F044C08091E800877F8093E8008091BB
:102D100038048093F1009ECE811138C010913B049D
:102D20001230A0F58091E800877F8093E80010932F
:102D300038040E949806112311F084E005C08091A8
:102D4000E30087FDFACF81E08093370442E061EC35
:102D500081E00E94B70642E261EC82E00E94B70681
:102D60008091370413C080913B04813079F481E075
:102D7000933009F080E0809336041092E90080914E
:102D8000E800877F8093E8000E9498068091E80021
:102D900083FF0AC08091E800877F8093E8008091DC
:102DA000EB0080628093EB00AA96E3E00C94922DF6
:102DB0001F920F920FB60F9211242F933F934F93B0
:102DC0005F936F937F938F939F93AF93BF93CF93B3
:102DD000DF93EF93FF93D091E900DF708091EC00D7
:102DE000C82FC17080FDC0E81092E9008091F0000A
:102DF000877F8093F00078940E9427141092E90056
:102E00008091F00088608093F000CD2BCF70C0934C
:102E1000E900FF91EF91DF91CF91BF91AF919F9129
:102E20008F917F916F915F914F913F912F910F9073
:102E30000FBE0F901F9018950E9408142FEF84E387
:102E40009CE0215080409040E1F700C0000088E104
:102E50009AE00FB6F894A895809360000FBE909307
:102E60006000FFCF40911D0490911F042091200429
:102E7000662309F469C0942B922B20911E04922B97
:102E800031F094E09093140491E0909315048D3CFC
:102E900041F40E941008819580931E040E94E11362
:102EA00008958E3C19F40E941008F6CF8F3C31F43F
:102EB0000E941008819580931D04F0CF803D19F485
:102EC0000E941008F8CF893D29F40E94EE078093F4
:102ED0001F04E4CF8A3D21F40E94EE078195F7CFCD
:102EE0008B3D31F40E94EE07819580932004D6CF6C
:102EF0008C3D19F40E94EE07F8CF9FE2980F9830AE
:102F000070F4815D990B21E030E001C0220F8A95B9
:102F1000EAF780911C04822B80931C04BFCF8D3D67
:102F200031F480911604816080931604B7CF8E3DF2
:102F300021F4809116048260F7CF8F3D09F0AECF67
:102F4000809116048460F0CF8D3C59F480911E046A
:102F500087FF0DC010921E0441110BC01092140483
:102F600008C08E3C81F480911E0418169CF3442303
:102F700081F080911F0490912004892B09F08ECF5D
:102F8000109215048BCF8F3C49F447FFF0CF10927D
:102F90001D0480911E048111ECCFE0CF803D19F417
:102FA0001416ACF3E4CF893D29F4191604F71092F6
:102FB0001F04DDCF8A3D19F497FFD9CFF8CF8B3DA1
:102FC00029F427FFD4CF10922004D1CF8C3D19F4DF
:102FD0001216CCF3CCCF9FE2980F983090F4815D1D
:102FE000990B21E030E0B90102C0660F771F8A9586
:102FF000E2F7CB01809590911C04892380931C04F7
:10300000B6CF8D3D31F4809116048E7F80931604E7
:10301000AECF8E3D21F4809116048D7FF7CF8F3D8A
:1030200009F0A5CF809116048B7FF0CF882309F497
:1030300044C0823879F40E94EB0781FF3EC089E3E7
:103040000E94C1070E949F0E89E30E94B4070E945C
:103050009F0E0895833859F40E94EB0780FF2DC01E
:1030600083E50E94C1070E949F0E83E5EECF84385E
:1030700059F40E94EB0782FF20C087E40E94C10739
:103080000E949F0E87E4E1CF9CEF980F913AE8F2FF
:1030900090E2980F983050F4877091E001C0990F3A
:1030A0008A95EAF7892F0E94780CD1CF93E3980F85
:1030B000933118F460E00E9432170895CF93C82F1F
:1030C0008823C9F08238C9F40E94EB0781FD13C040
:1030D00089E30E94C1070E949F0E2FEF87EE93E0C5
:1030E000215080409040E1F700C0000089E30E9439
:1030F000B4070E949F0ECF9108958338A1F40E94D7
:10310000EB0780FDF8CF83E50E94C1070E949F0E68
:103110002FEF81EE94E0215080409040E1F700C015
:10312000000083E5E4CF8438A1F40E94EB0782FD20
:10313000E2CF87E40E94C1070E949F0E2FEF81EE2D
:1031400094E0215080409040E1F700C0000087E407
:10315000CECF8CEF8C0F813A70F4E6EEF2E08CEE7D
:1031600092E02191C21711F18E179F07D1F78C2F92
:103170000E94C107BECF80E28C0F883068F4C77010
:1031800021E030E001C0220FCA95EAF780913003B8
:10319000822B80933003ADCF83E38C0F833108F013
:1031A000AACF61E08C2F0E943217A5CF8C2F0E94EE
:1031B000B4070E949F0EDBCF1F93CF93DF93182F8E
:1031C000EB010E945E18209739F4812F0E94161897
:1031D000DF91CF911F9108958FE99FE00197F1F75B
:1031E00000C000002197EFCF0F931F93CF93DF9381
:1031F000C62FD42F022FFC0185818823A9F060936C
:103200007D040E94D51390937C0480937B04C77047
:1032100081E001C0880FCA95EAF70E94E10EDF91B4
:10322000CF911F910F91089580917D04681334C050
:1032300080917B0490917C040E94C613813E91058D
:1032400058F510E21D0FCD17B9F080E28C0F8830D1
:1032500040F4C77081E001C0880FCA95EAF70E9468
:10326000DA0E183048F481E09D2F977001C0880F66
:103270009A95EAF70E94E10E70E060E0802F0E94CC
:10328000DC18183060F6D77081E001C0880FDA953D
:10329000EAF70E94DA0EC3CFC77081E001C0880F41
:1032A000CA95EAF7F6CF80912104882319F00E948D
:1032B000D51308950E94500ACB0108956091060429
:1032C0006695669570E04BE050E082E991E00E94DF
:1032D000032E892B19F481E08093DF030E94531998
:1032E0009093D9038093D8038091E0038460809306
:1032F000E00308959091060490FF3AC09370811105
:1033000038C09460909306048091E00381608093BC
:10331000E003662391F02091060430910704409168
:1033200008045091090460910A0470910B04809183
:103330000C0490910D040E9407106091060466959C
:10334000669570E04BE050E082E991E00E94032E28
:10335000892BB9F00E944A0881E08093DB0320E0CA
:103360004091090460910804809107040E942D1087
:103370000895883110F09C65C5CF880F880F982B71
:10338000C1CF0E945E19E8CF80910604869586958C
:10339000815009F487E161E00E947A1908958091D3
:1033A0000604869586958F5F883108F081E061E09C
:1033B0000E947A1908959091060490FF09C096958D
:1033C0009695981728F0961718F40E94CF1908952B
:1033D00061E00E947A190895B0E0A0E0E2EFF9E11F
:1033E0000C946B2D8C01FC018481882309F4A5C108
:1033F00021E0408151816281738195810E94CC0DD1
:10340000EC01F8018581882349F180E2CC33D105B4
:1034100020F4FE01E75BFD4F80811F928F93DF93C5
:10342000CF93F80180811F928F9381811F928F9398
:103430008FEE91E09F938F931F9287E18F9383E7A5
:1034400091E09F938F930E94262E2DB73EB7225F67
:103450003F4F0FB6F8943EBF0FBE2DBFC1343EE7BD
:10346000D30709F471C008F055C042E061E0C034F0
:103470009EE7D90709F46AC0FF24F39440917E04C3
:1034800050917F046091800370918103E5E8F2E040
:1034900030E020E0808190E04115510509F027C11E
:1034A0008617970709F027C149E0429FC001439F53
:1034B000900D11248A579D4F2091820322FD25C132
:1034C0002BEE31E09F938F933F932F9381E092E017
:1034D0009F938F931F9287E18F9383E491E09F9353
:1034E0008F930E94262E2DB73EB7265F3F4F0FB613
:1034F000F8943EBF0FBE2DBFFF2009F40FC1FE019F
:10350000E851FC47E730F10508F033C1E75DFE4CB8
:103510000C94BE2DC334EEE7DE07F1F0C434FEE7B1
:10352000DF0709F0A9CFF8018581882399F00E946F
:103530003C118091060481608093060461E08695C9
:1035400086950E947A1906C041E062E0F801858103
:103550000E94710DF12C92CFF801F580FF2009F443
:10356000C2C08091820382FBFF24F0F882FD04C078
:1035700081E90E945E1882CF2CE5E22E21E0F22E36
:103580003AE0632EF7012491222321F3213009F040
:103590004FC031968491813071F4F2E0EF0EF11C4E
:1035A000F701849170E060E0893311F460E570E028
:1035B0000E94DC1809C0823059F4F2E0EF0EF11CD1
:1035C000F70184910E945E189FEFE91AF90ADACF99
:1035D000833041F4F2E0EF0EF11CF70184910E9478
:1035E0001618F2CF843009F07CC0F2E0EF0EF11C27
:1035F000F701249190E080E0F70131962053330BDE
:103600002A30310550F00097F9F2EFE9FFE03197E9
:10361000F1F700C000000197F6CF689EA001699EF7
:10362000500D1124C901840F951F24917F01E4CF0F
:10363000E22FF0E0E452FF4F7490822F869586953A
:10364000869590E0FC01E453FF4FA4902770B12CC5
:10365000022E02C0B594A7940A94E2F7F1E0AF22DB
:10366000BB24FC01E454FF4F8490912C022E02C035
:10367000959487940A94E2F731E083229924FC011F
:10368000E455FF4FC490D12C02C0D594C7942A951D
:10369000E2F781E0C822DD24A114B10419F081EE23
:1036A0000E945E188114910419F086EE0E945E1843
:1036B00070E060E0872D0E94DC188114910419F0FD
:1036C00086EE0E941618A114B10419F081EE0E9432
:1036D0001618C114D10409F477CF70E060E08CE2D1
:1036E00067CF7F0171CF81E90E941618C7CE84177A
:1036F000950709F4D9CE2F5F3F4F39962530310514
:1037000009F0C8CE85EE91E0D7CE27EE31E0DACED3
:1037100026E241EE61EEC8010E94F4188091250373
:10372000877059F0F8018581882339F080918303EF
:1037300082FF03C082E00E944A0DCDB7DEB7EEE003
:103740000C94872D27E245EE65EEE5CF26E241EEAB
:1037500060EEE1CF27E245EE64EEDDCF26E241EEFA
:1037600062EED9CF27E245EE66EED5CF28E241E002
:10377000EBCFF8018581882309F4CBC310927D0437
:10378000CE019057839708F0B0C384E090E00E9488
:10379000D3309093830380938203FE01E150F0477E
:1037A000E232F10520F4E05DFE4C0C94BE2D8091D8
:1037B000820381608093820395C080918303886037
:1037C000809383038FC0809182038260F3CF8091C6
:1037D00082038460EFCF809182038860EBCF809179
:1037E00083038160EDCF809183038260E9CF809174
:1037F00082038061DFCF809182038062DBCF809182
:1038000082038064D7CF0E9408148091820380686D
:10381000D1CF809182038C60CDCF80918303836070
:10382000CFCF809182038E7FC5CF80918303877F26
:10383000C7CF809182038D7FBDCF809182038B7F24
:10384000B9CF80918203877FB5CF809183038E7F2C
:10385000B7CF809183038D7FB3CF809182038F7E1A
:10386000A9CF809182038F7DA5CF809182038F7B2A
:10387000A1CF0E940814809182038F779BCF809103
:103880008203837F97CF809183038C7F99CF809130
:10389000820382FB992790F921E0922790FB82F91D
:1038A00090FB83F987CF80918303982F9095917037
:1038B0008E7F892B90FB81F983CF90918203892F92
:1038C0008F7B96FF806476CF0E94081490918203CC
:1038D000892F97FB87F980586DCF61E08EE090E0EB
:1038E0000E94E930609182037091830384E090E04C
:1038F0000E9407310E94081411CF60E0EFCF909131
:103900008203892F8F7E94FF806154CF9091820330
:10391000892F8E7F90FF81604DCF90918303892FF7
:10392000877F93FF88604CCF85E3EEC285E3FAC2C0
:103930008091060480FF1EC0282F2E7F209306044E
:1039400030910704409108045091090460910A04E1
:1039500070910B0480910C0490910D040E9407104B
:103960000E944A088091E00381608093E0030E94F6
:103970005108D4CE81608093060461E086958695D7
:103980000E947A19CBCE44EC59E16FEC79E10E94A8
:103990004408C4CE4FEC59E164EC79E1F8CF44EF30
:1039A00050E16EEF70E1F3CF4EEF50E164EF70E164
:1039B000EECF4AED50E167EE70E1E9CF47EE50E11E
:1039C0006AED70E1E4CF40EC50E16DEC70E1DFCFE7
:1039D0004DEC50E160EC70E1DACF48E051E162E299
:1039E00071E1D5CF42E251E168E071E1D0CF61E011
:1039F00081E0C6CF64E082E00E94DB198FCE6AE0EE
:103A000085E0FACF6DE08BE0F7CF67E18EE0F4CF91
:103A10000E940814FFEF24E33CE0F15020403040C6
:103A2000E1F700C0000087E797E7909301088093D3
:103A3000000888E19AE00FB6F894A895809360009A
:103A40000FBE90936000FFCF6FEF7FEF90E080E0BC
:103A50000E9407310E941C178091830382FB8827F4
:103A600080F991E089270E945911F8018581C08170
:103A7000D181882309F44DC0CE010E94890CF82E13
:103A8000682FCE010E94FD0CBE018F2D0E945B0BA2
:103A90000E947A0BF82EC92FA82EF801C580B68097
:103AA000B2949FE0B92280912503877009F1EC2C34
:103AB000CC20F9F08C2F807F803469F080E28F0D6C
:103AC0008830B0F08C2F807E803229F4F1E0FF1531
:103AD00078F4BB2069F08091830382FF09C082E003
:103AE0000E944A0D809125038770EE24E394811192
:103AF000E12CDC2ED2948FE0D8222BE02D1508F497
:103B00006AC0ED2DF0E0EE5AFE4C0C94BE2D80E024
:103B1000AACFCE010E94CA0CF82EB6CFDC2FDF70E0
:103B2000C07F11F0D295D07FCC20B9F0DD2369F0B1
:103B300080E28F0D883010F0A11009C08091300311
:103B4000D82BD09330030E949F0E8F2D42C08091BE
:103B50002703D82BD0932703F6CF8F2D0E9416185A
:103B6000DD23C9F180E28F0D883010F0A11004C070
:103B70008D2F0E94780C06C0D09580912703D82302
:103B8000D09327030E949F0E26C0DC2FDF70C07FDA
:103B9000C03211F0D295D07FAA2059F031E0A3169F
:103BA00009F478C0CC2009F484C0BB2009F446C0D5
:103BB000CCCF8091830382FD3DC0CC20A9F1DD23D1
:103BC00039F080913003D82BD09330030E949F0EA0
:103BD00080E00E945E18ED2DE850FF0B349710F442
:103BE0000E94DA07EE20A9F08091250380FD11C024
:103BF000F80115828695869586950E94610DC8010B
:103C00000E94EC19809125038695869586950E94E1
:103C1000380D20E0F80140815181628173818481F7
:103C200095810E94CC0D89CD80E00E941618DD237D
:103C300091F29ECFCC20A1F0B11004C08D2F0E9434
:103C4000E10EC9CF81E0B812C6CF809126039D2F27
:103C50009823D91709F4BFCFD82BD0932603BBCF15
:103C6000B110B9CF8D2F0E94DA0E909126038D2FBF
:103C7000892329F08D2F80958923809326038091B5
:103C8000ED029D2F982309F4A6CFD095D823D09389
:103C9000ED02A1CFCC2029F095E09B1508F49BCF35
:103CA000CDCFE4E0EB1508F496CF8D2F0E94DA0E0D
:103CB00092CFBB20D1F3F9E3AF1210C12FEF37EE53
:103CC00083E0215030408040E1F700C0000006C191
:103CD0006C2D8F2D0E9432177ECF8C2F837009F0B0
:103CE0003FC0C11078CF4F2D429546954770440F85
:103CF000440F2F2D2F7030E0042E02C0220F331FEF
:103D00000A94E2F790E080E0F4FE09C08FE090E0D2
:103D100002C0880F991F4A95E2F780959095C69545
:103D2000C695C370C23099F078F4409180035091E9
:103D30008103C13039F0822B932B842395230E9479
:103D4000A40D49CF242B352B822B932BF8CF822B1C
:103D5000932B209180033091810382279327EFCF0B
:103D60008695CC2011F08C2F8170882309F433CFF5
:103D70004F2D429546954770440F440F2F2D2F70BD
:103D800030E0042E02C0220F331F0A94E2F790E0C5
:103D900080E0F4FE09C08FE090E002C0880F991F18
:103DA0004A95E2F780959095C695C695C370C23046
:103DB00099F078F440917E0450917F04C13039F03D
:103DC000822B932B842395230E94330D04CF242B25
:103DD000352B822B932BF8CF822B932B20917E04B3
:103DE00030917F0482279327EFCFCF70CC2029F02A
:103DF0008C2F0E94610D8F2D22CF8F2D0E94DA0E05
:103E00008C2F0E94380DE7CE8F2D92EFA91699F1D5
:103E10009A1570F0E0EFAE16D1F0F1EFAF1691F019
:103E2000CC2009F456C0B11090CE8C2F8F7127C0D2
:103E300023EFA21639F134EFA312F2CF909183034E
:103E400092FD2EC08C2F8F71CC20D9F218C0CC20BF
:103E500069F084E08B1508F4BECECF7181E090E06C
:103E600002C0880F991FCA95E2F7B8CF95E09B155D
:103E700008F4B1CEF2CF8C2F8F71C110C2CF0E9447
:103E8000610DA9CE90E080E0CC2009F49DCFCF71E8
:103E900081E090E002C0880F991FCA95E2F794CFA5
:103EA000CC2061F08C2F8F7192FFE9CFE8E08E9FDC
:103EB00090011124236020932503E1CF81E00E942B
:103EC0004A0DF1E0FB1508F086CE82E00E944A0D13
:103ED00082CEBB2039F0893309F4F0CE8F2D0E94B9
:103EE000161879CE8C2F8F718CCFC631FCE7DF0787
:103EF000E1F4809130038A7A91E009F490E09093A4
:103F0000EC02811111CD89E20E94C1070E949F0E2F
:103F100005CCC6312CE7D20741F58091EC02811126
:103F200005CD89E20E94B407F1CFC3303CE7D30747
:103F300009F48ACD50F4C1159CE7D90709F468CD7E
:103F4000C130DC4709F486CD90CDCB35FCE7DF07E7
:103F500009F4DDCDCC352CE7D20709F47DCDCA3587
:103F6000DC4709F082CD81E07ECD80913003827202
:103F7000FE01E052F847E531F10508F076CDE25A4E
:103F8000FE4C0C94BE2DCF93DF9380912403807F51
:103F900009F04DC080912303882309F448C0E091C3
:103FA0007A0450914104C0911F03D0911E03609187
:103FB00020037091210347E05E17C9F18E2F90E036
:103FC000E49FF0011124EE5BFB4F2481222391F149
:103FD000489FF001499FF00D1124DF01AE5BBB4FFC
:103FE00011962C9111972C1325C02C912D1322C0C2
:103FF00015962C91159721111DC012962D913C916B
:10400000261B370B213E3105A8F4809124038F70C5
:10401000806180932403E85BFB4F80818F70806117
:1040200080838EE193E00E94EC190E947F0CDF9167
:10403000CF910895FC013196E770BECFA4E1B0E0C6
:10404000E4E2F0E20C946D2D8C0186E0F801DE01D3
:104050001F9601900D928A95E1F7F8018481E58021
:104060009EE1A92E93E0B92E90912203911128C0D0
:10407000882319F1EE20F1F0C8010E94A90DF82E55
:104080008823C1F087E0F801D50101900D928A954F
:10409000E1F780912203813031F480911E039091E9
:1040A0001F030E94BD0C0E94C31F8F2D6496ECE07D
:1040B0000C94892DC8010E94EC19FF24F394F5CFCC
:1040C000D080C18082809380F090230320912003D0
:1040D00030912103A401421B530BFF2009F4D9C0E6
:1040E000413E510508F092C08823F9F290911F03D8
:1040F00080912403282F207F09F056C0C91214C0D4
:1041000090911E03D91210C0E11048C08F708061D9
:10411000809324038EE193E00E94EC1980912403A4
:10412000F8018683F12CC1CFE11038C06C2D8D2DA4
:104130000E9412066C2D8D2D0E941206E82E811110
:10414000F1CFDF86C88A8F8598890E94BD0C292F00
:1041500022952F70243058F49F70223088F09923D4
:1041600099F0F8019681907F79F4FE2C9ECF2A5F1A
:104170002F70223068F0C8010E94EC19EF2CF5CFA7
:10418000992311F0882389F3805E883070F3F3CF90
:10419000803F58F3815F833070F7E7CF809124032D
:1041A000816080932403BECFC91207C090911E0383
:1041B000D91203C0EE2009F48DC0C8010E94A90DD8
:1041C000882309F477CFEE2009F474CF809124037B
:1041D000803288F020911E0330911F033987288791
:1041E0009B868A86909122039C871D868E87CE01AE
:1041F00008960E94EC1987E0F801AEE1B3E0019067
:104200000D928A95E1F70E94C31F57CF9091240326
:10421000292F207F51F48EE193E00E94EC1987E072
:10422000F50111928A95E9F77DCF882309F43DCFF6
:1042300080911F038C1110C080911E03D8120CC0F6
:10424000E1100AC09683C8010E94EC1987E0F501CD
:1042500011928A95E9F729CFC8010E94A90D8823F8
:1042600009F428CFEE2009F425CF80912403803271
:1042700010F220911E0330911F033A8329839C8200
:104280008B82909122039D831E828F83CE010196A3
:10429000B0CF413E5105D0F6882309F40ECFFE2C55
:1042A000EE2009F407CF80911F038C1120C080916C
:1042B0001E03D8121CC08091240380FD0FC0982FCC
:1042C000907F61F08683903F31F0982F907F905FD0
:1042D0008F70892B8683C8010E94EC1987E0F80152
:1042E000AEE1B3E001900D928A95E1F7DECEC80110
:1042F0000E94A90D81117FCF80912403816080935A
:104300002403C8010E94EC19D0CEABE1B0E0EBE889
:10431000F1E20C94752D4E8B5F8B688F798F8A8FAD
:104320009B8F192F9111109227031D8A86E0FE01A1
:104330007696DE011F9601900D928A95E1F70A8D1F
:10434000002341F021E04F85588969897A89C801A5
:104350000E94CC0D0B8B1C8B87E0FE013F96DE018B
:10436000189601900D928A95E1F7CE0108960E9469
:104370001E2081112AC087E0FE013896DE011196C9
:1043800001900D928A95E1F78C858823F1F02091B8
:10439000410430E0C90101968770992740917A0461
:1043A00048171906E9F097E0929FD001939FB00D4E
:1043B0001124AE5BBB4FFE01319601900D929A9590
:1043C000E1F7809341040E947F0C17E080917A040A
:1043D00090914104891312C06B96E4E00C94912DE6
:1043E0000E9408141092410410927A0487E0EEE1D2
:1043F000F3E0DF011D928A95E9F7E7CF819FC001C5
:1044000011248E5B9B4F0E941E20882329F38091EC
:104410007A0490E001968770992780937A04D6CF2A
:10442000ABE1B0E0E6E1F2E20C946C2D8E010F5F9F
:104430001F4F80E1F80111928A95E9F784EBC82EAD
:1044400082E0D82EF12CE12CAA24A394B12C22ECEA
:10445000822E22E0922EF60181916F018F3F09F4A6
:1044600042C0F894E82FE295EF70F0E021A18F7040
:10447000A50102C0440F551F8A95E2F7CA01922F89
:10448000982B91A392A18095892382A3789400C050
:10449000ECEBF2E0712C31E021912F3F09F495C053
:1044A000A22FA295AF70B0E090968C9190E02F7003
:1044B00002C0959587952A95E2F780FD86C0832FE7
:1044C000782A330F8E169F0639F7F60131978081CF
:1044D0008F3F11F00E94390A50EA5A95F1F7F8011E
:1044E000EE0DFF1D70828FEFE81AF80AE8E0EE1675
:1044F000F10409F0B0CF40E150E0B8018EE693E05E
:104500000E94102E009741F020E1F801AEE6B3E0E2
:1045100001900D922A95E1F700917F0310E0095771
:104520001C4F892B09F453C081E0809335030E940E
:10453000D5139093340380933303D12CC09021047E
:10454000CC2009F49BC07E01F1E1EF0EF11C88E064
:10455000F70111928A95E9F7809169038A3008F092
:104560005AC047E252E1B701C8010E94840F882374
:1045700009F473C040E751E1B701C8010E94840FFC
:10458000882309F46AC046EC51E1B701C8010E94D2
:10459000840F882309F461C01092690380917E031F
:1045A00090E048E050E0B70189579C4F0E94102EE0
:1045B00021E020933C03892B09F042C0C12C8C2DB3
:1045C0008D296B96EDE00C94882D80E079CFD0900A
:1045D0003503DD2009F4B1CF80913303909134038A
:1045E0000E94C613059708F4A8CF48E050E06EE695
:1045F00073E0C8010E94102E892B59F088E0EEE686
:10460000F3E0D80101900D928A95E1F710923503FD
:1046100095CFD12CFBCF80913603909137030E9428
:10462000C613843F914008F09CCF80913C038823BF
:1046300029F288E0F70111928A95E9F710923C037C
:10464000A0917E03B0E0A957BC4F88E0FE017196AF
:1046500001900D928A95E1F7B2CF809169038F3F67
:1046600031F08F5F809369038A3008F497CF0E94FE
:10467000D5139093370380933603D7CF88E0F801A2
:10468000AEE4B3E001900D928A95E1F78EE493E0F9
:104690000E94310680934D038090560390905703FB
:1046A000A0905803B090590380913803909139033A
:1046B000A0913A03B0913B0388169906AA06BB065F
:1046C000B1F08092380390923903A0923A03B092ED
:1046D0003B030E94A807861A970AA80AB90A809283
:1046E0006A0390926B03A0926C03B0926D038BE00F
:1046F000EAE5F3E0DE01519601900D928A95E1F72B
:104700009989892F86958695FA88EB88BC880A8DC9
:104710001B8D10926403112309F451CF10FF0AC0BE
:1047200090FF1CC09091060491609093060460E095
:104730000E947A1911FF06C020E04B2D6E2D8F2D9F
:104740000E942D1012FF04C0002359F00E945E1930
:1047500013FF35CF81E08093DB0331CF0E948E08B9
:10476000E9CF0E944A08F4CFA6E0B0E0EAEBF3E21A
:104770000C94752D0E94D5138C018091310390917A
:1047800032038017910781F019821A820E94D51393
:10479000682F49815A81792F80E090E00E9485211D
:1047A00010933203009331032696E4E00C94912D8C
:1047B0001F921FB61F9211248F939F93AF93BF93A5
:1047C00080912504811113C08091260490912704C3
:1047D000A0912804B09129044196A11DB11D809398
:1047E000260490932704A0932804B0932904BF9132
:1047F000AF919F918F911F901FBE1F901895CDB7BD
:10480000DEB7C854D1090FB6F894DEBF0FBECDBFD6
:1048100085B7806885BF85B7806885BF84B7877F87
:1048200084BF0FB6F894A89580916000886180934A
:104830006000109260000FBE80E890E00FB6F89420
:1048400080936100909361000FBE87E39AE090939C
:10485000E3028093E2020E9448060E94E9068091EA
:10486000E20084608093E20078948091370488238A
:10487000A1F01091E9001F709091EC00892F8170D8
:1048800090FD80E8182B1092E9008091E80083FDEC
:104890000E9427141F701093E90082E084BD93E00A
:1048A00095BD9AEF97BD80936E0010926A031092A7
:1048B0006B0310926C0310926D038091D80080619D
:1048C0008093D8002AE12A95F1F700C08091D900A1
:1048D000182F117080FD04C00E9448061092370402
:1048E000109321041093220410932001112309F442
:1048F0001AC210929D018CE080939E010E94F12BC0
:10490000809120018091200198E0811190E09093A6
:104910007F0388E0891B80937E0304EB12E0D801BB
:104920008D918D018F3F11F00E94390AB2E00C3B4E
:104930001B07A9F70CEB12E0F80181918F018F3F63
:1049400011F00E94390AF2E0023C1F07A9F780E14A
:10495000E7E8F3E0DF01282F1D922A95E9F7EEE65C
:10496000F3E0DF011D928A95E9F790E080E00E9474
:10497000D330853E9E4F09F461C065EE7EEF90E036
:1049800080E00E94073160E082E090E00E94E93020
:1049900081E090E0909381038093800361E083E065
:1049A00090E00E94E93060E074E184E090E00E94D1
:1049B000073160E086E090E00E94E93060E087E047
:1049C00090E00E94E93040E050E0BA0188E090E0D9
:1049D0000E94FB3060E083E290E00E94E93060E0FA
:1049E0008CE090E00E94E93060E08DE090E00E9471
:1049F000E93019821A821B821C821D821E821F824C
:104A0000188648E050E067E170E0CE0101960E9410
:104A1000D93040E050E0BA018FE190E00E94FB30D5
:104A200040E050E0BA018FE090E00E94FB3040E0AF
:104A300050E0BA0183E190E00E94FB3082E090E018
:104A40000E94C5308093970384E090E00E94D330A9
:104A5000909383038093820383E090E00E94C530AB
:104A600090E00E94A40D1092D30380E8809380040C
:104A70000E948F2A6BE070E08BE794E00E94B70FF2
:104A80008823E9F18091D30365E070E081FD51C195
:104A900086E794E00E94B70F882389F16DE070E00B
:104AA00084E694E00E94B70F882349F10E94A8078A
:104AB000605A75418F4F9F4F60930E0470930F049F
:104AC0008093100490931104E3E8F4E080E092E016
:104AD000DF019C011D9221503040E1F7F0938A06DE
:104AE000E09389068FEF9FEF909382048093810477
:104AF00081E080931304809312041092D403809178
:104B00008403811173C088E090E00E94CD304B0196
:104B10005C0183E290E00E94C530282F30E040E045
:104B200050E060E070E080E090E000E20E94C42D80
:104B3000282939294A295B29209306043093070440
:104B4000409308045093090460930A0470930B0483
:104B500080930C0490930D048091E0038360809314
:104B6000E0032C7F89F50E943C1188E090E00E94D0
:104B7000CD306B017C0183E290E00E94C530282F8C
:104B800030E040E050E060E070E080E090E00E94C3
:104B9000C42DB22FA32FF42FE52F5B0197018601BF
:104BA000BC29A12BFE29E32BB0930604A093070494
:104BB000F0930804E093090460930A04B0920B0494
:104BC00080930C0490930D040E949D080E944A0853
:104BD0000E9442088091060480FF05C060E086952F
:104BE00086950E947A1981E0809384038091210444
:104BF000811102C00E94F42B81E291E09093240481
:104C00008093230478E1872E912C8091370485309E
:104C100029F540E4D42E07E913E0CC24C39450E1F5
:104C2000E52E62E1F62E80913704853009F484C0C8
:104C30000E9408140E94DA0710928603809185036F
:104C4000882351F08091060481608093060460E01F
:104C5000869586950E947A190E945E190E941022FC
:104C600028E9C22E23E0D22E37E8A32E33E0B32E5C
:104C7000D501F60191918D9133E0E83AF30709F4FB
:104C8000A2C09817B9F36090210410E0D5010D91EE
:104C90005D01F60181916F018017E1F1F12CEE24A5
:104CA000E394782E702655245394872D8E2151F14C
:104CB000662041F12296FFAE229723961FAF2397DD
:104CC0000E94D51325969FAF8EAF259726965FAE8F
:104CD000269791E0802F8E2109F490E027969FAFD0
:104CE000279722964FAD229723965FAD2397249660
:104CF0006FAD249725967FAD259726968FAD269785
:104D00000E948521F394EE0CF6E0FF12CECFF6015F
:104D1000319700831F5F103109F0B8CF0E94500A0D
:104D20002224239455C08CE080939D0110929E0113
:104D3000E7CD81E794E0AECE80913704843009F46A
:104D400032C00E944A0880918603811109C0C09236
:104D50008603809106048170809385030E948E08EB
:104D60000E94C40F109225040FB6F894A895809263
:104D700060000FBED092600083B7817F846083BFE4
:104D800083B7816083BF7894889583B78E7F83BF14
:104D90000FB6F894A89580916000886180936000B8
:104DA000109260000FBE80913604882309F43BCF37
:104DB0000E941022E7E8F3E0819181113EC30E17B3
:104DC0001F07D1F730CF98135ECF0E94B423212C58
:104DD0008091DF03882309F465C08091DE03E091B0
:104DE0000604E695E695E81BE093DA03823009F0C5
:104DF00004C2F0E0E457FB4FE4910E2F10E099E479
:104E0000E92E99E0F92E8091DB03882361F010925E
:104E1000DB030E9453199093D9038093D803109217
:104E2000DD031092DC030E945319E091D803F09146
:104E3000D9039C012E1B3F0B2F3F3F4798F5209134
:104E4000AA032223B1F01092AA032091A803309163
:104E5000A903821B930B8F3F9F4758F4205D3A486C
:104E60003093A9032093A8038091E0038860809386
:104E7000E003C090DC03D090DD030E0F1F1F1093E2
:104E8000D9030093D80388ED93E0F7010995809149
:104E9000DC039091DD03892B29F4CD2819F081E002
:104EA0008093AA0380911304882309F4C1C08091E0
:104EB000D5039091D6030E94C613C29708F498C0F8
:104EC0000E94D5139093D6038093D50383E894E092
:104ED00090938A068093890680912104882309F49F
:104EE000B1C14091060490910704209108043091CB
:104EF00009048091AB0384278D7F61F48091AC031A
:104F0000891308C08091AD03821304C08091AE0361
:104F10008317A1F1369536953695269526952695D3
:104F2000969596959695542F569556958EE240FDFA
:104F30008AE21F923F931F922F931F929F931F927B
:104F40005F931F928F938FE192E09F938F931F92B5
:104F500087E18F938BE291E09F938F930E94262E9F
:104F600088E0E6E0F4E0ABEAB3E001900D928A95C8
:104F7000E1F70FB6F894DEBF0FBECDBF8BE291E034
:104F80000E94EB0E83E491E00E94EB0E0E94EB077F
:104F900020E032E080FF02C021E132E040E052E058
:104FA00081FF02C045E152E082FD49C180E092E00C
:104FB0009F938F935F934F933F932F938AE392E056
:104FC0009F938F931F9287E18F938BE591E09F933F
:104FD0008F930E94262E8BE591E00E94EB0E83E7D3
:104FE00091E00E94EB0E0FB6F894DEBF0FBECDBF6E
:104FF0008091810490918204892B09F031C18091C4
:1050000012048823A9F00E94A80700910E041091B1
:105010000F042091100430911104601B710B820B5E
:10502000930B6F3F7F4F8F4F9F4710F40E94C40F29
:1050300021100E94DF0F86E0EBE1F4E0DE01119623
:1050400001900D928A95E1F7D0901C04F0901D0418
:1050500000911E04E0901F041091200410921D0482
:1050600010921E0410921F0410922004802F8F298A
:1050700009F448C08091190490911A040E94C61343
:10508000AC019091140421E030E0911102C030E0B5
:1050900020E024173507B0F59F3F19F09F5F9093EC
:1050A0001404FF2059F00E9410089FEF1F140CF405
:1050B00091E0899F802D112480931D04002359F0D5
:1050C0000E94100891E010160CF09FEF899F802D30
:1050D000112480931E0480911D04882399F0C090B0
:1050E0001E04CC2079F00E943408882309F49DC165
:1050F00080931D048C2D0E943408882309F497C1E5
:1051000080931E048E2D812B09F445C080911704D5
:10511000909118040E94C6139C0190911504992344
:1051200009F4A6C121353105B0F19F3F19F09F5F09
:1051300090931504EE2059F00E94EE079FEF1E1485
:105140000CF491E0899F802D112480931F0411237A
:1051500059F00E94EE0791E011160CF09FEF899F25
:10516000802D11248093200480911F04882399F0BE
:10517000E0902004EE2079F00E943408882309F49E
:1051800058C180931F048E2D0E943408882309F48F
:1051900052C18093200480911C04D81217C08091C2
:1051A0001D04882311F08F1111C020911E042223A9
:1051B00011F002130BC090912004992311F01913E0
:1051C00005C030911F04332309F44DC10E94E1133F
:1051D00086E0FE013196ABE1B4E001900D928A9534
:1051E000E1F70E94DA079091D703891709F40DCDF2
:1051F0008093D7030E94A80708CD853061F4E69517
:10520000F0E0E757FB4FE4910E2F10E087EFE82E18
:1052100089E0F82EF8CD00ED17E0A2EAEA2EA7E02B
:10522000FA2E8B3009F0EFCDF0E0EA57FB4FE49116
:105230000E2F10E0BFE6EB2EB9E0FB2EE4CD8AE1A5
:1052400092E0B6CE80E4E5EAF1E0DE01119601904D
:105250000D928A95E1F7CE0101960E94EB0EC8CE21
:1052600080911304882309F4CACE8091D40381115C
:10527000C6CE0E94DF0F2091810430918204211557
:10528000310509F4BCCE80E041E050E0082F10E089
:105290007A01082E02C0EE0CFF1C0A94E2F7B70157
:1052A00062237323672B11F48F5FF0CF9091D303A8
:1052B00090FFA2C0880F880F880F80938D011092F5
:1052C0009001895F80938E0183E08093910124E6B1
:1052D00030E047E050E06BE871E088E70E94C32AC5
:1052E000892B09F08CCEA801E5E0440F551FEA9503
:1052F000E1F78091D30380FF91C0E3EBF3E080E21C
:10530000DF011D928A95E9F7E6ECF2E02996FFAFFE
:10531000EEAF299702EC12E07AECA72E72E0B72EDE
:105320002996AEADBFAD29978D912996BFAFAEAF8F
:105330002997F80121918F01240F352F311D2D5709
:105340003B4FE82FF0E0ED54FC4F90E080E067E049
:10535000462E481A55245394082E01C0550C0A9421
:10536000EAF76901612CD6017D906D017520642DED
:1053700066196770362E062E000C770BB72D01C00C
:10538000BB0F3A94EAF771956195710967707727B9
:1053900001C076946A95EAF77B2A6081362E372819
:1053A0003082639468E06612DECF019631968830D1
:1053B000910569F629968EAD9FAD2997A816B90675
:1053C00009F0AECF04E610E020E230E043EB53E01A
:1053D00060E488E70E944D2B892B09F010CEE09401
:1053E000F0948091810490918204E822F922F09255
:1053F0008204E092810403CE8295880F80768093A8
:105400008D01980136952795369527952093900123
:10541000815E80938E012093910159CF4D575B4F50
:1054200004E610E020E230E0D3CF81E061CE81E0FD
:1054300067CE81E0A6CE81E0ACCEE9BCF9BC09B470
:1054400000FEFDCF8091D8008F7D8093D8008091A1
:10545000E00082608093E0008091E00081FDFCCF5D
:105460000E940814E0CB822B892B09F4B1CEAECE7A
:105470002B30310508F05BCE8ECEEF92FF920F936A
:105480001F93CF93DF93182FEB011092BC0084EA97
:105490008093BC000E94D5137C018091BC0087FFE3
:1054A00027C08091B900887F883029F08091B900A9
:1054B000887F803189F51093BB0084E88093BC001D
:1054C0000E94D5138C018091BC0087FF1EC02091E3
:1054D000B900287F90E080E0283191F081E090E0F1
:1054E000203411F490E080E091958195910908C0F5
:1054F000C7010E94C613C817D90778F68EEF9FEF31
:10550000CDB7DEB7E6E00C948F2DC8010E94C6131C
:10551000C817D907C0F6F2CF8FEF9FEFF1CF1092E7
:10552000B9008CE08093B80008950F931F93CF9338
:10553000DF93EB018093BB0084E88093BC000E9462
:10554000D5138C018091BC0087FF11C02091B90058
:10555000287F81E090E0283211F490E080E091957E
:1055600081959109DF91CF911F910F910895CF3FC0
:10557000DC0741F3C8010E94C613C817D90710F70A
:105580008EEF9FEFEFCFB0E0A0E0E9ECFAE20C94F1
:105590006C2D782E5B016A0189010E94D5134C01A4
:1055A000C1E0D0E00431110558F0C5E0D0E00F3F74
:1055B000100731F0C80164E170E00E94532DEB0147
:1055C000BE01872D0E943D2A7C0197FF09C00F3F35
:1055D0001007B1F3C4010E94C6130817190780F71A
:1055E000E501CA0CDB1CCC15DD0511F0F7FE09C086
:1055F00084E98093BC00C701CDB7DEB7EDE00C9421
:10560000882DB80189910E94952A7C01ECCFB0E0E9
:10561000A0E0EDE0FBE20C946C2D782E5B016A01BA
:1056200089010E94D5134C01C1E0D0E0043111057D
:1056300058F0C5E0D0E00F3F100731F0C80164E139
:1056400070E00E94532DEB01BE01872D0E943D2A80
:105650007C0197FF09C00F3F1007B1F3C4010E94FE
:10566000C6130817190780F7E501CA0CDB1CCC1517
:10567000DD0511F0F7FE09C084E98093BC00C70185
:10568000CDB7DEB7EDE00C94882DFE018491B80112
:105690000E94952A7C012196EACFB0E0A0E0E3E5E4
:1056A000FBE20C946B2D682E762E5A0169010E9444
:1056B000D5134C01C1E0D0E00431110558F0C5E02C
:1056C000D0E00F3F100731F0C80164E170E00E94A4
:1056D000532DEB01BE01862D0E943D2A7C0197FFD0
:1056E0001DC00F3F1007B1F3C4010E94C613081775
:1056F000190780F784E98093BC00C701CDB7DEB7F6
:10570000EEE00C94872DB80189910E94952A7C01C6
:10571000CC16DD0679F3F7FEF6CFECCFB801872D76
:105720000E94952A7C01E501CA0CDB1CF1CF8EE1B9
:105730004A9B02C08150E1F74A9BFECF08955A98D8
:1057400080E28A95F1F75A9A0895FC013BE03A9578
:10575000F1F798E020E080E031E040E14A95F1F790
:10576000880F4A9B02C08160232742E04A95F1F7E7
:10577000000040E14A95F1F7915079F790E19A9550
:10578000F1F799B132E03A95F1F7000040E14A951E
:10579000F1F792FB992790F992272081920F90833D
:1057A0000895A1E0B0E0E7EDFBE20C94732D1982BF
:1057B0008C017C01E60EF11C0E151F0541F481E001
:1057C0009981911180E02196E6E00C948F2D0E9442
:1057D000972BCE0101960E94A52BF80181938F0192
:1057E000EBCF529A5A9A089552985A9AEA9AE9E651
:1057F000F0E080818F7C808308956150770B91E089
:1058000001C0990F6A95EAF720E031E0911108C0D4
:10581000222391F05A9A80E28A95F1F75A980895D6
:10582000492F482339F05A9A232740E24A95F1F745
:105830009695ECCF5A98F9CF5A98EDCFFF920F93E7
:105840001F93CF93DF93EC018C01060F111DC0173E
:10585000D10729F4CDB7DEB7E5E00C94902DF9908F
:105860000E949F2B68E08F2D0E94FD2BF0CF1F928E
:105870000F920FB60F9211240F931F932F933F9304
:105880004F935F936F937F938F939F93AF93BF9348
:10589000EF93FF93CF93DF930F92CDB7DEB71982CB
:1058A0000E94972BCE0101960E94A52B082F0695EA
:1058B00006950695282F22952570902F9570290F13
:1058C000922F937026952695920F9827977089812D
:1058D000982B09F05CC0053008F059C080E18A952A
:1058E000F1F75A9A529A82E08A95F1F700C05A98D5
:1058F00088E0089F80011124D801A050BF4F169660
:10590000ED91FC9117973097A9F06091B2027091D8
:10591000B30214962D913C911597260F371F1196BF
:105920008D919C911297680F791F13964C91139744
:105930008C910995F801E050FF4F6381662351F087
:105940002091B2023091B30284819581820F931F1E
:105950000E941E2C0E949F2B80E18A95F1F75A9895
:1059600052985A9A80E18A95F1F7F801E050FF4F7A
:105970006081662351F02091B2023091B30281819F
:105980009281820F931F0E94D12B0E94972B0F9020
:10599000DF91CF91FF91EF91BF91AF919F918F9147
:1059A0007F916F915F914F913F912F911F910F9137
:1059B0000F900FBE0F901F9018950F931F93CF93CA
:1059C000DF93EC0105970CF04CC0F894529A5A986A
:1059D00085E08A95F1F700009C2F969595708C2FA5
:1059E0008570980F892F83709695969523E0CC0F3C
:1059F000DD1F2A95E1F7980F8E01092B0E949F2B3E
:105A000000C068E0802F0E94FD2B80E18A95F1F7AD
:105A100052985A9A4A9B1EC087E090E04A991CC04F
:105A2000FE01E050FF4F63816623F9F02091B2023E
:105A30003091B30284819581820F931F0E94D12BF4
:105A4000811113C0529A5A9A7894DF91CF911F9185
:105A50000F91089500C0DECF019729F4529A5A9A07
:105A6000789480E0F2CF00C0D9CF0E94972B80E2DB
:105A70008A95F1F75A98529A80E18A95F1F7C050C9
:105A8000DF4F6881662351F02091B2023091B3025A
:105A900089819A81820F931F0E941E2C0E949F2B46
:105AA000789481E0D2CFAA1BBB1B51E107C0AA1F8B
:105AB000BB1FA617B70710F0A61BB70B881F991FAF
:105AC0005A95A9F780959095BC01CD0108952F9224
:105AD0003F924F925F926F927F928F929F92AF927E
:105AE000BF92CF92DF92EF92FF920F931F93CF93CB
:105AF000DF93CDB7DEB7CA1BDB0B0FB6F894DEBF62
:105B00000FBECDBF09942A88398848885F846E8487
:105B10007D848C849B84AA84B984C884DF80EE80D1
:105B2000FD800C811B81AA81B981CE0FD11D0FB6DA
:105B3000F894DEBF0FBECDBFED010895991B79E04B
:105B400004C0991F961708F0961B881F7A95C9F70D
:105B50008095089597FB072E16F4009407D077FDE3
:105B600009D00E94532D07FC05D03EF490958195F5
:105B70009F4F0895709561957F4F0895EE0FFF1F19
:105B80000590F491E02D0994002E083090F0982FA4
:105B9000872F762F652F542F432F322F222708501F
:105BA000F4CF220F331F441F551F661F771F881F16
:105BB000991F0A95B2F7002D089597FD1094002EB5
:105BC000083098F00850232F342F452F562F672F79
:105BD000782F892F912DF4CF1594979587957795E8
:105BE000679557954795379527950A95AAF71124F4
:105BF000002D0895FB01DC0102C005900D9241507B
:105C00005040D8F70895FC014150504030F00190C9
:105C10000616D1F73197CF0108958827992708955F
:105C2000FB01DC0104C08D910190801921F44150E9
:105C30005040C8F7881B990B0895FB01DC0102C096
:105C400001900D9241505040D8F70895AEE0B0E079
:105C5000ECE2FEE20C94752D0D891E898F89988DDA
:105C600026E02C831A83098397FF02C080E090E826
:105C700001979E838D83AE01455E5F4F698D7A8D5E
:105C8000CE0101960E94562E4D815E8157FD0AC0BD
:105C90002F813885421753070CF49A01020F131F06
:105CA000F80110822E96E4E00C94912DABE0B0E068
:105CB000ECE5FEE20C94672D7C013B018A01FC01BE
:105CC00017821682838181FFB9C19AE0292ECE0105
