:100000000C9429020C94341D0C9446020C94460264
:100010000C9446020C9446020C9446020C94460240
:100020000C9446020C9446020C94E6220C94BA23DB
:100030000C94B31B0C9446020C9446020C9446029A
:100040000C9446020C9446020C9446020C94460210
:100050000C9446020C94561C0C9446020C944602D6
:100060000C9446020C9446020C9446020C944602F0
:100070000C9446020C9446020C9446020C944602E0
:100080000C9446020C9446020C9446020C944602D0
:100090000C9446020C9446020C9446020C944602C0
:1000A0000C9446020C9446020C944602290014005B
:1000B0001A000800150017002D002B000400160080
:1000C000070009000A002F00E1001D001B000600C8
:1000D000190005002C00E000E300E2003504417E39
:1000E0002C004C003100130012000C0018001C0002
:1000F0002E00340033000F000E000D000B00300006
:10010000E5003800370036001000110028004F00CD
:10011000520051005000427E28002A0035001E0285
:100120001F022002210222022D0235021E001F00A2
:100130002000210022002F02E100230024002500DE
:10014000260027002C00E000E300E2003504417E99
:100150002C004C0031022702260225022402230231
:100160002E02340233024F00520051005000300280
:10017000E5003802370236021000110028004D0059
:100180004B004E004A00427E28002A0035001E0225
:100190001F022002210222022D0235023A003B00FA
:1001A0003C003D003E002F02E1003F0040004100C6
:1001B000420043002C00E000440045003504417E2D
:1001C0002C004C00310227022602250224022302C1
:1001D0002E02340233024F00520051005000300210
:1001E000E5003802370236021000110028004D00E9
:1001F0004B004E004A00427E28002A000100007C8D
:100200002078217824782378010001000100027809
:100210000678047803780100010001000100010064
:1002200001000100010001000100010001000100C6
:100230000100010001000100277828782578267840
:1002400001000100010001000100010001000100A6
:100250000100010001000100010001000100010096
:100260000100010001000100010001000000000088
:10027000000000002A2B2800000000000000000001
:100280000000000000000029000000002C1E3420A7
:10029000212224342627252E362D3738271E1F20CD
:1002A0002122232425263333362E37381F04050612
:1002B0000708090A0B0C0D0E0F1011121314151656
:1002C0001718191A1B1C1D2F3130232D3504050654
:1002D0000708090A0B0C0D0E0F1011121314151636
:1002E0001718191A1B1C1D2F3130354C0000000047
:1002F00000000000000000000000000000000000FE
:1003000000000000000000000000000000000000ED
:100310007E0F00D4FFFFFFC7000000781C034500DC
:10032000720067006F0044006100730068002000E5
:100330004D0069006E00690000000C034F006D0065
:100340006B006200640000000403090409025B0002
:10035000030100A0FA0904000001030101000921C2
:10036000110100012244000705810308000109046E
:1003700001000203000000092111010001222200F6
:10038000070582032000010705030320000109047B
:1003900002000103000000092111010001223200C6
:1003A000070584032000011201000200000008ED8F
:1003B000FE60600001010200010660FF0961A10109
:1003C0000962150026FF0095207508810209631552
:1003D0000026FF00952075089102C005010980A143
:1003E00001850319012AB700150126B7009501758B
:1003F000108100C0050C0901A101850419012AA082
:1004000002150126A002950175108100C0050109A1
:1004100006A101050719E029E715002501950875D2
:100420000181029501750881010507190029FF1551
:100430000026FF00950675088100050819012905A9
:10044000150025019505750191029501750391012E
:10045000C00011241FBECFEFDAE0DEBFCDBF11E038
:10046000A0E0B1E0E6EEFCE402C005900D92A83BEE
:10047000B107D9F722E0A8EBB1E001C01D92A23A82
:10048000B207E1F70E944A140C941F260C94000056
:10049000CF93FB0182342EE79207A9F083342EE735
:1004A0009207F1F0C1E081349E47B9F4C58181E043
:1004B000CC2361F00E94AB0743E062E081E00E9440
:1004C000D308C0E00AC0C58182E0F2CF0E94B7071E
:1004D00043E062E081E00E94D3088C2FCF91089521
:1004E000C58183E0CC2319F00E94AB07EACF0E94BC
:1004F000B707F3CF8430B8F46830A8F4473098F4E5
:1005000050E097E0699F400D511D1124FA0198E3D6
:10051000899FE00DF11D1124EE0FFF1FE455FF4FE1
:1005200085919491089581E090E0089581E0089587
:100530000E949602089581E008950E94480208955D
:1005400008950E94A0020895A6E0B0E0EAEAF2E071
:100550000C948F2549835A839E833091BF018981F2
:100560009A8131111AC03E81332399F0222389F0F8
:100570000E945B08182F682F89819A810E94370892
:1005800069817A81812F0E94570F2696E3E00C94AF
:10059000AB250E944908182FF3CF0E945B086981A0
:1005A0007A81F1CFFC01262F4081518162817381D4
:1005B000848195810E94A4020895CF93DF93EC017A
:1005C00061E00E94D202BE010E949802DF91CF91A9
:1005D0000895CF93DF93EC0160E00E94D202BE0148
:1005E0000E94A102DF91CF91089581E008950E94B9
:1005F000F5020895CF93C82F0E9433078C2F0E94D5
:10060000F7022FEF84E39CE0215080409040E1F717
:1006100000C00000CF91089581E00E94FA020E947C
:100620007A1C089580E00E94FA020E948B1C0895B3
:100630000F931F93CF93DF938C0161E00E94D2024E
:10064000EC01B8010E94AB19811106C080E0DF9176
:10065000CF911F910F910895B801CE010E949D0284
:100660008823A1F3B801CE010E94B818882371F342
:10067000B801CE010E946916882341F3B801CE016A
:100680000E943F16882311F3B801CE010E94FC1886
:100690008823E1F2F8018581882361F0C330FCE70B
:1006A000DF07E9F058F4C115ECE7DE07A9F0C13027
:1006B000DC47B9F0C8010E949B02C9CFCB358CE75B
:1006C000D807A9F0CC35ECE7DE0771F0CA35DC4776
:1006D00089F70E94940CEECF0E940C03B7CF0E94C2
:1006E0009C0C0E941203B2CF0E948A0CE3CF0E949E
:1006F000980CE0CF0E94901B0E94A10308950E94D5
:10070000A5030E94951B0895089581E0089508951A
:10071000CF93DF93D82F0E948503C82F882319F029
:100720008D2F0E9487038C2FDF91CF91089508951C
:10073000CF93C82F0E9484038C2F0E948803CF91EF
:10074000089580E00E94980308950E94971A0E94DD
:1007500098030895CF930E94971AC82F8091BA01E9
:100760008C1779F0C093BA010E941F1C6093BB01E3
:100770007093BC018093BD019093BE018C2F0E94A9
:100780009803CF910895ADE0B0E0E9ECF3E00C946C
:100790009025488759876A877B878C879D87911129
:1007A0000E94CA0B1F8286E0FE013896DE01119678
:1007B00001900D928A95E1F78D8181110DC02981FB
:1007C0003A814B815C816D817E818F810E94140B07
:1007D0002D96E2E00C94AC25CE0101960E94DD023C
:1007E0008111EDCFF5CFFC012481213021F48081EE
:1007F00091810E9488080895CF93C82F8823C9F05B
:100800008238C9F40E94AB1A81FD13C089E30E94AB
:10081000531B0E94390C2FEF87EE93E0215080404C
:100820009040E1F700C0000089E30E945B1B0E943A
:10083000390CCF9108958338A1F40E94AB1A80FD42
:10084000F8CF83E50E94531B0E94390C2FEF81EEF5
:1008500094E0215080409040E1F700C0000083E523
:10086000E4CF8438A1F40E94AB1A82FDE2CF87E482
:100870000E94531B0E94390C2FEF81EE94E021500F
:1008800080409040E1F700C0000087E4CECF8CEFBD
:100890008C0F813A70F48C2F0E94181B882329F04A
:1008A0008C2F0E945B1B0E94390C8C2F0E94531BC3
:1008B000BECF80E28C0F883048F4C77081E001C061
:1008C000880FCA95EAF70E94AD0BB1CFEBE5EC0FAC
:1008D000E33040F4F0E0E15AFE4F808190E00E9466
:1008E000B91AA7CFC85ACB3108F0A3CFEC2FF0E04C
:1008F000EE0FFF1FE75DFE4F808191810E94DE1A9F
:1009000098CF882309F44DC0823879F40E94AB1A3D
:1009100081FF47C089E30E94531B0E94390C89E381
:100920000E945B1B0E94390C0895833859F40E9481
:10093000AB1A80FF36C083E50E94531B0E94390C1E
:1009400083E5EECF843859F40E94AB1A82FF29C0A8
:1009500087E40E94531B0E94390C87E4E1CF9CEF8F
:10096000980F913AE8F290E2980F983050F487701F
:1009700091E001C0990F8A95EAF7892F0E94B30B85
:10098000D1CF9BE5980F933028F490E080E00E944F
:10099000B91A0895885A8B3120F490E080E00E94C3
:1009A000DE1A08951F93CF93DF93182FEB010E9457
:1009B000FC03209739F4812F0E948104DF91CF91AD
:1009C0001F9108958FE99FE00197F1F700C00000A3
:1009D0002197EFCF70E060E0893311F460E570E0BB
:1009E0000E94D2040895882321F00E94AD0B0E943A
:1009F000390C0895882321F00E94B30B0E94390C12
:100A00000895B0E0A0E0E7E0F5E00C9489256C01E2
:100A1000D62FC72FFC011581068102950F700E9409
:100A2000A30BE82E8823F9F0E12E1123E1F08C2F9F
:100A3000807F803461F080E28D0F883008F18C2F48
:100A4000807E803221F4D230D8F00023C9F080912A
:100A50007A0282FF15C082E00E945E0C0E94A30B06
:100A600091E0E82EE926BC2EB2949FE0B922FBE08B
:100A7000FB15B8F1EB2DF0E0EF5DF94D0C9473250B
:100A8000E12CF1CF0C2F0F70C07F11F00295007F89
:100A9000112399F0002359F080E28D0F883010F077
:100AA000D11107C0802F0E94AD0B0E94390C8D2FF1
:100AB0005AC0802F0E94BD0BF8CF8D2F0E94810459
:100AC000002379F080E28D0F883010F0D11104C03E
:100AD000802F0E94B30B03C0802F0E94C30B0E9483
:100AE000390CEB2DE850FF0B349720F40E94971A35
:100AF0000E949803EE2089F00E949F0B80FD0DC09C
:100B0000F60115820E94990B0E94AB07C6010E9454
:100B1000FE060E94990B0E94B707CDB7DEB7E9E049
:100B20000C94A5252C2F2F70F22EC07FC03219F007
:100B3000F29480EFF822DD2341F0D130D1F111237E
:100B400009F444C00023F1F0B2CF80917A0282FD13
:100B500015C0112359F0FF2029F08F2D0E94AD0BF5
:100B60000E94390C80E00E94FC03BBCF80E00E9411
:100B70008104FF2009F4B5CF8F2DABCF112369F08D
:100B8000011104C08F2D0E94F304ABCF013009F096
:100B9000A8CF8F2D0E94E10BA4CF0111A2CF8F2DE2
:100BA0000E94FA048F2D0E94ED0B8F2D0E94D10B15
:100BB00098CF112321F0063008F093CFE3CF053012
:100BC00008F08FCF8F2D0E94FA048BCF0023D1F332
:100BD000D93349F43FEF87EE93E0315080409040A5
:100BE000E1F700C000008D2F0E9481047ACF8C2F86
:100BF00086958695837069F0813009F072CF8D2FCC
:100C00009C2F9370111102C080E090E00E94DE1AC8
:100C100068CF8D2F9C2F9370111102C080E090E05F
:100C20000E94B91A5ECF8C2F837079F5111159CFBC
:100C30004D2F429546954770440F440F8D2F8F706E
:100C4000042E01C0880F0A94EAF72D2F2071D4FFDB
:100C500007C02FE030E001C0220F4A95EAF7209547
:100C6000C695C695C370822BC23049F058F4C13086
:100C700019F00E94870735CF0E94810732CF0E946A
:100C80008D072FCF0E947E072CCF8695112311F060
:100C90008C2F8170882309F424CF4D2F42954695DF
:100CA0004770440F440F8D2F8F70042E01C0880FA2
:100CB0000A94EAF72D2F2071D4FF07C02FE030E00F
:100CC00001C0220F4A95EAF72095C695C695C370D4
:100CD000822BC23049F058F4C13019F00E94D60777
:100CE00000CF0E94D007FDCE0E94DC07FACE0E9402
:100CF0009907F7CECF70112329F08C2F0E94AB07F4
:100D00008D2F41CF8D2F0E94FA048C2F0E94B707A0
:100D1000E8CED23F41F160F4D03FB9F0D13F81F04D
:100D2000112309F443C00111C2CE8C2F8F711FC053
:100D3000D33F01F1D43FA1F780917A0282FD24C014
:100D40008C2F8F71112311F312C0112341F0053044
:100D500008F0C7CE8C2F8F710E94C407C2CE063018
:100D600008F0BFCEF7CF8C2F8F711111CFCF0E941B
:100D7000AB07B7CE112329F08C2F8F710E94A207E9
:100D8000B0CE0E949E07ADCE112331F063E08C2FD0
:100D90008F710E94400CA5CE81E00E945E0C023053
:100DA00008F49FCE82E00E945E0C9BCE002359F097
:100DB000D93309F018CFEFEFF7EE23E0E150F04020
:100DC0002040E1F70ECF8C2F8F71A0CF0F931F9390
:100DD000CF93DF93EC01688179818D810E94930824
:100DE0008C010E94E2070E947D07B801CE010E949B
:100DF0000105DF91CF911F910F910895CF93DF935C
:100E0000EC018C81882399F0CE010E941803811196
:100E100011C00E94A30B882351F08D81882339F0E3
:100E200080917A0282FF03C082E00E945E0CDF9113
:100E3000CF910895CE010E94E606CE010E94E902FC
:100E4000F6CF90E080E00E94B91A90E080E00E9426
:100E5000DE1A0E94CA0B0E94390C08950E94631B7F
:100E60000E94210708950E94BA0B0E942E07089540
:100E700092959F70963091F058F4925F9F709230E7
:100E800058F4803F19F030F4883E30F481E0089542
:100E90009A5FF4CF843FD1F380E00895883EB0F3A9
:100EA000813FD1F7F3CFFC012481222339F08081E7
:100EB00091810E9488080E943807089580E0089573
:100EC000A6E0B0E0E6E6F7E00C9490252696E2E096
:100ED0000C94AC25A7E0B0E0E0E7F7E00C94902597
:100EE0002796E2E00C94AC2508950E9474070895BB
:100EF0000E9475078093D601089508950E9478078F
:100F000008959091D601892B0E94780708959091B9
:100F1000D60189230E94780708959091D6018927E8
:100F20000E94780708950E94740708950E9493070D
:100F300008950E9496078093D501089580E00E944D
:100F40009907089591E001C0990F8A95EAF7892FD2
:100F50000E949907089521E030E001C0220F8A9590
:100F6000EAF78091D501822B0E949907089521E02C
:100F700030E001C0220F8A95EAF720958091D501D3
:100F800082230E949907089521E030E001C0220FDA
:100F90008A95EAF78091D50182270E9499070895E2
:100FA0009091D501892B0E94990708959091D501C0
:100FB00089230E94990708959091D50189270E945D
:100FC000990708950895262F277091E001C0990F81
:100FD0002A95EAF723E0769567952A95E1F7FB01D4
:100FE000EE0FFF1FE60FF71FE40FF51F50E040E084
:100FF000682F70E08191DF0111979B01042E02C0E0
:10100000369527950A94E2F7217021952827292300
:1010100028272C934F5F5F4F4330510559F70895B0
:10102000A82FA77023E0969587952A95E1F7FC01F4
:10103000EE0FFF1FE80FF91FE60FF71F50E040E02B
:1010400080E0219130E00A2E02C0369527950A945F
:10105000E2F721703327042E01C0220F0A94EAF729
:10106000822B4F5F5F4F4330510559F70895262F6C
:10107000983070F4873060F4682F70E087E0989FB4
:10108000600D711D112440EC51E0822F0E94E30796
:101090000895292F983068F4873058F490E060EC78
:1010A00071E037E0239F800D911D11240E941008EC
:1010B000089580E00895CF92DF92FF920F931F93DF
:1010C000CF93DF936C010091D5018091D601082B5D
:1010D000C3E0D0E010E0FC2EC8010C2E02C09595B4
:1010E00087950A94E2F780FD0CC02197A0F7F12CB8
:1010F0008F2DDF91CF911F910F91FF90DF90CF90B7
:101100000895B6018C2F0E94630F019771F3F0CF01
:10111000CF93DF93EC010E945B08BE010E94630F36
:10112000DF91CF9108951F93CF93DF93EB019091BF
:10113000BF01992339F0CB010E948808DF91CF913C
:101140001F910895882369F0CB010E945B08182F36
:10115000682FCE010E943708BE01812F0E94630FC5
:10116000EDCFCB010E944908182FF6CFE1E0F0E067
:10117000DF0102C0AA0FBB1F6A95E2F7BD01DF01C4
:1011800002C0AA0FBB1F4A95E2F76A2B01C0EE0FFF
:101190002A95EAF7962F9823961302C08E2B08956E
:1011A000E0958E230895242F462F682F8091D50136
:1011B0000E94B6080E94990708951F93CF93DF936A
:1011C000C091D70117E08091D8018C1304C0DF9142
:1011D000CF911F910895D0E01C9FF0011D9FF00D4D
:1011E0001124E752FE4F2081318142815381648175
:1011F000758186810E946A072196C770E4CF20918D
:101200001102309112024091130250911402609128
:10121000150270911602809117020E946A070895C4
:10122000CF93DF9380911702807F09F04DC08091AA
:101230001602882309F448C0E091D7015091D801E3
:10124000C0911202D09111026091130270911402A8
:1012500047E05E17C9F18E2F90E0E49FF001112462
:10126000E752FE4F2481222391F1489FF001499FCC
:10127000F00D1124DF01A752BE4F11962C9111974A
:101280002C1325C02C912D1322C015962C91159747
:1012900021111DC012962D913C91261B370B28372A
:1012A0003105A8F4809117028F7080618093170236
:1012B000E152FE4F80818F708061808381E192E0F6
:1012C0000E94FE060E94DD08DF91CF910895FC0187
:1012D0003196E770BECF482F2091D7019091D80169
:1012E00057E0291302C080E0089530E0529FF001DA
:1012F000539FF00D1124E752FE4F8181681306C001
:101300008081481303C085818111EECF2F5F3F4F4D
:101310002770E7CFA4E1B0E0E0E9F9E00C9486257E
:101320008C0186E0F801DE011F9601900D928A95EE
:10133000E1F7F8018481E58091E1A92E92E0B92ED0
:101340009091150291111FC08823D1F0EE20A9F0D1
:10135000C8010E945307F82E882379F087E0F8012E
:10136000D50101900D928A95E1F7C5010E94F30322
:101370000E9410090E94FF085FC0C8010E94FE067B
:10138000FF24F39459C0C080D18082809380F09074
:1013900016022091130230911402A401421B530B38
:1013A000FF2009F4F9C04837510508F0A7C0882389
:1013B00009F442C09091120280911702282F207FD9
:1013C00009F05CC09D1116C090911102C91212C0A3
:1013D000E1104EC08F708061809317020E94FF0859
:1013E00081E192E00E94FE0680911702F801868357
:1013F000F12C22C0E1103CC06D2D8C2D0E946B0998
:101400006D2D8C2D0E946B09E82E8111F1CFCF86B6
:10141000D88A8F8598890E948808292F22952F7055
:10142000243078F49F702230A8F09923B9F0F801A5
:101430009681907F99F4FE2C8F2D6496ECE00C94AD
:10144000A2252A5F2F70223068F0C8010E94FE0694
:10145000EF2CF1CF992311F0882369F3805E883057
:1014600050F3F3CF803F38F3815F833070F7E3CFE1
:1014700080911702816080931702BACF9D1113C02B
:1014800090911102C9120FC0E1100DC08683C801EE
:101490000E94FE0687E0F801A1E1B2E001900D9202
:1014A0008A95E1F767CFC8010E945307882309F4A2
:1014B00064CFEE2009F461CF80911702803288F06A
:1014C0002091110230911202398728879B868A86E3
:1014D000909115029C871D868E87CE0108960E94EA
:1014E000FE0687E0F801A1E1B2E001900D928A9535
:1014F000E1F70E9410090E94FF0842CF9091170265
:10150000292F207FA1F4682D9A8A898AA6017A89D9
:101510009E2D0E94600781E192E00E94FE0687E016
:10152000F50111928A95E9F70E94FF0861CF88239F
:1015300009F482CF809112028D1110C080911102A6
:10154000C8120CC0E1100AC09683C8010E94FE06B2
:1015500087E0F50111928A95E9F76ECFC8010E94E4
:101560005307882309F409CFEE2009F406CF8091B0
:101570001702803208F4B5CF209111023091120287
:101580003A8329839C828B82909115029D831E82CF
:101590008F83CE010196A3CF48375105B8F5882334
:1015A00009F4EECEFE2CEE2009F4E7CE8091120273
:1015B0008D111EC080911102C8121AC080911702AD
:1015C00080FD0DC0982F907F51F08683903F09F4E5
:1015D0005ECF982F907F905F8F70892B57CF87E0D9
:1015E000F801A1E1B2E001900D928A95E1F724CFD4
:1015F000C8010E945307811174CF80911702816046
:1016000080931702C8010E94FE0616CF682D9A8AA1
:10161000898AA6017A899E2D0E94600787E0F501DC
:1016200011928A95E9F7A6CEAEE0B0E0EAE1FBE0E0
:101630000C948F25288739874A875B876C877D873D
:101640008E87CE0108960E948A098823B1F06C85A6
:10165000662341F0288539854A855B857D858E85A1
:101660000E946A0717E08091D7019091D8018913F1
:101670003DC02E96E3E00C94AB2587E0FE01389642
:10168000DE01119601900D928A95E1F78C858823F1
:1016900049F32091D80130E0C9010196877099275C
:1016A0004091D7014817190699F097E0929FD00111
:1016B000939FB00D1124A752BE4FFE0131960190A9
:1016C0000D929A95E1F78093D8010E94DD08CACF68
:1016D0000E9433071092D8011092D70187E0E1E110
:1016E000F2E0DF011D928A95E9F7BCCF819FC0012E
:1016F000112487529E4F0E948A09882309F4B9CF8A
:10170000E091D7011E9FF0011124E752FE4F208186
:101710003181428153816481758186810E946A078B
:101720008091D70190E00196877099278093D70127
:101730009ACF80912002869586958695089580910E
:1017400020028770089590912002977081E009F43B
:1017500080E0089580912C02089590912C02892BAD
:1017600080932C020895809590912C029823909359
:101770002C02089510922C02089590912B02892B2F
:1017800080932B020895809590912B02982390933B
:101790002B02089510922B02089508950E94CD0BFC
:1017A000089590912102292F282331F080958923D3
:1017B000809321020E94CE0B089508950E94DD0BB4
:1017C000089590912202292F2823281729F0982B79
:1017D000909322020E94DE0B089590912202292FFD
:1017E000282331F080958923809322020E94DE0B0A
:1017F000089580912202882329F01092220280E02D
:101800000E94DE0B08950F931F93CF93DF930091F7
:10181000000110910101C0912C0280912B02C82B74
:1018200080912202882331F0C82B0E94031B811172
:101830000E94F90BF801C083C0910001D091010111
:1018400048E050E068E172E0CE010E94B725892BA4
:1018500059F088E0FE01A8E1B2E001900D928A956E
:10186000E1F7CE010E94AE1ADF91CF911F910F9147
:1018700008950E94030C089508950E943C0C089559
:1018800090917A0292FF11C098E0899F90011124F3
:10189000622B609320020E94AB0780912002869504
:1018A000869586950E943D0C08950E94AB07089589
:1018B0001092200280E00E943D0C08959091200239
:1018C0008095892380932002282F277069F4891737
:1018D00059F090917A0292FF07C086958695869579
:1018E0000E94B7070E94580C089590917A0292FBCB
:1018F000222720F9281769F080FB92F990937A0249
:101900008091790290917A020E94BE0C82E00E943E
:101910005E0C089580917A0282FB882780F991E01D
:1019200089270E94750C089581E00E94750C089526
:1019300080E00E94750C08956FEF7FEF90E080E0EB
:101940000E940926089590E080E00E94D525853EFA
:101950009E4F19F40E944519089580E0089582E091
:1019600090E00E94CD25089583E090E00E94CD256F
:10197000089584E090E00E94D5250895BC0184E09C
:1019800090E00E9409260895AB01BC018FE090E031
:101990000E94FD250895AB01BC0183E190E00E9407
:1019A000FD25089560E070E0CB010E94CB0C089506
:1019B00060E070E0CB010E94C40C0E94D20C08953C
:1019C000A8E0B0E0E6EEFCE00C94902565EE7EEF3A
:1019D00090E080E00E94092660E082E090E00E94B2
:1019E000EB2581E08093D60161E083E090E00E94E6
:1019F000EB2560E074E184E090E00E94092660E05D
:101A000086E090E00E94EB2560E087E090E00E9495
:101A1000EB2540E050E0BA0188E090E00E94FD250F
:101A200060E083E290E00E94EB2560E08CE090E0D3
:101A30000E94EB2560E08DE090E00E94EB2519828A
:101A40001A821B821C821D821E821F82188648E019
:101A500050E067E170E0CE0101960E94DB2540E096
:101A600050E0BA018FE190E00E94FD2580E00E94E5
:101A70005E190E948D190E94D80C2896E2E00C9401
:101A8000AC250E94E00C0895682F8EE090E00E9443
:101A9000EB250895A6E0B0E0E0E5FDE00C948E258E
:101AA0000E94131C8C0180912D0290912E028017B0
:101AB000910781F019821A820E94131C682F4981B4
:101AC0005A81792F80E090E00E94C30310932E0288
:101AD00000932D022696E4E00C94AA250E947F1024
:101AE00060933B0270933C0280933D0290933E02D0
:101AF00060933702709338028093390290933A02D0
:101B00000895089508950E94810D089508950E94F2
:101B1000860D089581E0089589E990E10E9461149D
:101B20000E94820D0E94830D08950E94561208950E
:101B3000089508950E94980D0E94990D08950E949D
:101B4000A30C811102C00E94410D0E94AF0C809332
:101B50003F020E94B90C90937A02809379020E940E
:101B600084140E94B40C0E947E078091D5010E94CB
:101B7000960708950E940A1C0E9459100E949D1900
:101B80000E945C120E94AD110E949F0D0E9497035B
:101B90000E9487140E946E120E94870D0895A6E08D
:101BA000B0E0E5EDFDE00C9487250E948A0D8111DF
:101BB0000AC00E944A0D0E9456120E94AA0326964D
:101BC000EBE00C94A3250E94D0118FE2A82E82E0B6
:101BD000B82E750110E0F70101917F01812F0E945D
:101BE000A3101F5F183009F441C00817A1F38091BA
:101BF0003F0281FD0E94A9100E94950DC82E10E0A1
:101C000099249394812F0E94A310082FF5018191AC
:101C10005F01081729F1F12CEE24E394D02ED82689
:101C20008D2D8E21A9F0CC2099F0F9821A830E9483
:101C3000131C9C838B839D8291E0802F8E2109F45D
:101C400090E049815A816B817C818D810E94C30320
:101C5000F394EE0CF7E0FF12E3CFF5013197008328
:101C60001F5F183079F60E946E0DA5CF0813BFCF05
:101C7000A0CF1F93CF93DF930E94680FEC01C11593
:101C800080E5D807F0F5C11580E4D80708F09CC0BE
:101C9000C03ED10520F5CD3CD10508F082C0C83A40
:101CA000D10578F4C53AD10508F073C0C130D1052B
:101CB00019F1209709F1C430D105F0F4D0E0C0E06B
:101CC0001BC0C33CD105D0F7C85AD0E0CC0FDD1FF4
:101CD000CE59DE4F0990D881C02DD4640DC0C115F6
:101CE00080E2D80708F0D1C0C11581E0D80708F01C
:101CF0005AC0C83ED10510F7CE01DF91CF911F9198
:101D00000895C03682E5D80718F5C03482E5D807B3
:101D100008F06BC0C03282E5D80708F05FC0C1157B
:101D200082E5D80708F497C02C2F2695269580E2E7
:101D3000289F900111248C2F8370C1E0D0E002C055
:101D4000CC0FDD1F8A95E2F7C22BD32BDD68D4CFF1
:101D5000C03A82E5D80760F4C03882E5D80708F4B5
:101D600059C0CF71D0E0DC2FCC27C46FD06AC4CF6C
:101D7000C03C82E5D80708F462C0C03E82E5D807BF
:101D800008F09CCFDC2FCC27CC27DF71C06FD06A46
:101D9000B3CFC55AD0E0C856DE4FC881D0E0D0647A
:101DA000ABCFD065A9CF8D2F0E940A10182FCE017E
:101DB00099270E94680FC12FD0E0DC2FCC27CC27B9
:101DC000DF71C82BD92B98CFCE0199270E94680FBD
:101DD000CC27DF70C82BD92BD06A8ECFCF71D0E043
:101DE000DC2FCC27C16FD06A87CF2C2F2695269564
:101DF000277080E2289F900111248C2F8370C1E00E
:101E0000D0E002C0CC0FDD1F8A95E2F7C22BD32BA6
:101E1000DC6872CF2C2F26952695277080E2289FAC
:101E2000900111248C2F8370C1E0D0E002C0CC0F50
:101E3000DD1F8A95E2F7C22BD32BDA685DCF8C2F9A
:101E40008F710E940A10C82FD0E0DC2FCC27CC273E
:101E5000DF71D06251CF8C2F8F710E940A1055E034
:101E6000D695C7955A95E1F7CF70D0E0DC2FCC27F7
:101E7000282F30E084FF05C044E0220F331F4A952D
:101E8000E1F7C22BD32BD06937CF8D2F8F710E94F2
:101E90000A10182FCE0199270E94680FC12FD0E099
:101EA000DC2FCC27CC27DF71C82BD92BD2CF462FE4
:101EB000783030F4673020F4672F0E94571508956A
:101EC00090E080E008950E94570F0E94390E089517
:101ED00082389105B9F1B0F48133910509F47DC0E0
:101EE00048F48932910509F46DC08A32910509F4EC
:101EF0007BC008958533910509F45FC0893391054E
:101F000009F10895833E9105D9F138F4803E910599
:101F100029F1823E910579F10895863E9105D9F126
:101F2000873E910509F43EC0843E910541F520911C
:101F30007A0221FF24C08091790284FD19C087EEC6
:101F400090E0089520917902237009F05AC0209101
:101F50007A0223FF14C089E290E00895209179026B
:101F600020FD38C030917A0230FF09C024FF43C001
:101F700090E080E008952091790222FDF7CF089546
:101F80002091790222FD3AC030917A0230FD39C0A9
:101F900024FFF5CFEDCF2091790223FFF0CF24FD70
:101FA000E7CFCDCF2091790223FD2EC030917A0268
:101FB00031FFEECF84EE90E008952091790225FF65
:101FC000DECFC9CF2091790225FD21C020917A0270
:101FD00023FFD5CF89E390E0D2CF2091790226FF6D
:101FE000CECF8AE290E008952091790226FFC7CFF4
:101FF00081E390E0089583EE90E0089582EE90E012
:10200000089580EE90E0089586EE90E0089585E3CF
:1020100090E008959091790292FF10C041E0282F3E
:102020002471243009F040E031E0282F2871283055
:1020300009F030E0431711F02CE0822793FF10C025
:1020400041E0282F2471243109F040E031E0282FAD
:102050002871283109F030E0431711F02CE0822775
:1020600030917A0230FF10C051E0282F21712130C9
:1020700009F050E041E0282F2871283009F040E0B5
:10208000541711F029E0822731FF10C041E0282FBA
:102090002171213109F040E031E0282F28712831E9
:1020A00009F030E0431711F029E0822794FD877E84
:1020B000089510927B0210927C0210927D02109281
:1020C0007E020895CF92DF92EF92FF926B017C0126
:1020D0000E94561281110EC00E941F1CC61AD70AF8
:1020E000E80AF90AC0927B02D0927C02E0927D025B
:1020F000F0927E02FF90EF90DF90CF9008950F93C3
:102100001F930E945612882329F00E941F1C1F91C2
:102110000F9108950E941F1C00917B0210917C0278
:1021200020917D0230917E02600F711F821F931FEC
:10213000EECF80E0089508950E949B1008950895C1
:102140000E949F100895E82FF0E0E857FD4F80812E
:102150000895089580EA8A95F1F7089500C00895DA
:102160000E94AA10089508950E94B3100895EF9256
:10217000FF921F93CF93DF9300D000D0CDB7DEB78F
:102180000E945612182F60919002882309F447C0CC
:1021900019821A821B821C82862F90E09E012F5F7B
:1021A0003F4F7901B90188579D4F0E947C128823C7
:1021B000E9F080917F0290E044E050E0B701885759
:1021C0009D4F0E94B72521E020934002892BC9F43E
:1021D00010E00E94A010812F0F900F900F900F9091
:1021E000DF91CF911F91FF90EF9008958091400271
:1021F000882371F384E0F70111928A95E9F7109230
:102200004002E0917F02F0E0E857FD4F89819A811A
:10221000AB81BC8180839183A283B383DACF70E0EA
:1022200068577D4F80917F0290E088579D4F0E94B4
:1022300003130E94B410CFCFF894E82FE295EF700B
:10224000F0E031A1282F2F7081E090E001C0880FCD
:102250002A95EAF7982F9095932391A392A1892B21
:1022600082A378940895CF93DF9387E90E941C118D
:1022700086EC0E941C1184E30E941C1185E30E94DD
:102280001C11CBE9D1E089918F3F11F00E941C1104
:1022900081E0C23AD807B9F7DF91CF910895B0E055
:1022A000A0E0E5E5F1E10C948A25EC01D62E062F9D
:1022B00010E0C8018E559E4F7C01FC0180818F3F4C
:1022C00009F444C0F894E82FE295EF70F0E091A192
:1022D0008F7021E030E001C0220F8A95EAF7892F44
:1022E000822B81A382A12095282322A378940E9487
:1022F000AE10EBE9F1E031E0C12C21912F3F59F113
:10230000A22FA295AF70B0E090968C9190E02F70C4
:1023100002C0959587952A95E2F780FD1CC0832F12
:10232000C82A330F81E0E23AF80739F7F7018081D4
:102330008F3F11F00E941C1161E0C11001C060E0EC
:102340008D2D0E94B010C00FD11FC882CDB7DEB74F
:10235000E8E00C94A62580E0E3CF80910201809113
:10236000020194E0811190E09093900284E0891B37
:1023700080937F020E94331188E0E8E8F2E0DF01F9
:10238000982F1D929A95E9F7E0E8F2E0DF011D929F
:102390008A95E9F784E00E940E120E949C1008952D
:1023A000A8E0B0E0E6EDF1E10C948D258E010F5F21
:1023B0001F4F88E0F80111928A95E9F7F12C6F2DF3
:1023C000C8010E944F11F394F4E0FF12F8CF48E0E7
:1023D00050E0B80180E892E00E94B72521E0009724
:1023E00009F420E0892B41F088E0F801A0E8B2E090
:1023F00001900D928A95E1F76091900270E0685724
:102400007D4F44E080E892E00E940F12182F0E9456
:10241000B710812B2896E5E00C94A9250895B0E02B
:10242000A0E0E5E1F2E10C948A256C017B01042F28
:10243000C22F222379F081E0809343020E94131C73
:10244000909342028093410280E0CDB7DEB7E8E08E
:102450000C94A625D0914302DD23B1F38091410273
:10246000909142020E942B1C059770F310E0A80186
:10247000B601C7010E94B725892B31F0A801B6012A
:10248000C7010E94C425CD2F109243028C2FDDCFAF
:10249000CF930E946625C82F811102C00E9461253A
:1024A0008C2FCF9108958091470208958091460224
:1024B00008950E94561208950E9448128093460281
:1024C0000E945912809347020E9453128093020186
:1024D0000E94561281110E94B21208950E94561253
:1024E000811102C00E94B512089581E090914802C6
:1024F0009A3008F080E008950F931F93CF93DF93F5
:10250000EC018B01809148028A30B8F4B801CE0109
:102510000E940013C82F811122C0809148028F3F72
:10252000B9F40E94131C90934502809344028C2FAF
:10253000DF91CF911F910F91089580914402909166
:1025400045020E942B1C843F914000F7C0E0EFCF72
:102550008F5F809348028A3020F7C1E0E8CF109265
:102560004802E5CF0E94EE1C08950E94F11C0895D8
:10257000B0E0A0E0EEEBF2E10C948B257901C82FDE
:10258000880FDD0B41155105A9F0FE0193E0EE0F18
:10259000FF1F9A95E1F7ED5FFE4F81819281875B86
:1025A0009D4F208130E04217530708F49A01A9019A
:1025B0000E94C425CE010E94DA1DD82E8823D1F0B6
:1025C00001151105B9F083E0CC0FDD1F8A95E1F705
:1025D000FE01ED5FFE4F438150E00417150708F43C
:1025E000A801CD5FDE4F6C817D81675B7D4FC701A8
:1025F0000E94C4258D2DCDB7DEB7E7E00C94A7254A
:102600000E94FA1308950E9411140895A4E0B0E006
:10261000ECE0F3E10C948E2560915E0270915F0214
:1026200080916002909161020E943A1C11E0643630
:1026300071058105910518F10E947F106E5F7F4F33
:102640008F4F9F4F69837A838B839C8310E000E0D8
:1026500030E020E044E050E0BE016F5F7F4F82E059
:102660000E94B812182F882351F00E941F1C6093FB
:102670005E0270935F028093600290936102812FEB
:102680002496E4E00C94AA25B0E0A0E0EAE4F3E1AB
:102690000C9488257C015B016A010E94751201E09F
:1026A00010E0882311F00AE010E0C1E0D0E0B501AD
:1026B000C701F6010995811104C021960C171D0769
:1026C0002CF4CDB7DEB7EAE00C94A425CC9F9001A2
:1026D000CD9F300D300D112490E080E045E34A9508
:1026E000F1F70000019682179307C1F7E0CFA5E04C
:1026F000B0E0EDE7F3E10C9488255B01E090A601E2
:10270000F090A70101E010E09E012B5F3F4F50E0E9
:1027100040E070E060E080E00E94B812182F88234B
:1027200009F44BC067018FEFC81AD80A60915A02AA
:1027300070915B0280915C0290915D020E943A1C54
:10274000643671058105910580F104E010E09E0179
:102750002F5F3F4F50E040E070E060E081E00E947A
:10276000B812F82E64E070E0C6010E94881411E0EF
:102770009D81981310E01F2159F10E941F1C609346
:102780005A0270935B0280935C0290935D02898190
:102790009A81AB81BC818093560290935702A0939B
:1027A0005802B093590211E013C064E070E0C60112
:1027B0000E9488149D818913C8CFF701818192817D
:1027C000A381B48189839A83AB83BC831111DFCF4A
:1027D0008091560290915702A0915802B0915902EF
:1027E000F50180839183A283B383812F2596EAE04C
:1027F0000C94A4250F931F93CF93DF93EC018B01CF
:1028000047E753E10E944413882331F046E053E147
:10281000B801CE010E944413DF91CF911F910F9117
:1028200008950F931F93CF93DF93C091A601D0918A
:10283000A701CE01019624E0FB01DC0101900D927D
:102840002A95E1F764E070E00E94881488836D8126
:102850007E818F81988500915202109153022091C0
:10286000540230915502601771078207930751F0A7
:1028700060935202709353028093540290935502D6
:102880000E946210DF91CF911F910F9108950E94D5
:10289000CF0D08950E94AC1B0E94CF1F0E948C0D8B
:1028A0000E94E91F0E94BA0D0E94F61F0E94FB1FA2
:1028B0000E9447140E9415200E949D1E0E949A0D9E
:1028C000F5CF9093B9018093B80108950E949C0CB4
:1028D000089580E00E94A310817008950E94D01195
:1028E0002FEF86E791E0215080409040E1F700C053
:1028F00000000E94D0110E946914882321F00E94D8
:1029000066140E947A1C08950E946E14089508951A
:10291000FC01680F791F8FEF91E3E617F70709F4C1
:1029200008952191822728E030E087FF06C0880FB4
:10293000892721503109C9F7F0CF880FFACF84E0F9
:10294000089550E0440F551F9EE0699F400D511DB2
:10295000112490E7899F400D511D1124CA018896CA
:1029600008950F931F93CF93DF938430C8F468309A
:10297000B8F44730A8F40E94A1148C010E94CD2520
:10298000C82FD0E0DC2FCC27C80101960E94CD25AE
:102990009E01282BC901DF91CF911F910F910895BE
:1029A00090E080E0F8CF0F931F93CF93DF93122F27
:1029B000032F843078F4683068F4473058F40E946C
:1029C000A114EC01602F0E94EB25612FCE0101962E
:1029D0000E94EB25DF91CF911F910F9108951F93D6
:1029E000CF93DF93D0E0C0E011C0412F6C2F8D2F2B
:1029F0000E947A029C01412F6C2F8D2F0E94D314CC
:102A00001F5F173091F7CF5FC83011F010E0EDCFA6
:102A1000DF5FD43041F7DF91CF911F910895EF929E
:102A2000FF920F931F93CF93DF93EC018A017C01F8
:102A3000E60EF71ECE018896CE15DF0529F4CDB738
:102A4000DEB7E6E00C94A825C03C21E0D20740F4B4
:102A50000E94CD25F80180830F5F1F4F2196EACF9A
:102A6000F8011082F9CFB0E0A0E0E9E3F5E10C94C1
:102A70008A257C016A018C01060F171FEC01CE012B
:102A80008896C017D10729F4CDB7DEB7E8E00C94DB
:102A9000A625C03C21E0D20740F4FE01EE19FF0953
:102AA000EC0DFD1D60810E94EB252196E8CF84305E
:102AB00038F4683028F4473018F40E94B1140895AF
:102AC00090E080E0089580E1089588E192E0089523
:102AD000EF92FF920F931F93CF93DF93EC018A0144
:102AE0007C01E60EF71ECE0188519E4FCE15DF0504
:102AF00029F4CDB7DEB7E6E00C94A825C83122E072
:102B0000D20740F40E94CD25F80180830F5F1F4F4C
:102B10002196E9CFF8011082F9CFB0E0A0E0E3E917
:102B2000F5E10C948A257C016A018C01060F171FC0
:102B3000EC01CE0188519E4FC017D10729F4CDB7C3
:102B4000DEB7E8E00C94A625C83122E0D20740F4B5
:102B5000FE01EE19FF09EC0DFD1D60810E94EB25C1
:102B60002196E7CFCF93DF93C8EED1E060E0CE01AE
:102B70000E94EB252196C11584E0D807B9F7DF91B3
:102B8000CF910895A8E0B0E0E8ECF5E10C94882539
:102B9000F82E8FE08F1508F46EC08FEF93E00E943F
:102BA000CD25811168C008EE11E0F11035C0FE019D
:102BB00031966F0188E011928A95E9F77801FFEF6D
:102BC000EF1AFF0AC8010E94CD2589831A82882343
:102BD00009F451C08130D1F4580182E0A80EB11C33
:102BE000C7010E94CD258A83882309F444C09FEF42
:102BF000980F9330F0F4780193E0E90EF11CC501D1
:102C00000E94CD258B838823B1F11C8260E0C60130
:102C10000E94E9178701D2CF011594E0190759F1F5
:102C2000C8010E94CD25811101C0FA940F5F1F4F8A
:102C3000BCCF7501843051F702E010E07501EFEF71
:102C4000EE1AFE0AC5010E94CD25F601E00FF11F24
:102C50008083882381F08C3741F4E2E0F0E0EC0FD0
:102C6000FD1FE00FF11F1082D1CF0F5F1F4F5701E3
:102C70000730110519F72896EAE00C94A425CF93A4
:102C8000DF93EB0186319C4711F50E94AA0B9D81D1
:102C9000992399F08A7A91E009F490E09093620286
:102CA000811109C089E20E94531B0E94390C80E007
:102CB000DF91CF91089585E3F6CF80916202811173
:102CC00004C089E20E945B1BF0CF85E3FBCF81E06B
:102CD000EFCFCF93DF93EC01FB018581882309F4CB
:102CE000D2C09E0130572332310508F0B2C00E9495
:102CF000B90C90937A0280937902FE01E150F0477B
:102D0000E232F10520F4E35DF94D0C9473258091D6
:102D1000790281608093790293C080917A02886001
:102D200080937A028DC0809179028260F3CF809186
:102D300079028460EFCF809179028860EBCF809137
:102D40007A028160EDCF80917A028260E9CF809132
:102D500079028061DFCF809179028062DBCF809140
:102D600079028064D7CF0E9433078091790280680E
:102D7000D1CF809179028C60CDCF80917A0283602F
:102D8000CFCF809179028E7FC5CF80917A02877FE5
:102D9000C7CF809179028D7FBDCF809179028B7FE3
:102DA000B9CF80917902877FB5CF80917A028E7FEB
:102DB000B7CF80917A028D7FB3CF809179028F7ED9
:102DC000A9CF809179028F7DA5CF809179028F7BE9
:102DD000A1CF0E943307809179028F779BCF80919A
:102DE0007902837F97CF80917A028C7F99CF8091EF
:102DF000790282FB992790F921E0922790FB82F9D2
:102E000090FB83F987CF80917A02982F90959170EB
:102E10008E7F892B90FB81F983CF90917902892F46
:102E20008F7B96FF806476CF0E9433079091790262
:102E3000892F97FB87F980586DCF81E00E94440D60
:102E40008091790290917A020E94BE0C0E94330711
:102E500080E0DF91CF91089580E0F0CF90917902EA
:102E6000892F8F7E94FF806155CF90917902892FB1
:102E70008E7F90FF81604ECF90917A02892F877F5D
:102E800093FF88604DCF81E0E4CFB0E0A0E0EBE4B9
:102E9000F7E10C948925E82FF0E0E459FD4FB49058
:102EA000282F26952695269530E0F901E45FFC4F02
:102EB0000491877010E0082E02C0159507950A94BA
:102EC000E2F701701127F901E450FD4FE490F12C75
:102ED000082E02C0F594E7940A94E2F791E0E92203
:102EE000FF24F901E451FD4FC491D0E002C0D59513
:102EF000C7958A95E2F7C170DD27C62ED12C011542
:102F0000110549F5E114F10431F086EE0E94FC034D
:102F1000C601009771F5B6018B2D0E94D204C6013F
:102F2000009779F5E114F104A1F50115110531F0CF
:102F300081EE0E948104C6010097C9F5CD2B31F0C6
:102F40008CE20E94EA04C114D104C9F5CDB7DEB702
:102F5000E9E00C94A52581EE0E94FC03C6010097D0
:102F600089F2EFE9FFE03197F1F700C00000019727
:102F7000F6CFEFE9FFE03197F1F700C000000197CD
:102F8000C8CFEFE9FFE03197F1F700C000000197EB
:102F9000C7CF86EE0E948104C601009731F2EFE9A7
:102FA000FFE03197F1F700C000000197F6CFEFE99D
:102FB000FFE03197F1F700C000000197BDCF8FE926
:102FC0009FE00197F1F700C0000091E0C91AD10815
:102FD000BACFEF92FF920F931F93CF93DF93EC0141
:102FE000162F0AE08881882309F459C0813009F03E
:102FF00052C08981813071F47E0182E0E80EF11CBB
:103000008A810E94EA04E701812F90E00097D9F5B8
:103010002196E8CF823041F47E01E2E0EE0EF11C11
:103020008A810E94FC03EFCF833041F47E01F2E0FD
:10303000EF0EF11C8A810E948104E5CF843011F0EB
:103040002196E2CF2A81229690E080E0AE014F5F88
:103050005F4F2053330B2A30310550F00097A1F217
:10306000EFE9FFE03197F1F700C000000197F6CFDC
:10307000089FB001099F700D1124C901860F971F89
:103080002981EA01E3CFEFE9FFE03197F1F700C0D2
:1030900000000197BBCF612F0E944517B9CFCDB774
:1030A000DEB7E6E00C94A8250F931F93CF93DF9330
:1030B000C42FD22FFC0185818823C9F0409365027B
:1030C0000E94131C909364028093630280E28C0F31
:1030D000883040F4C77081E001C0880FCA95EAF7D4
:1030E0000E94F304DF91CF911F910F9108951091E9
:1030F0006502141332C080916302909164020E94B1
:103100002B1C8837910548F5C0E2CD0F1D17B9F08B
:1031100080E2810F883040F4177081E001C0880F91
:103120001A95EAF70E94FA04C83048F481E09D2F0E
:10313000977001C0880F9A95EAF70E94F304802FD8
:103140000E94EA04C83070F6D77081E001C0880F91
:10315000DA95EAF70E94FA04C5CF80E28C0F883036
:1031600008F6C77081E001C0880FCA95EAF7F2CF70
:103170000F93DB0188519C4787309105A0F5FC0136
:10318000E15BF94D0C94732506E221EE41EE6AE114
:103190007CE7CD010E94541880E00F91089507E26A
:1031A00025EE45EE6BE17CE7F4CF06E221EE40EE42
:1031B00068E17CE7EECF07E225EE44EE69E17CE7CB
:1031C000E8CF06E221EE42EE6CE17CE7E2CF07E2D7
:1031D00025EE46EE6DE17CE7DCCF08E221E045EE2E
:1031E0006EE17CE7D6CF15968C91882319F010926A
:1031F0006502D3CF81E0D1CF1F93CF93DF93873781
:103200002CE7920759F0C1E088379C47E1F4FB01B5
:10321000C581CC2371F10E943F1906C0FB01C58115
:10322000CC23B1F00E943C190E94AB070E944219C6
:10323000D82F0E943F19C82F0E943C194D2F6C2F88
:103240000E94D308C0E08C2FDF91CF911F91089589
:103250000E943C190E94B7070E944219182F0E9431
:103260003F19D82F0E943C19412F6D2F0E94D3087F
:10327000EACF0E943F19EECF80911D010895809101
:103280001C01089580911B01089584E290E00E9442
:10329000CD25843289F485E290E00E94CD258630E8
:1032A00059F486E290E00E94CD2591E0823209F047
:1032B00090E0892F8170089580E0FCCFCF93C82FD4
:1032C0006FEF811164E284E290E00E94EB256FEFE2
:1032D000C11166E085E290E00E94EB256FEFC1111D
:1032E00062E286E290E00E94EB25CF910895089576
:1032F00087E290E00E94CD25682F70E090E080E0AA
:1033000008950895CF93C62F0E9481196C2F87E2EC
:1033100090E00E94EB25CF91089580E00E945E1915
:1033200060E070E0CB010E9482190E94EF140E94BD
:10333000B21581E00E945E1908950E9477190E94DB
:1033400078190E9481190E944519811102C00E94BA
:103350008D19089508959C01FB018581882351F002
:10336000A90157574038510530F4822F0E94C215E9
:1033700080E0089581E008952FEFFC0120830895F7
:103380000E94BC19089580E00895B0E0A0E0EBEC45
:10339000F9E10C948A25EC01E62E0E94C3198111F3
:1033A00010C0E881E150E331B8F4F0E0EA5AF94D99
:1033B0000C94732519828CE08A836E2DCE010E94B5
:1033C000941ECDB7DEB7E8E00C94A6258981823043
:1033D000C1F028F4813061F08FEF8883EECF833025
:1033E00099F08430C9F71A821B821C821D82E5CFB6
:1033F0000E941F1C0E9479256A837B838C839D8396
:10340000DCCF0E947819F6CF8A81082F10E06E0178
:1034100093E0C90ED11C9CE1F92EF80E083011057D
:1034200060F6802F0E94A310F60181936F010F5F59
:103430001F4FF012F3CFC1CF8981823031F0853038
:1034400059F68A810E94AA19B8CF6A817B818C8142
:103450009D810E9479250E948219AFCF4B816A819C
:1034600089810E94B1149827892798279D838C838E
:10347000A4CF2C813D813227232732274B816A81BB
:1034800089810E94D31499CF0E94EF1496CF6E2D9C
:10349000CE010E94C01991CF0E94631589838DCF00
:1034A0000E9465159827892798279A83898385CF55
:1034B0006B8170E089819A81AE014C5F5F4F9827E4
:1034C000892798270E94681578CF6B8170E08981E1
:1034D0009A81AE014C5F5F4F9827892798270E94F9
:1034E0008D156BCF0E94B21568CF0E949F14D6CF66
:1034F0006B8170E089819A81AE014C5F5F4F9827A4
:10350000892798270E940F1558CF6B8170E0898119
:103510009A81AE014C5F5F4F9827892798270E94B8
:1035200033154BCF90936C0280936B0208950E94E9
:103530005612811103C0809166020895E0916B02DA
:10354000F0916C02309729F00190F081E02D0995FF
:10355000089580E008950E94971A0895E0916B0203
:10356000F0916C02309721F00280F381E02D0995F3
:103570000895A3E0B0E0EFEBFAE10C9490252091E0
:10358000690230916A0228173907A1F090936A0204
:1035900080936902E0916B02F0916C02309751F0D8
:1035A00023E029839B838A830084F185E02DCE016B
:1035B000019609952396E2E00C94AC25A3E0B0E0D7
:1035C000E4EEFAE10C9490252091670230916802B4
:1035D00028173907A1F09093680280936702E09161
:1035E0006B02F0916C02309751F024E029839B83A9
:1035F0008A830084F185E02DCE01019609952396FA
:10360000E2E00C94AC2540910001509101019A0137
:103610002E5F3F4F485F5F4F80E02417350709F466
:103620000895F90191919F019923B9F38F5FF5CF27
:10363000882371F02091000130910101F901329647
:10364000285F3F4F9191981729F0E217F307D1F7C0
:1036500080E0089581E008959C01FC0132969FEF7F
:1036600080E04191461751F09F3F19F4411101C08C
:10367000982F8F5F8630A9F79F3F09F40895290F8F
:10368000311D97FD3A95F90162830895FC01329648
:1036900008962191261303C0DF0111971C92E817A9
:1036A000F907B9F70895682F809100019091010101
:1036B0000E942C1B0895682F8091000190910101B8
:1036C0000E94461B0895E0910001F091010132969D
:1036D00086E0DF011D928A95E9F7089508950E941A
:1036E0006E1B0895811106C081E080936D020E94D7
:1036F0006F1B089582E0F9CF83E080936D020E94F2
:103700006F1B08950E94721B089581E080936D02E3
:103710000E946F1B08950E94851B089508950895C7
:103720000E948F1B0895089508950E948E1B08958E
:10373000CF930E94931B0E94D0110E94941BC0E063
:103740008C2F0E94A310811105C0CF5FC830C1F734
:10375000CF91089581E0FCCF85B7806885BF85B79C
:10376000806885BF08951F921FB61F9211248F9302
:103770009F93AF93BF9380916E02811113C080918C
:10378000910290919202A0919302B091940241967D
:10379000A11DB11D8093910290939202A093930278
:1037A000B0939402BF91AF919F918F911F901FBED4
:1037B0001F90189580919902843031F10E947A030C
:1037C00010926E0288E190E020E40FB6F894A8957C
:1037D000809360000FBE2093600083B7817F846078
:1037E00083BF83B7816083BF7894889583B78E7FCA
:1037F00083BF0FB6F894A89580916000886180938C
:103800006000109260000FBE08950E9433070E946E
:103810007F03089582E084BD93E095BD9AEF97BD44
:1038200080936E0008952FB7F89480919102909143
:103830009202A0919302B09194022FBF08952FB7E6
:10384000F89460919102709192028091930290910C
:1038500094022FBF08959C014FB7F8948091910274
:1038600090919202A0919302B09194024FBF821B5B
:10387000930B0895CF92DF92EF92FF922FB7F894B7
:10388000C0909102D0909202E0909302F090940246
:103890002FBFA7019601261B370B480B590BCA01F6
:1038A000B901FF90EF90DF90CF90089578941F9228
:1038B0001FB61F9211248F939F93AF93BF93809154
:1038C000910290919202A0919302B091940201967C
:1038D000A11DB11D8093910290939202A093930237
:1038E000B0939402BF91AF919F918F911F901FBE93
:1038F0001F90189587E797E7909301088093000839
:1039000088E19AE00FB6F894A895809360000FBE06
:1039100090936000FFCF88E19AE00FB6F894A895E5
:10392000809360000FBE90936000FFCF8EE1489BB4
:1039300002C08150E1F7489BFECF0895589880E27D
:103940008A95F1F7589A0895FC013BE03A95F1F712
:1039500098E020E080E031E040E14A95F1F7880FFF
:10396000489B02C08160232742E04A95F1F700009E
:1039700040E14A95F1F7915079F790E19A95F1F786
:1039800099B132E03A95F1F7000040E14A95F1F73C
:10399000917092272081920F90830895A1E0B0E06A
:1039A000E4EDFCE10C948C2519828C017C01E60E7F
:1039B000F11C0E151F0541F481E09981911180E001
:1039C0002196E6E00C94A8250E94961CCE01019653
:1039D0000E94A41CF80181938F01EBCF509A589A52
:1039E00008955098589AE89AE9E6F0E080818C7F33
:1039F000808308956150770B91E001C0990F6A951B
:103A0000EAF720E031E0911108C0222391F0589AA2
:103A100080E28A95F1F758980895492F482339F0A4
:103A2000589A232740E24A95F1F79695ECCF58989B
:103A3000F9CF5898EDCFFF920F931F93CF93DF9359
:103A4000EC018C01060F111DC017D10729F4CDB769
:103A5000DEB7E5E00C94A925F9900E949E1C68E071
:103A60008F2D0E94FA1CF0CF1F920F920FB60F926B
:103A700011240F931F932F933F934F935F936F9353
:103A80007F938F939F93AF93BF93EF93FF93CF93C6
:103A9000DF930F92CDB7DEB719820E94961CCE013C
:103AA00001960E94A41C082F069506950695282FBE
:103AB00022952570902F9570290F922F937026953F
:103AC0002695920F982797708981982B09F05CC0F2
:103AD000043008F059C080E18A95F1F7589A509A5D
:103AE00082E08A95F1F700C0589888E0089F80012D
:103AF0001124D801AD5FBE4F1696ED91FC9117973A
:103B00003097A9F06091A6017091A70114962D91AC
:103B10003C911597260F371F11968D919C91129706
:103B2000680F791F13964C9113978C910995F801A2
:103B3000ED5FFE4F6381662351F02091A601309125
:103B4000A70184819581820F931F0E941B1D0E94F3
:103B50009E1C80E18A95F1F758985098589A80E118
:103B60008A95F1F7F801ED5FFE4F6081662351F011
:103B70002091A6013091A70181819281820F931F2C
:103B80000E94CE1C0E94961C0F90DF91CF91FF9156
:103B9000EF91BF91AF919F918F917F916F915F91C5
:103BA0004F913F912F911F910F910F900FBE0F904A
:103BB0001F9018950F931F93CF93DF93EC010497F9
:103BC0000CF04CC0F894509A589885E08A95F1F71B
:103BD00000009C2F969595708C2F8570980F892FDB
:103BE00083709695969523E0CC0FDD1F2A95E1F71B
:103BF000980F8E01092B0E949E1C00C068E0802F48
:103C00000E94FA1C80E18A95F1F75098589A489BD7
:103C10001EC087E090E048991CC0FE01ED5FFE4F9A
:103C200063816623F9F02091A6013091A701848178
:103C30009581820F931F0E94CE1C811113C0509A50
:103C4000589A7894DF91CF911F910F91089500C0F9
:103C5000DECF019729F4509A589A789480E0F2CFF9
:103C600000C0D9CF0E94961C80E28A95F1F758983F
:103C7000509A80E18A95F1F7CD5FDE4F6881662327
:103C800051F02091A6013091A70189819A81820F7C
:103C9000931F0E941B1D0E949E1C789481E0D2CF2E
:103CA000809177020895089508959B01BA0190913B
:103CB00099029430E9F48F708093E9009FEF80912E
:103CC000E800915085FD06C085ED8A95F1F700006A
:103CD0009111F5CF8091E80085FF0AC050E040E0E7
:103CE000C9010E948B208091E8008E778093E800C4
:103CF000089543E050E0BC0184E00E94551E089501
:103D0000CF93DF93EC0148E050E0BC0181E00E94DA
:103D1000551E88E0FE01AFE6B2E001900D928A9553
:103D2000E1F7DF91CF910895603231F440E250E045
:103D3000BC0182E00E94551E0895A0E2B0E0E3EAD3
:103D4000FEE10C94902580919902843009F583E07E
:103D50008093E9008091E80082FF1AC08091E8001A
:103D600090E085FF09C050E040E060E270E0CE01E5
:103D700001960E94DA2091E08091E8008B77809391
:103D8000E800992329F060E2CE0101960E94C5194E
:103D9000A096E2E00C94AC2580919802811109C0B4
:103DA0000E946A220E94C7228091E2008460809370
:103DB000E20008951092980208950E94851B0895CC
:103DC0006091950281E0611101C080E00E947C1B3E
:103DD00008959091990281E0943009F080E060911B
:103DE00095020E94821B089542E061EC81E00E94EE
:103DF000E62142E261EC84E00E94E62142E261ECCD
:103E000082E00E94E62142E260EC83E00E94E6212B
:103E10009091990281E0943009F080E060919502E0
:103E20000E94721B089580919B02833009F463C045
:103E300030F48130E1F1823009F4A0C008958A3075
:103E400009F48CC08B3009F471C0893009F052C07C
:103E500080919A02813209F04DC080919E0290912A
:103E60009F02009719F0029709F044C08091E80082
:103E7000877F8093E8008091E80082FF37C09091AF
:103E8000F3008091F200029731F48091F1008130CB
:103E900011F0863021F48091F100809377028091B7
:103EA000E8008B778093E8000E941A2223C080915B
:103EB0009A02813AF9F48091E800877F8093E800C4
:103EC00080919E0290919F02892B61F468E08FE6B9
:103ED00092E070E00E9429218091E8008B77809326
:103EE000E800089560E090E080E0F3CF80919902CF
:103EF0008111C1CF089580919A02813AD9F78091BA
:103F00009E0290919F02892BA9F78091E800877FFC
:103F10008093E8008091E80080FFFCCF8091280129
:103F20008093F1008091E8008E77BCCF80919A0257
:103F3000813201F780919E0290919F02892BD1F6E8
:103F40008091E800877F8093E8000E941A22809188
:103F50009C02809328010E943307089580919A0261
:103F6000813241F68091E800877F8093E8000E94CB
:103F70001A2280919D0280937802089580919A027E
:103F8000813A09F0B7CF8091E800877F8093E800FD
:103F90008091E80080FFFCCF80917802C1CF84B788
:103FA000877F84BF0FB6F894A895809160008861E0
:103FB00080936000109260000FBE80E890E00FB622
:103FC000F89480936100909361000FBE0E948B1B58
:103FD00008950E946A220E94C722E2EEF0E08081EA
:103FE0008460808378940E94462508958EE191E054
:103FF0000E94921A089580919902853031F480913F
:104000009902853019F00E94051C08950E94DA1B60
:1040100080919702882399F30E94981B882379F353
:104020000E9475200E943307EACF08959A014091BB
:10403000A0025091A1020E941E200895492F5527E9
:104040004330510521F168F44130510509F443C072
:104050004230510509F444C090E080E050E040E077
:1040600026C04132510551F142325105A9F7633062
:10407000710590F7FB01EE0FFF1FE555FE4F4081E4
:10408000518168557E4FFB01808190E010C09927D7
:104090008130910581F0009729F00297E9F6ECE173
:1040A000F3E002C0E8E4F3E0849190E0AF01F901AD
:1040B000518340830895EAE3F3E0F6CF633071055E
:1040C00058F6660F771FFB01EF54FE4F4081518178
:1040D00089E090E0ECCF82E190E047EA53E0E7CF5F
:1040E0008BE590E04CE453E0E2CF80E189BD82E1D2
:1040F00089BD09B400FEFDCF8091D8008F7D8093EB
:10410000D8008091E00082608093E0008091E00020
:1041100081FDFCCF0895AF92BF92CF92DF92FF92C4
:104120000F931F93CF93DF936C01EB018A010E94E1
:104130003922F82E811123C00115110539F0F8013B
:1041400080819181C81BD90BC80ED91EB12CA12C1E
:104150002097A9F08091E80085FD22C08091E800B9
:104160008E778093E80001151105A1F0F801808198
:104170009181A80EB91EB182A08285E0F82E8F2D04
:10418000DF91CF911F910F91FF90DF90CF90BF9063
:10419000AF9008950E9439228823D1F2F82EEFCFF4
:1041A000F60181916F018093F1002197FFEFAF1A23
:1041B000BF0ACECFAF92BF92CF92DF92FF920F9302
:1041C0001F93CF93DF936C01EB018A010E94392288
:1041D000F82E811123C00115110539F0F8018081F5
:1041E0009181C81BD90BC80ED91EB12CA12C2097C8
:1041F000A9F08091E80085FD22C08091E8008B77CE
:104200008093E80001151105A1F0F80180819181EA
:10421000A80EB91EB182A08285E0F82E8F2DDF9105
:10422000CF911F910F91FF90DF90CF90BF90AF90F3
:1042300008950E9439228823D1F2F82EEFCF809181
:10424000F100F60181936F012197FFEFAF1ABF0ACA
:10425000CECFFC018091A0029091A1028617970712
:10426000A0F06115710529F49091E8009E77909374
:10427000E80090E06115710551F4911108C080913A
:10428000E80082FF34C080E00895BC01F2CF809145
:1042900099028823C1F18530C1F18091E80083FD46
:1042A00030C08091E80082FDEACF8091E80080FF75
:1042B000E1CF8091F3002091F200382F6115710554
:1042C00019F02830310558F091E02830310509F017
:1042D00090E02091E8002E772093E800CBCF8191E9
:1042E0008093F100615071092F5F3F4FE7CF8091BC
:1042F0009902882341F0853041F08091E80083FFE6
:10430000BECF81E0089582E0089583E00895FC0126
:104310008091A0029091A10286179707A0F06115E5
:10432000710529F48091E8008E778093E80090E091
:104330006115710551F4911108C08091E80082FF68
:1043400035C080E00895BC01F2CF809199028823A6
:10435000C9F18530C9F18091E80083FD31C08091B9
:10436000E80082FDEACF8091E80080FFE1CF8091F4
:10437000F3002091F200382F6115710519F02830F3
:10438000310558F091E02830310509F090E0809136
:10439000E8008E778093E800CBCF84918093F10082
:1043A0003196615071092F5F3F4FE6CF809199029E
:1043B000882341F0853041F08091E80083FFBDCF34
:1043C00081E0089582E0089583E00895982F973062
:1043D00028F08F708093E90081E008959093E900C0
:1043E000242F762F50E0981731F07091EC00209137
:1043F000ED005091F00021FD02C09F5FE8CF3091A9
:10440000EB003E7F3093EB003091ED003D7F309329
:10441000ED003091EB0031603093EB007093EC00D5
:104420002093ED005093F0002091EE0027FDE5CFA2
:1044300080E0089580919A0287FF13C08091E80080
:1044400082FF06C08091E8008B778093E80004C06B
:10445000809199028111F2CF089580919902882369
:10446000D9F38091E80080FFF8CF8091E8008E7743
:10447000ECCF2091E4003091E50095E6A901209170
:10448000EC00822F817020FF06C08091E80080FF41
:1044900006C080E008952091E80022FD1AC08091B6
:1044A0009902882389F0853089F08091EB0085FDA1
:1044B0000FC02091E4003091E50042175307F9F254
:1044C0009150E1F684E0089582E0089583E0089534
:1044D00081E008950E94D9220E94E122E0EEF0E0FE
:1044E000808181608083E8EDF0E080818F77808338
:1044F00019BCA7EDB0E08C918E7F8C9380818F7E6C
:1045000080831092980208950F931F93CF93DF93A7
:104510000E94D9220E94E122C8EDD0E088818F77E5
:10452000888388818068888388818F7D888319BC8F
:104530001092990210929502109297021092960290
:1045400000EE10E0F80180818B7F8083888181609C
:10455000888342E060E080E00E94E621E1EEF0E046
:1045600080818E7F8083E2EEF0E0808181608083B5
:10457000808188608083F80180818E7F808388813C
:1045800080618883DF91CF911F910F910895E8EDAD
:10459000F0E080818F7E8083E7EDF0E080818160B4
:1045A000808384E082BF81E0809398020E9484220D
:1045B0000895E8EDF0E080818E7F80831092E20024
:1045C00008951092DA001092E10008951F920F9260
:1045D0000FB60F9211242F933F934F935F936F93D6
:1045E0007F938F939F93AF93BF93EF93FF938091AC
:1045F000E10082FF0BC08091E20082FF07C0809142
:10460000E1008B7F8093E1000E9445258091DA00D4
:1046100080FF19C08091D80080FF15C08091DA001A
:104620008E7F8093DA008091D90080FF96C080E170
:1046300089BD82E189BD09B400FEFDCF81E0809390
:1046400099020E94CC1E8091E10080FF19C08091E8
:10465000E20080FF15C08091E2008E7F8093E2002F
:104660008091E20080618093E2008091D8008062B6
:104670008093D80019BC85E0809399020E94E01EC7
:104680008091E10084FF2BC08091E20084FF27C06D
:1046900080E189BD82E189BD89B5982F917080FF45
:1046A000FBCF8091D8008F7D8093D8008091E1006E
:1046B0008F7E8093E1008091E2008F7E8093E20004
:1046C0008091E20081608093E200809195028823CE
:1046D00009F449C084E0809399020E94E91E809108
:1046E000E10083FF29C08091E20083FF25C0809113
:1046F000E100877F8093E10082E08093990210922D
:1047000095028091E1008E7F8093E1008091E2002C
:104710008E7F8093E2008091E20080618093E200CE
:1047200042E060E080E00E94E6218091F000886035
:104730008093F0000E94DD1EFF91EF91BF91AF9139
:104740009F918F917F916F915F914F913F912F91A9
:104750000F900FBE0F901F90189519BC10929902E0
:104760000E94DA1E70CF8091E30087FD93E0909362
:104770009902B3CF1F920F920FB60F9211242F936D
:104780003F934F935F936F937F938F939F93AF93D9
:10479000BF93CF93DF93EF93FF93D091E900DF7046
:1047A0008091EC00C82FC17080FDC0E81092E90034
:1047B0008091F000877F8093F00078940E94FE2320
:1047C0001092E9008091F00088608093F000CD2B7A
:1047D000CF70C093E900FF91EF91DF91CF91BF912E
:1047E000AF919F918F917F916F915F914F913F9189
:1047F0002F910F900FBE0F901F901895AAE2B0E076
:10480000E4E0F4E20C948F258AE992E02091F10033
:10481000FC012193CF01F2E0823A9F07B9F70E9491
:10482000131F8091E80083FF1EC180919A0290912E
:104830009B029A3008F017C1E92FF0E0E759F94DD3
:104840000C947325803899F0823809F00CC180915E
:104850009E028F70873008F006C18093E900809136
:10486000EB0085FB882780F91092E90006C0809153
:10487000960290919702911182609091E800977F43
:104880009093E8008093F1001092F1008091E8008D
:104890008E77E5C0882309F4D3C0823009F0E3C0E5
:1048A00080919C028111D6C080919E028F702FEF63
:1048B000280F263008F0D7C08093E9002091EB0044
:1048C00020FFC8C0933031F48091EB008062809368
:1048D000EB00C0C09091EB0090619093EB0021E061
:1048E00030E001C0220F8A95EAF72093EA00109287
:1048F000EA008091EB008860EACF8111B4C010918A
:104900009C021F778091E3008078812B8093E300E5
:104910008091E800877F8093E8000E941A228091AE
:10492000E80080FFFCCF8091E30080688093E30083
:1049300082E0111183E08093990295C08058823003
:1049400008F091C080919C0290919D028C3D23E0E3
:104950009207A1F583E08A838AE289834FB7F894AE
:10496000DE01139620E03EE051E2E32FF0E05093A9
:104970005700E49120FF03C0E295EF703F5FEF70B6
:104980008E2F90E0EA30C0F0C7968D939D932F5FF5
:10499000243159F74FBF8091E800877F8093E8006A
:1049A0006AE270E0CE0101960E9429218091E80020
:1049B0008B778093E80057C0C096E7CF60919E0246
:1049C00070919F02AE014F5F5F4F0E941620BC01A5
:1049D000892B09F448C09091E800977F9093E800F4
:1049E00089819A810E948721E1CF8038E1F5809109
:1049F000E800877F8093E800809195028093F10022
:104A000045CF811130C090919C02923060F5809129
:104A1000E800877F8093E800909395020E941A2215
:104A200080919502882311F084E005C08091E30015
:104A300087FDFACF81E0809399020E94F41E13C093
:104A400080919C02813079F481E0933009F080E01C
:104A5000809397021092E9008091E800877F80930D
:104A6000E8000E941A228091E80083FF0AC080912A
:104A7000E800877F8093E8008091EB00806280935C
:104A8000EB00AA96E3E00C94AB250895CF938091B8
:104A900099028823A1F0C091E900CF709091EC00B9
:104AA000892F817090FD80E8C82B1092E9008091D9
:104AB000E80083FD0E94FE23CF70C093E900CF91F0
:104AC00008950E946A22109299020895E8EDF0E09C
:104AD0008081806180838AE18A95F1F700C08091AE
:104AE000D90081700895EE0FFF1F0590F491E02D1D
:104AF00009946927962769277827872778270895B3
:104B00002F923F924F925F926F927F928F929F92DD
:104B1000AF92BF92CF92DF92EF92FF920F931F93CB
:104B2000CF93DF93CDB7DEB7CA1BDB0B0FB6F8947C
:104B3000DEBF0FBECDBF09942A88398848885F84BC
:104B40006E847D848C849B84AA84B984C884DF802D
:104B5000EE80FD800C811B81AA81B981CE0FD11D11
:104B60000FB6F894DEBF0FBECDBFED010895FB0177
:104B7000DC0104C08D910190801921F44150504016
:104B8000C8F7881B990B0895FB01DC0102C0019056
:104B90000D9241505040D8F70895F999FECF92BD3B
:104BA00081BDF89A992780B50895A8E1B0E042E068
:104BB00050E00C941126DC01A40FB51F4150504069
:104BC00048F0CB01840F951F2E910E94EC25415097
:104BD0005040D0F70895262FF999FECF92BD81BDA0
:104BE000F89A019700B4021639F01FBA20BD0FB62B
:104BF000F894FA9AF99A0FBE08950396272F0E9407
:104C0000EC250E94EB25252F0E94EC25242F0C94E7
:104C1000EC250196272F0E94EC250C94EB25DC0156
:104C2000CB01FC01F999FECF06C0F2BDE1BDF89AB7
:104C3000319600B40D9241505040B8F70895F89461
:104C4000FFCF4205420592059205F70571057105F2
:104C5000710513067A0689068906C1163517C91625
:104C600093169716CD169B16D116DD16A7162E177E
:104C7000AB16E116AF16E5160D17B316E9161417A5
:104C8000B916EF16F7169F16D516A316D916BD1628
:104C9000F31603171D172C178D16C5163C17D518BC
:104CA000DB18C418CF18E118E718ED18DA19E6195F
:104CB0001C1A2E1A391A441A471A471A471AEC199D
:104CC000EC194C1A501A581A651A721A751A781A71
:104CD000851A22244A2433254A2433257D249E2400
:064CE0003325F524012537
:104CE6002302010000000100000000000000040192
:104CF6000000000405000000000000030201501E31
:104D0600801E541E531E791E01E200E900EA00B51A
:104D160000B600B700CD008301CC008A0192019451
:104D2600012102230224022502260227022A02B3B7
:104D360000B4006F0070009F01CB019F02A00281AA
:104D46008283E200E900EA00B500B600B700CD00B4
:104D56008301CC008A0192019401210223022402DC
:104D66002502260227022A02B300B4006F00700053
:104D76009F01CB019F02A002818283F4F5F6F731F1
:104D8600333297C6343549024422320D04B903DB67
:084D9600035E0377039703009D
:00000001FF
