:100000000C94A8060C94C5060C94C5060C94C50661
:100010000C94C5060C94C5060C94C5060C94C50634
:100020000C94C5060C94C5060C94DC2B0C94B02CD7
:100030000C9435260C94C5060C94C5060C94C50684
:100040000C94C5060C94C5060C94C5060C94C50604
:100050000C94C5060C94BC260C94C5060C94C506DD
:100060000C94C5060C94C5060C94C5060C94C506E4
:100070000C94C5060C94C5060C94C5060C94C506D4
:100080000C94C5060C94C5060C94C5060C94C506C4
:100090000C94C5060C94C5060C94C5060C94C506B4
:1000A0000C94C5060C94C5060C94C5062B001400D0
:1000B0001A00080015001700E000040016000700F1
:1000C00009000A00E1001D001B00060019000500E0
:1000D0001C0018000C00120013002A000B000D0079
:1000E0000E000F00330034001100100036003700FE
:1000F0003800283221522C0022520000000000005B
:1001000001001E021F0220022102220201002D0214
:100110002E022F023002310201002900E300E2002A
:1001200039003402230224022502260227024C0051
:100130005000510052004F00350035024A004D007A
:100140004B004E0046002C32010028000100000048
:100150000000000001001E001F00200021002200FE
:1001600001002D002E002F00300031000100290079
:10017000E700E600390034002300240025002600B3
:1001800027004C003A003B003C003D003E003F0091
:1001900040004100420043004400450001002A00A5
:1001A00001000000000000002778257823782178DE
:1001B0000000207828782678247822780000000033
:1001C000000000000000000000000000000000002F
:1001D000000000000000000000000000000000001F
:1001E00000000000007C0000000000000000000093
:1001F00001000000010000000000000044454255DD
:10020000473A2064697361626C65642E0A00444554
:100210004255473A20656E61626C65642E0A006C37
:1002200065645F7461736B3A20253032580A004F61
:100230006E6573686F743A206163746976653A20FD
:1002400025640A000A0025303862003A2000253073
:100250003258000A722F632030313233343536374A
:100260000A007267626C696768742074696D6572F0
:100270002064697361626C652E0A007267626C6942
:100280006768742074696D657220656E61626C6563
:10029000642E0A007267626C696768742073657403
:1002A00020687376205B4E4F454550524F4D5D3A66
:1002B0002025752C25752C25750A007267626C69DE
:1002C0006768742073657420687376205B454550B9
:1002D000524F4D5D3A2025752C25752C25750A0049
:1002E0007267626C69676874207261696E626F77A9
:1002F00020736574206873763A2025642C25642C5D
:1003000025642C25750A007267626C696768742021
:1003100064697361626C65205B4E4F454550524F76
:100320004D5D3A207267626C696768745F636F6ED7
:100330006669672E656E61626C65203D2025750AD1
:10034000007267626C696768742064697361626CCB
:1003500065205B454550524F4D5D3A207267626C97
:10036000696768745F636F6E6669672E656E616248
:100370006C65203D2025750A007267626C696768AC
:100380007420656E61626C65205B4E4F454550522E
:100390004F4D5D3A207267626C696768745F636F86
:1003A0006E6669672E656E61626C65203D202575FD
:1003B0000A007267626C6967687420656E61626CBE
:1003C00065205B454550524F4D5D3A207267626C27
:1003D000696768745F636F6E6669672E656E6162D8
:1003E0006C65203D2025750A007267626C6967683C
:1003F0007420746F67676C65205B454550524F4DA4
:100400005D3A207267626C696768745F636F6E66DD
:1004100069672E656E61626C65203D2025750A0056
:100420007267626C69676874206D6F6465205B4EEB
:100430004F454550524F4D5D3A2025750A00726771
:10044000626C69676874206D6F6465205B45455018
:10045000524F4D5D3A2025750A007267626C6967DC
:1004600068745F696E6974207267626C696768742A
:100470005F636F6E6669672E6D6F6465203D203027
:100480002E2057726974652064656661756C7420EE
:1004900076616C75657320746F20454550524F4DE1
:1004A0002E0A007267626C696768745F696E6974AE
:1004B000207374617274210A007267626C696768E4
:1004C000745F636F6E6669672E7370656564203D47
:1004D0002025640A007267626C696768745F636FE5
:1004E0006E6669672E76616C203D2025640A007275
:1004F00067626C696768745F636F6E6669672E73A5
:100500006174203D2025640A007267626C69676827
:10051000745F636F6E6669672E687565203D202580
:10052000640A007267686C696768745F636F6E66FF
:1005300069672E6D6F6465203D2025640A0072672F
:10054000626C696768745F636F6E6669672E766553
:100550006C6F63696B6579203D2025640A007267C2
:10056000626C696768745F636F6E6669672E656E3B
:1005700061626C65203D2025640A007267626C69C7
:100580006768745F636F6E66696720454550524FB8
:100590004D3A0A001E0F0500047F3F1F64321464A9
:1005A0003214783C1E1E140A052223252628292AE7
:1005B0002C2D2F3032333536383A3B3D3E404243C6
:1005C0004547494A4C4E5051535557595A5C5E6005
:1005D00062646668696B6D6F71737577797B7D7F17
:1005E00081838587898A8C8E90929496989A9C9E16
:1005F0009FA1A3A5A7A8AAACAEAFB1B3B4B6B8B932
:10060000BBBCBEBFC1C2C3C5C6C7C9CACBCCCDCE99
:10061000D0D1D2D2D3D4D5D6D7D7D8D9D9DADADB7C
:10062000DBDBDCDCDCDCDCDDDDDDDDDCDCDCDCDC08
:10063000DBDBDBDADAD9D9D8D7D7D6D5D4D3D2D247
:10064000D1D0CECDCCCBCAC9C7C6C5C3C2C1BFBE2F
:10065000BCBBB9B8B6B4B3B1AFAEACAAA8A7A5A39A
:10066000A19F9E9C9A98969492908E8C8A89878559
:1006700083817F7D7B79777573716F6D6B69686638
:100680006462605E5C5A5957555351504E4C4A490A
:1006900047454342403E3D3B3A3836353332302FB2
:1006A0002D2C2A292826252322FFAA7F5540000128
:1006B0000101010101010101020202020202020222
:1006C00002030303030303030304040404040404F4
:1006D00005050505050606060606070707070708B8
:1006E000080808090909090A0A0A0B0B0B0C0C0C6B
:1006F0000D0D0D0E0E0E0F0F0F1010111111121205
:1007000013131414151516161717181819191A1A81
:100710001B1B1C1D1D1E1E1F2020212222232424E2
:10072000252626272829292A2B2C2D2D2E2F30311E
:100730003232333435363738393A3B3C3D3E3F4030
:100740004142434445464748494A4C4D4E4F50511B
:100750005354555658595A5B5D5E5F6162646566D5
:1007600068696B6C6D6F7072737577787A7B7D7E5C
:100770008082838587888A8C8E8F91939596989AAC
:100780009C9EA0A2A3A5A7A9ABADAFB1B3B5B7BAC4
:10079000BCBEC0C2C4C6C9CBCDCFD1D4D6D8DBDD98
:1007A000DFE2E4E7E9EBEEF0F3F5F8FAFDFF3F00F6
:1007B000433E20004C25640A000A092D2053746131
:1007C000747573202D0A686F73745F6B6579626F3F
:1007D0006172645F6C65647328293A202530325851
:1007E0000A6B6579626F6172645F70726F746F63B8
:1007F0006F6C3A20253032580A6B6579626F6172EE
:10080000645F69646C653A20253032580A74696DFA
:1008100065725F72656164333228293A2025303869
:100820006C580A002573000A092D20436F6E736F00
:100830006C65202D0A4553432F713A09717569740F
:100840000A000A092D204D61676963202D0A443A88
:10085000094465627567204D65737361676520544F
:100860006F67676C650A583A094D61747269782040
:100870004465627567204D6F646520546F67676CCF
:1008800065202D2053686F77206B657970726573D2
:1008900073657320696E206D617472697820677268
:1008A00069640A4B3A094B6579626F61726420444E
:1008B0006562756720546F67676C65202D205368EB
:1008C0006F77206B65797072657373207265706FD6
:1008D00072740A4D3A094465627567204D6F7573ED
:1008E0006520546F67676C650A563A0956657273DE
:1008F000696F6E0A533A095374617475730A433A07
:1009000009416374697661746520436F6E736F6C1F
:1009100065204D6F64650A46312D4631303A0953E2
:10092000776974636820746F204C61796572203038
:100930002D392028463130203D204C30290A302DD9
:10094000393A0953776974636820746F204C617970
:10095000657220302D390A47524156453A0953777E
:100960006974636820746F204C617965722030204F
:1009700028616C7465726E617465290A423A094A8D
:10098000756D7020746F20426F6F746C6F61646559
:10099000720A4553433A094A756D7020746F2042BC
:1009A0006F6F746C6F616465722028616C7465721E
:1009B0006E617465290A453A095072696E74204562
:1009C0004550524F4D2053657474696E67730A42E7
:1009D00041434B53504143453A09436C6561722092
:1009E000454550524F4D0A006B65796D61705F63EC
:1009F0006F6E6669672E7261773A20253032580A29
:100A00002E737761705F636F6E74726F6C5F63617A
:100A100070736C6F636B3A2025750A2E6361707377
:100A20006C6F636B5F746F5F636F6E74726F6C3A41
:100A30002025750A2E737761705F6C63746C5F6C30
:100A40006775693A2025750A2E737761705F726346
:100A5000746C5F726775693A2025750A2E73776129
:100A6000705F6C616C745F6C6775693A2025750AFC
:100A70002E737761705F72616C745F726775693A2B
:100A80002025750A2E6E6F5F6775693A2025750AF5
:100A90002E737761705F67726176655F6573633A25
:100AA0002025750A2E737761705F6261636B736CCA
:100AB0006173685F6261636B73706163653A20257F
:100AC000750A2E6E6B726F3A2025750A2E73776148
:100AD000705F6573636170655F636170736C6F6392
:100AE0006B3A2025750A0064656275675F636F6EF7
:100AF0006669672E7261773A20253032580A2E6572
:100B00006E61626C653A2025750A2E6D617472699A
:100B1000783A2025750A2E6B6579626F6172643AA6
:100B20002025750A2E6D6F7573653A2025750A00AC
:100B30006565636F6E6669673A0A64656661756CC0
:100B4000745F6C617965723A2025750A003F000A6E
:100B50006D6F7573653A206F66660A000A6D6F7572
:100B600073653A206F6E0A000A6B6579626F617275
:100B7000643A206F66660A000A6B6579626F61727B
:100B8000643A206F6E0A000A6D61747269783A20C7
:100B90006F66660A000A6D61747269783A206F6E3A
:100BA0000A000A64656275673A206F66660A000A81
:100BB00064656275673A206F6E0A000A0A4A756DAD
:100BC00070696E6720746F20626F6F746C6F616400
:100BD00065722E2E2E2000433E2000436C6561720C
:100BE000696E6720454550524F4D0A000A00253076
:100BF000325820006B6579626F6172645F72657054
:100C00006F72743A2025303258207C20007375733F
:100C100070656E64696E67206B6579626F6172647E
:100C20000D0A005B575D005B535D005B525D005B2E
:100C3000445D005B435D001403720065007600694B
:100C40000075006E0067003300390000000C036778
:100C500000740069007000730000000403090409B7
:100C6000025400030100A0FA09040000010301017D
:100C70000009211101000122440007058103080039
:100C80000109040100010300000009211101000114
:100C9000223200070582032000010904020001033B
:100CA000000000092111010001221500070583033E
:100CB0002000011201000200000008EDFE105F019B
:100CC00000010200010631FF0974A1010975150038
:100CD00026FF00952075088102C005010980A10149
:100CE000850319012AB700150126B7009501751073
:100CF0008100C0050C0901A101850419012AA00287
:100D0000150126A002950175108100C00501090694
:100D1000A101050719E029E71500250195087501CE
:100D200081029501750881010507190029FF150049
:100D300026FF00950675088100050819012905158B
:100D4000002501950575019102950175039101C07A
:100D500011241FBECFEFDAE0DEBFCDBF12E0A0E06E
:100D6000B1E0E4E5F1E602C005900D92A639B107C5
:100D7000D9F723E0A6E9B2E001C01D92AE3CB2076C
:100D8000E1F70E9466170C9454300C940000FF9316
:100D9000EF93E0919602F0919702309709F0099550
:100DA000EF91FF910895FC018591803011F0EFDF04
:100DB000FBCF0895FF27E0E230E247FF0CC04195EA
:100DC00097FF09C0EDE26095709580959095611D43
:100DD000711D811D911D27FF02C0219530E350E256
:100DE000AA27660F771F881F991FAA1FA41710F044
:100DF000A41B63955A95A9F7AA3008F0A95FA05DD6
:100E0000AF93F395611571058105910541F7ED32B9
:100E100011F4EF93F395F21718F43F93F395FBCF8A
:100E20008F91B5DFFA95E1F70895E991F9918591F0
:100E3000803021F0853219F0AADFF9CF089520E043
:100E4000E89455915532C1F3503311F4689455919B
:100E50005A3348F4505390F3220F022E220F220FE0
:100E6000200D250FF4CF0EF42195899199915336D9
:100E700019F3533729F1533559F1BC0188279927C4
:100E8000E8945C3621F4899199916894559154368F
:100E900039F446EF7EF077FF0DC08FEF9FEF0AC069
:100EA00055374AE039F0583540E121F0523642E0FA
:100EB00009F00895FF93EF937DDFEF91FF91B7CF96
:100EC000FF93EF93FC0181918030B9F360DFFBCF9A
:100ED000FF93EF9368DFF1CFDF93CF93CDB7DEB70A
:100EE0002596A3DFCF91DF91089523E042E061E0F2
:100EF0000E94320E08958430B8F46730A8F446306A
:100F000098F450E096E0699F400D511D1124FA01BC
:100F10009AE2899FE00DF11D1124EE0FFF1FE455A9
:100F2000FF4F85919491089581E090E008950E948B
:100F30007B07089581E008950E949A07089581E053
:100F400008950E949A0708950E94A10708950895A0
:100F50000E94A7070895A6E0B0E0E1EBF7E00C944B
:100F6000002F49835A839E8330919D0289819A8103
:100F700031111AC03E81332399F0222389F00E9457
:100F8000D20D182F682F89819A810E94AE0D698138
:100F90007A81812F0E94DD142696E3E00C941C2FA9
:100FA0000E94C00D182FF3CF0E94D20D69817A8163
:100FB000F1CFFC01262F40815181628173818481B0
:100FC00095810E94AB070895CF93DF93EC0161E018
:100FD0000E94D907BE010E949C07DF91CF9108951E
:100FE000CF93DF93EC0160E00E94D907BE010E941D
:100FF000A807DF91CF91089581E008950E94FC0732
:101000000895CF93C82F0E94860C8C2F0E94FE0754
:101010002FEF84E39CE0215080409040E1F700C036
:101020000000CF91089581E00E9401080E94E0260F
:10103000089580E00E9401080E94F12608950F9310
:101040001F93CF93DF938C0161E00E94D907EC01DD
:10105000F801858181110E947D20B801CE010E9496
:10106000A407811106C080E0DF91CF911F910F91FD
:101070000895B801CE010E9494248823A1F3B801F9
:10108000CE010E945423882371F3B801CE010E943F
:101090002A23882341F3B801CE010E949C20882393
:1010A00011F3F8018581882369F0C330FCE7DF077D
:1010B000A1F160F4C130ECE7DE0789F1C0F4C1159D
:1010C000DC4791F0C8010E949F07CECFCB35ECE7FB
:1010D000DE0759F1CC35FCE7DF0721F1CA35DC47E3
:1010E00089F70E942112EECF0E941308BCCF909185
:1010F0002103892F8E7F90FF81608093210380FFE1
:1011000009C08EE092E09F938F930E946C070F902E
:101110000F90A9CF8CEF91E0F6CF0E9429120E9488
:101120001908A1CF0E941712CDCF0E942512CACF55
:101130000E9412260E94D4080E94CD1F08950E948A
:10114000D8080E945E1F0E9417260895829590E09D
:101150009C01220F331F220F331F2C7C95958795FE
:10116000959587958373282B30E0C901880F991FC7
:101170008A7A359527952575822B089581E0089503
:101180000895CF93DF93D82F0E94BE08C82F8823DD
:1011900019F08D2F0E94C0088C2FDF91CF910895F8
:1011A00008950E94C108089580E00E94D108089522
:1011B0000E94DD240E94D1080895CF930E94DD246F
:1011C000C82F809198028C1701F1C09398020E9459
:1011D000A1266093990270939A0280939B02909348
:1011E0009C02809121038570853061F41F92CF931A
:1011F0008FE192E09F938F930E946C070F900F9066
:101200000F900F908C2F0E94D108CF910895ADE0E0
:10121000B0E0EDE0F9E00C94012F488759876A8728
:101220007B878C879D8791110E9444111F8286E0E5
:10123000FE013896DE01119601900D928A95E1F734
:101240008D8181110DC029813A814B815C816D8135
:101250007E818F810E948E102D96E2E00C941D2FCE
:10126000CE0101960E94E4078111EDCFF5CFFC017C
:101270002481213021F4808191810E94040E0895FF
:10128000CF93C82F8823C9F08238C9F40E94EA247A
:1012900081FD13C089E30E94D5250E94B3112FEF71
:1012A00087EE93E0215080409040E1F700C00000BD
:1012B00089E30E94DD250E94B311CF910895833800
:1012C000A1F40E94EA2480FDF8CF83E50E94D52591
:1012D0000E94B3112FEF81EE94E0215080409040A6
:1012E000E1F700C0000083E5E4CF8438A1F40E9458
:1012F000EA2482FDE2CF87E40E94D5250E94B31143
:101300002FEF81EE94E0215080409040E1F700C043
:10131000000087E4CECF8CEF8C0F813A98F48C2FAD
:101320000E94DB228111C9CF8C2F0E949A2588232D
:1013300029F08C2F0E94DD250E94B3118C2F0E9472
:10134000D525B9CF80E28C0F883048F4C77081E092
:1013500001C0880FCA95EAF70E942711ACCFEBE5D0
:10136000EC0FE33040F4F0E0E65AFE4F808190E06D
:101370000E943B25A2CFC85ACB3108F09ECFEC2F5C
:10138000F0E0EE0FFF1FEC5DFE4F808191810E9427
:10139000602593CF882309F44DC0823879F40E94E8
:1013A000EA2481FF47C089E30E94D5250E94B3113A
:1013B00089E30E94DD250E94B3110895833859F412
:1013C0000E94EA2480FF36C083E50E94D5250E9452
:1013D000B31183E5EECF843859F40E94EA2482FFEA
:1013E00029C087E40E94D5250E94B31187E4E1CF8C
:1013F0009CEF980F913AE8F290E2980F983050F4F1
:10140000877091E001C0990F8A95EAF7892F0E94B1
:101410002D11D1CF9BE5980F933028F490E080E018
:101420000E943B250895885A8B3120F490E080E09B
:101430000E94602508951F93CF93DF93182FEB012F
:101440000E944009209739F4812F0E94CA09DF9138
:10145000CF911F9108958FE99FE00197F1F700C0A8
:1014600000002197EFCF70E060E0893311F460E570
:1014700070E00E941B0A0895882321F00E94271122
:101480000E94B3110895882321F00E942D110E941B
:10149000B3110895B0E0A0E0E0E5FAE00C94FA2E74
:1014A0006C01D62FC72FFC011581068102950F70A4
:1014B0000E941D11E82E8823F9F0E12E1123E1F09E
:1014C0008C2F807F803461F080E28D0F883008F1AE
:1014D0008C2F807E803221F4D230D8F00023C9F0E6
:1014E0008091850382FF15C082E00E94D8110E947E
:1014F0001D1191E0E82EE926BC2EB2949FE0B9229E
:10150000FBE0FB15B8F1EB2DF0E0EA5AFF4C0C9430
:10151000BA2EE12CF1CF0C2F0F70C07F11F0029585
:10152000007F112399F0002359F080E28D0F88305D
:1015300010F0D11107C0802F0E9427110E94B31113
:101540008D2F5AC0802F0E943711F8CF8D2F0E9407
:10155000CA09002379F080E28D0F883010F0D11194
:1015600004C0802F0E942D1103C0802F0E943D11C6
:101570000E94B311EB2DE850FF0B349720F40E942A
:10158000DD240E94D108EE2089F00E94191180FD0F
:101590000DC0F60115820E9413110E940C0DC601A8
:1015A0000E94510C0E9413110E941C0DCDB7DEB792
:1015B000E9E00C94162F2C2F2F70F22EC07FC03232
:1015C00019F0F29480EFF822DD2341F0D130D1F10F
:1015D000112309F444C00023F1F0B2CF80918503B8
:1015E00082FD15C0112359F0FF2029F08F2D0E9494
:1015F00027110E94B31180E00E944009BBCF80E018
:101600000E94CA09FF2009F4B5CF8F2DABCF11235B
:1016100069F0011104C08F2D0E943C0AABCF01304C
:1016200009F0A8CF8F2D0E945B11A4CF0111A2CF8A
:101630008F2D0E94430A8F2D0E9467118F2D0E94CB
:101640004B1198CF112321F0063008F093CFE3CF50
:10165000053008F08FCF8F2D0E94430A8BCF0023D7
:10166000D1F3D93349F43FEF87EE93E03150804016
:101670009040E1F700C000008D2F0E94CA097ACF88
:101680008C2F86958695837069F0813009F072CF32
:101690008D2F9C2F9370111102C080E090E00E946A
:1016A000602568CF8D2F9C2F9370111102C080E0B0
:1016B00090E00E943B255ECF8C2F8370A1F5111125
:1016C00059CF4D2F429546954770440F440F2D2F0B
:1016D0002F7030E0042E02C0220F331F0A94E2F76D
:1016E00090E080E0D4FF09C08FE090E002C0880F56
:1016F000991F4A95E2F780959095C695C695C37057
:10170000822B932BC23049F058F4C13019F00E945B
:10171000DF0C30CF0E94D60C2DCF0E94E80C2ACFD0
:101720000E94D30C27CF8695112311F08C2F817046
:10173000882309F41FCF4D2F429546954770440FDB
:10174000440F2D2F2F7030E0042E02C0220F331FC4
:101750000A94E2F790E080E0D4FF09C08FE090E0C7
:1017600002C0880F991F4A95E2F780959095C6951B
:10177000C695C370822B932BC23049F058F4C13008
:1017800019F00E94470DF6CE0E943E0DF3CE0E9446
:10179000500DF0CE0E94F40CEDCECF70112329F045
:1017A0008C2F0E940C0D8D2F37CF8D2F0E94430A56
:1017B0008C2F0E941C0DDECED23F41F160F4D03F51
:1017C000B9F0D13F81F0112309F443C00111B8CE23
:1017D0008C2F8F711FC0D33F01F1D43FA1F78091AF
:1017E000850382FD24C08C2F8F71112311F312C049
:1017F000112341F0053008F0BDCE8C2F8F710E946F
:101800002E0DB8CE063008F0B5CEF7CF8C2F8F71E5
:101810001111CFCF0E940C0DADCE112329F08C2FCA
:101820008F710E94000DA6CE0E94FB0CA3CE112347
:1018300031F063E08C2F8F710E94BA119BCE81E052
:101840000E94D811023008F495CE82E00E94D8118F
:1018500091CE002359F0D93309F00ECFEFEFF7EE18
:1018600023E0E150F0402040E1F704CF8C2F8F714E
:10187000A0CF0F931F93CF93DF93EC016881798101
:101880008D810E940F0E8C010E94590D0E94D20C76
:10189000B801CE010E944A0ADF91CF911F910F91AA
:1018A0000895CF93DF93EC018C81882399F0CE01CA
:1018B0000E941F08811111C00E941D11882351F040
:1018C0008D81882339F08091850382FF03C082E0F7
:1018D0000E94D811DF91CF910895CE010E94390C5A
:1018E000CE010E94F007F6CF90E080E00E943B25F9
:1018F00090E080E00E9460250E9444110E94B31194
:1019000008950E94E5250E94740C08950E943411E8
:101910000E94810C089592959F70963091F058F432
:10192000925F9F70923058F4803F19F030F4883EF7
:1019300030F481E008959A5FF4CF843FD1F380E0E2
:101940000895883EB0F3813FD1F7F3CFFC012481A5
:10195000222339F0808191810E94040E0E948B0C19
:10196000089580E00895A6E0B0E0E9EBFCE00C9477
:10197000012F2696E2E00C941D2FA7E0B0E0E3ECE7
:10198000FCE00C94012F2796E2E00C941D2F0895A3
:101990000E94C70C08950E94C80C9093B9028093CE
:1019A000B802089508950E94CB0C08952091B802C2
:1019B0003091B902822B932B0E94CB0C0895209179
:1019C000B8023091B902822393230E94CB0C089570
:1019D0002091B8023091B902822793270E94CB0C44
:1019E00008950E94750708950E94F10C9093B70224
:1019F0008093B602089590E080E00E94F40C089570
:101A000021E030E0A90102C0440F551F8A95E2F79A
:101A1000CA010E94F40C089521E030E002C0220FB8
:101A2000331F8A95E2F78091B6029091B702822B1C
:101A3000932B0E94F40C089521E030E002C0220FA5
:101A4000331F8A95E2F7209530958091B6029091E8
:101A5000B702822393230E94F40C089521E030E022
:101A600002C0220F331F8A95E2F78091B60290914F
:101A7000B702822793270E94F40C08952091B602A2
:101A80003091B702822B932B0E94F40C0895209181
:101A9000B6023091B702822393230E94F40C08957A
:101AA0002091B6023091B702822793270E94F40C4E
:101AB00008950895262F277091E001C0990F2A9567
:101AC000EAF723E0769567952A95E1F7660F771F89
:101AD000660F771FFA01E60FF71F50E040E0682F0E
:101AE00070E08191DF0111979B01042E02C03695B1
:101AF00027950A94E2F72170219528272923282782
:101B00002C934F5F5F4F4430510559F70895A82F2C
:101B1000A77023E0969587952A95E1F7880F991F7E
:101B2000880F991FFB01E80FF91F50E040E080E0AB
:101B3000219130E00A2E02C0369527950A94E2F7EB
:101B400021703327042E01C0220F0A94EAF7822B5A
:101B50004F5F5F4F4430510559F70895262F973056
:101B600070F4863060F4682F70E086E0989F600D16
:101B7000711D11244EE952E0822F0E945A0D0895E2
:101B8000292F973068F4863058F490E06EE972E0BF
:101B900036E0239F800D911D11240E94870D08952A
:101BA00080E00895B0E0A0E0E8EDFDE00C94FA2EAE
:101BB0007C010091B6021091B7028091B802909119
:101BC000B902082B192BCFE0D0E0CC24C394D12C40
:101BD000BC2EC6010C2E02C0880F991F0A94E2F792
:101BE00080239123892B49F4219790F7B12C8B2DD9
:101BF000CDB7DEB7E9E00C94162FB7018C2F0E9409
:101C0000E914019789F3F3CFCF93DF93EC010E949E
:101C1000D20DBE010E94E914DF91CF9108951F9368
:101C2000CF93DF93EB0190919D02992339F0CB0183
:101C30000E94040EDF91CF911F910895882369F0CF
:101C4000CB010E94D20D182F682FCE010E94AE0D3D
:101C5000BE01812F0E94E914EDCFCB010E94C00D7F
:101C6000182FF6CFE1E0F0E0DF0102C0AA0FBB1FA2
:101C70006A95E2F7BD01DF0102C0AA0FBB1F4A95BA
:101C8000E2F7AD01462B572B02C0EE0FFF1F2A953E
:101C9000E2F79A01282339232417350719F48E2BEC
:101CA0009F2B0895E095F0958E239F2308951F9311
:101CB000CF93DF93C091BA0217E08091BB028C13DF
:101CC00004C0DF91CF911F910895D0E01C9FF001D7
:101CD0001D9FF00D1124E454FD4F2081318142817C
:101CE00053816481758186810E94BD0C2196C770E5
:101CF000E4CF2091F4023091F5024091F602509128
:101D0000F7026091F8027091F9028091FA020E9444
:101D1000BD0C0895CF93DF938091FA02807F09F084
:101D20004DC08091F902882309F448C0E091BA02BD
:101D30005091BB02C091F502D091F4026091F6027D
:101D40007091F70247E05E17C9F18E2F90E0E49F93
:101D5000F0011124E454FD4F2481222391F1489F86
:101D6000F001499FF00D1124DF01A454BD4F1196DD
:101D70002C9111972C1325C02C912D1322C0159650
:101D80002C91159721111DC012962D913C91261B67
:101D9000370B283C3105A8F48091FA028F708061DE
:101DA0008093FA02EE53FD4F80818F7080618083B3
:101DB00084EF92E00E94510C0E94570EDF91CF9168
:101DC0000895FC013196E770BECF482F2091BA02EA
:101DD0009091BB0257E0291302C080E0089530E0E3
:101DE000529FF001539FF00D1124E454FD4F818167
:101DF000681306C08081481303C085818111EECF2E
:101E00002F5F3F4F2770E7CFA4E1B0E0EAE0FFE0AB
:101E10000C94F72E8C0186E0F801DE011F960190EC
:101E20000D928A95E1F7F8018481E58094EFA92E5F
:101E300092E0B92E9091F80291111FC08823D1F041
:101E4000EE20A9F0C8010E94A60CF82E882379F094
:101E500087E0F801D50101900D928A95E1F7C5015F
:101E60000E9437090E948A0E0E94790E5FC0C80145
:101E70000E94510CFF24F39459C0C080D18082800D
:101E80009380F090F9022091F6023091F702A401BC
:101E9000421B530BFF2009F4F9C0483C510508F0E0
:101EA000A7C0882309F442C09091F5028091FA02FC
:101EB000282F207F09F05CC09D1116C09091F4027C
:101EC000C91212C0E1104EC08F7080618093FA0277
:101ED0000E94790E84EF92E00E94510C8091FA02E8
:101EE000F8018683F12C22C0E1103CC06D2D8C2DB1
:101EF0000E94E50E6D2D8C2D0E94E50EE82E8111BD
:101F0000F1CFCF86D88A8F8598890E94040E292F19
:101F100022952F70243078F49F702230A8F09923F6
:101F2000B9F0F8019681907F99F4FE2C8F2D64967C
:101F3000ECE00C94132F2A5F2F70223068F0C80158
:101F40000E94510CEF2CF1CF992311F0882369F3F3
:101F5000805E883050F3F3CF803F38F3815F833069
:101F600070F7E3CF8091FA0281608093FA02BACFD2
:101F70009D1113C09091F402C9120FC0E1100DC061
:101F80008683C8010E94510C87E0F801A4EFB2E0FB
:101F900001900D928A95E1F767CFC8010E94A60CC7
:101FA000882309F464CFEE2009F461CF8091FA020E
:101FB000803288F02091F4023091F5023987288729
:101FC0009B868A869091F8029C871D868E87CE011B
:101FD00008960E94510C87E0F801A4EFB2E001904E
:101FE0000D928A95E1F70E948A0E0E94790E42CFE7
:101FF0009091FA02292F207FA1F4682D9A8A898A6C
:10200000A6017A899E2D0E94B30C84EF92E00E9473
:10201000510C87E0F50111928A95E9F70E94790E3B
:1020200061CF882309F482CF8091F5028D1110C011
:102030008091F402C8120CC0E1100AC09683C80156
:102040000E94510C87E0F50111928A95E9F76ECF55
:10205000C8010E94A60C882309F409CFEE2009F4D8
:1020600006CF8091FA02803208F4B5CF2091F402B5
:102070003091F5023A8329839C828B829091F802F9
:102080009D831E828F83CE010196A3CF483C5105CC
:10209000B8F5882309F4EECEFE2CEE2009F4E7CE45
:1020A0008091F5028D111EC08091F402C8121AC0F1
:1020B0008091FA0280FD0DC0982F907F51F08683A9
:1020C000903F09F45ECF982F907F905F8F70892B9F
:1020D00057CF87E0F801A4EFB2E001900D928A9506
:1020E000E1F724CFC8010E94A60C811174CF809122
:1020F000FA0281608093FA02C8010E94510C16CF47
:10210000682D9A8A898AA6017A899E2D0E94B30C2D
:1021100087E0F50111928A95E9F7A6CEAEE0B0E02E
:10212000E4E9F0E10C94002F288739874A875B8720
:102130006C877D878E87CE0108960E94040F8823C6
:10214000B1F06C85662341F0288539854A855B8529
:102150007D858E850E94BD0C17E08091BA0290911A
:10216000BB0289133DC02E96E3E00C941C2F87E040
:10217000FE013896DE01119601900D928A95E1F7E5
:102180008C85882349F32091BB0230E0C901019678
:10219000877099274091BA024817190699F097E07D
:1021A000929FD001939FB00D1124A454BD4FFE0106
:1021B000319601900D929A95E1F78093BB020E94AF
:1021C000570ECACF0E94860C1092BB021092BA0220
:1021D00087E0E4EFF2E0DF011D928A95E9F7BCCFDA
:1021E000819FC001112484549D4F0E94040F8823B5
:1021F00009F4B9CFE091BA021E9FF0011124E45412
:10220000FD4F2081318142815381648175818681B6
:102210000E94BD0C8091BA0290E0019687709927C8
:102220008093BA029ACF809103038695869586950E
:102230000895809103038770089590910303977028
:1022400081E009F480E0089580910F030895909152
:102250000F03892B80930F030895809590910F03AE
:10226000982390930F03089510920F03089590916F
:102270000E03892B80930E030895809590910E0391
:10228000982390930E03089510920E0308950895D5
:102290000E944711089590910403292F282331F0BB
:1022A00080958923809304030E944811089508951E
:1022B0000E945711089590910503292F282328176C
:1022C00029F0982B909305030E945811089590913E
:1022D0000503292F282331F0809589238093050356
:1022E0000E945811089580910503882329F01092C7
:1022F000050380E00E94581108950F931F93CF9318
:10230000DF930091040110910501C0910F038091AA
:102310000E03C82B80910503882331F0C82B0E943F
:10232000852581110E947311F801C083C0910401B9
:10233000D091050148E050E06BEF72E0CE010E94C1
:10234000C72F892B59F088E0FE01ABEFB2E0019076
:102350000D928A95E1F7CE010E94ED24DF91CF9195
:102360001F910F9108950E947D11089508950E9474
:10237000B61108959091850392FF11C098E0899F4E
:1023800090011124622B609303030E940C0D809135
:1023900003038695869586950E94B71108950E943D
:1023A0000C0D08951092030380E00E94B711089568
:1023B000909103038095892380930303282F27702E
:1023C00069F4891759F09091850392FF07C08695AB
:1023D000869586950E941C0D0E94D2110895CF9378
:1023E000C82F8091850382FB992790F99C17E9F00B
:1023F000C0FB82F9809385038091840390918503CB
:102400000E944A1282E00E94D8118091210380FF2D
:102410000CC01F92CF938FE292E09F938F930E9404
:102420006C070F900F900F900F90CF9108958091AF
:10243000850382FB882780F991E089270E94EF11AC
:10244000089581E00E94EF11089580E00E94EF114D
:1024500008956FEF7FEF90E080E00E941F300895B5
:1024600090E080E00E94EB2F21E0853E9E4F09F036
:1024700020E0822F089582E090E00E94DD2F0895F1
:1024800083E090E00E94DD2F089584E090E00E94B8
:10249000EB2F0895BC0184E090E00E941F30089566
:1024A000AB01BC018FE090E00E9413300895AB01B6
:1024B000BC0183E190E00E941330089560E070E079
:1024C000CB010E945712089560E070E0CB010E949A
:1024D00050120E945E120895A8E0B0E0E2E7F2E137
:1024E0000C94012F65EE7EEF90E080E00E941F309B
:1024F00060E082E090E00E94013081E090E0909303
:10250000B9028093B80261E083E090E00E9401305C
:1025100060E074E184E090E00E941F3060E086E0BB
:1025200090E00E94013060E087E090E00E9401307E
:1025300040E050E0BA0188E090E00E94133060E093
:1025400083E290E00E94013060E08CE090E00E9425
:10255000013060E08DE090E00E94013019821A8223
:102560001B821C821D821E821F82188648E050E05A
:1025700067E170E0CE0101960E94F12F40E050E04B
:10258000BA018FE190E00E9413300E9464122896F5
:10259000E2E00C941D2F0E946C120895682F8EE0CB
:1025A00090E00E9401300895A6E0B0E0EAEDF2E18B
:1025B0000C94FF2E0E9495268C018091100390911F
:1025C00011038017910781F019821A820E949526C3
:1025D000682F49815A81792F80E090E00E94070995
:1025E00010931103009310032696E4E00C941B2F24
:1025F0000E94A12660931D0370931E0380931F0306
:10260000909320036093190370931A0380931B0324
:1026100090931C030895089508950E940B13089544
:1026200008950E941013089586EA98E20E947D178B
:102630000E940C130E940D13089581E008950E94DA
:102640001D1308950E941D130895089508950E9472
:1026500025130E94261308950E943012811102C092
:102660000E94CB120E943B12809321030E944512CC
:1026700090938503809384030E94401290E00E940F
:10268000D30C8091B6029091B7020E94F10C08958C
:102690000E948C260E94D8160E942C130E94D008FB
:1026A0000E94E61E0E9411130895A6E0B0E0EBE53B
:1026B000F3E10C94F82E0E941F1381110AC00E94AE
:1026C000D4120E947E200E94DD082696EBE00C9436
:1026D000142F0E94EE1682E1A82E83E0B82E750119
:1026E00010E0F70101917F01812F0E94E7151F5F24
:1026F000173009F441C00817A1F38091210381FD2F
:102700000E94ED150E942213C82E10E09924939484
:10271000812F0E94E715082FF50181915F010817AD
:1027200029F1F12CEE24E394D02ED8268D2D8E2184
:10273000A9F0CC2099F0F9821A830E9495269C83F7
:102740008B839D8291E0802F8E2109F490E0498156
:102750005A816B817C818D810E940709F394EE0C74
:10276000F6E0FF12E3CFF501319700831F5F1730CA
:1027700079F60E94F812A5CF0813BFCFA0CF1F9300
:10278000CF93DF930E94EE14EC01C11580E5D807CA
:10279000F0F5C11580E4D80708F09CC0C03ED10513
:1027A00020F5CD3CD10508F082C0C83AD10578F4B7
:1027B000C53AD10508F073C0C130D10519F1209791
:1027C00009F1C430D105F0F4D0E0C0E01BC0C33C37
:1027D000D105D0F7C85AD0E0CC0FDD1FC35ADE4F69
:1027E0000990D881C02DD4640DC0C11580E2D807EE
:1027F00008F0D1C0C11581E0D80708F05AC0C83E22
:10280000D10510F7CE01DF91CF911F910895C03609
:1028100082E5D80718F5C03482E5D80708F06BC008
:10282000C03282E5D80708F05FC0C11582E5D8073D
:1028300008F497C02C2F2695269580E2289F9001BA
:1028400011248C2F8370C1E0D0E002C0CC0FDD1FBB
:102850008A95E2F7C22BD32BDD68D4CFC03A82E54C
:10286000D80760F4C03882E5D80708F459C0CF71A2
:10287000D0E0DC2FCC27C46FD06AC4CFC03C82E547
:10288000D80708F462C0C03E82E5D80708F09CCFA4
:10289000DC2FCC27CC27DF71C06FD06AB3CFC55AED
:1028A000D0E0CD56DE4FC881D0E0D064ABCFD0654C
:1028B000A9CF8D2F0E949015182FCE0199270E9425
:1028C000EE14C12FD0E0DC2FCC27CC27DF71C82B32
:1028D000D92B98CFCE0199270E94EE14CC27DF7018
:1028E000C82BD92BD06A8ECFCF71D0E0DC2FCC276C
:1028F000C16FD06A87CF2C2F26952695277080E24E
:10290000289F900111248C2F8370C1E0D0E002C079
:10291000CC0FDD1F8A95E2F7C22BD32BDC6872CF78
:102920002C2F26952695277080E2289F9001112450
:102930008C2F8370C1E0D0E002C0CC0FDD1F8A95E0
:10294000E2F7C22BD32BDA685DCF8C2F8F710E94F8
:102950009015C82FD0E0DC2FCC27CC27DF71D062B8
:1029600051CF8C2F8F710E94901555E0D695C79549
:102970005A95E1F7CF70D0E0DC2FCC27282F30E03C
:1029800084FF05C044E0220F331F4A95E1F7C22BB4
:10299000D32BD06937CF8D2F8F710E949015182FB0
:1029A000CE0199270E94EE14C12FD0E0DC2FCC2756
:1029B000CC27DF71C82BD92BD2CF462F773030F4FC
:1029C000663020F4672F0E949707089590E080E01A
:1029D00008950E94DD140E94BF1308958238910566
:1029E000B9F1B0F48133910509F47DC048F489321E
:1029F000910509F46DC08A32910509F47BC00895F0
:102A00008533910509F45FC08933910509F1089573
:102A1000833E9105D9F138F4803E910529F1823E3B
:102A2000910579F10895863E9105D9F1873E91058A
:102A300009F43EC0843E910541F52091850321FFB4
:102A400024C08091840384FD19C087EE90E008952E
:102A500020918403237009F05AC02091850323FF3D
:102A600014C089E290E008952091840320FD38C0CD
:102A70003091850330FF09C024FF43C090E080E01F
:102A800008952091840322FDF7CF089520918403B7
:102A900022FD3AC03091850330FD39C024FFF5CFC7
:102AA000EDCF2091840323FFF0CF24FDE7CFCDCFDE
:102AB0002091840323FD2EC03091850331FFEECF9A
:102AC00084EE90E008952091840325FFDECFC9CFE6
:102AD0002091840325FD21C02091850323FFD5CFBC
:102AE00089E390E0D2CF2091840326FFCECF8AE203
:102AF00090E008952091840326FFC7CF81E390E002
:102B0000089583EE90E0089582EE90E0089580EEBF
:102B100090E0089586EE90E0089585E390E00895B2
:102B20009091840392FF10C041E0282F247124303B
:102B300009F040E031E0282F2871283009F030E01A
:102B4000431711F02CE0822793FF10C041E0282F9B
:102B50002471243109F040E031E0282F2871283118
:102B600009F030E0431711F02CE082273091850303
:102B700030FF10C051E0282F2171213009F050E0C2
:102B800041E0282F2871283009F040E0541711F057
:102B900029E0822731FF10C041E0282F2171213127
:102BA00009F040E031E0282F2871283109F030E0A9
:102BB000431711F029E0822794FD877E0895089538
:102BC0000E94DF15089508950E94E3150895E82FE7
:102BD000F0E0E357FC4F80810895B0E0A0E0E3EF20
:102BE000F5E10C94F72E83E592E09F938F930E947A
:102BF0006C078DE8E82E83E0F82E0F900F90912C53
:102C0000812C9EE4A92E92E0B92E2BE4C22E22E064
:102C1000D22E06E412E0C4E4D2E09F928F92BF92DB
:102C2000AF920E946C07DF92CF920E946C07F7016F
:102C300081917F010E94A6081F928F931F930F938B
:102C40000E946C07DF93CF930E946C079FEF891A55
:102C5000990AEDB7FEB73C960FB6F894FEBF0FBECB
:102C6000EDBFF7E08F169104C1F6CDB7DEB7ECE00B
:102C70000C94132F80EA8A95F1F7089500C0089507
:102C80000E943A160895F894E82FE295EF70F0E06C
:102C900031A1282F2F7081E090E001C0880F2A9584
:102CA000EAF7982F9095932391A392A1892B82A361
:102CB000789408950F931F93CF93DF93CCE9D1E0DD
:102CC00089918F3F11F00E94431681E0C33AD807E3
:102CD000B9F7C6E9D1E00CE911E089918F3F11F015
:102CE0000E9443160C171D07C1F7DF91CF911F916A
:102CF0000F910895B0E0A0E0E0E8F6E10C94FB2E1F
:102D0000EC01D62E062F10E0C80184569E4F7C01A0
:102D1000FC0180818F3F09F444C0F894E82FE295CC
:102D2000EF70F0E091A18F7021E030E001C0220F40
:102D30008A95EAF7892F822B81A382A120952823E7
:102D400022A378940E943E16E6E9F1E031E0C12C1E
:102D500021912F3F59F1A22FA295AF70B0E090962C
:102D60008C9190E02F7002C0959587952A95E2F797
:102D700080FD1CC0832FC82A330F81E0EC39F8078F
:102D800039F7F70180818F3F11F00E94431661E00F
:102D9000C11001C060E08D2D0E944016C00FD11FF0
:102DA000C882CDB7DEB7E8E00C94172F80E0E3CF00
:102DB0000E945A1687E0EDE8F3E0DF01982F1D929C
:102DC0009A95E9F7E6E8F3E0DF011D928A95E9F7C5
:102DD00087E00E9429170E94E0150895A7E0B0E05F
:102DE000E4EFF6E10C94FE2E8E010F5F1F4F87E09B
:102DF000F80111928A95E9F7F12C6F2DC8010E9414
:102E00007A16F394F7E0FF12F8CF47E050E0B801EC
:102E100086E893E00E94C72F21E0009709F420E0A4
:102E2000892B41F087E0F801A6E8B3E001900D920C
:102E30008A95E1F747E06DE873E086E893E00E9449
:102E40002A17182F0E94E415812F2796E5E00C948D
:102E50001A2F0895B0E0A0E0E0E3F7E10C94FB2E18
:102E60006C017B01042FC22F222379F081E0809333
:102E700024030E949526909323038093220380E0ED
:102E8000CDB7DEB7E8E00C94172FD0912403DD23F3
:102E9000B1F380912203909123030E94AD26059700
:102EA00070F310E0A801B601C7010E94C72F892B5B
:102EB00031F0A801B601C7010E94D42FCD2F109286
:102EC00024038C2FDDCF0E94551308950E942E26D7
:102ED0000E9408290E9414130E9422290E9448136C
:102EE0000E942F290E9434290E9463170E945A29A8
:102EF0000E9440270E942713F5CF9093970280935A
:102F000096020895EF92FF920F931F93CF93DF9352
:102F1000EB01E82FD1110EC0442321F0F0E0E2557F
:102F2000F94FE4916E2F7E2F8E2FCDB7DEB7E6E0FE
:102F30000C94192F0D2F10E0282F30E0442329F096
:102F40002255394FF901249130E0F6E0CF9FC001BE
:102F50001124EFEFF0E0BF010E94702EAB018C2F27
:102F600090E0880F991FA5E5A49FB001A59F700D63
:102F70001124861B970B982F990F980FBF01601B88
:102F8000710B629FD001639FB00D729FB00D112431
:102F90008B2F9D9FB0011124672F7727EF01C61B50
:102FA000D70BBE01629FE001639FD00D729FD00DD1
:102FB00011247F01E91AF108E09EB001E19E700D35
:102FC000F09E700D1124672F7727E61BF70BE29F09
:102FD0008001E39F100DF29F100D1124E12F722F3D
:102FE0004230510599F048F44115510569F04130DE
:102FF000510581F0EB2F8D2F07C04430510569F04A
:1030000080F046305105B1F76E2F8FCFE22F7B2F26
:10301000812FFACFE22F7D2FF7CFEB2F822F712F49
:10302000F3CF7B2F822FED2FEFCF41E00E9482174D
:10303000089508950E9415180895CF93DF93762F71
:10304000E901682F842F0E941A18798368838A8384
:10305000DF91CF91089580919403982F9C7F29F45C
:10306000837084608093940308958C3AE8F38370AE
:10307000886AF8CFB0E0A0E0E0E4F8E10C94FB2E21
:1030800088E090E00E94E52F6B017C0183E290E0F4
:103090000E94DD2F282F30E040E050E060E070E03B
:1030A00080E090E000E20E94282FB22FA32FF42F9F
:1030B000E52FD62FC72F97018601BC29A12BFE290A
:1030C0005E2F532B2B2F3A2F4F2F6D2F7C2FCDB7E9
:1030D000DEB7E8E00C94172FB0E0A0E0E2E7F8E1FB
:1030E0000C94F72E49015A016B017C010E942B18A8
:1030F0008401A4016A2D7B2D88E090E00E941330AA
:1031000094014A2D5B2DB601C70100E20E94432FB6
:10311000622F83E290E00E940130CDB7DEB7ECE091
:103120000C94132FE4E9F3E085E0808311828FEFA4
:10313000828383831482758125E030E04FEF5FEF57
:1031400060E0868197810E946C1808958091210328
:1031500080FF8BC08BE795E09F938F930E946C0755
:10316000809121030F900F9080FF7FC08091940386
:1031700081701F928F938EE595E09F938F930E94AD
:103180006C07809121030F900F900F900F9080FF9C
:103190006CC080919403869581701F928F938EE30B
:1031A00095E09F938F930E946C07809121030F906D
:1031B0000F900F900F9080FF58C0809194038695D8
:1031C00086951F928F9383E295E09F938F930E9441
:1031D0006C07809121030F900F900F900F9080FF4C
:1031E00044C0809195031F928F9389E095E09F934F
:1031F0008F930E946C07809121030F900F900F9086
:103200000F9080FF32C0809196031F928F938FEEB4
:1032100094E09F938F930E946C07809121030F90FD
:103220000F900F900F9080FF20C0809197031F9206
:103230008F9385ED94E09F938F930E946C0780910C
:1032400021030F900F900F900F9080FF0EC0809180
:1032500098031F928F9389EB94E09F938F930E9422
:103260006C070F900F900F900F900895809194032A
:1032700080FF03C086958695089580E0089590911B
:103280009803933018F49F5F90939803882391F0EC
:1032900020919403309195034091960350919703A8
:1032A000609198037091990380919A0390919B0388
:1032B0000E946C18089581E00E943F190895909132
:1032C0009803992319F0915090939803882391F0D3
:1032D0002091940330919503409196035091970368
:1032E000609198037091990380919A0390919B0348
:1032F0000E946C18089581E00E945F190895609102
:103300000A018091940380FF0FC070E08091090151
:1033100023E0829FC0011124E091D001F091D101FE
:1033200084569C4F0995089580910B0190910C0152
:1033300023E0829FF0011124E456FC4F891728F7FF
:103340001182108212828F5F3396F8CF909194038E
:1033500090FF0EC090910B0120910C0133E0939FE0
:10336000F0011124E456FC4F921718F00E947F19C7
:1033700008958183608342839F5F3396F5CFA3E0F6
:10338000B0E0E5ECF9E10C94012F9091940390FFEB
:103390000AC09E012F5F3F4F0E941D184B8169811B
:1033A0008A810E94A6192396E2E00C941D2FCF93E8
:1033B000DF93EC01EC81F0E0E755FA4F4491E4E94A
:1033C000F3E0628181810E94BF198C818F5F8C83C1
:1033D000DF91CF910895CF93DF93EC01E4E9F3E01F
:1033E000438162818C810E94BF198C818F5F8C83A5
:1033F000DF91CF910895A3E0B0E0E1E0FAE10C9411
:10340000FF2E8C018091250381110AC09E012F5F40
:103410003F4F4FEF6FEF0E941D188A818093250365
:10342000F8016481613069F08091250340E06623F2
:1034300061F040E0623011F44091250380E060E0EB
:1034400004C06091250340E080E00E94A619F801C5
:10345000848190E0019663E070E00E94842E848372
:103460002396E4E00C941B2FA3E0B0E0EAE3FAE13A
:103470000C94F42E082FE62EF42EC22E9091940375
:1034800090FF4BC0E92FE695E695AE2FB0E0AD5525
:10349000BE4F8C91809368039C7F943009F041C0AB
:1034A0009E012F5F3F4F802F0E941D184B81698125
:1034B0008A810E94A61900939503E0929603F092E8
:1034C0009703CC2009F48AC020919403609198035B
:1034D00070919903302FA70180919A0390919B03DB
:1034E0000E946C188091210380FF17C08091970380
:1034F0001F928F93809196031F928F9380919503D3
:103500001F928F938BEB92E09F938F930E946C0797
:103510000FB6F894DEBF0FBECDBF2396EFE00C943C
:10352000102F823019F4F0909703C5CF863019F42C
:1035300000919503C0CF8930D9F3893109F0BBCF11
:10354000E9518E2F8170782E8E2F80958170D82E24
:10355000E695F0E0E755F94F1491612C90EEA92E15
:1035600092E0B92E60910D01661618F00E947F1945
:10357000A2CF619EC001112470E00E94702E502ED7
:1035800071102AC0560E862C912C8091210380FF49
:1035900011C01F921F931F92DF921F925F921F9282
:1035A0006F92BF92AF920E946C070FB6F894DEBF85
:1035B0000FBECDBF20910B01820E911C9401220FF2
:1035C000331F280D391D24563C4F4F2D6E2D852D50
:1035D0000E941D186394C6CF561AD5CF809121033F
:1035E00080FF9BCF1F92FF921F92EF921F920F932B
:1035F00084E992E089CFE4E9F3E09181282F4381C7
:10360000628180E1890F0E94341A089581E00E944E
:10361000FB1A0895E4E9F3E09181282F4381628148
:1036200080EF890F0E94341A089581E00E940A1BDE
:103630000895E4E9F3E0628120E1620F08F46FEF9E
:10364000282F438181810E94341A089581E00E94CD
:10365000191B0895E4E9F3E0628120E1621B08F49C
:1036600060E0282F438181810E94341A089581E00F
:103670000E942A1B0895E4E9F3E0438120E1420F10
:1036800008F44FEF282F628181810E94341A089537
:1036900081E00E943B1B0895E4E9F3E0438120E1CF
:1036A000421B08F440E0282F628181810E94341A75
:1036B000089581E00E944C1B089520E00E94341A76
:1036C0000895EF92FF921F93CF93DF93EC0110E0E8
:1036D000EE24EA94F12C60910D01161770F00E940F
:1036E0007F199A818C8190FF27C08F5F8C83DF9137
:1036F000CF911F91FF90EF90089520910B01422FE1
:10370000410F5527551FCA019A01220F331F280F59
:10371000391F24563C4F70E0C7010E94842E962F1B
:103720008C814091970360919603199F800D11241D
:103730000E941D181F5FCFCF8150D8CFB0E0A0E00E
:10374000E4EAFBE10C94F92EFC0182810FEF80FF8B
:1037500001E010E04BE0A42E80910D01181798F0C5
:103760000E947F1980912703013009F04FC0811119
:1037700002C080910D01815080932703CDB7DEB741
:10378000EAE00C94152FC0910B01C12ED12CCC0D69
:10379000DD2DD11DCE01880F991FC80FD91FC4562A
:1037A000DC4F198218821A8234E0E32EF12CB12CFE
:1037B000809127038B0D8C301CF16A2D0E94622EA4
:1037C000892F082E000C990BC816D90691F4809108
:1037D00097038E9DA0018F9D500D112455954795FF
:1037E000559547959E0160919603809195030E949F
:1037F0001D18B00EF1E0EF1AF108D1F61F5FACCF43
:1038000087FFDFCF90910D01890FDBCF90E001960C
:1038100060910D0170E00E94842EAECF0F931F9334
:10382000CF93DF9380910B0190910C0123E0829F55
:10383000F0011124E456FC4F891740F1C0E0D3E0B9
:1038400060910D01C61740F10E947F192091070178
:1038500080912603820F8093260390910801920F96
:1038600090930801191654F4082E000C990B4091FE
:103870000D014150550B841795071CF0219520939D
:103880000701DF91CF911F910F910895118210824E
:1038900012828F5F3396D0CF0C2F10E070E0C801FA
:1038A0000E94842E20910B01820F482F50E020911E
:1038B0002603022E000C330B02171307BCF02091D5
:1038C0000801022E000C330B201731077CF08D9F6E
:1038D0009001112424563C4F409197036091960328
:1038E000809195030E941D18CF5FAACFFA01EE0FB9
:1038F000FF1FE40FF51FE456FC4F11821082128265
:10390000F3CFB0E0A0E0E7E8FCE10C94F72EEC0187
:103910004C81042F10E09801D8010E94C82E9B0111
:10392000AC010E94DE2E4B015C01E0E2F0E0E01B06
:10393000F10BA5E5B0E0AC019B010E94DE2E6B010E
:103940007C019F01DF010E94C02E9B01AC010E94FF
:10395000E92E9B01AC01280D391D4A1D5B1DC701D5
:10396000B6010E94982EF22E822F90E039E23F1588
:1039700020F143E0249F9001112435952795122FC3
:10398000109500E085E5E82EEF1880910D010817ED
:1039900018F10E947F199C8181E0992319F09032DF
:1039A00019F48FEF8093060180910601890F8C83B3
:1039B000CDB7DEB7ECE00C94132F25E530E0B9016C
:1039C000681B790B9B01220F331F260F371F37FF10
:1039D000D4CF2F5F3F4FD1CF8E2D01FD8F2D209162
:1039E0000B01622F600F7727771F9B01220F331F78
:1039F000260F371F24563C4F412F609196030E949B
:103A00001D180F5FC2CF0F931F93CF93DF93EC016D
:103A100010E000E090910D019017110609F06CF490
:103A20000E947F198C8190E00196817099278C8388
:103A3000DF91CF911F910F91089520910B01A80163
:103A4000420F511D9A01220F331F240F351F245698
:103A50003C4F4C8160919603809195039695901709
:103A6000110651F04CF0442349F0409197030E9415
:103A70001D180F5F1F4FCECF4423B9F340E0F7CF9F
:103A8000B0E0A0E0E6E4FDE10C94F32EFC016280DE
:103A9000448081E08483E9EAF5E07490E8E2F6E0AE
:103AA000E491C0919703C695C158D0E0CC0FDD1FBB
:103AB000CD2FDD27812C75E0972EAA24AA94B12C56
:103AC00055245A94E719EE2EF12C80910D01881699
:103AD00038F00E947F19CDB7DEB7E0E10C940F2FCC
:103AE000C82CD12C82E0861568F09C9CF0019D9C2E
:103AF000F00D1124E85DFC4F809195038083809147
:103B000096038183411023C09C9CF0019D9CF00D85
:103B10001124E85DFC4F1382128220910B01C60133
:103B2000820F911D9C01220F331F280F391F24562D
:103B30003C4F9C9CF0019D9CF00D1124E85DFC4FD6
:103B40004281618180810E941D188394BECF9C9C1C
:103B500080019D9C100D1124085D1C4FF80183818C
:103B60008823F1F081508383859DC00111246481F5
:103B700070E00E94702EFB01FF27E755FA4F8491F9
:103B8000E82FE719E59DC0011124B7010E94702EAE
:103B900080919703689FB0011124F8017283BDCF13
:103BA0000E94AA2FB5010E94842E8C179D070CF04D
:103BB000B4CFF2E0F61598F40E94AA2FB5010E9446
:103BC000842EF80180830E94AA2F209196032695C7
:103BD000622F70E00E94842E280FF80121839C9CA4
:103BE000F0019D9CF00D1124E85DFC4F1282809144
:103BF0009703893C58F088EC9C9CF0019D9CF00D4B
:103C00001124E85DFC4F8483838387CF8431A0F740
:103C100084E1F2CF609194036695669570E04BE085
:103C200050E08EE091E00E94BA2F892B19F481E0D8
:103C3000809369030E9495269093600380935F03AD
:103C40008091210380FF08C08BE792E09F938F93C0
:103C50000E946C070F900F90089510926903809155
:103C6000210380FF08C082E692E09F938F930E9419
:103C70006C070F900F9008959091940390FF49C0A6
:103C80009370811147C094609093940320919403A2
:103C9000662309F447C030919503409196035091F3
:103CA0009703609198037091990380919A03909182
:103CB0009B030E946C188091210380FF10C08091AB
:103CC0009403869586951F928F938EE394E09F933D
:103CD0008F930E946C070F900F900F900F90609140
:103CE00094036695669570E04BE050E08EE091E0BD
:103CF0000E94BA2F892B09F10E942D1E81E080932A
:103D000062034091970360919603809195030E940E
:103D10005D1B08958B3210F0986AB6CF880F880F1C
:103D2000982BB2CF8091210380FFD9CF269526957D
:103D30001F922F9380E294E0CACF0E940A1EDECF2A
:103D4000682F909194039695969581E0890F8B3218
:103D500008F081E00E943C1E089581E00E94A01EB0
:103D60000895682F90919403969596958FEF890FFB
:103D700009F48AE20E943C1E089581E00E94B11E6F
:103D8000089561E00E943C1E089580919403816033
:103D9000809394038091210380FF0DC01F9281E0E6
:103DA0008F9382EB93E09F938F930E946C070F9009
:103DB0000F900F900F9080919403869586950E94A6
:103DC000C11E089560E00E943C1E08958091670323
:103DD000811156C08091210380FF08C083EA94E0DE
:103DE0009F938F930E946C070F900F900E943A1838
:103DF0002093940330939503409396035093970335
:103E0000609398037093990380939A0390939B0314
:103E10002C7F01F58091210380FF08C08AE594E0A2
:103E20009F938F930E946C070F900F900E9492189F
:103E30000E943A182093940330939503409396037D
:103E400050939703609398037093990380939A0318
:103E500090939B030E942B180E94A618109269034E
:103E6000E091CE01F091CF0109958091940380FFFC
:103E700004C0869586950E94E21E81E080936703C8
:103E8000089580919403816080939403809121032D
:103E900080FF0DC01F9281E08F9389E793E09F938D
:103EA0008F930E946C070F900F900F900F9080914E
:103EB0009403869586950E94E21E089510926603EB
:103EC0008091650381110E94411F0E940A1E08957E
:103ED000209194032E7F2093940330919503409179
:103EE0009603509197036091980370919903809184
:103EF0009A0390919B030E946C188091210380FF8C
:103F00000FC08091940381701F928F9381E493E09E
:103F10009F938F930E946C070F900F900F900F90BC
:103F20000E942D1E0E947F1908958091210380FF19
:103F300010C080919403809581701F928F9389EEB9
:103F400093E09F938F930E946C070F900F900F90B8
:103F50000F908091940380FF03C00E94681F089512
:103F60000E94C51E0895809194038E7F80939403D0
:103F70008091210380FF0CC01F921F9287E093E085
:103F80009F938F930E946C070F900F900F900F904C
:103F90000E942D1E0E947F1908950E942D1E80915F
:103FA000660381110AC081E08093660380919403C7
:103FB0008170809365030E94B31F08950F931F9330
:103FC000CF93DF93809169038823C1F180916803C7
:103FD000E0919403E695E695E81BE0936103823057
:103FE00091F5F0E0EB55FA4FE491CE2FD0E007EDDC
:103FF00019E180916203882361F0109262030E94AC
:1040000095269093600380935F031092640310924F
:1040100063030E949526E0915F03F09160038E1B7D
:104020009F0B8F3F9F4750F4EC0FFD1FF0936003F1
:10403000E0935F038FE593E0F8010995DF91CF915D
:104040001F910F910895863049F4F0E0EE55FA4F34
:10405000E491CE2FD0E00BEE19E1CBCF893051F4B3
:10406000E695F0E0E156FA4FE491CE2FD0E001E67C
:104070001BE1BFCF8F3051F4E695F0E0E456FA4FE4
:10408000E491CE2FD0E00EE91BE1B3CF853149F4A6
:10409000F0E0E756FA4FE491CE2FD0E00EE01CE1BD
:1040A000A8CFC8E2D0E001E81CE1883109F4A1CF33
:1040B000833239F4E7E9F5E0C591D4910BEF19E1CA
:1040C00098CFC4EFD1E003E01DE1843209F491CF31
:1040D000C0EDD7E009E118E1853209F08ACF8E2FD3
:1040E00063E00E94562EE92FF0E0EC56FA4FE4917F
:1040F000CE2FD0E000E41DE17CCF08950E94DE1FAA
:104100000895FA01811101C0FB0109950895CF932B
:10411000DF93C82FD62F0E9436198C1748F00E94C3
:1041200036198D1728F40E94AD1EDF91CF910895A6
:104130008C2F0E94C11EF9CF1F93CF93DF93EC0108
:10414000FB011581111110C00E9424118272FE0121
:10415000E052F847E531F10508F05EC0EE59FF4C3A
:104160000C94BA2E0E94951F812FDF91CF911F9141
:1041700008954DEB5EE16DEA7EE10E948120F4CF6F
:104180004DEA5EE16DEB7EE1F8CF45E15BE166E093
:104190007BE1F3CF46E05BE165E17BE1EECF47E316
:1041A0005BE166E27BE1E9CF46E25BE167E37BE16D
:1041B000E4CF49E55BE168E47BE1DFCF48E45BE124
:1041C00069E57BE1DACF4BE759E16BE579E1D5CFE2
:1041D0004BE559E16BE779E1D0CF81E00E94C11E48
:1041E000C3CF65E082E00E948720BECF68E086E012
:1041F000FACF6EE089E0F7CF64E18FE0F4CF67E1BA
:1042000085E1F1CF88E1EACF62E289E1ECCF83E298
:10421000E5CF6AE285E2E7CF11E0A6CF539A089591
:104220004BB1477F5BB15860EFB7F8949B01220F09
:10423000331F260F371F280F391F2817390741F45E
:10424000EFBF8FE594E00197F1F700C000000895FB
:10425000DC016D91CD0178E05BB9000000C067FF23
:104260004BB9660F000000C000C000C04BB900C0D1
:104270007A9591F7E2CFCF93C82F1F928F9384EB5B
:1042800097E09F938F930E946C0781E090E002C0BB
:10429000880F991FCA95E2F70E94D30C0E94860CE2
:1042A0000F900F900F900F90CF910895EF92FF9283
:1042B0000F931F93CF93DF938B3109F426C108F03E
:1042C000B4C08B3009F4D2C008F086C0863009F43F
:1042D000E6C068F4853009F4B6C08DE49BE09F9396
:1042E0008F930E946C070F900F9080E0F0C0873092
:1042F00009F4F2C0883089F70E9440121F928F9310
:1043000080E39BE09F938F930E946C070E943B1277
:1043100083FB992790F91F929F9382FB992790F92D
:104320001F929F9381FB992790F91F929F93982F3B
:1043300091701F929F931F928F9387EE9AE09F93A5
:104340008F930E946C070E94451293FB222720F94D
:104350001F922F9387FB222720F91F922F9386FB12
:10436000222720F91F922F9385FB222720F91F92E5
:104370002F9384FB222720F91F922F9383FB222760
:1043800020F91F922F9382FB222720F91F922F934F
:1043900091FB222720F91F922F93292F21701F9222
:1043A0002F9381FB222720F91F922F93282F217012
:1043B0001F922F939F938F9388EE99E09F938F93F3
:1043C0000E946C078DB79EB78A960FB6F8949EBF71
:1043D0000FBE8DBF81E07BC0803109F4B0C080F496
:1043E0008E3009F07ACF90912103892F8B7F92FF35
:1043F00084608093210382FF9FC088E79BE091C087
:10440000863109F4ACC0893109F067CF82ED91E0C3
:104410009F938F9384E298E09F938F930E946C0701
:104420000F900F900F900F90D5CF8A3269F1A0F4C2
:10443000873231F128F48E3108F44FCF8D5121C0ED
:10444000893209F04ACF8BEB9BE09F938F930E94B8
:104450006C070E94130820C0833478F48A3308F074
:10446000A3C0853369F0883309F037CF82E498E040
:104470009F938F930E946C070FC0833409F02DCF58
:1044800080E00E943B21A6CF8BED9BE09F938F9312
:104490000E946C070E94CB120F900F909BCF8091CF
:1044A0002103807F8093210387E298E09F938F937D
:1044B0000E946C0787ED9BE09F938F930E946C078F
:1044C00081E080936A030F900F900F900F90CDB70B
:1044D000DEB7E6E00C94192F90912103892F8E7F8F
:1044E00090FF81608093210380FF03C08FEA9BE0EF
:1044F000BFCF82EA9BE09F938F930E946C078091CD
:104500002103817F80932103C7CF90912103892FBD
:104510008D7F91FF82608093210381FF0AC085E92E
:104520009BE09F938F930E946C0780912103816091
:10453000E9CF87E89BE09CCF88E69BE099CF9091FC
:104540002103892F877F93FF88608093210383FF56
:1045500003C08CE59BE0E5CF8FE49BE089CF0E9410
:10456000A126162F072FF82EE92ED0918303C09194
:1045700023010E94DD24EF92FF920F931F931F925D
:10458000DF931F92CF931F928F9389EB97E09F93B6
:104590008F930E946C078DB79EB70C960FB6F89458
:1045A0009EBF0FBE8DBF16CF89536BCF80E008959D
:1045B0000E94D6220895CF93C82F80916A03882342
:1045C00031F0813099F010926A0380E00DC00E94B2
:1045D00024118232D1F78C2F0E94D62281111DC066
:1045E0008C2F0E9456218170CF9108950E94241132
:1045F000823289F38C2F0E94D822811125C0C431C8
:1046000029F170F4CB3081F08EEA97E09F938F937D
:104610000E946C070F900F901BC081E090E0E3CFE9
:10462000C932A1F0C83381F787E298E09F938F9356
:104630000E946C0780EB97E09F938F930E946C071A
:104640000F900F900F900F9081E0CDCF10926A03E2
:1046500080E0C9CFCF93DF93EB0186319C4711F502
:104660000E9424119D81992399F08A7A91E009F49E
:1046700090E090936B03811109C089E20E94D525D7
:104680000E94B31180E0DF91CF91089585E3F6CFCA
:1046900080916B03811104C089E20E94DD25F0CF77
:1046A00085E3FBCF81E0EFCFCF93DF93EC01FB01FC
:1046B0008581882309F4D2C09E0130572332310509
:1046C00008F0B2C00E944512909385038093840342
:1046D000FE01E150F047E232F10520F4E958FF4CC9
:1046E0000C94BA2E8091840381608093840393C0DC
:1046F000809185038860809385038DC080918403B9
:104700008260F3CF809184038460EFCF8091840333
:104710008860EBCF809185038160EDCF8091850328
:104720008260E9CF809184038061DFCF8091840330
:104730008062DBCF809184038064D7CF0E94860C97
:10474000809184038068D1CF809184038C60CDCF29
:10475000809185038360CFCF809184038E7FC5CF06
:1047600080918503877FC7CF809184038D7FBDCFE4
:10477000809184038B7FB9CF80918403877FB5CFED
:10478000809185038E7FB7CF809185038D7FB3CFD6
:10479000809184038F7EA9CF809184038F7DA5CFE4
:1047A000809184038F7BA1CF0E94860C809184032B
:1047B0008F779BCF80918403837F97CF80918503F0
:1047C0008C7F99CF8091840382FB992790F921E017
:1047D000922790FB82F990FB83F987CF8091850324
:1047E000982F909591708E7F892B90FB81F983CFC4
:1047F00090918403892F8F7B96FF806476CF0E94EF
:10480000860C90918403892F97FB87F980586DCF90
:1048100081E00E94CE1280918403909185030E94D2
:104820004A120E94860C80E0DF91CF91089580E0CB
:10483000F0CF90918403892F8F7E94FF806155CFB4
:1048400090918403892F8E7F90FF81604ECF90914D
:104850008503892F877F93FF88604DCF81E0E4CF68
:104860000F931F93CF93DF93C42FD22FFC01858129
:104870008823C9F040936E030E94952690936D03A0
:1048800080936C0380E28C0F883040F4C77081E025
:1048900001C0880FCA95EAF70E943C0ADF91CF91C8
:1048A0001F910F91089510916E03141332C08091DF
:1048B0006C0390916D030E94AD26883C910548F5EC
:1048C000C0E2CD0F1D17B9F080E2810F883040F4AF
:1048D000177081E001C0880F1A95EAF70E94430A19
:1048E000C83048F481E09D2F977001C0880F9A95D9
:1048F000EAF70E943C0A802F0E94330AC83070F603
:10490000D77081E001C0880FDA95EAF70E94430A68
:10491000C5CF80E28C0F883008F6C77081E001C0F7
:10492000880FCA95EAF7F2CF0F93DB0188519C47B5
:1049300087309105A0F5FC01E756FF4C0C94BA2E88
:1049400006E221EE41EE6AE17CE7CD010E943024CF
:1049500080E00F91089507E225EE45EE6BE17CE7DC
:10496000F4CF06E221EE40EE68E17CE7EECF07E20D
:1049700025EE44EE69E17CE7E8CF06E221EE42EE67
:104980006CE17CE7E2CF07E225EE46EE6DE17CE7E5
:10499000DCCF08E221E045EE6EE17CE7D6CF15964C
:1049A0008C91882319F010926E03D3CF81E0D1CF80
:1049B00090937403809373030895E0917303F091CF
:1049C0007403309729F00190F081E02D0995089546
:1049D00080E008950E94DD240895EF92FF920F93E6
:1049E0001F93CF93DF93EC01E0917303F091740375
:1049F0003097E1F10280F381E02D09958091210348
:104A000082FF34C080FF0DC088811F928F9384EF96
:104A10009BE09F938F930E946C070F900F900F90D5
:104A20000F907E0186E0E80EF11C0EEE1BE08091F7
:104A3000210380FF0BC08A811F928F931F930F93D6
:104A40000E946C070F900F900F900F902196CE153B
:104A5000DF0569F78091210380FF08C08CEE9BE0A1
:104A60009F938F930E946C070F900F90CDB7DEB786
:104A7000E6E00C94192FA3E0B0E0E1E4F5E20C9439
:104A8000012F209171033091720328173907A1F08B
:104A90009093720380937103E0917303F091740318
:104AA000309751F023E029839B838A830084F1852A
:104AB000E02DCE01019609952396E2E00C941D2F7E
:104AC000A3E0B0E0E6E6F5E20C94012F20916F033D
:104AD0003091700328173907A1F0909370038093E9
:104AE0006F03E0917303F0917403309751F024E069
:104AF00029839B838A830084F185E02DCE01019672
:104B000009952396E2E00C941D2F409104015091E9
:104B100005019A012E5F3F4F485F5F4F80E02417E9
:104B2000350709F40895F90191919F019923B9F38B
:104B30008F5FF5CF882371F020910401309105013A
:104B4000F9013296285F3F4F9191981729F0E217AB
:104B5000F307D1F780E0089581E008959C01FC01FE
:104B600032969FEF80E04191461751F09F3F19F434
:104B7000411101C0982F8F5F8630A9F79F3F09F43C
:104B80000895290F311D97FD3A95F9016283089523
:104B9000FC01329608962191261303C0DF0111977C
:104BA0001C92E817F907B9F70895682F809104015E
:104BB000909105010E94AE250895682F809104010F
:104BC000909105010E94C8250895E0910401F0919B
:104BD0000501329686E0DF011D928A95E9F7089576
:104BE00008950E94F0250895811106C081E0809308
:104BF00075030E94F125089582E0F9CF83E0809348
:104C000075030E94F12508950E94F425089581E01E
:104C1000809375030E94F12508950E940726089548
:104C2000089508950E9411260895089508950E94F8
:104C300010260895CF930E9415260E94EE160E941A
:104C40001626C0E08C2F0E94E715811105C0CF5FAA
:104C5000C730C1F7CF91089581E0FCCF85B7806858
:104C600085BF85B7806885BF08951F921FB61F92C4
:104C700011248F939F93AF93BF93809176038111FB
:104C800013C08091BD039091BE03A091BF03B0916A
:104C9000C0034196A11DB11D8093BD039093BE0337
:104CA000A093BF03B093C003BF91AF919F918F9129
:104CB0001F901FBE1F9018958091C503843031F15D
:104CC0000E9498081092760388E190E020E40FB6E5
:104CD000F894A895809360000FBE2093600083B77E
:104CE000817F846083BF83B7816083BF7894889518
:104CF00083B78E7F83BF0FB6F894A895809160002C
:104D0000886180936000109260000FBE08950E9439
:104D1000860C0E949F08089582E084BD93E095BDB3
:104D20009AEF97BD80936E0008952FB7F894809105
:104D3000BD039091BE03A091BF03B091C0032FBFEC
:104D400008952FB7F8946091BD037091BE038091D0
:104D5000BF039091C0032FBF08959C014FB7F894F3
:104D60008091BD039091BE03A091BF03B091C00399
:104D70004FBF821B930B089578941F921FB61F920A
:104D800011248F939F93AF93BF938091BD03909114
:104D9000BE03A091BF03B091C0030196A11DB11D38
:104DA0008093BD039093BE03A093BF03B093C00351
:104DB000BF91AF919F918F911F901FBE1F9018952B
:104DC00087E797E7909301088093000888E19AE0CD
:104DD0000FB6F894A895809360000FBE9093600082
:104DE000FFCF88E19AE00FB6F894A8958093600011
:104DF0000FBE90936000FFCF8091820308950895C5
:104E000008959B01BA019091C5039430E9F48F7025
:104E10008093E9009FEF8091E800915085FD06C0E6
:104E200085ED8A95F1F700009111F5CF8091E800AA
:104E300085FF0AC050E040E0C9010E94D02980915E
:104E4000E8008E778093E800089543E050E0BC01CD
:104E500082E00E9401270895CF93DF93EC0148E0A0
:104E600050E0BC0181E00E94012788E0FE01AAE732
:104E7000B3E001900D928A95E1F7DF91CF9108950B
:104E8000089583E39CE09F938F930E946C07809129
:104E9000C4030F900F90811109C00E94602B0E94E3
:104EA000BD2B8091E20084608093E20008958FE240
:104EB0009CE09F938F930E946C071092C4030F9005
:104EC0000F9008958BE29CE09F938F930E946C0754
:104ED0000E9407260F900F90089587E29CE09F9311
:104EE0008F930E946C076091C10381E0611101C042
:104EF00080E00E94FE250F900F90089583E29CE0D1
:104F00009F938F930E946C079091C50381E094302A
:104F100009F080E06091C1030E9404260F900F9079
:104F20000895209178032F5F822F62E30E94562E0E
:104F3000992319F0209378030895109278038091B3
:104F400079038823F1F08091C5038430C1F49091F6
:104F5000E9009F702091EC00822F817020FD80E895
:104F6000892B93E09093E9009091EB0090FF04C0AF
:104F70009091EE0097FD08C08F708093E900109229
:104F8000790308951092F1009091E80095FDFACF11
:104F90009091E80090FFF0CF9091E8009E77909379
:104FA000E800EACF42E061EC81E00E94DC2A42E2C4
:104FB00061EC82E00E94DC2A42E261EC83E00E9424
:104FC000DC2A9091C50381E0943009F080E0609183
:104FD000C1030E94F42508958091C703833009F42A
:104FE00061C030F48130D1F1823009F49EC008955F
:104FF0008A3009F48AC08B3009F46FC0893009F017
:1050000050C08091C603813209F04BC08091CA0321
:105010009091CB03029708F044C08091E800877F0D
:105020008093E8008091E80082FF37C09091F30000
:105030008091F200029731F48091F100813011F0FB
:10504000863021F48091F100809382038091E80002
:105050008B778093E8000E94102B23C08091C603B9
:10506000813AF9F48091E800877F8093E80080918D
:10507000CA039091CB03892B61F468E08AE793E03F
:1050800070E00E941F2A8091E8008B778093E800EF
:10509000089560E090E080E0F3CF8091C503811136
:1050A000C1CF08958091C603813AD9F78091CA0390
:1050B0009091CB03892BA9F78091E800877F80939B
:1050C000E8008091E80080FFFCCF8091230180936D
:1050D000F1008091E8008E77BCCF8091C6038132C9
:1050E00001F78091CA039091CB03892BD1F680916F
:1050F000E800877F8093E8000E94102B8091C8030E
:10510000809323010E94860C08958091C60381320A
:1051100041F68091E800877F8093E8000E94102B81
:105120008091C9038093830308958091C603813AD7
:1051300009F0B7CF8091E800877F8093E8008091E5
:10514000E80080FFFCCF80918303C1CF9FB7F89424
:10515000109279039FBF9091C503943009F048C025
:105160002091E9002F703091EC00932F917030FD69
:1051700090E8922B23E02093E9002091EB0020FFA0
:1051800034C02091EE0027FF30C020917703222306
:1051900021F02091E80025FF28C01092770326E037
:1051A0003091E80035FF14C08093F1008091E80051
:1051B00085FD27C08091E80080FFFCCF8091E8004A
:1051C0008E778093E8009F709093E90080E00895C7
:1051D0003091C503343049F43091EB0035FD05C002
:1051E000215041F481E0809377039F709093E90010
:1051F0008FEF0895EFE9FFE03197F1F700C000006D
:10520000CFCF8FB7F89421E0209379038FBFDBCF06
:1052100084B7877F84BF0FB6F894A895809160000B
:10522000886180936000109260000FBE80E890E07B
:105230000FB6F89480936100909361000FBE0E94B6
:105240000D2608950E94602B0E94BD2BE2EEF0E037
:1052500080818460808378940E943B2E089589E148
:1052600091E00E94D82408958091C503853091F47F
:105270008091210380FF08C08DE09CE09F938F9375
:105280000E946C070F900F908091C503853019F034
:105290000E94872608950E945C260E941A26882371
:1052A00099F38091C303882379F30E94BA290E945D
:1052B000860CEACF08959A014091CC035091CD031A
:1052C0000E9463290895492F55274330510521F144
:1052D00068F44130510509F443C04230510509F4E6
:1052E00044C090E080E050E040E026C041325105EB
:1052F00051F142325105A9F76330710590F7FB0176
:10530000EE0FFF1FE657FD4F4081518169577D4FDA
:10531000FB01808190E010C099278130910581F0D8
:10532000009729F00297E9F6E7E3FCE002C0EBE51D
:10533000FCE0849190E0AF01F9015183408308952E
:10534000EDE4FCE0F6CF6330710558F6660F771F89
:10535000FB01E057FD4F4081518189E090E0ECCFA7
:1053600082E190E043EB5CE0E7CF84E590E04FE53D
:105370005CE0E2CF80E189BD82E189BD09B400FE35
:10538000FDCF8091D8008F7D8093D8008091E00080
:1053900082608093E0008091E00081FDFCCF089561
:1053A000AF92BF92CF92DF92FF920F931F93CF9352
:1053B000DF936C01EB018A010E942F2BF82E8111E3
:1053C00023C00115110539F0F80180819181C81BB6
:1053D000D90BC80ED91EB12CA12C2097A9F0809111
:1053E000E80085FD22C08091E8008E778093E80078
:1053F00001151105A1F0F80180819181A80EB91E57
:10540000B182A08285E0F82E8F2DDF91CF911F9180
:105410000F91FF90DF90CF90BF90AF9008950E94C2
:105420002F2B8823D1F2F82EEFCFF60181916F0157
:105430008093F1002197FFEFAF1ABF0ACECFFC0196
:105440008091CC039091CD0386179707A0F061154A
:10545000710529F49091E8009E779093E80090E020
:105460006115710551F4911108C08091E80082FF27
:1054700034C080E00895BC01F2CF8091C503882339
:10548000C1F18530C1F18091E80083FD30C0809189
:10549000E80082FDEACF8091E80080FFE1CF8091B3
:1054A000F3002091F200382F6115710519F02830B2
:1054B000310558F091E02830310509F090E0209155
:1054C000E8002E772093E800CBCF81918093F10004
:1054D000615071092F5F3F4FE7CF8091C50388234B
:1054E00041F0853041F08091E80083FFBECF81E03C
:1054F000089582E0089583E00895FC018091CC0333
:105500009091CD0386179707A0F06115710529F4D6
:105510008091E8008E778093E80090E06115710536
:1055200051F4911108C08091E80082FF35C080E0FD
:105530000895BC01F2CF8091C5038823C9F185305D
:10554000C9F18091E80083FD31C08091E80082FDBF
:10555000EACF8091E80080FFE1CF8091F3002091B5
:10556000F200382F6115710519F02830310558F017
:1055700091E02830310509F090E08091E8008E77C5
:105580008093E800CBCF84918093F10031966150F5
:1055900071092F5F3F4FE6CF8091C503882341F00B
:1055A000853041F08091E80083FFBDCF81E0089510
:1055B00082E0089583E00895982F973028F08F7047
:1055C0008093E90081E008959093E900242F762FDD
:1055D00050E0981731F07091EC002091ED0050915F
:1055E000F00021FD02C09F5FE8CF3091EB003E7FCD
:1055F0003093EB003091ED003D7F3093ED00309122
:10560000EB0031603093EB007093EC002093ED00E1
:105610005093F0002091EE0027FDE5CF80E0089543
:105620008091C60387FF13C08091E80082FF06C007
:105630008091E8008B778093E80004C08091C503D7
:105640008111F2CF08958091C5038823D9F3809109
:10565000E80080FFF8CF8091E8008E77ECCF2091B2
:10566000E4003091E50095E6A9012091EC00822F3D
:10567000817020FF06C08091E80080FF06C080E0B6
:1056800008952091E80022FD1AC08091C503882367
:1056900089F0853089F08091EB0085FD0FC0209165
:1056A000E4003091E50042175307F9F29150E1F61A
:1056B00084E0089582E0089583E0089581E00895EC
:1056C0000E94CF2B0E94D72BE0EEF0E0808181601A
:1056D0008083E8EDF0E080818F77808319BCA7EDAF
:1056E000B0E08C918E7F8C9380818F7E808310922E
:1056F000C40308950F931F93CF93DF930E94CF2B82
:105700000E94D72BC8EDD0E088818F77888388816D
:105710008068888388818F7D888319BC1092C50337
:105720001092C1031092C3031092C20300EE10E066
:10573000F80180818B7F808388818160888342E04B
:1057400060E080E00E94DC2AE1EEF0E080818E7F64
:105750008083E2EEF0E080818160808380818860D8
:105760008083F80180818E7F808388818061888337
:10577000DF91CF911F910F910895E8EDF0E08081C6
:105780008F7E8083E7EDF0E080818160808384E01C
:1057900082BF81E08093C4030E947A2B0895E8EDD4
:1057A000F0E080818E7F80831092E2000895109255
:1057B000DA001092E10008951F920F920FB60F9237
:1057C00011242F933F934F935F936F937F938F9306
:1057D0009F93AF93BF93EF93FF938091E10082FF7C
:1057E0000BC08091E20082FF07C08091E1008B7FB7
:1057F0008093E1000E9491278091DA0080FF19C018
:105800008091D80080FF15C08091DA008E7F809350
:10581000DA008091D90080FF96C080E189BD82E1E5
:1058200089BD09B400FEFDCF81E08093C5030E94CD
:1058300041278091E10080FF19C08091E20080FF44
:1058400015C08091E2008E7F8093E2008091E2009B
:1058500080618093E2008091D80080628093D800BC
:1058600019BC85E08093C5030E946D278091E100FB
:1058700084FF2BC08091E20084FF27C080E189BDB6
:1058800082E189BD89B5982F917080FFFBCF80910F
:10589000D8008F7D8093D8008091E1008F7E809327
:1058A000E1008091E2008F7E8093E2008091E2002F
:1058B00081608093E2008091C103882309F449C08C
:1058C00084E08093C5030E947E278091E10083FFDE
:1058D00029C08091E20083FF25C08091E100877F8D
:1058E0008093E10082E08093C5031092C103809110
:1058F000E1008E7F8093E1008091E2008E7F8093B3
:10590000E2008091E20080618093E20042E060E08A
:1059100080E00E94DC2A8091F00088608093F00093
:105920000E946227FF91EF91BF91AF919F918F915C
:105930007F916F915F914F913F912F910F900FBE8B
:105940000F901F90189519BC1092C5030E945727FD
:1059500070CF8091E30087FD93E09093C503B3CFB0
:105960001F920F920FB60F9211242F933F934F93D4
:105970005F936F937F938F939F93AF93BF93CF93D7
:10598000DF93EF93FF93D091E900DF708091EC00FB
:10599000C82FC17080FDC0E81092E9008091F0002E
:1059A000877F8093F00078940E94F42C1092E90095
:1059B0008091F00088608093F000CD2BCF70C09371
:1059C000E900FF91EF91DF91CF91BF91AF919F914E
:1059D0008F917F916F915F914F913F912F910F9098
:1059E0000FBE0F901F901895AAE2B0E0EAEFFCE21C
:1059F0000C94002F86EC93E02091F100FC012193A0
:105A0000CF01F3E08E3C9F07B9F70E94EC2780910D
:105A1000E80083FF1EC18091C6039091C7039A30AE
:105A200008F017C1E92FF0E0E056FF4C0C94BA2EB5
:105A3000803899F0823809F00CC18091CA038F70C8
:105A4000873008F006C18093E9008091EB0085FB68
:105A5000882780F91092E90006C08091C2039091D6
:105A6000C303911182609091E800977F9093E800C2
:105A70008093F1001092F1008091E8008E77E5C0EC
:105A8000882309F4D3C0823009F0E3C08091C803B1
:105A90008111D6C08091CA038F702FEF280F263056
:105AA00008F0D7C08093E9002091EB0020FFC8C028
:105AB000933031F48091EB0080628093EB00C0C0A2
:105AC0009091EB0090619093EB0021E030E001C0F9
:105AD000220F8A95EAF72093EA001092EA0080915B
