:100000000C94CB0D0C94E80D0C94E80D0C94E80DB9
:100010000C94E80D0C94E80D0C94E80D0C94E80D8C
:100020000C94E80D0C94E80D0C941F2D0C94F32DFA
:100030000C94DE260C94E80D0C94E80D0C94E80D5D
:100040000C94E80D0C94E80D0C94E80D0C94E80D5C
:100050000C94E80D0C9481270C94E80D0C94E80D99
:100060000C94E80D0C94E80D0C94E80D0C94E80D3C
:100070000C94E80D0C94E80D0C94E80D0C94E80D2C
:100080000C94E80D0C94E80D0C94E80D0C94E80D1C
:100090000C94E80D0C94E80D0C94E80D0C94E80D0C
:1000A0000C94E80D0C94E80D0C94E80D0000000091
:1000B0000000000000000000000000000000000040
:1000C0000000000000000000000000000000000030
:1000D0000000000000000000000000000000000020
:1000E0000000000000000000000000808040404050
:1000F00020202020201804020102040810202040A3
:1001000040808000000000000000000000000000AF
:1001100000000000000000000000000000000000DF
:1001200000000000000000000000000000000000CF
:1001300000000000000000000000000000000000BF
:1001400000000000000000000000000000000000AF
:100150000000000000000000000000000000003F60
:10016000C1010102020404040402020100000000B3
:10017000000000008000004080804000003030001F
:1001800000000001020404080810204080808080E4
:10019000404040402020202010101010080808087F
:1001A0000404040402020202010101010000000033
:1001B000000000000000000000000000000000003F
:1001C000000000000000000000000000000000002F
:1001D0000000000000000000000000000000E01827
:1001E0000601000000000000000000000080838382
:1001F000404040402021212010101010080808081D
:1002000004040404040830408080000001869860E3
:1002100000000000000000000000000000000000DE
:1002200000000000000000000000000000000000CE
:1002300000000000000000000000000000000000BE
:1002400000000000000000000000000080808080AE
:10025000404040402020202010101010080F0808B7
:1002600004040404020408101020204040414224E9
:100270001800000000000000000000000000000066
:10028000000000000000000000000101010000006B
:10029000000000000000000000000000000000005E
:1002A000000000000000000000000000000000004E
:1002B000000000000000000000000000000000003E
:1002C000000000000000000000000000000000002E
:1002D000000000000000000000000000000000001E
:1002E000000000000000000000000000000000000E
:1002F00000000000000000000000000000000000FE
:1003000000000000000000000000000000000000ED
:1003100000000000000000000000000000000000DD
:1003200000000000000000000000000000000000CD
:1003300000000000000000000000000000000000BD
:1003400000000000000000000000000000000000AD
:10035000000000000000000000000000000000009D
:1003600000000000000000000000808040404020AD
:1003700010080402010204081020408080000000E0
:10038000000000000000000000000000000000006D
:10039000000000000000000000000000000000005D
:1003A000000000000000000000000000000000004D
:1003B000000000000000000000000000000000003D
:1003C000000000000000000000000000000000002D
:1003D00000000000000000000000003FC101010219
:1003E00002040404040202010101000000000000F4
:1003F0000000008000008000006060000001020436
:100400000408081010202040808080804040404038
:1004100020202020101010100808080804040404EC
:1004200002020202010101010000000000000000C0
:1004300000000000000000000000000000000000BC
:1004400000000000000000000000000000000000AC
:1004500000000000000000000000C0300C0300009D
:100460000000000000000000008086864040404000
:100470002122222011111010080808080404040485
:100480000408304080800000018698600000000071
:10049000000000000000000000000000000000005C
:1004A000000000000000000000000000000000004C
:1004B000000000000000000000000000000000003C
:1004C000000000000000000080808080404040402C
:1004D0002020202010101010080F08080404040425
:1004E000020408101020204040414224180000005F
:1004F00000000000000000000000000000000000FC
:1005000000000000000001010100000000000000E8
:1005100000000000000000000000000000000000DB
:1005200000000000000000000000000000000000CB
:1005300000000000000000000000000000000000BB
:1005400000000000000000000000000000000000AB
:10055000000000000000000000000000000000009B
:10056000000000000000000000000000000000008B
:10057000000000000000000000000000000000007B
:10058000000000000000000000000000000000006B
:10059000000000000000000000000000000000005B
:1005A000000000000000000000000000000000004B
:1005B000000000000000000000000000000000003B
:1005C000000000000000000000000000000000002B
:1005D000000000000000000000000000000000001B
:1005E000000000000000808080804040201008044F
:1005F000020408102040808000000000000000007D
:1006000000000000000000000000000000000000EA
:1006100000000000000000000000000000000000DA
:1006200000000000000000000000000000000000CA
:1006300000000000000000000000000000000000BA
:1006400000000000000000000000000000000000AA
:10065000000000000000007E820202040408080876
:1006600008040402010100000000000000000080F6
:10067000000080000060600001010204040808100E
:10068000102020408080808040404040202020205A
:1006900010101010080808080404040402020202E2
:1006A0000101010100000000000000000000000046
:1006B000000000000000000000000000000000003A
:1006C000000000000000000000000000000000002A
:1006D000000000000000C0300C030000000000001B
:1006E00000000000008086864040404021222220F9
:1006F000111110100808080804040404040830400C
:10070000808000000186986000000000000000006A
:1007100000000000000000000000000000000000D9
:1007200000000000000000000000000000000000C9
:1007300000000000000000000000000000000000B9
:100740000000000080808080404040402020202029
:1007500010101010080F0808040404040204081004
:1007600010202040404142241800000000000000FA
:100770000000000000000000000000000000000079
:100780000000010101000000000000000000000066
:100790000000000000000000000000000000000059
:1007A0000000000000000000000000000000000049
:1007B0000000000000000000000000000000000039
:1007C0000000000000000000000000000000000029
:1007D0000000000000000000000000000000000019
:1007E0000000000000000000000000000000000009
:1007F00000000000000000000000000000000000F9
:1008000000000000000000000000000000000000E8
:1008100000000000000000000000000000000000D8
:1008200000000000000000000000000000000000C8
:1008300000000000000000000000000000000000B8
:1008400000000000000000000000000000000000A8
:100850000000000000000000000000000000000098
:1008600000008080808040402010080402040810AE
:100870002040808000000000000000000000000018
:100880000000000000000000000000000000000068
:100890000000000000000000000000000000000058
:1008A0000000000000000000000000000000000048
:1008B0000000000000000000000000000000000038
:1008C0000000000000000000000000000000000028
:1008D00000001C34C40404040808080808040402C6
:1008E0000101000000000000800000408080400006
:1008F0000030300001010202040404080810204006
:100900008080808040404040202020201010101027
:10091000080808080404040402020202010101019B
:1009200000000000000000000000000000000000C7
:1009300000000000000000000000000000000000B7
:1009400000000000000000000000000000000000A7
:100950000000E01806010000000000000000000098
:10096000008083834040404020212120101010103F
:1009700008080808040404040408304080800000CB
:1009800001869860000000000000000000000000E8
:100990000000000000000000000000000000000057
:1009A0000000000000000000000000000000000047
:1009B0000000000000000000000000000000000037
:1009C0008080808040404040202020201010101067
:1009D000080F080804040404020408101020204032
:1009E0004041422418000000000000000000000008
:1009F00000000000000000000000000000000101F5
:100A000001000000000000000000000000000000E5
:100A100000000000000000000000000000000000D6
:100A200000000000000000000000000000000000C6
:100A300000000000000000000000000000000000B6
:100A400000000000000000000000000000000000A6
:100A50000000000000000000000000000000000096
:100A60000000000000000000000000000000000086
:100A70000000000000000000000000000000000076
:100A80000000000000000000000000000000000066
:100A90000000000000000000000000000000000056
:100AA0000000000000000000000000000000000046
:100AB0000000000000000000000000000000000036
:100AC0000000000000000000000000000000000026
:100AD0000000000000000000000000808040404056
:100AE00020202020201804020102040810202040A9
:100AF00040808000000000000000000000000000B6
:100B000000000000000000000000000000000000E5
:100B100000000000000000000000000000000000D5
:100B200000000000000000000000000000000000C5
:100B300000000000000000000000000000000000B5
:100B400000000000000000000000000000060D3161
:100B5000C1010101020202040402020100000000BE
:100B60000000000080000040808040000030300025
:100B700000000001020404080810204080808080EA
:100B80004040404020202020101010100808080885
:100B90000404040402020202010101010000000039
:100BA0000000000000000000000000000000000045
:100BB0000000000000000000000000000000000035
:100BC0000000000000000000000000000000E0182D
:100BD0000601000000000000000000000080838388
:100BE0004040404020212120101010100808080823
:100BF00004040404040830408080000001869860EA
:100C000000000000000000000000000000000000E4
:100C100000000000000000000000000000000000D4
:100C200000000000000000000000000000000000C4
:100C300000000000000000000000000080808080B4
:100C4000404040402020202010101010080F0808BD
:100C500004040404020408101020204040414224EF
:100C6000180000000000000000000000000000006C
:100C70000000000000000000000001010100000071
:100C80000000000000000000000000000000000064
:100C90000000000000000000000000000000000054
:100CA0000000000000000000000000000000000044
:100CB0000000000000000000000000000000000034
:100CC0000000000000000000000000000000000024
:100CD0000000000000000000000000000000000014
:100CE0000000000000000000000000000000000004
:100CF00000000000000000000000000000000000F4
:100D000000000000000000000000000000000000E3
:100D100000000000000000000000000000000000D3
:100D200000000000000000000000000000000000C3
:100D300000000000000000000000000000000000B3
:100D400000000000000000000000000000000000A3
:100D50000000000000000000000080808040402073
:100D60002010080402040810102020404080800059
:100D70000000000000000000000000000000000073
:100D80000000000000000000000000000000000063
:100D90000000000000000000000000000000000053
:100DA0000000000000000000000000000000000043
:100DB0000000000000000000000000000000000033
:100DC00000000000000000000000003FC10101021F
:100DD000020484444442820101010000000000003A
:100DE00080000040808040000030300000000001A2
:100DF0000264180412C2CA2488F080804040404037
:100E000020202020101010100808080804040404F2
:100E100002020202010101010000000000000000C6
:100E200000000000000000000000000000000000C2
:100E300000000000000000000000000000000000B2
:100E400000000000000000000000E01806010000A3
:100E50000C03000218190005FE80838340404040C7
:100E60002021212010101010080808080404040490
:100E70000202020201010101000000000000000066
:100E80000000000000000000000000000000000062
:100E90000000000000000000000000000000000052
:100EA0000000000000000000000000000000000042
:100EB0000000000000000000808080804040404032
:100EC0002020202010101010080F0808040404042B
:100ED0000202020201010101000000000000000006
:100EE0000000000000000000000000000000000002
:100EF00000000000000000000000000000000000F2
:100F000000000000000000000000000000000000E1
:100F100000000000000000000000000000000000D1
:100F200000000000000000000000000000000000C1
:100F300000000000000000000000000000000000B1
:100F400000000000000000000000000000000000A1
:100F50000000000000000000000000000000000091
:100F60000000000000000000000000000000000081
:100F70000000000000000000000000000000000071
:100F80000000000000000000000000000000000061
:100F90000000000000000000000000000000000051
:100FA0000000000000000000000000000000000041
:100FB0000000000000000000000000000000000031
:100FC0000000000000000000000000000000000021
:100FD00000000000000080808040402020100804B5
:100FE0000204081010202040408080000000000013
:100FF00000000000000000000000000000000000F1
:1010000000000000000000000000000000000000E0
:1010100000000000000000000000000000000000D0
:1010200000000000000000000000000000000000C0
:1010300000000000000000000000000000000000B0
:10104000000000000000003FC1010102020404048E
:1010500004020201010100000000000080000040C5
:10106000808040000030300000000001026418045D
:1010700012C2CA2488F080804040404020202020B6
:1010800010101010080808080404040402020202E8
:10109000010101010000000000000000000000004C
:1010A0000000000000000000000000000000000040
:1010B0000000000000000000000000000000000030
:1010C000000000000000E018060100000000000021
:1010D0000000000000808383404040402021212008
:1010E0001010101008080808040404040202020288
:1010F00001010101000000000000000000000000EC
:1011000000000000000000000000000000000000DF
:1011100000000000000000000000000000000000CF
:1011200000000000000000000000000000000000BF
:10113000000000008080808040404040202020202F
:1011400010101010080F080804040404020408100A
:10115000102020404041422498C088888C9C1C1E4E
:101160000E0600000000000000000000000000006B
:10117000000000000000000000000000000000006F
:10118000000000000000000000000000000000005F
:10119000000000000000000000000000000000004F
:1011A000000000000000000000000000000000003F
:1011B000000000000000000000000000000000002F
:1011C000000000000000000000000000000000001F
:1011D000000000000000000000000000000000000F
:1011E00000000000000000000000000000000000FF
:1011F00000000000000000000000000000000000EF
:1012000000000000000000000000000000000000DE
:1012100000000000000000000000000000000000CE
:1012200000000000000000000000000000000000BE
:1012300000000000000000000000000000000000AE
:10124000000000000000000000000000000000009E
:101250000000808080404020201008040204081014
:1012600010202040408080000000000000000000AE
:10127000000000000000000000000000000000006E
:10128000000000000000000000000000000000005E
:10129000000000000000000000000000000000004E
:1012A000000000000000000000000000000000003E
:1012B000000000000000000000000000000000002E
:1012C0000000003FC1010102020484444442820143
:1012D000010100000000000080000040808040000C
:1012E0000030300000000001020404080810204013
:1012F000808080804040404020202020101010102E
:1013000008080808040404040202020201010101A1
:1013100000000000000000000000000000000000CD
:1013200000000000000000000000000000000000BD
:1013300000000000000000000000000000000000AD
:101340000000E018060100000C0300021819000557
:10135000FE80838340404040202121201010101047
:1013600008080808040404040408304080800000D1
:1013700001869860000000000000000000000000EE
:10138000000000000000000000000000000000005D
:10139000000000000000000000000000000000004D
:1013A000000000000000000000000000000000003D
:1013B000808080804040404020202020101010106D
:1013C000080F0808040404040202020201010101DA
:1013D000000000000000000000000000000000000D
:1013E000000000060F0F07030361F0F8FC60010125
:1013F000013C78F8F07000000000000000000000E0
:1014000000000000000000000000000000000000DC
:1014100000000000000000000000000000000000CC
:1014200000000000000000000000000000000000BC
:1014300000000000000000000000000000000000AC
:10144000000000000000000000000000000000009C
:10145000000000000000000000000000000000008C
:10146000000000000000000000000000000000007C
:10147000000000000000000000000000000000006C
:1014800000000000000000000000000020202020DC
:1014900020202000434150530057504D3A20000077
:1014A000002400250026002A00000021002200233D
:1014B00000290000001E001F0020002B00A800C112
:1014C000522700372228000000010001000100001F
:1014D0007C00000100010001005700000001000134
:1014E0000001005600597C0100010001002E00009F
:1014F00000010001000100010000000100010001E5
:1015000000010000000100010001000100010001D4
:1015100000010001000100000001000100010001C4
:1015200000000001000100010001000000010001B5
:1015300000010001000100010001000100010000A4
:10154000AE00AF00DA0281FFD9F1DB20A4A62EAFF6
:1015500000A0C0D30000A1C8D30000AED580A81F52
:10156000408D14200007087F0807003E5B4F5B3E5C
:10157000003E6B4F6B3E001C3E7C3E1C00183C7EC8
:101580003C18001C577D571C001C5E7F5E1C000031
:10159000183C180000FFE7C3E7FF000018241800FC
:1015A00000FFE7DBE7FF0030483A060E0026297906
:1015B000292600407F05050700407F05253F005A8A
:1015C0003CE73C5A007F3E1C1C0800081C1C3E7F68
:1015D0000014227F2214005F5F005F5F0006097F16
:1015E000017F00006689956A006060606060009419
:1015F000A2FFA2940008047E04080010207E2010A0
:101600000008082A1C0800081C2A0808001E1010E0
:101610001010000C1E0C1E0C0030383E3830000636
:101620000E3E0E060000000000000000005F0000FB
:1016300000000700070000147F147F1400242A7F95
:101640002A12002313086462003649562050000015
:101650000807030000001C224100000041221C007A
:10166000002A1C7F1C2A0008083E08080000807021
:101670003000000808080808000000606000002032
:1016800010080402003E5149453E0000427F4000E0
:10169000007249494946002141494D33001814124E
:1016A0007F10002745454539003C4A4949310041F2
:1016B0002111090700364949493600464949291E82
:1016C0000000001400000000403400000000081476
:1016D00022410014141414140000412214080002C2
:1016E00001590906003E415D594E007C1211127CE1
:1016F000007F49494936003E41414122007F414136
:10170000413E007F49494941007F09090901003EE6
:1017100041415173007F0808087F0000417F41006C
:10172000002040413F01007F08142241007F4040DB
:101730004040007F021C027F007F0408107F003EB3
:101740004141413E007F09090906003E4151215EA9
:10175000007F091929460026494949320003017FC3
:101760000103003F4040403F001F2040201F003F3A
:101770004038403F006314081463000304780403F6
:10178000006159494D4300007F4141410002040876
:10179000102000004141417F00040201020400408A
:1017A00040404040000003070800002054547840A7
:1017B000007F2844443800384444442800384444D6
:1017C000287F0038545454180000087E090200187D
:1017D000A4A49C78007F080404780000447D4000A5
:1017E000002040403D00007F102844000000417F61
:1017F0004000007C04780478007C080404780038F9
:101800004444443800FC182424180018242418FCEC
:10181000007C080404080048545454240004043F85
:101820004424003C4040207C001C2040201C003C04
:101830004030403C004428102844004C9090907C5C
:10184000004464544C440000083641000000007716
:101850000000000041360800000201020402003CC2
:101860002623263C00000000000000404040F0F825
:10187000F8FF38FFF8F83FF8F8FF38FFF8F8F040C5
:10188000404000000000000080C0C0C0800000C0D8
:10189000C08000000080C0C000C0C0000080C0C088
:1018A0000000000000C0C0C0C0C000C0C0000000F8
:1018B0000000000000000000000000000000000028
:1018C0000000000000000000000000000000000018
:1018D0000000000000000000000000000000000008
:1018E00000000000C0F0F8FC3E1E06010000007F72
:1018F0004141417F007F4141417F000080C0E07E47
:101900005B4F5BFEC00000C000DCD7DEDEDED7DC54
:1019100000C0000000000000000000000000000007
:101920000000000000000000000000494949FFFFDE
:10193000FFFFE0DFBFBF00BFBFDFE0FFFFFFFF49EA
:10194000494900000000001F3F6060E0BF1F007FAA
:101950007F071E381E077F7F007F7F0E1F3B716051
:1019600000000000007F7F0C0C0C007E7E007F7E5C
:101970000303007F7E03037E7E03037F7E000F3E12
:10198000703C063C703E0F00327B49493F7E007F31
:101990007E0303001E3F69696F26000000000000FF
:1019A00000000000030F1F3F3C7870600000007FC4
:1019B0004141417F007F4141417F00307B7F783052
:1019C000202030787F3B0003000F7F0F0F0F7F0F29
:1019D0000003000000000000000000000000000004
:1019E0000000000000000000000000010101070FDE
:1019F0000F7F0F7F0F0F7E0F0F7F0F7F0F0F0701DE
:101A000001010000000000000000000001010000D2
:101A100000000000000000000000000000000000C6
:101A200000000000000000000000000000000000B6
:101A300000000000000000000000000000000000A6
:101A40000000000000000000000000000000000096
:101A50000000000000000000000000000000000086
:101A60000000000000000000000000000000000076
:101A70000000000000000000000000000000000066
:101A80000000000000000000000000000000000056
:101A90000000000000000000000000000000000046
:101AA00000000000001003640075006D006200700B
:101AB00000610064000000160369006D00630068A7
:101AC000006900700077006F006F00640000000480
:101AD00003090409023B00020100A0FA0904000006
:101AE0000103010100092111010001224400070541
:101AF000810308000109040100010300000009211D
:101B000011010001223200070582032000011201A9
:101B1000000200000008AFDE13090100010200010D
:101B200005010980A101850319012AB700150126C5
:101B3000B700950175108100C0050C0901A1018550
:101B40000419012AA002150126A002950175108131
:101B500000C005010906A101050719E029E71500E4
:101B60002501950875018102950175088101050718
:101B7000190029FF150026FF00950675088100054C
:101B80000819012905150025019505750191029592
:101B90000175039101C011241FBECFEFDAE0DEBF53
:101BA000CDBF11E0A0E0B1E0E0E4F2E602C00590B4
:101BB0000D92AE3AB107D9F724E0AEEAB1E001C028
:101BC0001D92AB3FB207E1F70E943F1E0C94DF303D
:101BD0000C9400000E94B8248531E8F48091B10192
:101BE00090E0019665E070E00E94BA2F8093B10109
:101BF00024E030E0281B390B4CE752E0249FC00161
:101C0000259F900D349F900D11246CE772E0845550
:101C10009F4F0E94FC1F0E94B824853150F00E9403
:101C2000B824883230F46CE772E088E19DE00E94CD
:101C3000FC1F0E94B8248832D8F08091B00190E057
:101C40000196817099278093B00121E030E0281B34
:101C5000390B4CE752E0249FC001259F900D349F23
:101C6000900D11246CE772E08C56904F0E94FC1F7F
:101C700008951F93CF93DF93182FC62F0E94082239
:101C8000D82F882389F0111107C089EAC11109C032
:101C90008AEA0E94651108C0113031F4CC2349F062
:101CA0008BEA0E946511DC2F8D2FDF91CF911F9160
:101CB00008958CEAEECFCF93DF930E947121C82F55
:101CC000882309F452C00E94B824882309F451C023
:101CD0000E943C206091B6017091B7018091B801DB
:101CE0009091B9010E946527693C710581059105B4
:101CF00060F00E944A276093B6017093B701809309
:101D0000B8019093B9010E94EA0D0E944A2760939E
:101D1000B2017093B3018093B4019093B50160E078
:101D200080E00E94ED1E60E089E994E10E94EA1FD4
:101D30000E94B82460E30E944E1060E00E94CF1F12
:101D400060E080ED92E00E94CF1F0E94D625D82F40
:101D500061E080E00E94ED1E8CE894E1D1FF02C0BA
:101D600084E994E160E00E94EA1F8C2FDF91CF911B
:101D700008956091B2017091B3018091B401909186
:101D8000B5010E94652761367A4E8105910518F0EC
:101D90000E945621C4CF6091B6017091B701809125
:101DA000B8019091B9010E946527693C71058105D0
:101DB000910508F4B4CF0E944A276093B60170934E
:101DC000B7018093B8019093B9010E94EA0DA7CFA3
:101DD0008430B8F46430A8F4453098F450E095E0CD
:101DE000699F400D511D1124FA0194E1899FE00D76
:101DF000F11D1124EE0FFF1FE156FB4E85919491CA
:101E0000089581E090E008950E94E80E089581E031
:101E100008950E94070F089581E008950E94070F1A
:101E200008950E940E0F089508950E94140F0895BA
:101E3000A6E0B0E0EEE1FFE00C94373049835A832E
:101E40009E833091C40189819A8131111AC03E81EB
:101E5000332399F0222389F00E940715182F682F49
:101E600089819A810E94E31469817A81812F0E947D
:101E7000021C2696E3E00C9453300E94F514182FB0
:101E8000F3CF0E94071569817A81F1CFFC01262FDB
:101E90004081518162817381848195810E94180FF4
:101EA0000895CF93DF93EC0161E00E94460FBE01DD
:101EB0000E94090FDF91CF910895CF93DF93EC013A
:101EC00060E00E94460FBE010E94150FDF91CF9186
:101ED000089581E008950E94690F0895CF93C82F57
:101EE0000E94B8138C2F0E946B0F2FEF84E39CE0AD
:101EF000215080409040E1F700C00000CF9108954C
:101F000081E00E946E0F0E94A527089580E00E9444
:101F10006E0F0E94B62708950F931F93CF93DF9300
:101F20008C0161E00E94460FEC01F8018581882355
:101F300019F0CE010E94DB24B801CE010E94110FDE
:101F4000811106C080E0DF91CF911F910F9108951C
:101F5000B801CE010E9474248823A1F3B801CE01F8
:101F60000E943423882371F3B801CE010E940A2312
:101F7000882341F3F8018581882361F0C330FCE7B1
:101F8000DF07E9F058F4C115ECE7DE07A9F0C1302E
:101F9000DC47B9F0C8010E940C0FD5CFCB358CE7D8
:101FA000D807A9F0CC35ECE7DE0771F0CA35DC477D
:101FB00089F70E941E19EECF0E94800FC3CF0E94A6
:101FC00026190E94860FBECF0E941419E3CF0E94EB
:101FD0002219E0CF0E94BB260E9488100E94562141
:101FE00008950E948C100E94C02608952F923F925F
:101FF0004F925F926F927F928F929F92AF92BF9219
:10200000CF92DF92EF92FF920F93CF93DF931C0159
:1020100029013A016B0181E0C81AD108E101CC0D18
:10202000DD1D1882F12CE12C8AE0882E912CA12C48
:10203000B12CEC14FD0498F0C101DF91CF910F9108
:10204000FF90EF90DF90CF90BF90AF909F908F90D8
:102050007F906F905F904F903F902F900895C301B5
:10206000B201A50194010E94CE2F605D603319F486
:10207000E114F10431F0411451046104710409F4D4
:10208000602F6A93C301B201A50194010E94CE2F73
:1020900029013A018FEFE81AF80ACBCF0F939091FC
:1020A0000001981304C09091BE01961789F08093A7
:1020B00000016093BE01282F30E050E040E0062F81
:1020C00064E070E08AEB91E00E94F60F0F910895B2
:1020D0008AEB91E0FBCF089581E008950895CF93B6
:1020E000DF93D82F0E946C10C82F882319F08D2FF2
:1020F0000E946E108C2FDF91CF9108950895CF9399
:10210000C82F0E946B108C2F0E946F10CF910895E2
:1021100080E00E947F1008950E94C9250E947F10D0
:102120000895CF930E94C925C82F8091BF018C17B5
:1021300079F0C093BF010E944A276093C001709359
:10214000C1018093C2019093C3018C2F0E947F1024
:10215000CF910895ADE0B0E0E0EBF0E10C943830C1
:10216000488759876A877B878C879D8791110E9452
:1021700054181F8286E0FE013896DE011196019008
:102180000D928A95E1F78D8181110DC029813A81E7
:102190004B815C816D817E818F810E949E172D967F
:1021A000E2E00C945430CE0101960E94510F81114F
:1021B000EDCFF5CFFC012481213021F48081918184
:1021C0000E9439150895CF93C82F882399F08CEF7A
:1021D0008C0F813A88F48C2F0E944326882329F0A3
:1021E0008C2F0E9486260E94C3188C2F0E947E2668
:1021F0000E94C318CF91089580E28C0F883048F474
:10220000C77081E001C0880FCA95EAF70E943718AD
:10221000EFCFEBE5EC0FE33040F4F0E0E45BFE4F92
:10222000808190E00E94E425E5CFC85ACB3110F7B9
:10223000EC2FF0E0EE0FFF1FEA5EFE4F80819181F0
:102240000E940926D7CF882339F19CEF980F913A45
:1022500028F40E9486260E94C318089590E2980FE1
:10226000983050F4877091E001C0990F8A95EAF791
:10227000892F0E943D18EFCF9BE5980F933028F4EB
:1022800090E080E00E94E4250895885A8B3120F484
:1022900090E080E00E94092608951F93CF93DF937A
:1022A000182FEB010E94E310209739F4812F0E9430
:1022B0002311DF91CF911F9108958FE99FE001973E
:1022C000F1F700C000002197EFCF70E060E08933A4
:1022D00011F460E570E00E944D110895882321F00B
:1022E0000E9437180E94C3180895882321F00E9485
:1022F0003D180E94C3180895B0E0A0E0E2E8F1E1C3
:102300000C9431306C01D62FC72FFC01158106814A
:1023100002950F700E942D18E82E8823F9F0E12E07
:102320001123E1F08C2F807F803461F080E28D0FEB
:10233000883008F18C2F807E803221F4D230D8F0A2
:102340000023C9F08091DB0282FF15C082E00E9469
:10235000E8180E942D1891E0E82EE926BC2EB294D0
:102360009FE0B922FBE0FB15B8F1EB2DF0E0EF5157
:10237000FF4C0C940F30E12CF1CF0C2F0F70C07F6D
:1023800011F00295007F112399F0002359F080E2AB
:102390008D0F883010F0D11107C0802F0E943718A0
:1023A0000E94C3188D2F5AC0802F0E944718F8CF63
:1023B0008D2F0E942311002379F080E28D0F883049
:1023C00010F0D11104C0802F0E943D1803C0802F4F
:1023D0000E944D180E94C318EB2DE850FF0B349754
:1023E00020F40E94C9250E947F10EE2089F00E94EF
:1023F000291880FD0DC0F60115820E9423180E9445
:102400004114C6010E9483130E9423180E94511494
:10241000CDB7DEB7E9E00C944D302C2F2F70F22EA3
:10242000C07FC03219F0F29480EFF822DD2341F032
:10243000D130D1F1112309F444C00023F1F0B2CF1F
:102440008091DB0282FD15C0112359F0FF2029F095
:102450008F2D0E9437180E94C31880E00E94E3105D
:10246000BBCF80E00E942311FF2009F4B5CF8F2D50
:10247000ABCF112369F0011104C08F2D0E946E11A2
:10248000ABCF013009F0A8CF8F2D0E946B18A4CFDD
:102490000111A2CF8F2D0E9475118F2D0E947718E8
:1024A0008F2D0E945B1898CF112321F0033008F084
:1024B00093CFE3CF023008F08FCF8F2D0E9475119C
:1024C0008BCF0023D1F3D93349F43FEF87EE93E06C
:1024D000315080409040E1F700C000008D2F0E94F5
:1024E00023117ACF8C2F86958695837069F0813081
:1024F00009F072CF8D2F9C2F9370111102C080E0D4
:1025000090E00E94092668CF8D2F9C2F93701111A7
:1025100002C080E090E00E94E4255ECF8C2F8370A3
:10252000A1F5111159CF4D2F429546954770440F93
:10253000440F2D2F2F7030E0042E02C0220F331FC6
:102540000A94E2F790E080E0D4FF09C08FE090E0C9
:1025500002C0880F991F4A95E2F780959095C6951D
:10256000C695C370822B932BC23049F058F4C1300A
:1025700019F00E94111430CF0E9408142DCF0E9430
:102580001A142ACF0E94051427CF8695112311F023
:102590008C2F8170882309F41FCF4D2F42954695CB
:1025A0004770440F440F2D2F2F7030E0042E02C0CF
:1025B000220F331F0A94E2F790E080E0D4FF09C0B5
:1025C0008FE090E002C0880F991F4A95E2F780954E
:1025D0009095C695C695C370822B932BC23049F057
:1025E00058F4C13019F00E947C14F6CE0E94731486
:1025F000F3CE0E948514F0CE0E942914EDCECF7048
:10260000112329F08C2F0E9441148D2F37CF8D2F4D
:102610000E9475118C2F0E945114DECED23F41F1E1
:1026200060F4D03FB9F0D13F81F0112309F443C0E9
:102630000111B8CE8C2F8F711FC0D33F01F1D43F51
:10264000A1F78091DB0282FD24C08C2F8F711123B2
:1026500011F312C0112341F0023008F0BDCE8C2FCF
:102660008F710E946314B8CE033008F0B5CEF7CF57
:102670008C2F8F711111CFCF0E944114ADCE112339
:1026800029F08C2F8F710E943514A6CE0E94301431
:10269000A3CE112331F063E08C2F8F710E94CA18F2
:1026A0009BCE81E00E94E818023008F495CE82E0CB
:1026B0000E94E81891CE002359F0D93309F00ECFCB
:1026C000EFEFF7EE23E0E150F0402040E1F704CFD8
:1026D0008C2F8F71A0CF0F931F93CF93DF93EC01BB
:1026E000688179818D810E9444158C010E948E142D
:1026F0000E940414B801CE010E947C11DF91CF9199
:102700001F910F910895CF93DF93EC018C81882363
:1027100099F0CE010E948C0F811111C00E942D18DA
:10272000882351F08D81882339F08091DB0282FF6C
:1027300003C082E00E94E818DF91CF910895CE0196
:102740000E946B13CE010E945D0FF6CF90E080E0F7
:102750000E94E42590E080E00E9409260E9454181F
:102760000E94C31808950E948E260E94A613089501
:102770000E9444180E94B313089592959F7096305A
:1027800091F058F4925F9F70923058F4803F19F0A6
:1027900030F4883E30F481E008959A5FF4CF843FAE
:1027A000D1F380E00895883EB0F3813FD1F7F3CFB5
:1027B000FC012481222339F0808191810E94391506
:1027C0000E94BD13089580E00895A6E0B0E0EBEE0E
:1027D000F3E10C9438302696E2E00C945430A7E0F4
:1027E000B0E0E5EFF3E10C9438302796E2E00C948A
:1027F000543008950E94F91308950E94FA1390939B
:10280000D4018093D301089508950E94FD13089583
:102810002091D3013091D401822B932B0E94FD1380
:1028200008952091D3013091D401822393230E94F3
:10283000FD1308952091D3013091D401822793276D
:102840000E94FD1308950E94F91308950E94231415
:1028500008950E9426149093D2018093D101089587
:1028600090E080E00E942914089521E030E0A90161
:1028700002C0440F551F8A95E2F7CA010E9429142D
:10288000089521E030E002C0220F331F8A95E2F75D
:102890008091D1019091D201822B932B0E94291417
:1028A000089521E030E002C0220F331F8A95E2F73D
:1028B000209530958091D1019091D201822393236C
:1028C0000E942914089521E030E002C0220F331F36
:1028D0008A95E2F78091D1019091D20182279327C6
:1028E0000E94291408952091D1013091D201822BA8
:1028F000932B0E94291408952091D1013091D20187
:10290000822393230E94291408952091D1013091AC
:10291000D201822793270E94291408950895262F13
:10292000277091E001C0990F2A95EAF723E0769588
:1029300067952A95E1F7660F771F660F771FFA01F3
:10294000E60FF71F50E040E0682F70E08191DF0153
:1029500011979B01042E02C0369527950A94E2F741
:10296000217021952827292328272C934F5F5F4F1B
:102970004430510559F70895A82FA77023E0969584
:1029800087952A95E1F7880F991F880F991FFB01FA
:10299000E80FF91F50E040E080E0219130E00A2E7E
:1029A00002C0369527950A94E2F721703327042E4A
:1029B00001C0220F0A94EAF7822B4F5F5F4F443029
:1029C000510559F70895262F943070F4853060F43E
:1029D000682F70E085E0989F600D711D112445EC13
:1029E00051E0822F0E948F140895292F943068F4AB
:1029F000853058F490E065EC71E035E0239F800D60
:102A0000911D11240E94BC14089580E00895B0E047
:102A1000A0E0EDE0F5E10C9431307C010091D101B2
:102A20001091D2018091D3019091D401082B192BE0
:102A3000CFE0D0E0CC24C394D12CBC2EC6010C2E08
:102A400002C0880F991F0A94E2F780239123892BF3
:102A500049F4219790F7B12C8B2DCDB7DEB7E9E083
:102A60000C944D30B7018C2F0E940E1C019789F3F6
:102A7000F3CFCF93DF93EC010E940715BE010E94B4
:102A80000E1CDF91CF9108951F93CF93DF93EB013D
:102A90009091C401992339F0CB010E943915DF913F
:102AA000CF911F910895882369F0CB010E940715EB
:102AB000182F682FCE010E94E314BE01812F0E94BF
:102AC0000E1CEDCFCB010E94F514182FF6CF1F93EB
:102AD000CF93DF93C091D50117E08091D6018C137D
:102AE00004C0DF91CF911F910895D0E01C9FF001A9
:102AF0001D9FF00D1124E952FE4F2081318142814A
:102B000053816481758186810E94EF132196C7707D
:102B1000E4CF20910F0230911002409111025091A8
:102B200012026091130270911402809115020E94AA
:102B3000EF130895CF93DF9380911502807F09F002
:102B40004DC080911402882309F448C0E091D5015A
:102B50005091D601C0911002D0910F0260911102E4
:102B60007091120247E05E17C9F18E2F90E0E49F4A
:102B7000F0011124E952FE4F2481222391F1489F54
:102B8000F001499FF00D1124DF01A952BE4F1196AB
:102B90002C9111972C1325C02C912D1322C0159622
:102BA0002C91159721111DC012962D913C91261B39
:102BB000370B283C3105A8F4809115028F70806195
:102BC00080931502E352FE4F80818F708061808375
:102BD0008FE092E00E9483130E946715DF91CF91EE
:102BE0000895FC013196E770BECF482F2091D501A2
:102BF0009091D60157E0291302C080E0089530E09B
:102C0000529FF001539FF00D1124E952FE4F818134
:102C1000681306C08081481303C085818111EECFFF
:102C20002F5F3F4F2770E7CFA4E1B0E0EAE1F6E184
:102C30000C942E308C0186E0F801DE011F96019085
:102C40000D928A95E1F7F8018481E5809FE0A92E35
:102C500092E0B92E9091130291111FC08823D1F0F8
:102C6000EE20A9F0C8010E94D813F82E882379F02D
:102C700087E0F801D50101900D928A95E1F7C50131
:102C80000E94DA100E949A150E9489155FC0C8013F
:102C90000E948313FF24F39459C0C080D1808280A6
:102CA0009380F09014022091110230911202A4013D
:102CB000421B530BFF2009F4F9C0483C510508F0B2
:102CC000A7C0882309F442C0909110028091150298
:102CD000282F207F09F05CC09D1116C090910F0233
:102CE000C91212C0E1104EC08F708061809315022E
:102CF0000E9489158FE092E00E9483138091150253
:102D0000F8018683F12C22C0E1103CC06D2D8C2D82
:102D10000E94F5156D2D8C2D0E94F515E82E811160
:102D2000F1CFCF86D88A8F8598890E943915292FAF
:102D300022952F70243078F49F702230A8F09923C8
:102D4000B9F0F8019681907F99F4FE2C8F2D64964E
:102D5000ECE00C944A302A5F2F70223068F0C801F2
:102D60000E948313EF2CF1CF992311F0882369F38C
:102D7000805E883050F3F3CF803F38F3815F83303B
:102D800070F7E3CF80911502816080931502BACF6E
:102D90009D1113C090910F02C9120FC0E1100DC018
:102DA0008683C8010E94831387E0F801AFE0B2E098
:102DB00001900D928A95E1F767CFC8010E94D81360
:102DC000882309F464CFEE2009F461CF80911502C5
:102DD000803288F020910F023091100239872887C5
:102DE0009B868A86909113029C871D868E87CE01D2
:102DF00008960E94831387E0F801AFE0B2E00190EB
:102E00000D928A95E1F70E949A150E94891542CF8A
:102E100090911502292F207FA1F4682D9A8A898A22
:102E2000A6017A899E2D0E94E5138FE092E00E9410
:102E3000831387E0F50111928A95E9F70E948915BD
:102E400061CF882309F482CF809110028D1110C0C8
:102E500080910F02C8120CC0E1100AC09683C8010D
:102E60000E94831387E0F50111928A95E9F76ECFEE
:102E7000C8010E94D813882309F409CFEE2009F471
:102E800006CF80911502803208F4B5CF20910F0251
:102E9000309110023A8329839C828B829091130295
:102EA0009D831E828F83CE010196A3CF483C51059E
:102EB000B8F5882309F4EECEFE2CEE2009F4E7CE17
:102EC000809110028D111EC080910F02C8121AC08D
:102ED0008091150280FD0DC0982F907F51F0868360
:102EE000903F09F45ECF982F907F905F8F70892B71
:102EF00057CF87E0F801AFE0B2E001900D928A95DC
:102F0000E1F724CFC8010E94D813811174CF8091BA
:102F10001502816080931502C8010E94831316CFA9
:102F2000682D9A8A898AA6017A899E2D0E94E513C6
:102F300087E0F50111928A95E9F7A6CEAEE0B0E000
:102F4000E4EAF7E10C943730288739874A875B87B2
:102F50006C877D878E87CE0108960E941416882381
:102F6000B1F06C85662341F0288539854A855B85FB
:102F70007D858E850E94EF1317E08091D501909199
:102F8000D60189133DC02E96E3E00C94533087E0C0
:102F9000FE013896DE01119601900D928A95E1F7B7
:102FA0008C85882349F32091D60130E0C901019630
:102FB000877099274091D5014817190699F097E035
:102FC000929FD001939FB00D1124A952BE4FFE01D4
:102FD000319601900D929A95E1F78093D6010E9467
:102FE0006715CACF0E94B8131092D6011092D5016E
:102FF00087E0EFE0F2E0DF011D928A95E9F7BCCFB0
:10300000819FC001112489529E4F0E94141688236B
:1030100009F4B9CFE091D5011E9FF0011124E952C6
:10302000FE4F208131814281538164817581868187
:103030000E94EF138091D50190E001968770992747
:103040008093D5019ACF80911E02869586958695AC
:10305000089580911E028770089590911E029770C6
:1030600081E009F480E0089580912A02089590910A
:103070002A02892B80932A020895809590912A0232
:10308000982390932A02089510922A02089590910D
:103090002902892B80932902089580959091290215
:1030A0009823909329020895109229020895089573
:1030B0000E945718089590911F02292F282331F05C
:1030C0008095892380931F020E94581808950895BF
:1030D0000E946718089590912002292F282328170D
:1030E00029F0982B909320020E94681808959091DF
:1030F0002002292F282331F08095892380932002F4
:103100000E946818089580912002882329F0109267
:10311000200280E00E94681808950F931F93CF93B8
:10312000DF930091010110910201C0912A02809168
:103130002902C82B80912002882331F0C82B0E94DD
:103140002E2681110E948318F801C083C0910101CD
:10315000D091020148E050E066E172E0CE010E94A9
:103160007730892B59F088E0FE01A6E1B2E00190AA
:103170000D928A95E1F7CE010E94D925DF91CF917A
:103180001F910F9108950E948D18089508950E942F
:10319000C61808959091DB0292FF11C098E0899FB4
:1031A00090011124622B60931E020E9441148091B1
:1031B0001E028695869586950E94C71808950E94DE
:1031C0004114089510921E0280E00E94C7180895CD
:1031D00090911E028095892380931E02282F2770CC
:1031E00069F4891759F09091DB0292FF07C0869528
:1031F000869586950E9451140E94E2180895909138
:10320000DB0292FB222720F9281769F080FB92F954
:103210009093DB028091DA029091DB020E944719C1
:1032200082E00E94E81808958091DB0282FB8827E3
:1032300080F991E089270E94FF18089581E00E949B
:10324000FF18089580E00E94FF1808956FEF7FEF48
:1032500090E080E00E94C930089590E080E00E94F4
:10326000953021E0853E9E4F09F020E0822F0895A1
:1032700082E090E00E948D30089583E090E00E940B
:103280008D30089584E090E00E9495300895BC014F
:1032900084E090E00E94C9300895AB01BC018FE04A
:1032A00090E00E94BD300895AB01BC0183E190E045
:1032B0000E94BD30089560E070E0CB010E94541977
:1032C000089560E070E0CB010E944D190E945B19E7
:1032D0000895A8E0B0E0EFE6F9E10C94383065EE2F
:1032E0007EEF90E080E00E94C93060E082E090E0F4
:1032F0000E94AB3081E090E09093D4018093D301A1
:1033000061E083E090E00E94AB3060E074E184E033
:1033100090E00E94C93060E086E090E00E94AB300F
:1033200060E087E090E00E94AB3040E050E0BA01FE
:1033300088E090E00E94BD3060E083E290E00E946F
:10334000AB3060E08CE090E00E94AB3060E08DE05C
:1033500090E00E94AB3019821A821B821C821D826F
:103360001E821F82188648E050E067E170E0CE01BF
:1033700001960E949B3040E050E0BA018FE190E05E
:103380000E94BD300E9461192896E2E00C945430EE
:103390000E9469190895682F8EE090E00E94AB307A
:1033A0000895A6E0B0E0E7EDF9E10C9436300E9414
:1033B0003E278C0180912B0290912C02801791075F
:1033C00081F019821A820E943E27682F49815A8112
:1033D000792F80E090E00E94AA1010932C020093B5
:1033E0002B022696E4E00C9452300E944A27609308
:1033F000390270933A0280933B0290933C026093AF
:103400003502709336028093370290933802089504
:103410000E944A276093390270933A0280933B02DC
:1034200090933C0260933102709332028093330296
:10343000909334020895089508950E941B1A0895E8
:1034400008950E94201A089584E09DE10E94541E70
:103450000E941C1A0E941D1A089581E008950E947E
:103460002D1A08950E942D1A0895089508950E9416
:10347000351A0E94361A08950E942D19811102C032
:103480000E94C8190E94381980933D020E94421977
:103490009093DB028093DA020E943D1990E00E9433
:1034A00005148091D1019091D2010E9426140895B3
:1034B0000E9435270E94A1210E94AF1D0E943C1A44
:1034C0000E947E1080E00E94A11E0E94211A089591
:1034D000A6E0B0E0EEE6FAE10C942E300E942F1A3E
:1034E000C82E811111C00E94D119C12C0E94F02454
:1034F0000E940A22882309F45DC00E94081A0E94D3
:1035000073210E943C205AC00E94C51D8DE2A82E46
:1035100082E0B82E750110E0F70101917F01812F43
:103520000E940E1D1F5F143009F441C00817A1F35B
:1035300080913D0281FD0E94141D0E94321A982E36
:1035400010E088248394812F0E940E1D082FF5011E
:1035500081915F01081729F1F12CEE24E394D02E1C
:10356000D8268D2D8E21A9F0992099F0F9821A8301
:103570000E943E279C838B838D8291E0802F8E2139
:1035800009F490E049815A816B817C818D810E9490
:10359000AA10F394EE0CF5E0FF12E3CFF50131979A
:1035A00000831F5F143079F60E94F5199FCF08132E
:1035B000BFCF99CF0E947321C110A3CF0E94911059
:1035C0002696ECE00C944A301F93CF93DF930E9431
:1035D000131CEC01C11580E5D807F0F5C11580E496
:1035E000D80708F09CC0C03ED10520F5CD3CD105E0
:1035F00008F082C0C83AD10578F4C53AD10508F080
:1036000073C0C130D10519F1209709F1C430D1053B
:10361000F0F4D0E0C0E01BC0C33CD105D0F7C85ADD
:10362000D0E0CC0FDD1FC15BDE4F0990D881C02DEB
:10363000D4640DC0C11580E2D80708F0D1C0C1150F
:1036400081E0D80708F05AC0C83ED10510F7CE0176
:10365000DF91CF911F910895C03682E5D80718F504
:10366000C03482E5D80708F06BC0C03282E5D807C5
:1036700008F05FC0C11582E5D80708F497C02C2F69
:103680002695269580E2289F900111248C2F837027
:10369000C1E0D0E002C0CC0FDD1F8A95E2F7C22B5B
:1036A000D32BDD68D4CFC03A82E5D80760F4C038A8
:1036B00082E5D80708F459C0CF71D0E0DC2FCC27C1
:1036C000C46FD06AC4CFC03C82E5D80708F462C09A
:1036D000C03E82E5D80708F09CCFDC2FCC27CC2752
:1036E000DF71C06FD06AB3CFC55AD0E0CB57DE4F81
:1036F000C881D0E0D064ABCFD065A9CF8D2F0E9418
:10370000B51C182FCE0199270E94131CC12FD0E0A1
:10371000DC2FCC27CC27DF71C82BD92B98CFCE013B
:1037200099270E94131CCC27DF70C82BD92BD06A95
:103730008ECFCF71D0E0DC2FCC27C16FD06A87CF7E
:103740002C2F26952695277080E2289F9001112422
:103750008C2F8370C1E0D0E002C0CC0FDD1F8A95B2
:10376000E2F7C22BD32BDC6872CF2C2F269526953F
:10377000277080E2289F900111248C2F8370C1E074
:10378000D0E002C0CC0FDD1F8A95E2F7C22BD32B0D
:10379000DA685DCF8C2F8F710E94B51CC82FD0E0E6
:1037A000DC2FCC27CC27DF71D06251CF8C2F8F71CB
:1037B0000E94B51C55E0D695C7955A95E1F7CF7094
:1037C000D0E0DC2FCC27282F30E084FF05C044E078
:1037D000220F331F4A95E1F7C22BD32BD06937CF85
:1037E0008D2F8F710E94B51C182FCE0199270E9432
:1037F000131CC12FD0E0DC2FCC27CC27DF71C82BC6
:10380000D92BD2CF462F743030F4653020F4672F97
:103810000E94040F089590E080E008950E94021C29
:103820000E94E41A089582389105B9F1B0F4813309
:10383000910509F47DC048F48932910509F46DC001
:103840008A32910509F47BC008958533910509F406
:103850005FC08933910509F10895833E9105D9F13F
:1038600038F4803E910529F1823E910579F1089561
:10387000863E9105D9F1873E910509F43EC0843E0C
:10388000910541F52091DB0221FF24C08091DA02ED
:1038900084FD19C087EE90E008952091DA0223702C
:1038A00009F05AC02091DB0223FF14C089E290E0A6
:1038B00008952091DA0220FD38C03091DB0230FFFC
:1038C00009C024FF43C090E080E008952091DA020F
:1038D00022FDF7CF08952091DA0222FD3AC03091FF
:1038E000DB0230FD39C024FFF5CFEDCF2091DA02A5
:1038F00023FFF0CF24FDE7CFCDCF2091DA0223FDC7
:103900002EC03091DB0231FFEECF84EE90E00895BF
:103910002091DA0225FFDECFC9CF2091DA0225FD02
:1039200021C02091DB0223FFD5CF89E390E0D2CFE5
:103930002091DA0226FFCECF8AE290E0089520910E
:10394000DA0226FFC7CF81E390E0089583EE90E08E
:10395000089582EE90E0089580EE90E0089586EE5E
:1039600090E0089585E390E008959091DA0292FF47
:1039700010C041E0282F2471243009F040E031E0EC
:10398000282F2871283009F030E0431711F02CE07F
:10399000822793FF10C041E0282F2471243109F0C1
:1039A00040E031E0282F2871283109F030E043173A
:1039B00011F02CE082273091DB0230FF10C051E083
:1039C000282F2171213009F050E041E0282F287183
:1039D000283009F040E0541711F029E0822731FF28
:1039E00010C041E0282F2171213109F040E031E081
:1039F000282F2871283109F030E0431711F029E011
:103A0000822794FD877E089580E0089508950E949E
:103A1000061D089508950E940A1D0895E82FF0E0FC
:103A2000E052FD4F80810895089580EA8A95F1F76C
:103A3000089500C008950E94151D0895F894E82F78
:103A4000E295EF70F0E031A1282F2F7081E090E037
:103A500001C0880F2A95EAF7982F9095932391A398
:103A600092A1892B82A378940895CF93DF9384EF5A
:103A70000E941E1D85EF0E941E1D86EF0E941E1DC6
:103A800087EF0E941E1DC8E8D1E089918F3F11F099
:103A90000E941E1D81E0CD38D807B9F7DF91CF9184
:103AA0000895B0E0A0E0E7E5FDE10C943230EC01D0
:103AB000D62E062F10E0C80183579E4F7C01FC01D3
:103AC00080818F3F09F444C0F894E82FE295EF70AD
:103AD000F0E091A18F7021E030E001C0220F8A95C3
:103AE000EAF7892F822B81A382A12095282322A384
:103AF00078940E94191DE8E8F1E031E0C12C219191
:103B00002F3F59F1A22FA295AF70B0E090968C9103
:103B100090E02F7002C0959587952A95E2F780FD79
:103B20001CC0832FC82A330F81E0ED38F80739F71E
:103B3000F70180818F3F11F00E941E1D61E0C110CE
:103B400001C060E08D2D0E941B1DC00FD11FC882D7
:103B5000CDB7DEB7E8E00C944E3080E0E3CF0E94B2
:103B6000351D84E0E0EEF2E0DF01982F1D929A957A
:103B7000E9F7ECEDF2E0DF011D928A95E9F784E0C8
:103B80000E94021E0E94071D0895A4E0B0E0EBEC25
:103B9000FDE10C94373019821A821B821C8210E0DE
:103BA000612FCE0101960E94511D1F5F1430C1F795
:103BB00044E050E0BE016F5F7F4F8CED92E00E94C9
:103BC000773021E0009709F420E0892B61F08981AA
:103BD0009A81AB81BC818093DC029093DD02A0933B
:103BE000DE02B093DF0244E060EE72E08CED92E022
:103BF0000E94031E182F0E940B1D812F2496E3E0C4
:103C00000C9453300895B0E0A0E0E9E0FEE10C949C
:103C100032306C017B01042FC22F222379F081E026
:103C2000809340020E943E2790933F0280933E0281
:103C300080E0CDB7DEB7E8E00C944E30D091400282
:103C4000DD23B1F380913E0290913F020E945627FE
:103C5000059770F310E0A801B601C7010E94773004
:103C6000892B31F0A801B601C7010E948430CD2F05
:103C7000109240028C2FDDCF0E94681A08950E9496
:103C8000D7260E94562A0E94241A0E94702A0E9457
:103C9000581A0E947D2A0E94822A0E943C1E0E947D
:103CA0009C2A0E94371AF7CF9093AF018093AE0100
:103CB0000895AB0124E630E0BC0188E70E94472864
:103CC00021E0892B09F020E0822F0895AB0124E642
:103CD00030E0BC0188E70E948B2821E0892B09F0A5
:103CE00020E0822F08950F931F939B0104E610E0BC
:103CF000AC0160E488E70E94D12821E0892B09F01B
:103D000020E0822F1F910F9108950E94132808959B
:103D100008950E94881E0895E4EEF2E080E092E0AB
:103D2000DF019C011D9221503040E1F7F093E9043E
:103D3000E093E8048FEF9FEF90936D0280936C0205
:103D40000895CF930E94881E0E94891E8093680266
:103D500080FD11C080E8809367020E94851E6BE0A1
:103D600070E08AE595E10E94661E811106C0C0E000
:103D70008C2FCF91089580E2EECF8091680265E0AC
:103D800070E081FD27C085E595E10E94661E8823CD
:103D900071F36DE070E083E495E10E94661EC82F28
:103DA000882329F30E944A27605A75418F4F9F4FFD
:103DB0006093E4047093E5048093E6049093E70431
:103DC0000E948C1E81E080936B0280936A021092A5
:103DD0006902CECF80E595E1D8CF2091670236E029
:103DE000839FC0011124629F800D911D11248115B4
:103DF00022E0920714F090E080E08C519D4F909368
:103E0000E9048093E80408952091E8043091E904DE
:103E10002E5D324040916702642F70E0C9010E941C
:103E2000A62F481B463010F4240F311D211582E0C7
:103E3000380710F030E020E02C513D4F3093E9047A
:103E40002093E80408951F93CF93DF93162F8A30B1
:103E500039F481E00E949C1FDF91CF911F9108955A
:103E60008D3011F480E0F6CFC091E804D091E904E0
:103E700096E0FE01A1E4B2E001900D929A95E1F77F
:103E8000803EB8F086E0FE0111928A95E9F71111A3
:103E90001CC0C091E804D091E90446E050E0BE01A6
:103EA00081E492E00E947730892BE9F40E94041F9C
:103EB000D3CFF6E08F9FB00111246B597A4E46E0C4
:103EC00050E0CE010E946E30E2CFE091E804F09124
:103ED000E9049F012A5F3F4F2E173F07D1F28081EF
:103EE00080958193F9CFC45ED240CE0125E09695AE
:103EF00087952A95E1F721E030E0A90102C0440F3F
:103F0000551F8A95E2F7CA0140916C0250916D02EB
:103F1000842B952B259645E0D695C7954A95E1F7D4
:103F200002C0220F331FCA95E2F7822B932B909386
:103F30006D0280936C02BACFCF93382FE091E804E2
:103F4000F091E904E45EF24020916702622F70E094
:103F5000CF010E94A62F281B822F332369F066E031
:103F60000E949A2FC82FC15010F4CF91089560E09D
:103F700080E20E94231FF7CF9F01280F311D2115DA
:103F8000324018F080E0F0E0E0E08E0F9F2F911DAE
:103F90008C519D4F9093E9048093E804E6CFFF9203
:103FA0000F931F93CF93DF93EC01F62EFC0101904A
:103FB0000020E9F78F0101501109C017D10728F03F
:103FC000CDB7DEB7E5E00C9451306F2D89910E949A
:103FD000231FF3CF1F93CF93DF93EC01162FFE0126
:103FE0008491811104C0DF91CF911F910895612FB9
:103FF0000E94231F2196F3CFCF93DF932091E804F3
:104000003091E904245E3240A901460F571F413028
:10401000524020F060E072E0621B730B40916C0232
:1040200050916D02FC01C901620F731FC1E0D0E025
:104030008617970738F050936D0240936C02DF911A
:10404000CF9108952491DC01AC51BD4F3C913217C2
:1040500081F02C939C01A5E036952795AA95E1F770
:10406000DE0102C0AA0FBB1F2A95E2F79D014A2B71
:10407000532B01963196DCCF80916B02811103C0E6
:1040800080916A0208950E944A27605A75418F4FB5
:104090009F4F6093E4047093E5048093E60490934B
:1040A000E70480916A028111EBCF62E070E081E465
:1040B00095E10E94661E882319F381E080936A02CD
:1040C000DFCFA6E0B0E0E7E6F0E20C942830182F4E
:1040D00080916C0290916D02892B09F180916B02A5
:1040E0008823E9F080916902811119C00E943C2067
:1040F0001C821B8222242394312C03E069E9E62EE2
:1041000061E0F62E77E0672E80916C0290916D024F
:10411000009729F0BC81BB2349F0111107C02696F6
:10412000E2E10C9444302B812F5F2B833B81C32E23
:10413000D12C210102C0440C551C3A95E2F79201A2
:1041400028233923232B79F38091680280FD3EC018
:104150008B818295880F8076809305019601369534
:1041600027953695279520930801815E8093060157
:104170002093090167E070E083E091E00E94591EFE
:10418000882369F2C60135E0880F991F3A95E1F757
:104190002091680220FD28C060E270E08C519D4FA4
:1041A0000E94731E882309F4BACFC20180959095AE
:1041B00040906C0250906D024822592250926D023C
:1041C00040926C024C814F5F4C839ECF8B81880F55
:1041D000880F880F8093050110920801895F8093F2
:1041E000060100930901C6CFA7E4B2E0E0E21D9208
:1041F000EA95E9F725E931E03E832D8321E9C22ED6
:1042000021E0D22EAD81BE816D91BE83AD83F601DA
:1042100021916F01280F392F311DA9014C515D4F9C
:104220005A834983E62FF0E0E95BFD4F30E020E060
:10423000762C721A922C022E01C0990C0A94EAF77D
:1042400069817A81A12CDB01BD90BD01B920472D88
:104250004A194770842E042E000C550BBB2D01C04B
:10426000BB0F8A94EAF78B2E5195419551094770FF
:10427000552701C0B6944A95EAF78B28B0808B2861
:104280008082A39448E0A412DECF2F5F3F4F319687
:104290002830310569F6AD81BE81EA16FB0609F0CA
:1042A000B1CF60E270E087E492E07ACF80916A0259
:1042B00090916B02911103C091E0892708958823A2
:1042C00069F062E070E08FE395E10E94661E811163
:1042D00003C080916A02089510926A0280916A0276
:1042E000EBCF81E008950F931F9380916B02882399
:1042F00011F160E080E00E94ED1E0E945B0E80E004
:104300000E94612080916A028823A9F00E944A27B6
:104310000091E4041091E5042091E6043091E70453
:10432000601B710B820B930B6F3F7F4F8F4F9F472B
:1043300010F40E9456211F910F9108950E942D1A8A
:104340000895EFE6F2E088E0DF011D928A95E9F733
:104350000E94B1220895FC01228130E02F5F3F4F7F
:1043600023703327938181E09217130609F080E0D0
:1043700008950F931F93CF93DF93EC01162F042F13
:104380000E94AB21811117C08A81FE01E80FF11D47
:104390001F7764816078612B00FB67F964838F5F0E
:1043A00083708A8388818F5F888381E0DF91CF91DA
:1043B0001F910F91089580E0F9CFFC01A3818281C4
:1043C0008A17B1F0AE0FBF2FB11D14968C9187FBE9
:1043D000992790F98F77DB018C93DA019C93838185
:1043E0008F5F8370838381818F5F818381E00895F4
:1043F00080E00895462F682F8FE692E00E94B92151
:104400000895AB01BC018FE692E00E94DD21089582
:1044100081E00895A2E0B0E0E0E1F2E20C943630F1
:1044200080916E02882351F010926E028091710289
:104430008093720280916F02809370020E94F0223A
:104440000E949E21182F882389F010E005C0698101
:104450008A810E94390E102FBE016F5F7F4FCE01FF
:1044600002960E940122082F8111F1CF812F2296FE
:10447000E4E00C9452308FE891E00197F1F700C02E
:104480000000089590E06623E9F087559E4FFC01F7
:1044900080818F3FB1F0E82FE295EF70F0E041A10D
:1044A0008F7021E030E0B90102C0660F771F8A9556
:1044B000E2F7CB01962F9095942391A392A1892B9B
:1044C00082A3089585559E4FE2CF90E06623A1F028
:1044D00087559E4FFC0120812F3F89F0E22FE29506
:1044E000EF70F0E080A190E02F7002C09595879565
:1044F0002A95E2F78170089585559E4FEBCF80E0B5
:1045000008950895CF93DF93C0E080917702C81794
:1045100060F00E943B22C0E080917702C81778F0DB
:104520000E948122DF91CF91089560E08C2F0E943C
:10453000422261E08C2F0E944222CF5FE6CF60E0F2
:104540008C2F0E946522D82F61E08C2F0E9465225B
:10455000EC2FF0E0E658FD4F880F8D2B8083CF5F66
:10456000DBCF82E0809377020E94822208951F931E
:10457000CF93DF93182FE42FEE0F6E2BC82FD0E0D0
:10458000DE01A658BD4FEC918E2F8370681721F184
:10459000EE0FEE0FE62BEC93EF70F0E0E756FE4FD8
:1045A000C858DD4F80819881890F8883843024F03A
:1045B00060E0812F0E94FA2188818D3F24F461E020
:1045C000812F0E94FA218881082E000C990B64E04B
:1045D00070E00E94BA2F8883DF91CF911F910895D8
:1045E000CF93DF93C0E080917702C81718F0DF9176
:1045F000CF91089561E08C2F0E946522D82F60E052
:104600008C2F0E9465224D2F682F8C2F0E94B7227D
:10461000CF5FE9CFCF93DF93EB0186319C4711F554
:104620000E9434189D81992399F08A7A91E009F4C7
:1046300090E090937C02811109C089E20E947E265D
:104640000E94C31880E0DF91CF91089585E3F6CFF3
:1046500080917C02811104C089E20E948626F0CFFD
:1046600085E3FBCF81E0EFCFCF93DF93EC01FB013C
:104670008581882309F4D2C09E0130572332310549
:1046800008F0B2C00E9442199093DB028093DA02D4
:10469000FE01E150F047E232F10520F4E351FF4C16
:1046A0000C940F308091DA0281608093DA0293C01B
:1046B0008091DB0288608093DB028DC08091DA02FA
:1046C0008260F3CF8091DA028460EFCF8091DA02CA
:1046D0008860EBCF8091DB028160EDCF8091DB02BF
:1046E0008260E9CF8091DA028061DFCF8091DA02C7
:1046F0008062DBCF8091DA028064D7CF0E94B8134A
:104700008091DA028068D1CF8091DA028C60CDCFBF
:104710008091DB028360CFCF8091DA028E7FC5CF9C
:104720008091DB02877FC7CF8091DA028D7FBDCF7A
:104730008091DA028B7FB9CF8091DA02877FB5CF83
:104740008091DB028E7FB7CF8091DB028D7FB3CF6C
:104750008091DA028F7EA9CF8091DA028F7DA5CF7A
:104760008091DA028F7BA1CF0E94B8138091DA0288
:104770008F779BCF8091DA02837F97CF8091DB0286
:104780008C7F99CF8091DA0282FB992790F921E002
:10479000922790FB82F990FB83F987CF8091DB020F
:1047A000982F909591708E7F892B90FB81F983CF04
:1047B0009091DA02892F8F7B96FF806476CF0E94DA
:1047C000B8139091DA02892F97FB87F980586DCF43
:1047D00081E00E94CB198091DA029091DB020E9465
:1047E00047190E94B81380E0DF91CF91089580E0CF
:1047F000F0CF9091DA02892F8F7E94FF806155CFA0
:104800009091DA02892F8E7F90FF81604ECF909138
:10481000DB02892F877F93FF88604DCF81E0E4CF53
:104820000F931F93CF93DF93C42FD22FFC01858169
:104830008823C9F040937F020E943E2790937E0216
:1048400080937D0280E28C0F883040F4C77081E055
:1048500001C0880FCA95EAF70E946E11DF91CF91CF
:104860001F910F91089510917F02141332C080910F
:104870007D0290917E020E945627883C910548F562
:10488000C0E2CD0F1D17B9F080E2810F883040F4EF
:10489000177081E001C0880F1A95EAF70E94751120
:1048A000C83048F481E09D2F977001C0880F9A9519
:1048B000EAF70E946E11802F0E946511C83070F6D1
:1048C000D77081E001C0880FDA95EAF70E94751170
:1048D000C5CF80E28C0F883008F6C77081E001C038
:1048E000880FCA95EAF7F2CF0F93DB0188519C47F6
:1048F00087309105A0F5FC01E15FFE4C0C940F3070
:1049000006E221EE41EE6AE17CE7CD010E9410242F
:1049100080E00F91089507E225EE45EE6BE17CE71C
:10492000F4CF06E221EE40EE68E17CE7EECF07E24D
:1049300025EE44EE69E17CE7E8CF06E221EE42EEA7
:104940006CE17CE7E2CF07E225EE46EE6DE17CE725
:10495000DCCF08E221E045EE6EE17CE7D6CF15968C
:104960008C91882319F010927F02D3CF81E0D1CFB0
:104970008091BD0208959C013A9521153F4478F439
:1049800099279C01245031092432310578F02752AF
:10499000310981E02E30310550F080E008958F3FDD
:1049A000910579F370F390E080E0EBCF81E008951A
:1049B0000E94BB2408950E94D824882381F0E091AE
:1049C0008602F0E0EE0FFF1FE957FD4F80819181D5
:1049D0008F3F2FE7920719F0019691838083089506
:1049E0008F929F92AF92BF92CF92DF92EF92FF92FF
:1049F000CF93C0908702D09088020D2C000CEE0857
:104A0000FF0820910A0130E0E7E8F2E081E090E061
:104A10003296281739070CF0A7C06091B90270913F
:104A2000BA028091BB029091BC020E9465274B01A3
:104A30005C01C0910A0189EC88169104A104B104BB
:104A400014F18091860290E0019669E170E00E9485
:104A5000BA2F80938602880F991FFC01E957FD4FFA
:104A6000118210828C2FC83108F087E18F5F80930C
:104A70000A010E944A276093B9027093BA02809398
:104A8000BB029093BC0282E0C816D104E104F10499
:104A90000CF476C0A0E6BAEEA70196010E9415308C
:104AA0006B017C0188ECC89F90011124032E000C3F
:104AB000440B550B280D391D4A1D5B1DA5E0B0E0C8
:104AC0000E9415309B01AC01C701B6010E94CE2F98
:104AD00069017A0181EFC816D104E104F1042CF0D8
:104AE00080EFC82ED12CE12CF12C609182027091C4
:104AF000830280918402909185020E9465274B0178
:104B00005C0185E688169104A104B10484F00E943A
:104B10004A27609382027093830280938402909369
:104B200085028091BD0280938102C0928002C09173
:104B30008102A0918002AC1BBB0BA50194010E94D5
:104B4000203024E630E040E050E00E94F02FC20F19
:104B5000C093BD02CF91FF90EF90DF90CF90BF90B8
:104B6000AF909F908F90089540815181052E000C49
:104B7000660B770BC40ED51EE61EF71E019648CFB6
:104B8000C12CD12C7601B1CF9093C3028093C20285
:104B90000895E091C202F091C302309729F001908C
:104BA000F081E02D0995089580E008950E94C925BF
:104BB0000895E091C202F091C302309721F0028083
:104BC000F381E02D09950895A3E0B0E0EAEEF5E267
:104BD0000C9438302091C0023091C1022817390757
:104BE000A1F09093C1028093C002E091C202F091C3
:104BF000C302309751F023E029839B838A8300848A
:104C0000F185E02DCE01019609952396E2E00C9402
:104C10005430A3E0B0E0EFE0F6E20C94383020919D
:104C2000BE023091BF0228173907A1F09093BF024E
:104C30008093BE02E091C202F091C302309751F01E
:104C400024E029839B838A830084F185E02DCE01B3
:104C5000019609952396E2E00C94543040910101AD
:104C6000509102019A012E5F3F4F485F5F4F80E0F5
:104C70002417350709F40895F90191919F019923AB
:104C8000B9F38F5FF5CF882371F020910101309146
:104C90000201F9013296285F3F4F9191981729F050
:104CA000E217F307D1F780E0089581E008959C01B1
:104CB000FC0132969FEF80E04191461751F09F3FF3
:104CC00019F4411101C0982F8F5F8630A9F79F3FDB
:104CD00009F40895290F311D97FD3A95F901628372
:104CE0000895FC01329608962191261303C0DF0136
:104CF00011971C92E817F907B9F70895682F80916A
:104D00000101909102010E9457260895682F809119
:104D10000101909102010E9471260895E091010124
:104D2000F0910201329686E0DF011D928A95E9F743
:104D3000089508950E9499260895811106C081E082
:104D40008093C4020E949A26089582E0F9CF83E0FE
:104D50008093C4020E949A2608950E949D26089579
:104D600081E08093C4020E949A2608950E94B02692
:104D70000895089508950E94BA2608950895089503
:104D80000E94B9260895CF930E94BE260E94C51D99
:104D90000E94BF26C0E08C2F0E940E1D811105C00D
:104DA000CF5FC430C1F7CF91089581E0FCCF85B7C4
:104DB000806885BF85B7806885BF08951F921FB63C
:104DC0001F9211248F939F93AF93BF938091C5023D
:104DD000811113C08091EA049091EB04A091EC043E
:104DE000B091ED044196A11DB11D8093EA0490930A
:104DF000EB04A093EC04B093ED04BF91AF919F91AD
:104E00008F911F901FBE1F9018958091F2048430DF
:104E100031F10E94EA0F1092C50288E190E020E48F
:104E20000FB6F894A895809360000FBE20936000A1
:104E300083B7817F846083BF83B7816083BF7894A9
:104E4000889583B78E7F83BF0FB6F894A89580911D
:104E50006000886180936000109260000FBE08952A
:104E60000E94B8130E94F10F089582E084BD93E080
:104E700095BD9AEF97BD80936E0008952FB7F89473
:104E80008091EA049091EB04A091EC04B091ED04C0
:104E90002FBF08952FB7F8946091EA047091EB0446
:104EA0008091EC049091ED042FBF08959C014FB7C1
:104EB000F8948091EA049091EB04A091EC04B091F5
:104EC000ED044FBF821B930B0895CF92DF92EF92B8
:104ED000FF922FB7F894C090EA04D090EB04E090D2
:104EE000EC04F090ED042FBFA7019601261B370BB1
:104EF000480B590BCA01B901FF90EF90DF90CF909A
:104F0000089578941F921FB61F9211248F939F9338
:104F1000AF93BF938091EA049091EB04A091EC04CD
:104F2000B091ED040196A11DB11D8093EA04909308
:104F3000EB04A093EC04B093ED04BF91AF919F916B
:104F40008F911F901FBE1F90189587E797E790934A
:104F500001088093000888E19AE00FB6F894A895BC
:104F6000809360000FBE90936000FFCF88E19AE0CD
:104F70000FB6F894A895809360000FBE90936000E0
:104F8000FFCFEF92FF920F931F93CF93DF93182FD2
:104F9000EB011092BC0084EA8093BC000E943E2783
:104FA0007C018091BC0087FF27C08091B900887F79
:104FB000883029F08091B900887F803189F510937D
:104FC000BB0084E88093BC000E943E278C01809146
:104FD000BC0087FF1EC02091B900287F90E080E0D0
:104FE000283191F081E090E0203411F490E080E0ED
:104FF00091958195910908C0C7010E945627C8174D
:10500000D90778F68EEF9FEFCDB7DEB7E6E00C94C8
:105010005030C8010E945627C817D907C0F6F2CFF2
:105020008FEF9FEFF1CF1092B9008CE08093B80022
:1050300008950F931F93CF93DF93EB018093BB00F1
:1050400084E88093BC000E943E278C018091BC00C4
:1050500087FF11C02091B900287F81E090E02832BD
:1050600011F490E080E0919581959109DF91CF91C5
:105070001F910F910895CF3FDC0741F3C8010E94B3
:105080005627C817D90710F78EEF9FEFEFCFB0E084
:10509000A0E0EDE4F8E20C942D30782E5B016A017B
:1050A00089010E943E274C01C1E0D0E00431110586
:1050B00058F0C5E0D0E00F3F100731F0C80164E1BF
:1050C00070E00E94A62FEB01BE01872D0E94C12730
:1050D0007C0197FF09C00F3F1007B1F3C4010E9484
:1050E00056270817190780F7E501CA0CDB1CCC15F9
:1050F000DD0511F0F7FE09C084E98093BC00C7010B
:10510000CDB7DEB7EDE00C944930B80189910E942B
:1051100019287C01ECCFB0E0A0E0E1E9F8E20C94C2
:105120002D30782E5B016A0189010E943E274C01D7
:10513000C1E0D0E00431110558F0C5E0D0E00F3FE8
:10514000100731F0C80164E170E00E94A62FEB0166
:10515000BE01872D0E94C1277C0197FF09C00F3F28
:105160001007B1F3C4010E9456270817190780F7EA
:10517000E501CA0CDB1CCC15DD0511F0F7FE09C0FA
:1051800084E98093BC00C701CDB7DEB7EDE00C9495
:105190004930FE018491B8010E9419287C012196B2
:1051A000EACFB0E0A0E0E7EDF8E20C942C30682EF6
:1051B000762E5A0169010E943E274C01C1E0D0E0E1
:1051C0000431110558F0C5E0D0E00F3F100731F071
:1051D000C80164E170E00E94A62FEB01BE01862D9C
:1051E0000E94C1277C0197FF1DC00F3F1007B1F33C
:1051F000C4010E9456270817190780F784E9809395
:10520000BC00C701CDB7DEB7EEE00C944830B80162
:1052100089910E9419287C01CC16DD0679F3F7FEEE
:10522000F6CFECCFB801872D0E9419287C01E5014B
:10523000CA0CDB1CF1CF8091CE0208950895089529
:105240009B01BA019091F2049430E9F48F7080933D
:10525000E9009FEF8091E800915085FD06C085ED43
:105260008A95F1F700009111F5CF8091E80085FF54
:105270000AC050E040E0C9010E94132B8091E80071
:105280008E778093E800089543E050E0BC0182E00F
:105290000E9420290895CF93DF93EC0148E050E06D
:1052A000BC0181E00E94202988E0FE01A6ECB2E06A
:1052B00001900D928A95E1F7DF91CF910895809149
:1052C000F104811109C00E94A32C0E94002D80913D
:1052D000E20084608093E20008951092F104089542
:1052E0000E94B02608956091EE0481E0611101C032
:1052F00080E00E94A72608959091F20481E0943006
:1053000009F080E06091EE040E94AD26089542E02D
:1053100061EC81E00E941F2C42E261EC82E00E947D
:105320001F2C9091F20481E0943009F080E06091AC
:10533000EE040E949D2608958091F404833009F4C0
:1053400061C030F48130D1F1823009F49EC00895FB
:105350008A3009F48AC08B3009F46FC0893009F0B3
:1053600050C08091F304813209F04BC08091F70462
:105370009091F804029708F044C08091E800877F7C
:105380008093E8008091E80082FF37C09091F3009D
:105390008091F200029731F48091F100813011F098
:1053A000863021F48091F1008093CE028091E80054
:1053B0008B778093E8000E94532C23C08091F304E4
:1053C000813AF9F48091E800877F8093E80080912A
:1053D000F7049091F804892B61F468E086EC92E080
:1053E00070E00E94622B8091E8008B778093E80048
:1053F000089560E090E080E0F3CF8091F2048111A5
:10540000C1CF08958091F304813AD9F78091F704D0
:105410009091F804892BA9F78091E800877F809309
:10542000E8008091E80080FFFCCF80911501809317
:10543000F1008091E8008E77BCCF8091F304813237
:1054400001F78091F7049091F804892BD1F68091AF
:10545000E800877F8093E8000E94532C8091F50438
:10546000809315010E94B81308958091F30481324E
:1054700041F68091E800877F8093E8000E94532CDA
:105480008091F6048093CF0208958091F304813ACD
:1054900009F0B7CF8091E800877F8093E800809182
:1054A000E80080FFFCCF8091CF02C1CF84B7877F17
:1054B00084BF0FB6F894A8958091600088618093AE
:1054C0006000109260000FBE80E890E00FB6F89484
:1054D00080936100909361000FBE0E94B6260895EC
:1054E0000E94A32C0E94002DE2EEF0E080818460F7
:1054F000808378940E947F2F08958BE091E00E9432
:10550000C42508958091F204853031F48091F2042D
:10551000853019F00E94302708950E940527809158
:10552000F004882399F30E94C326882379F30E940C
:10553000FD2A0E94B813EACF08959A014091F90418
:105540005091FA040E94A52A0895492F5527433007
:10555000510519F168F44130510509F444C0423055
:10556000510509F445C090E080E050E040E025C0DE
:105570004132510549F142325105A9F784E490E0E6
:1055800042E55BE161157105C1F082E390E040E224
:105590005BE16130710589F0E6CF99278130910593
:1055A00081F0009729F00297F1F6E5EAFAE102C0EE
:1055B000EFECFAE1849190E0AF01F901518340836F
:1055C0000895E7EBFAE1F6CF89E090E045EE5AE185
:1055D0006115710591F389E090E04EEF5AE1613079
:1055E000710559F3C0CF82E190E04EE05BE1E5CF79
:1055F0008BE390E043ED5AE1E0CF80E189BD82E1A9
:1056000089BD09B400FEFDCF8091D8008F7D8093C5
:10561000D8008091E00082608093E0008091E000FB
:1056200081FDFCCF0895AF92BF92CF92DF92FF929F
:105630000F931F93CF93DF936C01EB018A010E94BC
:10564000722CF82E811123C00115110539F0F801D3
:1056500080819181C81BD90BC80ED91EB12CA12CF9
:105660002097A9F08091E80085FD22C08091E80094
:105670008E778093E80001151105A1F0F801808173
:105680009181A80EB91EB182A08285E0F82E8F2DDF
:10569000DF91CF911F910F91FF90DF90CF90BF903E
:1056A000AF9008950E94722C8823D1F2F82EEFCF8C
:1056B000F60181916F018093F1002197FFEFAF1AFE
:1056C000BF0ACECFFC018091F9049091FA048617AD
:1056D0009707A0F06115710529F49091E8009E7775
:1056E0009093E80090E06115710551F4911108C0A4
:1056F0008091E80082FF34C080E00895BC01F2CFC1
:105700008091F2048823C1F18530C1F18091E800D5
:1057100083FD30C08091E80082FDEACF8091E800EF
:1057200080FFE1CF8091F3002091F200382F6115C6
:10573000710519F02830310558F091E02830310515
:1057400009F090E02091E8002E772093E800CBCF7D
:1057500081918093F100615071092F5F3F4FE7CF36
:105760008091F204882341F0853041F08091E80077
:1057700083FFBECF81E0089582E0089583E008951D
:10578000FC018091F9049091FA0486179707A0F024
:105790006115710529F48091E8008E778093E80007
:1057A00090E06115710551F4911108C08091E800F5
:1057B00082FF35C080E00895BC01F2CF8091F204F1
:1057C0008823C9F18530C9F18091E80083FD31C09B
:1057D0008091E80082FDEACF8091E80080FFE1CF70
:1057E0008091F3002091F200382F6115710519F0B6
:1057F0002830310558F091E02830310509F090E06B
:105800008091E8008E778093E800CBCF84918093DD
:10581000F1003196615071092F5F3F4FE6CF8091C3
:10582000F204882341F0853041F08091E80083FF45
:10583000BDCF81E0089582E0089583E00895982F18
:10584000973028F08F708093E90081E0089590935D
:10585000E900242F762F50E0981731F07091EC007A
:105860002091ED005091F00021FD02C09F5FE8CF34
:105870003091EB003E7F3093EB003091ED003D7FA7
:105880003093ED003091EB0031603093EB0070937A
:10589000EC002093ED005093F0002091EE0027FDE6
:1058A000E5CF80E008958091F30487FF13C08091D5
:1058B000E80082FF06C08091E8008B778093E800C3
:1058C00004C08091F2048111F2CF08958091F20416
:1058D0008823D9F38091E80080FFF8CF8091E80019
:1058E0008E77ECCF2091E4003091E50095E6A90198
:1058F0002091EC00822F817020FF06C08091E8008B
:1059000080FF06C080E008952091E80022FD1AC0C3
:105910008091F204882389F0853089F08091EB0032
:1059200085FD0FC02091E4003091E5004217530738
:10593000F9F29150E1F684E0089582E0089583E061
:10594000089581E008950E94122D0E941A2DE0EE24
:10595000F0E0808181608083E8EDF0E080818F77E6
:10596000808319BCA7EDB0E08C918E7F8C938081F1
:105970008F7E80831092F10408950F931F93CF932D
:10598000DF930E94122D0E941A2DC8EDD0E088816D
:105990008F77888388818068888388818F7D8883DA
:1059A00019BC1092F2041092EE041092F0041092BE
:1059B000EF0400EE10E0F80180818B7F8083888106
:1059C0008160888342E060E080E00E941F2CE1EE6D
:1059D000F0E080818E7F8083E2EEF0E08081816064
:1059E0008083808188608083F80180818E7F8083BE
:1059F000888180618883DF91CF911F910F910895F5
:105A0000E8EDF0E080818F7E8083E7EDF0E080813B
:105A10008160808384E082BF81E08093F1040E94F2
:105A2000BD2C0895E8EDF0E080818E7F8083109298
:105A3000E20008951092DA001092E10008951F929A
:105A40000F920FB60F9211242F933F934F935F93B2
:105A50006F937F938F939F93AF93BF93EF93FF9336
:105A60008091E10082FF0BC08091E20082FF07C0BD
:105A70008091E1008B7F8093E1000E947E2F8091D6
:105A8000DA0080FF19C08091D80080FF15C0809196
:105A9000DA008E7F8093DA008091D90080FF96C073
:105AA00080E189BD82E189BD09B400FEFDCF81E0BE
:105AB0008093F2040E945F298091E10080FF19C069
:105AC0008091E20080FF15C08091E2008E7F80937C
:105AD000E2008091E20080618093E2008091D80032
