:100000000C9406020C9423020C9423020C942302F9
:100010000C9423020C9423020C9423020C942302CC
:100020000C9423020C9423020C940C250C94E025D0
:100030000C943B200C9423020C9423020C94230276
:100040000C9423020C9423020C9423020C9423029C
:100050000C9423020C94C2200C9423020C942302CF
:100060000C9423020C9423020C9423020C9423027C
:100070000C9423020C9423020C9423020C9423026C
:100080000C9423020C9423020C9423020C9423025C
:100090000C9423020C9423020C9423020C9423024C
:1000A0000C9423020C9423020C942302AA41AC006A
:1000B000AE00AB00A9000100237821782078A800C9
:1000C0001E0F0500047F3F1F643214643214783C15
:1000D0001E1E140A052223252628292A2C2D2F30FE
:1000E00032333536383A3B3D3E4042434547494A34
:1000F0004C4E5051535557595A5C5E606264666865
:10010000696B6D6F71737577797B7D7F818385876F
:10011000898A8C8E90929496989A9C9E9FA1A3A572
:10012000A7A8AAACAEAFB1B3B4B6B8B9BBBCBEBF9A
:10013000C1C2C3C5C6C7C9CACBCCCDCED0D1D2D21D
:10014000D3D4D5D6D7D7D8D9D9DADADBDBDBDCDC28
:10015000DCDCDCDDDDDDDDDCDCDCDCDCDBDBDBDAE0
:10016000DAD9D9D8D7D7D6D5D4D3D2D2D1D0CECD4B
:10017000CCCBCAC9C7C6C5C3C2C1BFBEBCBBB9B858
:10018000B6B4B3B1AFAEACAAA8A7A5A3A19F9E9CDD
:100190009A98969492908E8C8A89878583817F7DA8
:1001A0007B79777573716F6D6B6968666462605E89
:1001B0005C5A5957555351504E4C4A494745434252
:1001C000403E3D3B3A3836353332302F2D2C2A29EC
:1001D0002826252322FFAA7F5540000101010101A5
:1001E00001010101020202020202020202030303F0
:1001F00003030303030404040404040405050505C0
:10020000050606060606070707070708080808097F
:100210000909090A0A0A0B0B0B0C0C0C0D0D0D0E2B
:100220000E0E0F0F0F1010111111121213131414C0
:10023000151516161717181819191A1A1B1B1C1D35
:100240001D1E1E1F2020212222232424252626278E
:100250002829292A2B2C2D2D2E2F303132323334C0
:1002600035363738393A3B3C3D3E3F4041424344C6
:1002700045464748494A4C4D4E4F505153545556A8
:1002800058595A5B5D5E5F616264656668696B6C54
:100290006D6F7072737577787A7B7D7E80828385CF
:1002A00087888A8C8E8F91939596989A9C9EA0A20F
:1002B000A3A5A7A9ABADAFB1B3B5B7BABCBEC0C219
:1002C000C4C6C9CBCDCFD1D4D6D8DBDDDFE2E4E7DD
:1002D000E9EBEEF0F3F5F8FAFDFF120372006500AA
:1002E0007600690075006E006700350000000C03A1
:1002F00067007400690070007300000004030904C3
:1003000009023B00020100A0FA09040000010301F8
:1003100001000921110100012244000705810308A1
:10032000000109040100010300000009211101007E
:1003300001227B0007058203200001120100020058
:10034000000008065C0D4F010001020001050109D3
:1003500002A10185020901A1000509190129081559
:100360000025019508750181020501093009311543
:1003700081257F95027508810609381581257F95AD
:100380000175088106050C0A38021581257F950143
:1003900075088106C0C005010980A1018503190106
:1003A0002AB700150126B700950175108100C00518
:1003B0000C0901A101850419012AA002150126A03A
:1003C00002950175108100C005010906A10105070C
:1003D00019E029E7150025019508750181029501AD
:1003E000750881010507190029FF150026FF0095F2
:1003F00006750881000508190129051500250195D4
:100400000575019102950175039101C011241FBE6C
:10041000CFEFDAE0DEBFCDBF11E0A0E0B1E0EAE966
:10042000F3E502C005900D92A23EB107D9F722E094
:10043000A2EEB1E001C01D92A53DB207E1F70E9416
:100440001B110C9477290C940000823090F46111F8
:1004500010C0453070F4E42FF0E095E0899FE00D86
:10046000F11D1124EE0FFF1FE455FF4F859194916C
:10047000089581E090E008950E942502089581E0AA
:1004800008950E943F02089581E008950E943F026E
:1004900008950E944602089508950E944C0208950E
:1004A000A6E0B0E0E6E5F2E00C94232849835A8305
:1004B0009E833091E90189819A8131111AC03E8170
:1004C000332399F0222389F00E945108182F682FB6
:1004D00089819A810E94360869817A81812F0E94E0
:1004E0002B0F2696E3E00C943F280E944308182F18
:1004F000F3CF0E94510869817A81F1CFFC01262F48
:100500004081518162817381848195810E94500272
:100510000895CF93DF93EC0161E00E947E02BE015B
:100520000E944102DF91CF910895CF93DF93EC01B8
:1005300060E00E947E02BE010E944D02DF91CF91D9
:10054000089581E008950E94A1020895CF93C82FD5
:100550000E940B078C2F0E94A3022FEF84E39CE0E4
:10056000215080409040E1F700C00000CF910895F5
:1005700081E00E94A6020E94E620089580E00E9489
:10058000A6020E94F72008950F931F93CF93DF9345
:100590008C0161E00E947E02EC01F80185818111ED
:1005A0000E949A18B801CE010E944902811106C02A
:1005B00080E0DF91CF911F910F910895B801CE0196
:1005C0000E94A71E8823A1F3B801CE010E94E31A5E
:1005D000882371F3B801CE010E94B91A882341F330
:1005E000B801CE010E94B918882311F3F801858162
:1005F000882361F0C330FCE7DF07E9F058F4C11548
:10060000ECE7DE07A9F0C130DC47B9F0C8010E9471
:100610004402CFCFCB358CE7D807A9F0CC35ECE737
:10062000DE0771F0CA35DC4789F70E94680CEECF0F
:100630000E94B802BDCF0E94700C0E94BE02B8CFCB
:100640000E945E0CE3CF0E946C0CE0CF0E941D2044
:100650000E944A030E94FD1608950E944E030E94C4
:10066000F1170E942220089581E008950895CF9304
:10067000DF93D82F0E943403C82F882319F08D2FC1
:100680000E9436038C2FDF91CF91089508950E9428
:100690003703089580E00E94470308950E94F01EEA
:1006A0000E9447030895CF930E94F01EC82F8091A7
:1006B000E4018C1779F0C093E4010E94A7206093B5
:1006C000E5017093E6018093E7019093E8018C2F98
:1006D0000E944703CF910895ADE0B0E0E2E7F3E078
:1006E0000C942428488759876A877B878C879D8745
:1006F00091110E949E0B1F8286E0FE013896DE015A
:10070000119601900D928A95E1F78D8181110DC0AE
:1007100029813A814B815C816D817E818F810E942C
:10072000E80A2D96E2E00C944028CE0101960E9442
:1007300089028111EDCFF5CFFC012481213021F414
:10074000808191810E9483080895662329F00E9488
:10075000441C0E94171D08950E949E1CFACFCF933F
:10076000C82F8823C9F08238C9F40E94FD1E81FD7C
:1007700013C089E30E94B31F0E940D0C2FEF87EE78
:1007800093E0215080409040E1F700C0000089E3F1
:100790000E94BB1F0E940D0CCF9108958338A1F4D5
:1007A0000E94FD1E80FDF8CF83E50E94B31F0E94CA
:1007B0000D0C2FEF81EE94E0215080409040E1F746
:1007C00000C0000083E5E4CF8438A1F40E94FD1E40
:1007D00082FDE2CF87E40E94B31F0E940D0C2FEF31
:1007E00081EE94E0215080409040E1F700C000008D
:1007F00087E4CECF8CEF8C0F813A70F48C2F0E945F
:10080000781F882329F08C2F0E94BB1F0E940D0C9B
:100810008C2F0E94B31FBECF80E28C0F883048F42B
:10082000C77081E001C0880FCA95EAF70E94810B6A
:10083000B1CFEBE5EC0FE33040F4F0E0EE59FE4FC2
:10084000808190E00E94191FA7CFE8E5EC0FEB3103
:1008500050F4F0E0EE0FFF1FE45DFE4F80819181C8
:100860000E943E1F99CF83E38C0F833108F094CF11
:1008700061E08C2F0E94A5038FCF882309F456C016
:10088000823879F40E94FD1E81FF50C089E30E94E6
:10089000B31F0E940D0C89E30E94BB1F0E940D0C28
:1008A0000895833859F40E94FD1E80FF3FC083E500
:1008B0000E94B31F0E940D0C83E5EECF843859F4DB
:1008C0000E94FD1E82FF32C087E40E94B31F0E9477
:1008D0000D0C87E4E1CF9CEF980F913AE8F290E29B
:1008E000980F983050F4877091E001C0990F8A9565
:1008F000EAF7892F0E94870BD1CF9BE5980F9330A1
:1009000028F490E080E00E94191F089598E5980F60
:100910009B3128F490E080E00E943E1F089593E30D
:10092000980F933118F460E00E94A50308951F9377
:10093000CF93DF93182FEB010E94AF03209739F478
:10094000812F0E943D04DF91CF911F9108958FE97F
:100950009FE00197F1F700C000002197EFCF70E012
:1009600060E0893311F460E570E00E949704089517
:10097000882321F00E94810B0E940D0C089588238A
:1009800021F00E94870B0E940D0C0895B0E0A0E0BA
:10099000ECECF4E00C941D286C01D62FC72FFC0161
:1009A0001581068102950F700E94770BE82E88232F
:1009B000F9F0E12E1123E1F08C2F807F803461F07B
:1009C00080E28D0F883008F18C2F807E803221F4F8
:1009D000D230D8F00023C9F08091AD0282FF15C05B
:1009E00082E00E94320C0E94770B91E0E82EE9260B
:1009F000BC2EB2949FE0B922FBE0FB15B8F1EB2DC1
:100A0000F0E0E758F64D0C94DD27E12CF1CF0C2FE8
:100A10000F70C07F11F00295007F112399F0002321
:100A200059F080E28D0F883010F0D11107C0802F6F
:100A30000E94810B0E940D0C8D2F5AC0802F0E94A6
:100A4000910BF8CF8D2F0E943D04002379F080E2B6
:100A50008D0F883010F0D11104C0802F0E94870BB9
:100A600003C0802F0E94970B0E940D0CEB2DE850C5
:100A7000FF0B349720F40E94F01E0E944703EE20E3
:100A800089F00E94730B80FD0DC0F60115820E9453
:100A90006D0B0E949407C6010E94D2060E946D0B46
:100AA0000E94A407CDB7DEB7E9E00C9439282C2FBB
:100AB0002F70F22EC07FC03219F0F29480EFF8222E
:100AC000DD2341F0D130D1F1112309F444C00023DA
:100AD000F1F0B2CF8091AD0282FD15C0112359F023
:100AE000FF2029F08F2D0E94810B0E940D0C80E0C9
:100AF0000E94AF03BBCF80E00E943D04FF2009F4B9
:100B0000B5CF8F2DABCF112369F0011104C08F2D0C
:100B10000E94B804ABCF013009F0A8CF8F2D0E94FE
:100B2000B50BA4CF0111A2CF8F2D0E94BF048F2D32
:100B30000E94C10B8F2D0E94A50B98CF112321F08D
:100B4000063008F093CFE3CF053008F08FCF8F2D1C
:100B50000E94BF048BCF0023D1F3D93349F43FEF78
:100B600087EE93E0315080409040E1F700C00000F4
:100B70008D2F0E943D047ACF8C2F869586958370A9
:100B800069F0813009F072CF8D2F9C2F9370111175
:100B900002C080E090E00E943E1F68CF8D2F9C2F06
:100BA0009370111102C080E090E00E94191F5ECF87
:100BB000612F8D2F0E94A50359CF8C2F8370A1F533
:100BC000111154CF4D2F429546954770440F440F55
:100BD0002D2F2F7030E0042E02C0220F331F0A94F5
:100BE000E2F790E080E0D4FF09C08FE090E002C01F
:100BF000880F991F4A95E2F780959095C695C695FE
:100C0000C370822B932BC23049F058F4C13019F0D5
:100C10000E9464072BCF0E945B0728CF0E946D07BC
:100C200025CF0E94580722CF8695112311F08C2FD3
:100C30008170882309F41ACF4D2F4295469547704D
:100C4000440F440F2D2F2F7030E0042E02C0220FCE
:100C5000331F0A94E2F790E080E0D4FF09C08FE0F0
:100C600090E002C0880F991F4A95E2F78095909511
:100C7000C695C695C370822B932BC23049F058F4A9
:100C8000C13019F00E94CF07F1CE0E94C607EECE08
:100C90000E94D807EBCE0E947C07E8CECF701123CC
:100CA00029F08C2F0E9494078D2F32CF8D2F0E9418
:100CB000BF048C2F0E94A407D9CED23F41F160F42B
:100CC000D03FB9F0D13F81F0112309F443C00111A5
:100CD000B3CE8C2F8F711FC0D33F01F1D43FA1F74A
:100CE0008091AD0282FD24C08C2F8F71112311F3EE
:100CF00012C0112341F0053008F0B8CE8C2F8F714F
:100D00000E94B607B3CE063008F0B0CEF7CF8C2FD6
:100D10008F711111CFCF0E949407A8CE112329F013
:100D20008C2F8F710E948807A1CE0E9483079ECED0
:100D3000112331F063E08C2F8F710E94140C96CE3A
:100D400081E00E94320C023008F490CE82E00E94D2
:100D5000320C8CCE002359F0D93309F009CFEFEFD4
:100D6000F7EE23E0E150F0402040E1F7FFCE8C2F7A
:100D70008F71A0CF0F931F93CF93DF93EC01688106
:100D800079818D810E948E088C010E94E1070E946A
:100D90005707B801CE010E94C604DF91CF911F9181
:100DA0000F910895CF93DF93EC018C81882399F004
:100DB000CE010E94C402811111C00E94770B8823CA
:100DC00051F08D81882339F08091AD0282FF03C0FC
:100DD00082E00E94320CDF91CF910895CE010E94F3
:100DE000BA06CE010E949502F6CF90E080E00E9404
:100DF000191F90E080E00E943E1F0E949E0B0E94FF
:100E00000D0C0E94331D0E94171D08950E94C31FE0
:100E10000E94F50608950E948E0B0E940607089511
:100E200092959F70963091F058F4925F9F70923037
:100E300058F4803F19F030F4883E30F481E0089592
:100E40009A5FF4CF843FD1F380E00895883EB0F3F9
:100E5000813FD1F7F3CFFC012481222339F0808137
:100E600091810E9483080E941007089580E00895F0
:100E7000A6E0B0E0EEE3F7E00C9424282696E2E04A
:100E80000C944028A7E0B0E0E8E4F7E00C942428B4
:100E90002796E2E00C94402808950E944C0708959C
:100EA0000E944D079093F1018093F00108950895F9
:100EB0000E94500708952091F0013091F101822B9A
:100EC000932B0E94500708952091F0013091F10179
:100ED000822393230E94500708952091F0013091BE
:100EE000F101822793270E94500708950E944C0722
:100EF00008950E94760708950E9479079093EF0164
:100F00008093EE01089590E080E00E947C070895B0
:100F100021E030E0A90102C0440F551F8A95E2F795
:100F2000CA010E947C07089521E030E002C0220F30
:100F3000331F8A95E2F78091EE019091EF01822BA9
:100F4000932B0E947C07089521E030E002C0220F1D
:100F5000331F8A95E2F7209530958091EE019091AC
:100F6000EF01822393230E947C07089521E030E063
:100F700002C0220F331F8A95E2F78091EE01909113
:100F8000EF01822793270E947C0708952091EE01AC
:100F90003091EF01822B932B0E947C0708952091C2
:100FA000EE013091EF01822393230E947C07089584
:100FB0002091EE013091EF01822793270E947C0758
:100FC00008950895262F277091E001C0990F2A9562
:100FD000EAF723E0769567952A95E1F7660F771F84
:100FE000660F771FFA01E60FF71F50E040E0682F09
:100FF00070E08191DF0111979B01042E02C03695AC
:1010000027950A94E2F7217021952827292328277C
:101010002C934F5F5F4F4430510559F70895A82F27
:10102000A77023E0969587952A95E1F7880F991F79
:10103000880F991FFB01E80FF91F50E040E080E0A6
:10104000219130E00A2E02C0369527950A94E2F7E6
:1010500021703327042E01C0220F0A94EAF7822B55
:101060004F5F5F4F4430510559F70895262F911176
:1010700009C0853038F4682F70E04AEE51E0822FC5
:101080000E94E207089591110AC0853030F46AEE9B
:1010900071E090E00E940F08982F892F089590E04A
:1010A000FCCFB0E0A0E0E7E5F8E00C941D287C015F
:1010B0000091EE011091EF018091F0019091F1010A
:1010C000082B192BCFE0D0E0CC24C394D12CBC2E1C
:1010D000C6010C2E02C0880F991F0A94E2F78023E4
:1010E0009123892B49F4219790F7B12C8B2DCDB703
:1010F000DEB7E9E00C943928B7018C2F0E94370F36
:10110000019789F3F3CFCF93DF93EC010E9451084D
:10111000BE010E94370FDF91CF9108951F93CF93A7
:10112000DF93EB019091E901992339F0CB010E9403
:101130008308DF91CF911F910895882369F0CB0137
:101140000E945108182F682FCE010E943608BE0158
:10115000812F0E94370FEDCFCB010E944308182F3B
:10116000F6CF1F93CF93DF93C091F20117E08091E8
:10117000F3018C1304C0DF91CF911F910895D0E04B
:101180001C9FF0011D9FF00D1124EC50FE4F20819B
:101190003181428153816481758186810E94420739
:1011A0002196C770E4CF20912C0230912D024091FE
:1011B0002E0250912F026091300270913102809185
:1011C00032020E9442070895CF93DF93809132024A
:1011D000807F09F04DC080913102882309F448C016
:1011E000E091F2015091F301C0912D02D0912C02B7
:1011F00060912E0270912F0247E05E17C9F18E2F89
:1012000090E0E49FF0011124EC50FE4F2481222352
:1012100091F1489FF001499FF00D1124DF01AC507E
:10122000BE4F11962C9111972C1325C02C912D1384
:1012300022C015962C91159721111DC012962D9143
:101240003C91261B370B283C3105A8F480913202D3
:101250008F70806180933202E650FE4F80818F70E4
:10126000806180838CE292E00E94D2060E94B108E5
:10127000DF91CF910895FC013196E770BECF482FE2
:101280002091F2019091F30157E0291302C080E010
:10129000089530E0529FF001539FF00D1124EC505F
:1012A000FE4F8181681306C08081481303C0858189
:1012B0008111EECF2F5F3F4F2770E7CFA4E1B0E061
:1012C000E4E6F9E00C941A288C0186E0F801DE01CE
:1012D0001F9601900D928A95E1F7F8018481E580CF
:1012E0009CE2A92E92E0B92E9091300291111FC07C
:1012F0008823D1F0EE20A9F0C8010E942B07F82E18
:10130000882379F087E0F801D50101900D928A9544
:10131000E1F7C5010E949C030E94E4080E94D308E3
:101320005FC0C8010E94D206FF24F39459C0C08058
:10133000D18082809380F090310220912E023091F2
:101340002F02A401421B530BFF2009F4F9C0483CB3
:10135000510508F0A7C0882309F442C090912D02DE
:1013600080913202282F207F09F05CC09D1116C0A9
:1013700090912C02C91212C0E1104EC08F70806192
:10138000809332020E94D3088CE292E00E94D2063F
:1013900080913202F8018683F12C22C0E1103CC01A
:1013A0006D2D8C2D0E943F096D2D8C2D0E943F09C3
:1013B000E82E8111F1CFCF86D88A8F8598890E9437
:1013C0008308292F22952F70243078F49F702230C3
:1013D000A8F09923B9F0F8019681907F99F4FE2C3A
:1013E0008F2D6496ECE00C9436282A5F2F70223003
:1013F00068F0C8010E94D206EF2CF1CF992311F0BA
:10140000882369F3805E883050F3F3CF803F38F350
:10141000815F833070F7E3CF8091320281608093E7
:101420003202BACF9D1113C090912C02C9120FC085
:10143000E1100DC08683C8010E94D20687E0F80142
:10144000ACE2B2E001900D928A95E1F767CFC80156
:101450000E942B07882309F464CFEE2009F461CFA2
:1014600080913202803288F020912C0230912D023E
:10147000398728879B868A86909130029C871D86B3
:101480008E87CE0108960E94D20687E0F801ACE272
:10149000B2E001900D928A95E1F70E94E4080E9463
:1014A000D30842CF90913202292F207FA1F4682DDA
:1014B0009A8A898AA6017A899E2D0E9438078CE231
:1014C00092E00E94D20687E0F50111928A95E9F731
:1014D0000E94D30861CF882309F482CF80912D0226
:1014E0008D1110C080912C02C8120CC0E1100AC0EE
:1014F0009683C8010E94D20687E0F50111928A9571
:10150000E9F76ECFC8010E942B07882309F409CFA1
:10151000EE2009F406CF80913202803208F4B5CF74
:1015200020912C0230912D023A8329839C828B8258
:10153000909130029D831E828F83CE010196A3CFAE
:10154000483C5105B8F5882309F4EECEFE2CEE2078
:1015500009F4E7CE80912D028D111EC080912C02DE
:10156000C8121AC08091320280FD0DC0982F907F62
:1015700051F08683903F09F45ECF982F907F905F63
:101580008F70892B57CF87E0F801ACE2B2E0019071
:101590000D928A95E1F724CFC8010E942B07811193
:1015A00074CF80913202816080933202C8010E9420
:1015B000D20616CF682D9A8A898AA6017A899E2D2D
:1015C0000E94380787E0F50111928A95E9F7A6CEC7
:1015D000AEE0B0E0EEEEFAE00C94232828873987DD
:1015E0004A875B876C877D878E87CE0108960E942D
:1015F0005E098823B1F06C85662341F02885398522
:101600004A855B857D858E850E94420717E0809123
:10161000F2019091F30189133DC02E96E3E00C9402
:101620003F2887E0FE013896DE01119601900D9269
:101630008A95E1F78C85882349F32091F30130E006
:10164000C9010196877099274091F2014817190640
:1016500099F097E0929FD001939FB00D1124AC5068
:10166000BE4FFE01319601900D929A95E1F780935D
:10167000F3010E94B108CACF0E940B071092F30138
:101680001092F20187E0ECE2F2E0DF011D928A9510
:10169000E9F7BCCF819FC00111248C509E4F0E945E
:1016A0005E09882309F4B9CFE091F2011E9FF00191
:1016B0001124EC50FE4F208131814281538164819D
:1016C000758186810E9442078091F20190E0019627
:1016D000877099278093F2019ACF80913B0286957B
:1016E00086958695089580913B0287700895909124
:1016F0003B02977081E009F480E0089580914702F1
:10170000089590914702892B809347020895809510
:1017100090914702982390934702089510924702B0
:10172000089590914602892B8093460208958095F2
:101730009091460298239093460208951092460293
:10174000089508950E94A10B089590913C02292FBD
:10175000282331F08095892380933C020E94A20BBC
:10176000089508950E94B10B089590913D02292F8C
:101770002823281729F0982B90933D020E94B20B42
:10178000089590913D02292F282331F080958923D7
:1017900080933D020E94B20B089580913D02882300
:1017A00029F010923D0280E00E94B20B08950F9341
:1017B0001F93CF93DF930091040110910501C09115
:1017C000470280914602C82B80913D02882331F068
:1017D000C82B0E94631F81110E94CD0BF801C083AA
:1017E000C0910401D091050148E050E063E372E04C
:1017F000CE010E94EA28892B59F088E0FE01A3E37C
:10180000B2E001900D928A95E1F7CE010E94001F8F
:10181000DF91CF911F910F9108950E94D70B0895EA
:1018200008950E94100C08959091AD0292FF11C08E
:1018300098E0899F90011124622B60933B020E94E3
:10184000940780913B028695869586950E94110C9F
:1018500008950E949407089510923B0280E00E9430
:10186000110C089590913B028095892380933B024F
:10187000282F277069F4891759F09091AD0292FFD3
:1018800007C08695869586950E94A4070E942C0C19
:1018900008959091AD0292FB222720F9281769F054
:1018A00080FB92F99093AD028091AC029091AD02D1
:1018B0000E94910C82E00E94320C08958091AD024A
:1018C00082FB882780F991E089270E94490C0895BE
:1018D00081E00E94490C089580E00E94490C08951F
:1018E0006FEF7FEF90E080E00E944229089590E042
:1018F00080E00E940E2921E0853E9E4F09F020E005
:10190000822F089582E090E00E940029089583E0EC
:1019100090E00E940029089584E090E00E940E2942
:101920000895BC0184E090E00E9442290895AB0133
:10193000BC018FE090E00E9436290895AB01BC0104
:1019400083E190E00E943629089560E070E0CB01C9
:101950000E949E0C089560E070E0CB010E94970CFD
:101960000E94A50C0895A8E0B0E0E9EBFCE00C941F
:10197000242865EE7EEF90E080E00E94422960E03E
:1019800082E090E00E94242981E090E09093F101B0
:101990008093F00161E083E090E00E94242960E000
:1019A00074E184E090E00E94422960E086E090E0EB
:1019B0000E94242960E087E090E00E94242940E012
:1019C00050E0BA0188E090E00E94362960E083E2AE
:1019D00090E00E94242960E08CE090E00E9424299D
:1019E00060E08DE090E00E94242919821A821B8217
:1019F0001C821D821E821F82188648E050E067E12B
:101A000070E0CE0101960E94142940E050E0BA0136
:101A10008FE190E00E9436290E94AB0C2896E2E00C
:101A20000C9440280E94B30C0895682F8EE090E03B
:101A30000E9424290895A6E0B0E0E1E2FDE00C94C4
:101A400022280E949B208C0180914802909149029B
:101A50008017910781F019821A820E949B20682FBB
:101A600049815A81792F80E090E00E946C031093A5
:101A70004902009348022696E4E00C943E280E9416
:101A8000A720609353027093540280935502909361
:101A9000560260934F0270935002809351029093CC
:101AA000520208950E94A72060935302709354023B
:101AB000809355029093560260934B0270934C02B0
:101AC00080934D0290934E020895089508950E94C8
:101AD000650D089508950E946A0D08958DE290E1C4
:101AE0000E9430110E94660D0E94670D089581E0EA
:101AF00008950E94770D08950E94770D0895089526
:101B000008950E947F0D0E94800D08950E94770C19
:101B1000811102C00E94120D0E94820C8093570214
:101B20000E948C0C9093AD028093AC020E94870CB3
:101B300090E00E9458078091EE019091EF010E9481
:101B4000790708950E9492200E942E190E94AD10DC
:101B50000E94860D0E9446030E94A6170E946B0DEC
:101B60000895A6E0B0E0E7EBFDE00C941E280E948B
:101B7000790D811111C00E941B0D0E949B180E94BB
:101B8000AB1981110E94520D0E94551D0E945303F2
:101B90002696E8E00C943A280E94B91010914A0267
:101BA00080E00E943710181731F38091570281FDB1
:101BB0000E943D100E947C0DD82E80E00E943710BC
:101BC000182F80914A02181729F100E0FF24F3949E
:101BD000E12EE826CC24C3948E2D8F21A9F0DD20A0
:101BE00099F009831A820E949B209C838B83CD826B
:101BF00091E0812F8F2109F490E049815A816B8116
:101C00007C818D810E946C030F5FFF0C053021F7F2
:101C100010934A020E943F0DB0CF1F93CF93DF93E2
:101C20000E943C0FEC01C11580E5D807F0F5C11505
:101C300080E4D80708F09CC0C03ED10520F5CD3C1B
:101C4000D10508F082C0C83AD10578F4C53AD1056B
:101C500008F073C0C130D10519F1209709F1C430E3
:101C6000D105F0F4D0E0C0E01BC0C33CD105D0F7F3
:101C7000C85AD0E0CC0FDD1FCB59DE4F0990D88178
:101C8000C02DD4640DC0C11580E2D80708F0D1C0C2
:101C9000C11581E0D80708F05AC0C83ED10510F739
:101CA000CE01DF91CF911F910895C03682E5D8070C
:101CB00018F5C03482E5D80708F06BC0C03282E561
:101CC000D80708F05FC0C11582E5D80708F497C0AF
:101CD0002C2F2695269580E2289F900111248C2F89
:101CE0008370C1E0D0E002C0CC0FDD1F8A95E2F71F
:101CF000C22BD32BDD68D4CFC03A82E5D80760F47D
:101D0000C03882E5D80708F459C0CF71D0E0DC2F85
:101D1000CC27C46FD06AC4CFC03C82E5D80708F492
:101D200062C0C03E82E5D80708F09CCFDC2FCC27EC
:101D3000CC27DF71C06FD06AB3CFC55AD0E0C5568B
:101D4000DE4FC881D0E0D064ABCFD065A9CF8D2F56
:101D50000E94DE0F182FCE0199270E943C0FC12F41
:101D6000D0E0DC2FCC27CC27DF71C82BD92B98CF24
:101D7000CE0199270E943C0FCC27DF70C82BD92BAE
:101D8000D06A8ECFCF71D0E0DC2FCC27C16FD06A64
:101D900087CF2C2F26952695277080E2289F9001CB
:101DA00011248C2F8370C1E0D0E002C0CC0FDD1F66
:101DB0008A95E2F7C22BD32BDC6872CF2C2F2695A5
:101DC0002695277080E2289F900111248C2F837024
:101DD000C1E0D0E002C0CC0FDD1F8A95E2F7C22B34
:101DE000D32BDA685DCF8C2F8F710E94DE0FC82F46
:101DF000D0E0DC2FCC27CC27DF71D06251CF8C2FE5
:101E00008F710E94DE0F55E0D695C7955A95E1F780
:101E1000CF70D0E0DC2FCC27282F30E084FF05C026
:101E200044E0220F331F4A95E1F7C22BD32BD06930
:101E300037CF8D2F8F710E94DE0F182FCE0199277B
:101E40000E943C0FC12FD0E0DC2FCC27CC27DF71C4
:101E5000C82BD92BD2CF462F711106C0653020F484
:101E600060E00E943C02089590E080E008950E94A6
:101E70002B0F0E940D0E089582389105B9F1B0F430
:101E80008133910509F47DC048F48932910509F444
:101E90006DC08A32910509F47BC0089585339105A0
:101EA00009F45FC08933910509F10895833E9105D6
:101EB000D9F138F4803E910529F1823E910579F1FE
:101EC0000895863E9105D9F1873E910509F43EC0FB
:101ED000843E910541F52091AD0221FF24C08091FF
:101EE000AC0284FD19C087EE90E008952091AC0209
:101EF000237009F05AC02091AD0223FF14C089E27B
:101F000090E008952091AC0220FD38C03091AD02E0
:101F100030FF09C024FF43C090E080E00895209185
:101F2000AC0222FDF7CF08952091AC0222FD3AC009
:101F30003091AD0230FD39C024FFF5CFEDCF2091B7
:101F4000AC0223FFF0CF24FDE7CFCDCF2091AC0230
:101F500023FD2EC03091AD0231FFEECF84EE90E034
:101F600008952091AC0225FFDECFC9CF2091AC02AD
:101F700025FD21C02091AD0223FFD5CF89E390E05C
:101F8000D2CF2091AC0226FFCECF8AE290E0089516
:101F90002091AC0226FFC7CF81E390E0089583EE45
:101FA00090E0089582EE90E0089580EE90E008952C
:101FB00086EE90E0089585E390E008959091AC025C
:101FC00092FF10C041E0282F2471243009F040E036
:101FD00031E0282F2871283009F030E0431711F044
:101FE0002CE0822793FF10C041E0282F2471243178
:101FF00009F040E031E0282F2871283109F030E065
:10200000431711F02CE082273091AD0230FF10C051
:1020100051E0282F2171213009F050E041E0282FB4
:102020002871283009F040E0541711F029E0822788
:1020300031FF10C041E0282F2171213109F040E02B
:1020400031E0282F2871283109F030E0431711F0D2
:1020500029E0822794FD877E089580E00895089501
:102060000E942F10089508950E9433100895E82FBC
:10207000F0E0E155FD4F80810895089580EA8A954A
:10208000F1F7089500C008950E943E100895F89455
:10209000E82FE295EF70F0E031A1282F2F7081E05A
:1020A00090E001C0880F2A95EAF7982F9095932326
:1020B00091A392A1892B82A378940895CF93DF9363
:1020C00084EF0E944710CEE9D1E089918F3F11F053
:1020D0000E94471081E0C33AD807B9F7DF91CF914A
:1020E00008950F931F93CF93DF938C01C62FF8941D
:1020F000849A8C9878940E944210EEE9F1E081E095
:10210000D0E091919F3F79F0A92FA295AF70B0E0F8
:1021100090962C9130E09F7002C0359527959A9546
:10212000E2F7982F20FD90E0D92B880F91E0E33A59
:10213000F90739F784EF0E94471061E0D11101C01F
:1021400060E08C2F0E944410F801EC0FF11DD08349
:10215000DF91CF911F910F9108950E945E10109210
:10216000AF021092AE0281E00E94DE100E94301099
:102170000895A1E0B0E0EFEBF0E10C942328198280
:1021800060E0CE0101960E9471109091AE028981AB
:1021900021E0981301C020E098138093AE0241E043
:1021A0006FEA72E08EEA92E00E94DF10182F0E9420
:1021B0003410812F2196E3E00C943F280895B0E07D
:1021C000A0E0E5EEF0E10C941E286C017B01042FE9
:1021D000C22F222379F081E080935A020E949B2033
:1021E000909359028093580280E0CDB7DEB7E8E0C3
:1021F0000C943A28D0915A02DD23B1F38091580211
:10220000909159020E94B320059770F310E0A80145
:10221000B601C7010E94EA28892B31F0A801B60156
:10222000C7010E94F728CD2F10925A028C2FDDCFC4
:102230000E94B10D08950E9434200E9443220E9402
:102240006E0D0E945D220E94A20D0E946A220E94D1
:102250006F220E9418110E9489220E94810DF7CFDF
:102260009093E3018093E2010895EF92FF920F9320
:102270001F93CF93DF93EB01E82FD1110EC04423BE
:1022800021F0F0E0E652FE4FE4916E2F7E2F8E2F6C
:10229000CDB7DEB7E6E00C943C280D2F10E0282FD8
:1022A00030E0442329F026523E4FF901249130E0DA
:1022B000F6E0CF9FC0011124EFEFF0E0BF010E94D4
:1022C0009327AB018C2F90E0880F991FA5E5A49F61
:1022D000B001A59F700D1124861B970B982F990FA5
:1022E000980FBF01601B710B629FD001639FB00DFF
:1022F000729FB00D11248B2F9D9FB0011124672F69
:102300007727EF01C61BD70BBE01629FE001639FD9
:10231000D00D729FD00D11247F01E91AF108E09EC3
:10232000B001E19E700DF09E700D1124672F77278C
:10233000E61BF70BE29F8001E39F100DF29F100D4B
:102340001124E12F722F4230510599F048F44115C4
:10235000510569F04130510581F0EB2F8D2F07C0F9
:102360004430510569F080F046305105B1F76E2FC9
:102370008FCFE22F7B2F812FFACFE22F7D2FF7CF48
:10238000EB2F822F712FF3CF7B2F822FED2FEFCFEB
:1023900041E00E943511089508950E94C8110895E2
:1023A000CF93DF93762FE901682F842F0E94CD1100
:1023B000798368838A83DF91CF9108958091B002F9
:1023C000982F9C7F29F4837084608093B0020895D5
:1023D0008C3AE8F38370886AF8CFB0E0A0E0E3EFCE
:1023E000F1E10C941E2888E090E00E9408296B011E
:1023F0007C0183E290E00E940029282F30E040E039
:1024000050E060E070E080E090E000E20E944B2845
:10241000B22FA32FF42FE52FD62FC72F97018601B8
:10242000BC29A12BFE295E2F532B2B2F3A2F4F2F88
:102430006D2F7C2FCDB7DEB7E8E00C943A28B0E0E2
:10244000A0E0E5E2F2E10C941A2849015A016B017F
:102450007C010E94DE118401A4016A2D7B2D88E09D
:1024600090E00E94362994014A2D5B2DB601C701E8
:1024700000E20E946628622F83E290E00E942429F5
:10248000CDB7DEB7ECE00C943628E0EBF2E085E067
:10249000808311828FEF828383831482758125E08C
:1024A00030E04FEF5FEF60E0868197810E941F125E
:1024B00008958091B00280FF03C0869586950895A7
:1024C00080E008959091B402933018F49F5F909348
:1024D000B402882391F02091B0023091B102409172
:1024E000B2025091B3026091B4027091B502809132
:1024F000B6029091B7020E941F12089581E00E94D7
:10250000621208959091B402992319F0915090931A
:10251000B402882391F02091B0023091B102409131
:10252000B2025091B3026091B4027091B5028091F1
:10253000B6029091B7020E941F12089581E00E9496
:102540008212089560910A018091B00280FF0FC04D
:1025500070E08091090123E0829FC0011124E09185
:10256000D001F091D10188549D4F09950895809133
:102570000B0190910C0123E0829FF0011124E8549B
:10258000FD4F891728F71182108212828F5F3396D0
:10259000F8CF9091B00290FF0EC090910B01209166
:1025A0000C0133E0939FF0011124E854FD4F921782
:1025B00018F00E94A21208958183608342839F5F76
:1025C0003396F5CFA3E0B0E0E8EEF2E10C942428D6
:1025D0009091B00290FF0AC09E012F5F3F4F0E9472
:1025E000D0114B8169818A810E94C9122396E2E051
:1025F0000C944028CF93DF93EC01EC81F0E0EB5298
:10260000FF4F4491E0EBF2E0628181810E94E2128F
:102610008C818F5F8C83DF91CF910895CF93DF936F
:10262000EC01E0EBF2E0438162818C810E94E212D6
:102630008C818F5F8C83DF91CF910895A3E0B0E010
:10264000E4E2F3E10C9422288C0180915B02811179
:102650000AC09E012F5F3F4F4FEF6FEF0E94D011D6
:102660008A8180935B02F8016481613069F0809116
:102670005B0240E0662361F040E0623011F440917B
:102680005B0280E060E004C060915B0240E080E0BB
:102690000E94C912F801848190E0019663E070E025
:1026A0000E94A72784832396E4E00C943E28A3E0AD
:1026B000B0E0EDE5F3E10C941D28082FD62EF42EA2
:1026C000C22E9091B00290FF2FC0E92FE695E695BB
:1026D000AE2FB0E0AD55BE4F8C9180937B029C7FB6
:1026E000943031F59E012F5F3F4F802F0E94D01113
:1026F0004B8169818A810E94C9120093B102D092F4
:10270000B202F092B302CC2079F02091B002609135
:10271000B4027091B502302F4D2D5F2D8091B6021D
:102720009091B7020E941F122396E9E00C94392879
:10273000823019F4F090B302E0CF863019F40091A2
:10274000B102DBCF8930D9F38931B9F6E9516E2F67
:102750006170B62EE695F0E0EB52FE4F1491E12C3D
:1027600060910D01E61618F00E94A212C6CFE19EFC
:10277000C001112470E00E949327802FB11014C073
:10278000860F20910B01622F6E0D7727771F9B011B
:10279000220F331F260F371F28543D4F4F2D6D2D0D
:1027A0000E94D011E394DCCF861BEBCFE0EBF2E08C
:1027B0009181282F4381628180E1890F0E94571304
:1027C000089581E00E94D6130895E0EBF2E0918134
:1027D000282F4381628180EF890F0E94571308954B
:1027E00081E00E94E5130895E0EBF2E0628120E1D0
:1027F000620F08F46FEF282F438181810E945713E5
:10280000089581E00E94F4130895E0EBF2E0628104
:1028100020E1621B08F460E0282F438181810E943F
:102820005713089581E00E9405140895E0EBF2E04B
:10283000438120E1420F08F44FEF282F628181810C
:102840000E945713089581E00E9416140895E0EB4A
:10285000F2E0438120E1421B08F440E0282F62812E
:1028600081810E945713089581E00E9427140895E2
:1028700020E00E9457130895EF92FF921F93CF9389
:10288000DF93EC0110E0EE24EA94F12C60910D014D
:10289000161770F00E94A2129A818C8190FF27C0B7
:1028A0008F5F8C83DF91CF911F91FF90EF90089500
:1028B00020910B01422F410F5527551FCA019A0144
:1028C000220F331F280F391F28543D4F70E0C701D6
:1028D0000E94A727962F8C814091B3026091B2028B
:1028E000199F800D11240E94D0111F5FCFCF8150FE
:1028F000D8CFB0E0A0E0EFE7F4E10C941D28FC0194
:1029000082810FEF80FF01E010E080910D01181728
:1029100098F00E94A21280915D02013009F04CC033
:10292000811102C080910D01815080935D02CDB76D
:10293000DEB7E9E00C943928C0910B01C12ED12CEF
:10294000CC0DDD2DD11DCE01880F991FC80FD91FC9
:10295000C854DD4F198218821A8234E0E32EF12C1C
:10296000B12C80915D028B0D853004F18370082EAF
:10297000000C990BC816D90691F48091B3028E9D74
:10298000A0018F9D500D112455954795559547955C
:102990009E016091B2028091B1020E94D011B00EEE
:1029A000F1E0EF1AF108E9F61F5FAFCF87FFDFCF45
:1029B00090910D01890FDBCF90E0019660910D01A0
:1029C00070E00E94A727B1CF0F931F93CF93DF939F
:1029D00080910B0190910C0123E0829FF001112462
:1029E000E854FD4F891740F1C0E0D3E060910D013C
:1029F000C61740F10E94A2122091070180915C024B
:102A0000820F80935C0290910801920F90930801CD
:102A1000191654F4082E000C990B40910D014150E9
:102A2000550B841795071CF0219520930701DF9122
:102A3000CF911F910F9108951182108212828F5FA2
:102A40003396D0CF0C2F10E070E0C8010E94A7276A
:102A500020910B01820F482F50E020915C02022E42
:102A6000000C330B02171307BCF020910801022E53
:102A7000000C330B201731077CF08D9F900111243F
:102A800028543D4F4091B3026091B2028091B1024F
:102A90000E94D011CF5FAACFFA01EE0FFF1FE40F03
:102AA000F51FE854FD4F118210821282F3CFB0E07F
:102AB000A0E0EDE5F5E10C941A28EC014C81042F1F
:102AC00010E09801D8010E94EB279B01AC010E9405
:102AD00001284B015C01E0E2F0E0E01BF10BA5E511
:102AE000B0E0AC019B010E9401286B017C019F01B9
:102AF000DF010E94E3279B01AC010E940C289B018F
:102B0000AC01280D391D4A1D5B1DC701B6010E948D
:102B1000BB27F22E822F90E039E23F1520F143E0EF
:102B2000249F9001112435952795122F109500E0D0
:102B300085E5E82EEF1880910D01081718F10E9425
:102B4000A2129C8181E0992319F0903219F48FEF41
:102B50008093060180910601890F8C83CDB7DEB783
:102B6000ECE00C94362825E530E0B901681B790BC0
:102B70009B01220F331F260F371F37FFD4CF2F5F44
:102B80003F4FD1CF8E2D01FD8F2D20910B01622F54
:102B9000600F7727771F9B01220F331F260F371FE8
:102BA00028543D4F412F6091B2020E94D0110F5F17
:102BB000C2CF0F931F93CF93DF93EC0110E000E09F
:102BC00090910D019017110609F06CF40E94A21269
:102BD0008C8190E00196817099278C83DF91CF9151
:102BE0001F910F91089520910B01A801420F511DD3
:102BF0009A01220F331F240F351F28543D4F4C815B
:102C00006091B2028091B10296959017110651F031
:102C10004CF0442349F04091B3020E94D0110F5F61
:102C20001F4FCECF4423B9F340E0F7CFB0E0A0E090
:102C3000ECE1F6E10C941628FC016280448081E00E
:102C40008483E5EDF0E07490E4E5F1E0E491C09177
:102C5000B302C695C158D0E0CC0FDD1FCD2FDD27C4
:102C6000812C75E0972EAA24AA94B12C55245A944D
:102C7000E719EE2EF12C80910D01881638F00E9494
:102C8000A212CDB7DEB7E0E10C943228C82CD12CCB
:102C900082E0861568F09C9CF0019D9CF00D11244B
:102CA000E25AFD4F8091B10280838091B20281830C
:102CB000411023C09C9CF0019D9CF00D1124E25A10
:102CC000FD4F1382128220910B01C601820F911DCC
:102CD0009C01220F331F280F391F28543D4F9C9C05
:102CE000F0019D9CF00D1124E25AFD4F428161815B
:102CF00080810E94D0118394BECF9C9C80019D9CBA
:102D0000100D1124025A1D4FF80183818823F1F020
:102D100081508383859DC0011124648170E00E94ED
:102D20009327FB01FF27EB52FF4F8491E82FE71910
:102D3000E59DC0011124B7010E9493278091B30241
:102D4000689FB0011124F8017283BDCF0E94CD2885
:102D5000B5010E94A7278C179D070CF0B4CFF2E0B5
:102D6000F61598F40E94CD28B5010E94A727F80116
:102D700080830E94CD282091B2022695622F70E0B8
:102D80000E94A727280FF80121839C9CF0019D9C9D
:102D9000F00D1124E25AFD4F12828091B302893C5A
:102DA00058F088EC9C9CF0019D9CF00D1124E25A97
:102DB000FD4F8483838387CF8431A0F784E1F2CFF2
:102DC000E0EBF2E020812E7F20833181428153812C
:102DD00064817581868197810E941F1210927C0206
:102DE0000E94A2120895E0EBF2E080818E7F808342
:102DF00010927C020E94A212089510927C0280918F
:102E0000790281110AC081E0809379028091B00239
:102E10008170809378020E94F31608956091B00249
:102E20006695669570E04BE050E08EE091E00E9480
:102E3000DD28892B19F481E080937C020E949B207D
:102E4000909373028093720208959091B00290FF64
:102E500034C09370811132C094609093B0026623A5
:102E600091F02091B0023091B1024091B2025091A4
:102E7000B3026091B4027091B5028091B602909154
:102E8000B7020E941F126091B0026695669570E0CD
:102E90004BE050E08EE091E00E94DD28892BB1F0FC
:102EA00010927C0281E0809375024091B3026091A0
:102EB000B2028091B1020E94381408958B3210F052
:102EC000986ACBCF880F880F982BC7CF0E940E1718
:102ED000E9CF682F9091B0029695969581E0890F81
:102EE0008B3208F081E00E942517089581E00E944E
:102EF00069170895682F9091B002969596958FEF77
:102F0000890F09F48AE20E942517089581E00E9442
:102F10007A17089561E00E9425170895E0EBF2E02A
:102F2000808181608083869586950E948A170895A6
:102F30008091B00280FF03C00E94E01608950E94B5
:102F40008E17089560E00E942517089580917A02F7
:102F500081113CC00E94ED112093B0023093B10268
:102F60004093B2025093B3026093B4027093B502DF
:102F70008093B6029093B7022C7FA1F40E94451271
:102F80000E94ED112093B0023093B1024093B2023F
:102F90005093B3026093B4027093B5028093B6026B
:102FA0009093B7020E94DE1110927C02E091CE0154
:102FB000F091CF0109958091B00280FF04C0869501
:102FC00086950E94A21781E080937A020895E0EB33
:102FD000F2E0808181608083869586950E94A217A9
:102FE0000895109279028091780281110E94E7176A
:102FF0000E940E1708950F931F93CF93DF93809134
:103000007C028823C1F180917B02E091B002E695B9
:10301000E695E81BE0937402823091F5F0E0EF5200
:10302000FF4FE491CE2FD0E00AEF12E180917502BC
:10303000882361F0109275020E949B209093730286
:103040008093720210927702109276020E949B2067
:10305000E0917202F09173028E1B9F0B8F3F9F478E
:1030600050F4EC0FFD1FF0937302E093720282E7BD
:1030700092E0F8010995DF91CF911F910F9108958A
:10308000863049F4F0E0E253FF4FE491CE2FD0E0D8
:103090000EE013E1CBCF893051F4E695F0E0E55333
:1030A000FF4FE491CE2FD0E00CE314E1BFCF8F307F
:1030B00051F4E695F0E0E853FF4FE491CE2FD0E0D5
:1030C00009E714E1B3CF853149F4F0E0EB53FF4F4A
:1030D000E491CE2FD0E004EE14E1A8CFC8E2D0E016
:1030E00007E515E1883109F4A1CF833239F4E3EC27
:1030F000F0E0C591D4910EE113E198CFC4EFD1E097
:1031000009ED15E1843209F491CFC0EDD7E00CEC64
:1031100011E1853209F08ACF8E2F63E00E94872764
:10312000E92FF0E0E054FF4FE491CE2FD0E006E12C
:1031300016E17CCF08950E94FB170895FA018111D2
:1031400001C0FB0109950895CF93DF93C82FD62FB7
:103150000E9459128C1748F00E9459128D1728F4BA
:103160000E947617DF91CF9108958C2F0E948A17C5
:10317000F9CF1F93CF93DF93EC01FB011581111160
:1031800010C00E947E0B8272FE01E052F847E531CA
:10319000F10508F05EC0EB57F64D0C94DD270E9458
:1031A0009817812FDF91CF911F91089546E857E13D
:1031B00066E777E10E949E18F4CF46E757E166E89C
:1031C00077E1F8CF40EF53E161EE73E1F3CF41EEE9
:1031D00053E160EF73E1EECF42E154E161E074E16D
:1031E000E9CF41E054E162E174E1E4CF44E354E12A
:1031F00063E274E1DFCF43E254E164E374E1DACFE8
:103200004EE952E16EE772E1D5CF4EE752E16EE949
:1032100072E1D0CF81E00E948A17C3CF65E082E0DF
:103220000E94A418BECF68E086E0FACF6EE089E085
:10323000F7CF64E18FE0F4CF67E185E1F1CF88E17A
:10324000EACF62E289E1ECCF83E2E5CF6AE285E290
:10325000E7CF11E0A6CF0E94770D0895EEE7F2E0E8
:1032600088E0DF011D928A95E9F70E94331A0895DC
:10327000FC01228130E02F5F3F4F23703327938181
:1032800081E09217130609F080E008950F931F93D1
:10329000CF93DF93EC01162F042F0E943819811170
:1032A00017C08A81FE01E80FF11D1F7764816078E5
:1032B000612B00FB67F964838F5F83708A83888149
:1032C0008F5F888381E0DF91CF911F910F910895E7
:1032D00080E0F9CFFC01A38182818A17B1F0AE0FA3
:1032E000BF2FB11D14968C9187FB992790F98F778A
:1032F000DB018C93DA019C9383818F5F83708383DE
:1033000081818F5F818381E0089580E00895462F59
:10331000682F8EE792E00E9446190895AB01BC0128
:103320008EE792E00E946A19089581E00895CF9394
:10333000DF93D62F0E949519C82F882341F06AE0A9
:1033400070E089EAD11101C08AEA0E9497048C2FAB
:10335000DF91CF910895A2E0B0E0E1EBF9E10C94A8
:10336000222880917D02882351F010927D02809165
:1033700080028093810280917E0280937F020E946E
:10338000721A0E942B19182F882389F010E005C0AB
:1033900069818A810E949719102FBE016F5F7F4F4C
:1033A000CE0102960E948E19082F8111F1CF812F34
:1033B0002296E4E00C943E288FE891E00197F1F723
:1033C00000C00000089520E9611121E93AB12F7091
:1033D00081E090E001C0880F2A95EAF7982F909538
:1033E00093239AB99BB1892B8BB9089520E9611178
:1033F00021E989B190E02F7002C0959587952A95B3
:10340000E2F7817008950895CF93DF93C0E0809133
:103410008602C81760F00E94DC19C0E08091860225
:10342000C81778F00E94031ADF91CF91089560E0E9
:103430008C2F0E94E31961E08C2F0E94E319CF5F6B
:10344000E6CF60E08C2F0E94F619D82F61E08C2F18
:103450000E94F619EC2FF0E0E857FD4F880F8D2BF6
:103460008083CF5FDBCF81E0809386020E94041AC5
:1034700008951F93CF93DF93182FE42FEE0F6E2B39
:10348000C82FD0E0DE01A857BD4FEC918E2F83707E
:10349000681721F1EE0FEE0FE62BEC93EF70F0E0E2
:1034A000EE52FE4FC957DD4F80819881890F888386
:1034B000843024F060E0812F0E94871988818D3F3D
:1034C00024F461E0812F0E9487198881082E000C66
:1034D000990B64E070E00E94A7278883DF91CF9169
:1034E0001F910895CF93DF93C0E080918602C817A3
:1034F00018F0DF91CF91089561E08C2F0E94F619AA
:10350000D82F60E08C2F0E94F6194D2F682F8C2F3A
:103510000E94391ACF5FE9CF539A08954BB1477F84
:103520005BB15860EFB7F8949B01220F331F260F51
:10353000371F280F391F2817390741F4EFBF8FE5D0
:1035400094E00197F1F700C000000895DC016D914F
:10355000CD0178E05BB9000000C067FF4BB9660F92
:10356000000000C000C000C04BB900C07A9591F7C0
:10357000E2CFCF93DF93EB0186319C4711F50E9498
:103580007E0B9D81992399F08A7A91E009F490E06D
:1035900090938902811109C089E20E94B31F0E94A1
:1035A0000D0C80E0DF91CF91089585E3F6CF8091F7
:1035B0008902811104C089E20E94BB1FF0CF85E31C
:1035C000FBCF81E0EFCFCF93DF93EC01FB0185814F
:1035D000882309F4D2C09E0130572332310508F008
:1035E000B2C00E948C0C9093AD028093AC02FE019D
:1035F000E150F047E232F10520F4E656F64D0C9426
:10360000DD278091AC0281608093AC0293C08091F1
:10361000AD0288608093AD028DC08091AC02826063
:10362000F3CF8091AC028460EFCF8091AC028860D0
:10363000EBCF8091AD028160EDCF8091AD028260D1
:10364000E9CF8091AC028061DFCF8091AC028062D3
:10365000DBCF8091AC028064D7CF0E940B078091B2
:10366000AC028068D1CF8091AC028C60CDCF8091CC
:10367000AD028360CFCF8091AC028E7FC5CF8091A9
:10368000AD02877FC7CF8091AC028D7FBDCF809187
:10369000AC028B7FB9CF8091AC02877FB5CF809190
:1036A000AD028E7FB7CF8091AD028D7FB3CF809179
:1036B000AC028F7EA9CF8091AC028F7DA5CF809187
:1036C000AC028F7BA1CF0E940B078091AC028F7759
:1036D0009BCF8091AC02837F97CF8091AD028C7F8E
:1036E00099CF8091AC0282FB992790F921E0922733
:1036F00090FB82F990FB83F987CF8091AD02982FE0
:10370000909591708E7F892B90FB81F983CF90915A
:10371000AC02892F8F7B96FF806476CF0E940B07C7
:103720009091AC02892F97FB87F980586DCF81E08B
:103730000E94150D8091AC029091AD020E94910CF7
:103740000E940B0780E0DF91CF91089580E0F0CFD9
:103750009091AC02892F8F7E94FF806155CF90911C
:10376000AC02892F8E7F90FF81604ECF9091AD0289
:10377000892F877F93FF88604DCF81E0E4CF282F8A
:1037800035EB2303C001112497FF04C08058910931
:10379000892F089580589F4FFBCF8091900280FF22
:1037A0000DC060911E0170E0660F771F60387105D3
:1037B00070F56115710569F1862F089581FF07C0C5
:1037C00060911E0184E0689FB0011124EFCF6091E9
:1037D0001E0182FD0AC080918F028823A9F02091EA
:1037E0001D0160911E01821710F088E0ECCF869FCA
:1037F000C001112433E0880F991F3A95E1F7622F39
:1038000070E00E94A727D2CF68E070E0D5CF8FE7A5
:10381000089581E008958091900280FF0CC060912E
:103820001A0170E075956795759567956115710535
:1038300049F1862F089581FF06C060911A0170E05A
:1038400075956795F3CF60911A0182FD0BC0909139
:103850008E029923A1F06091190180911A019617A7
:1038600038F0682F70E06038710500F38FE7089535
:10387000899FC001112470E00E94A727F4CF61E066
:1038800070E0D7CF81E008958D3C31F40E94CD1BCC
:1038900081958093940208958E3C19F40E94CD1B6B
:1038A000F8CF8F3C31F40E94CD1B81958093930219
:1038B0000895803D19F40E94CD1BF8CF893D29F46D
:1038C0000E940B1C8093950208958A3D21F40E946A
:1038D0000B1C8195F7CF8B3D31F40E940B1C819519
:1038E0008093960208958C3D19F40E940B1CF8CF2A
:1038F0009FE2980F983070F4815D990B21E030E0E1
:1039000001C0220F8A95EAF780919202822B809360
:10391000920208958D3D31F48091900281608093F0
:10392000900208958E3D21F4809190028260F7CF3D
:103930008F3DB9F7809190028460F1CF409193025E
:103940008D3C59F48091940287FF0DC0109294022F
:1039500041110BC010928F0208C08E3C81F48091FF
:10396000940218169CF3442381F080919502909163
:103970009602892B09F05AC010928E0208958F3C4E
:1039800049F447FFF0CF1092930280919402811185
:10399000ECCFE0CF803D19F41416ACF3E4CF909156
:1039A0009502893D29F41916F4F610929502DBCFA1
:1039B0008A3D19F497FFD7CFF8CF909196028B3DAF
:1039C00029F497FFD0CF10929602CDCF8C3D19F4F9
:1039D0001916CCF3C8CF9FE2980F983090F4815D10
:1039E000990B21E030E0B90102C0660F771F8A957C
:1039F000E2F7CB0180959091920289238093920205
:103A0000B2CF8D3D31F4809190028E7F80939002F1
:103A1000AACF8E3D21F4809190028D7FF7CF8F3D0C
:103A200009F0A1CF809190028B7FF0CF08950E9482
:103A30009B209C019091930280919402982B21F0FD
:103A400030938D0220938C02909195028091960282
:103A5000982B21F030938B0220938A0281E992E027
:103A60000E940B1F089586E0E1E9F2E0DF011D925C
:103A70008A95E9F710928F0210928E0210929002AE
:103A80000895FC01828181110EC0838181110BC0D8
:103A90008481811108C091E08581811101C090E08D
:103AA000892F8170089581E0FCCFA6E0B0E0EBE5BE
:103AB000FDE10C94232886E0E1E9F2E0DE011196B5
:103AC00001900D928A95E1F7109293021092940260
:103AD00010929502109296028B819C81892B89F01D
:103AE00080918C0290918D020E94B320AC01909144
:103AF0008F029923C9F180911F018417150608F4DC
:103B000040C08D819E81892B91F080918A02909195
:103B10008B020E94B320AC0190918E02992309F48C
:103B20006AC080911B018417150608F472C0BE019B
:103B30006F5F7F4F81E992E00E94CE1F811105C027
:103B400081E992E00E94411D81110E94171D86E0CB
:103B5000FE013196A1E9B2E001900D928A95E1F75C
:103B60002696E3E00C943F28209120018AE0289FCC
:103B7000900111242417350720F69F5F90938F0240
:103B800002C09F3FD1F71B81112359F00E94CD1B2A
:103B90009FEF11160CF491E0899F802D11248093E2
:103BA00093021C81112359F00E94CD1B9FEF111627
:103BB0000CF491E0899F802D1124809394028091D0
:103BC0009302882309F49DCF10919402112309F4E4
:103BD00098CF0E94BF1B882351F080939302812FBE
:103BE0000E94BF1B882329F0809394028ACF81E032
:103BF000F4CF81E0F9CF20911C018AE0289F900149
:103C000011242417350708F092CF9F5F90938E02FE
:103C100002C09F3FD1F71D81112359F00E940B1C58
:103C20009FEF11160CF491E0899F802D1124809351
:103C300095021E81112359F00E940B1C9FEF111653
:103C40000CF491E0899F802D11248093960280913D
:103C50009502882309F46BCF10919602112309F481
:103C600066CF0E94BF1B882351F080939502812F5D
:103C70000E94BF1B882329F08093960258CF81E0D1
:103C8000F4CF81E0F9CF0F931F93CF93DF93C42F2D
:103C9000D22FFC0185818823C9F0409399020E94AC
:103CA0009B20909398028093970280E28C0F88303B
:103CB00040F4C77081E001C0880FCA95EAF70E94FE
:103CC000B804DF91CF911F910F910895109199023F
:103CD000141332C080919702909198020E94B320F1
:103CE000883C910548F5C0E2CD0F1D17B9F080E280
:103CF000810F883040F4177081E001C0880F1A9559
:103D0000EAF70E94BF04C83048F481E09D2F977005
:103D100001C0880F9A95EAF70E94B804802F0E948C
:103D2000AF04C83070F6D77081E001C0880FDA9513
:103D3000EAF70E94BF04C5CF80E28C0F883008F6F6
:103D4000C77081E001C0880FCA95EAF7F2CF0F93E0
:103D5000DB0188519C4787309105A0F5FC01E454B4
:103D6000F64D0C94DD2706E221EE41EE6AE17CE798
:103D7000CD010E94431E80E00F91089507E225EED9
:103D800045EE6BE17CE7F4CF06E221EE40EE68E120
:103D90007CE7EECF07E225EE44EE69E17CE7E8CF71
:103DA00006E221EE42EE6CE17CE7E2CF07E225EE8F
:103DB00046EE6DE17CE7DCCF08E221E045EE6EE106
:103DC0007CE7D6CF15968C91882319F01092990232
:103DD000D3CF81E0D1CF90939F0280939E0208952C
:103DE000E0919E02F0919F02309729F00190F081BE
:103DF000E02D0995089580E008950E94F01E089531
:103E0000E0919E02F0919F02309721F00280F381B1
:103E1000E02D09950895E0919E02F0919F02309760
:103E200039F022E0DC012C930680F781E02D099522
:103E30000895A3E0B0E0EFE1FFE10C942428209185
:103E40009C0230919D0228173907A1F090939D02A2
:103E500080939C02E0919E02F0919F02309751F076
:103E600023E029839B838A830084F185E02DCE01A2
:103E7000019609952396E2E00C944028A3E0B0E077
:103E8000E4E4FFE10C94242820919A0230919B02F3
:103E900028173907A1F090939B0280939A02E09132
:103EA0009E02F0919F02309751F024E029839B837A
:103EB0008A830084F185E02DCE0101960995239631
:103EC000E2E00C94402840910401509105019A01D0
:103ED0002E5F3F4F485F5F4F80E02417350709F49E
:103EE0000895F90191919F019923B9F38F5FF5CF5F
:103EF000882371F02091040130910501F901329677
:103F0000285F3F4F9191981729F0E217F307D1F7F7
:103F100080E0089581E008959C01FC0132969FEFB6
:103F200080E04191461751F09F3F19F4411101C0C3
:103F3000982F8F5F8630A9F79F3F09F40895290FC6
:103F4000311D97FD3A95F90162830895FC0132967F
:103F500008962191261303C0DF0111971C92E817E0
:103F6000F907B9F70895682F809104019091050130
:103F70000E948C1F0895682F809104019091050183
:103F80000E94A61F0895E0910401F0910501329668
:103F900086E0DF011D928A95E9F70895DC01FB01B7
:103FA00011969C9111978181981322C012968C9141
:103FB0001297882319F0928189131AC013968C9155
:103FC0001397882319F09381891312C015968C9149
:103FD0001597882319F0958189130AC014969C912E
:103FE000992321F081E02481291303C080E001C0DE
:103FF00081E08170089508950E94FB1F089581114A
:1040000006C081E08093A0020E94FC1F089582E018
:10401000F9CF83E08093A0020E94FC1F08950E94C4
:10402000FF1F089581E08093A0020E94FC1F089565
:104030000E9412200895089508950E941C2008955A
:10404000089508950E941B2008950E9420200E9438
:10405000B9100E94212080E00E94371091E0811168
:1040600001C090E0892F089585B7806885BF85B726
:10407000806885BF08951F921FB61F9211248F93E9
:104080009F93AF93BF938091A102811113C0809140
:10409000C4029091C502A091C602B091C702419698
:1040A000A11DB11D8093C4029093C502A093C602C6
:1040B000B093C702BF91AF919F918F911F901FBE88
:1040C0001F9018958091CC02843031F10E94260314
:1040D0001092A10288E190E020E40FB6F894A89530
:1040E000809360000FBE2093600083B7817F84605F
:1040F00083BF83B7816083BF7894889583B78E7FB1
:1041000083BF0FB6F894A895809160008861809372
:104110006000109260000FBE08950E940B070E947D
:104120002D03089582E084BD93E095BD9AEF97BD7D
:1041300080936E0008952FB7F8948091C4029091F7
:10414000C502A091C602B091C7022FBF08952FB734
:10415000F8946091C4027091C5028091C60290915A
:10416000C7022FBF08959C014FB7F8948091C402F5
:104170009091C502A091C602B091C7024FBF821BA9
:10418000930B089578941F921FB61F9211248F935A
:104190009F93AF93BF938091C4029091C502A09169
:1041A000C602B091C7020196A11DB11D8093C40241
:1041B0009093C502A093C602B093C702BF91AF917E
:1041C0009F918F911F901FBE1F90189587E797E7CB
:1041D000909301088093000888E19AE00FB6F89464
:1041E000A895809360000FBE90936000FFCF88E198
:1041F0009AE00FB6F894A895809360000FBE909354
:104200006000FFCF8091AA02089508959B01BA0132
:104210009091CC029430E9F48F708093E9009FEF85
:104220008091E800915085FD06C085ED8A95F1F7F3
:1042300000009111F5CF8091E80085FF0AC050E0A1
:1042400040E0C9010E9400238091E8008E778093AE
:10425000E800089543E050E0BC0182E00E9406219E
:10426000089546E050E0BC0182E00E9406210895D6
:10427000CF93DF93EC0148E050E0BC0181E00E9465
:10428000062188E0FE01A2EAB2E001900D928A9533
:10429000E1F7DF91CF9108958091CB02811109C0A0
:1042A0000E9490240E94ED248091E200846080931B
:1042B000E20008951092CB0208950E941220089502
:1042C0006091C80281E0611101C080E00E94092074
:1042D00008959091CC0281E0943009F080E06091E3
:1042E000C8020E940F20089542E061EC81E00E9424
:1042F0000C2442E261EC82E00E940C249091CC02FA
:1043000081E0943009F080E06091C8020E94FF1FB4
:1043100008958091CE02833009F461C030F4813079
:10432000D1F1823009F49EC008958A3009F48AC020
:104330008B3009F46FC0893009F050C08091CD02F4
:10434000813209F04BC08091D1029091D202029744
:1043500008F044C08091E800877F8093E800809156
:10436000E80082FF37C09091F3008091F20002973D
:1043700031F48091F100813011F0863021F4809188
:10438000F1008093AA028091E8008B778093E80087
:104390000E94402423C08091CD02813AF9F480919B
:1043A000E800877F8093E8008091D1029091D2024B
:1043B000892B61F468E082EA92E070E00E944F236A
:1043C0008091E8008B778093E800089560E090E0AA
:1043D00080E0F3CF8091CC028111C1CF089580910C
:1043E000CD02813AD9F78091D1029091D202892BE6
:1043F000A9F78091E800877F8093E8008091E8002A
:1044000080FFFCCF80912B018093F1008091E80028
:104410008E77BCCF8091CD02813201F78091D1029D
:104420009091D202892BD1F68091E800877F80930A
:10443000E8000E9440248091CF0280932B010E94CB
:104440000B0708958091CD02813241F68091E800FA
:10445000877F8093E8000E9440248091D00280935F
:10446000AB0208958091CD02813A09F0B7CF8091D7
:10447000E800877F8093E8008091E80080FFFCCF10
:104480008091AB02C1CF84B7877F84BF0FB6F89409
:10449000A895809160008861809360001092600010
:1044A0000FBE80E890E00FB6F8948093610090937F
:1044B00061000FBE0E94182008950E9490240E945F
:1044C000ED24E2EEF0E080818460808378940E94A5
:1044D0006C27089581E291E00E94EB1E089580917F
:1044E000CC02853031F48091CC02853019F00E94E5
:1044F0008D2008950E9462200E942520882399F330
:104500008091CA02882379F30E94EA220E940B0755
:10451000EACF08959A014091D3025091D4020E94AB
:1045200092220895492F55274330510519F168F417
:104530004130510509F444C04230510509F445C0E9
:1045400090E080E050E040E025C04132510549F163
:1045500042325105A9F784E490E048EC53E061153C
:104560007105C1F08BE790E04DE453E061307105D7
:1045700089F0E6CF99278130910581F0009729F0E5
:104580000297F1F6EAEDF2E002C0ECEFF2E084917E
:1045900090E0AF01F901518340830895EEEEF2E01F
:1045A000F6CF89E090E042E153E06115710591F3A7
:1045B00089E090E04BE253E06130710559F3C0CFE0
:1045C00082E190E04BE353E0E5CF8BE390E040E005
:1045D00053E0E0CF80E189BD82E189BD09B400FEEE
:1045E000FDCF8091D8008F7D8093D8008091E0002E
:1045F00082608093E0008091E00081FDFCCF08950F
:10460000AF92BF92CF92DF92FF920F931F93CF93FF
:10461000DF936C01EB018A010E945F24F82E811167
:1046200023C00115110539F0F80180819181C81B63
:10463000D90BC80ED91EB12CA12C2097A9F08091BE
:10464000E80085FD22C08091E8008E778093E80025
:1046500001151105A1F0F80180819181A80EB91E04
:10466000B182A08285E0F82E8F2DDF91CF911F912E
:104670000F91FF90DF90CF90BF90AF9008950E9470
:104680005F248823D1F2F82EEFCFF60181916F01DC
:104690008093F1002197FFEFAF1ABF0ACECFFC0144
:1046A0008091D3029091D40286179707A0F06115EC
:1046B000710529F49091E8009E779093E80090E0CE
:1046C0006115710551F4911108C08091E80082FFD5
:1046D00034C080E00895BC01F2CF8091CC028823E1
:1046E000C1F18530C1F18091E80083FD30C0809137
:1046F000E80082FDEACF8091E80080FFE1CF809161
:10470000F3002091F200382F6115710519F028305F
:10471000310558F091E02830310509F090E0209102
:10472000E8002E772093E800CBCF81918093F100B1
:10473000615071092F5F3F4FE7CF8091CC028823F2
:1047400041F0853041F08091E80083FFBECF81E0E9
:10475000089582E0089583E00895FC018091D302DA
:104760009091D40286179707A0F06115710529F47E
:104770008091E8008E778093E80090E061157105E4
:1047800051F4911108C08091E80082FF35C080E0AB
:104790000895BC01F2CF8091CC028823C9F1853005
:1047A000C9F18091E80083FD31C08091E80082FD6D
:1047B000EACF8091E80080FFE1CF8091F300209163
:1047C000F200382F6115710519F02830310558F0C5
:1047D00091E02830310509F090E08091E8008E7773
:1047E0008093E800CBCF84918093F10031966150A3
:1047F00071092F5F3F4FE6CF8091CC02882341F0B3
:10480000853041F08091E80083FFBDCF81E00895BD
:1048100082E0089583E00895982F973028F08F70F4
:104820008093E90081E008959093E900242F762F8A
:1048300050E0981731F07091EC002091ED0050910C
:10484000F00021FD02C09F5FE8CF3091EB003E7F7A
:104850003093EB003091ED003D7F3093ED003091CF
:10486000EB0031603093EB007093EC002093ED008F
:104870005093F0002091EE0027FDE5CF80E00895F1
:104880008091CD0287FF13C08091E80082FF06C0AF
:104890008091E8008B778093E80004C08091CC027F
:1048A0008111F2CF08958091CC028823D9F38091B1
:1048B000E80080FFF8CF8091E8008E77ECCF209160
:1048C000E4003091E50095E6A9012091EC00822FEB
:1048D000817020FF06C08091E80080FF06C080E064
:1048E00008952091E80022FD1AC08091CC0288230F
:1048F00089F0853089F08091EB0085FD0FC0209113
:10490000E4003091E50042175307F9F29150E1F6C7
:1049100084E0089582E0089583E0089581E0089599
:104920000E94FF240E940725E0EEF0E08081816074
:104930008083E8EDF0E080818F77808319BCA7ED5C
:10494000B0E08C918E7F8C9380818F7E80831092DB
:10495000CB0208950F931F93CF93DF930E94FF2400
:104960000E940725C8EDD0E088818F7788838881F1
:104970008068888388818F7D888319BC1092CC02DF
:104980001092C8021092CA021092C90200EE10E002
:10499000F80180818B7F808388818160888342E0F9
:1049A00060E080E00E940C24E1EEF0E080818E7FE8
:1049B0008083E2EEF0E08081816080838081886086
:1049C0008083F80180818E7F8083888180618883E5
:1049D000DF91CF911F910F910895E8EDF0E0808174
:1049E0008F7E8083E7EDF0E080818160808384E0CA
:1049F00082BF81E08093CB020E94AA240895E8ED53
:104A0000F0E080818E7F80831092E2000895109202
:104A1000DA001092E10008951F920F920FB60F92E4
:104A200011242F933F934F935F936F937F938F93B3
:104A30009F93AF93BF93EF93FF938091E10082FF29
:104A40000BC08091E20082FF07C08091E1008B7F64
:104A50008093E1000E946B278091DA0080FF19C0EB
:104A60008091D80080FF15C08091DA008E7F8093FE
:104A7000DA008091D90080FF96C080E189BD82E193
:104A800089BD09B400FEFDCF81E08093CC020E9475
:104A90004C218091E10080FF19C08091E20080FFED
:104AA00015C08091E2008E7F8093E2008091E20049
:104AB00080618093E2008091D80080628093D8006A
:104AC00019BC85E08093CC020E9460218091E100B6
:104AD00084FF2BC08091E20084FF27C080E189BD64
:104AE00082E189BD89B5982F917080FFFBCF8091BD
:104AF000D8008F7D8093D8008091E1008F7E8093D5
:104B0000E1008091E2008F7E8093E2008091E200DC
:104B100081608093E2008091C802882309F449C033
:104B200084E08093CC020E9469218091E10083FFA0
:104B300029C08091E20083FF25C08091E100877F3A
:104B40008093E10082E08093CC021092C8028091B1
:104B5000E1008E7F8093E1008091E2008E7F809360
:104B6000E2008091E20080618093E20042E060E038
:104B700080E00E940C248091F00088608093F00017
:104B80000E945D21FF91EF91BF91AF919F918F9115
:104B90007F916F915F914F913F912F910F900FBE39
:104BA0000F901F90189519BC1092CC020E945A21A8
:104BB00070CF8091E30087FD93E09093CC02B3CF58
:104BC0001F920F920FB60F9211242F933F934F9382
:104BD0005F936F937F938F939F93AF93BF93CF9385
:104BE000DF93EF93FF93D091E900DF708091EC00A9
:104BF000C82FC17080FDC0E81092E9008091F000DC
:104C0000877F8093F00078940E9424261092E90018
:104C10008091F00088608093F000CD2BCF70C0931E
:104C2000E900FF91EF91DF91CF91BF91AF919F91FB
:104C30008F917F916F915F914F913F912F910F9045
:104C40000FBE0F901F901895AAE2B0E0EAE2F6E2DC
:104C50000C9423288DEC92E02091F100FC0121932B
:104C6000CF01F2E0853D9F07B9F70E94892180912D
:104C7000E80083FF1EC18091CD029091CE029A3050
:104C800008F017C1E92FF0E0ED53F64D0C94DD2745
:104C9000803899F0823809F00CC18091D1028F7070
:104CA000873008F006C18093E9008091EB0085FB16
:104CB000882780F91092E90006C08091C90290917E
:104CC000CA02911182609091E800977F9093E8006A
:104CD0008093F1001092F1008091E8008E77E5C09A
:104CE000882309F4D3C0823009F0E3C08091CF0259
:104CF0008111D6C08091D1028F702FEF280F2630FE
:104D000008F0D7C08093E9002091EB0020FFC8C0D5
:104D1000933031F48091EB0080628093EB00C0C04F
:104D20009091EB0090619093EB0021E030E001C0A6
:104D3000220F8A95EAF72093EA001092EA00809108
:104D4000EB008860EACF8111B4C01091CF021F77C9
:104D50008091E3008078812B8093E3008091E800CC
:104D6000877F8093E8000E9440248091E80080FFC4
:104D7000FCCF8091E30080688093E30082E0111112
:104D800083E08093CC0295C08058823008F091C0B7
:104D90008091CF029091D0028C3D23E09207A1F543
:104DA00083E08A838AE289834FB7F894DE01139601
:104DB00020E03EE051E2E32FF0E050935700E49111
:104DC00020FF03C0E295EF703F5FEF708E2F90E001
:104DD000EA30C0F0C7968D939D932F5F243159F729
:104DE0004FBF8091E800877F8093E8006AE270E01F
:104DF000CE0101960E944F238091E8008B7780932B
:104E0000E80057C0C096E7CF6091D1027091D202FE
:104E1000AE014F5F5F4F0E948A22BC01892B09F4CB
:104E200048C09091E800977F9093E80089819A812B
:104E30000E94AD23E1CF8038E1F58091E800877FC3
:104E40008093E8008091C8028093F10045CF8111E2
:104E500030C09091CF02923060F58091E800877F5A
:104E60008093E8009093C8020E9440248091C80279
:104E7000882311F084E005C08091E30087FDFACF1C
:104E800081E08093CC020E94742113C08091CF02F4
:104E9000813079F481E0933009F080E08093CA0298
:104EA0001092E9008091E800877F8093E8000E94DB
:104EB00040248091E80083FF0AC08091E800877F4A
:104EC0008093E8008091EB0080628093EB00AA96CB
:104ED000E3E00C943F280895CF938091CC0288237F
:104EE000A1F0C091E900CF709091EC00892F817002
:104EF00090FD80E8C82B1092E9008091E80083FDC6
:104F00000E942426CF70C093E900CF910895991B89
:104F100079E004C0991F961708F0961B881F7A95B0
:104F2000C9F780950895AA1BBB1B51E107C0AA1FB2
:104F3000BB1FA617B70710F0A61BB70B881F991F3A
:104F40005A95A9F780959095BC01CD01089597FBDE
:104F5000072E16F4009407D077FD09D00E949327FE
:104F600007FC05D03EF4909581959F4F089570956C
:104F700061957F4F0895A1E21A2EAA1BBB1BFD016C
:104F80000DC0AA1FBB1FEE1FFF1FA217B307E40728
:104F9000F50720F0A21BB30BE40BF50B661F771F80
:104FA000881F991F1A9469F7609570958095909560
:104FB0009B01AC01BD01CF010895EE0FFF1F0590CD
:104FC000F491E02D09940E94EB27332312F48A1BFD
:104FD0009B0B0C94FC27A29FB001B39FC001A39F21
:104FE000700D811D1124911DB29F700D811D112422
:104FF000911D08950E94EB27B7FF0895821B930B24
:1050000008950E94EB27A59F900DB49F900DA49F3B
:10501000800D911D11240895B7FF0C9401280E9462
:105020000128821B930B08952F923F924F925F921B
:105030006F927F928F929F92AF92BF92CF92DF92A8
:10504000EF92FF920F931F93CF93DF93CDB7DEB70D
:10505000CA1BDB0B0FB6F894DEBF0FBECDBF0994A1
:105060002A88398848885F846E847D848C849B84F8
:10507000AA84B984C884DF80EE80FD800C811B8106
:10508000AA81B981CE0FD11D0FB6F894DEBF0FBE35
:10509000CDBFED010895002E083090F0982F872F96
:1050A000762F652F542F432F322F22270850F4CF0D
:1050B000220F331F441F551F661F771F881F991F1C
:1050C0000A95B2F7002D089597FD1094002E083030
:1050D00098F00850232F342F452F562F672F782F05
:1050E000892F912DF4CF159497958795779567958E
:1050F00057954795379527950A95AAF71124002DBE
:1051000008958F929F92AF92BF92CF92DF92EF92CB
:10511000FF92CF93DF93EC01688179818A819B8133
:10512000611571058105910521F464E279ED8BE546
:1051300097E02DE133EF41E050E00E94582949010A
:105140005A019B01AC01A7EAB1E40E9401286B015E
:105150007C01ACEEB4EFA50194010E940F28DC01A4
:10516000CB018C0D9D1DAE1DBF1DB7FF03C0019768
:10517000A109B04888839983AA83BB839F77DF9175
:10518000CF91FF90EF90DF90CF90BF90AF909F9026
:105190008F9008950E948128089580E091E00E94F8
:1051A00081280895B0E0A0E0809300019093010170
:1051B000A0930201B09303010895FC0141505040B7
:1051C00030F001900616D1F73197CF010895882766
:1051D00099270895FB01DC0104C08D91019080198D
:1051E00021F441505040C8F7881B990B0895FB01EA
:1051F000DC0102C001900D9241505040D8F7089553
:10520000F999FECF92BD81BDF89A992780B508958E
:10521000A6E1B0E044E050E00C944A29A8E1B0E0F7
:1052200042E050E00C944A29DC01A40FB51F415024
:10523000504048F0CB01840F951F2E910E942529E4
:1052400041505040D0F70895262FF999FECF92BDD6
:1052500081BDF89A019700B4021639F01FBA20BD3B
:105260000FB6F894FA9AF99A0FBE08950396272F6D
:105270000E9425290E942429252F0E942529242FB8
:105280000C9425290196272F0E9425290C94242966
:10529000DC01CB01FC01F999FECF06C0F2BDE1BDF6
:1052A000F89A319600B40D9241505040B8F70895E5
:1052B000052E97FB1EF400940E946F2957FD07D01E
:1052C0000E94BB2707FC03D04EF40C946F29509525
:1052D0004095309521953F4F4F4F5F4F08959095E2
:1052E0008095709561957F4F8F4F9F4F0895F894EB
:1052F000FFCF0705070557055705BC05D805360537
:105300003605DD054E065D065D06CF18D618DD189C
:10531000E218E718EC18F118F618FB18001905192F
:105320000A190E191319161919191C191F192119FF
:10533000241926193B1BAF1B431B0D1B111B471BBD
:10534000151B4B1B571B211BA81B251B5B1B291B5C
:105350005F1B871B2D1B631B8E1B331B691B711B64
:10536000191B4F1B1D1B531B371B6D1B7D1B971BD5
:10537000A61B071B3F1BB61BC41ECA1EB31EBE1EA8
:10538000D01ED61EDC1E48267026592770265927A7
:0A539000A326C42659271B27272750
:10539A00010000003E020101020004000404011998
:1053AA001A1B1C1D1E1F202122280850011E0A1428
:1053BA000102213821052131212A2101E200E900D7
:1053CA00EA00B500B600B700CD008301CC008A011F
:1053DA0092019401210223022402250226022702B5
:1053EA002A02B300B4006F0070009F01CB019F0234
:1053FA00A002818283E200E900EA00B500B600B7A4
:10540A0000CD008301CC008A01920194012102237C
:10541A000224022502260227022A02B300B4006FE0
:10542A000070009F01CB019F02A0028182839466D3
:10543A0097C6340001020202020606060909090992
:10544A0009090F0F0F0F0F0F15151518191919192B
:10545A0019191919191923242525252525258C1AE1
:10546A008E1A00FF0100010000FFFF000001000189
:02547A00FF0031
:00000001FF
