:100000000C9420020C943D020C943D020C9491221D
:100010000C943D020C943D020C943D020C943D0264
:100020000C943D020C943D020C94B31C0C946F1C78
:100030000C94B01D0C943D020C943D020C943D02B6
:100040000C943D020C943D020C943D020C943D0234
:100050000C943D020C948C1D0C943D020C943D02BA
:100060000C943D020C943D020C943D020C943D0214
:100070000C943D020C943D020C943D020C943D0204
:100080000C943D020C943D020C943D020C943D02F4
:100090000C943D020C943D020C943D020C943D02E4
:1000A0000C943D020C943D020C943D0214001A0085
:1000B00008001500170004001600070009000A00D8
:1000C0001D221B00060019000500E000E200E3000D
:1000D000407E2A00130012000C0018001C002800AB
:1000E0000F000E000D000B003832370036001000F4
:1000F0001100E4006500E700417E2C003A003B005F
:100100003C003D003E003F004000410042004300F3
:100110004422450029002B00437E0100010001001C
:1001200001004C00310030002F002E002D00340063
:10013000330000000000000035328700000000009E
:100140004C00010001000100010001001E001F0021
:10015000200021002200E10000000000000000005B
:10016000000000000000000000000100010001008C
:100170000100010027002600250024002300E500DF
:100180004F005200510050003832370036008700CF
:100190002D0001000100010001000100007C447EEF
:1001A00015701470000020782378257827780000D7
:1001B00021782478267828780000010001000100C9
:1001C000010001004600490000000000000053004B
:1001D000D000CD00CE00CF00000000000000D20013
:1001E000D100010001000100010001007F3F1F64F8
:1001F0003214783C1E0001010101010101010102DC
:1002000002020202020202020303030303030303C6
:100210000404040404040405050505050606060691
:1002200006070707070708080808090909090A0A4D
:100230000A0B0B0B0C0C0C0D0D0D0E0E0E0F0F0FF1
:10024000101011111112121313141415151616177C
:1002500017181819191A1A1B1B1C1D1D1E1E1F20EA
:1002600020212222232424252626272829292A2B37
:100270002C2D2D2E2F30313232333435363738395C
:100280003A3B3C3D3E3F4041424344454647484956
:100290004A4C4D4E4F50515354555658595A5B5D28
:1002A0005E5F616264656668696B6C6D6F707273C6
:1002B0007577787A7B7D7E8082838587888A8C8E2D
:1002C0008F91939596989A9C9EA0A2A3A5A7A9AB5F
:1002D000ADAFB1B3B5B7BABCBEC0C2C4C6C9CBCD51
:1002E000CFD1D4D6D8DBDDDFE2E4E7E9EBEEF0F303
:1002F000F5F8FAFDFFFFAA7F554005010902A101AB
:1003000085020901A1000509190129081500250127
:100310009508750181020501093009311581257F94
:1003200095027508810609381581257F95017508A4
:100330008106050C0A38021581257F950175088113
:1003400006C0C005010906A1018506050719E029B7
:10035000E715002501950875018102050719002997
:10036000EF1500250195F075018102050819012995
:1003700005950575019102950175039101C005016F
:100380000906A101050719E029E7150025019508CF
:10039000750181029501750881010507190029FF82
:1003A000150026FF0095067508810005081901292A
:1003B00005150025019505750191029501750391BB
:1003C00001C009023B00020100A0FA09040000017B
:1003D00003010100092111010001224400070581E8
:1003E00003080001090401000103000000092111B4
:1003F0000100012284000705820320000112010090
:100400000200000008EDFEA1DF200001020001163D
:10041000035200680079006D006500730074006F7E
:10042000006E006500000012036D00610072006B39
:1004300000730061007200640000000403090400FE
:1004400011241FBECFEFDAE0DEBFCDBF11E0A0E088
:10045000B1E0E2E3FAE402C005900D92A236B107E2
:10046000D9F723E0A2E6B1E001C01D92A632B2079F
:10047000E1F70E94D71D0C94C3240C940000482F70
:10048000209122039091E90257E0291302C080E0F5
:10049000089530E0529FF001539FF00D1124E65172
:1004A000FD4F8181681306C08081481303C0858198
:1004B0008111EECF2F5F3F4F2770E7CFFC01AC01DA
:1004C0004C5F5F4F8FEF91E32191822728E030E06E
:1004D00087FF09C0880F892721503109C9F7E41720
:1004E000F50791F70895880FF7CFE8EDF0E08081E8
:1004F0008E7F80831092E2001092DA001092E10069
:10050000A0EEB0E08C9181608C9380818F778083A6
:1005100019BCA7EDB0E08C918E7F8C9380818F7E8B
:1005200080831092D20208952091E4003091E5007A
:1005300095E6A9012091EC00822F817020FF06C072
:100540008091E80080FF06C080E008952091E800D7
:1005500022FD1AC08091DF02882389F0853089F05E
:100560008091EB0085FD0FC02091E4003091E50003
:1005700042175307F9F29150E1F684E0089582E0C2
:10058000089583E0089581E008958091E10287FF56
:1005900013C08091E80082FF06C08091E8008B774D
:1005A0008093E80004C08091DF028111F2CF0895AA
:1005B0008091DF028823D9F38091E80080FFF8CF93
:1005C0008091E8008E77ECCF982F9093E900242F4C
:1005D000762F50E0891731F07091EC002091ED00FA
:1005E0005091F00021FD07C09F5F973071F7809315
:1005F000E90081E008953091EB003E7F3093EB00FD
:100600003091ED003D7F3093ED003091EB00316093
:100610003093EB007093EC002093ED005093F000CA
:100620002091EE0027FDE0CF80E00895B0E0A0E04B
:10063000ECE1F3E00C94B723C8EDD0E088818F7E25
:100640008883E7EDF0E080818160808384E082BF71
:1006500081E08093D20288818E7F888302EE10E051
:10066000F80110821092DA0081EEC82ED12CF6012A
:10067000108288818F7788838881806888838881C9
:100680008F7D888319BC1092DF021092E0021092D5
:10069000DE021092DD0290EEE92EF12CF70180814E
:1006A0008B7F808388818160888342E060E080E086
:1006B0000E94E402F60180818E7F8083F8018081B0
:1006C00081608083808188608083F70180818E7F54
:1006D0008083888180618883CDB7DEB7E8E00C94A1
:1006E000D323FC018091E7029091E80286179707D7
:1006F000A0F06115710529F49091E8009E77909320
:10070000E80090E06115710551F4911108C08091E5
:10071000E80082FF34C080E00895BC01F2CF8091F0
:10072000DF028823C1F18530C1F18091E80083FDAB
:1007300030C08091E80082FDEACF8091E80080FF20
:10074000E1CF8091F3002091F200382F61157105FF
:1007500019F02830310558F091E02830310509F0C2
:1007600090E02091E8002E772093E800CBCF819194
:100770008093F100615071092F5F3F4FE7CF809167
:10078000DF02882341F0853041F08091E80083FF4B
:10079000BECF81E0089582E0089583E00895089532
:1007A00008958091D40208959C014FB7F8948091E8
:1007B000CE029091CF02A091D002B091D1024FBF52
:1007C000821B930B08952FB7F8946091CE0270911D
:1007D000CF028091D0029091D1022FBF08952FB700
:1007E000F8948091CE029091CF02A091D002B09166
:1007F000D1022FBF089590913D019923D1F090919E
:10080000CB0297FF16C0E82FE695E695E695EE3108
:10081000E0F4F0E0E459FE4F282F277081E090E0EB
:1008200001C0880F2A95EAF78095928189238283F7
:100830000895E6E6F1E09191891303C0DF01119775
:100840001C9291E0EC36F907B1F7089590913D01C3
:100850009923C1F09091CB0297FF14C0E82FE69541
:10086000E695E695EE31F8F4F0E0E459FE4F877036
:1008700021E030E001C0220F8A95EAF78281822BC5
:1008800082830895A6E6B1E0EFEF90E02D91821704
:1008900051F0EF3F19F4211101C0E92F9F5F96300D
:1008A000A9F7EF3F09F408950E2E000CFF0BEC5949
:1008B000FE4FE6CF8091C702882359F0E091C9022C
:1008C000F091CA02309729F00190F081E02D09954E
:1008D000089580E008950E94EF039C019091C30267
:1008E0008091C402982B21F03093C0022093BF0264
:1008F0009091C5028091C602982B21F03093BE02E0
:100900002093BD02E091C902F091CA02309749F0EC
:1009100082E08093C1020680F781E02D81EC92E0B5
:10092000099508958091BC0280FD16C081FD16C016
:1009300082FD16C08091BB028823A1F0883280F42A
:1009400028E0829FC001112468E270E00E94F82331
:10095000862F672B39F0089582E0089584E008958A
:1009600088E0089581E008958091BC0280FD14C064
:1009700081FD14C082FD16C08091BA02882381F0E7
:100980008E3180F420E5829FC00111246EE170E079
:100990000E94F823862F089584E1089588E208953F
:1009A00088E0089580E50895282F35EB2303C001E2
:1009B000112497FF04C080589109892F0895805809
:1009C0009F4FFBCF539A0895FA01811101C0FB019B
:1009D00009950895E6E3F2E01182828184608283C2
:1009E0000895609137018091B20280FF0CC070E0E1
:1009F0008091360123E0829FC0011124875C9D4FC6
:100A00000E94C50B0895809138019091390123E02F
:100A1000829FF0011124E75CFD4F891740F7118296
:100A2000108212828F5F3396F8CF9091B20290FFBE
:100A30000EC0909138012091390133E0939FF0016D
:100A40001124E75CFD4F921718F00E94F1040895FD
:100A50008183608342839F5F3396F5CFE2EBF2E0C0
:100A600080818E7F80830E94EA04E6E3F2E0828147
:100A7000816082830E94F10408958091B202982FD0
:100A80009C7F61F4837084608093B2028091B50290
:100A9000873918F086E98093B50208958036B0F35F
:100AA00083708C65F1CFAF92BF92DF92EF92FF928D
:100AB0000F931F93CF93DF93082F162FE901E42F95
:100AC000F0E0EB50FE4F611110C0E4915E2F4E2F0D
:100AD0004983E8835A83DF91CF911F910F91FF9053
:100AE000EF90DF90BF90AF900895E62EF12C4491E7
:100AF000D42EE42FF0E026E0829FC00111242FEFD6
:100B000030E0B9010E94E423802F90E0880F991F04
:100B100055E5569FD001579FB00D11248A1B9B0BA2
:100B2000982F990F890F5901AE18BF08AE9ED001BA
:100B3000AF9EB00DBE9EB00D11245B2F189F80019B
:100B40001124012F11275901A01AB10AAE9E80016C
:100B5000AF9E100DBE9E100D11245901A81AB108A8
:100B6000AE9CC001AF9C900DBE9C900D1124892FAE
:100B70009927281B390B2E9FC0012F9F900D3E9F58
:100B8000900D1124E92F62307105A1F050F4611528
:100B9000710509F49DCF6130710581F0EB2F512F64
:100BA00097CF6430710569F080F06630710509F403
:100BB0008FCFF4CFE42F4B2F592F8ACFE42F412F23
:100BC00087CFEB2F542F492F83CF4B2F5D2DE12F54
:100BD0007FCFA3E0B0E0EFEEF5E00C94BB238C01F7
:100BE0008091B20280FF13C04091B502473908F0EE
:100BF00046E99E012F5F3F4F6091B402F801848166
:100C00000E9453054B8169818A810E941505F80174
:100C100084818F5F84832396E4E00C94D723EF9242
:100C2000FF920F931F93CF93DF93EC018C8181117F
:100C300009C081E08C831092B10292E090933C0154
:100C400080933B01809138019091390123E0829F8C
:100C5000F0011124E75CFD4F891758F110E003E023
:100C600060913A01161758F10E94F10480913B01FE
:100C70002091B102280F2093B10290913C01980F6E
:100C800090933C01191654F4022E000C330B409142
:100C90003A014150550B2417350734F08195809364
:100CA0003B01813009F41C82CDB7DEB7E6E00C943D
:100CB000D5231182108212828F5F3396CDCFE12E21
:100CC000F12C70E0C7010E94F82320913801820FB7
:100CD000482F50E02091B102022E000C330BE21697
:100CE000F306D4F020913C01022E000C330B2E159C
:100CF0003F0594F0809F90011124275C3D4F409167
:100D0000B502473908F046E96091B4028091B30218
:100D10000E9453051F5FA4CFFA01EE0FFF1FE40FDF
:100D2000F51FE75CFD4F118210821282F3CFEF9224
:100D3000FF921F93CF93DF93EC0110E0EE24EA942F
:100D4000F12C60913A01161770F00E94F1049A811B
:100D50008C8190FF2AC08F5F8C83DF91CF911F9190
:100D6000FF90EF90089520913801422F410F5527B1
:100D7000551FCA019A01220F331F280F391F275C04
:100D80003D4F4091B502473908F046E970E0C70190
:100D90000E94F823962F8C816091B402199F800DD8
:100DA00011240E9453051F5FCCCF8150D5CF80E026
:100DB0000895F894E82FE295EF70F0E031A1282F24
:100DC0002F7081E090E001C0880F2A95EAF7982FF4
:100DD0009095932391A392A1892B82A3789408954F
:100DE0000F931F938091C702882329F00E94E30389
:100DF0001F910F9108950E94E30300910602109144
:100E000007022091080230910902600F711F821FB2
:100E1000931FEECF8091C702882319F00E94EF0341
:100E200008950E94F006CB0108959091CB0292FFA5
:100E300010C041E0282F2471243009F040E031E057
:100E4000282F2871283009F030E0431711F02CE0EA
:100E5000822793FF10C041E0282F2471243109F02C
:100E600040E031E0282F2871283109F030E04317A5
:100E700011F02CE082273091CC0230FF10C051E0FD
:100E8000282F2171213009F050E041E0282F2871EE
:100E9000283009F040E0541711F029E0822731FF93
:100EA00010C041E0282F2171213109F040E031E0EC
:100EB000282F2871283109F030E0431711F029E07C
:100EC000822794FD877E089582389105B9F1B0F4A8
:100ED0008133910509F47DC048F48932910509F404
:100EE0006DC08A32910509F47BC008958533910560
:100EF00009F45FC08933910509F10895833E910596
:100F0000D9F138F4803E910529F1823E910579F1BD
:100F10000895863E9105D9F1873E910509F43EC0BA
:100F2000843E910541F52091CC0221FF24C080919F
:100F3000CB0284FD19C087EE90E008952091CB028A
:100F4000237009F05AC02091CC0223FF14C089E21B
:100F500090E008952091CB0220FD38C03091CC0262
:100F600030FF09C024FF43C090E080E00895209145
:100F7000CB0222FDF7CF08952091CB0222FD3AC08B
:100F80003091CC0230FD39C024FFF5CFEDCF209158
:100F9000CB0223FFF0CF24FDE7CFCDCF2091CB02B2
:100FA00023FD2EC03091CC0231FFEECF84EE90E0D5
:100FB00008952091CB0225FFDECFC9CF2091CB022F
:100FC00025FD21C02091CC0223FFD5CF89E390E0FD
:100FD000D2CF2091CB0226FFCECF8AE290E00895B7
:100FE0002091CB0226FFC7CF81E390E0089583EEE6
:100FF00090E0089582EE90E0089580EE90E00895EC
:1010000086EE90E0089585E390E00895972F78307C
:10101000B8F46530A8F48430B0F470E025E0929F15
:10102000600D711D1124FB0198E2899FE00DF11DF7
:101030001124EE0FFF1FE455FF4F85919491089501
:1010400080E090E0089581E0FCCF1F93CF93DF9381
:101050000E946407EC01C11582E5D80708F03FC083
:10106000C11590E5D90708F0C2C0C83ED105C0F44B
:10107000C03ED10580F4C53AD10548F4C430D1054D
:1010800050F4C130D10539F0D0E0C0E004C0CD3C0F
:10109000D105D0F3D065CE01DF91CF911F91089596
:1010A000C11580E4D80708F053C0C11590E2D907F4
:1010B00008F0B7C0C11581E0D80730F38D2F0E942A
:1010C0001507182FCE0199270E946407C12FD0E081
:1010D000DC2FCC27CC27DF71C82BD92BDCCFC03835
:1010E00092E5D907A8F4C03682E5D80708F063C0B6
:1010F000C03492E5D90708F049C0C03282E5D8076C
:1011000088F1CF71D0E0DC2FCC27C16FD06AC3CF7C
:10111000C03C92E5D90780F48C2F8F71C03AD2453C
:1011200008F45EC00E941507C82FD0E0DC2FCC2742
:10113000CC27DF71D062AFCFC03E82E5D80708F080
:10114000A3CFDC2FCC27CC27DF71C06FD06AA3CF11
:10115000CE0199270E946407CC27DF70C82BD92BBA
:10116000D06A99CF2C2F2695269590E2299F900141
:1011700011248C2F8370C1E0D0E002C0CC0FDD1FA2
:101180008A95E2F7C22BD32BDD6885CF2C2F2695CD
:101190002695277080E2289F900111248C2F837060
:1011A000C1E0D0E002C0CC0FDD1F8A95E2F7C22B70
:1011B000D32BDC6870CF2C2F26952695277090E2D4
:1011C000299F900111248C2F8370C1E0D0E002C0D0
:1011D000CC0FDD1F8A95E2F7C22BD32BDA685BCFE9
:1011E000C82FD0E0DC2FCC27C46FD06A54CF8C2F0F
:1011F0008F710E94150755E0D695C7955A95E1F76E
:10120000CF70D0E0DC2FCC27282F30E084FF05C042
:1012100044E0220F331F4A95E1F7C22BD32BD0694C
:101220003ACF8D2F8F710E941507182FCE01992765
:101230000E946407C12FD0E0DC2FCC27CC27DF71C0
:10124000C82BD92B77CF80959091D4019823909378
:10125000D40108958091D4019091AB01892B909194
:10126000AA01992391F0892B90913D01992371F066
:101270009091CB0297FF0AC09EE12EE631E040E05C
:10128000915040F441111092AA01089596E026E68B
:1012900031E0F5CFF90151919F01552389F34F5F5B
:1012A000EFCF809122039091E902981301C0089535
:1012B0008F5F8770FACFB0E0A0E0E1E6F9E00C9430
:1012C000B6237C010091160210911702809114023E
:1012D00090911502082B192BCFE0D0E0CC24C394B9
:1012E000D12CBC2EC6010C2E02C0880F991F0A9467
:1012F000E2F780239123892B49F4219790F7B12CB1
:101300008B2DCDB7DEB7E9E00C94D223B7018C2F3B
:101310000E9406080E942508019779F3F1CFCF9328
:10132000DF93EC010E945B09BE010E9406080E9447
:101330002508DF91CF910895983078F5853068F5CC
:10134000E82FF0E085E0989FE00DF11D11249E2F1D
:10135000977083E0F695E7958A95E1F7EE0FFF1F0A
:10136000EE0FFF1FE257FE4F50E040E080E021917A
:1013700030E0092E02C0369527950A94E2F72170D5
:101380003327042E01C0220F0A94EAF7822B4F5F05
:101390005F4F4430510559F7089580E00895983023
:1013A00098F5853088F5E82FF0E085E0989FE00D0E
:1013B000F11D11248E2F877041E001C0440F8A95E2
:1013C000EAF783E0F695E7958A95E1F7EE0FFF1FC0
:1013D000EE0FFF1FE257FE4F30E020E070E051912A
:1013E000DF011197CB01022E02C0969587950A94D2
:1013F000E2F7817081958527842385278C932F5F61
:101400003F4F2430310559F7089590931702809388
:101410001602089521E030E002C0220F331F8A95A2
:10142000E2F7209530958091160290911702822361
:1014300093230E94050A08959091A901809589231C
:101440008093A901282F277069F4891759F090918A
:10145000CC0292FF07C08695869586950E940A0A5F
:101460001092A901089521E030E002C0220F331F3D
:101470008A95E2F78091160290911702822B932BA6
:101480000E94050A0895909315028093140208950E
:10149000FC0124812223C1F0808191810E948F0967
:1014A00092959F70963091F058F4925F9F709230B1
:1014B00058F4803F19F030F4883E30F481E008950C
:1014C0009A5FF4CF843FD1F380E00895883EB0F373
:1014D000813FD1F7F3CF662309F45DC08D3C41F421
:1014E0000E94B40481958093C4020E946B04089505
:1014F0008E3C19F40E94B404F6CF8F3C31F40E9464
:10150000B40481958093C302F0CF803D19F40E940A
:10151000B404F8CF893D29F40E9492048093C50257
:10152000E4CF8A3D21F40E9492048195F7CF8B3D50
:1015300031F40E94920481958093C602D6CF8C3DEF
:1015400019F40E949204F8CF9FE2980F983070F43B
:10155000815D990B21E030E001C0220F8A95EAF706
:101560008091C202822B8093C202BFCF8D3D31F4A5
:101570008091BC0281608093BC02B7CF8E3D21F484
:101580008091BC028260F7CF8F3D09F0AECF809191
:10159000BC028460F0CF4091C3028D3C59F480912D
:1015A000C40287FF0DC01092C40241110BC01092FB
:1015B000BA0208C08E3C81F48091C40218169CF3D4
:1015C000442381F08091C5029091C602892B09F0D5
:1015D0008CCF1092BB0289CF8F3C49F447FFF0CFEC
:1015E0001092C3028091C4028111ECCFE0CF803D04
:1015F00019F41416ACF3E4CF9091C502893D29F497
:101600001916F4F61092C502DBCF8A3D19F497FF44
:10161000D7CFF8CF9091C6028B3D29F497FFD0CF5A
:101620001092C602CDCF8C3D19F41916CCF3C8CF59
:101630009FE2980F983090F4815D990B21E030E0A3
:10164000B90102C0660F771F8A95E2F7CB0180953A
:101650009091C20289238093C202B2CF8D3D31F4B2
:101660008091BC028E7F8093BC02AACF8E3D21F474
:101670008091BC028D7FF7CF8F3D09F0A1CF809183
:10168000BC028B7FF0CFA6E0B0E0E9E4FBE00C9475
:10169000BC2349835A8349815A819923A1F022238B
:1016A00091F0CA010E945B09182F682F89819A81E5
:1016B0000E94CF0969817A81812F0E9406082696AF
:1016C000E3E00C94D823CA010E949C09182FF2CFA2
:1016D0000F931F93CF93DF938B01EA019091DF0269
:1016E000943061F58093E9008FEF9091E80081508C
:1016F00095FD06C095ED9A95F1F700008111F5CFA3
:101700008091E80085FF1AC00E949402811111C0E7
:101710008091E80085FD06C08091E8008E77809377
:10172000E800F2CFF80181918F018093F1002197B9
:1017300079F78091E8008E778093E800DF91CF9170
:101740001F910F91089546E050E0BC0182E00E9495
:10175000680B089540E250E0BC0182E00E94680BF3
:101760000895CF93DF93EC0148E050E0BC0181E0A5
:101770000E94680B88E0FE01A5EDB2E001900D9299
:101780008A95E1F7DF91CF9108954BB1477F5BB127
:101790005860EFB7F8949B01220F331F260F371FB5
:1017A000280F391F2817390741F4EFBF8FE594E060
:1017B0000197F1F700C000000895DC016D91CD01A3
:1017C00078E05BB9000000C067FF4BB9660F00000E
:1017D00000C000C000C04BB900C07A9591F7E2CFBD
:1017E000B0E0A0E0E6EFFBE00C94B5237C015B01E8
:1017F0006A018091050201E010E08A3010F40AE0ED
:1018000010E0C1E0D0E0B501C701F60109958111F2
:1018100004C021960C171D072CF4CDB7DEB7EAE003
:101820000C94D123CC9F9001CD9F300D300D11240D
:1018300090E080E045E34A95F1F7000001968217B9
:101840009307C1F7E0CF6091B2026695669570E0AC
:101850004BE050E08BE291E00E94A024892B19F428
:1018600081E0809337020E940A07909331028093AF
:101870003002809138028460809338020895B0E08D
:10188000A0E0E5E4FCE00C94B32349015A016B01AC
:101890007C010E943D058401A4016A2D7B2D88E016
:1018A00090E00E947E2494014A2D5B2DB601C70171
:1018B00000E20E942D24622F83E290E00E946C24BB
:1018C000CDB7DEB7ECE00C94CF23A3E0B0E0EBE6BD
:1018D000FCE00C94B623082FE62EF42EC22E809145
:1018E000B20280FF45C02091B302201308C090913E
:1018F000B402961304C09091B502941729F0909108
:101900003802926090933802E82FE695E695AE2F64
:10191000B0E0A75BBE4F9C91909336028C7F8430E1
:1019200059F54F2D66E96F1508F446E99E012F5FC2
:101930003F4F6E2D802F0E9453054B8169818A8114
:101940000E9415050093B302E092B402F092B50232
:10195000CC2071F02091B2026091B6027091B70272
:10196000302FA7018091B8029091B9020E943F0CDC
:101970002396E9E00C94D2239230C1F19530B1F175
:101980009E3001F7EE507E2F7170B72EE695F0E095
:10199000EB50FD4F1491D12C60913A01D61618F0FE
:1019A0000E94F104CFCFD19EC001112470E00E94AB
:1019B000E423802FB11018C0860F20913801622FC8
:1019C0006D0D7727771F9B01220F331F260F371FBF
:1019D000275C3D4F4F2D76E97F1508F446E96E2DC3
:1019E0000E945305D394D8CF861BE7CF022FAACFEE
:1019F000E2EBF2E0438128E0421B08F440E021E002
:101A0000628181810E94650C0895E2EBF2E04381DE
:101A100028E0420F08F44FEF21E0628181810E94AB
:101A2000650C0895E2EBF2E0628128E0621B08F4A5
:101A300060E021E0438181810E94650C0895E2EB22
:101A4000F2E0628128E0620F08F46FEF21E0438149
:101A500081810E94650C0895E2EBF2E0818121E032
:101A60004381628188500E94650C0895E2EBF2E0A8
:101A7000818121E043816281885F0E94650C089525
:101A80008091B602882319F081508093B60220918C
:101A9000B2023091B3024091B4025091B50260910C
:101AA000B6027091B7028091B8029091B9020E947B
:101AB0003F0C08958091B602833018F48F5F8093B5
:101AC000B6022091B2023091B3024091B40250911B
:101AD000B5026091B6027091B7028091B802909100
:101AE000B9020E943F0C08959091B20290FF3AC053
:101AF0009370811138C094609093B2028091380243
:101B0000816080933802662391F02091B202309177
:101B1000B3024091B4025091B5026091B602709147
:101B2000B7028091B8029091B9020E943F0C609177
:101B3000B2026695669570E04BE050E08BE291E072
:101B40000E94A024892BB9F00E94EA0481E08093CE
:101B5000330220E04091B5026091B4028091B3025B
:101B60000E94650C0895883110F09C65C5CF880FE0
:101B7000880F982BC1CF0E94230CE8CF8091B2022E
:101B800086958695815009F487E161E00E94740D85
:101B900008958091B202869586958F5F883108F00E
:101BA00081E061E00E94740D08959091B20290FF6F
:101BB00009C096959695981728F0961718F40E94E4
:101BC000C90D089561E00E94740D0895E2EBF2E002
:101BD00085E0808311828FEF828386E9838314827C
:101BE000A6E3B2E012968C911297836012968C93C2
:101BF000758125E030E04FEF56E960E086819781FE
:101C00000E943F0C08959091CC0292FB222720F96C
:101C1000281779F080FB92F99093CC026091CB0267
:101C20007091CC0284E090E00E948A2482E00E94BD
:101C30001C0A0895A4E0B0E0E0E2FEE00C94BC23AE
:101C40004091E9015091EA016091EB017091EC0142
:101C50002FB7F8948091CE029091CF02A091D0023C
:101C6000B091D1022FBF841B950BA60BB70B11E0CF
:101C700084369105A105B10570F10E94F0066E5FF2
:101C80007F4F8F4F9F4F69837A838B839C83809193
:101C900011019091120183519E4F4091100150E02B
:101CA0004530510510F044E050E0BE016F5F7F4FBA
:101CB0000E94BA2482E090E00E943723182F8823E4
:101CC00051F00E94E3036093E9017093EA0180936D
:101CD000EB019093EC01812F2496E3E00C94D82340
:101CE000ABE0B0E0E6E7FEE00C94BD2388E0E2EB79
:101CF000F2E0DE01119601900D928A95E1F7809154
:101D0000360290913702A091380289879A87AB8773
:101D10002B85409101025091020260910302709163
:101D200004023FB7F8948091CE029091CF02A09127
:101D3000D002B091D1023FBF841B950BA60BB70B0D
:101D400084369105A105B10510F4222319F1809183
:101D5000190190911A0183519E4F4091180150E052
:101D60004C30510510F04BE050E0BE016F5F7F4FEB
:101D70000E94BA2483E090E00E943723882369F010
:101D80000E94E303609301027093020280930302B6
:101D9000909304021092380281E02B96E2E00C94BA
:101DA000D923EF92FF921F93CF93DF9300D000D0FF
:101DB0000F92CDB7DEB77B0190E080E00E94372321
:101DC000182F882309F46DC04091030150E041159C
:101DD000510511F041E050E060910401709105015E
:101DE00063517E4FCE0105960E94BA244091E501D1
:101DF0005091E6016091E7017091E8012FB7F894E6
:101E00008091CE029091CF02A091D002B091D102E8
:101E10002FBF841B950BA60BB70B84369105A1052C
:101E2000B10538F48EEE91E00E945E029D81891723
:101E3000C1F181E090E00E943723882309F458C063
:101E400040910B0150E04530510510F044E050E066
:101E500060910C0170910D0163517E4FCE0101968E
:101E60000E94BA248EEE91E00E945E029D81891349
:101E70003FC00E94E3036093E5017093E601809305
:101E8000E7019093E80189819A81AB81BC818093BD
:101E9000E1019093E201A093E301B093E40111E02A
:101EA0000EC08091EE019091EF01A091F001B091F0
:101EB000F10189839A83AB83BC831111E4CF8091B4
:101EC000E1019091E201A091E301B091E401F701F9
:101ED00080839183A283B383812F0F900F900F9003
:101EE0000F900F90DF91CF911F91FF90EF90089589
:101EF00010E0E5CFA3E1B0E0E0E8FFE00C94B2230E
:101F00008E01045F1F4F88E0D8011D928A95E9F782
:101F100080E4C82E81E0D82EF12CE12CAA24A394D1
:101F2000B12C29E4822E21E0922EF60181916F01DD
:101F30008F3F09F442C0F894E82FE295EF70F0E08B
:101F400021A18F70A50102C0440F551F8A95E2F7A9
:101F5000CA01922F982B91A392A18095892382A3E5
:101F6000789400C0E4E4F1E0712C31E021912F3F3E
:101F700009F498C0A22FA295AF70B0E090968C9112
:101F800090E02F7002C0959587952A95E2F780FD25
:101F900089C0832F782A330F8E169F0639F7F601F2
:101FA000319780818F3F11F00E94D90650EA5A95EF
:101FB000F1F7F801EE0DFF1D70828FEFE81AF80AB5
:101FC000A4E0EA16F10409F0B0CF48E050E0B8010F
:101FD0008AE092E00E94AD24009741F028E0F801E9
:101FE000AAE0B2E001900D922A95E1F70091130268
:101FF00010E0055E1D4F892B09F456C081E08093E7
:10200000D9010E94EF039093D8018093D701F12C5E
:10201000E090C702EE2009F4A1C019821A821B8247
:102020001C82809105028A3008F062C041ED5EE0BA
:10203000BE016F5F7F4FC8010E94F00B882309F437
:102040007CC04AE15EE0BE016F5F7F4FC8010E9425
:10205000F00B882309F471C040E75EE0BE016F5FBA
:102060007F4FC8010E94F00B882309F466C01092CC
:1020700005028091120290E044E050E0BE016F5FE3
:102080007F4F855E9D4F0E94AD2421E02093E001AB
:10209000892B09F044C0E12C8E2D8F296396EDE049
:1020A0000C94CE2380E076CFF090D901FF2009F484
:1020B000AECF8091D7019091D8010E94D4030597AB
:1020C00008F4A5CF44E050E06AE072E0C8010E9445
:1020D000AD24892B59F084E0EAE0F2E0D8010190C8
:1020E0000D928A95E1F71092D90192CFF12CFBCF96
:1020F0008091DA019091DB010E94D403843F9140EA
:1021000008F094CF8091E001882329F284E0FE0159
:102110003196DF011D928A95E9F71092E001E09176
:102120001202F0E0E55EFD4F89819A81AB81BC81AE
:1021300080839183A283B383AFCF809105028F3FC9
:1021400031F08F5F809305028A3008F492CF0E94AD
:10215000EF039093DB018093DA01D4CF84E0F801A0
:10216000AEEEB1E001900D928A95E1F78EEE91E02E
:102170000E945E028093ED018090F2019090F30145
:10218000A090F401B090F5018091DC019091DD0107
:10219000A091DE01B091DF0188169906AA06BB0660
:1021A000B1F08092DC019092DD01A092DE01B0924C
:1021B000DF010E94E303861A970AA80AB90A8092EF
:1021C000060290920702A0920802B09209028BE0E8
:1021D000E6EFF1E0DE01119601900D928A95E1F7AC
:1021E0009981892F86958695DA80CB80BC800A8577
:1021F0001B8510920002112309F44ECF10FF0AC074
:1022000090FF1CC09091B20291609093B20260E086
:102210000E94740D11FF06C020E04B2D6C2D8D2DFA
:102220000E94650C12FF04C0002359F00E94230C89
:1022300013FF32CF81E0809333022ECF0E942E0510
:10224000E9CF0E94EA04F4CF80913D01882359F13F
:102250008091CB0287FF27C00E942A0980936D01DD
:1022600040E250E06CEA71E08CE691E00E94AD241F
:10227000892BC1F080E2ECE6F1E0ACEAB1E001903C
:102280000D928A95E1F7E091C902F091CA02309768
:1022900049F086E080936C010480F581E02D8CE6A6
:1022A00091E0099508950E942A098093640148E00D
:1022B00050E06CEC71E084E691E00E94AD24892B43
:1022C00089F388E0E4E6F1E0ACECB1E001900D9236
:1022D0008A95E1F7E091C902F091CA02309711F3B3
:1022E0000280F381E02D84E691E0DBCF1092D401EF
:1022F00080913D018823F9F08091CB0287FF1BC0BC
:10230000EEE6F1E08EE1DF011D928A95E9F7109289
:10231000AB010E94241186E0E1ECF2E0DF011D92A6
:102320008A95E9F71092BA021092BB021092BC0291
:102330000E946B040895E6E6F1E086E0E4CFAAE2AD
:10234000B0E0E5EAF1E10C94BC2381EE92E020914B
:10235000F100FC012193CF01F2E0893E9F07B9F71C
:102360008091E202833009F470C0B8F4813009F43E
:1023700047C0823009F4B1C08091E80083FF7EC27B
:102380008091E1029091E2029A3008F077C2E92F41
:10239000F0E0EB53FB4D0C940C248A3009F48CC014
:1023A0008B3009F46FC0893039F78091E1028132B6
:1023B00019F78091E5029091E6020297E8F6809184
:1023C000E800877F8093E8008091E80082FF38C0B2
:1023D0009091F3008091F200029731F48091F10026
:1023E000813011F0863021F48091F1008093D40285
:1023F0008091E8008B778093E8000E94C502BCCFF3
:102400008091E102813A09F0B7CF8091E800877F9F
:102410008093E8008091E5029091E602892B61F4B7
:1024200068E085ED92E070E00E9471038091E80021
:102430008B778093E800A0CF60E090E080E0F3CF5E
:102440008091DF028111C0CF97CF8091E102813A64
:1024500009F092CF8091E5029091E602892B09F074
:102460008BCF8091E800877F8093E8008091E8001F
:1024700080FFFCCF80913D018093F1008091E800C6
:102480008E77B9CF8091E102813209F075CF8091CA
:10249000E5029091E602892B09F06ECF8091E80069
:1024A000877F8093E8000E94C5028091E3028093B9
:1024B0003D010E94761160CF8091E102813209F0E6
:1024C0005BCF8091E800877F8093E8000E94C5027F
:1024D0008091E4028093D3024FCF8091E102813A50
:1024E00009F04ACF8091E800877F8093E8008091CF
:1024F000E80080FFFCCF8091D302BECF803899F0F6
:10250000823809F0BBC18091E5028F70873008F0F6
:10251000B5C18093E9008091EB0085FB882780F9A5
:102520001092E90006C08091DD029091DE029111C7
:1025300082609091E800977F9093E8008093F1008B
:102540001092F1008091E8008E7794C1882309F4FD
:1025500082C1823009F092C18091E302811185C16C
:102560008091E5028F702FEF280F263008F086C18A
:102570008093E9002091EB0020FF77C1933031F484
:102580008091EB0080628093EB006FC19091EB0033
:1025900090619093EB0021E030E001C0220F8A951A
:1025A000EAF72093EA001092EA008091EB0088603D
:1025B000EACF811163C11091E3021F778091E3009C
:1025C0008078812B8093E3008091E800877F80935F
:1025D000E8000E94C5028091E80080FFFCCF809156
:1025E000E30080688093E30082E0111183E0809330
:1025F000DF0244C18058823008F040C18091E3027C
:102600009091E4028C3D23E09207A1F583E08A8358
:102610008AE289834FB7F894DE01139620E03EE00A
:1026200051E2E32FF0E050935700E49120FF03C004
:10263000E295EF703F5FEF708E2F90E0EA30C0F0D0
:10264000C7968D939D932F5F243159F74FBF80918B
:10265000E800877F8093E8006AE270E0CE0101968F
:102660000E9471038091E8008B778093E80006C197
:10267000C096E7CF4091E5025091E602292F33271B
:102680002330310509F444C078F52130310509F4CF
:102690006FC08BE390E0E2ECF3E02230310509F00B
:1026A000EDC02091E800277F2093E8002091E70209
:1026B0003091E8028217930708F49C0140E021154D
:1026C000310509F064C0411162C08091E80082FDCB
:1026D000C9CF8091DF02882329F2853019F28091D9
:1026E000E80083FFF2CFBECF21323105A9F12232BB
:1026F000310509F0C3C04115510509F443C041300B
:10270000510509F0BBC084E890E0EAEFF2E0C9CFE0
:10271000992781309105C1F0009759F0029709F08F
:10272000ADC0EFE0F4E0E4918E2F90E0EFE0F4E054
:1027300007C0EBE3F4E0E4918E2F90E0EBE3F4E0EC
:10274000009709F49BC0ADCFE7E2F4E0E4918E2F4F
:1027500090E0E7E2F4E0F4CF4115510571F041302B
:10276000510509F08BC089E090E0EDEEF3E099CFE0
:1027700082E190E0EDEFF3E094CF89E090E0E4EDCA
:10278000F3E08FCF84E490E0EEE7F3E08ACF80912E
:10279000DF02882309F466CF853009F463CF809186
:1027A000E80083FD5FCF8091E80082FD8ECF8091AD
:1027B000E80080FF84CF9091F3008091F200211512
:1027C000310519F08830910550F041E0089709F083
:1027D00040E08091E8008E778093E80070CF4491CC
:1027E0004093F1003196215031090196E8CF8038AD
:1027F00009F044C08091E800877F8093E8008091D1
:10280000E0028093F1009ECE811138C01091E30266
:102810001230A0F58091E800877F8093E800109344
:10282000E0020E94C502112311F084E005C08091EE
:10283000E30087FDFACF81E08093DF0242E061ECA4
:1028400081E00E94E40242E261EC82E00E94E40244
:102850008091DF0213C08091E302813079F481E03E
:10286000933009F080E08093DE021092E9008091BD
:10287000E800877F8093E8000E94C5028091E8000D
:1028800083FF0AC08091E800877F8093E8008091F1
:10289000EB0080628093EB00AA96E3E00C94D823CF
:1028A0000E9476112FEF84E39CE0215080409040FD
:1028B000E1F700C0000088E19AE00FB6F894A8950F
:1028C000809360000FBE90936000FFCF882339F0A3
:1028D0009091AB01982B9093AB010E942411089525
:1028E000882321F00E9423090E942411089588233F
:1028F00039F09091D401982B9093D4010E94241127
:1029000008958823F1F09CEF980F913A28F40E94E3
:10291000FB030E942411089590E2980F983050F420
:10292000877091E001C0990F8A95EAF7892F0E947C
:102930002309EFCF93E3980F933118F460E00E94DE
:102940006B0A0895CF93C82F8823B1F18CEF8C0FB9
:10295000813AA0F580913D01882301F18091CB025D
:1029600087FF1CC0EC2FE695E695E695F0E0E4596C
:10297000FE4F828190E04C2F477021E030E002C092
:10298000220F331F4A95E2F782239323892B79F094
:102990008C2F0E94FB030E94241109C0E6E6F1E09F
:1029A0008191C817A9F381E0EC36F807C9F78C2F9D
:1029B0000E9426040E942411CF91089580E28C0F7A
:1029C000883068F4C77021E030E001C0220FCA955A
:1029D000EAF78091D401822B8093D401EBCF83E37B
:1029E0008C0F833148F761E08C2F0E946B0AE4CF93
:1029F0000F931F93CF93DF93C62FD42F022FFC0189
:102A000085818823A9F0609325030E94EF039093AA
:102A1000240380932303C77081E001C0880FCA9507
:102A2000EAF70E947714DF91CF911F910F910895DB
:102A300080912503681335C080912303909124036E
:102A40000E94D403883C910560F510E21D0FCD175C
:102A5000B9F080E28C0F883040F4C77081E001C08B
:102A6000880FCA95EAF70E947014183048F481E084
:102A70009D2F977001C0880F9A95EAF70E947714EE
:102A8000802F0E94A214802F0E948114183058F6C3
:102A9000D77081E001C0880FDA95EAF70E947014C0
:102AA000C2CFC77081E001C0880FCA95EAF7F6CFA0
:102AB000B0E0A0E0EEE5F5E10C94B5238C01FC015B
:102AC0008481882309F459C021E0408151816281C9
:102AD000738195810E94430BEC01F8018581C1341B
:102AE000FEE7DF0709F452C078F4C0343EE7D307AD
:102AF00019F1FE01E851FC47E730F10508F07FC00D
:102B0000E153FB4D0C940C24C3349EE7D90709F420
:102B100045C0C434EEE7DE0761F78823F9F00E9470
:102B2000E60D8091B20281608093B20261E08695E9
:102B300086950E94740D12C0882321F181E00E94C5
:102B4000330A80911602909117029C012670332758
:102B50002630310509F588600E94050A8091A90197
:102B6000877059F0F8018581882339F08091CC0273
:102B700082FF03C082E00E941C0ACDB7DEB7EAE004
:102B80000C94D12381E00E940A0ADBCF882311F044
:102B900082E0D5CF82E0F7CF877FDECF882369F050
:102BA0008091CB0282FD04C081E90E94A214D6CF9D
:102BB00084E00E94661485E3F8CF81E90E948114C5
:102BC000CDCF26E241EE61EEC8010E94F814C6CFD7
:102BD00027E245EE65EEF8CF26E241EE60EEF4CF57
:102BE00027E245EE64EEF0CF26E241EE62EEECCF56
:102BF00027E245EE66EEE8CF28E241E0EBCF8823FE
:102C000009F4C2C310922503CE019057839708F0B0
:102C1000A7C384E090E00E9456249093CC02809356
:102C2000CB02FE01E150F047E232F10520F4EA5216
:102C3000FB4D0C940C248091CB0281608093CB02DD
:102C400095C08091CC0288608093CC028FC0809127
:102C5000CB028260F3CF8091CB028460EFCF809172
:102C6000CB028860EBCF8091CC028160EDCF809168
:102C7000CC028260E9CF8091CB028061DFCF80916E
:102C8000CB028062DBCF8091CB028064D7CF0E94E1
:102C900076118091CB028068D1CF8091CB028C607D
:102CA000CDCF8091CC028360CFCF8091CB028E7F3D
:102CB000C5CF8091CC02877FC7CF8091CB028D7F1B
:102CC000BDCF8091CB028B7FB9CF8091CB02877F24
:102CD000B5CF8091CC028E7FB7CF8091CC028D7F13
:102CE000B3CF8091CB028F7EA9CF8091CB028F7D15
:102CF000A5CF8091CB028F7BA1CF0E9476118091CE
:102D0000CB028F779BCF8091CB02837F97CF80912F
:102D1000CC028C7F99CF8091CB0282FB992790F9CE
:102D200021E0922790FB82F990FB83F987CF809175
:102D3000CC02982F909591708E7F892B90FB81F912
:102D400083CF9091CB02892F8F7B96FF806476CFC3
:102D50000E9476119091CB02892F97FB87F98058BA
:102D60006DCF61E08EE090E00E946C246091CB0218
:102D70007091CC0284E090E00E948A240E94761137
:102D8000EDCE60E0EFCF9091CB02892F8F7E94FF44
:102D9000806154CF9091CB02892F8E7F90FF81600C
:102DA0004DCF9091CC02892F877F93FF88604CCFC5
:102DB00085E3E5C285E3F1C28091B20280FFB3CE24
:102DC000282F2E7F2093B2023091B3024091B4029B
:102DD0005091B5026091B6027091B7028091B8022D
:102DE0009091B9020E943F0C0E94EA04809138023F
:102DF0008160809338020E94F104B0CE4EEB5DE01A
:102E000069EC7DE00E94E404A9CE49EC5DE06EEB44
:102E10007DE0F8CF4CE25DE066E37DE0F3CF46E392
:102E20005DE06CE27DE0EECF42E15DE06FE17DE0F0
:102E3000E9CF4FE15DE062E17DE0E4CF48EF5CE0A7
:102E400065E07DE0DFCF45E05DE068EF7CE0DACF74
:102E500040E45DE06AE57DE0D5CF4AE55DE060E411
:102E60007DE0D0CF61E081E064CE64E082E00E944A
:102E7000D50D74CE6AE085E0FACF6DE08BE0F7CF38
:102E800067E18EE0F4CF0E947611FFEF24E33CE08F
:102E9000F15020403040E1F700C0000087E797E79D
:102EA000909301088093000888E19AE00FB6F894A7
:102EB000A895809360000FBE90936000FFCF6FEFE6
:102EC0007FEF90E080E00E948A240E94501480915D
:102ED000CC0282FB882780F991E089270E94030EAB
:102EE000F8018581C081D181882309F44DC0CE01CC
:102EF0000E945B09F82E682FCE010E94CF09BE0107
:102F00008F2D0E9406080E942508F82EC92FA82E92
:102F1000F801C580B680B2949FE0B9228091A901E2
:102F2000877009F1EC2CCC20F9F08C2F807F803455
:102F300069F080E28F0D8830B0F08C2F807E803277
:102F400029F4F1E0FF1578F4BB2069F08091CC0200
:102F500082FF09C082E00E941C0A8091A90187704B
:102F6000EE24E3948111E12CDC2ED2948FE0D82260
:102F70002BE02D1508F46AC0ED2DF0E0E850FB4D74
:102F80000C940C2480E0AACFCE010E949C09F82E5C
:102F9000B6CFDC2FDF70C07F11F0D295D07FCC2070
:102FA000B9F0DD2369F080E28F0D883010F0A110B8
:102FB00009C08091D401D82BD093D4010E94241150
:102FC0008F2D42C08091AB01D82BD093AB01F6CFAF
:102FD0008F2D0E948114DD23C9F180E28F0D88308E
:102FE00010F0A11004C08D2F0E94230906C0D095B7
:102FF0008091AB01D823D093AB010E94241126C04D
:10300000DC2FDF70C07FC03211F0D295D07FAA20B4
:1030100059F031E0A31609F478C0CC2009F484C03B
:10302000BB2009F446C0CCCF8091CC0282FD3DC0CC
:10303000CC20A9F1DD2339F08091D401D82BD09395
:10304000D4010E94241180E00E94A214ED2DE850CA
:10305000FF0B349710F40E945A04EE20A9F08091DF
:10306000A90180FD11C0F801158286958695869587
:103070000E94330AC8010E9458158091A9018695C3
:10308000869586950E940A0A20E0F80140815181C8
:1030900062817381848195810E94430B6ECD80E0B3
:1030A0000E948114DD2391F29ECFCC20A1F0B110BB
:1030B00004C08D2F0E947714C9CF81E0B812C6CF0B
:1030C0008091AA019D2F9823D91709F4BFCFD82B3F
:1030D000D093AA01BBCFB110B9CF8D2F0E9470142D
:1030E0009091AA018D2F892329F08D2F8095892316
:1030F0008093AA0180918D019D2F982309F4A6CF7A
:10310000D095D823D0938D01A1CFCC2029F095E084
:103110009B1508F49BCFCDCFE4E0EB1508F496CFD8
:103120008D2F0E94701492CFBB20D1F3F9E3AF1220
:1031300010C12FEF37EE83E0215030408040E1F79F
:1031400000C0000006C16C2D8F2D0E946B0A7ECF3F
:103150008C2F837009F03FC0C11078CF4F2D42955E
:1031600046954770440F440F2F2D2F7030E0042EEA
:1031700002C0220F331F0A94E2F790E080E0F4FED1
:1031800009C08FE090E002C0880F991F4A95E2F7CE
:1031900080959095C695C695C370C23099F078F425
:1031A0004091140250911502C13039F0822B932BBB
:1031B000842395230E94430A49CF242B352B822B4D
:1031C000932BF8CF822B932B209114023091150270
:1031D00082279327EFCF8695CC2011F08C2F81701A
:1031E000882309F433CF4F2D429546954770440FFD
:1031F000440F2F2D2F7030E0042E02C0220F331FFA
:103200000A94E2F790E080E0F4FE09C08FE090E0DD
:1032100002C0880F991F4A95E2F780959095C69550
:10322000C695C370C23099F078F44091160250915F
:103230001702C13039F0822B932B842395230E94EF
:10324000050A04CF242B352B822B932BF8CF822B0E
:10325000932B209116023091170282279327EFCFEC
:10326000CF70CC2029F08C2F0E94330A8F2D22CFD3
:103270008F2D0E9470148C2F0E940A0AE7CE8F2D8A
:1032800092EFA91699F19A1570F0E0EFAE16D1F011
:10329000F1EFAF1691F0CC2009F456C0B11090CEEA
:1032A0008C2F8F7127C023EFA21639F134EFA312B0
:1032B000F2CF9091CC0292FD2EC08C2F8F71CC203A
:1032C000D9F218C0CC2069F084E08B1508F4BECE8A
:1032D000CF7181E090E002C0880F991FCA95E2F794
:1032E000B8CF95E09B1508F4B1CEF2CF8C2F8F713B
:1032F000C110C2CF0E94330AA9CE90E080E0CC205A
:1033000009F49DCFCF7181E090E002C0880F991F32
:10331000CA95E2F794CFCC2061F08C2F8F7192FF89
:10332000E9CFE8E08E9F9001112423602093A9014A
:10333000E1CF81E00E941C0AF1E0FB1508F086CE87
:1033400082E00E941C0A82CEBB2039F0893309F446
:10335000F0CE8F2D0E94811479CE8C2F8F718CCF5F
:10336000C631FCE7DF07E1F48091D4018A7A91E06D
:1033700009F490E090938C0181111ACD89E20E94AA
:1033800026040E942411EACBC6312CE7D20741F56E
:1033900080918C0181110ECD89E20E94FB03F1CF57
:1033A000C3303CE7D30709F48ACD50F4C1159CE73C
:1033B000D90709F468CDC130DC4709F486CD90CD3A
:1033C000CB35FCE7DF0709F4DDCDCC352CE7D207A0
:1033D00009F47DCDCA35DC4709F082CD81E07ECD90
:1033E0008091D4018272FE01E052F847E531F10587
:1033F00008F076CDEC5FFA4D0C940C24CF93DF935C
:103400008091A801807F09F04DC08091A701882399
:1034100009F448C0E09122035091E902C091A30150
:10342000D091A2016091A4017091A50147E05E17BF
:10343000C9F18E2F90E0E49FF0011124E651FD4F79
:103440002481222391F1489FF001499FF00D11241E
:10345000DF01A651BD4F11962C9111972C1325C059
:103460002C912D1322C015962C91159721111DC05A
:1034700012962D913C91261B370B283C3105A8F460
:103480008091A8018F7080618093A801E051FD4F69
:1034900080818F708061808382EA91E00E9458155C
:1034A0000E945109DF91CF910895FC013196E77098
:1034B000BECFA4E1B0E0EFE5FAE10C94B3238C01B8
:1034C00086E0F801DE011F9601900D928A95E1F7E2
:1034D000F8018481E58092EAA92E91E0B92E9091BD
:1034E000A601911128C0882319F1EE20F1F0C8013E
:1034F0000E94480AF82E8823C1F087E0F801D50120
:1035000001900D928A95E1F78091A601813031F406
:103510008091A2019091A3010E948F090E94FE193F
:103520008F2D6496ECE00C94CF23C8010E945815AF
:10353000FF24F394F5CFD080C18082809380F090F7
:10354000A7012091A4013091A501A401421B530BB6
:10355000FF2009F4D9C0483C510508F092C08823E7
:10356000F9F29091A3018091A801282F207F09F002
:1035700056C0C91214C09091A201D91210C0E11016
:1035800048C08F7080618093A80182EA91E00E9418
:1035900058158091A801F8018683F12CC1CFE11064
:1035A00038C06C2D8D2D0E943F026C2D8D2D0E94F8
:1035B0003F02E82E8111F1CFDF86C88A8F85988976
:1035C0000E948F09292F22952F70243058F49F7064
:1035D000223088F0992399F0F8019681907F79F450
:1035E000FE2C9ECF2A5F2F70223068F0C8010E9407
:1035F0005815EF2CF5CF992311F0882389F3805EBD
:10360000883070F3F3CF803F58F3815F833070F7D9
:10361000E7CF8091A80181608093A801BECFC91235
:1036200007C09091A201D91203C0EE2009F48DC009
:10363000C8010E94480A882309F477CFEE2009F4D4
:1036400074CF8091A801803288F02091A20130913E
:10365000A301398728879B868A869091A6019C873B
:103660001D868E87CE0108960E94581587E0F801C6
:10367000A2EAB1E001900D928A95E1F70E94FE194D
:1036800057CF9091A801292F207F51F482EA91E031
:103690000E94581587E0F50111928A95E9F77DCFD0
:1036A000882309F43DCF8091A3018C1110C0809133
:1036B000A201D8120CC0E1100AC09683C8010E9472
:1036C000581587E0F50111928A95E9F729CFC801CD
:1036D0000E94480A882309F428CFEE2009F425CF58
:1036E0008091A801803210F22091A2013091A301B3
:1036F0003A8329839C828B829091A6019D831E82AE
:103700008F83CE010196B0CF483C5105D0F6882377
:1037100009F40ECFFE2CEE2009F407CF8091A3010F
:103720008C1120C08091A201D8121CC08091A801E8
:1037300080FD0FC0982F907F61F08683903F31F01D
:10374000982F907F905F8F70892B8683C8010E948D
:10375000581587E0F801A2EAB1E001900D928A9530
:10376000E1F7DECEC8010E94480A81117FCF809127
:10377000A80181608093A801C8010E945815D0CE8D
:10378000ABE1B0E0E6ECFBE10C94BB234E8B5F8B2E
:10379000688F798F8A8F9B8F192F91111092AB01AF
:1037A0001D8A86E0FE017696DE011F9601900D923D
:1037B0008A95E1F70A8D002341F021E04F85588971
:1037C00069897A89C8010E94430B0B8B1C8B87E0A7
:1037D000FE013F96DE01189601900D928A95E1F761
:1037E000CE0108960E94591A81112AC087E0FE0175
:1037F0003896DE01119601900D928A95E1F78C853D
:103800008823F1F02091E90230E0C9010196877028
:1038100099274091220348171906E9F097E0929FF3
:10382000D001939FB00D1124A651BD4FFE013196DA
:1038300001900D929A95E1F78093E9020E94510957
:1038400017E0809122039091E902891312C06B96D0
:10385000E4E00C94D7230E9476111092E9021092B2
:10386000220387E0E2EAF1E0DF011D928A95E9F7A1
:10387000E7CF819FC001112486519D4F0E94591AA4
:10388000882329F38091220390E00196877099277D
:1038900080932203D6CFA6E0B0E0E1E5FCE10C94F2
:1038A000BB230E94EF038C018091D5019091D6013A
:1038B0008017910781F019821A820E94EF03682F06
:1038C00049815A81792F80E090E00E94C01B1093BB
:1038D000D6010093D5012696E4E00C94D7231F92DD
:1038E0000F920FB60F9211242F933F934F935F9334
:1038F0006F937F938F939F93AF93BF93CF93DF93F8
:10390000EF93FF93D091E900DF708091EC00C82F16
:10391000C17080FDC0E81092E9008091F000877FBF
:103920008093F00078940E949F111092E90080919A
:10393000F00088608093F000CD2BCF70C093E90039
:10394000FF91EF91DF91CF91BF91AF919F918F91B7
:103950007F916F915F914F913F912F910F900FBE8B
:103960000F901F9018951F920F920FB60F9211246F
:103970002F933F934F935F936F937F938F939F9377
:10398000AF93BF93EF93FF938091E10082FF09C053
:103990008091E20082FF05C08091E1008B7F8093DF
:1039A000E1008091DA0080FF24C08091D80080FF80
:1039B00020C08091DA008E7F8093DA008091D90058
:1039C00080FF9DC080E189BD82E189BD09B400FE10
:1039D000FDCF81E08093DF028091D202811109C086
:1039E0000E9475020E9416038091E2008460809319
:1039F000E2008091E10080FF17C08091E20080FF2B
:103A000013C08091E2008E7F8093E2008091E200FB
:103A100080618093E2008091D80080628093D8001A
:103A200019BC85E08093DF028091E10084FF2BC008
:103A30008091E20084FF27C080E189BD82E189BDD9
:103A400089B5982F917080FFFBCF8091D8008F7D32
:103A50008093D8008091E1008F7E8093E100809177
:103A6000E2008F7E8093E2008091E200816080938B
:103A7000E2008091E002882309F447C084E080934B
:103A8000DF028091DF028091E10083FF27C08091F7
:103A9000E20083FF23C08091E100877F8093E100F3
:103AA00082E08093DF021092E0028091E1008E7F3D
:103AB0008093E1008091E2008E7F8093E20080910C
:103AC000E20080618093E20042E060E080E00E94DA
:103AD000E4028091F00088608093F000FF91EF9104
:103AE000BF91AF919F918F917F916F915F914F9116
:103AF0003F912F910F900FBE0F901F90189519BCFA
:103B00001092DF021092D20274CF8091E30087FD01
:103B100093E09093DF02B5CF78941F921FB61F9267
:103B200011248F939F93AF93BF938091CE02909176
:103B3000CF02A091D002B091D1020196A11DB11D7A
:103B40008093CE029093CF02A093D002B093D10283
:103B5000BF91AF919F918F911F901FBE1F9018959D
:103B60001F921FB61F9211248F939F93AF93BF9301
:103B70008091CD02811113C08091CE029091CF022D
:103B8000A091D002B091D1024196A11DB11D8093A8
:103B9000CE029093CF02A093D002B093D102BF91F6
:103BA000AF919F918F911F901FBE1F901895CDB719
:103BB000DEB72E970FB6F894DEBF0FBECDBF85B728
:103BC000806885BF85B7806885BF84B7877F84BFDD
:103BD0000FB6F894A895809160008861809360008A
:103BE000109260000FBE80E890E00FB6F8948093CA
:103BF0006100909361000FBE87ED96E090936301A2
:103C0000809362010E9475020E9416038091E20077
:103C100084608093E20078948091DF028823A1F091
:103C20001091E9001F709091EC00892F817090FD38
:103C300080E8182B1092E9008091E80083FD0E9433
:103C40009F111F701093E90082E084BD93E095BD41
:103C50009AEF97BD80936E001092060210920702B1
:103C600010920802109209028091D800806180931E
:103C7000D8002AE12A95F1F700C08091D900182FC9
:103C8000117080FD04C00E9475021092DF02109333
:103C9000C7021093C80210932001112309F49AC19E
:103CA0001092360184E1809337010E944B2280916B
:103CB00020018091200194E0811190E09093130203
:103CC00084E0891B8093120284EF0E94D90685EF5D
:103CD0000E94D90686EF0E94D90687EF0E94D90676
:103CE00004E411E079E4E72E71E0F72ED8018D911C
:103CF0008D018F3F11F00E94D906E016F106B1F751
:103D000088E0EBE1F2E0DF01282F1D922A95E9F728
:103D1000EAE0F2E0DF011D928A95E9F790E080E0A9
:103D20000E945624853E9E4F09F461C065EE7EEFE9
:103D300090E080E00E948A2460E082E090E00E94AF
:103D40006C2481E090E0909315028093140261E06E
:103D500083E090E00E946C2460E074E184E090E0F5
:103D60000E948A2460E086E090E00E946C2460E07B
:103D700087E090E00E946C2440E050E0BA0188E0C7
:103D800090E00E947E2460E083E290E00E946C2438
:103D900060E08CE090E00E946C2460E08DE090E0B8
:103DA0000E946C2419821A821B821C821D821E8230
:103DB0001F82188648E050E067E170E0CE0101966E
:103DC0000E945C2440E050E0BA018FE190E00E9444
:103DD0007E2440E050E0BA018FE090E00E947E2413
:103DE00040E050E0BA0183E190E00E947E2482E04E
:103DF00090E00E9448248093230284E090E00E9497
:103E000056249093CC028093CB0283E090E00E94F2
:103E1000482490E00E94430A80911802811173C0E7
:103E200088E090E00E9450244B015C0183E290E026
:103E30000E944824282F30E040E050E060E070E02D
:103E400080E090E000E20E941224282939294A29C2
:103E50005B292093B2023093B3024093B402509393
:103E6000B5026093B6027093B7028093B802909344
:103E7000B902809138028360809338022C7F89F5E3
:103E80000E94E60D88E090E00E9450246B017C01C6
:103E900083E290E00E944824282F30E040E050E088
:103EA00060E070E080E090E00E941224B22FA32F27
:103EB000F42FE52F5B0197018601BC29A12BFE2978
:103EC000E32BB093B202A093B302F093B402E09359
:103ED000B5026093B602B092B7028093B802909395
:103EE000B9020E943D050E94EA040E94E20480910A
:103EF000B20280FF05C060E0869586950E94740D31
:103F000081E0809318028091C702811102C00E9453
:103F10004E2281E291E09093CA028093C90258E157
:103F2000C52ED12C63E2A62E62E0B62E77247394C0
:103F3000662463948091DF0210E4853009F48FC019
:103F40000E947A0F04E212E04BE1E42E42E0F42EEC
:103F5000D701F80191918D9122E0EC32F20709F43A
:103F60009AC09817B9F32090C702912CD7018D9071
:103F70007D01F80131908F01381429F1512C44242E
:103F800043943824832D8421B1F02220A1F0598656
:103F90009A860E94EF039C878B876D8691E0882D1F
:103FA000842109F490E09E8749855A856B857C853C
:103FB0008D850E94C01B5394440CF5E05F12E2CF44
:103FC000F80131978082939428E09212CFCF0E941B
:103FD000F00665C084E1809336018093370167CE97
:103FE0008091DF02843009F430C00E94EA0480919D
:103FF0001A02811109C070921A028091B202817076
:10400000809319020E942E051092CD020FB6F894EB
:10401000A895C09260000FBE1093600083B7817FA7
:10402000846083BF83B7816083BF7894889583B7AA
:104030008E7F83BF0FB6F894A89580916000886149
:1040400080936000109260000FBE0E947A0FEBE137
:10405000F2E08191811199C1AE16BF06D1F780912E
:10406000DF02853009F4BCCF0E9476110E945A0409
:1040700010921A0280911902882351F08091B202A5
:1040800081608093B20260E0869586950E94740DEF
:104090000E94230C55CF981366CF0E944B1C809131
:1040A0003702882309F464C080913602E091B2029D
:1040B000E695E695E81BE0933202823009F037C1BD
:1040C000F0E0EE50FE4FE4910E2F10E039EEE32EBB
:1040D00035E0F32E80913302882361F01092330291
:1040E0000E940A07909331028093300210923502A9
:1040F000109234020E940A07E0913002F0913102DE
:104100009C012E1B3F0B2F3F3F4790F520912E0225
:104110002223B1F010922E0220912C0230912D0218
:10412000821B930B8F3F9F4758F4205D3A48309392
:104130002D0220932C0280913802886080933802EF
:1041400080903402909035020E0F1F1F10933102A1
:104150000093300280E392E0F701099580913402E8
:1041600090913502892B21F4892811F070922E024A
:1041700086E0E1ECF2E0DE01119601900D928A9565
:10418000E1F79090C2021091C302F090C402E09057
:10419000C5020091C6021092C3021092C40210928E
:1041A000C5021092C602812F8F2909F445C0809163
:1041B000BF029091C0020E94D4039C019091BA0268
:1041C000992309F409C125313105B0F19F3F19F058
:1041D0009F5F9093BA02112359F00E94B4049FEF9D
:1041E00011160CF491E0899F802D11248093C30255
:1041F000FF2059F00E94B40491E01F140CF09FEFCF
:10420000899F802D11248093C4028091C30288234A
:1042100099F08090C402882079F00E94D404882309
:1042200009F4A7C08093C302882D0E94D404882378
:1042300009F4A2C08093C402802F8E2909F445C0DE
:104240008091BD029091BE020E94D4039C01909186
:10425000BB02992309F4BBC021353105B0F19F3F62
:1042600019F09F5F9093BB02EE2059F00E949204D8
:104270009FEF1E140CF491E0899F802D11248093F0
:10428000C502002359F00E94920491E010160CF030
:104290009FEF899F802D11248093C6028091C502D3
:1042A000882399F0E090C602EE2079F00E94D404B1
:1042B000882309F464C08093C5028E2D0E94D40423
:1042C000882309F45FC08093C6028091C2029812CD
:1042D00017C08091C302882311F0181311C02091D8
:1042E000C402222311F02F110BC09091C602992312
:1042F00011F0091305C03091C502332309F462C0DF
:104300000E946B0486E0FE013196A1ECB2E00190C0
:104310000D928A95E1F70E945A0490912F02891715
:1043200009F408CE80932F020E94E30303CE853068
:1043300061F4E695F0E0E151FE4FE4910E2F10E0BC
:1043400027E9E22E26E0F22EC5CE8B3059F4F0E0BC
:10435000E451FE4FE4910E2F10E09FE0E92E96E02D
:10436000F92EB8CE00ED17E08FECE82E83E0F82EA2
:10437000B1CE7092C30258CF7092C4025DCF7092DA
:10438000C5029BCF7092C602A0CF8091DE02882327
:1043900009F465CEE0E1E9BDF2E1F9BD09B400FE42
:1043A000FDCF8091D8008F7D8093D8008091E00070
:1043B00082608093E0008091E00081FDFCCF0E944C
:1043C00076114DCE822B892B09F49CCF99CF2B30BF
:1043D000310508F046CF79CF2B30310508F0F8CE03
:1043E0002BCF8EE14A9B02C08150E1F74A9BFECF62
:1043F00008955A9880E28A95F1F75A9A0895FC0137
:104400003BE03A95F1F798E020E080E031E040E1D0
:104410004A95F1F7880F4A9B02C08160232742E04A
:104420004A95F1F7000040E14A95F1F7915079F78C
:1044300090E19A95F1F799B132E03A95F1F70000E1
:1044400040E14A95F1F792FB992790F99227208154
:10445000920F90830895A1E0B0E0E1E3F2E20C94C2
:10446000B92319828C017C01E60EF11C0E151F0583
:1044700041F481E09981911180E02196E6E00C946D
:10448000D5230E94F121CE0101960E94FF21F8015F
:1044900081938F01EBCF529A5A9A089552985A9A63
:1044A000EA9AE9E6F0E080818F7C8083089561508C
:1044B000770B91E001C0990F6A95EAF720E031E0AF
:1044C000911108C0222391F05A9A80E28A95F1F75F
:1044D0005A980895492F482339F05A9A232740E2E1
:1044E0004A95F1F79695ECCF5A98F9CF5A98EDCFB7
:1044F000FF920F931F93CF93DF93EC018C01060F74
:10450000111DC017D10729F4CDB7DEB7E5E00C9433
:10451000D623F9900E94F92168E08F2D0E9457223E
:10452000F0CF1F920F920FB60F9211240F931F938B
:104530002F933F934F935F936F937F938F939F93AB
:10454000AF93BF93EF93FF93CF93DF930F92CDB7CA
:10455000DEB719820E94F121CE0101960E94FF214F
:10456000082F069506950695282F22952570902FE1
:104570009570290F922F937026952695920F982764
:1045800097708981982B09F05CC0053008F059C0FC
:1045900080E18A95F1F75A9A529A82E08A95F1F76A
:1045A00000C05A9888E0089F80011124D801A050CB
:1045B000BF4F1696ED91FC9117973097A9F0609137
:1045C0003E0170913F0114962D913C911597260F55
:1045D000371F11968D919C911297680F791F139632
:1045E0004C9113978C910995F801E050FF4F63812E
:1045F000662351F020913E0130913F0184819581E5
:10460000820F931F0E9478220E94F92180E18A95EF
:10461000F1F75A9852985A9A80E18A95F1F7F80181
:10462000E050FF4F6081662351F020913E013091B0
:104630003F0181819281820F931F0E942B220E9451
:10464000F1210F90DF91CF91FF91EF91BF91AF9149
:104650009F918F917F916F915F914F913F912F919A
:104660001F910F910F900FBE0F901F9018950F93F1
:104670001F93CF93DF93EC0105970CF04CC0F89497
:10468000529A5A9885E08A95F1F700009C2F9695EA
:1046900095708C2F8570980F892F837096959695BD
:1046A00023E0CC0FDD1F2A95E1F7980F8E01092B2F
:1046B0000E94F92100C068E0802F0E94572280E10B
:1046C0008A95F1F752985A9A4A9B1EC087E090E06B
:1046D0004A991CC0FE01E050FF4F63816623F9F048
:1046E00020913E0130913F0184819581820F931F7B
:1046F0000E942B22811113C0529A5A9A7894DF910A
:10470000CF911F910F91089500C0DECF019729F43A
:10471000529A5A9A789480E0F2CF00C0D9CF0E9482
:10472000F12180E28A95F1F75A98529A80E18A95B0
:10473000F1F7C050DF4F6881662351F020913E01B0
:1047400030913F0189819A81820F931F0E947822C4
:104750000E94F921789481E0D2CF2F923F924F921C
:104760005F926F927F928F929F92AF92BF92CF9201
:10477000DF92EF92FF920F931F93CF93DF93CDB70A
:10478000DEB7CA1BDB0B0FB6F894DEBF0FBECDBF82
:1047900009942A88398848885F846E847D848C8453
:1047A0009B84AA84B984C884DF80EE80FD800C815C
:1047B0001B81AA81B981CE0FD11D0FB6F894DEBF3F
:1047C0000FBECDBFED010895AA1BBB1B51E107C071
:1047D000AA1FBB1FA617B70710F0A61BB70B881F91
:1047E000991F5A95A9F780959095BC01CD01089520
:1047F00097FB072E16F4009407D077FD09D00E948E
:10480000E42307FC05D03EF4909581959F4F0895D1
:10481000709561957F4F0895EE0FFF1F0590F491FD
:10482000E02D0994002E083090F0982F872F762FD6
:10483000652F542F432F322F22270850F4CF220FF9
:10484000331F441F551F661F771F881F991F0A9526
:10485000B2F7002D089597FD1094002E083098F0BF
:104860000850232F342F452F562F672F782F892F4D
:10487000912DF4CF159497958795779567955795D2
:104880004795379527950A95AAF71124002D089585
:10489000F999FECF92BD81BDF89A992780B5089508
:1048A000A6E1B0E044E050E00C949224A8E1B0E02E
:1048B00042E050E00C949224DC01A40FB51F41505B
:1048C000504048F0CB01840F951F2E910E946D241B
:1048D00041505040D0F70895262FF999FECF92BD50
:1048E00081BDF89A019700B4021639F01FBA20BDB5
:1048F0000FB6F894FA9AF99A0FBE08950396272FE7
:104900000E946D240E946C24252F0E946D24242F68
:104910000C946D240196272F0E946D240C946C2416
:10492000DC01CB01FC01F999FECF06C0F2BDE1BD6F
:10493000F89A319600B40D9241505040B8F708955E
:10494000FC014150504030F001900616D1F73197EC
:10495000CF010895882799270895FB01DC0104C041
:104960008D910190801921F441505040C8F7881B67
:10497000990B0895FB01DC0102C001900D9241509A
:104980005040D8F70895F894FFCF7E12A6123E1437
:10499000A6123E14D912FA123E14F7130414EC15A1
:1049A000F015E115E815F415F815FC155516CA169D
:1049B0005D1627162B1661162F16651671163B16F7
:1049C000C3163F16751643167916A11647167D169F
:1049D000A8164D1683168B163316691637166D16E4
:1049E000511687169716B116C11621165916D116EB
:1049F000C917C917001800182618A3182618261852
:104A0000A81830193F193F19DC16FE1605170A17AA
:104A10000F17141719171E17231728172D173217DA
:104A2000AE1535173A17AE153D17AE154017AE1532
:024A3000AE15C1
:104A3200000000010000000000000004010000006E
:104A420004050000000000000B0900000000000047
:104A520001D103B10BAA0BA30BD003010E0F10114E
:104A62001213141516170028002828010201ED015F
:104A7200F4F5F6F7946697C63400010202020505C2
:104A8200050505050B0B0B0E0E0E0E0E0E0E0E0E71
:024A92000E0014
:00000001FF
