:020000040800F2
:10000000000400201D8100081F8100081F810008D6
:100010001F8100081F8100081F8100081F81000840
:100020001F8100081F8100081F8100081DCC0008E7
:100030001F8100081F8100081F8100081F81000820
:100040001F8100081F8100081F8100081F81000810
:100050001F8100081F8100081F8100081F81000800
:100060001F8100081F8100081F8100081F810008F0
:100070001F8100081F8100081F8100081F810008E0
:100080001F8100081F8100081F8100081F810008D0
:100090001F8100081F8100081F8100081F810008C0
:1000A0001F8100081F8100081F8100081F810008B0
:1000B000A1D800081F8100081F8100081F810008C7
:1000C0001F8100081F8100081F8100081F81000890
:1000D0001F8100088DD800081F8100081F810008BB
:1000E0001F8100081F8100081F8100081F81000870
:1000F0001F8100081F8100081F8100081F81000860
:100100001F8100081F8100081F8100081F8100084F
:100110001F8100081F8100081F8100081F8100083F
:100120001F8100081F8100081F8100081F8100082F
:100130001F8100081F8100081F8100081F8100081F
:100140001F8100081F8100081F81000805E40008C6
:100150001F8100081F8100081F8100081F810008FF
:100160001F8100081F8100081F8100081F810008EF
:100170001F8100081F8100081F8100081F810008DF
:100180001F8100081F8100081F8100081F810008CF
:100190001F8100081F8100081F8100081F810008BF
:1001A0001F8100081F8100081F8100081F810008AF
:1001B0001F8100081F8100081F8100081F8100089F
:1001C0001F8100081F8100081F8100081F8100088F
:1001D0001F8100081F8100081F8100081F8100087F
:1080000072B6374880F30888364880F309883648C6
:108010003649086040F20000CCF200004EF63471A0
:10802000CEF200010860BFF34F8FBFF36F8F40F2B5
:108030000000C0F2F0004EF68851CEF20001086058
:10804000BFF34F8FBFF36F8F4FF00000E1EE100AC8
:108050004EF63C71CEF200010860062080F31488D1
:10806000BFF36F8F04F00AFA04F053F94FF0553064
:108070001F491B4A91423CBF41F8040BFAE71D49D6
:10808000184A91423CBF41F8040BFAE71A491B4ACF
:108090001B4B9A423EBF51F8040B42F8040BF8E721
:1080A00000201849184A91423CBF41F8040BFAE7F6
:1080B00004F0E8F904F0E3F9144C154DAC4203DA8E
:1080C00054F8041B8847F9E702F0A6FA114C124D48
:1080D000AC4203DA54F8041B8847F9E704F0D0B93E
:1080E00000040020000C00200000000808ED00E063
:1080F0000000002000040020B8F00008000C002060
:10810000DC0C0020E00C0020AC1C002000800008EB
:1081100000800008008000080080000870E700F080
:1081200000F8FEE72DE9F04F2DED108AC1F80CD0D4
:10813000C3689D46BDEC108ABDE8F08F002383F331
:1081400011882846A047002004F06EFCFEE704F0EA
:10815000A3FB00DFFEE7000053B94AB9002908BFBE
:1081600000281CBF4FF0FF314FF0FF3000F074B912
:10817000ADF1080C6DE904CE00F006F8DDF804E07E
:10818000DDE9022304B070472DE9F047089E04465C
:108190008846002B40F085808A42154648D9B2FABD
:1081A00082F24AB1C2F1200701FA02F320FA07F77E
:1081B000954047EA030894404FEA154E230CB8FB5C
:1081C000FEF71FFA85FC0EFB178843EA084307FBFE
:1081D0000CF1994209D9EB1807F1FF3080F0E380E8
:1081E000994240F2E080023F2B445B1AA4B2B3FBF9
:1081F000FEF00EFB103344EA034400FB0CFCA445E4
:1082000009D92C1900F1FF3380F0CB80A44540F24E
:10821000C88002382C4440EA0740A4EB0C04002735
:108220001EB1D4400023C6E900433946BDE8F087BB
:10823000002A53D0B2FA82F2002A40F0B680491BDD
:108240004FEA154E1FFA85F80127B1FBFEFC230CFF
:108250000EFB1C1143EA014308FB0CF1994207D9BC
:10826000EB180CF1FF3002D2994200F2EC80844608
:10827000591AA3B2B1FBFEF00EFB101443EA0444FA
:1082800008FB00F8A04507D92C1900F1FF3302D2F2
:10829000A04500F2DC801846A4EB080440EA0C403C
:1082A000BEE78B4208D9002E78D00027C6E900012E
:1082B00038463946BDE8F087B3FA83F77FB98B4279
:1082C00002D3824200F2BD80841A61EB03030120D5
:1082D0009846002EA9D0C6E90048A6E7FFDEC7F100
:1082E0002005BB4022FA05FC4CEA030C01FA07F416
:1082F00020FA05F821FA05F34FEA1C4E48EA040477
:10830000B3FBFEF9210C0EFB19331FFA8CF841EA7E
:10831000034309FB08FA9A4502FA07F200FA07F14B
:108320000BD91CEB030309F1FF3080F088809A45DC
:1083300040F28580A9F102096344A3EB0A03A4B2C9
:10834000B3FBFEF00EFB103344EA034400FB08F8D5
:10835000A04508D91CEB040400F1FF336BD2A04503
:1083600069D90238644440EA0940A4EB0804A0FB40
:1083700002894C45C6464B4654D351D0002E69D095
:10838000B1EB0E0264EB030404FA05F522FA07F3DD
:10839000FC401D43C6E90054002746E737463046F7
:1083A00043E7184637E707461FE7C2F1200320FAE4
:1083B00003F7954001FA02F021FA03F34FEA154E54
:1083C0003843010CB3FBFEF71FFA85F80EFB173399
:1083D00041EA034107FB08F38B4204FA02F407D990
:1083E000691807F1FF3C28D28B4226D9023F294465
:1083F000CB1A81B2B3FBFEF00EFB103341EA03410E
:1084000000FB08F38B4207D9691800F1FF3C10D23A
:108410008B420ED902382944C91A40EA074714E7AB
:108420004145ABD2B8EB020E69EB0C0201381346A2
:10843000A4E76046F0E7184695E76746D8E7814627
:108440007BE7384645E7ACF1020C2B4410E70238D5
:108450002C4421E73746E8E6704700BF032A70B492
:1084600012D940EA0105AD0704460B4620D1194652
:10847000204653F8045B54F8046BAE4218D1043A1A
:10848000032A20461946F2D8541E72B103780A789E
:108490009A4208BF241806D00CE010F8013F11F8EA
:1084A000012F934206D1A042F7D1002070BC704743
:1084B000541EEBE7981A70BC704700BF844641EA2F
:1084C000000313F003036DD1403A41D351F8043B4C
:1084D00040F8043B51F8043B40F8043B51F8043B9E
:1084E00040F8043B51F8043B40F8043B51F8043B8E
:1084F00040F8043B51F8043B40F8043B51F8043B7E
:1085000040F8043B51F8043B40F8043B51F8043B6D
:1085100040F8043B51F8043B40F8043B51F8043B5D
:1085200040F8043B51F8043B40F8043B51F8043B4D
:1085300040F8043B51F8043B40F8043B51F8043B3D
:1085400040F8043B51F8043B40F8043B403ABDD2AC
:10855000303211D351F8043B40F8043B51F8043B4E
:1085600040F8043B51F8043B40F8043B51F8043B0D
:1085700040F8043B103AEDD20C3205D351F8043BDD
:1085800040F8043B043AF9D2043208D0D2071CBFA9
:1085900011F8013B00F8013B01D30B8803806046D2
:1085A000704700BF082A13D38B078DD010F0030348
:1085B0008AD0C3F10403D21ADB071CBF11F8013BB8
:1085C00000F8013B80D331F8023B20F8023B7BE707
:1085D000043AD9D3013A11F8013B00F8013BF9D232
:1085E0000B7803704B7843708B78837060467047CC
:1085F000F0B4860746D0541E002A3CD0CAB20346C7
:1086000002E014F1FF3436D303F8012B9D07F8D1B3
:10861000032C29D9CDB245EA05250F2C45EA05459D
:1086200033D9A4F11006360903F1200707EB06172A
:1086300003F1100242E9045542E902551032BA42F0
:10864000F8D1721C14F00C0F03EB021204F00F06A9
:1086500013D0331F23F003030433134442F8045BA5
:108660009342FBD106F003042CB1C9B21C4403F8B9
:10867000011B9C42FBD1F0BC704734461346002CD2
:10868000F3D1F8E714460346C2E71A462646E0E768
:1086900050B9072908D8052A06D8062303FB01216B
:1086A000024B33F8110070470120704790EA000830
:1086B000FFF7EEBF0120704708B5FFF7FBFF08BDCD
:1086C000012070470120704708B5FFF7FBFF08BD88
:1086D000704708B5FFF7FCFF08BD000013B502ABFB
:1086E00003E903000F4B1B78B3B99DF805300098E0
:1086F00073B16AB100F02AFD04460146009800F00B
:10870000F3FC0099204602B0BDE8104001F074BBB4
:1087100000F004FD0446F4E7009800F017FD00990E
:10872000F1E700BFE50C0020034610B400885C8828
:108730000A4640EA044099885DF8044BFFF7CEBF33
:1087400010B501210446FFF7EFFF2146FFF7B4FF04
:1087500010BD10B500210446FFF7E6FF2146FFF7E4
:10876000B8FF10BD0120704708B5FFF7FBFF08BD3B
:1087700010B5044600F0C4FB2046FFF7F5FF46F2B3
:10878000A810BDE8104004F054B908B50120FFF767
:10879000EFFFBDE8084003F07BB908B50020FFF704
:1087A000E7FFBDE8084003F078B938B50121054678
:1087B000FFF7BAFF29460446FFF786FF08B90020F5
:1087C00038BD2946204602F0A3FE0028F7D02946EE
:1087D000204602F0EFFA0028F1D02946204602F0A8
:1087E000C3FA0028EBD06B795BB147F603439C4298
:1087F0001DD00AD8B4F5F84F16D047F601439C4275
:1088000017D02846FFF75CFFDAE747F65B439C4248
:1088100015D047F65C439C420ED047F65A439C4223
:10882000EFD101F097F8ECE7FFF7AFFFC7E701F0F2
:1088300097F8FFF7B2FFC2E701F080F8E1E701F037
:108840008CF8DEE708B503F056F8BDE8084000F004
:108850001FB808B500F021F8BDE8084003F050B893
:10886000704701207047704738B50546FFF7F9FF9C
:10887000044610B12846FFF7F6FF204638BD704782
:1088800010B50446FFF7ECFF2046FFF7EDFF10BDE3
:1088900008B50020FFF7F4FF08BD08B502F08CFE14
:1088A000FFF7EEFF08BD000010B502F085FE074B94
:1088B0001A788242044607D0187003F073F8044B0C
:1088C00018602046FFF7DCFF10BD00BFE40C00205D
:1088D000E00C00201FB56C4684E803009DF80530CD
:1088E0000BB100F02BFF0023ADF80E3094E803002D
:1088F00011F0FF0F0290ADF80C1002AC05D194E816
:10890000030000F075FE04B010BD2046FFF718FF0D
:108910000028F4D1F7E70379012B02D1008800F099
:1089200037BC704708B529B102F0A8FBBDE8084084
:1089300002F086BC02F00EFCF8E7000010B5044619
:10894000002840D0031FDBB2A02B0ED802F0C2FEDD
:1089500020B1204602F048FF00F088FF204602F0D8
:1089600029FFBDE8104000F081BF00F12003DBB219
:10897000072B07D800F007040120A040C0B200F088
:10898000B7FEEEE700F15B03DBB2022B05D80E4A1F
:10899000BDE81040D05C02F03FBE00F15803DBB2EE
:1089A0001A2B06D8094ABDE8104032F8130002F02D
:1089B0004FBE3334E4B2122C05D802F05FFBBDE8A1
:1089C000104002F03DBC10BDF0EA0008F4EA0008D7
:1089D00008B50346A0B3021FD2B2A02A05D802F000
:1089E00003FFBDE8084000F041BF00F12002D2B211
:1089F000072A07D800F0070301209840C0B200F012
:108A00007FFEEEE700F15B02D2B2022A04D800201A
:108A1000BDE8084002F000BE00F15802D2B21A2AA6
:108A200004D80020BDE8084002F012BE3333DBB2A8
:108A3000122B05D802F08EFBBDE8084002F000BC06
:108A400008BD000070B50C460546FFF777FF84B1FE
:108A5000094E40F2E73000214FF47A720023E6FB22
:108A60000401FFF779FB03F0E4FF2846FFF7B0FFAE
:108A700070BD0120F7E700BFA086010008B53928C6
:108A80000CBF50210021FFF7DDFF08BD08B528B15C
:108A900000F02EFEBDE8084000F0E8BE08BD08B5B5
:108AA00028B100F02DFEBDE8084000F0DFBE08BD93
:108AB0002DE9F0478679447980460D4600F008FE9E
:108AC0003609074608B32746FCB1C5F3072303F070
:108AD000F002402A0CD0E9B201F12002D2B2072AFA
:108AE00025D903F0E003202B02D101291FD906B3B9
:108AF000AF4B5F7817F0040707D0022000F0EEFEBE
:108B000000F0E6FD80F00100C7B2C5F303330B2B84
:108B100043D8DFE813F01000100063006300C300C7
:108B2000D90042004200DE003C014F014F01002706
:108B3000EBE73746E9E7C5F30723C5F3032613F050
:108B4000F00F18BF36015FFA85F994B166B109F1EB
:108B50002003DBB2072B304602D9B9F1000F05D153
:108B600000F0C6FD00F082FE48465CE000F0D6FD55
:108B7000F8E74846FFF72CFF7EB109F12003DBB28E
:108B8000072B304602D9B9F1000F02D100F0B8FD31
:108B900001E000F0CBFD00F069FEC5F30335083DB0
:108BA000032D03D802F008FDFFF76AFE002F00F046
:108BB0005A8100F085FD10F0010040F0548188F8E2
:108BC000050000F077FD00F025FA404600F062F95C
:108BD00000F070FDBDE8F04700F028BAC5F30723A8
:108BE00003F0F003C5F30329202B5FFA85FA18BFC1
:108BF0004FEA0919BAF1000F07D0BAF1010F35D0C9
:108C0000002C3DD0E6B150460DE0694B5B7859072A
:108C100014D45CB1B9F1000F04D0484600F068FDEF
:108C200000F024FE0020FFF789FEB6E72046FFF79C
:108C3000CFFEB9F1000FB0D04846A7E754B11EB936
:108C40004846FFF723FFA8E7012EA6D1484600F0CB
:108C500095FDA2E7002EA0D14846FFF720FF484629
:108C600000F09AFD484600F075FD96E714B1052E18
:108C700093D8E5E7042E90D84846FFF710FF8CE71D
:108C8000002EF9D0BAF1390F0CBF4FF4FA50012081
:108C900003F0CFFE5046FFF79BFE7EE7C5F381232E
:108CA00043B1012B7FF479AF64B1C5F3090002F041
:108CB000CFFC72E724B1C5F3090002F0ADFC6CE70C
:108CC0002046FAE72046F2E72146E8B2FFF72AFEFF
:108CD00063E715F4407F29D1002C7FF45EAFEA06EC
:108CE000C5F3421148BF0F244FEA810148BF8C40B1
:108CF00005F00F0048BFE44300FA01F0C5F38123FB
:108D000048BFA4B280B2022B40EA040008D00AD8BF
:108D1000012B02D000F056F93FE700F04BF93CE799
:108D200000F058F939E700F042F936E7C5F30122BF
:108D3000D3B20CB302F00103002B3FF42EAFC5F306
:108D40004210820015F010001CBF0F20904005F06B
:108D50000F0318BFC04303FA02F3C5F3812218BF03
:108D600080B29BB2022A40EA03000AD00CD8012A42
:108D700004D000F07BF910E75B08DDE700F06EF946
:108D80000BE700F07BF908E700F032F905E75FFA3E
:108D900085F9C5F303261CB1304600F03BF94FE7D7
:108DA0004846FFF77CFE304600F040F9F5E600BF8C
:108DB0002C1A00205FFA85F9A9F1F003042B3DD8A5
:108DC000DFE803F003220E151E003CB1042E3FF62F
:108DD000E4AEC5F3042000F035F9DEE6052EF6E733
:108DE000C5F30420002CDFD100F014F9D5E624B13E
:108DF000C5F3042000F007F9CFE600F001F9CCE656
:108E00001A4B5B785B0704D4C5F30420002CCBD04D
:108E1000EAE74CB1C5F30424204600F0FBF8032137
:108E2000204600F039FDB8E6012000F057FD012E84
:108E30007FF6B3AE022000F051FDAEE62CB1002E5D
:108E40007FF492AEC5F30420CEE74EB1B9F1390FED
:108E50000CBF4FF4FA50012003F0EBFD48461AE72F
:108E6000C5F30420A0E7BDE8F08700BF2C1A00205E
:108E700038B501880446407900F096F9054600F0BF
:108E800005F900F093F829462046BDE83840FFF781
:108E90000FBE0000037910B50446B3B1FFF785FC9F
:108EA00068B900F015FC80B1637973B1074B5B784A
:108EB0005B070AD50220BDE8104000F00FBD204638
:108EC000FFF7D6FF2046FFF744FC10BD2C1A002008
:108ED00008B5002002F0A0FB002002F0B9FB00F072
:108EE0002DFC00F0C3FC02F0C7F9BDE8084002F019
:108EF000A7B908B502F092FCBDE80840FFF7E8BF4B
:108F000008B500F005FCBDE80840FFF7F2BFC0F36C
:108F100003320E3202F00F02092A10B5C4B21BD878
:108F2000012101FA02F340F20332134203D113F09C
:108F300010000DD110BDF02C10D004D8E72C8CBF40
:108F400000200120F6E7F42C14BF00200120F1E7F7
:108F5000E72C03D9F12CF7E70020EBE70846E9E717
:108F600008B5037933B1008800F012F9BDE8084074
:108F7000FFF7CDBF184608BD82B002AB03E903007E
:108F800002B0704782B002AB03E9030002B0704741
:108F9000704708B5FFF7FCFF08BD000008B5FFF7F4
:108FA000F8FF014B188008BDE60C00207047FFF762
:108FB000F5BF0000024B1B881843FFF7EFBF00BF4F
:108FC000E60C0020024B1B881840FFF7E7BF00BFEC
:108FD000E60C0020024B1B885840FFF7DFBF00BFA4
:108FE000E60C0020704708B5FFF7FCFF08BD000045
:108FF00008B5FFF7F8FF014B188008BDE80C00200A
:109000000020FFF7F5BF012303FA00F080B2FFF75D
:10901000EFBF0000012303FA00F0034B1B88184345
:1090200080B2FFF7E5BF00BFE80C0020012303FA80
:1090300000F0034B1B8823EA0000FFF7D9BF00BFF5
:10904000E80C0020012303FA00F0034B1B88584072
:1090500080B2FFF7CDBF00BFE80C0020024B1B8899
:109060001843FFF7C5BF00BFE80C0020024B1B8868
:109070001840FFF7BDBF00BFE80C0020024B1B8863
:109080005840FFF7B5BF00BFE80C0020704701F063
:10909000070330B5C908012402EB81029C40E4B209
:1090A000013A002112F8015F20FA01F343F30003B3
:1090B0006B40234001316B4004291370F2D130BD65
:1090C00010B5002200F00704C00801EB8001104633
:1090D0008B5CE34003F00103934001321843042A00
:1090E000C0B2F5D110BD000082B00B46ADF804004F
:1090F000C0F3072007280CD89DF80410052908D8CC
:1091000000EB4000044A01EB4001184602B0FFF7B3
:10911000BEBF02B0704700BFEA0C002082B0ADF8BD
:109120000400C0F3072007280BD89DF80430052B56
:1091300007D800EB4000044903EB400002B0FFF702
:10914000BFBF002002B07047EA0C00200E4B73B581
:109150001E880E4BADF804001B880F241E4346FAF0
:1091600004F3DB07E5B206D414F1FF34F7D200258F
:10917000284602B070BD0199284600F04EFE80B22C
:109180000128F1D0F4E700BFE80C0020E60C002035
:1091900007B5ADF804000198FFF7D8FF019903B0B7
:1091A0005DF804EB00F039BE13B5104BADF80410B8
:1091B0001B782BB1019802B0BDE81040FFF7E8BF63
:1091C00070B10198FFF7C2FF044601460198FFF70E
:1091D0008BFF0199204602B0BDE8104000F01DBE93
:1091E0000198FFF79BFF0446F3E700BFE50C002062
:1091F000F8B50C4B0C4E1C780C4D3378A34200D1C3
:10920000F8BD05EBC40335F834005F889A88D98827
:1092100040EA074042EA01410134FFF7B3FE04F09F
:109220000704EAE74B0D00204A0D00200A0D00203C
:10923000064B10B418885C889A88D98840EA0440A4
:1092400042EA01415DF8044BFFF79CBE020D00208D
:10925000F8B51B4B9A7912F0F00F0AD15A7942B146
:10926000184A194912780D781E885F88174CAA424F
:1092700000D1F8BD11B204EBC1000079E0B134F8BF
:109280003110B14218D104EBC2004179A1B9418833
:10929000C91B89B2C7290FD89979012262F3071136
:1092A0009971837962F3071383710548FFF7F2FD23
:1092B000BDE8F840FFF79CBF013202F00702D6E795
:1092C000020D00204B0D00204A0D00200A0D002049
:1092D00070B50D4B0D4A1B7815780D4CAB4202D181
:1092E0000022104670BD04EBC30256788E4206D1B0
:1092F00014F83360864202D15279002AF1D1013349
:1093000003F00703EAE700BF4B0D00204A0D0020E1
:109310000A0D00202DE9F04F89B002AB044601464A
:1093200006221846B14DFFF7C9F8297922796779E5
:109330000346A846C1B9AAB18FB12046FFF710FE77
:10934000064660B1082221462846FFF7B7F82846AE
:10935000FFF7E1FAFFF77CFFFFF76AFF65E02046C1
:10936000FFF798FD012660E0B4F802A068886E79E6
:1093700094F800B094F80190AAEB000080B2002E9F
:1093800000F0E780C72800F29780002A4DD0AB7923
:109390002A88208813F0F00F58D190420ED1002F68
:1093A0004DD1012262F30713AB71FFF741FF28464D
:1093B000FFF770FDAB79A371002636E0002F3ED198
:1093C00049465846FFF784FF5846FFF781FF054698
:1093D0000028F1D18DF808B08DF809900298FFF7B8
:1093E000D7FEC0F303310B2912D801228A4012F4B0
:1093F000406FC3B21DD112F00C0F0ED1910707D0F0
:1094000010F4706F00D07BB12033DBB2072B0BD987
:109410002046FFF73FFD354606E010F4706FF3D0AD
:10942000A27912F0F00FEFD12E46304609B0BDE818
:10943000F08FEF2BF8D90F33DBB2022BE7E798F868
:10944000063043F0010388F80630B5E790420AD1B0
:109450004FB92046A371FFF71DFD0822214628467B
:10946000FFF72CF878E72046FFF77AFD00283FF455
:1094700076AF002F3FF473AF98F806301F2B11D949
:10948000B8F80020ADF8102098F804208DF81420CA
:109490000022ADF812A08DF815208DF8163004A822
:1094A000FFF7F8FC082221465048FFF707F8FFF7BE
:1094B000CFFEFFF7BDFE55E7A87910F0F00101914E
:1094C00018D18DF80C208DF808B08DF80990ADF802
:1094D0000AA08DF80D7093E80300FFF74DFD2846B4
:1094E000FFF7D8FC082201992846FFF781F8FFF71B
:1094F0009FFE61E7002A98D02A8823889A420AD1E1
:109500004FB9A0712046FFF7C5FC0822394628460E
:10951000FFF76EF889E72046FFF722FD00283FF4A9
:109520001EAF002F3FF41BAF98F806301F2BB9D9A0
:10953000B8F80020ADF8182098F804208DF81C2009
:109540000022ADF81AA08DF81D208DF81E3006A857
:10955000A6E7C72835D8002A3FF404AF3E46002FBF
:109560003FF4FDAE2A8823889A421CD1AB79DA07F2
:1095700013D413F0F00210D0F02AA37106D0DBB29E
:10958000C3F30312013262F30713A3712046FFF7FE
:1095900081FC08222146154862E70822214613482B
:1095A000FEF78CFF41E72046FFF7DAFC00287FF446
:1095B00079AFAB79204643F00103AB71FFF76AFC4A
:1095C00033E78DF80C208DF808B08DF80990ADF8D0
:1095D0000AA08DF80D7093E80300FFF7CDFC082278
:1095E00031462846FFF704F8B6E600BF020D00201A
:1095F000F0B585B06C4684E803002046FFF78AFE8C
:10960000284E294D074668B19DF804301BB194E8F7
:109610000300FFF7B7FC254C28783378834226D126
:1096200005B0F0BD94E803009DF8042002AB83E888
:109630000300002AEFD030782A78441C04F0070495
:1096400094420AD01946194B082203EBC000FEF7DA
:1096500035FF3470FFF7CCFDDDE7FFF751FC082242
:109660003946134837702F70FEF7C2FFD3E704EB7B
:10967000C000FFF74FFE0028D2D02B7834F833001B
:1096800004EBC3035F889A88D98840EA074042EA1E
:109690000141FFF777FC2B78013303F007032B70B0
:1096A000BAE700BF4A0D00204B0D00200A0D002034
:1096B000020D0020014B1878C00870479C0D002057
:1096C000024B187800F00700704700BF9C0D002087
:1096D000034B187810F0070018BF0120704700BF37
:1096E0009C0D0020014B1878704700BF9F0D002093
:1096F000024A137818431070704700BF9F0D002076
:10970000024A137823EA0000107070479F0D002072
:10971000014B00221A7070479F0D0020024A1378F7
:1097200018431070704700BFA00D0020024A137844
:1097300023EA000010707047A00D0020014B0022AA
:109740001A707047A00D0020704708B5FFF7FCFFA6
:1097500008BD000008B5054A1378034204D023EA87
:1097600000001070FFF7F1FF08BD00BF9D0D002045
:10977000704708B5FFF7FCFF08BD000008B5054AB3
:10978000137830EA030C03D003431370FFF7F1FFA3
:1097900008BD00BF9E0D002008B5054A137803429E
:1097A00004D023EA00001070FFF7E3FF08BD00BFFC
:1097B0009E0D002008B5044B1A781AB100201870CD
:1097C000FFF7D7FF08BD00BF9E0D002010B5084B66
:1097D0001C78084B1B781C43074B1B782BB11C4390
:1097E00001F052FF08B1FFF7E5FF204610BD00BFB2
:1097F0009F0D0020A00D00209E0D002038B50B4CC1
:109800002568FFF7E3FF28702468094908222046ED
:10981000FEF724FE48B1214608220548FEF74EFE19
:109820002046BDE8384001F0DBBE38BD000C00200A
:10983000740D002038B50B4C2568FFF7C7FF687022
:109840002468094920222046FEF708FE48B1214637
:1098500020220548FEF732FE2046BDE8384001F0E0
:10986000C7BE38BD040C00207C0D0020054B1B78C2
:1098700033B1054B93F90030002B01DAFFF7DABF63
:10988000FFF7BCBFB40C00202C1A0020704708B5AD
:10989000FFF7FCFF08BD0000094A5278520710B5D7
:1098A0000AD5084C41EAC0012170FFF7B3FB2078CC
:1098B000C008FFF7ECFF10BDBDE81040FFF7AABBE2
:1098C0002C1A00209C0D002008B5034B00201870B6
:1098D000FFF7DDFF08BD00BF9C0D002008B50A4A58
:1098E000137823EA0000107042070CD198420AD086
:1098F000064B5B785B0706D5C008FFF797FBBDE812
:109900000840FFF7E1BF08BD9C0D00202C1A002085
:10991000094A08B55378C3F3800181420AD060F345
:1099200082035370108800F038F80220BDE8084028
:10993000FFF7D4BF08BD00BF2C1A0020044B587895
:10994000C0F3800080F0010000F00100FFF7E0BFED
:109950002C1A00200120FFF7DBBF0020FFF7D8BF43
:1099600008B500F0FBFE4FF6FF710020BDE808408F
:1099700000F0D6BE08B5002000F06BFE4FF6E6639F
:10998000C31A5842584108BD022000F053BE0320BC
:1099900000F050BE042000F05CBE0146042000F040
:1099A000BFBE01460F2000F0C9BE0146132000F0E3
:1099B000C5BE0020FFF7F9BF08B50020FFF7F1FF93
:1099C000FFF7F7FF08BD000007B500F0C7FE4FF630
:1099D000E661002000F0A4FE0021022000F092FECB
:1099E0001C4B01210320198000F08CFE4FF4A05184
:1099F000042000F095FE0021062000F083FE0021E7
:109A0000072000F07FFE0021082000F097FE0021D3
:109A1000242000F077FE0021172000F073FE0021C3
:109A20000C2000F06FFE00210D2000F06BFE0023E3
:109A30000022CDE9002368460822182100F048FEE4
:109A40000021202000F07AFEFFF7B6FF03B05DF89A
:109A500004FB00BFE60C0020FFF7B6BF01460E2056
:109A600000F050BE73B50C4C01F0D4FF2388834244
:109A700005460ED00026ADF8006001F0CBFFADF832
:109A80000460ADF8020002AB13E90300FEF722FF09
:109A9000258002B070BD00BFAC0D002008B500F0FD
:109AA000C5FA024B1860024B186008BDA40D0020D7
:109AB000A80D00207047704708B5FFF7FCFF08BDF0
:109AC000704708B5FFF7FCFF08BD01207047000094
:109AD00008B5054800F0BEFA00F03EFEFFF7EAFFC9
:109AE000FFF7EAFF08BD00BF4DA0000800F01CBC56
:109AF0007047704708B5FFF7FBFFFFF7FAFF08BD97
:109B000008B5FFF737FF08B9FFF7A6FFFFF73CFFDF
:109B1000094B1870FFF73EFF084B188001F009F958
:109B2000FFF735FF80B2FFF742FA054B1888BDE812
:109B30000840FFF758BA00BFB60D00202C1A0020CD
:109B4000E80C002008B501F02BFF00F05BFA00F0F4
:109B5000F5FB00F027FBFFF7D3FFFEF790FE01F0C7
:109B6000ECF800F003FCFFF7ACFF08BD2DE9F04F67
:109B700085B0FFF7AAFF50B9FFF774FF00F0D4FBE0
:109B800001F0A2FB05B0BDE8F04FFEF78DBE2B4FF4
:109B900000F052FB3E46002420460134E4B216F8A1
:109BA000015B00F067FA082C45D08542F4D0244BC5
:109BB0001B789B0701D500F063FAFFF797FF00269B
:109BC00000904FF0010B5FFA86F8404600F052FA21
:109BD00017F8012B9042824627D0002401254240ED
:109BE0000DF10809154218D0009BB3B101928DF810
:109BF00008408DF8098001F00DFF1AEA050F14BF27
:109C000001210021ADF80A008DF80CB08DF80D107F
:109C100099E80300FEF75EFE019A0134E4B26D009C
:109C2000062CEDB2DED107F801AC0136082ECAD100
:109C3000FFF734FFA2E78542B9D19DE7AE0D0020C2
:109C4000B60D002038B500F0F3F8B0F5A04F04468B
:109C500022D2B0F5804F77D2DF2812D8CD2861D23A
:109C6000A7280AD8A5284ED2012804D003B233B1C0
:109C7000032898BF0024204638BDC2284AD90024B2
:109C8000F9E7B0F5005F80F0A280B0F5807F4DD29B
:109C9000E82828BF0024EEE745F25F23984216D853
:109CA00045F2402398425FD245F21F23984254D890
:109CB000B0F5A44F7CD3C4B2A008012304F0030480
:109CC00003FA04F444EA401444F40D442CE045F251
:109CD0009F23984207D8B0F5A54F52D300F01F0438
:109CE0004AF2F4003DE045F2BF23984256D945F2CE
:109CF000DF239842C3D8040204F4F85444F4204407
:109D000044F0F004B7E75B34E4B2394B1C5D44F433
:109D10008044B0E75834E4B2364B33F8144044F48E
:109D20008844A8E740F4A044A4B2A4E7C0F3072005
:109D300000F006F90546E0B200F07AF82D0205F4CD
:109D4000F855284384B296E7C0B200F071F804F4E5
:109D50007064044344F42044E6E700F01F044AF230
:109D6000F10040EA042486E7C4B2C4F38200012370
:109D700004F0030403FA04F444EA401444F40C44E9
:109D8000D2E7C4B2C4F38200012304F0030403FA4F
:109D900004F444EA401444F40A44C5E700F01F0008
:109DA00000F0CEF8040204F4F85444F4005462E7DE
:109DB00000F01F0000F0C4F8C306C4F3431448BF0A
:109DC0000001240200B2044344F41044ACE7C0F3A1
:109DD000042000F0B5F80546E0B200F029F82D02A5
:109DE00005F4F85545EA000444F400549CE700BF2C
:109DF0002AEB00082EEB000882B0ADF80410C1F386
:109E00000721072906D89DF80420052A02D802B0A8
:109E1000FEF74EBC002002B0704707B5ADF8041045
:109E20000199FFF7E9FF03B05DF804EBFFF70ABF04
:109E3000822825D00CD8312867D004D829285AD0B8
:109E40002A2869D07047352850D0392818D0704753
:109E5000E32833D004D8E0281CD0E22829D070476A
:109E6000E62835D0E72838D0E42835D1334B5A7866
:109E7000910731D51B7813F0100F08BFE72015E0CC
:109E80002E4B1A78920752D15B7813F0080F18BF47
:109E900029207047294A1378D90744D4527812F000
:109EA000010F19D013F0100F08BFE32018BF0020D6
:109EB0007047224B1B7813F0040FF2E71F4A137808
:109EC000590732D45278D20731D413F0100FEDE78E
:109ED0001A4B1B781A07CED47047184A1378190703
:109EE00027D452789107F0D5E4207047134B1B78A4
:109EF00013F0200FCBE7114B1A7892061BD45B7836
:109F000013F0080F18BF392070470C4B1B7813F063
:109F1000400F18BF2A207047084B1B7813F0400FE2
:109F200018BF3120704739207047E2207047E02089
:109F30007047E62070473520CEE700BF2C1A00207E
:109F400010B52F4C21784B0713D500F01402A2F165
:109F5000040C00F01803DCF1000242EB0C02A3F148
:109F6000080CDCF1000343EB0C039A4218BF80F0AD
:109F70000C000B0713D500F01402A2F1140C00F032
:109F80001803DCF1000242EB0C02A3F1180CDCF127
:109F9000000343EB0C039A4218BF80F00C00647876
:109FA000E30713D500F0110202F1FF3C00F01803A3
:109FB000DCF1000242EB0C02A3F1080CDCF100031F
:109FC00043EB0C039A4218BF80F00900A30711D598
:109FD00000F0110200F01803A2F111046242A3F193
:109FE000180C6241DCF1000343EB0C039A4218BFEA
:109FF00080F00900CB0648BF00F0E70010BD00BFAD
:10A000002C1A0020014B00221A607047301A0020E1
:10A0100010B5044600F088F920B901F0C3FC024BEA
:10A02000201A186010BD00BF301A002008B500F0DB
:10A030007BF918B1BDE8084001F0B4BC01F0B2FCF6
:10A04000014B1B68184408BD301A002000207047DF
:10A0500000207047014B1860704700BF080C0020BB
:10A06000704708B5FFF7FCFF08BD704708B5FFF75C
:10A07000FCFF08BD014B185C704700BF3D1A002073
:10A080007047704708B5FFF7FCFF08BD73B500F0D7
:10A090004BF91B4C1B4B054638B318781A4E00225F
:10A0A00001A92044019200F075F980B1174B18788E
:10A0B00004220DEB02012044FEF7D0F90123337096
:10A0C00050B90025FFF7D2FF284602B070BD3378A3
:10A0D000002BF6D0019030700C4B187804220DEB59
:10A0E00002012044FEF7EAF9ECE71978074B1878EB
:10A0F0002144204400F0B0F9FFF7C4FFE4E700BFBB
:10A100003D1A0020451A0020B70D0020341A002007
:10A110002DE9F0410E4D00264FF001082F46002496
:10A1200057F8040B431C08D000F00F01202208FA56
:10A1300001F120F00F0003F0B9FD0134062CEFD13E
:10A140000136042E05F11805E8D1BDE8F08100BF05
:10A150000C0C0020F0B5124E01EB410306EBC306D8
:10A1600006220124002356F8045B6F1C15D025F04D
:10A170000F0705F00F053F6927FA05F515F0010FE8
:10A180000CBF25460025013A2B43640012F0FF0264
:10A19000DBB2E4B2E7D14354F0BD0025F3E700BFE2
:10A1A0000C0C002030B51D4D2A7899B002F0FF0448
:10A1B000A2B960221A496846FEF780F91948234679
:10A1C00019460622013A5DF801400C5012F0FF02D8
:10A1D00001F10401F6D11833602BF1D12B78124A2A
:10A1E000002B14BF002304231370104AC3F104038F
:10A1F0001370FFF78DFF082200210D48FEF7F8F9D4
:10A20000082200210B48FEF7F3F9042000F044F87F
:10A2100019B0BDE83040FFF724BF00BF6C0C002030
:10A2200030EA00080C0C0020451A0020341A0020E7
:10A230003D1A0020351A002013B50024CDE9004452
:10A24000E1B268460134FFF785FF042CF8D10822FB
:10A2500069460E48FEF702F9002814BF01240024C5
:10A2600004D0082269460948FEF728F9084B094836
:10A270001978042223460144044800F00FF80446EC
:10A28000FFF704FF2043C0B202B010BD351A002012
:10A29000451A00203D1A0020704700002DE9F843C0
:10A2A00080460F4691461C46114D43B101232B7049
:10A2B00001F078FB0F4B18600020BDE8F8832E7882
:10A2C000002EF9D00B4B186801F0B0FB0428F3D92D
:10A2D0004A4641463846FEF7C1F828B14A4641464B
:10A2E0003846FEF7EBF8344600232B702046E4E7AF
:10A2F000B80D0020BC0D002038B5C82402F0AAF823
:10A30000054648B9013C4FF47A70A4B202F091FBC3
:10A31000002CF3D102F094F8284638BD014B587850
:10A32000704700BFC30D0020014B1878704700BF75
:10A33000C30D002008B5FFF7F7FF08BD10B5FFF704
:10A34000DBFF084C2070FFF7F5FF6070FFF7E6FFBA
:10A35000054B1870FFF7E8FF18B1BDE8104000F09A
:10A3600047B810BDC30D00206C0C002008B5FFF7E6
:10A37000DBFF18B9BDE8084000F03CB808BD00009C
:10A38000034B187809288CBF00200120704700BFBC
:10A39000C20D002070B5144C2378092B05460E46DB
:10A3A00016D82846314600F055F80546C8B9237836
:10A3B000FF2B1CBF013323702378092B94BF012589
:10A3C000002503D901F026FB084B1880284670BDF4
:10A3D000064B188801F023FBB0F5FA7FE1D2002587
:10A3E000F4E700232370F1E7C20D0020C00D002028
:10A3F00001F0F8BB01F0E2BBF8B504461E46BDF81B
:10A40000185062B10C206043104B1F5C034410488D
:10A410005B88BA4228BF3A461844FEF74FF82046F8
:10A4200001F0E2FB074670B16DB1084B08490C2200
:10A4300002FB043430462279E388AA4228BF2A4628
:10A440001944FEF73BF83846F8BD00BF700C0020F9
:10A45000C80D002000F096B800F0A8B830B50E4D39
:10A4600085B0286801F0E2FA632812D9FFF7DEFD13
:10A470000023023003900093042203A90220FFF777
:10A48000BBFF044610B101F08DFA2860204605B0EC
:10A4900030BD0124FAE700BFE00D00202DE9F047B0
:10A4A000074688469146FFF76BFF002814BF0A262F
:10A4B0000126012541463846C84710B90135B54245
:10A4C00001DDBDE8F08705FB05FA04464FF4527044
:10A4D000013402F019F85445F8D1EBE72DE9FF41BA
:10A4E00000220123009388460DF10B03114610460C
:10A4F000FFF782FF204B1D680446013560B31F4EF5
:10A50000306801F093FA63281ED90022042703ABB8
:10A51000114600970120FFF76FFF39460446284691
:10A5200000F00CFC9DF80B30834214BF002404F0B3
:10A530000104C4B101F036FA3060042203A91048C6
:10A54000FDF7BCFF01240EE00421284600F0F6FBD5
:10A550009DF80B308342D8D10422294603A8FDF789
:10A56000ADFF002CE9D1042205494046FDF7A6FFC6
:10A57000204604B0BDE8F08164EB0008DC0D00204B
:10A58000D40D002038B5074A04460D46FFF786FF74
:10A5900030B129462046044ABDE83840FFF77EBF67
:10A5A00038BD00BFDDA400085DA4000838B50D4625
:10A5B00004F032FA0D4B1C68631C0422184629462D
:10A5C000FDF77CFF042100F0B9FB207004F02AFAAB
:10A5D00004F022FA064BA0681A68904202D0186074
:10A5E000FFF716FDBDE8384004F01CBA64EB000824
:10A5F000D80D002008B501F09DFEFFF7A3FABDE8D5
:10A60000084001F0ADBE08B501F0B0FEFFF7AEFAAC
:10A61000BDE8084001F0D0BE08B501F087F901F0AF
:10A6200086FEFFF755FAFFF7E5FFFFF7ECFFFFF7B0
:10A6300061FAFAE707B50023014601220DF1070090
:10A640008DF8073000F08CF89DF8070003B05DF836
:10A6500004FB07B50023014602220DF10600ADF808
:10A66000063000F07DF8BDF8060003B05DF804FB8D
:10A6700007B50422002301460DEB0200019300F010
:10A680006FF8019803B05DF804FB07B501228DF85F
:10A69000071001460DF1070000F067F803B05DF800
:10A6A00004FB07B50222ADF8061001460DF10600C5
:10A6B00000F05BF803B05DF804FB07B504220191DC
:10A6C00001460DEB020000F050F803B05DF804FB0A
:10A6D000F8B5D31D23F0070300AFADEB030D05461E
:10A6E000144668460E4600F03BF822466946284666
:10A6F000FDF7B4FE20B122463146284600F035F879
:10A70000BD46F8BD38B50C460546FFF793FFA0429D
:10A7100005D021462846BDE83840FFF7B6BF38BD12
:10A7200038B50C460546FFF794FFA04205D02146F8
:10A730002846BDE83840FFF7B4BF38BD38B50C46F1
:10A740000546FFF795FFA04205D021462846BDE803
:10A750003840FFF7B2BF38BD00F056B900F03CB842
:10A760000B460146184600F051B80B460146184604
:10A7700000F0DEB808B5064B4FF4806200211846A1
:10A78000FDF736FF4FF48162C0F8002408BD00BF1A
:10A79000E40D002010B5064C94F8043433B900F0F1
:10A7A000B1F910B1012084F8040410BD0220FCE7C7
:10A7B000E40D002010B5074C94F804343BB100F0D0
:10A7C000E5F918B1002384F80434012010BD0220FB
:10A7D000FCE700BFE40D002038B5FFF7DBFF0446BF
:10A7E00018B9FFF7E7FF204638BD00F097F9054696
:10A7F000FFF7C0FF012C06D1FFF7DCFF00280CBFDC
:10A80000002505F001052C46EDE7000008B50346DC
:10A8100008469918B1F5806F05D804491944FDF729
:10A820004DFE012008BD0020FCE700BFE40D002024
:10A83000F8B506460F4615460024AC4201D101206A
:10A84000F8BDA0003918304400F0ECF90028F7D02A
:10A850000134F2E7F8B506460F4615460024AC422F
:10A8600001D10120F8BD57F8241006EB840000F058
:10A8700075F90028F6D00134F1E70000000000006F
:10A8800037B5FFF787FF4FF4807205461249002065
:10A89000FFF7E0FFD0B10EA3D3E900234FF48061AE
:10A8A0000D4800F0E1F90222CDE9000169464FF4BC
:10A8B0008060FFF7CFFF002814BF02240024012D81
:10A8C00001D1FFF777FF204603B030BD0446F6E71D
:10A8D00025232284E49CF2CBE40D002010B5094C22
:10A8E000D4F80034B3F5006F09D300F017F928B19C
:10A8F000FFF7C6FF4FF48163C4F8003410BD012098
:10A90000FCE700BFE40D002010B5084C0146D4F868
:10A91000000400F023F940B1D4F800340433C4F843
:10A920000034BDE81040FFF7D9BF10BDE40D002092
:10A930008318B3F5806F2DE9F34706468A4615461E
:10A9400004D90024204602B0BDE8F0872C4F07440C
:10A9500039465046FDF782FD00284ED02A46514622
:10A960003846FDF7ABFDFFF715FF804630B14FF0DD
:10A97000000935B9FFF7B2FF044633E0FFF71AFFCD
:10A98000DFE7052D2F46C6F3024328BF052743EA1C
:10A99000C7038DF80030330AADF802908DF801300E
:10A9A000ADF804905346ADF806908DF802600DF1B5
:10A9B0000302BA4413F8011B02F8011B5345F9D1F5
:10A9C0000098FFF7A1FF0128044607D1012D11D9F6
:10A9D0000198FFF799FF012804460BD014B1022C0F
:10A9E00018BF0024B8F1010FACD1FFF7E3FE002837
:10A9F000A7D0A7E7ED1B3E44BBE70124A2E700BFB9
:10AA0000E40D0020000000002DE9FF41FFF7B2FE39
:10AA100000F0C4F828B9FFF7ADFE002004B0BDE88F
:10AA2000F0814FF480723649354E0020FFF700FF69
:10AA300010B9FFF79FFEEEE72FA3D3E900234FF4F1
:10AA40008061304600F010F9022204460D464FF4B2
:10AA5000806002A9FFF7ECFEDDE902239D4208BFFA
:10AA6000944201D0FFF786FE4FF4816401A920468D
:10AA700000F0D8F840B3019B2BB3DFB2BA0904F160
:10AA80000408029335D11D04C3F3074205F4E02501
:10AA900003F47F4315431D43FF08EB19B3F5806FA3
:10AAA00027D817F0060F1FD003A9404600F0BAF8C8
:10AAB000F8B108343A460DF10B017019FDF7FEFCB0
:10AAC000B4F5006FD2D30120C6F8004470B900F08D
:10AAD00025F800289FD0FFF7D3FE4FF48163C6F816
:10AAE000003400289AD196E74446E3E7FFF7F6FEE4
:10AAF000F7E744460020E7E725232284E49CF2CBD5
:10AB0000E40D002008B50021034802F0CFFAB0FAA6
:10AB100080F0400908BD00BFC81A0020F8B50D4FED
:10AB20000D4E002101253B68994201D32846F8BD0E
:10AB3000306803684C1C21465B69984701283068DF
:10AB400088BF002502F056FA012888BF002521465B
:10AB5000E9E700BF980C0020F0110020094B73B505
:10AB60001E68094B1C682368C9430191DD6881197F
:10AB700001AB04222046A847B0FA80F0400902B099
:10AB800070BD00BF940C0020F011002008B50248F1
:10AB900002F09AFA012008BDC81A00202DE9F04100
:10ABA0001A4D1B4B2B60FFF7F1FF286803685B68A9
:10ABB0009847184B1E8800248046B6022746D8F8CE
:10ABC0000830013BA34210D901342146286802F025
:10ABD00040FA0744B7F5006FF1D30F4B28681C60AB
:10ABE000012102F029FA0D4B18600B4B1A684FF641
:10ABF000FF739A4203D0094B1B68B34202D3084843
:10AC000001F074FC0120BDE8F08100BFF0110020CC
:10AC1000C81A0020227AFF1F980C0020940C0020F4
:10AC200068EB000838B50C4B0C4D0C4619680C4B02
:10AC30000144186802F01AFA0A4902680023012048
:10AC400028700B702B700D781DB10B7023601846A7
:10AC500038BDD2432260FBE7940C0020F4110020A1
:10AC6000F0110020EC110020F0B50144884202D31D
:10AC700010461946F0BD10F8014B624094184FEA97
:10AC8000021E4FEA031C43EB03054CEA127C14EB53
:10AC90000E0445EB0C054FEA421EA4184FEA431C74
:10ACA00043EB05054CEAD26C14EB0E0445EB0C05A6
:10ACB0004FEAC21E4FEAC31C4CEA526C14EB0E045E
:10ACC0004FEA022645EB0C054FEA032C4CEA126CC6
:10ACD000A4194FF0000745EB0C033A19B64646EBB2
:10ACE0000303C3E7FEF73CBE10B5FFF717FB50B9EF
:10ACF00005240420FFF7BEF90123A340034214BF3B
:10AD00000120002010BD00242046F3E708B5FFF71E
:10AD100093FA40F6B83001F08CFEFFF78DFAFFF79A
:10AD2000E3FF28B1FFF7DEFFBDE8084000F0B0BE4A
:10AD300008BD08B5FFF7EAFF08BD70470144FF23CF
:10AD4000814201D11846704710F8012B5340082268
:10AD500013F0800F4FEA430318BF83F03103013A29
:10AD6000DBB2F5D1ECE7000047F61643984210B588
:10AD70000C461BD1FEF7B6FC62790D4B72B100F0A8
:10AD8000AA00002815BF01220022352029201A70B0
:10AD900000F010FDFEF76AFD002010BD1B78002BAF
:10ADA00014BF3520292000F01FFDF3E70120F4E750
:10ADB000F511002038B505464879002800F0DC8000
:10ADC000A5F5E045ABB2222B00F2BB80FEF7E2FD19
:10ADD0006A4C013D2080212D12D8DFE805F04DBDE1
:10ADE000551B1F59235D692FB5336D3771973B751F
:10ADF0009F417B8327612B65477F8EA9B31651C581
:10AE0000237843F00103237095E0637843F008034F
:10AE1000637090E0237843F00203F4E7237843F073
:10AE20000403F0E7237843F00803ECE7637843F08A
:10AE30000103EDE7637843F00203E9E7237843F089
:10AE40001003E0E7237843F02003DCE7237843F0A6
:10AE50004003D8E7FEF754F8237843F08003D2E7A5
:10AE6000237823F00C0343F00C03CCE7637823F042
:10AE7000030343F00303CBE723786FF30003C2E738
:10AE800063786FF3C303C3E723786FF34103BAE733
:10AE900023786FF38203B6E723786FF3C303B2E737
:10AEA00063786FF30003B3E763786FF34103AFE7B1
:10AEB00023786FF30413A6E723786FF34513A2E713
:10AEC00023786FF386139EE7FEF71AF823786FF363
:10AED000C71398E7237823F00C0394E7637823F0F3
:10AEE000030395E72378C3F3800282F00102D2B214
:10AEF00062F3820362F3C30385E76378DA4302F007
:10AF0000010262F3000362F3410381E72378C3F394
:10AF1000801282F0010262F3861374E7FDF7F0FFFE
:10AF20002378C3F3C01282F0010262F3C7136AE709
:10AF30000120FEF793FD2088FEF72FFDFDF7E0FFCF
:10AF4000002038BD0020F4E72378C3F3001282F01C
:10AF5000010262F3041356E72378C3F3000282F080
:10AF6000010262F300034EE76378C3F3C00282F08C
:10AF7000010262F3C3034BE70120E2E72C1A002031
:10AF800000EB4003C3EB031300EB830003B2002B81
:10AF900007DAB3F1800001D503F17F0040F3072009
:10AFA000704703F18000F9E7164B1B78D90707D5E6
:10AFB000154B187840007F2820D808B3C0B27047DE
:10AFC0009A0703D5104B18788000F4E75B0703D588
:10AFD0000D4B1878C000EEE70C4B1B7863B10C4AA0
:10AFE0000949127808789342F4D210FB03F0C000AC
:10AFF000B0FBF2F080B2DEE70820DFE77F20704789
:10B0000001207047001200209E0C00200112002039
:10B010009F0C0020154B1B78D90705D5144B1878C9
:10B02000800800B3C0B270479A0703D5104B187858
:10B030004008F6E75B0705D50D4B18787F28F0D957
:10B040007F2070470B4B1B785BB10B4A0849127885
:10B050000878934236BF10FB03F080B2B0FBF2F0E9
:10B06000ECE70120DEE70120704700BF001200205E
:10B07000A20C002002120020A30C002010B5314CBD
:10B08000E278A3781343627913432279134305D0FE
:10B090002D4B08221A702D4B01221A70CD2804D195
:10B0A000FFF782FF4042E07010BDCE2802D1FFF7CB
:10B0B0007BFFF8E7CF2804D1FFF776FF4042A0706E
:10B0C000F2E7D02802D1FFF76FFFF8E7D92803D1C4
:10B0D000FFF7A0FF2071E7E7DA2803D1FFF79AFF17
:10B0E0004042F7E7DB2804D1FFF794FF404260714C
:10B0F000DAE7DC2802D1FFF78DFFF8E700F12F0334
:10B10000DBB2072B07D8A0F1D10301209840637868
:10B1100018436070C8E7DD2805D10D4A137843F065
:10B1200001031370C0E7DE2804D1094A137843F005
:10B130000203F6E7DF28B7D1054A137843F004038A
:10B14000EFE700BFFA1100200112002002120020D8
:10B1500000120020364BCD2893F902200AD193F932
:10B16000031000290CDA0021D97052B9314A0021AC
:10B17000117006E0CE280DD193F903100029F2DCFE
:10B1800072B11A795B7913435BB2002B4FD12A4A13
:10B1900013707047CF2806D1002AF1DA00229A7086
:10B1A00093F90320E1E7D02802D1002AF6DCE7E793
:10B1B000D92893F9041004D10029E1DD0021197187
:10B1C000DEE7DA2802D10029DADAF7E7DB2893F99B
:10B1D000051004D10029D3DA00215971D0E7DC2809
:10B1E00002D10029F8DCCBE700F12F01C9B2072911
:10B1F00007D8D13801218140587820EA01005870E1
:10B20000BEE7DD2805D10D48017821F0010101706C
:10B21000B6E7DE2804D10948017821F00201F6E7FB
:10B22000DF28ADD10548017821F00401EFE7704730
:10B23000FA1100200112002002120020001200204A
:10B2400008B500F0E7FB094BDA7899780A431CBF90
:10B25000074A10801A795B7913431CBF054B18808D
:10B260000248BDE8084000F0CDB900BFFA11002047
:10B27000F6110020F811002008B50622002105482B
:10B28000FDF7B6F9044A00231370044A1370044A08
:10B29000137008BDFA1100200112002002120020D4
:10B2A0000012002090F902305BB990F9033043B9E5
:10B2B00090F904302BB990F90500003018BF012037
:10B2C000704701207047000037B55A4C06222146CE
:10B2D0006846FDF7F3F80023A370E37023716371F0
:10B2E0009DF802209DF8033013430AD0524B188872
:10B2F00000F095FB514A13783BB3514909788842D5
:10B300002DDC9DF804209DF8053013430BD04D4BE8
:10B31000188800F084FB4C4A1378002B4FD04B491F
:10B320000978884255DC6946424800F093FA18B91A
:10B330004048FFF7B7FF08B1FFF782FF06226946D2
:10B340003C48FDF7BBF803B030BD4149097801EB3B
:10B350008101B0EB410FD4DD0133137001E0FF2B0D
:10B36000FAD19DF902503DB1FFF71EFE002DCCBF72
:10B370000123FF235843A0709DF903503DB1FFF70F
:10B3800013FE002DCCBF0123FF235843E07094F936
:10B3900002000028B5D094F90320002AB1D0FFF7AD
:10B3A000EFFD30B1A0701046FFF7EAFD20B1E0706C
:10B3B000A7E70123A370F6E70123E370A1E725497E
:10B3C000097801EB8101B0EB410FACDD0133137063
:10B3D00001E0FF2BFAD19DF904503DB1FFF71AFEB1
:10B3E000002DCCBF0123FF23584320719DF9055048
:10B3F0003DB1FFF70FFE002DCCBF0123FF235843C3
:10B40000607194F9040000288DD094F90520002A79
:10B4100089D0FFF7B5FD30B120711046FFF7B0FDC0
:10B4200020B160717FE701232371F6E70123637187
:10B4300079E700BFFA110020F61100200112002068
:10B440009D0C0020F811002002120020A10C002009
:10B450009C0C0020A00C0020F8B5144642799DF801
:10B4600018701D46284B92B11C7000F0D3FA274B80
:10B47000188004F12003DBB2072B44D804F0070442
:10B480000120A040C0B2BDE8F840FDF7FFBA1E7829
:10B49000A6422ED11D4B188800F0C1FAC72828D823
:10B4A000AE4205F1200415D006F12003DBB2072BD4
:10B4B00006D806F007060120B040C0B2FDF7EFFA4B
:10B4C000E3B2072B06D805F0070301209840C0B26D
:10B4D000FDF7DCFA3846E4B2FDF7D0FA072C12D8B3
:10B4E00005F007050120A840C0B2BDE8F840FDF70F
:10B4F000D6BA04F12003DBB2072B04D804F007040A
:10B500000120A040F0E7F8BD031200200412002043
:10B5100013B5A0F5F84018380C4606283BD8DFE8EC
:10B5200000F0171E0410252C330026230093E1237E
:10B530001A4647F61A412046FFF78EFF002002B058
:10B5400010BD27230093E5231A4647F61B41F2E777
:10B5500026230093E022E12347F61841EBE7272357
:10B560000093E422E52347F61941E4E726230093FC
:10B57000E222E12347F61C41DDE727230093E62280
:10B58000E52347F61D41D6E728230093E522012352
:10B5900047F61E41CFE7487918B1034B00221A70D5
:10B5A000CDE70120CBE700BF03120020014B18605C
:10B5B000704700BF0812002010B5FEF7B5FE10B9A5
:10B5C000054B187810BD054B18680028FAD00368A1
:10B5D000BDE81040184700BF1012002008120020DC
:10B5E000024B1B680BB15B681847704708120020BC
:10B5F000034B1B681BB1062101709B6818477047FD
:10B6000008120020034B1B681BB102210170DB688C
:10B6100018477047081200200B4B07B51A88824262
:10B620000ED01880094B1B6853B103228DF805001A
:10B63000000A8DF806008DF804201B6901A89847C0
:10B6400003B05DF804FB00BF0E12002008120020BA
:10B650000B4B07B51A8882420FD01880094B1B6824
:10B660005BB104228DF80500000A8DF806008DF804
:10B6700004201B690DEB0200984703B05DF804FB42
:10B680000C120020081200200E4B0F4A1B68127883
:10B6900002336AB10D4A92F90020002A08DA0C4BF5
:10B6A0001B681E2202331A440020934202D17047C5
:10B6B0000622F8E713F8011B0029F6D00130C0B2CA
:10B6C000F3E700BF000C0020B40C00202C1A00206F
:10B6D000040C002028B3134B1B78ABB1124B93F929
:10B6E0000030002B10DAC2081D2A17D80F4B1B6838
:10B6F000134400F007009A78012303FA00F0024295
:10B7000014BF184600207047094B1B689A1C083369
:10B7100012F8011B814203D09A42F9D100207047F0
:10B7200001207047B40C00202C1A0020040C0020CB
:10B73000000C002030B54FF0FF33851C002215F8B7
:10B74000014B8C420ED0B3F1FF3F02D1002C08BF59
:10B7500013460132D4B2062C62B2F0D15A1C01D089
:10B760001844817030BD10B5831C0022083013F8D6
:10B77000014B8C4208BF03F8012C8342F7D110BD66
:10B78000CB081D2B07D8184401F00703012199406D
:10B790008378194381707047CB081D2B08D8184453
:10B7A00001F0070101238B40817821EA03018170B8
:10B7B00070470000084B1B78014643B1074B93F9D3
:10B7C0000030002B03DA064B1868FFF7D9BF054B92
:10B7D0001868FFF7AFBF00BFB40C00202C1A002080
:10B7E000040C0020000C0020084B1B78014643B1DC
:10B7F000074B93F90030002B03DA064B1868FFF76C
:10B80000CBBF054B1868FFF7AEBF00BFB40C0020DC
:10B810002C1A0020040C0020000C0020094B1B787F
:10B820005BB1094B93F90030002B06DA074B18681F
:10B830001E2200210230FCF7DBBE054B06221868F1
:10B84000F7E700BFB40C00202C1A0020040C0020E5
:10B85000000C002042784B789A421DD190F90230BA
:10B860001BB191F902209A4216D190F903301BB115
:10B8700091F903209A420FD190F905301BB191F94B
:10B8800005209A4208D190F9040030B191F90430B2
:10B89000181A18BF0120704701207047704708B57B
:10B8A000FFF7FCFF08BD000008B50028034B14BFDC
:10B8B000022001201870FFF7F2FF08BD11120020CE
:10B8C00008B5034B03201870FFF7E9FF08BD00BF60
:10B8D00011120020FFF7E8BF08B5034B01201870D4
:10B8E000FFF7DDFF08BD00BF11120020FFF7F4BF16
:10B8F00070477047704708B5FFF7FCFF08BD7047F9
:10B9000008B5FFF7FCFF08BD10B5FFF7F1FFFEF724
:10B9100093FCFFF7EEFF0024E0B2FEF7ABFB18B993
:10B920000134082CF8D110BD0120FCE708B501F066
:10B93000D3F9BDE8084000F0C1BD08B5FCF782FFAF
:10B9400040F2A460BDE8084001F073B808B5FDF707
:10B95000DFFEFDF7F3FEFFF761FFFFF78DFC002030
:10B96000FFF75AFE0020FFF773FEBDE80840FCF722
:10B9700070BF000008B5302383F3118801F0BFF9D0
:10B98000044B054A186000231360044A136083F3D4
:10B99000118808BD1C12002014120020181200206B
:10B9A000FFF7E8BFD0B5302383F31188134C01F0C3
:10B9B000A6F92368124AC11A1068884211480AD9A8
:10B9C000A3F58333E03B236004680F4B01F583311B
:10B9D0002344E031036011600468002383F311887D
:10B9E0000A4E0B4A4FF47A700027E0FB01670023F0
:10B9F00030463946FCF7B0FB2044D0BD1C12002075
:10BA0000141200201812002088598F029F8601000E
:10BA1000A086010008B5FFF7C5FF80B208BD10B5CC
:10BA20000446FFF7BFFF001B80B210BD10B50446EF
:10BA3000FFF7B8FF001B10BDBFF34F8F0549064B42
:10BA4000CA6802F4E0621343CB60BFF34F8F00BFBC
:10BA5000FDE700BF00ED00E00400FA05014B024ADB
:10BA60001A607047FCFF0020EFBEADDE034B186884
:10BA7000034BC31A58425841704700BFFCFF0020D7
:10BA8000EFBEADDE014B00221A607047FCFF0020C4
:10BA900008B5FFF7E3FFFFF7CFFF08B5FFF7CCFFCF
:10BAA00008B5FFF7E3FF80B3FFF7ECFF72B6BFF313
:10BAB0004F8FBFF36F8F154A536A23F4803353625D
:10BAC000D2F8943023F00103C2F89430A2F54F620B
:10BAD000002313604FF0FF31936053609A0002F12E
:10BAE000604202F561420133082BC2F88010C2F8AF
:10BAF0008011F3D1002383F31488054B1A6882F375
:10BB0000088862B65B689847FEE708BD00ED00E074
:10BB10000000FF1F83B5274D274E002301210DF1A3
:10BB200007008DF8073000F0FDF898B19DF8073058
:10BB3000022B0FD802F070FF9DF80740012184F01E
:10BB400003030DF107008DF8073000F0C7F820B9A6
:10BB500002F068FF00F098F8DEE70C236343EA1870
:10BB6000E95C31B153883068184400F0C9F8002806
:10BB7000EED00C236343E81887683FB1EA5C316874
:10BB8000C38840880B4401441046B8470C2303FB8C
:10BB90000454217911B902F045FFBEE7E38830680B
:10BBA000184400F09BF8044602F03CFF002CB4D18E
:10BBB000D0E700BF700C002064EB000807B500F070
:10BBC000DBF800230093FF22044B05484FF4B461D7
:10BBD00000F0FCFE03B05DF804FB00BF15BB0008DD
:10BBE0002012002000F0D8B873B5044600F04CF8DD
:10BBF000E0B202288DF806003FD802F00DFF0121C7
:10BC00000DF106009DF8065000F068F828B90024F0
:10BC100002F008FF204602B070BDFF2301210DF1A4
:10BC200007008DF8073000F06BF804460028EED0CE
:10BC30009DF806309DF8072083F003039A42E6D171
:10BC40000C220F4E6A43B018B15C69B90C2303FB98
:10BC5000056529790029DBD00A4AEB881068184469
:10BC600000F04EF80446D3E7064A438810681844AB
:10BC700000F034F80028E9D1C9E70024CAE700BF82
:10BC8000700C002064EB000873B5302585F3118833
:10BC9000114C23685B69003318BF01238DF807300E
:10BCA000002686F311889DF807300BB902B070BDED
:10BCB00085F3118820680C3001F0A0F886F3118814
:10BCC0009DF8073085F3118823685B69003318BF3E
:10BCD00001238DF80730E4E7B00C0020074B70B566
:10BCE0001D682B680C46DE690A464FF4FA6301466C
:10BCF0002846B047031B5842584170BDB00C002085
:10BD0000074B70B51D682B680C461E6A0A464FF437
:10BD1000FA6301462846B047031B5842584170BD9C
:10BD2000B00C002038B5064B1B681A680C469568A5
:10BD30000A4601461846A847031B5842584138BDD9
:10BD4000B00C002010B5074C40F29A32204640213A
:10BD500001F0ACFF204640F29A328021BDE810404D
:10BD600001F0A4BF0004024008B5FFF7EBFF08BDD7
:10BD700008B5FFF7E7FF08BD10B5054C2046FFF7F3
:10BD8000F7FF20680349BDE8104001F0F3B900BF98
:10BD9000B00C0020A40C002010B5054C2046FFF785
:10BDA000E3FF20680349BDE8104001F0E3B900BF9C
:10BDB000B00C0020A40C00207047000010B5084A09
:10BDC000084C117824784B1C03F00F039C421DBFD4
:10BDD000054C13706054002018BF012010BD00BF37
:10BDE000561A0020571A0020461A0020302383F3E9
:10BDF0001188002383F3118870470000F8B50F4CB9
:10BE00002346002243F8042F90F84B7090F84960C5
:10BE100090F8465090F84A2090F8481090F8470063
:10BE200042EA072241EA062145EA002000F0C6FA6C
:10BE300020606068002818BF2046F8BDC0170020A9
:10BE400090F84A1090F84B00064B41EA0021022975
:10BE50001A7804D1012A01D0062A02D15A78024B5D
:10BE60001A70704708180020F817002010B5044613
:10BE7000052922D8DFE801F01D21031D1D1F3023F5
:10BE800083F311880D4A012101F0E4F90C4A0221E3
:10BE9000204601F0DFF9002383F31188094B1B785A
:10BEA00013B10520FFF78AFF0220BDE81040FFF71D
:10BEB00085BF0846F9E70520F7E710BDA4EB0008A9
:10BEC000C8EB00080118002070B504460648036856
:10BED0000D460BB100F0BAFB2B462146034A02483F
:10BEE000BDE8704000F0A8BBE0170020F1BE0008DC
:10BEF00070B530230E4683F311880B78042B03D0E2
:10BF0000002383F3118870BD154B1B78DB09F7D133
:10BF1000144C2278002AF3D0134B1B78002BEFD05F
:10BF20000B899B0705D40823104A0121304601F0F4
:10BF3000E3F90F4B247840F2E730A4FB03452018C7
:10BF40004FF000014FF47A724FF0000345EB01010E
:10BF5000FCF702F931468000FFF7B6FFD0E700BFDB
:10BF60002C1A0020DC170020B40C0020F917002048
:10BF7000A0860100F8B590F8443003F07F02212A32
:10BF8000044640F0958013F0800244D0002A00F06F
:10BF90008F8090F84520022A38D0032A29D0012A20
:10BFA00040F0868090F8483090F8490053EA00202D
:10BFB0000FD0012894F8462012D04C4BA3631A707E
:10BFC00094F84A3094F84B2043EA0223E3630023B9
:10BFD00036E0474BA3630823E3632064012014E0A9
:10BFE000022AEAD1434BA3630623E36300232364BD
:10BFF0000BE090F8482090F8491052EA012257D1FE
:10C000003D4B83630120E0632264F8BD3B4B8363B7
:10C010000120E063EAE790F845200A2A3FD00B2A86
:10C0200010D0092A44D190F8482090F8491042EAEB
:10C030000122012A3CD8324B83630223C363314B74
:10C040002364CBE790F8483090F8492053EA022364
:10C0500021D190F84650284B1D70E5B9274B1A782E
:10C06000CAB1302282F311881E78274B40F2E730A4
:10C07000A6FB036730184FF000014FF47A724FF0BF
:10C08000000347EB0101FCF767F821468000FFF74A
:10C090001BFF85F311880023A363E363D0E71B49EB
:10C0A000164B0D7890F847201A70ED09F3D1D7E7B9
:10C0B00003F09F03812B01D00020A6E794F84530C0
:10C0C000062BF9D194F84920616894F848304D68FE
:10C0D00094F8461043EA0223204694F84720A847E4
:10C0E0000028E9D04368A36303686FE720180020A5
:10C0F000F917002002180020B40C0020DC170020E3
:10C100000818002041BE0008A08601002C1A00205B
:10C1100008B5102200210448FCF76AFA034A0023FC
:10C120001370034A137008BD461A0020561A0020E7
:10C13000571A0020F8B5294D294E2C4630782B7817
:10C14000284F0021984230D101B12070F8BD2370F2
:10C15000254B01221A70254B93F84F10081C18BF6D
:10C160000120FFF7ADFBE9E723701F4B00221A7097
:10C17000FFF7ECFB1D4B93F84F10081C18BF012074
:10C18000FFF7A8FBDAE72370184B93F84F10081C51
:10C1900018BF0120FFF788FBD0E700212370084675
:10C1A000F8E72370FFF798FBC8E71A460133BA5C3B
:10C1B00003F00F030121052AC4D80FF2080C5CF824
:10C1C00022F000BFA3C1000845C1000887C10008D4
:10C1D0009BC100084FC1000869C10008571A002020
:10C1E000561A0020461A002001180020EC1A0020E0
:10C1F000426D936B23F4002310B59363044600F063
:10C20000FFFF41F2883000F014FC0649204600F0A0
:10C21000E4FF626D936B43F400239363024B0022AF
:10C220001A6010BDECEB0008E0170020426D936B24
:10C2300023F4002310B59363044600F0E1FF0549A1
:10C24000204600F0CAFF626D936B43F400239363B2
:10C2500010BD00BFECEB0008014B1878704700BF21
:10C26000F817002070B5302304460D46164683F3B8
:10C2700011880F490B78042B03D0002383F3118816
:10C2800070BD01200B89A04018420AD001EB840147
:10C29000CB6858694FF47A710C3000F0D7FB01304D
:10C2A000EBD033462A462146014801F025F8E4E761
:10C2B000EC1A002010B50146044608220120FFF7C1
:10C2C000D1FF082221460248FCF7F8F810BD00BF54
:10C2D000F9170020014620220220FFF7C3BF00000B
:10C2E00010B50146044606220220FFF7BBFF0622D6
:10C2F00021460248FCF7E2F810BD00BF02180020FA
:10C30000014603220220FFF7ADBFFFF7C9BB70470C
:10C31000704708B5FFF7F9FF02F036FBFFF7F7FFAC
:10C3200008BD08B502F076FBFFF7F2FF08BDFFF786
:10C33000DDBA000008B5FFF7EBFE0648FFF758FF2F
:10C34000054B064A1A6041F28830BDE8084000F00B
:10C3500070BB00BFEC1A002028180020B80C002089
:10C36000014B1868FFF722B92818002038B5114C86
:10C37000FFF7E0FE2378052B1AD125462378052BFD
:10C3800005D0FDF773FABDE83840FEF759BFFFF757
:10C39000D4FAB4F84C309B07F0D5FFF7B5FA002873
:10C3A000ECD0284600F0BAFF2846FFF73FFFE5E74C
:10C3B00038BD00BFEC1A002070470000020A032AB3
:10C3C00011D006D8012A1ED0022A1FD00020024612
:10C3D00011E0212A11D0222AF8D1E9B10129F5D1A1
:10C3E000B6200F4A07E0C0B20228EFD80D4A0E4926
:10C3F00052F82020085C1A60704751B10129E5D13C
:10C4000009200A4AF7E71220094AF4E73B20094AC3
:10C41000F1E70920084AEEE74420084AEBE700BFAD
:10C42000D0EC0008FCEB000808EC000836EC000833
:10C4300046EC00080BEC00081DEC000858EC000866
:10C440000348426D936B23F40023936300F0D8BE3E
:10C45000EC1A0020024B1878031F584258417047CD
:10C46000EC1A0020024B034A1A60034A5A607047D4
:10C47000581A0020B01C00200000012070477047AF
:10C48000FEE700000C4B70B50820002493E826005E
:10C490000439954207D8D968914209D8013803F187
:10C4A0001003F3D170BD51F8046F42F8046BF0E74C
:10C4B00042F8044BF0E700BF88ED000838B5084C9F
:10C4C0000123002523706560FFF7CCFF054906486E
:10C4D00000F004FA0223237085F3118838BD00BFF1
:10C4E000601A002008EE0008681A002072B6034B9C
:10C4F000D865034B03221A70FEE700BF681A0020BC
:10C50000601A002000F0D8B8034B59685A68521AD4
:10C510009042FBD8704700BF001000E0024AD36A87
:10C520001843D062704700BF681A002010B5036836
:10C530009C68A2420CD85C688A600B604C602160E9
:10C54000596099688A1A9A604FF0FF33836010BD72
:10C55000121B1B68ECE7022938BF022170B50446A4
:10C560000E460225A01900F0DBFB00F0C8FB041BFF
:10C57000A64203D801352E460446F3E7022D04D91E
:10C580000120BDE87040FFF7C9BF70BDF8B5144B7E
:10C590000E46D96103F11001416019698260022AD7
:10C5A00038BF0222016048601861B018144600F0DC
:10C5B000AAFB022500F0A3FB831BA342074606D378
:10C5C0000135701900F0ACFB2C463E46F2E7022D17
:10C5D00004D90120BDE8F840FFF7A0BFF8BD00BFB7
:10C5E000681A0020F8B50D46064600F088FB104991
:10C5F0000A4652F8107F974206D12A460146304635
:10C60000BDE8F840FFF7C2BFC969431AEB1838BF4D
:10C610001C46BB6828BF2C46A34202D92946FFF717
:10C620009AFF224631460348BDE8F840FFF77EBF37
:10C63000681A0020781A002010B403610023C26039
:10C6400043615DF8044BFFF7CDBF000010B5194CF6
:10C65000236998420DD003684268816813605A606C
:10C660009A680A449A60002303604FF0FF33A36185
:10C6700010BD2346026843F8102F53600022026069
:10C6800022699A4203D1BDE8104000F044BB936890
:10C6900081680B44936000F032FB2269E369926881
:10C6A000C41AA242E4D91344191ABDE81040FFF796
:10C6B00052BF00BF681A00202DE9F84F2A4EB1463C
:10C6C00006F11008294F356900F019FBF469AA68D2
:10C6D000031B9A423BD82B6814446A68F4611360C8
:10C6E0005A6000232B603269BA429A4601D100F0A9
:10C6F00012FB8AF31188EB68296928469847302392
:10C7000083F311886B69002BDDD000F0F8FA6A69B9
:10C71000A0EB040B5A4582460DD20220FFF7FEFE25
:10C720000022D9F81030BB4208D151462846BDE856
:10C73000F84FFFF72BBF121A2244F2E712EB0B0B54
:10C7400038BF5A4629464046FFF7F0FEBAE733693C
:10C75000BB4207D01444211AF061A960BDE8F84F2C
:10C76000FFF7F9BEBDE8F88F681A0020781A00209C
:10C7700000230375826803691B6899689142FBD2A4
:10C780005A68036042601060586070470023037568
:10C79000826803691B6899689142FBD85A680360F4
:10C7A000426010605860704708B5302383F31188E9
:10C7B0000A7D0023052A06D8DFE802F00C050503F0
:10C7C000130F8A6913604FF0FF338B610846FFF740
:10C7D000CFFF002383F3118808BD8A699368013372
:10C7E00093604A680B6813605A60ECE7FFF7C0BFBC
:10C7F000054BD9680875186802681A6053600122F1
:10C800000275D860FBF78EBC681A002030B50C4B5F
:10C81000DC684B1C87B005460FD02346094A6846A2
:10C82000FFF70AFF2846FFF7E3FF009B13B16846B6
:10C83000FFF70CFFA06907B030BDFFF7D9FFF9E79C
:10C84000681A0020A9C7000838B50C4D8161EB6853
:10C8500081689A689142044603D8BDE83840FFF7E2
:10C8600087BF1846FFF792FF01232375EC6001464E
:10C870002046BDE83840FBF755BC00BF681A0020D1
:10C88000044B1A68DB6890689B68984294BF00204C
:10C8900001207047681A0020084B10B51C68D86842
:10C8A00022681A60536001222275DC60FFF76EFF78
:10C8B00001462046BDE81040FBF734BC681A002052
:10C8C000044B1A68DB6892689B689A4201D9FFF7AB
:10C8D000E3BF7047681A002030BFFDE770B504461B
:10C8E0000025194B856286B021630E46586000F022
:10C8F000A5F904F11003236163614FF0FF33A361D5
:10C9000024606460A560E562E56100F0F8F900214B
:10C91000C4E90801802304F13401E5650B4A20468F
:10C9200000F01AF80123E060094A0375009272686A
:10C930000192B268CDE90223064B6846CDE9043581
:10C9400000F03CF806B070BD601A002017EE000839
:10C950001CEE0008D9C800088B6002224B6200233D
:10C9600008618A820B62CB61084670478368C168A0
:10C97000A3F18C0243F81C2C026943F84C2C426949
:10C9800043F8482C0B4A43F82C2C022203F8142CB1
:10C99000094843F8180C002243F8201C03F8132C14
:10C9A00043F8041C43F8082C43F80C2CA3F128008E
:10C9B000704700BF3D810008681A002008B5FFF7E6
:10C9C000D5FFBDE80840FFF711BF000038B530249F
:10C9D00084F3118828394418002544F8243C049B2A
:10C9E00044F8203C0A4B44F8043C0223A4F16401BF
:10C9F000A382084BE160A260236162622562E56167
:10CA000029462046FFF720FF85F31188204638BDD0
:10CA10003D810008681A0020024BDB6898610F20F6
:10CA2000FFF7E6BE681A0020302383F31188FFF772
:10CA3000F3BF08B50146302383F311880820FFF7C0
:10CA4000E5FE002383F3118808BD0000054BDB6879
:10CA500021B1036098610320FFF7D8BE4FF0FF308B
:10CA6000704700BF681A002003682BB100220260E3
:10CA700099611846FFF7BABE70470000064BDB68A5
:10CA800039B1426818605A60136043600420FFF7B0
:10CA9000BDBE4FF0FF307047681A0020036898420F
:10CAA00006D01A680260506099611846FFF79EBE72
:10CAB000704738B504460D462068844200D138BD21
:10CAC000036823605C608561FFF790FEF4E710B5B2
:10CAD00003461B68984203D09C688A689442F8D247
:10CAE0005A680B604A601160596010BD00230060F5
:10CAF000406083607047000070B5174B8468DD6844
:10CB000006469CB92B6A8560C360286270BDA3602D
:10CB1000237D83B1062B15D123686268A069136059
:10CB200021465A60FFF7D3FFA3699C68AB68A268EF
:10CB30009A42ECD306E062682368136020465A608C
:10CB4000FFF754FE30462946FFF7C1FFAE610620CD
:10CB5000BDE87040FFF74CBE681A002008B53023CE
:10CB600083F31188FFF7C8FF002383F3118808BD02
:10CB7000154A10B5D1680346302282F31188C26885
:10CB800000680A6283421BD0486A82B988601868CC
:10CB900002681A605360026A9860DA600362FFF705
:10CBA00025FEFFF78DFE002383F3118810BD146866
:10CBB000A24203D0A468A04238BF2046D268E4E76E
:10CBC00000229A60EFE700BF681A0020C36919438A
:10CBD000037DC1610A2B03D18369194205D17047D6
:10CBE0000B2B06D183698B4303D100238361FFF7AD
:10CBF000FDBD704770B5046806460D46B44200D1CD
:10CC000070BDE3682B43E36015B123691D4203D077
:10CC1000A1686068FFF7DAFF2468EFE7EFF30983A4
:10CC200005494A6822F001024A60683383F30988A3
:10CC3000002383F31188704730EF00E0302080F349
:10CC4000118862B60B4B0C4AD96821F4E0610904E3
:10CC5000090C0A430949DA60CA6842F08072CA6066
:10CC600007490A6842F001020A602022DA7783F855
:10CC70002200704700ED00E00003FA05F0ED00E04F
:10CC8000001000E010B5302383F311880E4B5B6871
:10CC900013F4006314D0F1EE103AEFF30984683C0A
:10CCA0004FF08073E361094BDB68236684F30988E6
:10CCB000FFF7E6FD10B1064BA36110BD054BFBE786
:10CCC00083F31188F9E700BF00ED00E030EF00E0EA
:10CCD0004F8100085281000808B500F0F3FD00F014
:10CCE000E4FF00F0D7F900F022FA00F068FAFFF74D
:10CCF00018FBBDE8084000F000B801F01BBD4FF084
:10CD00008043586A70474FF08043002258631A618D
:10CD10000222DA6070474FF080430022DA607047E9
:10CD20004FF0804358637047F8B51546826806692E
:10CD3000AA420B46816938BF8568761AB542044617
:10CD400007D218462A46FBF7B9FBA3692B44A36117
:10CD50000DE011D932461846FBF7B0FBAF1B3A463F
:10CD6000E1683044FBF7AAFBE2683A44A261A36899
:10CD70005B1BA3602846F8BD18462A46FBF79EFBBE
:10CD8000E368E4E783682DE9F041044693421546E1
:10CD9000266938BF85684069361AB5420F4606D203
:10CDA0002A46FBF78BFB63692B4463610DE012D9C4
:10CDB0003246A5EB0608FBF781FB4246B919E0684D
:10CDC000FBF77CFBE26842446261A3685B1BA360E3
:10CDD0002846BDE8F0812A46FBF770FBE368E4E7EC
:10CDE00010B50A440024C361029B00604060846067
:10CDF000C160816141610261036210BDC2688261EC
:10CE00004261002282606FF00101FFF752BE08B557
:10CE100082694369934201D1826882B98268013292
:10CE200082605A1C42611970036942699A4224BFA8
:10CE3000C36843610021FFF731FE002008BD4FF0B9
:10CE4000FF30FBE770B5302304460E4683F31188AC
:10CE5000A568A5B1A368A269013BA360531CA361A7
:10CE600015782269934224BFE368A361E3690BB19B
:10CE700020469847002383F31188284607E031466F
:10CE80002046FFF7FBFD0028E2DA85F3118870BD2C
:10CE90002DE9F74F05460F4690469A46D0F81C906C
:10CEA000302686F311884FF0000B144664B12246F9
:10CEB00039462846FFF738FF034668B951462846E9
:10CEC000FFF7DCFD0028F1D0002383F31188A8EBE5
:10CED000040003B0BDE8F08FB9F1000F03D001905A
:10CEE0002846C847019B8BF31188E41A1F4486F338
:10CEF0001188DBE7C16081614161C3611144009B1E
:10CF0000006040608260016103627047F8B50446CA
:10CF10000E461746302383F31188A568A5B1A36890
:10CF2000013BA36063695A1C62611E7023696269D8
:10CF30009A4224BFE3686361E3690BB120469847D6
:10CF4000002080F3118807E039462046FFF796FD60
:10CF50000028E2DA85F31188F8BD836942699A42B4
:10CF600010B501D182687AB98268013282605A1C98
:10CF700082611C7803699A4224BFC36883610021DF
:10CF8000FFF78CFD204610BD4FF0FF30FBE72DE989
:10CF9000F74F05460F4690469A46D0F81C9030262B
:10CFA00086F311884FF0000B144664B122463946CF
:10CFB0002846FFF7E7FE034668B951462846FFF7C3
:10CFC0005DFD0028F1D0002383F31188A8EB040055
:10CFD00003B0BDE8F08FB9F1000F03D001902846EF
:10CFE000C847019B8BF31188E41A1F4486F311880C
:10CFF000DBE700002DE9F3480E4D044640F2E7362A
:10D000000027236801A99B692046984701280ED173
:10D010000199B346BC46E5FB01BC4FF47A7200238C
:10D0200061465846FBF798F8FFF703FDE9E702B0C1
:10D03000BDE8F088A0860100036810B55B680C4667
:10D040009847C36813B153F8340010BD00696043BA
:10D05000FBE7036810B55B680C469847C3681BB1D3
:10D0600003EBC403586810BD0069FCE7036810B502
:10D070005B680C4698474069204410BD08B50C30E9
:10D08000FFF776FD002008BD08B50C30FFF766FD00
:10D09000002008BD00F0EABC034B036001230371CC
:10D0A0000C30FFF723BD00BF24EE000810B530237D
:10D0B000044683F31188816000F006FD022323718A
:10D0C000002080F3118810BD10B53023044683F38F
:10D0D000118800F00DFD01232371002383F31188D3
:10D0E00010BD0C30FFF7D4BE4FF0FF330C30FFF70C
:10D0F000CFBE3030FFF74BBF4FF0FF333030FFF77C
:10D1000046BF0C30FFF79EBE4FF0FF310C30FFF7EB
:10D1100099BE3030FFF7FABE4FF0FF323030FFF7E4
:10D12000F5BE012914BF6FF013000020704701F015
:10D1300041BB000037B5034615460D4A43F8042BA2
:10D140004360012304460372802200900B4600F1E5
:10D1500054010C30FFF744FE00942B46802204F16A
:10D16000D40104F13000FFF7C5FE03B030BD00BFAD
:10D170004CEE000810B53023044683F3118801F00B
:10D1800031FB02232372002080F3118810BD38B5D3
:10D19000436904460D461BB904210844FFF72AFDE4
:10D1A000294604F10C00FFF732FE002806DA201DA4
:10D1B0004FF40061BDE83840FFF71CBD38BD00F0FA
:10D1C0001BBE012303700023C36183620362C36239
:10D1D0004362036343608360704738B5054630237C
:10D1E00083F3118800244160C46004614461846158
:10D1F00000F012FE02232B7084F31188204638BD04
:10D2000070B53023064683F31188344600F06AFE79
:10D2100000250123756004F80C3B1C3654F8043BD0
:10D220007BB1586920B16FF001010C30FFF71CFC95
:10D2300054F8043C986920B16FF001010C30FFF7FD
:10D2400013FCB44244F8045CE8D1FFF739FB85F3E2
:10D25000118870BD70B500EB810305465069DA6036
:10D260000E46144618B114220021FBF7C1F9A0693B
:10D2700018B114220021FBF7BBF931462846BDE85E
:10D28000704000F0B5BEF8B5836803F001130446A2
:10D29000836000F1100500F11C06002755F8043BDF
:10D2A0007BB1586920B16FF001010C30FFF7DCFB56
:10D2B00055F8043C986920B16FF001010C30FFF77C
:10D2C000D3FBB54245F8047CE8D12046BDE8F840E0
:10D2D00000F00CBFF0B400EB81044789E46801253D
:10D2E000A4698D403D43458123600023A2606360B3
:10D2F000E360F0BC00F022BFF0B400EB81040789CA
:10D30000E468012564698D403D4305812360002365
:10D31000A2606360E360F0BC00F0A6BF0378052B59
:10D3200010B5044618D1436DD3F8042842F0010229
:10D33000C3F804285A6942F008025A619A6942F017
:10D3400008029A61C820FFF774FB626DD2F80438B6
:10D3500023F00103C2F8043810BD2DE9F041022387
:10D36000002504460370C564856000F10C0600F1D9
:10D370001C074FF0300856F8043BABB188F3118816
:10D3800056F8043C586920B16FF001010C30FFF7EA
:10D390006BFB56F8043C986920B16FF001010C302A
:10D3A000FFF762FB85F31188BE4246F8045CE2D1C8
:10D3B00084F83450204600F0B7FD63681B6823B141
:10D3C00020460021BDE8F0411847BDE8F081F8B5DE
:10D3D0000378052B044629D080F8503005230370CC
:10D3E00043681B680BB1042198470026A66004F12E
:10D3F0000C0530271C3455F8043BABB187F311887A
:10D4000055F8043C586920B16FF001010C30FFF76A
:10D410002BFB55F8043C986920B16FF001010C30EA
:10D42000FFF722FB86F31188A542E4D1F8BD01780D
:10D43000052906D1436890F850201B68027003B19B
:10D440001847704790F8343070B5044613B1002384
:10D4500080F8343004F14402204600F066FE636830
:10D460009B68B3B994F8443013F0600539D00021BB
:10D47000204601F041F90021204601F033F96368AC
:10D480001B6813B1062120469847062384F83430E0
:10D4900070BD204698470028E4D094F84B2094F8BB
:10D4A0004A3043EA0223E26B9A4288BFE36394F96D
:10D4B0004430E56B002B4FF0300380F20B81002DE0
:10D4C00000F0FA80092284F8342083F311880021C7
:10D4D000E36BA26B2046FFF70FFF002383F3118855
:10D4E000D6E794F8452003F07F0343EA022340F295
:10D4F0000232934200F0CC8025D8022B00F0A080AD
:10D5000009D8002B51D0012BB1D17F4BA36302234B
:10D51000E36300234EE0B3F5817F00F0A680B3F50E
:10D52000407F49D0B3F5807FA1D194F84630012BDC
:10D530009DD1B4F84C3023F00203A4F84C30A5631D
:10D54000E5632564A9E740F2016293421DD8B3F573
:10D55000C06F3BD2B3F5A06F89D1B4F84430B3F5B6
:10D56000A06F0ED194F8463084F84E30204600F07B
:10D5700033FD63681B6813B10121204698470323DC
:10D5800023700023A363E36314E0B3F5106F33D07B
:10D5900040F602429342B8D0B3F5006F7FF467AF14
:10D5A00004F14F03A363012324E004F14C02A263BE
:10D5B0000222E263236470E794F84630012B7FF483
:10D5C00056AFB4F84C3043F00203B6E794F8492064
:10D5D000616894F848304E6894F8471043EA022393
:10D5E000204694F84620B04700283FF440AF4368F7
:10D5F000A3630368E363A4E72378042B10D13023EB
:10D6000083F311882046FFF73EFE85F31188636897
:10D6100084F84F501B68032121700BB120469847B6
:10D6200094F84630002BACD084F84F30042323709C
:10D6300063681B68002BA4D0022120469847A0E70E
:10D6400094F848301D0603F00F0120460AD500F07B
:10D650005FFD012804D002287FF409AF2B4B55E76A
:10D660002B4B53E700F047FDF3E794F84630002BCF
:10D670007FF4FDAE94F8483013F00F0181D01A0604
:10D68000204602D501F04CF87BE701F03FF878E73F
:10D6900094F84630002B7FF4EAAE94F8483013F04B
:10D6A0000F013FF46EAF1B06204602D501F024F8AF
:10D6B00067E701F017F864E7142284F8342083F355
:10D6C00011882B462A4629462046FFF703FE85F39C
:10D6D0001188DDE65DB1152284F8342083F31188CA
:10D6E0000021E36BA26B2046FFF7F4FDF5E60B2269
:10D6F00084F8342083F311882B462A462946204695
:10D70000FFF7FAFDE3E700BF78EE000874EE0008CB
:10D7100076EE000838B590F834300446152B39D829
:10D72000DFE803F03E38383838383E38380B2939CE
:10D7300038383838383838383E3E90F84B1090F842
:10D740004A20C36B42EA0122934214D2C268128A71
:10D75000B3FBF2F502FB15356DB9302383F3118865
:10D760002B462A462946FFF7C7FD85F311880A2371
:10D7700084F834300EE0142384F83430302383F3FB
:10D78000118800231A4619462046FFF7A3FD0023FF
:10D7900083F3118838BD036C03B198470023E7E792
:10D7A000002100F0A9FF0021204600F09BFF6368E4
:10D7B0001B6813B10621204698470623D8E790F846
:10D7C0003420152A38B5044617D80123934040F673
:10D7D000416213421ED113F480150FD19B020CD568
:10D7E0000B2380F83430302383F311882B462A46EC
:10D7F0002946FFF781FD85F3118838BDC3689B6911
:10D800005B68002BF9D1036C03B19847002384F8BF
:10D810003430F2E7002100F06FFF0021204600F0D5
:10D8200061FF63681B6813B10621204698470623F1
:10D83000EDE700F1604300F01F02400903F561438A
:10D8400009018000C9B200F1604083F8001300F5BF
:10D85000614001239340C0F880310360704700F0BD
:10D860001F0301229A4043099B0003F1604303F523
:10D87000614300F1604000F56140C3F88020C3F8C7
:10D880008021002380F800337047000008B503486A
:10D8900000F0F2FFBDE80840FFF7F4B94C1B002090
:10D8A00008B500F06BFFBDE80840FFF7EBB908B51D
:10D8B00007211C20FFF7BDFF0C212520BDE80840F3
:10D8C000FFF7B7BF1E4B1A6962F01F021A611A698F
:10D8D00002F01F021A614FF0FF301A695A6958614D
:10D8E00000215A6959615A691A6A62F080521A62B3
:10D8F0001A6A02F080521A621A6A5A6A58625A6A9E
