:020000040800F2
:10000000000400201D8100081F8100081F810008D6
:100010001F8100081F8100081F8100081F81000840
:100020001F8100081F8100081F81000865D000089B
:100030001F8100081F8100081F8100081F81000820
:100040001F8100081F8100081F8100081F81000810
:100050001F8100081F8100081F8100081F81000800
:100060001F8100081F8100081F8100081F810008F0
:100070001F8100081F8100081F8100081F810008E0
:100080001F8100081F8100081F8100081F810008D0
:100090001F8100081F8100081F8100081F810008C0
:1000A0001F8100081F8100081F8100081F810008B0
:1000B00081DE00081F8100081F8100081F810008E1
:1000C0001F8100081F8100081F8100081F81000890
:1000D0001F8100086DDE00081F8100081F810008D5
:1000E0001F8100081F8100081F8100081F81000870
:1000F0001F8100081F8100081F8100081F81000860
:100100001F8100081F8100081F8100081F8100084F
:100110001F8100081F8100081F8100081F8100083F
:100120001F8100081F8100081F8100081F8100082F
:100130001F8100081F8100081F8100081F8100081F
:100140001F8100081F8100081F810008E5E90008E1
:100150001F8100081F8100081F8100081F810008FF
:100160001F8100081F8100081F8100081F810008EF
:100170001F8100081F8100081F8100081F810008DF
:100180001F8100081F8100081F8100081F810008CF
:100190001F8100081F8100081F8100081F810008BF
:1001A0001F8100081F8100081F8100081F810008AF
:1001B0001F8100081F8100081F8100081F8100089F
:1001C0001F8100081F8100081F8100081F8100088F
:1001D0001F8100081F8100081F8100081F8100087F
:1080000072B6374880F30888364880F309883648C6
:108010003649086040F20000CCF200004EF63471A0
:10802000CEF200010860BFF34F8FBFF36F8F40F2B5
:108030000000C0F2F0004EF68851CEF20001086058
:10804000BFF34F8FBFF36F8F4FF00000E1EE100AC8
:108050004EF63C71CEF200010860062080F31488D1
:10806000BFF36F8F04F03EFC04F08CF84FF05530F6
:108070001F491B4A91423CBF41F8040BFAE71D49D6
:10808000184A91423CBF41F8040BFAE71A491B4ACF
:108090001B4B9A423EBF51F8040B42F8040BF8E721
:1080A00000201849184A91423CBF41F8040BFAE7F6
:1080B00004F01CFC04F017FC144C154DAC4203DA20
:1080C00054F8041B8847F9E702F088FA114C124D66
:1080D000AC4203DA54F8041B8847F9E704F004BC07
:1080E00000040020000C00200000000808ED00E063
:1080F0000000002000040020A8F60008000C00206A
:108100000C10002010100020E42000200080000847
:1081100000800008008000080080000870E700F080
:1081200000F8FEE72DE9F04F2DED108AC1F80CD0D4
:10813000C3689D46BDEC108ABDE8F08F002383F331
:1081400011882846A047002004F0A2FEFEE704F0B4
:10815000D7FD00DFFEE7000053B94AB9002908BF88
:1081600000281CBF4FF0FF314FF0FF3000F074B912
:10817000ADF1080C6DE904CE00F006F8DDF804E07E
:10818000DDE9022304B070472DE9F047089E04465C
:108190008846002B40F085808A42154648D9B2FABD
:1081A00082F24AB1C2F1200701FA02F320FA07F77E
:1081B000954047EA030894404FEA154E230CB8FB5C
:1081C000FEF71FFA85FC0EFB178843EA084307FBFE
:1081D0000CF1994209D9EB1807F1FF3080F0E380E8
:1081E000994240F2E080023F2B445B1AA4B2B3FBF9
:1081F000FEF00EFB103344EA034400FB0CFCA445E4
:1082000009D92C1900F1FF3380F0CB80A44540F24E
:10821000C88002382C4440EA0740A4EB0C04002735
:108220001EB1D4400023C6E900433946BDE8F087BB
:10823000002A53D0B2FA82F2002A40F0B680491BDD
:108240004FEA154E1FFA85F80127B1FBFEFC230CFF
:108250000EFB1C1143EA014308FB0CF1994207D9BC
:10826000EB180CF1FF3002D2994200F2EC80844608
:10827000591AA3B2B1FBFEF00EFB101443EA0444FA
:1082800008FB00F8A04507D92C1900F1FF3302D2F2
:10829000A04500F2DC801846A4EB080440EA0C403C
:1082A000BEE78B4208D9002E78D00027C6E900012E
:1082B00038463946BDE8F087B3FA83F77FB98B4279
:1082C00002D3824200F2BD80841A61EB03030120D5
:1082D0009846002EA9D0C6E90048A6E7FFDEC7F100
:1082E0002005BB4022FA05FC4CEA030C01FA07F416
:1082F00020FA05F821FA05F34FEA1C4E48EA040477
:10830000B3FBFEF9210C0EFB19331FFA8CF841EA7E
:10831000034309FB08FA9A4502FA07F200FA07F14B
:108320000BD91CEB030309F1FF3080F088809A45DC
:1083300040F28580A9F102096344A3EB0A03A4B2C9
:10834000B3FBFEF00EFB103344EA034400FB08F8D5
:10835000A04508D91CEB040400F1FF336BD2A04503
:1083600069D90238644440EA0940A4EB0804A0FB40
:1083700002894C45C6464B4654D351D0002E69D095
:10838000B1EB0E0264EB030404FA05F522FA07F3DD
:10839000FC401D43C6E90054002746E737463046F7
:1083A00043E7184637E707461FE7C2F1200320FAE4
:1083B00003F7954001FA02F021FA03F34FEA154E54
:1083C0003843010CB3FBFEF71FFA85F80EFB173399
:1083D00041EA034107FB08F38B4204FA02F407D990
:1083E000691807F1FF3C28D28B4226D9023F294465
:1083F000CB1A81B2B3FBFEF00EFB103341EA03410E
:1084000000FB08F38B4207D9691800F1FF3C10D23A
:108410008B420ED902382944C91A40EA074714E7AB
:108420004145ABD2B8EB020E69EB0C0201381346A2
:10843000A4E76046F0E7184695E76746D8E7814627
:108440007BE7384645E7ACF1020C2B4410E70238D5
:108450002C4421E73746E8E6704700BF032A70B492
:1084600012D940EA0105AD0704460B4620D1194652
:10847000204653F8045B54F8046BAE4218D1043A1A
:10848000032A20461946F2D8541E72B103780A789E
:108490009A4208BF241806D00CE010F8013F11F8EA
:1084A000012F934206D1A042F7D1002070BC704743
:1084B000541EEBE7981A70BC704700BF844641EA2F
:1084C000000313F003036DD1403A41D351F8043B4C
:1084D00040F8043B51F8043B40F8043B51F8043B9E
:1084E00040F8043B51F8043B40F8043B51F8043B8E
:1084F00040F8043B51F8043B40F8043B51F8043B7E
:1085000040F8043B51F8043B40F8043B51F8043B6D
:1085100040F8043B51F8043B40F8043B51F8043B5D
:1085200040F8043B51F8043B40F8043B51F8043B4D
:1085300040F8043B51F8043B40F8043B51F8043B3D
:1085400040F8043B51F8043B40F8043B403ABDD2AC
:10855000303211D351F8043B40F8043B51F8043B4E
:1085600040F8043B51F8043B40F8043B51F8043B0D
:1085700040F8043B103AEDD20C3205D351F8043BDD
:1085800040F8043B043AF9D2043208D0D2071CBFA9
:1085900011F8013B00F8013B01D30B8803806046D2
:1085A000704700BF082A13D38B078DD010F0030348
:1085B0008AD0C3F10403D21ADB071CBF11F8013BB8
:1085C00000F8013B80D331F8023B20F8023B7BE707
:1085D000043AD9D3013A11F8013B00F8013BF9D232
:1085E0000B7803704B7843708B78837060467047CC
:1085F000F0B4860746D0541E002A3CD0CAB20346C7
:1086000002E014F1FF3436D303F8012B9D07F8D1B3
:10861000032C29D9CDB245EA05250F2C45EA05459D
:1086200033D9A4F11006360903F1200707EB06172A
:1086300003F1100242E9045542E902551032BA42F0
:10864000F8D1721C14F00C0F03EB021204F00F06A9
:1086500013D0331F23F003030433134442F8045BA5
:108660009342FBD106F003042CB1C9B21C4403F8B9
:10867000011B9C42FBD1F0BC704734461346002CD2
:10868000F3D1F8E714460346C2E71A462646E0E768
:1086900050B9072908D8052A06D8062303FB01216B
:1086A000024B33F8110070470120704768F0000852
:1086B000FFF7EEBF0120704708B5FFF7FBFF08BDCD
:1086C000012070470120704708B5FFF7FBFF08BD88
:1086D000704708B5FFF7FCFF08BD000013B502ABFB
:1086E00003E903000F4B1B78B3B99DF805300098E0
:1086F00073B16AB100F020FD04460146009800F015
:10870000E9FC0099204602B0BDE8104001F066BBCC
:1087100000F0FAFC0446F4E7009800F00DFD009923
:10872000F1E700BF15100020034610B400885C88F4
:108730000A4640EA044099885DF8044BFFF7CEBF33
:1087400010B501210446FFF7EFFF2146FFF7B4FF04
:1087500010BD10B500210446FFF7E6FF2146FFF7E4
:10876000B8FF10BD0120704708B5FFF7FBFF08BD3B
:1087700010B5044600F0BAFB2046FFF7F5FF46F2BD
:10878000A810BDE8104004F088BB08B50120FFF731
:10879000EFFFBDE8084003F06FB908B50020FFF710
:1087A000E7FFBDE8084003F06CB938B50121054684
:1087B000FFF7BAFF29460446FFF786FF08B90020F5
:1087C00038BD2946204602F097FE0028F7D02946FA
:1087D000204602F0F1FA0028F1D02946204602F0A6
:1087E000C5FA0028EBD06B795BB147F603439C4296
:1087F0001DD00AD8B4F5F84F16D047F601439C4275
:1088000017D02846FFF75CFFDAE747F65B439C4248
:1088100015D047F65C439C420ED047F65A439C4223
:10882000EFD101F08DF8ECE7FFF7AFFFC7E701F0FC
:108830008DF8FFF7B2FFC2E701F076F8E1E701F04B
:1088400082F8DEE708B503F04AF8BDE8084000F01A
:108850001AB808B500F01CF8BDE8084003F044B8A9
:1088600001207047704738B50546FFF7F9FF044609
:1088700010B12846FFF7F6FF204638BD704708B50F
:10888000FFF7F1FF08BD08B50020FFF7F8FF08BDAE
:1088900008B502F085FEFFF7F2FF08BD10B502F043
:1088A0007FFE074B1A788242044607D0187003F007
:1088B0006DF8044B18602046FFF7E1FF10BD00BFC4
:1088C00014100020101000201FB56C4684E803002F
:1088D0009DF805300BB100F027FF0023ADF80E30F6
:1088E00094E8030011F0FF0F0290ADF80C1002ACF9
:1088F00005D194E8030000F071FE04B010BD2046DD
:10890000FFF71EFF0028F4D1F7E70379012B02D10E
:10891000008800F033BC704708B529B102F0B0FB05
:10892000BDE8084002F080BC02F008FCF8E7000057
:1089300010B50446002840D0031FDBB2A02B0ED890
:1089400002F0BCFE20B1204602F042FF00F084FF9E
:10895000204602F023FFBDE8104000F07DBF00F18B
:108960002003DBB2072B07D800F007040120A0404A
:10897000C0B200F0B3FEEEE700F15B03DBB2022B06
:1089800005D80E4ABDE81040D05C02F039BE00F1B7
:108990005803DBB21A2B06D8094ABDE8104032F85A
:1089A000130002F049BE3334E4B2122C05D802F0B1
:1089B00067FBBDE8104002F037BC10BDC8F00008EE
:1089C000CCF0000808B50346A0B3021FD2B2A02A1B
:1089D00005D802F0FDFEBDE8084000F03DBF00F103
:1089E0002002D2B2072A07D800F0070301209840DE
:1089F000C0B200F07BFEEEE700F15B02D2B2022AC9
:108A000004D80020BDE8084002F0FABD00F1580289
:108A1000D2B21A2A04D80020BDE8084002F00CBEE9
:108A20003333DBB2122B05D802F088FBBDE80840D7
:108A300002F0FABB08BD000070B50C460546FFF712
:108A400077FF84B1094E40F2E73000214FF47A728B
:108A50000023E6FB0401FFF77FFB04F01EFA284623
:108A6000FFF7B0FF70BD0120F7E700BFA08601004F
:108A700008B539280CBF50210021FFF7DDFF08BDE4
:108A800008B528B100F02AFEBDE8084000F0E4BEB9
:108A900008BD08B528B100F029FEBDE8084000F087
:108AA000DBBE08BD2DE9F0478679447980460D4646
:108AB00000F004FE3609074608B32746FCB1C5F3AB
:108AC000072303F0F002402A0CD0E9B201F12002A2
:108AD000D2B2072A25D903F0E003202B02D10129C5
:108AE0001FD906B3AF4B5F7817F0040707D00220F9
:108AF00000F0EAFE00F0E2FD80F00100C7B2C5F32D
:108B000003330B2B43D8DFE813F010001000630091
:108B10006300C300D90042004200DE003C014F0167
:108B20004F010027EBE73746E9E7C5F30723C5F315
:108B3000032613F0F00F18BF36015FFA85F994B1E0
:108B400066B109F12003DBB2072B304602D9B9F137
:108B5000000F05D100F0C2FD00F07EFE48465CE04B
:108B600000F0D2FDF8E74846FFF72CFF7EB109F18F
:108B70002003DBB2072B304602D9B9F1000F02D136
:108B800000F0B4FD01E000F0C7FD00F065FEC5F3A4
:108B90000335083D032D03D802F002FDFFF76FFEF9
:108BA000002F00F0568100F081FD10F0010040F030
:108BB000508188F8050000F073FD00F021FA40466E
:108BC00000F05EF900F06CFDBDE8F04700F024BA5B
:108BD000C5F3072303F0F003C5F30329202B5FFA45
:108BE00085FA18BF4FEA0919BAF1000F07D0BAF198
:108BF000010F35D0002C3DD0E6B150460DE0694B59
:108C00005B78590714D45CB1B9F1000F04D0484621
:108C100000F064FD00F020FE0020FFF789FEB6E7BB
:108C20002046FFF7CFFEB9F1000FB0D04846A7E7C6
:108C300054B11EB94846FFF723FFA8E7012EA6D17D
:108C4000484600F091FDA2E7002EA0D14846FFF76C
:108C500020FF484600F096FD484600F071FD96E77B
:108C600014B1052E93D8E5E7042E90D84846FFF7B7
:108C700010FF8CE7002EF9D0BAF1390F0CBF4FF47A
:108C8000FA50012004F009F95046FFF79BFE7EE7F9
:108C9000C5F3812343B1012B7FF479AF64B1C5F3F0
:108CA000090002F0C9FC72E724B1C5F3090002F023
:108CB000A7FC6CE72046FAE72046F2E72146E8B237
:108CC000FFF72AFE63E715F4407F29D1002C7FF4DB
:108CD0005EAFEA06C5F3421148BF0F244FEA810197
:108CE00048BF8C4005F00F0048BFE44300FA01F094
:108CF000C5F3812348BFA4B280B2022B40EA04002E
:108D000008D00AD8012B02D000F052F93FE700F05A
:108D100047F93CE700F054F939E700F03EF936E74F
:108D2000C5F30122D3B20CB302F00103002B3FF4D0
:108D30002EAFC5F34210820015F010001CBF0F20AB
:108D4000904005F00F0318BFC04303FA02F3C5F3C8
:108D5000812218BF80B29BB2022A40EA03000AD0E7
:108D60000CD8012A04D000F077F910E75B08DDE7A2
:108D700000F06AF90BE700F077F908E700F02EF948
:108D800005E75FFA85F9C5F303261CB1304600F00C
:108D900037F94FE74846FFF77CFE304600F03CF9D4
:108DA000F5E600BF641E00205FFA85F9A9F1F00323
:108DB000042B39D8DFE803F003220E151E003CB166
:108DC000042E3FF6E4AEC5F3042000F031F9DEE6F0
:108DD000052EF6E7C5F30420002CDFD100F010F9D2
:108DE000D5E624B1C5F3042000F003F9CFE600F086
:108DF000FDF8CCE6184B5B785B0704D4C5F3042080
:108E0000002CCBD0EAE72CB10321C5F3042000F0FD
:108E100039FDBCE6012000F057FD012E7FF6B7AE0C
:108E2000022000F051FDB2E62CB1002E7FF496AE88
:108E3000C5F30420D2E74EB1B9F1390F0CBF4FF49E
:108E4000FA50012004F029F848461EE7C5F3042033
:108E5000A4E7BDE8F08700BF641E002038B5018894
:108E60000446407900F096F9054600F005F900F057
:108E700093F829462046BDE83840FFF713BE0000AE
:108E8000037910B50446B3B1FFF78FFC68B900F061
:108E900015FC80B1637973B1074B5B785B070AD52A
:108EA0000220BDE8104000F00FBD2046FFF7D6FFBE
:108EB0002046FFF74EFC10BD641E002008B50020C0
:108EC00002F09EFB002002F0B7FB00F02DFC00F04A
:108ED000C3FC02F0C5F9BDE8084002F0A5B908B529
:108EE00002F090FCBDE80840FFF7E8BF08B500F0CD
:108EF00005FCBDE80840FFF7F2BFC0F303320E32B5
:108F000002F00F02092A10B5C4B21BD8012101FAE0
:108F100002F340F20332134203D113F010000DD1DB
:108F200010BDF02C10D004D8E72C8CBF00200120FD
:108F3000F6E7F42C14BF00200120F1E7E72C03D959
:108F4000F12CF7E70020EBE70846E9E708B50379DD
:108F500033B1008800F012F9BDE80840FFF7CDBF3B
:108F6000184608BD82B002AB03E9030002B07047A7
:108F700082B002AB03E9030002B07047704708B546
:108F8000FFF7FCFF08BD000008B5FFF7F8FF014B35
:108F9000188008BD161000207047FFF7F5BF0000CD
:108FA000024B1B881843FFF7EFBF00BF16100020CD
:108FB000024B1B881840FFF7E7BF00BF16100020C8
:108FC000024B1B885840FFF7DFBF00BF1610002080
:108FD000704708B5FFF7FCFF08BD000008B5FFF7B4
:108FE000F8FF014B188008BD181000200020FFF783
:108FF000F5BF012303FA00F080B2FFF7EFBF0000D6
:10900000012303FA00F0034B1B88184380B2FFF7DB
:10901000E5BF00BF18100020012303FA00F0034B46
:109020001B8823EA0000FFF7D9BF00BF18100020FB
:10903000012303FA00F0034B1B88584080B2FFF76E
:10904000CDBF00BF18100020024B1B881843FFF74C
:10905000C5BF00BF18100020024B1B881840FFF747
:10906000BDBF00BF18100020024B1B885840FFF7FF
:10907000B5BF00BF18100020704701F0070330B5DE
:10908000C908012402EB81029C40E4B2013A0021AC
:1090900012F8015F20FA01F343F300036B40234011
:1090A00001316B4004291370F2D130BD10B500229C
:1090B00000F00704C00801EB800110468B5CE34020
:1090C00003F00103934001321843042AC0B2F5D1E2
:1090D00010BD000082B00B46ADF80400C0F30720BD
:1090E00007280CD89DF80410052908D800EB40008B
:1090F000044A01EB4001184602B0FFF7BEBF02B0C0
:10910000704700BF1A10002082B0ADF80400C0F311
:10911000072007280BD89DF80430052B07D800EB53
:109120004000044903EB400002B0FFF7BFBF00203E
:1091300002B070471A1000200E4B73B51E880E4BFC
:10914000ADF804001B880F241E4346FA04F3DB0726
:10915000E5B206D414F1FF34F7D20025284602B058
:1091600070BD0199284600F04AFE80B20128F1D076
:10917000F4E700BF181000201610002007B5ADF866
:1091800004000198FFF7D8FF019903B05DF804EBE4
:1091900000F035BE13B5104BADF804101B782BB1A1
:1091A000019802B0BDE81040FFF7E8BF70B1019828
:1091B000FFF7C2FF044601460198FFF78BFF0199B4
:1091C000204602B0BDE8104000F019BE0198FFF73C
:1091D0009BFF0446F3E700BF15100020F8B50C4BC9
:1091E0000C4E1C780C4D3378A34200D1F8BD05EB32
:1091F000C40335F834005F889A88D98840EA07406C
:1092000042EA01410134FFF7B3FE04F00704EAE744
:109210007B1000207A1000203A100020064B10B47A
:1092200018885C889A88D98840EA044042EA01415B
:109230005DF8044BFFF79CBE32100020F8B51B4BC5
:109240009A7912F0F00F0AD15A7942B1184A1949A5
:1092500012780D781E885F88174CAA4200D1F8BD9D
:1092600011B204EBC1000079E0B134F83110B14221
:1092700018D104EBC2004179A1B94188C91B89B258
:10928000C7290FD89979012262F30711997183795F
:1092900062F3071383710548FFF7F2FDBDE8F8405C
:1092A000FFF79CBF013202F00702D6E73210002020
:1092B0007B1000207A1000203A10002070B50D4B72
:1092C0000D4A1B7815780D4CAB4202D10022104696
:1092D00070BD04EBC30256788E4206D114F8336099
:1092E000864202D15279002AF1D1013303F00703FB
:1092F000EAE700BF7B1000207A1000203A1000201F
:109300002DE9F04F89B002AB04460146062218460B
:10931000B14DFFF7D3F82979227967790346A8463A
:10932000C1B9AAB18FB12046FFF710FE064660B161
:10933000082221462846FFF7C1F82846FFF7E5FA3C
:10934000FFF77CFFFFF76AFF65E02046FFF798FD17
:10935000012660E0B4F802A068886E7994F800B045
:1093600094F80190AAEB000080B2002E00F0E78094
:10937000C72800F29780002A4DD0AB792A88208830
:1093800013F0F00F58D190420ED1002F4DD1012291
:1093900062F30713AB71FFF741FF2846FFF770FD3B
:1093A000AB79A371002636E0002F3ED149465846DE
:1093B000FFF784FF5846FFF781FF05460028F1D1EB
:1093C0008DF808B08DF809900298FFF7D7FEC0F32A
:1093D00003310B2912D801228A4012F4406FC3B224
:1093E0001DD112F00C0F0ED1910707D010F4706F41
:1093F00000D07BB12033DBB2072B0BD92046FFF71F
:109400003FFD354606E010F4706FF3D0A27912F0FC
:10941000F00FEFD12E46304609B0BDE8F08FEF2BAC
:10942000F8D90F33DBB2022BE7E798F8063043F0A8
:10943000010388F80630B5E790420AD14FB92046BB
:10944000A371FFF71DFD082221462846FFF736F8D5
:1094500078E72046FFF77AFD00283FF476AF002F2B
:109460003FF473AF98F806301F2B11D9B8F80020DD
:10947000ADF8102098F804208DF814200022ADF8E3
:1094800012A08DF815208DF8163004A8FFF7F8FC0F
:10949000082221465048FFF711F8FFF7CFFEFFF7EB
:1094A000BDFE55E7A87910F0F001019118D18DF8B3
:1094B0000C208DF808B08DF80990ADF80AA08DF851
:1094C0000D7093E80300FFF74DFD2846FFF7D8FC29
:1094D000082201992846FFF78BF8FFF79FFE61E706
:1094E000002A98D02A8823889A420AD14FB9A071BD
:1094F0002046FFF7C5FC082239462846FFF778F8D2
:1095000089E72046FFF722FD00283FF41EAF002F19
:109510003FF41BAF98F806301F2BB9D9B8F80020DC
:10952000ADF8182098F804208DF81C200022ADF822
:109530001AA08DF81D208DF81E3006A8A6E7C728B2
:1095400035D8002A3FF404AF3E46002F3FF4FDAE6D
:109550002A8823889A421CD1AB79DA0713D413F0F6
:10956000F00210D0F02AA37106D0DBB2C3F30312CD
:10957000013262F30713A3712046FFF781FC082232
:109580002146154862E7082221461348FEF796FF58
:1095900041E72046FFF7DAFC00287FF479AFAB798A
:1095A000204643F00103AB71FFF76AFC33E78DF807
:1095B0000C208DF808B08DF80990ADF80AA08DF850
:1095C0000D7093E80300FFF7CDFC082231462846D2
:1095D000FFF70EF8B6E600BF32100020F0B585B0F8
:1095E0006C4684E803002046FFF78AFE284E294D8A
:1095F000074668B19DF804301BB194E80300FFF7FB
:10960000B7FC254C28783378834226D105B0F0BDCD
:1096100094E803009DF8042002AB83E80300002ACD
:10962000EFD030782A78441C04F0070494420AD022
:109630001946194B082203EBC000FEF73FFF3470B8
:10964000FFF7CCFDDDE7FFF751FC08223946134850
:1096500037702F70FEF7CCFFD3E704EBC000FFF7A5
:109660004FFE0028D2D02B7834F8330004EBC3032C
:109670005F889A88D98840EA074042EA0141FFF7AB
:1096800077FC2B78013303F007032B70BAE700BF98
:109690007A1000207B1000203A10002032100020A9
:1096A000014B1878C0087047CC100020024B187886
:1096B00000F00700704700BFCC100020034B187863
:1096C00010F0070018BF0120704700BFCC10002029
:1096D000014B1878704700BFCF100020024A137862
:1096E00018431070704700BFCF100020024A137853
:1096F00023EA000010707047CF100020014B0022B9
:109700001A707047CF100020024A13781843107067
:10971000704700BFD0100020024A137823EA0000EF
:1097200010707047D0100020014B00221A70704753
:10973000D0100020704708B5FFF7FCFF08BD0000FF
:1097400008B5054A1378034204D023EA00001070DC
:10975000FFF7F1FF08BD00BFCD100020704708B52E
:10976000FFF7FCFF08BD000008B5054A137830EA92
:10977000030C03D003431370FFF7F1FF08BD00BFD4
:10978000CE10002008B5054A1378034204D023EA1E
:1097900000001070FFF7E3FF08BD00BFCE100020EF
:1097A00008B5044B1A781AB100201870FFF7D7FFDC
:1097B00008BD00BFCE10002010B5084B1C78084B28
:1097C0001B781C43074B1B782BB11C4301F050FF47
:1097D00008B1FFF7E5FF204610BD00BFCF10002005
:1097E000D0100020CE10002038B50B4C2568FFF7B4
:1097F000E3FF28702468094908222046FEF72EFE60
:1098000048B1214608220548FEF758FE2046BDE82B
:10981000384001F0D9BE38BD000C0020A410002053
:1098200038B50B4C2568FFF7C7FF687024680949F5
:1098300020222046FEF712FE48B12146202205488C
:10984000FEF73CFE2046BDE8384001F0C5BE38BDFD
:10985000040C0020AC100020054B1B7833B1054BE5
:1098600093F90030002B01DAFFF7DABFFFF7BCBF36
:10987000B40C0020641E0020704708B5FFF7FCFF01
:1098800008BD0000094A5278520710B50AD5084CA5
:1098900041EAC0012170FFF7B3FB2078C008FFF751
:1098A000ECFF10BDBDE81040FFF7AABB641E00200E
:1098B000CC10002008B5034B00201870FFF7DDFF27
:1098C00008BD00BFCC10002008B50A4A137823EA6F
:1098D0000000107042070CD198420AD0064B5B780A
:1098E0005B0706D5C008FFF797FBBDE80840FFF708
:1098F000E1BF08BDCC100020641E0020094A08B555
:109900005378C3F3800181420AD060F3820353701D
:10991000108800F039F80220BDE80840FFF7D4BFF6
:1099200008BD00BF641E0020044B5878C0F38000BF
:1099300080F0010000F00100FFF7E0BF641E00208E
:109940000120FFF7DBBF0020FFF7D8BF08B50020DC
:1099500000F0EEFE4FF6FF710020BDE8084000F079
:10996000C9BE08B5002000F05EFE4FF6E563C31ADD
:109970005842584108BD022000F046BE032000F0C6
:1099800043BE042000F04FBE0146042000F0B2BEEA
:1099900001460F2000F0BCBE0146132000F0B8BE07
:1099A0000020FFF7F9BF08B50020FFF7F1FFFFF730
:1099B000F7FF08BD07B5002000F0BAFE4FF6E561DD
:1099C000002000F097FE0021022000F085FE1A4BD7
:1099D00001210320198000F07FFE4FF4A0510420E4
:1099E00000F088FE0021062000F076FE002107200E
:1099F00000F072FE0021082000F08AFE00212320E2
:109A000000F06AFE00210C2000F066FE00210D200F
:109A100000F062FE00230022CDE900236846082200
:109A2000172100F03FFE00211F2000F071FEFFF71C
:109A3000BAFF03B05DF804FB16100020FFF7BABFB1
:109A400001460E2000F048BE73B50C4C01F0D6FF65
:109A50002388834205460ED00026ADF8006001F051
:109A6000CDFFADF80460ADF8020002AB13E90300CE
:109A7000FEF72AFF258002B070BD00BFDC10002079
:109A800008B500F0C5FA024B1860024B186008BD1B
:109A9000D4100020D81000207047704708B5FFF799
:109AA000FCFF08BD704708B5FFF7FCFF08BD0120AB
:109AB0007047000008B5054800F0BEFA00F036FE19
:109AC000FFF7EAFFFFF7EAFF08BD00BF31A000087B
:109AD00000F01CBC7047704708B5FFF7FBFFFFF7AD
:109AE000FAFF08BD08B5FFF73CFF08B9FFF7A6FF6E
:109AF000FFF741FF094B1870FFF743FF084B188031
:109B000001F019F9FFF73AFF80B2FFF746FA054B6B
:109B10001888BDE80840FFF75CBA00BFE6100020D7
:109B2000641E00201810002008B501F02DFF00F081
:109B30005BFA00F0F5FB00F027FBFFF7D3FFFEF721
:109B40009DFE01F0FCF800F003FCFFF7ACFF08BD40
:109B50002DE9F04F85B0FFF7AAFF50B9FFF774FF6A
:109B600000F0D4FB01F0A4FB05B0BDE8F04FFEF718
:109B700095BE2B4F00F052FB3E4600242046013498
:109B8000E4B216F8015B00F067FA082C45D0854274
:109B9000F4D0244B1B789B0701D500F063FAFFF744
:109BA00097FF002600904FF0010B5FFA86F84046C1
:109BB00000F052FA17F8012B9042824627D0002479
:109BC000012542400DF10809154218D0009BB3B1A0
:109BD00001928DF808408DF8098001F00FFF1AEA14
:109BE000050F14BF01210021ADF80A008DF80CB05B
:109BF0008DF80D1099E80300FEF766FE019A013416
:109C0000E4B26D00062CEDB2DED107F801AC0136EE
:109C1000082ECAD1FFF734FFA2E78542B9D19DE7EC
:109C2000DE100020E610002038B500F0F3F8B0F5A3
:109C3000A04F044622D2B0F5804F77D2DF2812D849
:109C4000CD2861D2A7280AD8A5284ED2012804D051
:109C500003B233B1032898BF0024204638BDC22880
:109C60004AD90024F9E7B0F5005F80F0A280B0F592
:109C7000807F4DD2E82828BF0024EEE745F25F231D
:109C8000984216D845F2402398425FD245F21F23EE
:109C9000984254D8B0F5A44F7CD3C4B2A008012395
:109CA00004F0030403FA04F444EA401444F40D44B9
:109CB0002CE045F29F23984207D8B0F5A54F52D328
:109CC00000F01F044AF2F4003DE045F2BF23984241
:109CD00056D945F2DF239842C3D8040204F4F8545D
:109CE00044F4204444F0F004B7E75B34E4B2394B69
:109CF0001C5D44F48044B0E75834E4B2364B33F88A
:109D0000144044F48844A8E740F4A044A4B2A4E773
:109D1000C0F3072000F006F90546E0B200F07AF83B
:109D20002D0205F4F855284384B296E7C0B200F03E
:109D300071F804F47064044344F42044E6E700F04E
:109D40001F044AF2F10040EA042486E7C4B2C4F3D7
:109D50008200012304F0030403FA04F444EA4014EB
:109D600044F40C44D2E7C4B2C4F38200012304F0EB
:109D7000030403FA04F444EA401444F40A44C5E733
:109D800000F01F0000F0CEF8040204F4F85444F48C
:109D9000005462E700F01F0000F0C4F8C306C4F3EB
:109DA000431448BF0001240200B2044344F41044A9
:109DB000ACE7C0F3042000F0B5F80546E0B200F0CF
:109DC00029F82D0205F4F85545EA000444F400543E
:109DD0009CE700BF02F1000806F1000882B0ADF870
:109DE0000410C1F30721072906D89DF80420052A8D
:109DF00002D802B0FEF75CBC002002B0704707B585
:109E0000ADF804100199FFF7E9FF03B05DF804EB2A
:109E1000FFF70ABF822825D00CD8312867D004D894
:109E200029285AD02A2869D07047352850D0392897
:109E300018D07047E32833D004D8E0281CD0E2289B
:109E400029D07047E62835D0E72838D0E42835D126
:109E5000334B5A78910731D51B7813F0100F08BF98
:109E6000E72015E02E4B1A78920752D15B7813F059
:109E7000080F18BF29207047294A1378D90744D4FE
:109E8000527812F0010F19D013F0100F08BFE32021
:109E900018BF00207047224B1B7813F0040FF2E725
:109EA0001F4A1378590732D45278D20731D413F0AD
:109EB000100FEDE71A4B1B781A07CED47047184ADB
:109EC0001378190727D452789107F0D5E42070470A
:109ED000134B1B7813F0200FCBE7114B1A78920627
:109EE0001BD45B7813F0080F18BF392070470C4B58
:109EF0001B7813F0400F18BF2A207047084B1B78BF
:109F000013F0400F18BF3120704739207047E2200E
:109F10007047E0207047E62070473520CEE700BF4D
:109F2000641E002010B52F4C21784B0713D500F08C
:109F30001402A2F1040C00F01803DCF1000242EB61
:109F40000C02A3F1080CDCF1000343EB0C039A4272
:109F500018BF80F00C000B0713D500F01402A2F11B
:109F6000140C00F01803DCF1000242EB0C02A3F128
:109F7000180CDCF1000343EB0C039A4218BF80F08D
:109F80000C006478E30713D500F0110202F1FF3CE6
:109F900000F01803DCF1000242EB0C02A3F1080C04
:109FA000DCF1000343EB0C039A4218BF80F0090078
:109FB000A30711D500F0110200F01803A2F111045B
:109FC0006242A3F1180C6241DCF1000343EB0C0385
:109FD0009A4218BF80F00900CB0648BF00F0E700A6
:109FE00010BD00BF641E0020014B00221A607047A4
:109FF000681E002010B5044600F088F920B901F071
:10A00000C5FC024B201A186010BD00BF681E00205E
:10A0100008B500F07BF918B1BDE8084001F0B6BC06
:10A0200001F0B4FC014B1B68184408BD681E0020F9
:10A030000020704700207047014B1860704700BF38
:10A04000080C0020704708B5FFF7FCFF08BD7047FB
:10A0500008B5FFF7FCFF08BD014B185C704700BF57
:10A06000751E00207047704708B5FFF7FCFF08BD5C
:10A0700073B500F04BF91B4C1B4B054638B31878F1
:10A080001A4E002201A92044019200F075F980B116
:10A09000174B187804220DEB02012044FEF7DEF97D
:10A0A0000123337050B90025FFF7D2FF284602B0D4
:10A0B00070BD3378002BF6D0019030700C4B1878BF
:10A0C00004220DEB02012044FEF7F8F9ECE71978C1
:10A0D000074B18782144204400F0B0F9FFF7C4FF83
:10A0E000E4E700BF751E00207D1E0020E710002061
:10A0F0006C1E00202DE9F0410E4D00264FF00108A6
:10A100002F46002457F8040B431C08D000F00F0121
:10A11000202208FA01F120F00F0004F0B7F8013412
:10A12000062CEFD10136042E05F11805E8D1BDE863
:10A13000F08100BF0C0C0020F0B5124E01EB410382
:10A1400006EBC30606220124002356F8045B6F1CAD
:10A1500015D025F00F0705F00F053F6927FA05F523
:10A1600015F0010F0CBF25460025013A2B43640072
:10A1700012F0FF02DBB2E4B2E7D14354F0BD002598
:10A18000F3E700BF0C0C002030B51D4D2A7899B0C4
:10A1900002F0FF04A2B960221A496846FEF78EF960
:10A1A0001948234619460622013A5DF801400C5031
:10A1B00012F0FF0201F10401F6D11833602BF1D146
:10A1C0002B78124A002B14BF002304231370104A6B
:10A1D000C3F104031370FFF78DFF082200210D481F
:10A1E000FEF706FA082200210B48FEF701FA0420C8
:10A1F00000F044F819B0BDE83040FFF724BF00BFBD
:10A200006C0C002008F000080C0C00207D1E0020C3
:10A210006C1E0020751E00206D1E002013B500244A
:10A22000CDE90044E1B268460134FFF785FF042C14
:10A23000F8D1082269460E48FEF710F9002814BF2D
:10A240000124002404D0082269460948FEF736F9A3
:10A25000084B09481978042223460144044800F0B9
:10A260000FF80446FFF704FF2043C0B202B010BD50
:10A270006D1E00207D1E0020751E0020704700000E
:10A280002DE9F84380460F4691461C46114D43B1D7
:10A2900001232B7001F07AFB0F4B18600020BDE802
:10A2A000F8832E78002EF9D00B4B186801F0B2FB22
:10A2B0000428F3D94A4641463846FEF7CFF828B17C
:10A2C0004A4641463846FEF7F9F8344600232B70DB
:10A2D0002046E4E7E8100020EC10002038B5C82440
:10A2E00002F0F8FA054648B9013C4FF47A70A4B27E
:10A2F00002F0D3FD002CF3D102F0E2FA284638BD7B
:10A30000014B5878704700BFF3100020014B1878BC
:10A31000704700BFF310002008B5FFF7F7FF08BD36
:10A3200010B5FFF7DBFF084C2070FFF7F5FF6070FA
:10A33000FFF7E6FF054B1870FFF7E8FF18B1BDE81F
:10A34000104000F047B810BDF31000206C0C002046
:10A3500008B5FFF7DBFF18B9BDE8084000F03CB8CE
:10A3600008BD0000034B187809288CBF002001208D
:10A37000704700BFF210002070B5144C2378092BF1
:10A3800005460E4616D82846314600F055F80546D3
:10A39000C8B92378FF2B1CBF013323702378092B06
:10A3A00094BF0125002503D901F028FB084B188034
:10A3B000284670BD064B188801F025FBB0F5FA7FE2
:10A3C000E1D20025F4E700232370F1E7F21000202A
:10A3D000F010002001F0FABB01F0E4BBF8B5044630
:10A3E0001E46BDF8185062B10C206043104B1F5C34
:10A3F000034410485B88BA4228BF3A461844FEF727
:10A400005DF8204601F0E4FB074670B16DB1084BE2
:10A4100008490C2202FB043430462279E388AA4220
:10A4200028BF2A461944FEF749F83846F8BD00BF50
:10A43000700C0020F810002000F096B800F0A8B8CA
:10A4400030B50E4D85B0286801F0E4FA632812D9C2
:10A45000FFF7DEFD0023023003900093042203A9DE
:10A460000220FFF7BBFF044610B101F08FFA28600D
:10A47000204605B030BD0124FAE700BF10110020CE
:10A480002DE9F047074688469146FFF76BFF002805
:10A4900014BF0A260126012541463846C84710B98F
:10A4A0000135B54201DDBDE8F08705FB05FA04463C
:10A4B0004FF45270013402F05BFA5445F8D1EBE7E7
:10A4C0002DE9FF4100220123009388460DF10B0383
:10A4D00011461046FFF782FF204B1D6804460135E8
:10A4E00060B31F4E306801F095FA63281ED9002230
:10A4F000042703AB114600970120FFF76FFF394691
:10A500000446284600F01CFC9DF80B30834214BF23
:10A51000002404F00104C4B101F038FA30600422D0
:10A5200003A91048FDF7CAFF01240EE004212846C4
:10A5300000F006FC9DF80B308342D8D10422294656
:10A5400003A8FDF7BBFF002CE9D1042205494046D2
:10A55000FDF7B4FF204604B0BDE8F0813CF10008EF
:10A560000C1100200411002038B5074A04460D469E
:10A57000FFF786FF30B129462046044ABDE838403F
:10A58000FFF77EBF38BD00BFC1A4000841A400088A
:10A5900038B50D4604F02CFD0D4B1C68631C0422DD
:10A5A00018462946FDF78AFF042100F0C9FB2070F8
:10A5B00004F024FD04F01CFD064BA0681A689042CC
:10A5C00002D01860FFF716FDBDE8384004F016BD54
:10A5D0003CF1000808110020FFF7BABA08B501F0F5
:10A5E00099F901F0DDFDFFF765FA01F0DBFDFFF7FA
:10A5F0009BFA01F0EDFD01F0F1FDFFF7EDFF01F039
:10A6000007FEFFF769FAF6E707B5002301460122C6
:10A610000DF107008DF8073000F08CF89DF8070069
:10A6200003B05DF804FB07B50023014602220DF1DB
:10A630000600ADF8063000F07DF8BDF8060003B066
:10A640005DF804FB07B50422002301460DEB020070
:10A65000019300F06FF8019803B05DF804FB07B5B3
:10A6600001228DF8071001460DF1070000F067F890
:10A6700003B05DF804FB07B50222ADF806100146F1
:10A680000DF1060000F05BF803B05DF804FB07B5C0
:10A690000422019101460DEB020000F050F803B0D6
:10A6A0005DF804FBF8B5D31D23F0070300AFADEB55
:10A6B000030D0546144668460E4600F03BF8224658
:10A6C00069462846FDF7CAFE20B122463146284693
:10A6D00000F035F8BD46F8BD38B50C460546FFF725
:10A6E00093FFA04205D021462846BDE83840FFF739
:10A6F000B6BF38BD38B50C460546FFF794FFA042FB
:10A7000005D021462846BDE83840FFF7B4BF38BD24
:10A7100038B50C460546FFF795FFA04205D0214607
:10A720002846BDE83840FFF7B2BF38BD00F054B945
:10A7300000F03CB80B460146184600F051B80B46F5
:10A740000146184600F0DCB808B5064B4FF48062AD
:10A7500000211846FDF74CFF4FF48162C0F8002439
:10A7600008BD00BF1411002010B5064C94F8043445
:10A7700033B900F0AFF910B1012084F8040410BD22
:10A780000220FCE71411002010B5074C94F80434A3
:10A790003BB100F0E9F918B1002384F8043401203A
:10A7A00010BD0220FCE700BF1411002038B5FFF7F0
:10A7B000DBFF044618B9FFF7E7FF204638BD00F07D
:10A7C00095F90546FFF7C0FF012C06D1FFF7DCFF26
:10A7D00000280CBF002505F001052C46EDE7000020
:10A7E00008B5034608469918B1F5806F05D80449A5
:10A7F0001944FDF763FE012008BD0020FCE700BFFF
:10A8000014110020F8B506460F4615460024AC4248
:10A8100001D10120F8BDA0003918304400F0FEF944
:10A820000028F7D00134F2E7F8B506460F46154682
:10A830000024AC4201D10120F8BD57F8241006EBEA
:10A84000840000F073F90028F6D00134F1E700002D
:10A8500037B5FFF789FF4FF4807205461249002093
:10A86000FFF7E2FFD0B10EA3D3E900234FF48061DC
:10A870000D4800F0FBF90222CDE9000169464FF4D2
:10A880008060FFF7D1FF002814BF02240024012DAF
:10A8900001D1FFF779FF204603B030BD0446F6E74B
:10A8A00025232284E49CF2CB1411002010B5094C1E
:10A8B000D4F80034B3F5006F09D300F017F928B1CC
:10A8C000FFF7C6FF4FF48163C4F8003410BD0120C8
:10A8D000FCE700BF1411002010B5084C0146D4F865
:10A8E000000400F023F940B1D4F800340433C4F874
:10A8F0000034BDE81040FFF7D9BF10BD141100208F
:10A900008318B3F5806F2DE9F34706468A4615464E
:10A9100004D90024204602B0BDE8F0872C4F07443C
:10A9200039465046FDF79AFD00284ED02A4651463A
:10A930003846FDF7C3FDFFF717FF804630B14FF0F3
:10A94000000935B9FFF7B2FF044633E0FFF71CFFFB
:10A95000DFE7052D2F46C6F3024328BF052743EA4C
:10A96000C7038DF80030330AADF802908DF801303E
:10A97000ADF804905346ADF806908DF802600DF1E5
:10A980000302BA4413F8011B02F8011B5345F9D125
:10A990000098FFF7A1FF0128044607D1012D11D926
:10A9A0000198FFF799FF012804460BD014B1022C3F
:10A9B00018BF0024B8F1010FACD1FFF7E5FE002865
:10A9C000A7D0A7E7ED1B3E44BBE70124A2E700BFE9
:10A9D00014110020000000002DE9FF41FFF7B4FE34
:10A9E00000F0CAF828B9FFF7AFFE002004B0BDE8B8
:10A9F000F0814FF480723649354E0020FFF702FF98
:10AA000010B9FFF7A1FEEEE72FA3D3E900234FF41F
:10AA10008061304600F02AF9022204460D464FF4C8
:10AA2000806002A9FFF7EEFEDDE902239D4208BF28
:10AA3000944201D0FFF788FE4FF4816401A92046BB
:10AA400000F0ECF840B3019B2BB3DFB2BA0904F17C
:10AA50000408029335D11D04C3F3074205F4E02531
:10AA600003F47F4315431D43FF08EB19B3F5806FD3
:10AA700027D817F0060F1FD003A9404600F0CEF8E4
:10AA8000F8B108343A460DF10B017019FDF716FDC7
:10AA9000B4F5006FD2D30120C6F8004470B900F0BD
:10AAA00025F800289FD0FFF7D3FE4FF48163C6F846
:10AAB000003400289AD196E74446E3E7FFF7F6FE14
:10AAC000F7E744460020E7E725232284E49CF2CB05
:10AAD0001411002008B50021034802F0D7FDB0FA98
:10AAE00080F0400908BD00BF001F0020F8B50D4FE1
:10AAF0000D4E002101253B68994201D32846F8BD3F
:10AB0000306803684C1C21465B699847012830680F
:10AB100088BF002502F05EFD012888BF0025214680
:10AB2000E9E700BF980C0020201500200B4B37B53B
:10AB30001C680B4B01911B7804440BB1C943019174
:10AB4000084B186803680422DD68214601ABA8475A
:10AB5000B0FA80F0400903B030BD00BF940C002073
:10AB6000241500202015002008B5024802F09CFDA5
:10AB7000012008BD001F00202DE9F0411F4F204B90
:10AB80003B60FFF7F1FF386803685B6898471D4B2F
:10AB90001D4AB3F80080037803F001031370836843
:10ABA00004464FEA882813B9184801F0D3FEA56877
:10ABB00000242646013DA54210D9013421463868BB
:10ABC00002F037FD0644B6F5006FF4D3104B386839
:10ABD0001C60012102F020FD0E4B18600C4B1A681E
:10ABE0004FF6FF739A4203D00A4B1B68434502D3CA
:10ABF000094801F0AFFE0120BDE8F08120150020DA
:10AC0000001F0020227AFF1F2415002040F10008B9
:10AC1000980C0020940C00209EF1000838B50E4BD3
:10AC20000E4D0C4619680E4B0144186802F00EFDDB
:10AC30000C490D4A2D78006801230B700023137016
:10AC400005B1C0430B70117819B113702360002057
:10AC500038BD20600120FBE7940C00202415002063
:10AC600020150020251500201C150020F0B50144FA
:10AC7000884202D310461946F0BD10F8014B6240DD
:10AC800094184FEA021E4FEA031C43EB03054CEAFB
:10AC9000127C14EB0E0445EB0C054FEA421EA4187F
:10ACA0004FEA431C43EB05054CEAD26C14EB0E044F
:10ACB00045EB0C054FEAC21E4FEAC31C4CEA526C2E
:10ACC00014EB0E044FEA022645EB0C054FEA032C69
:10ACD0004CEA126CA4194FF0000745EB0C033A192B
:10ACE000B64646EB0303C3E7FEF730BE10B5FFF7E9
:10ACF00007FB50B905240420FFF7AEF90123A34058
:10AD0000034214BF0120002010BD00242046F3E7B9
:10AD100008B5FFF783FA40F6B83002F0BEF8FFF747
:10AD20007DFAFFF7E3FF28B1FFF7DEFFBDE808403B
:10AD300000F0A2BE08BD08B5FFF7EAFF08BD7047E6
:10AD40000144FF23814201D11846704710F8012BBE
:10AD50005340082213F0800F4FEA430318BF83F0DB
:10AD60003103013ADBB2F5D1ECE7000047F61643B8
:10AD7000984210B50C461BD1FEF7AAFC62790D4B28
:10AD800072B100F0AA00002815BF01220022352070
:10AD900029201A7000F002FDFEF75EFD002010BDB4
:10ADA0001B78002B14BF3520292000F011FDF3E79C
:10ADB0000120F4E72615002038B50546487900281B
:10ADC00000F0DC80A5F5E045ABB2222B00F2BB80A1
:10ADD000FEF7D7FD6A4C013D2080212D12D8DFE817
:10ADE00005F04DBD551B1F59235D692FB5336D37D8
:10ADF00071973B759F417B8327612B65477F8EA9A8
:10AE0000B31651C5237843F00103237095E06378AE
:10AE100043F00803637090E0237843F00203F4E703
:10AE2000237843F00403F0E7237843F00803ECE7CA
:10AE3000637843F00103EDE7637843F00203E9E749
:10AE4000237843F01003E0E7237843F02003DCE7A6
:10AE5000237843F04003D8E7FEF748F8237843F01F
:10AE60008003D2E7237823F00C0343F00C03CCE7F4
:10AE7000637823F0030343F00303CBE723786FF3F6
:10AE80000003C2E763786FF3C303C3E723786FF36C
:10AE90004103BAE723786FF38203B6E723786FF3B1
:10AEA000C303B2E763786FF30003B3E763786FF32C
:10AEB0004103AFE723786FF30413A6E723786FF31A
:10AEC0004513A2E723786FF386139EE7FEF70EF88B
:10AED00023786FF3C71398E7237823F00C0394E7E4
:10AEE000637823F0030395E72378C3F3800282F0AD
:10AEF0000102D2B262F3820362F3C30385E763788F
:10AF0000DA4302F0010262F3000362F3410381E7D6
:10AF10002378C3F3801282F0010262F3861374E790
:10AF2000FDF7E4FF2378C3F3C01282F0010262F35D
:10AF3000C7136AE70120FEF783FD2088FEF724FD92
:10AF4000FDF7D4FF002038BD0020F4E72378C3F3D9
:10AF5000001282F0010262F3041356E72378C3F370
:10AF6000000282F0010262F300034EE76378C3F34C
:10AF7000C00282F0010262F3C3034BE70120E2E763
:10AF8000641E002000EB4003C3EB031300EB8300BF
:10AF900003B2002B07DAB3F1800001D503F17F0083
:10AFA00040F30720704703F18000F9E7164B1B7848
:10AFB000D90707D5154B187840007F2820D808B34B
:10AFC000C0B270479A0703D5104B18788000F4E799
:10AFD0005B0703D50D4B1878C000EEE70C4B1B78D0
:10AFE00063B10C4A0949127808789342F4D210FBF5
:10AFF00003F0C000B0FBF2F080B2DEE70820DFE72C
:10B000007F20704701207047321500209E0C0020E1
:10B01000331500209F0C0020154B1B78D90705D550
:10B02000144B1878800800B3C0B270479A0703D554
:10B03000104B18784008F6E75B0705D50D4B1878DC
:10B040007F28F0D97F2070470B4B1B785BB10B4AF0
:10B05000084912780878934236BF10FB03F080B29B
:10B06000B0FBF2F0ECE70120DEE70120704700BF03
:10B0700032150020A20C002034150020A30C002063
:10B08000CD2808B505D1FFF791FF4042294BD87074
:10B0900008BDCE2802D1FFF789FFF7E7CF2805D1F9
:10B0A000FFF784FF4042234B9870F1E7D02802D18C
:10B0B000FFF77CFFF7E7D92804D1FFF7ADFF1D4B61
:10B0C0001871E5E7DA2803D1FFF7A6FF4042F6E75B
:10B0D000DB2805D1FFF7A0FF4042164B5871D7E798
:10B0E000DC2802D1FFF798FFF7E700F12F03DBB26E
:10B0F000072B08D80F4A0123D13803FA00F0537800
:10B1000018435070C4E7DD2805D10B4A137843F08B
:10B1100001031370BCE7DE2804D1074A137843F01B
:10B120000203F6E7DF28B3D1034A137843F00403A0
:10B13000EFE700BF2C15002032150020364BCD283C
:10B1400093F902200AD193F9031000290CDA0021A7
:10B15000D97052B9314A0021117006E0CE280DD1C4
:10B1600093F903100029F2DC72B11A795B79134369
:10B170005BB2002B4FD12A4A13707047CF2806D1FB
:10B18000002AF1DA00229A7093F90320E1E7D0282F
:10B1900002D1002AF6DCE7E7D92893F9041004D19C
:10B1A0000029E1DD00211971DEE7DA2802D100294A
:10B1B000DADAF7E7DB2893F9051004D10029D3DAAE
:10B1C00000215971D0E7DC2802D10029F8DCCBE757
:10B1D00000F12F01C9B2072907D8D13801218140D8
:10B1E000587820EA01005870BEE7DD2805D10D48E7
:10B1F000017821F001010170B6E7DE2804D1094889
:10B20000017821F00201F6E7DF28ADD10548017889
:10B2100021F00401EFE770472C15002033150020C2
:10B22000341500203215002008B500F0E7FB094B6B
:10B23000DA7899780A431CBF074A10801A795B793B
:10B2400013431CBF054B18800248BDE8084000F0BE
:10B25000CDB900BF2C150020281500202A1500208C
:10B2600008B5062200210548FDF7C2F9044A00236B
:10B270001370044A1370044A137008BD2C15002083
:10B2800033150020341500203215002090F90230CB
:10B290005BB990F9033043B990F904302BB990F9B8
:10B2A0000500003018BF01207047012070470000E2
:10B2B00037B55A4C062221466846FDF7FFF80023B1
:10B2C000A370E370237163719DF802209DF8033031
:10B2D00013430AD0524B188800F095FB514A13785B
:10B2E0003BB35149097888422DDC9DF804209DF834
:10B2F000053013430BD04D4B188800F084FB4C4AAB
:10B300001378002B4FD04B490978884255DC6946A9
:10B31000424800F093FA18B94048FFF7B7FF08B168
:10B32000FFF782FF062269463C48FDF7C7F803B0E5
:10B3300030BD4149097801EB8101B0EB410FD4DD0B
:10B340000133137001E0FF2BFAD19DF902503DB19A
:10B35000FFF72CFE002DCCBF0123FF235843A07024
:10B360009DF903503DB1FFF721FE002DCCBF012315
:10B37000FF235843E07094F902000028B5D094F9F7
:10B380000320002AB1D0FFF7FDFD30B1A0701046B8
:10B39000FFF7F8FD20B1E070A7E70123A370F6E7FF
:10B3A0000123E370A1E72549097801EB8101B0EBA6
:10B3B000410FACDD0133137001E0FF2BFAD19DF991
:10B3C00004503DB1FFF728FE002DCCBF0123FF2321
:10B3D000584320719DF905503DB1FFF71DFE002D2A
:10B3E000CCBF0123FF235843607194F90400002867
:10B3F0008DD094F90520002A89D0FFF7C3FD30B124
:10B4000020711046FFF7BEFD20B160717FE7012378
:10B410002371F6E70123637179E700BF2C15002043
:10B4200028150020331500209D0C00202A1500202F
:10B4300034150020A10C00209C0C0020A00C002042
:10B44000F8B5144642799DF818701D46284B92B104
:10B450001C7000F0D3FA274B188004F12003DBB2F4
:10B46000072B44D804F007040120A040C0B2BDE877
:10B47000F840FDF705BB1E78A6422ED11D4B18885B
:10B4800000F0C1FAC72828D8AE4205F1200415D033
:10B4900006F12003DBB2072B06D806F007060120D1
:10B4A000B040C0B2FDF7F5FAE3B2072B06D805F0BD
:10B4B000070301209840C0B2FDF7E2FA3846E4B233
:10B4C000FDF7D6FA072C12D805F007050120A84091
:10B4D000C0B2BDE8F840FDF7DCBA04F12003DBB2EE
:10B4E000072B04D804F007040120A040F0E7F8BDC2
:10B4F000351500203615002013B5A0F5F840183892
:10B500000C4606283BD8DFE800F0171E0410252C57
:10B51000330026230093E1231A4647F61A412046BA
:10B52000FFF78EFF002002B010BD27230093E52314
:10B530001A4647F61B41F2E726230093E022E12357
:10B5400047F61841EBE727230093E422E52347F66B
:10B550001941E4E726230093E222E12347F61C4148
:10B56000DDE727230093E622E52347F61D41D6E7D2
:10B5700028230093E522012347F61E41CFE74879AF
:10B5800018B1034B00221A70CDE70120CBE700BFB2
:10B5900035150020014B1860704700BF381500209A
:10B5A00010B5FEF7B3FE10B9054B187810BD054B6A
:10B5B00018680028FAD00368BDE81040184700BF9B
:10B5C0004015002038150020024B1B680BB15B684A
:10B5D0001847704738150020034B1B681BB1062124
:10B5E00001709B681847704738150020034B1B6893
:10B5F0001BB102210170DB68184770473815002025
:10B600000B4B07B51A8882420ED01880094B1B6875
:10B6100053B103228DF80500000A8DF806008DF85D
:10B6200004201B6901A8984703B05DF804FB00BF24
:10B630003E150020381500200B4B07B51A888242B2
:10B640000FD01880094B1B685BB104228DF80500F0
:10B65000000A8DF806008DF804201B690DEB02002E
:10B66000984703B05DF804FB3C1500203815002016
:10B670000E4B0F4A1B68127802336AB10D4A92F9D9
:10B680000020002A08DA0C4B1B681E2202331A44E1
:10B690000020934202D170470622F8E713F8011BFD
:10B6A0000029F6D00130C0B2F3E700BF000C002043
:10B6B000B40C0020641E0020040C002028B3134B9F
:10B6C0001B78ABB1124B93F90030002B10DAC20893
:10B6D0001D2A17D80F4B1B68134400F007009A78F7
:10B6E000012303FA00F0024214BF184600207047FD
:10B6F000094B1B689A1C083312F8011B814203D0C6
:10B700009A42F9D10020704701207047B40C002004
:10B71000641E0020040C0020000C002030B54FF007
:10B72000FF33851C002215F8014B8C420ED0B3F17B
:10B73000FF3F02D1002C08BF13460132D4B2062CC1
:10B7400062B2F0D15A1C01D01844817030BD10B5DE
:10B75000831C0022083013F8014B8C4208BF03F809
:10B76000012C8342F7D110BDCB081D2B07D81844FC
:10B7700001F00703012199408378194381707047D4
:10B78000CB081D2B08D8184401F0070101238B407A
:10B79000817821EA0301817070470000084B1B7813
:10B7A000014643B1074B93F90030002B03DA064BF7
:10B7B0001868FFF7D9BF054B1868FFF7AFBF00BF88
:10B7C000B40C0020641E0020040C0020000C00209B
:10B7D000084B1B78014643B1074B93F90030002B0F
:10B7E00003DA064B1868FFF7CBBF054B1868FFF765
:10B7F000AEBF00BFB40C0020641E0020040C00206B
:10B80000000C0020094B1B785BB1094B93F9003009
:10B81000002B06DA074B18681E2200210230FCF7C5
:10B82000E7BE054B06221868F7E700BFB40C0020FE
:10B83000641E0020040C0020000C002042784B788D
:10B840009A421DD190F902301BB191F902209A421F
:10B8500016D190F903301BB191F903209A420FD110
:10B8600090F905301BB191F905209A4208D190F961
:10B87000040030B191F90430181A18BF0120704744
:10B8800001207047704708B5FFF7FCFF08BD0000B6
:10B8900008B50028034B14BF022001201870FFF7E1
:10B8A000F2FF08BD4115002008B5034B03201870B6
:10B8B000FFF7E9FF08BD00BF41150020FFF7E8BF13
:10B8C00008B5034B01201870FFF7DDFF08BD00BF6E
:10B8D00041150020FFF7F4BF70477047704708B567
:10B8E000FFF7FCFF08BD704708B5FFF7FCFF08BD78
:10B8F00010B5FFF7F1FFFEF791FCFFF7EEFF002414
:10B90000E0B2FEF7A9FB18B90134082CF8D110BD3C
:10B910000120FCE708B501F00FFCBDE8084001F08C
:10B9200001B808B5FCF78EFF40F2A460BDE80840FE
:10B9300001F0B3BA08B5FDF7E1FEFDF7F5FEFFF73C
:10B9400061FFFFF78DFC0020FFF75AFE0020FFF794
:10B9500073FEBDE80840FCF77CBF000008B530234B
:10B9600083F3118801F0FBFB044B054A18600023A8
:10B970001360044A136083F3118808BD4C1500203E
:10B980004415002048150020FFF7E8BFD0B530234C
:10B9900083F31188134C01F0E2FB2368124AC11AA9
:10B9A0001068884211480AD9A3F58333E03B23602D
:10B9B00004680F4B01F583312344E03103601160CB
:10B9C0000468002383F311880A4E0B4A4FF47A70FF
:10B9D0000027E0FB0167002330463946FCF7BCFB3B
:10B9E0002044D0BD4C1500204415002048150020EF
:10B9F00088598F029F860100A086010008B5FFF7D5
:10BA0000C5FF80B208BD10B50446FFF7BFFF001B9D
:10BA100080B210BD10B50446FFF7B8FF001B10BD83
:10BA2000BFF34F8F0549064BCA6802F4E062134327
:10BA3000CB60BFF34F8F00BFFDE700BF00ED00E01C
:10BA40000400FA05014B024A1A607047FCFF00200F
:10BA5000EFBEADDE034B1868034BC31A5842584182
:10BA6000704700BFFCFF0020EFBEADDE014B00229F
:10BA70001A607047FCFF002008B5FFF7E3FFFFF7EF
:10BA8000CFFF08B5FFF7CCFF08B5FFF7E3FF80B3A2
:10BA9000FFF7ECFF72B6BFF34F8FBFF36F8F154AFE
:10BAA000536A23F480335362D2F8943023F00103B5
:10BAB000C2F89430A2F54F62002313604FF0FF31BB
:10BAC000936053609A0002F1604202F561420133D3
:10BAD000082BC2F88010C2F88011F3D1002383F341
:10BAE0001488054B1A6882F3088862B65B68984729
:10BAF000FEE708BD00ED00E00000FF1F83B5274D05
:10BB0000274E002301210DF107008DF8073000F0CA
:10BB1000FDF898B19DF80730022B0FD803F068FAB2
:10BB20009DF80740012184F003030DF107008DF813
:10BB3000073000F0C7F820B903F060FA00F098F879
:10BB4000DEE70C236343EA18E95C31B153883068BF
:10BB5000184400F0C9F80028EED00C236343E8181D
:10BB600087683FB1EA5C3168C38840880B44014470
:10BB70001046B8470C2303FB0454217911B903F094
:10BB80003DFABEE7E3883068184400F09BF80446AD
:10BB900003F034FA002CB4D1D0E700BF700C0020C1
:10BBA0003CF1000807B500F0DBF800230093FF220A
:10BBB000044B05484FF4B46101F03CF903B05DF863
:10BBC00004FB00BFFDBA00085015002000F0D8B8F3
:10BBD00073B5044600F04CF8E0B202288DF8060078
:10BBE0003FD803F005FA01210DF106009DF806503B
:10BBF00000F068F828B9002403F000FA204602B0EB
:10BC000070BDFF2301210DF107008DF8073000F012
:10BC10006BF804460028EED09DF806309DF807200A
:10BC200083F003039A42E6D10C220F4E6A43B01808
:10BC3000B15C69B90C2303FB056529790029DBD0C8
:10BC40000A4AEB881068184400F04EF80446D3E71F
:10BC5000064A43881068184400F034F80028E9D1F7
:10BC6000C9E70024CAE700BF700C00203CF10008BF
:10BC700073B5302585F31188114C23685B69003357
:10BC800018BF01238DF80730002686F311889DF830
:10BC900007300BB902B070BD85F3118820680C30F5
:10BCA00001F09DFB86F311889DF8073085F311881C
:10BCB00023685B69003318BF01238DF80730E4E780
:10BCC000B00C0020074B70B51D682B680C46DE6970
:10BCD0000A464FF4FA6301462846B047031B584210
:10BCE000584170BDB00C0020074B70B51D682B6823
:10BCF0000C461E6A0A464FF4FA6301462846B047CE
:10BD0000031B5842584170BDB00C002038B5064B9B
:10BD10001B681A680C4695680A4601461846A847EB
:10BD2000031B5842584138BDB00C002010B5074CD9
:10BD300040F29A322046402102F0A8FA204640F212
:10BD40009A328021BDE8104002F0A0BA00040240FF
:10BD500008B5FFF7EBFF08BD08B5FFF7E7FF08BD23
:10BD600010B5054C2046FFF7F7FF20680349BDE8F2
:10BD7000104001F0EFBC00BFB00C0020A40C00206C
:10BD800010B5054C2046FFF7E3FF20680349BDE8E6
:10BD9000104001F0DFBC00BFB00C0020A40C00205C
:10BDA00010B5084A084C117824784B1C03F00F0397
:10BDB0009C421DBF054C13706054002018BF012029
:10BDC00010BD00BF8E1E00208F1E00207E1E002092
:10BDD0007047000070B590F8443003F07F02212ACC
:10BDE000044651D113F080021ED0002A4CD090F8A6
:10BDF0004520022A14D0032A05D0012A14D1BDE817
:10BE0000704000F0DDBB90F8482090F8491052EAED
:10BE1000012209D1344B83630120E063226470BDA9
:10BE2000BDE8704000F0FEBC94F845200A2A22D0FC
:10BE30000B2A11D0092A27D194F8482094F84910E8
:10BE400042EA0122012A1FD8284BA3630223E3639D
:10BE5000274B23640120E2E794F8483094F8492006
:10BE600053EA022302BF204B94F846201A700023A5
:10BE7000A363E363EDE71F4B94F847201A70204655
:10BE8000BDE8704000F0F6BC03F09F03812B03D1A6
:10BE900094F84530062B11D0174DD5F89C2022B9C7
:10BEA000D5F8443133B90020B9E72046904700283F
:10BEB000F6D0B4E72046BDE87040184794F8492012
:10BEC000616894F848304D6894F8461043EA0223BC
:10BED000204694F84720A8470028E4D04368A3638D
:10BEE0000368E3630023B4E7B40C0020FC1A0020CD
:10BEF00041BF0008F81A0020AC0E0020F8B50F4C26
:10BF00002346002243F8042F90F84B7090F84960C4
:10BF100090F8465090F84A2090F8481090F8470062
:10BF200042EA072241EA062145EA002000F072F9C0
:10BF300020606068002818BF2046F8BDF01A002075
:10BF400090F84A1090F84B00064B41EA0021022974
:10BF50001A7804D1012A01D0062A02D15A78024B5C
:10BF60001A707047FC1A0020F91A002008B505293C
:10BF70002AD8DFE801F01A29031A1A2A302383F39A
:10BF80001188194800F0E9F9184800F0E6F9002393
:10BF900083F31188164B1B7813B10520FFF700FFC0
:10BFA0000220BDE80840FFF7FBBE0846FFF7F8FE99
:10BFB000302383F311880C4800F0B8F90B4800F0E7
:10BFC000B5F9002383F3118808BD302383F311886A
:10BFD000054800F0BFF9054800F0BCF9002383F3E1
:10BFE00011880520DDE700BFAC0E0020540F0020B3
:10BFF000FA1A002008B5102200210448FCF7F8FACC
:10C00000034A00231370034A137008BD7E1E0020EC
:10C010008E1E00208F1E0020F8B5294D294E2C467B
:10C0200030782B78284F0021984230D101B1207010
:10C03000F8BD2370254B01221A70254B93F84F1041
:10C04000081C18BF0120FFF72FFCE9E723701F4BE6
:10C0500000221A70FFF76EFC1D4B93F84F10081C5E
:10C0600018BF0120FFF72AFCDAE72370184B93F87A
:10C070004F10081C18BF0120FFF70AFCD0E7002171
:10C0800023700846F8E72370FFF71AFCC8E71A4642
:10C090000133BA5C03F00F030121052AC4D80FF263
:10C0A000080C5CF822F000BF87C0000829C0000817
:10C0B0006BC000087FC0000833C000084DC00008F6
:10C0C0008F1E00208E1E00207E1E0020FA1A0020E7
:10C0D000241F002038B5124C0546204600F0FAF81F
:10C0E0002046A83400F012F9204600F0F3F820466C
:10C0F00000F00CF96A6D936B23F4002393632846D8
:10C1000001F06EFB41F2883000F0C7FE0549284679
:10C1100001F053FB6A6D936B43F40023936338BDC6
:10C12000AC0E0020DCF10008014B1878704700BF0E
:10C13000F91A002037B5064C0023A825009305FB0B
:10C14000004042F2107300F063F903B030BD00BF4D
:10C15000AC0E0020014608220120FFF7EBBF01468C
:10C1600020220020FFF7E6BF014606220020FFF74D
:10C17000E1BF014603220020FFF7DCBFFFF784BCCC
:10C180007047704708B5FFF7F9FF02F0E9FEFFF7C7
:10C19000F7FF08BD08B502F029FFFFF7F2FF08BD61
:10C1A000FFF798BB08B5FFF725FF0648FFF792FF9A
:10C1B000054B064A1A6041F28830BDE8084000F09D
:10C1C0006CBE00BF241F0020001B0020B80C002004
:10C1D000014B1868FFF7DEB9001B002038B50B4C87
:10C1E000FFF71AFF2378052B0FD12546FFF799FBA0
:10C1F000FFF77EFB30B1B4F84C309B0702D52846E0
:10C2000001F07CFB2378052BF0D038BD241F0020E3
:10C2100000F086BA020A032A11D006D8012A1ED0DD
:10C22000022A1FD00020024611E0212A11D0222A22
:10C23000F8D1E9B10129F5D1B6200F4A07E0C0B223
:10C240000228EFD80D4A0E4952F82020085C1A60E7
:10C25000704751B10129E5D109200A4AF7E71220B8
:10C26000094AF4E73B20094AF1E70920084AEEE7CA
:10C270004420084AEBE700BFC0F20008ECF10008D8
:10C28000F8F1000826F2000836F20008FBF1000879
:10C290000DF2000848F2000813B5446BD4F888206A
:10C2A0001378042B13D194F88C10128901238B403E
:10C2B00013420CD101A9204600F089FF024630B19B
:10C2C000019B94F88C10D4F8880001F005FB02B0B3
:10C2D00010BD00001FB500F15C03C36490F884300A
:10C2E00013B100F170030365074B0193D0F8903050
:10C2F00000930290D0F89430D0F89820012100F0FB
:10C3000043FF05B05DF804FB99C20008302383F3B6
:10C310001188D0F8883090F88C2003EB8203986164
:10C32000002380F8A03083F311887047012310B5F3
:10C330006FF001010372044600F0DFFD204600F0BB
:10C340003AFFD4F8A43023B1DA681868BDE8104089
:10C35000104710BD00230372704710B500F138027A
:10C36000044690F88C10D0F8880001F063FA20465B
:10C3700000F021FF0023237210BD00EB8103F7B50D
:10C380009C6905460E4684B3302383F3118800234D
:10C3900084F8A030226963699A4201D1E368B3B995
:10C3A00005EB8603DB685B691B6883B1D4F8A430B6
:10C3B00053B101A9204600F00AFFD4F8A430019A35
:10C3C0009F6801461868B847204600F00EFF01A993
:10C3D000204600F0FCFE024648B1019B314628464B
:10C3E00001F07AFA002383F3118803B0F0BD05EB66
:10C3F0008603DB681A68022AF4D15A691268002A97
:10C40000F0D01B8A013B1340ECD105F14402E5E773
:10C410002DE9F84F1E4604468A4617469DF82850D7
:10C42000302383F31188D0F888301B78042B05D093
:10C43000002585F311882846BDE8F88F90F8A030D4
:10C4400023B101364FF0FF3618BF0026002383F3D7
:10C4500011884FF030094FF0010833463A465146F3
:10C46000204600F0FDFE87421CD989F3118894F81C
:10C47000A03084F80880002808BF43F0010384F846
:10C48000A0306FF00101204600F037FD4FF0000BA7
:10C49000204600F090FE84F808B000F045FC8BF3D5
:10C4A0001188DAE7002DC6D1204600F01EFF0125D5
:10C4B000C1E7302383F31188026943699A4210D19E
:10C4C000C36883B1D0F8882090F88C1012890123BA
:10C4D0008B4013420CBF01200020002383F31188FE
:10C4E00070470020F9E71846F7E7F8B506680546F3
:10C4F0000F4614465EB100F032FE70602868224696
:10C50000846439460830BDE8F840FBF7D7BFF8BD72
:10C510000168134631B18A6C9A64083103F108004E
:10C52000FBF7CCBF704710B50446006840B1826C81
:10C5300000210830FCF75CF8236800221A605A607A
:10C5400010BD2DE9F0410C78082C07460D46164623
:10C5500013D824B250F82480B8F1000F0DD000F0A9
:10C56000FEFDC8F8040057F82400324686642946C8
:10C570000830BDE8F041FBF7A1BFBDE8F081082914
:10C58000134609D850F8211031B18A6C9A640831E9
:10C5900003F10800FBF792BF704770B5051F00F16B
:10C5A0002004002655F8040F38B1826C00210830B1
:10C5B000FCF71EF82B681E605E60A542F2D170BDCC
:10C5C00038B590F84830012B04461CD890F8461036
:10C5D000082918D80D4AD35C012B14D80C4AA8207E
:10C5E00000FB0323D3F8A40060B10A4D4368006840
:10C5F0002A46984705F10803A363AB6CE363002365
:10C600002364012038BD0020FCE700BFA80E0020F5
:10C61000AC0E0020C81B0020036843B191001960D4
:10C6200003490B78002A18BF43F001030B707047D1
:10C63000601C0020006810B10068C0F387007047DC
:10C64000036870B50BB9002070BD302383F31188E7
:10C650000368D3E90045002383F31188002CF2D04E
:10C6600000F07DFD451B0748074A4FF47A7600210C
:10C670000023E6FB0501FBF76FFD84428CBF002021
:10C680000120E1E79F860100A08601004B1E072BD9
:10C690000BD850F8213043B19100196003490B7851
:10C6A000002A18BF43F001030B707047601C002084
:10C6B000082906D850F8210020B10068C0F387008F
:10C6C0007047002070470000082970B501D900208C
:10C6D00070BD09B250F82130002BF8D0302383F31D
:10C6E000118850F82130D3E90045002383F31188E5
:10C6F000002CECD000F033FD451B0748074A4FF4EF
:10C700007A7600210023E6FB0501FBF725FD844234
:10C710008CBF00200120DBE79F860100A08601007E
:10C720002DE9F74F3A4B01931A78002A3FD00026A3
:10C73000384FDFF8E4B03546D7F8A440002C32D0AB
:10C74000002E39D14FF00108302383F311885FFAAE
:10C7500088FA63692068514698474FF0000900281D
:10C7600018BF45F0010589F311882A48FFF7A1FE9B
:10C77000A0B1A36920685146984778B1302383F36C
:10C780001188254A636820685146984789F31188C3
:10C790002249DBF848204846FFF7CCFC08F10108A5
:10C7A000B8F1090FD0D1A83726B1019B1D7003B095
:10C7B000BDE8F08F0126BFE74FF0300989F31188FB
:10C7C00000216369206898474FF00008002818BFCF
:10C7D00045F0010588F311881148FFF76AFE00282B
:10C7E000E1D0A3692068414698470028DBD089F34F
:10C7F0001188094A636820684146984788F3118880
:10C800000649DBF848200120FFF794FCCBE700BF86
:10C81000601C0020AC0E0020141C00201C1C0020FA
:10C82000540F002010B590F84830012B044619D859
:10C8300090F84610082915D80B4AD35C012B11D863
:10C840000A4AA82000FB0323D3F8A40048B1436997
:10C8500000689847064BA363187001200023E0632B
:10C86000236410BD0020FCE7A80E0020AC0E0020C1
:10C87000C41B002010B590F84830012B044619D88D
:10C8800090F84610082915D80B4AD35C012B11D813
:10C890000A4AA82000FB0323D3F8A40048B1036987
:10C8A00094F84720006898470023A363E363236458
:10C8B000012010BD0020FCE7A80E0020AC0E0020D7
:10C8C0000348426D936B23F40023936300F088BF09
:10C8D000241F0020024B1878031F5842584170470C
:10C8E000241F002070477047FEE700000C4B70B516
:10C8F0000820002493E826000439954207D8D96817
:10C90000914209D8013803F11003F3D170BD51F8F9
:10C91000046F42F8046BF0E742F8044BF0E700BF05
:10C9200078F3000838B5084C0123002523706560B2
:10C9300000F0F6FB0549064800F004FA02232370D4
:10C9400085F3118838BD00BF901E0020F8F3000861
:10C95000981E002072B6034BD865034B03221A7051
:10C96000FEE700BF981E0020901E002000F0D8B8FF
:10C97000034B59685A68521A9042FBD8704700BF5F
:10C98000001000E0024AD36A1843D062704700BF2B
:10C99000981E002010B503689C68A2420CD85C6801
:10C9A0008A600B604C602160596099688A1A9A60AD
:10C9B0004FF0FF33836010BD121B1B68ECE70229A8
:10C9C00038BF022170B504460E460225A01900F0BA
:10C9D000D7FB00F0C4FB041BA64203D801352E464A
:10C9E0000446F3E7022D04D90120BDE87040FFF7AB
:10C9F000C9BF70BDF8B5144B0E46D96103F11001E3
:10CA0000416019698260022A38BF022201604860D1
:10CA10001861B018144600F0A6FB022500F09FFB39
:10CA2000831BA342074606D30135701900F0A8FB0B
:10CA30002C463E46F2E7022D04D90120BDE8F8401D
:10CA4000FFF7A0BFF8BD00BF981E0020F8B50D4647
:10CA5000064600F084FB10490A4652F8107F9742C0
:10CA600006D12A4601463046BDE8F840FFF7C2BF6E
:10CA7000C969431AEB1838BF1C46BB6828BF2C464F
:10CA8000A34202D92946FFF79AFF224631460348BE
:10CA9000BDE8F840FFF77EBF981E0020A81E0020CA
:10CAA00010B403610023C26043615DF8044BFFF7DB
:10CAB000CDBF000010B5194C236998420DD0036812
:10CAC0004268816813605A609A680A449A60002339
:10CAD00003604FF0FF33A36110BD2346026843F8A3
:10CAE000102F53600022026022699A4203D1BDE8F0
:10CAF000104000F040BB936881680B44936000F0E5
:10CB00002EFB2269E3699268C41AA242E4D9134455
:10CB1000191ABDE81040FFF752BF00BF981E002051
:10CB20002DE9F84F2A4EB14606F11008294F356914
:10CB300000F015FBF469AA68031B9A423BD82B68E6
:10CB400014446A68F46113605A6000232B603269F0
:10CB5000BA429A4601D100F00EFB8AF31188EB68C5
:10CB6000296928469847302383F311886B69002B85
:10CB7000DDD000F0F4FA6A69A0EB040B5A45824656
:10CB80000DD20220FFF7FEFE0022D9F81030BB4282
:10CB900008D151462846BDE8F84FFFF72BBF121ABF
:10CBA0002244F2E712EB0B0B38BF5A4629464046A7
:10CBB000FFF7F0FEBAE73369BB4207D01444211AED
:10CBC000F061A960BDE8F84FFFF7F9BEBDE8F88F46
:10CBD000981E0020A81E00200023037582680369A8
:10CBE0001B6899689142FBD25A68036042601060EA
:10CBF0005860704700230375826803691B68996851
:10CC00009142FBD85A6803604260106058607047D8
:10CC100008B5302383F311880A7D0023052A06D83E
:10CC2000DFE802F00C050503130F8A6913604FF06B
:10CC3000FF338B610846FFF7CFFF002383F3118892
:10CC400008BD8A699368013393604A680B68136072
:10CC50005A60ECE7FFF7C0BF054BD9680875186844
:10CC600002681A60536001220275D860FBF75ABA55
:10CC7000981E002030B50C4BDC684B1C87B0054675
:10CC80000FD02346094A6846FFF70AFF2846FFF7F8
:10CC9000E3FF009B13B16846FFF70CFFA06907B0E4
:10CCA00030BDFFF7D9FFF9E7981E002011CC00082E
:10CCB00038B50C4D8161EB6881689A6891420446F1
:10CCC00003D8BDE83840FFF787BF1846FFF792FF4B
:10CCD00001232375EC6001462046BDE83840FBF790
:10CCE00021BA00BF981E0020044B1A68DB689068C8
:10CCF0009B68984294BF002001207047981E002036
:10CD0000084B10B51C68D86822681A60536001226D
:10CD10002275DC60FFF76EFF01462046BDE810403B
:10CD2000FBF700BA981E0020044B1A68DB68926873
:10CD30009B689A4201D9FFF7E3BF7047981E002015
:10CD400030BFFDE770B504460025194B856286B0FB
:10CD500021630E46586000F095F904F11003236139
:10CD600063614FF0FF33A36124606460A560E562F6
:10CD7000E56100F0F4F90021C4E90801802304F121
:10CD80003401E5650B4A204600F01AF80123E06003
:10CD9000094A0375009272680192B268CDE90223D4
:10CDA000064B6846CDE9043500F03CF806B070BD8E
:10CDB000901E002007F400080CF4000841CD000884
:10CDC0008B6002224B62002308618A820B62CB6176
:10CDD000084670478368C168A3F18C0243F81C2C95
:10CDE000026943F84C2C426943F8482C0B4A43F83B
:10CDF0002C2C022203F8142C094843F8180C0022AA
:10CE000043F8201C03F8132C43F8041C43F8082CA7
:10CE100043F80C2CA3F12800704700BF3D810008A7
:10CE2000981E002008B5FFF7D5FFBDE80840FFF7C2
:10CE300011BF000038B5302484F311882839441814
:10CE4000002544F8243C049B44F8203C0A4B44F859
:10CE5000043C0223A4F16401A382084BE160A260B8
:10CE6000236162622562E56129462046FFF720FFC3
:10CE700085F31188204638BD3D810008981E0020AA
:10CE8000024BDB6898610F20FFF7E6BE981E00207A
:10CE9000302383F31188FFF7F3BF08B50146302331
:10CEA00083F311880820FFF7E5FE002383F3118840
:10CEB00008BD03682BB10022026099611846FFF794
:10CEC000C9BE7047064BDB6839B1426818605A60CA
:10CED000136043600420FFF7CDBE4FF0FF30704772
:10CEE000981E00200368984206D01A6802605060BD
:10CEF00099611846FFF7AEBE704738B504460D4637
:10CF00002068844200D138BD036823605C6085617D
:10CF1000FFF7A0FEF4E710B503461B68984203D064
:10CF20009C688A689442F8D25A680B604A60116023
:10CF3000596010BD002300604060836070470000AE
:10CF400070B5174B8468DD6806469CB92B6A85600E
:10CF5000C360286270BDA360237D83B1062B15D109
:10CF600023686268A069136021465A60FFF7D3FF07
:10CF7000A3699C68AB68A2689A42ECD306E0626839
:10CF80002368136020465A60FFF764FE3046294646
:10CF9000FFF7C1FFAE610620BDE87040FFF75CBE41
:10CFA000981E002008B5302383F31188FFF7C8FFCF
:10CFB000002383F3118808BD154A10B5D1680346D4
:10CFC000302282F31188C26800680A6283421BD053
:10CFD000486A82B98860186802681A605360026AF9
:10CFE0009860DA600362FFF735FEFFF79DFE0023CD
:10CFF00083F3118810BD1468A24203D0A468A04234
:10D0000038BF2046D268E4E700229A60EFE700BF0D
:10D01000981E0020C3691943037DC1610A2B03D107
:10D020008369194205D170470B2B06D183698B4365
:10D0300003D100238361FFF70DBE704770B504680C
:10D0400006460D46B44200D170BDE3682B43E36051
:10D0500015B123691D4203D0A1686068FFF7DAFFAC
:10D060002468EFE7EFF3098305494A6822F00102DB
:10D070004A60683383F30988002383F3118870477B
:10D0800030EF00E0302080F3118862B60B4B0C4A81
:10D09000D96821F4E0610904090C0A430949DA60FE
:10D0A000CA6842F08072CA6007490A6842F0010209
:10D0B0000A602022DA7783F82200704700ED00E052
:10D0C0000003FA05F0ED00E0001000E010B5302399
:10D0D00083F311880E4B5B6813F4006314D0F1EEF8
:10D0E000103AEFF30984683C4FF08073E361094B19
:10D0F000DB68236684F30988FFF7F6FD10B1064B61
:10D10000A36110BD054BFBE783F31188F9E700BF6E
:10D1100000ED00E030EF00E04F8100085281000890
:10D12000024B034A1A60034A5A607047F81E0020F7
:10D13000E82000200000012008B500F0B3FE01F057
:10D14000A4F800F097FA00F0E2FA00F028FBFFF7ED
:10D1500021F8BDE8084000F000B801F0DBBD4FF059
:10D160008043586A70474FF08043002258631A6129
:10D170000222DA6070474FF080430022DA60704785
:10D180004FF080435863704710B5029C017204331E
:10D1900003FB0421C36100238362C362039B036317
:10D1A000049B00604060C46042610261816104626E
:10D1B0004262436310BD026AC260426A4261026118
:10D1C00000228262C2626FF00101FFF796BE4369DE
:10D1D00002699A4201D1C26822B9184650F8043B4C
:10D1E0000B60704700231846FAE7C368C269013331
:10D1F000C3604369134482694361934224BF436A15
:10D2000043610021FFF76EBE38B504460D46E36862
:10D210003BB123691A1DA262E2691344E362002054
:10D2200007E0237A33B929462046FFF74BFE002852
:10D23000EDDA38BD6FF00100FBE703691960C268E1
:10D24000013AC260C269134482690361934224BFF8
:10D25000436A036100238362036B03B1184770477D
:10D260002DE9F84F04460F4691469A464FF0300894
:10D2700088F311880025AB46A66A4EB95146204670
:10D28000FFF7C2FF20B186F311882846BDE8F88F6A
:10D29000A06AE66AA9EB0503361A9E4228BF1E461D
:10D2A000402E18D939464022FBF708F9A36A4033CB
:10D2B0004037A3624035A26AE36A9A4204D3E16927
:10D2C00020460439FFF7B9FF8BF311884D45DCD2B6
:10D2D00088F31188D0E739463246FBF7EFF8A36AA6
:10D2E00033443744A3623544E5E708B5302282F37E
:10D2F0001188816A29B103690439C91A01D0FFF77D
:10D300009CFF002383F3118808BDF8B51546826899
:10D310000669AA420B46816938BF8568761AB5420C
:10D32000044607D218462A46FBF7C8F8A3692B44DF
:10D33000A3610DE011D932461846FBF7BFF8AF1BC9
:10D340003A46E1683044FBF7B9F8E2683A44A26132
:10D35000A3685B1BA3602846F8BD18462A46FBF766
:10D36000ADF8E368E4E783682DE9F04104469342B1
:10D370001546266938BF85684069361AB5420F469A
:10D3800006D22A46FBF79AF863692B4463610DE0E5
:10D3900012D93246A5EB0608FBF790F84246B919B8
:10D3A000E068FBF78BF8E26842446261A3685B1BAC
:10D3B000A3602846BDE8F0812A46FBF77FF8E368C2
:10D3C000E4E710B50A440024C361029B006040609A
:10D3D0008460C160816141610261036210BDC26805
:10D3E00082614261002282606FF00101FFF785BD1A
:10D3F00008B582694369934201D1826882B9826823
:10D40000013282605A1C42611970036942699A4272
:10D4100024BFC36843610021FFF764FD002008BDFD
:10D420004FF0FF30FBE770B5302304460E4683F320
:10D430001188A568A5B1A368A269013BA360531C2C
:10D44000A36115782269934224BFE368A361E3696D
:10D450000BB120469847002383F31188284607E044
:10D4600031462046FFF72EFD0028E2DA85F31188C9
:10D4700070BD2DE9F74F05460F4690469A46D0F805
:10D480001C90302686F311884FF0000B144664B1CF
:10D49000224639462846FFF738FF034668B9514609
:10D4A0002846FFF70FFD0028F1D0002383F31188F1
:10D4B000A8EB040003B0BDE8F08FB9F1000F03D072
:10D4C00001902846C847019B8BF31188E41A1F443A
:10D4D00086F31188DBE7C16081614161C36111445A
:10D4E000009B006040608260016103627047F8B594
:10D4F00004460E461746302383F31188A568A5B16C
:10D50000A368013BA36063695A1C62611E702369B2
:10D5100062699A4224BFE3686361E3690BB1204604
:10D520009847002080F3118807E039462046FFF72E
:10D53000C9FC0028E2DA85F31188F8BD83694269E5
:10D540009A4210B501D182687AB98268013282604C
:10D550005A1C82611C7803699A4224BFC3688361A4
:10D560000021FFF7BFFC204610BD4FF0FF30FBE766
:10D570002DE9F74F05460F4690469A46D0F81C9085
:10D58000302686F311884FF0000B144664B1224612
:10D5900039462846FFF7E7FE034668B95146284654
:10D5A000FFF790FC0028F1D0002383F31188A8EB4B
:10D5B000040003B0BDE8F08FB9F1000F03D0019073
:10D5C0002846C847019B8BF31188E41A1F4486F351
:10D5D0001188DBE72DE9F3480E4D044640F2E736AB
:10D5E0000027236801A99B692046984701280ED18E
:10D5F0000199B346BC46E5FB01BC4FF47A720023A7
:10D6000061465846FAF7A8FDFFF747FCE9E702B084
:10D61000BDE8F088A0860100036810B55B680C4681
:10D620009847C36813B153F8340010BD00696043D4
:10D63000FBE7036810B55B680C469847C3681BB1ED
:10D6400003EBC403586810BD0069FCE7036810B51C
:10D650005B680C4698474069204410BD08B50C3003
:10D66000FFF7AAFC002008BD08B50C30FFF79AFCB4
:10D67000002008BD00F0EABC034B036001230371E6
:10D680000C30FFF757BC00BF14F4000810B530236E
:10D69000044683F31188816000F006FD02232371A4
:10D6A000002080F3118810BD10B53023044683F3A9
:10D6B000118800F00DFD01232371002383F31188ED
:10D6C00010BD0C30FFF7D5BE4FF0FF330C30FFF725
:10D6D000D0BE3030FFF74CBF4FF0FF333030FFF794
:10D6E00047BF0C30FFF79FBE4FF0FF310C30FFF704
:10D6F0009ABE3030FFF7FBBE4FF0FF323030FFF7FD
:10D70000F6BE012914BF6FF013000020704701F02E
:10D7100041BB000037B5034615460D4A43F8042BBC
:10D720004360012304460372802200900B4600F1FF
:10D7300054010C30FFF745FE00942B46802204F183
:10D74000D40104F13000FFF7C6FE03B030BD00BFC6
:10D750003CF4000810B53023044683F3118801F02F
:10D7600031FB02232372002080F3118810BD38B5ED
:10D77000436904460D461BB904210844FFF75EFCCB
:10D78000294604F10C00FFF733FE002806DA201DBD
:10D790004FF40061BDE83840FFF750BC38BD00F0E1
:10D7A0001BBE012303700023C36183620362C36253
:10D7B0004362036343608360704738B50546302396
:10D7C00083F3118800244160C46004614461846172
:10D7D00000F012FE02232B7084F31188204638BD1E
:10D7E00070B53023064683F31188344600F06AFE94
:10D7F00000250123756004F80C3B1C3654F8043BEB
:10D800007BB1586920B16FF001010C30FFF751FB7B
:10D8100054F8043C986920B16FF001010C30FFF717
:10D8200048FBB44244F8045CE8D1FFF77DFA85F385
:10D83000118870BD70B500EB810305465069DA6050
:10D840000E46144618B114220021FAF7D1FEA06941
:10D8500018B114220021FAF7CBFE31462846BDE864
:10D86000704000F0B5BEF8B5836803F001130446BC
:10D87000836000F1100500F11C06002755F8043BF9
:10D880007BB1586920B16FF001010C30FFF711FB3B
:10D8900055F8043C986920B16FF001010C30FFF796
:10D8A00008FBB54245F8047CE8D12046BDE8F840C5
:10D8B00000F00CBFF0B400EB81044789E468012557
:10D8C000A4698D403D43458123600023A2606360CD
:10D8D000E360F0BC00F022BFF0B400EB81040789E4
:10D8E000E468012564698D403D4305812360002380
:10D8F000A2606360E360F0BC00F0A6BF0378052B74
